{
  "contractName": "Bank",
  "abi": [
    {
      "inputs": [
        {
          "internalType": "address[]",
          "name": "addresses",
          "type": "address[]"
        },
        {
          "internalType": "address",
          "name": "_CBLT",
          "type": "address"
        },
        {
          "internalType": "address",
          "name": "_oracle",
          "type": "address"
        }
      ],
      "stateMutability": "nonpayable",
      "type": "constructor"
    },
    {
      "anonymous": false,
      "inputs": [
        {
          "indexed": false,
          "internalType": "address",
          "name": "_previousOwner",
          "type": "address"
        },
        {
          "indexed": true,
          "internalType": "address",
          "name": "_newOwner",
          "type": "address"
        }
      ],
      "name": "OwnershipTransferred",
      "type": "event"
    },
    {
      "anonymous": false,
      "inputs": [
        {
          "indexed": true,
          "internalType": "address",
          "name": "_from",
          "type": "address"
        },
        {
          "indexed": false,
          "internalType": "uint256",
          "name": "_amount",
          "type": "uint256"
        }
      ],
      "name": "depositToken",
      "type": "event"
    },
    {
      "anonymous": false,
      "inputs": [
        {
          "indexed": true,
          "internalType": "address",
          "name": "_from",
          "type": "address"
        },
        {
          "indexed": false,
          "internalType": "uint256",
          "name": "_amount",
          "type": "uint256"
        }
      ],
      "name": "onReceived",
      "type": "event"
    },
    {
      "anonymous": false,
      "inputs": [
        {
          "indexed": true,
          "internalType": "address",
          "name": "_from",
          "type": "address"
        },
        {
          "indexed": true,
          "internalType": "address",
          "name": "_to",
          "type": "address"
        },
        {
          "indexed": false,
          "internalType": "uint256",
          "name": "_amount",
          "type": "uint256"
        }
      ],
      "name": "onTransfer",
      "type": "event"
    },
    {
      "inputs": [],
      "name": "_owner",
      "outputs": [
        {
          "internalType": "address",
          "name": "",
          "type": "address"
        }
      ],
      "stateMutability": "view",
      "type": "function"
    },
    {
      "inputs": [
        {
          "internalType": "address",
          "name": "",
          "type": "address"
        }
      ],
      "name": "_tokenSupply",
      "outputs": [
        {
          "internalType": "uint256",
          "name": "",
          "type": "uint256"
        }
      ],
      "stateMutability": "view",
      "type": "function"
    },
    {
      "inputs": [
        {
          "internalType": "address",
          "name": "",
          "type": "address"
        }
      ],
      "name": "etherBalance",
      "outputs": [
        {
          "internalType": "uint256",
          "name": "",
          "type": "uint256"
        }
      ],
      "stateMutability": "view",
      "type": "function"
    },
    {
      "inputs": [],
      "name": "isOwner",
      "outputs": [
        {
          "internalType": "bool",
          "name": "",
          "type": "bool"
        }
      ],
      "stateMutability": "view",
      "type": "function"
    },
    {
      "inputs": [
        {
          "internalType": "address",
          "name": "",
          "type": "address"
        },
        {
          "internalType": "address",
          "name": "",
          "type": "address"
        }
      ],
      "name": "tokenOwnerBalance",
      "outputs": [
        {
          "internalType": "uint256",
          "name": "",
          "type": "uint256"
        }
      ],
      "stateMutability": "view",
      "type": "function"
    },
    {
      "inputs": [
        {
          "internalType": "address",
          "name": "",
          "type": "address"
        }
      ],
      "name": "tokensAllowed",
      "outputs": [
        {
          "internalType": "bool",
          "name": "",
          "type": "bool"
        }
      ],
      "stateMutability": "view",
      "type": "function"
    },
    {
      "inputs": [
        {
          "internalType": "address",
          "name": "_newOwner",
          "type": "address"
        }
      ],
      "name": "transferOwnership",
      "outputs": [],
      "stateMutability": "nonpayable",
      "type": "function"
    },
    {
      "stateMutability": "payable",
      "type": "receive"
    },
    {
      "inputs": [
        {
          "internalType": "address",
          "name": "_tokenAddress",
          "type": "address"
        },
        {
          "internalType": "uint256",
          "name": "_amount",
          "type": "uint256"
        }
      ],
      "name": "withdrawTokens",
      "outputs": [],
      "stateMutability": "nonpayable",
      "type": "function"
    },
    {
      "inputs": [
        {
          "internalType": "uint256",
          "name": "_amount",
          "type": "uint256"
        }
      ],
      "name": "withdraw",
      "outputs": [],
      "stateMutability": "nonpayable",
      "type": "function"
    },
    {
      "inputs": [
        {
          "internalType": "address",
          "name": "_tokenAddress",
          "type": "address"
        },
        {
          "internalType": "uint256",
          "name": "_tokenAmount",
          "type": "uint256"
        }
      ],
      "name": "depositTokens",
      "outputs": [],
      "stateMutability": "payable",
      "type": "function"
    },
    {
      "inputs": [],
      "name": "deposit",
      "outputs": [],
      "stateMutability": "payable",
      "type": "function"
    },
    {
      "inputs": [
        {
          "internalType": "address",
          "name": "_tokenAddress",
          "type": "address"
        }
      ],
      "name": "addToken",
      "outputs": [
        {
          "internalType": "bool",
          "name": "",
          "type": "bool"
        }
      ],
      "stateMutability": "nonpayable",
      "type": "function"
    },
    {
      "inputs": [
        {
          "internalType": "address",
          "name": "_tokenAddress",
          "type": "address"
        }
      ],
      "name": "removeToken",
      "outputs": [
        {
          "internalType": "bool",
          "name": "",
          "type": "bool"
        }
      ],
      "stateMutability": "nonpayable",
      "type": "function"
    },
    {
      "inputs": [
        {
          "internalType": "address",
          "name": "_tokenAddress",
          "type": "address"
        }
      ],
      "name": "totalTokenSupply",
      "outputs": [
        {
          "internalType": "uint256",
          "name": "",
          "type": "uint256"
        }
      ],
      "stateMutability": "view",
      "type": "function"
    },
    {
      "inputs": [],
      "name": "balanceOf",
      "outputs": [
        {
          "internalType": "uint256",
          "name": "",
          "type": "uint256"
        }
      ],
      "stateMutability": "view",
      "type": "function"
    },
    {
      "inputs": [
        {
          "internalType": "address",
          "name": "_tokenAddress",
          "type": "address"
        }
      ],
      "name": "balanceOfToken",
      "outputs": [
        {
          "internalType": "uint256",
          "name": "",
          "type": "uint256"
        }
      ],
      "stateMutability": "view",
      "type": "function"
    },
    {
      "inputs": [
        {
          "internalType": "uint256",
          "name": "interestRateNumerator",
          "type": "uint256"
        },
        {
          "internalType": "uint256",
          "name": "interestRateDenominator",
          "type": "uint256"
        },
        {
          "internalType": "uint256",
          "name": "_paymentPeriod",
          "type": "uint256"
        },
        {
          "internalType": "uint256",
          "name": "_minimumPayment",
          "type": "uint256"
        },
        {
          "internalType": "uint256",
          "name": "principal",
          "type": "uint256"
        },
        {
          "internalType": "uint256",
          "name": "units",
          "type": "uint256"
        }
      ],
      "name": "newLoan",
      "outputs": [],
      "stateMutability": "payable",
      "type": "function"
    },
    {
      "inputs": [],
      "name": "makePayment",
      "outputs": [],
      "stateMutability": "payable",
      "type": "function"
    },
    {
      "inputs": [],
      "name": "missedPayment",
      "outputs": [],
      "stateMutability": "nonpayable",
      "type": "function"
    },
    {
      "inputs": [],
      "name": "returnCollateral",
      "outputs": [],
      "stateMutability": "nonpayable",
      "type": "function"
    },
    {
      "inputs": [],
      "name": "cleanSlate",
      "outputs": [],
      "stateMutability": "nonpayable",
      "type": "function"
    },
    {
      "inputs": [],
      "name": "calculateReward",
      "outputs": [
        {
          "internalType": "uint256",
          "name": "",
          "type": "uint256"
        }
      ],
      "stateMutability": "nonpayable",
      "type": "function"
    },
    {
      "inputs": [],
      "name": "depositEth",
      "outputs": [],
      "stateMutability": "payable",
      "type": "function"
    },
    {
      "inputs": [
        {
          "internalType": "uint256",
          "name": "_amount",
          "type": "uint256"
        }
      ],
      "name": "withdrawEth",
      "outputs": [],
      "stateMutability": "nonpayable",
      "type": "function"
    },
    {
      "inputs": [],
      "name": "withdrawStaking",
      "outputs": [],
      "stateMutability": "payable",
      "type": "function"
    },
    {
      "inputs": [
        {
          "internalType": "uint256",
          "name": "_numerator",
          "type": "uint256"
        },
        {
          "internalType": "uint256",
          "name": "_denominator",
          "type": "uint256"
        }
      ],
      "name": "changeAPR",
      "outputs": [],
      "stateMutability": "nonpayable",
      "type": "function"
    }
  ],
  "bytecode": "0x608060405260405180604001604052806001815260200160148152506003600082015181600001556020820151816001015550503480156200004057600080fd5b506040516200365e3803806200365e833981810160405260608110156200006657600080fd5b81019080805160405193929190846401000000008211156200008757600080fd5b838201915060208201858111156200009e57600080fd5b8251866020820283011164010000000082111715620000bc57600080fd5b8083526020830192505050908051906020019060200280838360005b83811015620000f5578082015181840152602081019050620000d8565b505050509050016040526020018051906020019092919080519060200190929190505050336000806101000a81548173ffffffffffffffffffffffffffffffffffffffff021916908373ffffffffffffffffffffffffffffffffffffffff16021790555060005b8351811015620001e0576001600760008684815181106200017957fe5b602002602001015173ffffffffffffffffffffffffffffffffffffffff1673ffffffffffffffffffffffffffffffffffffffff16815260200190815260200160002060006101000a81548160ff02191690831515021790555080806001019150506200015c565b5080600260006101000a81548173ffffffffffffffffffffffffffffffffffffffff021916908373ffffffffffffffffffffffffffffffffffffffff16021790555081600160006101000a81548173ffffffffffffffffffffffffffffffffffffffff021916908373ffffffffffffffffffffffffffffffffffffffff1602179055505050506133e880620002766000396000f3fe6080604052600436106101855760003560e01c8063a3f0bb66116100d1578063d0e30db01161008a578063d8d7970011610064578063d8d79700146107a7578063dcee7fe3146107b1578063eeda452b146107bb578063f2fde38b14610822576101da565b8063d0e30db0146106f1578063d48bfca7146106fb578063d7b6dbd314610762576101da565b8063a3f0bb661461057d578063b2bdfa7b14610594578063b99152d0146105d5578063c311d0491461063a578063c7d5f59814610675578063cd0c58961461068c576101da565b80635fa7b5841161013e578063725cedd311610118578063725cedd31461044057806374be5a801461046b57806382190e4d146104f05780638f32d59b14610550576101da565b80635fa7b5841461036057806366168bd7146103c7578063722713f714610415576101da565b806306b091f9146101df5780632c2332fe1461023a5780632e1a7d4d1461029f57806337933da6146102da578063439370b11461033f57806344ed456f14610349576101da565b366101da573373ffffffffffffffffffffffffffffffffffffffff167fd670118af2f5106578945dd6e0e7ec8146871079961c926ccd38e9a9abb91b72346040518082815260200191505060405180910390a2005b600080fd5b3480156101eb57600080fd5b506102386004803603604081101561020257600080fd5b81019080803573ffffffffffffffffffffffffffffffffffffffff16906020019092919080359060200190929190505050610873565b005b34801561024657600080fd5b506102896004803603602081101561025d57600080fd5b81019080803573ffffffffffffffffffffffffffffffffffffffff169060200190929190505050610da0565b6040518082815260200191505060405180910390f35b3480156102ab57600080fd5b506102d8600480360360208110156102c257600080fd5b8101908080359060200190929190505050610de9565b005b3480156102e657600080fd5b50610329600480360360208110156102fd57600080fd5b81019080803573ffffffffffffffffffffffffffffffffffffffff169060200190929190505050610fcb565b6040518082815260200191505060405180910390f35b610347610fe3565b005b34801561035557600080fd5b5061035e61120b565b005b34801561036c57600080fd5b506103af6004803603602081101561038357600080fd5b81019080803573ffffffffffffffffffffffffffffffffffffffff1690602001909291905050506113fc565b60405180821515815260200191505060405180910390f35b610413600480360360408110156103dd57600080fd5b81019080803573ffffffffffffffffffffffffffffffffffffffff169060200190929190803590602001909291905050506114d0565b005b34801561042157600080fd5b5061042a611920565b6040518082815260200191505060405180910390f35b34801561044c57600080fd5b50610455611967565b6040518082815260200191505060405180910390f35b34801561047757600080fd5b506104da6004803603604081101561048e57600080fd5b81019080803573ffffffffffffffffffffffffffffffffffffffff169060200190929190803573ffffffffffffffffffffffffffffffffffffffff169060200190929190505050611bcf565b6040518082815260200191505060405180910390f35b61054e600480360360c081101561050657600080fd5b81019080803590602001909291908035906020019092919080359060200190929190803590602001909291908035906020019092919080359060200190929190505050611bf4565b005b34801561055c57600080fd5b506105656120a1565b60405180821515815260200191505060405180910390f35b34801561058957600080fd5b506105926120f8565b005b3480156105a057600080fd5b506105a9612241565b604051808273ffffffffffffffffffffffffffffffffffffffff16815260200191505060405180910390f35b3480156105e157600080fd5b50610624600480360360208110156105f857600080fd5b81019080803573ffffffffffffffffffffffffffffffffffffffff169060200190929190505050612265565b6040518082815260200191505060405180910390f35b34801561064657600080fd5b506106736004803603602081101561065d57600080fd5b81019080803590602001909291905050506122eb565b005b34801561068157600080fd5b5061068a612581565b005b34801561069857600080fd5b506106db600480360360208110156106af57600080fd5b81019080803573ffffffffffffffffffffffffffffffffffffffff1690602001909291905050506126c5565b6040518082815260200191505060405180910390f35b6106f96126dd565b005b34801561070757600080fd5b5061074a6004803603602081101561071e57600080fd5b81019080803573ffffffffffffffffffffffffffffffffffffffff1690602001909291905050506127b9565b60405180821515815260200191505060405180910390f35b34801561076e57600080fd5b506107a56004803603604081101561078557600080fd5b810190808035906020019092919080359060200190929190505050612896565b005b6107af612928565b005b6107b9612a84565b005b3480156107c757600080fd5b5061080a600480360360208110156107de57600080fd5b81019080803573ffffffffffffffffffffffffffffffffffffffff169060200190929190505050612b3f565b60405180821515815260200191505060405180910390f35b34801561082e57600080fd5b506108716004803603602081101561084557600080fd5b81019080803573ffffffffffffffffffffffffffffffffffffffff169060200190929190505050612b5f565b005b60011515600760008473ffffffffffffffffffffffffffffffffffffffff1673ffffffffffffffffffffffffffffffffffffffff16815260200190815260200160002060009054906101000a900460ff16151514610939576040517f08c379a00000000000000000000000000000000000000000000000000000000081526004018080602001828103825260168152602001807f546f6b656e206973206e6f7420737570706f727465640000000000000000000081525060200191505060405180910390fd5b600660008373ffffffffffffffffffffffffffffffffffffffff1673ffffffffffffffffffffffffffffffffffffffff16815260200190815260200160002060003373ffffffffffffffffffffffffffffffffffffffff1673ffffffffffffffffffffffffffffffffffffffff168152602001908152602001600020548111156109c257600080fd5b6000811415610a1c576040517f08c379a00000000000000000000000000000000000000000000000000000000081526004018080602001828103825260248152602001806133606024913960400191505060405180910390fd5b81600160006101000a81548173ffffffffffffffffffffffffffffffffffffffff021916908373ffffffffffffffffffffffffffffffffffffffff160217905550610aa6600860008473ffffffffffffffffffffffffffffffffffffffff1673ffffffffffffffffffffffffffffffffffffffff1681526020019081526020016000205482612c9a565b600860008473ffffffffffffffffffffffffffffffffffffffff1673ffffffffffffffffffffffffffffffffffffffff16815260200190815260200160002081905550610b6f600660008473ffffffffffffffffffffffffffffffffffffffff1673ffffffffffffffffffffffffffffffffffffffff16815260200190815260200160002060003373ffffffffffffffffffffffffffffffffffffffff1673ffffffffffffffffffffffffffffffffffffffff1681526020019081526020016000205482612c9a565b600660008473ffffffffffffffffffffffffffffffffffffffff1673ffffffffffffffffffffffffffffffffffffffff16815260200190815260200160002060003373ffffffffffffffffffffffffffffffffffffffff1673ffffffffffffffffffffffffffffffffffffffff1681526020019081526020016000208190555060011515600160009054906101000a900473ffffffffffffffffffffffffffffffffffffffff1673ffffffffffffffffffffffffffffffffffffffff1663a9059cbb33846040518363ffffffff1660e01b8152600401808373ffffffffffffffffffffffffffffffffffffffff16815260200182815260200192505050602060405180830381600087803b158015610c8657600080fd5b505af1158015610c9a573d6000803e3d6000fd5b505050506040513d6020811015610cb057600080fd5b8101908080519060200190929190505050151514610d36576040517f08c379a00000000000000000000000000000000000000000000000000000000081526004018080602001828103825260158152602001807f5472616e73666572206e6f7420636f6d706c657465000000000000000000000081525060200191505060405180910390fd5b600073ffffffffffffffffffffffffffffffffffffffff163373ffffffffffffffffffffffffffffffffffffffff167f4a39314939a992cd109ba0dcd4547fb405fe016615215f7ba3bd53cb1aa619c8836040518082815260200191505060405180910390a35050565b6000600860008373ffffffffffffffffffffffffffffffffffffffff1673ffffffffffffffffffffffffffffffffffffffff168152602001908152602001600020549050919050565b600960003373ffffffffffffffffffffffffffffffffffffffff1673ffffffffffffffffffffffffffffffffffffffff16815260200190815260200160002054811115610e3557600080fd5b6000811415610e8f576040517f08c379a00000000000000000000000000000000000000000000000000000000081526004018080602001828103825260248152602001806133606024913960400191505060405180910390fd5b610ed8600960003373ffffffffffffffffffffffffffffffffffffffff1673ffffffffffffffffffffffffffffffffffffffff1681526020019081526020016000205482612c9a565b600960003373ffffffffffffffffffffffffffffffffffffffff1673ffffffffffffffffffffffffffffffffffffffff168152602001908152602001600020819055503373ffffffffffffffffffffffffffffffffffffffff166108fc829081150290604051600060405180830381858888f19350505050158015610f61573d6000803e3d6000fd5b50600073ffffffffffffffffffffffffffffffffffffffff163373ffffffffffffffffffffffffffffffffffffffff167f4a39314939a992cd109ba0dcd4547fb405fe016615215f7ba3bd53cb1aa619c8836040518082815260200191505060405180910390a350565b60086020528060005260406000206000915090505481565b662386f26fc10000341015611043576040517f08c379a000000000000000000000000000000000000000000000000000000000815260040180806020018281038252602281526020018061333e6022913960400191505060405180910390fd5b600061104d611967565b905061109b600a60003373ffffffffffffffffffffffffffffffffffffffff1673ffffffffffffffffffffffffffffffffffffffff1681526020019081526020016000206002015482612cb1565b600a60003373ffffffffffffffffffffffffffffffffffffffff1673ffffffffffffffffffffffffffffffffffffffff1681526020019081526020016000206002018190555061112d600a60003373ffffffffffffffffffffffffffffffffffffffff1673ffffffffffffffffffffffffffffffffffffffff1681526020019081526020016000206003015434612cb1565b600a60003373ffffffffffffffffffffffffffffffffffffffff1673ffffffffffffffffffffffffffffffffffffffff1681526020019081526020016000206003018190555042600a60003373ffffffffffffffffffffffffffffffffffffffff1673ffffffffffffffffffffffffffffffffffffffff168152602001908152602001600020600001819055503373ffffffffffffffffffffffffffffffffffffffff167fd670118af2f5106578945dd6e0e7ec8146871079961c926ccd38e9a9abb91b72346040518082815260200191505060405180910390a250565b6000600560003373ffffffffffffffffffffffffffffffffffffffff1673ffffffffffffffffffffffffffffffffffffffff168152602001908152602001600020600501541461125a57600080fd5b6000600160009054906101000a900473ffffffffffffffffffffffffffffffffffffffff1673ffffffffffffffffffffffffffffffffffffffff166370a08231306040518263ffffffff1660e01b8152600401808273ffffffffffffffffffffffffffffffffffffffff16815260200191505060206040518083038186803b1580156112e557600080fd5b505afa1580156112f9573d6000803e3d6000fd5b505050506040513d602081101561130f57600080fd5b81019080805190602001909291905050509050600160009054906101000a900473ffffffffffffffffffffffffffffffffffffffff1673ffffffffffffffffffffffffffffffffffffffff1663a9059cbb33836040518363ffffffff1660e01b8152600401808373ffffffffffffffffffffffffffffffffffffffff16815260200182815260200192505050602060405180830381600087803b1580156113b557600080fd5b505af11580156113c9573d6000803e3d6000fd5b505050506040513d60208110156113df57600080fd5b81019080805190602001909291905050506113f957600080fd5b50565b60006114066120a1565b611478576040517f08c379a00000000000000000000000000000000000000000000000000000000081526004018080602001828103825260168152602001807f596f7520617265206e6f7420746865206f776e65722e0000000000000000000081525060200191505060405180910390fd5b600760008373ffffffffffffffffffffffffffffffffffffffff1673ffffffffffffffffffffffffffffffffffffffff16815260200190815260200160002060006101000a81549060ff021916905560019050919050565b60011515600760008473ffffffffffffffffffffffffffffffffffffffff1673ffffffffffffffffffffffffffffffffffffffff16815260200190815260200160002060009054906101000a900460ff16151514611596576040517f08c379a00000000000000000000000000000000000000000000000000000000081526004018080602001828103825260168152602001807f546f6b656e206973206e6f7420737570706f727465640000000000000000000081525060200191505060405180910390fd5b81600160006101000a81548173ffffffffffffffffffffffffffffffffffffffff021916908373ffffffffffffffffffffffffffffffffffffffff160217905550611620600860008473ffffffffffffffffffffffffffffffffffffffff1673ffffffffffffffffffffffffffffffffffffffff1681526020019081526020016000205482612cb1565b600860008473ffffffffffffffffffffffffffffffffffffffff1673ffffffffffffffffffffffffffffffffffffffff168152602001908152602001600020819055506116e9600660008473ffffffffffffffffffffffffffffffffffffffff1673ffffffffffffffffffffffffffffffffffffffff16815260200190815260200160002060003373ffffffffffffffffffffffffffffffffffffffff1673ffffffffffffffffffffffffffffffffffffffff1681526020019081526020016000205482612cb1565b600660008473ffffffffffffffffffffffffffffffffffffffff1673ffffffffffffffffffffffffffffffffffffffff16815260200190815260200160002060003373ffffffffffffffffffffffffffffffffffffffff1673ffffffffffffffffffffffffffffffffffffffff1681526020019081526020016000208190555060011515600160009054906101000a900473ffffffffffffffffffffffffffffffffffffffff1673ffffffffffffffffffffffffffffffffffffffff166323b872dd3330856040518463ffffffff1660e01b8152600401808473ffffffffffffffffffffffffffffffffffffffff1681526020018373ffffffffffffffffffffffffffffffffffffffff1681526020018281526020019350505050602060405180830381600087803b15801561181e57600080fd5b505af1158015611832573d6000803e3d6000fd5b505050506040513d602081101561184857600080fd5b81019080805190602001909291905050501515146118ce576040517f08c379a00000000000000000000000000000000000000000000000000000000081526004018080602001828103825260158152602001807f5472616e73666572206e6f7420636f6d706c657465000000000000000000000081525060200191505060405180910390fd5b3373ffffffffffffffffffffffffffffffffffffffff167f338b5dea92b406e11ffb4934504fc21da82d56b24fb3a4f40a176da9186a0d47826040518082815260200191505060405180910390a25050565b6000600960003373ffffffffffffffffffffffffffffffffffffffff1673ffffffffffffffffffffffffffffffffffffffff16815260200190815260200160002054905090565b6000806119c26119b942600a60003373ffffffffffffffffffffffffffffffffffffffff1673ffffffffffffffffffffffffffffffffffffffff16815260200190815260200160002060000154612c9a565b6228206f612ccd565b9050600080600260009054906101000a900473ffffffffffffffffffffffffffffffffffffffff1673ffffffffffffffffffffffffffffffffffffffff166040516024016040516020818303038152906040527f3732e153000000000000000000000000000000000000000000000000000000007bffffffffffffffffffffffffffffffffffffffffffffffffffffffff19166020820180517bffffffffffffffffffffffffffffffffffffffffffffffffffffffff83818316178352505050506040518082805190602001908083835b60208310611ab65780518252602082019150602081019050602083039250611a93565b6001836020036101000a0380198251168184511680821785525050505050509050019150506000604051808303816000865af19150503d8060008114611b18576040519150601f19603f3d011682016040523d82523d6000602084013e611b1d565b606091505b5091509150600080828060200190516040811015611b3a57600080fd5b810190808051906020019092919080519060200190929190505050915091506000611b6a60036000015487612ce6565b90506000611bc0600a60003373ffffffffffffffffffffffffffffffffffffffff1673ffffffffffffffffffffffffffffffffffffffff1681526020019081526020016000206003015483600360010154612d1d565b90508097505050505050505090565b6006602052816000526040600020602052806000526040600020600091509150505481565b60001515600560003373ffffffffffffffffffffffffffffffffffffffff1673ffffffffffffffffffffffffffffffffffffffff16815260200190815260200160002060080160019054906101000a900460ff16151514611c5457600080fd5b60011515600160009054906101000a900473ffffffffffffffffffffffffffffffffffffffff1673ffffffffffffffffffffffffffffffffffffffff166323b872dd3330600c86026040518463ffffffff1660e01b8152600401808473ffffffffffffffffffffffffffffffffffffffff1681526020018373ffffffffffffffffffffffffffffffffffffffff1681526020018281526020019350505050602060405180830381600087803b158015611d0c57600080fd5b505af1158015611d20573d6000803e3d6000fd5b505050506040513d6020811015611d3657600080fd5b8101908080519060200190929190505050151514611dbc576040517f08c379a00000000000000000000000000000000000000000000000000000000081526004018080602001828103825260198152602001807f5061796d656e7420776173206e6f7420617070726f7665642e0000000000000081525060200191505060405180910390fd5b6040518061018001604052803373ffffffffffffffffffffffffffffffffffffffff16815260200185420181526020016040518060400160405280898152602001888152508152602001858152602001838152602001848152602001828152602001600015158152602001600115158152602001428152602001600067ffffffffffffffff81118015611e4e57600080fd5b50604051908082528060200260200182016040528015611e7d5781602001602082028036833780820191505090505b508152602001600067ffffffffffffffff81118015611e9b57600080fd5b50604051908082528060200260200182016040528015611eca5781602001602082028036833780820191505090505b50815250600560003373ffffffffffffffffffffffffffffffffffffffff1673ffffffffffffffffffffffffffffffffffffffff16815260200190815260200160002060008201518160000160006101000a81548173ffffffffffffffffffffffffffffffffffffffff021916908373ffffffffffffffffffffffffffffffffffffffff1602179055506020820151816001015560408201518160020160008201518160000155602082015181600101555050606082015181600401556080820151816005015560a0820151816006015560c0820151816007015560e08201518160080160006101000a81548160ff0219169083151502179055506101008201518160080160016101000a81548160ff021916908315150217905550610120820151816009015561014082015181600a01908051906020019061200e9291906131a7565b5061016082015181600b01908051906020019061202c92919061324d565b50905050600081840290508382828161204157fe5b0414612098576040517f08c379a000000000000000000000000000000000000000000000000000000000815260040180806020018281038252602f815260200180613384602f913960400191505060405180910390fd5b50505050505050565b60008060009054906101000a900473ffffffffffffffffffffffffffffffffffffffff1673ffffffffffffffffffffffffffffffffffffffff163373ffffffffffffffffffffffffffffffffffffffff1614905090565b6000600560003373ffffffffffffffffffffffffffffffffffffffff1673ffffffffffffffffffffffffffffffffffffffff168152602001908152602001600020600501541461214757600080fd5b600560003373ffffffffffffffffffffffffffffffffffffffff1673ffffffffffffffffffffffffffffffffffffffff168152602001908152602001600020600080820160006101000a81549073ffffffffffffffffffffffffffffffffffffffff02191690556001820160009055600282016000808201600090556001820160009055505060048201600090556005820160009055600682016000905560078201600090556008820160006101000a81549060ff02191690556008820160016101000a81549060ff02191690556009820160009055600a8201600061222d91906132d7565b600b8201600061223d91906132ff565b5050565b60008054906101000a900473ffffffffffffffffffffffffffffffffffffffff1681565b6000600660008373ffffffffffffffffffffffffffffffffffffffff1673ffffffffffffffffffffffffffffffffffffffff16815260200190815260200160002060003373ffffffffffffffffffffffffffffffffffffffff1673ffffffffffffffffffffffffffffffffffffffff168152602001908152602001600020549050919050565b600061234561233c42600a60003373ffffffffffffffffffffffffffffffffffffffff1673ffffffffffffffffffffffffffffffffffffffff16815260200190815260200160002060010154612c9a565b62015180612ccd565b9050601e8110156123be576040517f08c379a00000000000000000000000000000000000000000000000000000000081526004018080602001828103825260188152602001807f57616974203330206461797320746f207769746864726177000000000000000081525060200191505060405180910390fd5b60006123c8611967565b9050612416600a60003373ffffffffffffffffffffffffffffffffffffffff1673ffffffffffffffffffffffffffffffffffffffff1681526020019081526020016000206002015482612cb1565b600a60003373ffffffffffffffffffffffffffffffffffffffff1673ffffffffffffffffffffffffffffffffffffffff168152602001908152602001600020600201819055506124a8600a60003373ffffffffffffffffffffffffffffffffffffffff1673ffffffffffffffffffffffffffffffffffffffff1681526020019081526020016000206003015484612c9a565b600a60003373ffffffffffffffffffffffffffffffffffffffff1673ffffffffffffffffffffffffffffffffffffffff1681526020019081526020016000206003018190555042600a60003373ffffffffffffffffffffffffffffffffffffffff1673ffffffffffffffffffffffffffffffffffffffff168152602001908152602001600020600001819055503373ffffffffffffffffffffffffffffffffffffffff166108fc849081150290604051600060405180830381858888f1935050505015801561257b573d6000803e3d6000fd5b50505050565b600560003373ffffffffffffffffffffffffffffffffffffffff1673ffffffffffffffffffffffffffffffffffffffff1681526020019081526020016000206001015442116125cf57600080fd5b60008061261d600560003373ffffffffffffffffffffffffffffffffffffffff1673ffffffffffffffffffffffffffffffffffffffff16815260200190815260200160002060060154612d34565b8092508193505050600560003373ffffffffffffffffffffffffffffffffffffffff1673ffffffffffffffffffffffffffffffffffffffff168152602001908152602001600020600501548111156126b557600560003373ffffffffffffffffffffffffffffffffffffffff1673ffffffffffffffffffffffffffffffffffffffff1681526020019081526020016000206005015490505b6126c182826000612d4e565b5050565b60096020528060005260406000206000915090505481565b612726600960003373ffffffffffffffffffffffffffffffffffffffff1673ffffffffffffffffffffffffffffffffffffffff1681526020019081526020016000205434612cb1565b600960003373ffffffffffffffffffffffffffffffffffffffff1673ffffffffffffffffffffffffffffffffffffffff168152602001908152602001600020819055503373ffffffffffffffffffffffffffffffffffffffff167f338b5dea92b406e11ffb4934504fc21da82d56b24fb3a4f40a176da9186a0d47346040518082815260200191505060405180910390a2565b60006127c36120a1565b612835576040517f08c379a00000000000000000000000000000000000000000000000000000000081526004018080602001828103825260168152602001807f596f7520617265206e6f7420746865206f776e65722e0000000000000000000081525060200191505060405180910390fd5b6001600760008473ffffffffffffffffffffffffffffffffffffffff1673ffffffffffffffffffffffffffffffffffffffff16815260200190815260200160002060006101000a81548160ff02191690831515021790555060019050919050565b61289e6120a1565b612910576040517f08c379a00000000000000000000000000000000000000000000000000000000081526004018080602001828103825260168152602001807f596f7520617265206e6f7420746865206f776e65722e0000000000000000000081525060200191505060405180910390fd5b81600360000181905550806003600101819055505050565b600560003373ffffffffffffffffffffffffffffffffffffffff1673ffffffffffffffffffffffffffffffffffffffff1681526020019081526020016000206001015442111561297757600080fd5b60008061298334612d34565b8092508193505050600560003373ffffffffffffffffffffffffffffffffffffffff1673ffffffffffffffffffffffffffffffffffffffff168152602001908152602001600020600501548111156129da57600080fd5b600560003373ffffffffffffffffffffffffffffffffffffffff1673ffffffffffffffffffffffffffffffffffffffff1681526020019081526020016000206006015434101580612a6c5750600560003373ffffffffffffffffffffffffffffffffffffffff1673ffffffffffffffffffffffffffffffffffffffff1681526020019081526020016000206005015481145b612a7557600080fd5b612a80828233612d4e565b5050565b6032600a60003373ffffffffffffffffffffffffffffffffffffffff1673ffffffffffffffffffffffffffffffffffffffff168152602001908152602001600020600201541015612b3d576040517f08c379a000000000000000000000000000000000000000000000000000000000815260040180806020018281038252601f8152602001807f5265776172642077616c6c657420646f6573206e6f742068617665203530240081525060200191505060405180910390fd5b565b60076020528060005260406000206000915054906101000a900460ff1681565b612b676120a1565b612bd9576040517f08c379a00000000000000000000000000000000000000000000000000000000081526004018080602001828103825260168152602001807f596f7520617265206e6f7420746865206f776e65722e0000000000000000000081525060200191505060405180910390fd5b600073ffffffffffffffffffffffffffffffffffffffff168173ffffffffffffffffffffffffffffffffffffffff161415612c1357600080fd5b8073ffffffffffffffffffffffffffffffffffffffff167f8be0079c531659141344cd1fd0a4f28419497f9722a3daafe3b4186f6b6457e060008054906101000a900473ffffffffffffffffffffffffffffffffffffffff16604051808273ffffffffffffffffffffffffffffffffffffffff16815260200191505060405180910390a250565b600082821115612ca657fe5b818303905092915050565b600080828401905083811015612cc357fe5b8091505092915050565b600080828481612cd957fe5b0490508091505092915050565b600080831415612cf95760009050612d17565b6000828402905082848281612d0a57fe5b0414612d1257fe5b809150505b92915050565b60008183850281612d2a57fe5b0490509392505050565b60008081831015612d4457600080fd5b8183039050915091565b600073ffffffffffffffffffffffffffffffffffffffff168173ffffffffffffffffffffffffffffffffffffffff161415612e7a576000612d90838501613049565b905082600560003373ffffffffffffffffffffffffffffffffffffffff1673ffffffffffffffffffffffffffffffffffffffff16815260200190815260200160002060050160008282540392505081905550600560003373ffffffffffffffffffffffffffffffffffffffff1673ffffffffffffffffffffffffffffffffffffffff16815260200190815260200160002060040154600560003373ffffffffffffffffffffffffffffffffffffffff1673ffffffffffffffffffffffffffffffffffffffff1681526020019081526020016000206001016000828254019250508190555050613044565b6000612e87838501613049565b905082600560003373ffffffffffffffffffffffffffffffffffffffff1673ffffffffffffffffffffffffffffffffffffffff16815260200190815260200160002060050160008282540392505081905550600560003373ffffffffffffffffffffffffffffffffffffffff1673ffffffffffffffffffffffffffffffffffffffff16815260200190815260200160002060040154600560003373ffffffffffffffffffffffffffffffffffffffff1673ffffffffffffffffffffffffffffffffffffffff16815260200190815260200160002060010160008282540192505081905550600160009054906101000a900473ffffffffffffffffffffffffffffffffffffffff1673ffffffffffffffffffffffffffffffffffffffff1663a9059cbb83836040518363ffffffff1660e01b8152600401808373ffffffffffffffffffffffffffffffffffffffff16815260200182815260200192505050602060405180830381600087803b158015612ffe57600080fd5b505af1158015613012573d6000803e3d6000fd5b505050506040513d602081101561302857600080fd5b810190808051906020019092919050505061304257600080fd5b505b505050565b60008082600560003373ffffffffffffffffffffffffffffffffffffffff1673ffffffffffffffffffffffffffffffffffffffff1681526020019081526020016000206007015402905082600560003373ffffffffffffffffffffffffffffffffffffffff1673ffffffffffffffffffffffffffffffffffffffff1681526020019081526020016000206007015482816130df57fe5b0414613153576040517f08c379a00000000000000000000000000000000000000000000000000000000081526004018080602001828103825260178152602001807f7061796d656e7420636175736573206f766572666c6f7700000000000000000081525060200191505060405180910390fd5b600560003373ffffffffffffffffffffffffffffffffffffffff1673ffffffffffffffffffffffffffffffffffffffff16815260200190815260200160002060060154818161319e57fe5b04915050919050565b82805482825590600052602060002090601f0160209004810192821561323c5791602002820160005b8382111561320d57835183826101000a81548160ff02191690831515021790555092602001926001016020816000010492830192600103026131d0565b801561323a5782816101000a81549060ff021916905560010160208160000104928301926001030261320d565b505b5090506132499190613320565b5090565b8280548282559060005260206000209081019282156132c6579160200282015b828111156132c55782518260006101000a81548173ffffffffffffffffffffffffffffffffffffffff021916908373ffffffffffffffffffffffffffffffffffffffff1602179055509160200191906001019061326d565b5b5090506132d39190613320565b5090565b50805460008255601f0160209004906000526020600020908101906132fc9190613320565b50565b508054600082559060005260206000209081019061331d9190613320565b50565b5b80821115613339576000816000905550600101613321565b509056fe4572726f722c206465706f736974206d757374206265203e3d20302e303120455448576974686472617720616d6f756e742063616e6e6f7420626520657175616c20746f20306d696e696d756d5061796d656e74202a20636f6c6c61746572616c5065725061796d656e74206f766572666c6f7773a2646970667358221220d7290a6c0da9198b3d60544d0b283d509ab329c5bd4e61f4297268bc4b6f323264736f6c63430007060033",
  "immutableReferences": {},
  "source": "// SPDX-License-Identifier: MIT\npragma solidity >=0.4.22 <0.9.0;\n\nimport \"./interfaces/Ownable.sol\";\nimport \"./interfaces/IERC20.sol\";\nimport \"./interfaces/SafeMath.sol\";\n\ncontract Bank is Ownable {\n    /**\n     * @dev storing CBLT token in ERC20 type\n     */\n    IERC20 token;\n\n    /**\n     * @dev CobaltLend oracle for scoring and CBLT price\n     */\n    address oracleAddress;\n\n    /**\n     * @dev reward rate ratio for staking\n     */\n    Rational rewardRate = Rational(1, 20);\n\n    /**\n     * @dev mapping used to store all loan information with the key of borrower address\n     *  and value of Loan struct with all loan information\n     */\n    mapping(address => Loan) loanBook;\n\n    constructor(\n        address[] memory addresses,\n        address _CBLT,\n        address _oracle\n    ) {\n        for (uint256 i = 0; i < addresses.length; i++) {\n            tokensAllowed[addresses[i]] = true;\n        }\n        oracleAddress = _oracle;\n        token = IERC20(_CBLT);\n    }\n\n    /**\n     * @dev Struct created so save all loan information\n     */\n    struct Loan {\n        address borrower;\n        uint256 dueDate;\n        Rational interestRate;\n        uint256 paymentPeriod;\n        uint256 remainingBalance;\n        uint256 minimumPayment;\n        uint256 collateralPerPayment;\n        bool active;\n        bool initialized;\n        uint256 timeCreated;\n        bool[] votes;\n        address[] voters;\n    }\n\n    /**\n     * @dev Struct used to store decimal values\n     */\n    struct Rational {\n        uint256 numerator;\n        uint256 denominator;\n    }\n\n    /**\n     * @dev Events emitted\n     */\n    event onReceived(address indexed _from, uint256 _amount);\n    event onTransfer(\n        address indexed _from,\n        address indexed _to,\n        uint256 _amount\n    );\n    event depositToken(address indexed _from, uint256 _amount);\n\n    /**\n     * @dev a list for each token and each user that has deposited some of that\n     * token into the bank\n     */\n    mapping(address => mapping(address => uint256)) public tokenOwnerBalance;\n    /**\n     * @dev a list of all supported tokens\n     */\n    mapping(address => bool) public tokensAllowed;\n    /**\n     * @dev a ledger of the amount of each token in the bank\n     */\n    mapping(address => uint256) public _tokenSupply;\n\n    /**\n     * @dev a ledger of the amount of each token in the bank\n     */\n    mapping(address => uint256) public etherBalance;\n\n    /**\n     * @dev method that will withdraw tokens from the bank if the caller\n     * has tokens in the bank\n     */\n    function withdrawTokens(address _tokenAddress, uint256 _amount) external {\n        //Check if token is not supported by bank\n        require(tokensAllowed[_tokenAddress] == true, \"Token is not supported\");\n        // Is the user trying to withdraw more tokens than he has in balance?\n        require(_amount <= tokenOwnerBalance[_tokenAddress][msg.sender]);\n        // Withdraw cannot be equal to zero\n        require(_amount != 0, \"Withdraw amount cannot be equal to 0\");\n\n        token = IERC20(address(_tokenAddress));\n\n        _tokenSupply[_tokenAddress] = SafeMath.sub(\n            _tokenSupply[_tokenAddress],\n            _amount\n        );\n        tokenOwnerBalance[_tokenAddress][msg.sender] = SafeMath.sub(\n            tokenOwnerBalance[_tokenAddress][msg.sender],\n            _amount\n        );\n\n        require(\n            token.transfer(msg.sender, _amount) == true,\n            \"Transfer not complete\"\n        );\n        emit onTransfer(msg.sender, address(0), _amount);\n    }\n\n    /**\n     * @dev method to withdraw eth from account\n     */\n    function withdraw(uint256 _amount) external {\n        require(_amount <= etherBalance[msg.sender]);\n        require(_amount != 0, \"Withdraw amount cannot be equal to 0\");\n\n        etherBalance[msg.sender] = SafeMath.sub(\n            etherBalance[msg.sender],\n            _amount\n        );\n\n        payable(msg.sender).transfer(_amount);\n\n        emit onTransfer(msg.sender, address(0), _amount);\n    }\n\n    /**\n     * @dev method to deposit tokens into the bank\n     */\n    function depositTokens(address _tokenAddress, uint256 _tokenAmount)\n        external\n        payable\n    {\n        //Check if token is not supported by bank\n        require(tokensAllowed[_tokenAddress] == true, \"Token is not supported\");\n        token = IERC20(address(_tokenAddress));\n\n        _tokenSupply[_tokenAddress] = SafeMath.add(\n            _tokenSupply[_tokenAddress],\n            _tokenAmount\n        );\n        tokenOwnerBalance[_tokenAddress][msg.sender] = SafeMath.add(\n            tokenOwnerBalance[_tokenAddress][msg.sender],\n            _tokenAmount\n        );\n\n        require(\n            token.transferFrom(msg.sender, address(this), _tokenAmount) == true,\n            \"Transfer not complete\"\n        );\n\n        emit depositToken(msg.sender, _tokenAmount);\n    }\n\n    /**\n     * @dev method to deposit eth into the bank\n     */\n    function deposit() external payable {\n        etherBalance[msg.sender] = SafeMath.add(\n            etherBalance[msg.sender],\n            msg.value\n        );\n\n        emit depositToken(msg.sender, msg.value);\n    }\n\n    /**\n     * @dev function that will add a token to the list of supported tokens\n     */\n    function addToken(address _tokenAddress) external onlyOwner returns (bool) {\n        tokensAllowed[_tokenAddress] = true;\n        return true;\n    }\n\n    /**\n     * @dev function that will remove token from list of supported tokens\n     */\n    function removeToken(address _tokenAddress)\n        external\n        onlyOwner\n        returns (bool)\n    {\n        delete (tokensAllowed[_tokenAddress]);\n        return true;\n    }\n\n    /**\n     * @dev method that will show the total amount of tokens in the bank for\n     */\n    function totalTokenSupply(address _tokenAddress)\n        public\n        view\n        returns (uint256)\n    {\n        return _tokenSupply[_tokenAddress];\n    }\n\n    /**\n     * @dev method that will show the balance that the caller has\n     * for a certain token\n     */\n    function balanceOf() public view returns (uint256) {\n        return etherBalance[msg.sender];\n    }\n\n    function balanceOfToken(address _tokenAddress)\n        public\n        view\n        returns (uint256)\n    {\n        return tokenOwnerBalance[_tokenAddress][msg.sender];\n    }\n\n    /**\n     * @dev fallback function to receive any eth sent to this contract\n     */\n    receive() external payable {\n        emit onReceived(msg.sender, msg.value);\n    }\n\n    // ****************************** Lending **********************************\n\n    /**\n     * @dev Recalculates interest and also conducts check and balances\n     */\n    function newLoan(\n        uint256 interestRateNumerator,\n        uint256 interestRateDenominator,\n        uint256 _paymentPeriod,\n        uint256 _minimumPayment,\n        uint256 principal,\n        uint256 units\n    ) public payable {\n        // Needs user approve on transfer funds amount\n        // token.approve(address(this), _minimumPayment);\n\n        require(loanBook[msg.sender].initialized == false);\n        require(\n            token.transferFrom(msg.sender, address(this), units * 12) == true,\n            \"Payment was not approved.\"\n        );\n        loanBook[msg.sender] = Loan(\n            msg.sender,\n            (block.timestamp + _paymentPeriod),\n            Rational(interestRateNumerator, interestRateDenominator),\n            _paymentPeriod,\n            principal,\n            _minimumPayment,\n            units,\n            false,\n            true,\n            block.timestamp,\n            new bool[](0),\n            new address[](0)\n        );\n\n        uint256 x = _minimumPayment * units;\n        require(\n            x / units == _minimumPayment,\n            \"minimumPayment * collateralPerPayment overflows\"\n        );\n    }\n\n    /**\n     * @dev Prevents overflows\n     *\n     */\n    function multiplyDecimal(uint256 x, Rational memory r)\n        internal\n        pure\n        returns (uint256)\n    {\n        return (x * r.numerator) / r.denominator;\n    }\n\n    /**\n     * @dev Recalculates interest and also conducts check and balances\n     *\n     */\n    function calculateComponents(uint256 amount)\n        internal\n        view\n        returns (uint256 interest, uint256 principal)\n    {\n        // interest = multiply(\n        //     loanBook[msg.sender].remainingBalance,\n        //     loanBook[msg.sender].interestRate\n        // );\n        require(amount >= interest);\n        principal = amount - interest;\n        return (interest, principal);\n    }\n\n    /**\n     * @dev he loan is parameterized with collateralPerPayment,\n     *which represents the amount of collateral that will be returned\n     * or forfeited based on a minimumPayment. If the borrower pays an\n     *amount different than the minimum, the amount of collateral returned\n     * is adjusted proportionally.\n     *\n     */\n    function calculateCollateral(uint256 payment)\n        internal\n        view\n        returns (uint256 units)\n    {\n        uint256 product = loanBook[msg.sender].collateralPerPayment * payment;\n        require(\n            product / loanBook[msg.sender].collateralPerPayment == payment,\n            \"payment causes overflow\"\n        );\n        units = product / loanBook[msg.sender].minimumPayment;\n        return units;\n    }\n\n    /**\n     * @dev a symmetry between accepting loan payments and handling missed payments.\n     * In both cases, there is an adjustment to the remaining principal balance and a\n     * corresponding transfer of tokens. The only difference is that the tokens are\n     * returned to the borrower after a payment, but they are forfeited to the lender\n     * after a missed payment\n     *\n     *Additional Note: the code above does the token transfer last, which follows the\n     * Checks-Effects-Interactions pattern to avoid potential reentrancy vulnerabilities\n     */\n    function processPeriod(\n        uint256 interest,\n        uint256 principal,\n        address recipient\n    ) internal {\n        if (recipient == 0x0000000000000000000000000000000000000000) {\n            uint256 units = calculateCollateral(interest + principal);\n\n            loanBook[msg.sender].remainingBalance -= principal;\n\n            loanBook[msg.sender].dueDate += loanBook[msg.sender].paymentPeriod;\n        } else {\n            uint256 units = calculateCollateral(interest + principal);\n\n            loanBook[msg.sender].remainingBalance -= principal;\n\n            loanBook[msg.sender].dueDate += loanBook[msg.sender].paymentPeriod;\n\n            require(token.transfer(recipient, units));\n        }\n    }\n\n    /**\n     * @dev Function for the user to make a payment with ETH\n     *\n     */\n    function makePayment() public payable {\n        require(block.timestamp <= loanBook[msg.sender].dueDate);\n\n        uint256 interest;\n        uint256 principal;\n        (interest, principal) = calculateComponents(msg.value);\n\n        require(principal <= loanBook[msg.sender].remainingBalance);\n        require(\n            msg.value >= loanBook[msg.sender].minimumPayment ||\n                principal == loanBook[msg.sender].remainingBalance\n        );\n\n        processPeriod(interest, principal, msg.sender);\n    }\n\n    /**\n     * @dev  computes the principal component of the missed payment.\n     * This assumes the payment was the minimum amount, which is true\n     * for all but, possibly, the last payment. The conditional handles\n     * the boundary condition when the principal remaining is less than\n     * the principal component of a minimum payment.\n     *\n     */\n    function missedPayment() public {\n        require(block.timestamp > loanBook[msg.sender].dueDate);\n\n        uint256 interest;\n        uint256 principal;\n        (interest, principal) = calculateComponents(\n            loanBook[msg.sender].minimumPayment\n        );\n\n        if (principal > loanBook[msg.sender].remainingBalance) {\n            principal = loanBook[msg.sender].remainingBalance;\n        }\n\n        processPeriod(\n            interest,\n            principal,\n            0x0000000000000000000000000000000000000000\n        );\n    }\n\n    /**\n     * @dev  smart contract allows borrowers to pay more than the minimum,\n     * which will ultimately lead to less total paid because of avoided interest.\n     * If used, this feature will lead to excess collateral owned by the loan contract\n     * after its been fully paid off. This collateral belongs to the borrower.\n     * The simplest way to handle that is to allow excess tokens to be claimed when the remainingBalance is zero:\n     *\n     */\n    function returnCollateral() public {\n        require(loanBook[msg.sender].remainingBalance == 0);\n\n        uint256 amount = token.balanceOf(address(this));\n        require(token.transfer(msg.sender, amount));\n    }\n\n    /**\n     * @dev Deletes loan instance once the user has paid his first loan in full\n     */\n    function cleanSlate() public {\n        require(loanBook[msg.sender].remainingBalance == 0);\n        delete loanBook[msg.sender];\n    }\n\n    // **************************** Staking *******************************\n\n    mapping(address => User) userBook;\n\n    struct User {\n        uint256 timeBalanceChanged;\n        uint256 firstDepositTime;\n        uint256 rewardWallet;\n        uint256 ethBalance;\n    }\n\n    function calculateReward() public returns (uint256) {\n        uint256 timeBetweenDeposits =\n            SafeMath.div(\n                SafeMath.sub(\n                    block.timestamp, // Current time\n                    userBook[msg.sender].timeBalanceChanged // Time of last deposit\n                ),\n                2629743\n            ); // Year in epoch value\n\n        (bool result, bytes memory data) =\n            oracleAddress.call(abi.encodeWithSignature(\"ETHPrice()\"));\n        // Decode bytes data\n        (uint256 ETHpriceNumerator, uint256 ETHpriceDenominator) =\n            abi.decode(data, (uint256, uint256));\n\n        uint256 newNumerator =\n            SafeMath.mul(rewardRate.numerator, timeBetweenDeposits);\n\n        // Calculate the amount Staked\n        uint256 stakingReward =\n            SafeMath.multiply(\n                userBook[msg.sender].ethBalance,\n                newNumerator,\n                rewardRate.denominator\n            );\n\n        return stakingReward;\n    }\n\n    function depositEth() public payable {\n        require(msg.value >= 1e16, \"Error, deposit must be >= 0.01 ETH\");\n\n        // Calculates staking reward\n        uint256 stakingReward = calculateReward();\n\n        // Save reward in wallet\n        userBook[msg.sender].rewardWallet = SafeMath.add(\n            userBook[msg.sender].rewardWallet,\n            stakingReward\n        );\n        // Save new eth deposit\n        userBook[msg.sender].ethBalance = SafeMath.add(\n            userBook[msg.sender].ethBalance,\n            msg.value\n        );\n        // Change the latest time of deposit\n        userBook[msg.sender].timeBalanceChanged = block.timestamp;\n\n        emit onReceived(msg.sender, msg.value);\n    }\n\n    function withdrawEth(uint256 _amount) public {\n        // Calulate how many days since first staked\n        uint256 daysAfterDeposit =\n            SafeMath.div(\n                SafeMath.sub(\n                    block.timestamp,\n                    userBook[msg.sender].firstDepositTime\n                ),\n                86400\n            );\n        // Make sure user\n        require(daysAfterDeposit >= 30, \"Wait 30 days to withdraw\");\n        // Calculate staking reward\n        uint256 stakingReward = calculateReward();\n\n        // Save reward in wallet\n        userBook[msg.sender].rewardWallet = SafeMath.add(\n            userBook[msg.sender].rewardWallet,\n            stakingReward\n        );\n\n        // Substract eth from user account\n        userBook[msg.sender].ethBalance = SafeMath.sub(\n            userBook[msg.sender].ethBalance,\n            _amount\n        );\n        // Change the latest time of deposit\n        userBook[msg.sender].timeBalanceChanged = block.timestamp;\n\n        payable(msg.sender).transfer(_amount);\n    }\n\n    function withdrawStaking() public payable {\n        require(\n            userBook[msg.sender].rewardWallet >= 50,\n            \"Reward wallet does not have 50$\"\n        );\n    }\n\n    function changeAPR(uint256 _numerator, uint256 _denominator)\n        public\n        onlyOwner\n    {\n        rewardRate.numerator = _numerator;\n        rewardRate.denominator = _denominator;\n    }\n}\n\n// ************************************* CHANGES ************************************\n\n// mapping (uint id => Loan) loanBook;\n// signature NFT\n\n// loanBook[id]\n// loanBook[id].signature // NFT\n\n// function borrow() {\n//     require(loanBook[id].signature == NFT.value)\n// }\n\n// ******************************** INCENTIVE SYSTEM *******************************\n\n// tier 1 - Loan  50k - Max voters 100 - 5 per head\n//        - msg.sender CBLTs > 300$ worth of ETH\n// tier 2 - Loan 100k - Max voters 150 - 7.5 per head\n//        - msg.sender CBLTs > 200\n// tier 3 - Loan 200k - Max voters 200 - 10 per head\n//        - msg.sender CBLTs > 400\n\n// ************************************** TODOS ************************************\n\n// Starting period, 12-24 months\n// Collateral paid on loan application\n// Create new function to handle application\n// Create a new function to check if loan is ready to loan\n// Array of all voters\n// Save interest amount on loan to an specific\n\n// Calling oracle from ABI\n\n// (bool result, bytes memory data) =\n//             oracleAddress.call(\n//                 abi.encodeWithSignature(\n//                     \"priceOfPair(address,address)\",\n//                     _sellToken,\n//                     _buyToken\n//                 )\n//             );\n//         // Decode bytes data\n//         (uint256 sellTokenValue, uint256 buyTokenValue) =\n//             abi.decode(data, (uint256, uint256));\n",
  "sourcePath": "/Users/christianroque/Desktop/solidity-playground/contracts/Bank.sol",
  "compiler": {
    "name": "solc",
    "version": "0.7.6+commit.7338295f.Emscripten.clang"
  },
  "schemaVersion": "3.3.4",
  "updatedAt": "2021-04-20T20:37:11.168Z",
  "devdoc": {
    "events": {
      "onReceived(address,uint256)": {
        "details": "Events emitted"
      }
    },
    "kind": "dev",
    "methods": {
      "addToken(address)": {
        "details": "function that will add a token to the list of supported tokens"
      },
      "balanceOf()": {
        "details": "method that will show the balance that the caller has for a certain token"
      },
      "cleanSlate()": {
        "details": "Deletes loan instance once the user has paid his first loan in full"
      },
      "deposit()": {
        "details": "method to deposit eth into the bank"
      },
      "depositTokens(address,uint256)": {
        "details": "method to deposit tokens into the bank"
      },
      "makePayment()": {
        "details": "Function for the user to make a payment with ETH"
      },
      "missedPayment()": {
        "details": "computes the principal component of the missed payment. This assumes the payment was the minimum amount, which is true for all but, possibly, the last payment. The conditional handles the boundary condition when the principal remaining is less than the principal component of a minimum payment."
      },
      "newLoan(uint256,uint256,uint256,uint256,uint256,uint256)": {
        "details": "Recalculates interest and also conducts check and balances"
      },
      "removeToken(address)": {
        "details": "function that will remove token from list of supported tokens"
      },
      "returnCollateral()": {
        "details": "smart contract allows borrowers to pay more than the minimum, which will ultimately lead to less total paid because of avoided interest. If used, this feature will lead to excess collateral owned by the loan contract after its been fully paid off. This collateral belongs to the borrower. The simplest way to handle that is to allow excess tokens to be claimed when the remainingBalance is zero:"
      },
      "totalTokenSupply(address)": {
        "details": "method that will show the total amount of tokens in the bank for"
      },
      "withdraw(uint256)": {
        "details": "method to withdraw eth from account"
      },
      "withdrawTokens(address,uint256)": {
        "details": "method that will withdraw tokens from the bank if the caller has tokens in the bank"
      }
    },
    "stateVariables": {
      "_tokenSupply": {
        "details": "a ledger of the amount of each token in the bank"
      },
      "etherBalance": {
        "details": "a ledger of the amount of each token in the bank"
      },
      "loanBook": {
        "details": "mapping used to store all loan information with the key of borrower address  and value of Loan struct with all loan information"
      },
      "oracleAddress": {
        "details": "CobaltLend oracle for scoring and CBLT price"
      },
      "rewardRate": {
        "details": "reward rate ratio for staking"
      },
      "token": {
        "details": "storing CBLT token in ERC20 type"
      },
      "tokenOwnerBalance": {
        "details": "a list for each token and each user that has deposited some of that token into the bank"
      },
      "tokensAllowed": {
        "details": "a list of all supported tokens"
      }
    },
    "version": 1
  },
  "userdoc": {
    "kind": "user",
    "methods": {},
    "version": 1
  }
}