{
  "contractName": "Bank",
  "abi": [
    {
      "inputs": [
        {
          "internalType": "address[]",
          "name": "addresses",
          "type": "address[]"
        },
        {
          "internalType": "address",
          "name": "_CBLT",
          "type": "address"
        },
        {
          "internalType": "address",
          "name": "_oracle",
          "type": "address"
        }
      ],
      "stateMutability": "nonpayable",
      "type": "constructor"
    },
    {
      "anonymous": false,
      "inputs": [
        {
          "indexed": false,
          "internalType": "address",
          "name": "_previousOwner",
          "type": "address"
        },
        {
          "indexed": true,
          "internalType": "address",
          "name": "_newOwner",
          "type": "address"
        }
      ],
      "name": "OwnershipTransferred",
      "type": "event"
    },
    {
      "anonymous": false,
      "inputs": [
        {
          "indexed": true,
          "internalType": "address",
          "name": "_from",
          "type": "address"
        },
        {
          "indexed": false,
          "internalType": "uint256",
          "name": "_amount",
          "type": "uint256"
        }
      ],
      "name": "depositToken",
      "type": "event"
    },
    {
      "anonymous": false,
      "inputs": [
        {
          "indexed": true,
          "internalType": "address",
          "name": "_from",
          "type": "address"
        },
        {
          "indexed": false,
          "internalType": "uint256",
          "name": "_amount",
          "type": "uint256"
        }
      ],
      "name": "onReceived",
      "type": "event"
    },
    {
      "anonymous": false,
      "inputs": [
        {
          "indexed": true,
          "internalType": "address",
          "name": "_from",
          "type": "address"
        },
        {
          "indexed": true,
          "internalType": "address",
          "name": "_to",
          "type": "address"
        },
        {
          "indexed": false,
          "internalType": "uint256",
          "name": "_amount",
          "type": "uint256"
        }
      ],
      "name": "onTransfer",
      "type": "event"
    },
    {
      "inputs": [],
      "name": "_owner",
      "outputs": [
        {
          "internalType": "address",
          "name": "",
          "type": "address"
        }
      ],
      "stateMutability": "view",
      "type": "function"
    },
    {
      "inputs": [
        {
          "internalType": "address",
          "name": "",
          "type": "address"
        }
      ],
      "name": "_tokenSupply",
      "outputs": [
        {
          "internalType": "uint256",
          "name": "",
          "type": "uint256"
        }
      ],
      "stateMutability": "view",
      "type": "function"
    },
    {
      "inputs": [
        {
          "internalType": "address",
          "name": "",
          "type": "address"
        }
      ],
      "name": "etherBalance",
      "outputs": [
        {
          "internalType": "uint256",
          "name": "",
          "type": "uint256"
        }
      ],
      "stateMutability": "view",
      "type": "function"
    },
    {
      "inputs": [],
      "name": "isOwner",
      "outputs": [
        {
          "internalType": "bool",
          "name": "",
          "type": "bool"
        }
      ],
      "stateMutability": "view",
      "type": "function"
    },
    {
      "inputs": [],
      "name": "state",
      "outputs": [
        {
          "internalType": "enum Bank.State",
          "name": "",
          "type": "uint8"
        }
      ],
      "stateMutability": "view",
      "type": "function"
    },
    {
      "inputs": [
        {
          "internalType": "address",
          "name": "",
          "type": "address"
        },
        {
          "internalType": "address",
          "name": "",
          "type": "address"
        }
      ],
      "name": "tokenOwnerBalance",
      "outputs": [
        {
          "internalType": "uint256",
          "name": "",
          "type": "uint256"
        }
      ],
      "stateMutability": "view",
      "type": "function"
    },
    {
      "inputs": [
        {
          "internalType": "address",
          "name": "",
          "type": "address"
        }
      ],
      "name": "tokensAllowed",
      "outputs": [
        {
          "internalType": "bool",
          "name": "",
          "type": "bool"
        }
      ],
      "stateMutability": "view",
      "type": "function"
    },
    {
      "inputs": [
        {
          "internalType": "address",
          "name": "_newOwner",
          "type": "address"
        }
      ],
      "name": "transferOwnership",
      "outputs": [],
      "stateMutability": "nonpayable",
      "type": "function"
    },
    {
      "stateMutability": "payable",
      "type": "receive"
    },
    {
      "inputs": [
        {
          "internalType": "address payable",
          "name": "_chromium",
          "type": "address"
        }
      ],
      "name": "setChromium",
      "outputs": [],
      "stateMutability": "nonpayable",
      "type": "function"
    },
    {
      "inputs": [
        {
          "internalType": "contract IERC20",
          "name": "fromToken",
          "type": "address"
        },
        {
          "internalType": "contract IERC20",
          "name": "cbltToken",
          "type": "address"
        },
        {
          "internalType": "address",
          "name": "to",
          "type": "address"
        },
        {
          "internalType": "uint256",
          "name": "amount",
          "type": "uint256"
        },
        {
          "internalType": "uint256",
          "name": "minReturn",
          "type": "uint256"
        }
      ],
      "name": "withdrawCbltForExchange",
      "outputs": [],
      "stateMutability": "payable",
      "type": "function"
    },
    {
      "inputs": [
        {
          "internalType": "address",
          "name": "_tokenAddress",
          "type": "address"
        },
        {
          "internalType": "uint256",
          "name": "_amount",
          "type": "uint256"
        }
      ],
      "name": "withdrawTokens",
      "outputs": [],
      "stateMutability": "nonpayable",
      "type": "function"
    },
    {
      "inputs": [
        {
          "internalType": "uint256",
          "name": "_amount",
          "type": "uint256"
        }
      ],
      "name": "withdraw",
      "outputs": [],
      "stateMutability": "nonpayable",
      "type": "function"
    },
    {
      "inputs": [],
      "name": "deposit",
      "outputs": [],
      "stateMutability": "payable",
      "type": "function"
    },
    {
      "inputs": [
        {
          "internalType": "address",
          "name": "_tokenAddress",
          "type": "address"
        }
      ],
      "name": "addToken",
      "outputs": [
        {
          "internalType": "bool",
          "name": "",
          "type": "bool"
        }
      ],
      "stateMutability": "nonpayable",
      "type": "function"
    },
    {
      "inputs": [
        {
          "internalType": "address",
          "name": "_tokenAddress",
          "type": "address"
        }
      ],
      "name": "removeToken",
      "outputs": [
        {
          "internalType": "bool",
          "name": "",
          "type": "bool"
        }
      ],
      "stateMutability": "nonpayable",
      "type": "function"
    },
    {
      "inputs": [
        {
          "internalType": "address",
          "name": "_token",
          "type": "address"
        }
      ],
      "name": "isTokenAllowed",
      "outputs": [
        {
          "internalType": "bool",
          "name": "",
          "type": "bool"
        }
      ],
      "stateMutability": "view",
      "type": "function"
    },
    {
      "inputs": [
        {
          "internalType": "address",
          "name": "_tokenAddress",
          "type": "address"
        }
      ],
      "name": "totalTokenSupply",
      "outputs": [
        {
          "internalType": "uint256",
          "name": "",
          "type": "uint256"
        }
      ],
      "stateMutability": "view",
      "type": "function"
    },
    {
      "inputs": [
        {
          "internalType": "address",
          "name": "_tokenAddress",
          "type": "address"
        }
      ],
      "name": "balanceOfToken",
      "outputs": [
        {
          "internalType": "uint256",
          "name": "",
          "type": "uint256"
        }
      ],
      "stateMutability": "view",
      "type": "function"
    },
    {
      "inputs": [
        {
          "internalType": "contract IERC20",
          "name": "fromToken",
          "type": "address"
        },
        {
          "internalType": "contract IERC20",
          "name": "destToken",
          "type": "address"
        },
        {
          "internalType": "uint256",
          "name": "amount",
          "type": "uint256"
        },
        {
          "internalType": "uint256",
          "name": "minReturn",
          "type": "uint256"
        },
        {
          "internalType": "uint256[]",
          "name": "distribution",
          "type": "uint256[]"
        },
        {
          "internalType": "uint256",
          "name": "flags",
          "type": "uint256"
        }
      ],
      "name": "swapTokensForCblt",
      "outputs": [],
      "stateMutability": "payable",
      "type": "function"
    },
    {
      "inputs": [
        {
          "internalType": "uint256",
          "name": "_paymentPeriod",
          "type": "uint256"
        },
        {
          "internalType": "uint256",
          "name": "_minimumPayment",
          "type": "uint256"
        },
        {
          "internalType": "uint256",
          "name": "principal",
          "type": "uint256"
        }
      ],
      "name": "newLoan",
      "outputs": [],
      "stateMutability": "payable",
      "type": "function"
    },
    {
      "inputs": [],
      "name": "makePayment",
      "outputs": [],
      "stateMutability": "payable",
      "type": "function"
    },
    {
      "inputs": [],
      "name": "missedPayment",
      "outputs": [],
      "stateMutability": "nonpayable",
      "type": "function"
    },
    {
      "inputs": [],
      "name": "returnCollateral",
      "outputs": [],
      "stateMutability": "nonpayable",
      "type": "function"
    },
    {
      "inputs": [],
      "name": "cleanSlate",
      "outputs": [],
      "stateMutability": "nonpayable",
      "type": "function"
    },
    {
      "inputs": [
        {
          "internalType": "uint256",
          "name": "_signature",
          "type": "uint256"
        },
        {
          "internalType": "bool",
          "name": "_vote",
          "type": "bool"
        }
      ],
      "name": "doVote",
      "outputs": [
        {
          "internalType": "bool",
          "name": "voted",
          "type": "bool"
        }
      ],
      "stateMutability": "nonpayable",
      "type": "function"
    },
    {
      "inputs": [
        {
          "internalType": "uint256",
          "name": "_timeStakedTier",
          "type": "uint256"
        }
      ],
      "name": "depositEth",
      "outputs": [],
      "stateMutability": "payable",
      "type": "function"
    },
    {
      "inputs": [
        {
          "internalType": "uint256",
          "name": "_amount",
          "type": "uint256"
        }
      ],
      "name": "withdrawEth",
      "outputs": [],
      "stateMutability": "nonpayable",
      "type": "function"
    },
    {
      "inputs": [],
      "name": "testUserData",
      "outputs": [
        {
          "internalType": "uint256",
          "name": "",
          "type": "uint256"
        },
        {
          "internalType": "uint256",
          "name": "",
          "type": "uint256"
        },
        {
          "internalType": "uint256",
          "name": "",
          "type": "uint256"
        },
        {
          "internalType": "uint256",
          "name": "",
          "type": "uint256"
        },
        {
          "internalType": "uint256",
          "name": "",
          "type": "uint256"
        }
      ],
      "stateMutability": "view",
      "type": "function"
    },
    {
      "inputs": [
        {
          "internalType": "uint256",
          "name": "_amount",
          "type": "uint256"
        }
      ],
      "name": "withdrawStaking",
      "outputs": [],
      "stateMutability": "payable",
      "type": "function"
    }
  ],
  "bytecode": "0x60806040526e13426172c74d822b878fe800000000600f553480156200002457600080fd5b5060405162005b5f38038062005b5f833981810160405260608110156200004a57600080fd5b81019080805160405193929190846401000000008211156200006b57600080fd5b838201915060208201858111156200008257600080fd5b8251866020820283011164010000000082111715620000a057600080fd5b8083526020830192505050908051906020019060200280838360005b83811015620000d9578082015181840152602081019050620000bc565b505050509050016040526020018051906020019092919080519060200190929190505050336000806101000a81548173ffffffffffffffffffffffffffffffffffffffff021916908373ffffffffffffffffffffffffffffffffffffffff16021790555060005b8351811015620001c4576001600660008684815181106200015d57fe5b602002602001015173ffffffffffffffffffffffffffffffffffffffff1673ffffffffffffffffffffffffffffffffffffffff16815260200190815260200160002060006101000a81548160ff021916908315150217905550808060010191505062000140565b5080600260006101000a81548173ffffffffffffffffffffffffffffffffffffffff021916908373ffffffffffffffffffffffffffffffffffffffff16021790555081600160006101000a81548173ffffffffffffffffffffffffffffffffffffffff021916908373ffffffffffffffffffffffffffffffffffffffff1602179055506005600d600060018152602001908152602001600020600060018152602001908152602001600020819055506006600d600060018152602001908152602001600020600060028152602001908152602001600020819055506007600d600060018152602001908152602001600020600060038152602001908152602001600020819055506008600d600060018152602001908152602001600020600060048152602001908152602001600020819055506009600d600060018152602001908152602001600020600060058152602001908152602001600020819055506006600d600060028152602001908152602001600020600060018152602001908152602001600020819055506007600d600060028152602001908152602001600020600060028152602001908152602001600020819055506008600d600060028152602001908152602001600020600060038152602001908152602001600020819055506009600d60006002815260200190815260200160002060006004815260200190815260200160002081905550600a600d600060028152602001908152602001600020600060058152602001908152602001600020819055506007600d600060038152602001908152602001600020600060018152602001908152602001600020819055506008600d600060038152602001908152602001600020600060028152602001908152602001600020819055506009600d60006003815260200190815260200160002060006003815260200190815260200160002081905550600a600d60006003815260200190815260200160002060006004815260200190815260200160002081905550600e600d600060038152602001908152602001600020600060058152602001908152602001600020819055506009600d60006004815260200190815260200160002060006001815260200190815260200160002081905550600b600d60006004815260200190815260200160002060006002815260200190815260200160002081905550600d8060006004815260200190815260200160002060006003815260200190815260200160002081905550600f600d600060048152602001908152602001600020600060048152602001908152602001600020819055506011600d60006004815260200190815260200160002060006005815260200190815260200160002081905550600a600d60006005815260200190815260200160002060006001815260200190815260200160002081905550600d80600060058152602001908152602001600020600060028152602001908152602001600020819055506010600d600060058152602001908152602001600020600060038152602001908152602001600020819055506013600d600060058152602001908152602001600020600060048152602001908152602001600020819055506014600d600060058152602001908152602001600020600060058152602001908152602001600020819055505050506154bb80620006a46000396000f3fe6080604052600436106101c65760003560e01c8063b2bdfa7b116100f7578063cd0c589611610095578063d8d7970011610064578063d8d7970014610a98578063eeda452b14610aa2578063f2fde38b14610b09578063f9eaee0d14610b5a576102a7565b8063cd0c589614610965578063d0e30db0146109ca578063d48bfca7146109d4578063d7b8943614610a3b576102a7565b8063c19d93fb116100d1578063c19d93fb1461088c578063c311d049146108c2578063c5482505146108fd578063c7d5f5981461094e576102a7565b8063b2bdfa7b146106d0578063b5eb46bd14610711578063b99152d014610827576102a7565b806332e700c2116101645780635fa7b5841161013e5780635fa7b584146105a057806374be5a80146106075780638f32d59b1461068c578063a3f0bb66146106b9576102a7565b806332e700c21461048c57806337933da61461052457806344ed456f14610589576102a7565b80631ec9f27b116101a05780631ec9f27b1461037c5780632c2332fe146103be5780632e0b78f6146104235780632e1a7d4d14610451576102a7565b806306b091f9146102ac5780630713cce1146103075780630f4d14e91461034e576102a7565b366102a757610214600860003073ffffffffffffffffffffffffffffffffffffffff1673ffffffffffffffffffffffffffffffffffffffff1681526020019081526020016000205434610bc1565b600860003073ffffffffffffffffffffffffffffffffffffffff1673ffffffffffffffffffffffffffffffffffffffff168152602001908152602001600020819055503373ffffffffffffffffffffffffffffffffffffffff167fd670118af2f5106578945dd6e0e7ec8146871079961c926ccd38e9a9abb91b72346040518082815260200191505060405180910390a2005b600080fd5b3480156102b857600080fd5b50610305600480360360408110156102cf57600080fd5b81019080803573ffffffffffffffffffffffffffffffffffffffff16906020019092919080359060200190929190505050610bdd565b005b34801561031357600080fd5b5061031c61110a565b604051808681526020018581526020018481526020018381526020018281526020019550505050505060405180910390f35b61037a6004803603602081101561036457600080fd5b8101908080359060200190929190505050611272565b005b6103bc6004803603606081101561039257600080fd5b81019080803590602001909291908035906020019092919080359060200190929190505050611623565b005b3480156103ca57600080fd5b5061040d600480360360208110156103e157600080fd5b81019080803573ffffffffffffffffffffffffffffffffffffffff169060200190929190505050611c6e565b6040518082815260200191505060405180910390f35b61044f6004803603602081101561043957600080fd5b8101908080359060200190929190505050611cb7565b005b34801561045d57600080fd5b5061048a6004803603602081101561047457600080fd5b8101908080359060200190929190505050612273565b005b610522600480360360a08110156104a257600080fd5b81019080803573ffffffffffffffffffffffffffffffffffffffff169060200190929190803573ffffffffffffffffffffffffffffffffffffffff169060200190929190803573ffffffffffffffffffffffffffffffffffffffff1690602001909291908035906020019092919080359060200190929190505050612455565b005b34801561053057600080fd5b506105736004803603602081101561054757600080fd5b81019080803573ffffffffffffffffffffffffffffffffffffffff1690602001909291905050506128ba565b6040518082815260200191505060405180910390f35b34801561059557600080fd5b5061059e6128d2565b005b3480156105ac57600080fd5b506105ef600480360360208110156105c357600080fd5b81019080803573ffffffffffffffffffffffffffffffffffffffff169060200190929190505050612ac3565b60405180821515815260200191505060405180910390f35b34801561061357600080fd5b506106766004803603604081101561062a57600080fd5b81019080803573ffffffffffffffffffffffffffffffffffffffff169060200190929190803573ffffffffffffffffffffffffffffffffffffffff169060200190929190505050612b97565b6040518082815260200191505060405180910390f35b34801561069857600080fd5b506106a1612bbc565b60405180821515815260200191505060405180910390f35b3480156106c557600080fd5b506106ce612c13565b005b3480156106dc57600080fd5b506106e5612d5c565b604051808273ffffffffffffffffffffffffffffffffffffffff16815260200191505060405180910390f35b610825600480360360c081101561072757600080fd5b81019080803573ffffffffffffffffffffffffffffffffffffffff169060200190929190803573ffffffffffffffffffffffffffffffffffffffff16906020019092919080359060200190929190803590602001909291908035906020019064010000000081111561079857600080fd5b8201836020820111156107aa57600080fd5b803590602001918460208302840111640100000000831117156107cc57600080fd5b919080806020026020016040519081016040528093929190818152602001838360200280828437600081840152601f19601f82011690508083019250505050505050919291929080359060200190929190505050612d80565b005b34801561083357600080fd5b506108766004803603602081101561084a57600080fd5b81019080803573ffffffffffffffffffffffffffffffffffffffff1690602001909291905050506133f0565b6040518082815260200191505060405180910390f35b34801561089857600080fd5b506108a1613476565b604051808260028111156108b157fe5b815260200191505060405180910390f35b3480156108ce57600080fd5b506108fb600480360360208110156108e557600080fd5b8101908080359060200190929190505050613489565b005b34801561090957600080fd5b5061094c6004803603602081101561092057600080fd5b81019080803573ffffffffffffffffffffffffffffffffffffffff169060200190929190505050613a0c565b005b34801561095a57600080fd5b50610963613b0b565b005b34801561097157600080fd5b506109b46004803603602081101561098857600080fd5b81019080803573ffffffffffffffffffffffffffffffffffffffff169060200190929190505050613c4f565b6040518082815260200191505060405180910390f35b6109d2613c67565b005b3480156109e057600080fd5b50610a23600480360360208110156109f757600080fd5b81019080803573ffffffffffffffffffffffffffffffffffffffff169060200190929190505050613d43565b60405180821515815260200191505060405180910390f35b348015610a4757600080fd5b50610a8060048036036040811015610a5e57600080fd5b8101908080359060200190929190803515159060200190929190505050613e20565b60405180821515815260200191505060405180910390f35b610aa06140a9565b005b348015610aae57600080fd5b50610af160048036036020811015610ac557600080fd5b81019080803573ffffffffffffffffffffffffffffffffffffffff169060200190929190505050614205565b60405180821515815260200191505060405180910390f35b348015610b1557600080fd5b50610b5860048036036020811015610b2c57600080fd5b81019080803573ffffffffffffffffffffffffffffffffffffffff169060200190929190505050614225565b005b348015610b6657600080fd5b50610ba960048036036020811015610b7d57600080fd5b81019080803573ffffffffffffffffffffffffffffffffffffffff169060200190929190505050614360565b60405180821515815260200191505060405180910390f35b600080828401905083811015610bd357fe5b8091505092915050565b60011515600660008473ffffffffffffffffffffffffffffffffffffffff1673ffffffffffffffffffffffffffffffffffffffff16815260200190815260200160002060009054906101000a900460ff16151514610ca3576040517f08c379a00000000000000000000000000000000000000000000000000000000081526004018080602001828103825260168152602001807f546f6b656e206973206e6f7420737570706f727465640000000000000000000081525060200191505060405180910390fd5b600560008373ffffffffffffffffffffffffffffffffffffffff1673ffffffffffffffffffffffffffffffffffffffff16815260200190815260200160002060003373ffffffffffffffffffffffffffffffffffffffff1673ffffffffffffffffffffffffffffffffffffffff16815260200190815260200160002054811115610d2c57600080fd5b6000811415610d86576040517f08c379a00000000000000000000000000000000000000000000000000000000081526004018080602001828103825260248152602001806153c66024913960400191505060405180910390fd5b81600160006101000a81548173ffffffffffffffffffffffffffffffffffffffff021916908373ffffffffffffffffffffffffffffffffffffffff160217905550610e10600760008473ffffffffffffffffffffffffffffffffffffffff1673ffffffffffffffffffffffffffffffffffffffff16815260200190815260200160002054826143b6565b600760008473ffffffffffffffffffffffffffffffffffffffff1673ffffffffffffffffffffffffffffffffffffffff16815260200190815260200160002081905550610ed9600560008473ffffffffffffffffffffffffffffffffffffffff1673ffffffffffffffffffffffffffffffffffffffff16815260200190815260200160002060003373ffffffffffffffffffffffffffffffffffffffff1673ffffffffffffffffffffffffffffffffffffffff16815260200190815260200160002054826143b6565b600560008473ffffffffffffffffffffffffffffffffffffffff1673ffffffffffffffffffffffffffffffffffffffff16815260200190815260200160002060003373ffffffffffffffffffffffffffffffffffffffff1673ffffffffffffffffffffffffffffffffffffffff1681526020019081526020016000208190555060011515600160009054906101000a900473ffffffffffffffffffffffffffffffffffffffff1673ffffffffffffffffffffffffffffffffffffffff1663a9059cbb33846040518363ffffffff1660e01b8152600401808373ffffffffffffffffffffffffffffffffffffffff16815260200182815260200192505050602060405180830381600087803b158015610ff057600080fd5b505af1158015611004573d6000803e3d6000fd5b505050506040513d602081101561101a57600080fd5b81019080805190602001909291905050501515146110a0576040517f08c379a00000000000000000000000000000000000000000000000000000000081526004018080602001828103825260158152602001807f5472616e73666572206e6f7420636f6d706c657465000000000000000000000081525060200191505060405180910390fd5b600073ffffffffffffffffffffffffffffffffffffffff163373ffffffffffffffffffffffffffffffffffffffff167f4a39314939a992cd109ba0dcd4547fb405fe016615215f7ba3bd53cb1aa619c8836040518082815260200191505060405180910390a35050565b6000806000806000600e60003373ffffffffffffffffffffffffffffffffffffffff1673ffffffffffffffffffffffffffffffffffffffff16815260200190815260200160002060020154600e60003373ffffffffffffffffffffffffffffffffffffffff1673ffffffffffffffffffffffffffffffffffffffff16815260200190815260200160002060000154600e60003373ffffffffffffffffffffffffffffffffffffffff1673ffffffffffffffffffffffffffffffffffffffff16815260200190815260200160002060030154600e60003373ffffffffffffffffffffffffffffffffffffffff1673ffffffffffffffffffffffffffffffffffffffff16815260200190815260200160002060040154600e60003373ffffffffffffffffffffffffffffffffffffffff1673ffffffffffffffffffffffffffffffffffffffff16815260200190815260200160002060050154945094509450945094509091929394565b600067058d15e176280000341161128c57600190506112dd565b671bc16d674ec8000034116112a457600290506112dc565b674563918244f4000034116112bc57600390506112db565b68015af1d78b58c4000034116112d557600490506112da565b600590505b5b5b5b80600e60003373ffffffffffffffffffffffffffffffffffffffff1673ffffffffffffffffffffffffffffffffffffffff16815260200190815260200160002060050181905550670214e8348c4f0000341015611385576040517f08c379a00000000000000000000000000000000000000000000000000000000081526004018080602001828103825260238152602001806154156023913960400191505060405180910390fd5b60006113923484846143cd565b9050600f5481111561140c576040517f08c379a000000000000000000000000000000000000000000000000000000000815260040180806020018281038252601e8152602001807f54726561737572792069732063757272656e746c79206465706c65746564000081525060200191505060405180910390fd5b611418600f54826143b6565b600f8190555061146a600e60003373ffffffffffffffffffffffffffffffffffffffff1673ffffffffffffffffffffffffffffffffffffffff1681526020019081526020016000206003015482610bc1565b600e60003373ffffffffffffffffffffffffffffffffffffffff1673ffffffffffffffffffffffffffffffffffffffff1681526020019081526020016000206003018190555082600e60003373ffffffffffffffffffffffffffffffffffffffff1673ffffffffffffffffffffffffffffffffffffffff16815260200190815260200160002060040181905550611543600e60003373ffffffffffffffffffffffffffffffffffffffff1673ffffffffffffffffffffffffffffffffffffffff1681526020019081526020016000206002015434610bc1565b600e60003373ffffffffffffffffffffffffffffffffffffffff1673ffffffffffffffffffffffffffffffffffffffff1681526020019081526020016000206002018190555042600e60003373ffffffffffffffffffffffffffffffffffffffff1673ffffffffffffffffffffffffffffffffffffffff168152602001908152602001600020600001819055503373ffffffffffffffffffffffffffffffffffffffff167fd670118af2f5106578945dd6e0e7ec8146871079961c926ccd38e9a9abb91b72346040518082815260200191505060405180910390a2505050565b6000601490506000600f90506000600290506000600a9050600080600260009054906101000a900473ffffffffffffffffffffffffffffffffffffffff1673ffffffffffffffffffffffffffffffffffffffff167329a99c126596c0dc96b02a88a9eaab44eccf511e604051602401808273ffffffffffffffffffffffffffffffffffffffff1681526020019150506040516020818303038152906040527f3ccc0522000000000000000000000000000000000000000000000000000000007bffffffffffffffffffffffffffffffffffffffffffffffffffffffff19166020820180517bffffffffffffffffffffffffffffffffffffffffffffffffffffffff83818316178352505050506040518082805190602001908083835b60208310611762578051825260208201915060208101905060208303925061173f565b6001836020036101000a0380198251168184511680821785525050505050509050019150506000604051808303816000865af19150503d80600081146117c4576040519150601f19603f3d011682016040523d82523d6000602084013e6117c9565b606091505b50915091506001151582151514611848576040517f08c379a000000000000000000000000000000000000000000000000000000000815260040180806020018281038252600e8152602001807f4f7261636c6520697320646f776e00000000000000000000000000000000000081525060200191505060405180910390fd5b600081806020019051602081101561185f57600080fd5b81019080805190602001909291905050509050600061189361188d6118848a8a61479b565b8b6103e86147d2565b836147e9565b905060006118a48c6228206f6147e9565b905060006118b283836147e9565b905060001515600960003373ffffffffffffffffffffffffffffffffffffffff1673ffffffffffffffffffffffffffffffffffffffff16815260200190815260200160002060080160019054906101000a900460ff1615151461191457600080fd5b60011515600160009054906101000a900473ffffffffffffffffffffffffffffffffffffffff1673ffffffffffffffffffffffffffffffffffffffff166323b872dd3330876040518463ffffffff1660e01b8152600401808473ffffffffffffffffffffffffffffffffffffffff1681526020018373ffffffffffffffffffffffffffffffffffffffff1681526020018281526020019350505050602060405180830381600087803b1580156119c957600080fd5b505af11580156119dd573d6000803e3d6000fd5b505050506040513d60208110156119f357600080fd5b8101908080519060200190929190505050151514611a79576040517f08c379a00000000000000000000000000000000000000000000000000000000081526004018080602001828103825260198152602001807f5061796d656e7420776173206e6f7420617070726f7665642e0000000000000081525060200191505060405180910390fd5b604051806101c001604052803373ffffffffffffffffffffffffffffffffffffffff1681526020018e4201815260200160405180604001604052808b81526020018a81525081526020018e81526020018c81526020018d81526020018281526020016000151581526020016001151581526020014281526020016000815260200160008152602001600081526020016000815250600960003373ffffffffffffffffffffffffffffffffffffffff1673ffffffffffffffffffffffffffffffffffffffff16815260200190815260200160002060008201518160000160006101000a81548173ffffffffffffffffffffffffffffffffffffffff021916908373ffffffffffffffffffffffffffffffffffffffff1602179055506020820151816001015560408201518160020160008201518160000155602082015181600101555050606082015181600401556080820151816005015560a0820151816006015560c0820151816007015560e08201518160080160006101000a81548160ff0219169083151502179055506101008201518160080160016101000a81548160ff021916908315150217905550610120820151816009015561014082015181600a015561016082015181600b015561018082015181600c01556101a082015181600d015590505050505050505050505050505050565b6000600760008373ffffffffffffffffffffffffffffffffffffffff1673ffffffffffffffffffffffffffffffffffffffff168152602001908152602001600020549050919050565b600080600260009054906101000a900473ffffffffffffffffffffffffffffffffffffffff1673ffffffffffffffffffffffffffffffffffffffff167329a99c126596c0dc96b02a88a9eaab44eccf511e604051602401808273ffffffffffffffffffffffffffffffffffffffff1681526020019150506040516020818303038152906040527f3ccc0522000000000000000000000000000000000000000000000000000000007bffffffffffffffffffffffffffffffffffffffffffffffffffffffff19166020820180517bffffffffffffffffffffffffffffffffffffffffffffffffffffffff83818316178352505050506040518082805190602001908083835b60208310611dde5780518252602082019150602081019050602083039250611dbb565b6001836020036101000a0380198251168184511680821785525050505050509050019150506000604051808303816000865af19150503d8060008114611e40576040519150601f19603f3d011682016040523d82523d6000602084013e611e45565b606091505b50915091506001151582151514611ec4576040517f08c379a000000000000000000000000000000000000000000000000000000000815260040180806020018281038252600f8152602001807f4f7261636c6520697320646f776e2e000000000000000000000000000000000081525060200191505060405180910390fd5b600080600260009054906101000a900473ffffffffffffffffffffffffffffffffffffffff1673ffffffffffffffffffffffffffffffffffffffff166040516024016040516020818303038152906040527fb52e6f27000000000000000000000000000000000000000000000000000000007bffffffffffffffffffffffffffffffffffffffffffffffffffffffff19166020820180517bffffffffffffffffffffffffffffffffffffffffffffffffffffffff83818316178352505050506040518082805190602001908083835b60208310611fb65780518252602082019150602081019050602083039250611f93565b6001836020036101000a0380198251168184511680821785525050505050509050019150506000604051808303816000865af19150503d8060008114612018576040519150601f19603f3d011682016040523d82523d6000602084013e61201d565b606091505b5091509150600115158215151461209c576040517f08c379a000000000000000000000000000000000000000000000000000000000815260040180806020018281038252600f8152602001807f4f7261636c6520697320646f776e2e000000000000000000000000000000000081525060200191505060405180910390fd5b60008380602001905160208110156120b357600080fd5b8101908080519060200190929190505050905060008280602001905160208110156120dd57600080fd5b81019080805190602001909291905050509050600061210e68056bc75e2d63100000612109858561479b565b6147e9565b905061211b81603261479b565b600e60003373ffffffffffffffffffffffffffffffffffffffff1673ffffffffffffffffffffffffffffffffffffffff1681526020019081526020016000206001015410156121d2576040517f08c379a000000000000000000000000000000000000000000000000000000000815260040180806020018281038252601f8152602001807f5265776172642077616c6c657420646f6573206e6f742068617665203530240081525060200191505060405180910390fd5b6000600e60003373ffffffffffffffffffffffffffffffffffffffff1673ffffffffffffffffffffffffffffffffffffffff1681526020019081526020016000206001018190555061226930338a600160009054906101000a900473ffffffffffffffffffffffffffffffffffffffff1673ffffffffffffffffffffffffffffffffffffffff16614802909392919063ffffffff16565b5050505050505050565b600860003373ffffffffffffffffffffffffffffffffffffffff1673ffffffffffffffffffffffffffffffffffffffff168152602001908152602001600020548111156122bf57600080fd5b6000811415612319576040517f08c379a00000000000000000000000000000000000000000000000000000000081526004018080602001828103825260248152602001806153c66024913960400191505060405180910390fd5b612362600860003373ffffffffffffffffffffffffffffffffffffffff1673ffffffffffffffffffffffffffffffffffffffff16815260200190815260200160002054826143b6565b600860003373ffffffffffffffffffffffffffffffffffffffff1673ffffffffffffffffffffffffffffffffffffffff168152602001908152602001600020819055503373ffffffffffffffffffffffffffffffffffffffff166108fc829081150290604051600060405180830381858888f193505050501580156123eb573d6000803e3d6000fd5b50600073ffffffffffffffffffffffffffffffffffffffff163373ffffffffffffffffffffffffffffffffffffffff167f4a39314939a992cd109ba0dcd4547fb405fe016615215f7ba3bd53cb1aa619c8836040518082815260200191505060405180910390a350565b600360009054906101000a900473ffffffffffffffffffffffffffffffffffffffff1673ffffffffffffffffffffffffffffffffffffffff163373ffffffffffffffffffffffffffffffffffffffff16146124af57600080fd5b6124b884611c6e565b82111561252d576040517f08c379a00000000000000000000000000000000000000000000000000000000081526004018080602001828103825260168152602001807f4e6f7420656e6f7567682063626c7420746f6b656e730000000000000000000081525060200191505060405180910390fd5b6000821415612587576040517f08c379a00000000000000000000000000000000000000000000000000000000081526004018080602001828103825260248152602001806154626024913960400191505060405180910390fd5b6125b43330848873ffffffffffffffffffffffffffffffffffffffff16614802909392919063ffffffff16565b6125fd600760008773ffffffffffffffffffffffffffffffffffffffff1673ffffffffffffffffffffffffffffffffffffffff1681526020019081526020016000205483610bc1565b600760008773ffffffffffffffffffffffffffffffffffffffff1673ffffffffffffffffffffffffffffffffffffffff168152602001908152602001600020819055506126e8600560008773ffffffffffffffffffffffffffffffffffffffff1673ffffffffffffffffffffffffffffffffffffffff1681526020019081526020016000206000600360009054906101000a900473ffffffffffffffffffffffffffffffffffffffff1673ffffffffffffffffffffffffffffffffffffffff1673ffffffffffffffffffffffffffffffffffffffff1681526020019081526020016000205483610bc1565b600560008773ffffffffffffffffffffffffffffffffffffffff1673ffffffffffffffffffffffffffffffffffffffff1681526020019081526020016000206000600360009054906101000a900473ffffffffffffffffffffffffffffffffffffffff1673ffffffffffffffffffffffffffffffffffffffff1673ffffffffffffffffffffffffffffffffffffffff168152602001908152602001600020819055506127b583828673ffffffffffffffffffffffffffffffffffffffff166149c59092919063ffffffff16565b612827576040517f08c379a000000000000000000000000000000000000000000000000000000000815260040180806020018281038252601b8152602001807f5472616e73616374696f6e206661696c656420746f2073656e642e000000000081525060200191505060405180910390fd5b612870600760008673ffffffffffffffffffffffffffffffffffffffff1673ffffffffffffffffffffffffffffffffffffffff16815260200190815260200160002054826143b6565b600760008673ffffffffffffffffffffffffffffffffffffffff1673ffffffffffffffffffffffffffffffffffffffff168152602001908152602001600020819055505050505050565b60076020528060005260406000206000915090505481565b6000600960003373ffffffffffffffffffffffffffffffffffffffff1673ffffffffffffffffffffffffffffffffffffffff168152602001908152602001600020600501541461292157600080fd5b6000600160009054906101000a900473ffffffffffffffffffffffffffffffffffffffff1673ffffffffffffffffffffffffffffffffffffffff166370a08231306040518263ffffffff1660e01b8152600401808273ffffffffffffffffffffffffffffffffffffffff16815260200191505060206040518083038186803b1580156129ac57600080fd5b505afa1580156129c0573d6000803e3d6000fd5b505050506040513d60208110156129d657600080fd5b81019080805190602001909291905050509050600160009054906101000a900473ffffffffffffffffffffffffffffffffffffffff1673ffffffffffffffffffffffffffffffffffffffff1663a9059cbb33836040518363ffffffff1660e01b8152600401808373ffffffffffffffffffffffffffffffffffffffff16815260200182815260200192505050602060405180830381600087803b158015612a7c57600080fd5b505af1158015612a90573d6000803e3d6000fd5b505050506040513d6020811015612aa657600080fd5b8101908080519060200190929190505050612ac057600080fd5b50565b6000612acd612bbc565b612b3f576040517f08c379a00000000000000000000000000000000000000000000000000000000081526004018080602001828103825260168152602001807f596f7520617265206e6f7420746865206f776e65722e0000000000000000000081525060200191505060405180910390fd5b600660008373ffffffffffffffffffffffffffffffffffffffff1673ffffffffffffffffffffffffffffffffffffffff16815260200190815260200160002060006101000a81549060ff021916905560019050919050565b6005602052816000526040600020602052806000526040600020600091509150505481565b60008060009054906101000a900473ffffffffffffffffffffffffffffffffffffffff1673ffffffffffffffffffffffffffffffffffffffff163373ffffffffffffffffffffffffffffffffffffffff1614905090565b6000600960003373ffffffffffffffffffffffffffffffffffffffff1673ffffffffffffffffffffffffffffffffffffffff1681526020019081526020016000206005015414612c6257600080fd5b600960003373ffffffffffffffffffffffffffffffffffffffff1673ffffffffffffffffffffffffffffffffffffffff168152602001908152602001600020600080820160006101000a81549073ffffffffffffffffffffffffffffffffffffffff02191690556001820160009055600282016000808201600090556001820160009055505060048201600090556005820160009055600682016000905560078201600090556008820160006101000a81549060ff02191690556008820160016101000a81549060ff02191690556009820160009055600a820160009055600b820160009055600c820160009055600d8201600090555050565b60008054906101000a900473ffffffffffffffffffffffffffffffffffffffff1681565b612d88612bbc565b612dfa576040517f08c379a00000000000000000000000000000000000000000000000000000000081526004018080602001828103825260168152602001807f596f7520617265206e6f7420746865206f776e65722e0000000000000000000081525060200191505060405180910390fd5b600560008673ffffffffffffffffffffffffffffffffffffffff1673ffffffffffffffffffffffffffffffffffffffff1681526020019081526020016000206000600360009054906101000a900473ffffffffffffffffffffffffffffffffffffffff1673ffffffffffffffffffffffffffffffffffffffff1673ffffffffffffffffffffffffffffffffffffffff16815260200190815260200160002054831115612ef1576040517f08c379a000000000000000000000000000000000000000000000000000000000815260040180806020018281038252602381526020018061537d6023913960400191505060405180910390fd5b612f99600560008873ffffffffffffffffffffffffffffffffffffffff1673ffffffffffffffffffffffffffffffffffffffff1681526020019081526020016000206000600360009054906101000a900473ffffffffffffffffffffffffffffffffffffffff1673ffffffffffffffffffffffffffffffffffffffff1673ffffffffffffffffffffffffffffffffffffffff16815260200190815260200160002054856143b6565b600560008873ffffffffffffffffffffffffffffffffffffffff1673ffffffffffffffffffffffffffffffffffffffff1681526020019081526020016000206000600360009054906101000a900473ffffffffffffffffffffffffffffffffffffffff1673ffffffffffffffffffffffffffffffffffffffff1673ffffffffffffffffffffffffffffffffffffffff16815260200190815260200160002081905550613084600760008873ffffffffffffffffffffffffffffffffffffffff1673ffffffffffffffffffffffffffffffffffffffff16815260200190815260200160002054856143b6565b600760008873ffffffffffffffffffffffffffffffffffffffff1673ffffffffffffffffffffffffffffffffffffffff168152602001908152602001600020819055506000600460009054906101000a900473ffffffffffffffffffffffffffffffffffffffff1673ffffffffffffffffffffffffffffffffffffffff1663e2a7515e348989898989896040518863ffffffff1660e01b8152600401808773ffffffffffffffffffffffffffffffffffffffff1681526020018673ffffffffffffffffffffffffffffffffffffffff16815260200185815260200184815260200180602001838152602001828103825284818151815260200191508051906020019060200280838360005b838110156131aa57808201518184015260208101905061318f565b505050509050019750505050505050506020604051808303818588803b1580156131d357600080fd5b505af11580156131e7573d6000803e3d6000fd5b50505050506040513d60208110156131fe57600080fd5b810190808051906020019092919050505090506132b9600560008873ffffffffffffffffffffffffffffffffffffffff1673ffffffffffffffffffffffffffffffffffffffff1681526020019081526020016000206000600360009054906101000a900473ffffffffffffffffffffffffffffffffffffffff1673ffffffffffffffffffffffffffffffffffffffff1673ffffffffffffffffffffffffffffffffffffffff1681526020019081526020016000205482610bc1565b600560008873ffffffffffffffffffffffffffffffffffffffff1673ffffffffffffffffffffffffffffffffffffffff1681526020019081526020016000206000600360009054906101000a900473ffffffffffffffffffffffffffffffffffffffff1673ffffffffffffffffffffffffffffffffffffffff1673ffffffffffffffffffffffffffffffffffffffff168152602001908152602001600020819055506133a4600760008873ffffffffffffffffffffffffffffffffffffffff1673ffffffffffffffffffffffffffffffffffffffff1681526020019081526020016000205482610bc1565b600760008873ffffffffffffffffffffffffffffffffffffffff1673ffffffffffffffffffffffffffffffffffffffff1681526020019081526020016000208190555050505050505050565b6000600560008373ffffffffffffffffffffffffffffffffffffffff1673ffffffffffffffffffffffffffffffffffffffff16815260200190815260200160002060003373ffffffffffffffffffffffffffffffffffffffff1673ffffffffffffffffffffffffffffffffffffffff168152602001908152602001600020549050919050565b600c60009054906101000a900460ff1681565b60006134e36134da42600e60003373ffffffffffffffffffffffffffffffffffffffff1673ffffffffffffffffffffffffffffffffffffffff168152602001908152602001600020600001546143b6565b6228206f6147e9565b9050600181101561355c576040517f08c379a00000000000000000000000000000000000000000000000000000000081526004018080602001828103825260188152602001807f57616974203330206461797320746f207769746864726177000000000000000081525060200191505060405180910390fd5b600080600e60003373ffffffffffffffffffffffffffffffffffffffff1673ffffffffffffffffffffffffffffffffffffffff16815260200190815260200160002060020154905067058d15e17628000081116135bc576005915061360d565b671bc16d674ec8000081116135d4576004915061360c565b674563918244f4000081116135ec576003915061360b565b68015af1d78b58c400008111613605576002915061360a565b600191505b5b5b5b60006001600e60003373ffffffffffffffffffffffffffffffffffffffff1673ffffffffffffffffffffffffffffffffffffffff1681526020019081526020016000206004015414156136635760019050613767565b6002600e60003373ffffffffffffffffffffffffffffffffffffffff1673ffffffffffffffffffffffffffffffffffffffff1681526020019081526020016000206004015414156136b75760029050613766565b6003600e60003373ffffffffffffffffffffffffffffffffffffffff1673ffffffffffffffffffffffffffffffffffffffff16815260200190815260200160002060040154141561370b5760039050613765565b6004600e60003373ffffffffffffffffffffffffffffffffffffffff1673ffffffffffffffffffffffffffffffffffffffff16815260200190815260200160002060040154141561375f5760069050613764565b600c90505b5b5b5b60006137f8600e60003373ffffffffffffffffffffffffffffffffffffffff1673ffffffffffffffffffffffffffffffffffffffff16815260200190815260200160002060020154600e60003373ffffffffffffffffffffffffffffffffffffffff1673ffffffffffffffffffffffffffffffffffffffff16815260200190815260200160002060040154866143cd565b905060006138078287856147d2565b9050613855600e60003373ffffffffffffffffffffffffffffffffffffffff1673ffffffffffffffffffffffffffffffffffffffff1681526020019081526020016000206001015483610bc1565b600e60003373ffffffffffffffffffffffffffffffffffffffff1673ffffffffffffffffffffffffffffffffffffffff168152602001908152602001600020600101819055506000600e60003373ffffffffffffffffffffffffffffffffffffffff1673ffffffffffffffffffffffffffffffffffffffff1681526020019081526020016000206003018190555061392f600e60003373ffffffffffffffffffffffffffffffffffffffff1673ffffffffffffffffffffffffffffffffffffffff16815260200190815260200160002060020154886143b6565b600e60003373ffffffffffffffffffffffffffffffffffffffff1673ffffffffffffffffffffffffffffffffffffffff1681526020019081526020016000206002018190555042600e60003373ffffffffffffffffffffffffffffffffffffffff1673ffffffffffffffffffffffffffffffffffffffff168152602001908152602001600020600001819055503373ffffffffffffffffffffffffffffffffffffffff166108fc889081150290604051600060405180830381858888f19350505050158015613a02573d6000803e3d6000fd5b5050505050505050565b613a14612bbc565b613a86576040517f08c379a00000000000000000000000000000000000000000000000000000000081526004018080602001828103825260168152602001807f596f7520617265206e6f7420746865206f776e65722e0000000000000000000081525060200191505060405180910390fd5b80600360006101000a81548173ffffffffffffffffffffffffffffffffffffffff021916908373ffffffffffffffffffffffffffffffffffffffff16021790555080600460006101000a81548173ffffffffffffffffffffffffffffffffffffffff021916908373ffffffffffffffffffffffffffffffffffffffff16021790555050565b600960003373ffffffffffffffffffffffffffffffffffffffff1673ffffffffffffffffffffffffffffffffffffffff168152602001908152602001600020600101544211613b5957600080fd5b600080613ba7600960003373ffffffffffffffffffffffffffffffffffffffff1673ffffffffffffffffffffffffffffffffffffffff16815260200190815260200160002060060154614a6d565b8092508193505050600960003373ffffffffffffffffffffffffffffffffffffffff1673ffffffffffffffffffffffffffffffffffffffff16815260200190815260200160002060050154811115613c3f57600960003373ffffffffffffffffffffffffffffffffffffffff1673ffffffffffffffffffffffffffffffffffffffff1681526020019081526020016000206005015490505b613c4b82826000614a87565b5050565b60086020528060005260406000206000915090505481565b613cb0600860003373ffffffffffffffffffffffffffffffffffffffff1673ffffffffffffffffffffffffffffffffffffffff1681526020019081526020016000205434610bc1565b600860003373ffffffffffffffffffffffffffffffffffffffff1673ffffffffffffffffffffffffffffffffffffffff168152602001908152602001600020819055503373ffffffffffffffffffffffffffffffffffffffff167f338b5dea92b406e11ffb4934504fc21da82d56b24fb3a4f40a176da9186a0d47346040518082815260200191505060405180910390a2565b6000613d4d612bbc565b613dbf576040517f08c379a00000000000000000000000000000000000000000000000000000000081526004018080602001828103825260168152602001807f596f7520617265206e6f7420746865206f776e65722e0000000000000000000081525060200191505060405180910390fd5b6001600660008473ffffffffffffffffffffffffffffffffffffffff1673ffffffffffffffffffffffffffffffffffffffff16815260200190815260200160002060006101000a81548160ff02191690831515021790555060019050919050565b60006001806002811115613e3057fe5b600c60009054906101000a900460ff166002811115613e4b57fe5b14613e5557600080fd5b60001515600a600086815260200190815260200160002060003373ffffffffffffffffffffffffffffffffffffffff1673ffffffffffffffffffffffffffffffffffffffff16815260200190815260200160002060009054906101000a900460ff16151514613f2c576040517f08c379a00000000000000000000000000000000000000000000000000000000081526004018080602001828103825260178152602001807f596f75206861766520616c726561647920766f7465642e00000000000000000081525060200191505060405180910390fd5b6001600a600086815260200190815260200160002060003373ffffffffffffffffffffffffffffffffffffffff1673ffffffffffffffffffffffffffffffffffffffff16815260200190815260200160002060006101000a81548160ff021916908315150217905550600115158315151415613ff957600960003373ffffffffffffffffffffffffffffffffffffffff1673ffffffffffffffffffffffffffffffffffffffff168152602001908152602001600020600a016000815480929190600101919050555061404c565b600960003373ffffffffffffffffffffffffffffffffffffffff1673ffffffffffffffffffffffffffffffffffffffff168152602001908152602001600020600b01600081548092919060010191905055505b600960003373ffffffffffffffffffffffffffffffffffffffff1673ffffffffffffffffffffffffffffffffffffffff168152602001908152602001600020600c0160008154809291906001019190505550600191505092915050565b600960003373ffffffffffffffffffffffffffffffffffffffff1673ffffffffffffffffffffffffffffffffffffffff168152602001908152602001600020600101544211156140f857600080fd5b60008061410434614a6d565b8092508193505050600960003373ffffffffffffffffffffffffffffffffffffffff1673ffffffffffffffffffffffffffffffffffffffff1681526020019081526020016000206005015481111561415b57600080fd5b600960003373ffffffffffffffffffffffffffffffffffffffff1673ffffffffffffffffffffffffffffffffffffffff16815260200190815260200160002060060154341015806141ed5750600960003373ffffffffffffffffffffffffffffffffffffffff1673ffffffffffffffffffffffffffffffffffffffff1681526020019081526020016000206005015481145b6141f657600080fd5b614201828233614a87565b5050565b60066020528060005260406000206000915054906101000a900460ff1681565b61422d612bbc565b61429f576040517f08c379a00000000000000000000000000000000000000000000000000000000081526004018080602001828103825260168152602001807f596f7520617265206e6f7420746865206f776e65722e0000000000000000000081525060200191505060405180910390fd5b600073ffffffffffffffffffffffffffffffffffffffff168173ffffffffffffffffffffffffffffffffffffffff1614156142d957600080fd5b8073ffffffffffffffffffffffffffffffffffffffff167f8be0079c531659141344cd1fd0a4f28419497f9722a3daafe3b4186f6b6457e060008054906101000a900473ffffffffffffffffffffffffffffffffffffffff16604051808273ffffffffffffffffffffffffffffffffffffffff16815260200191505060405180910390a250565b6000600660008373ffffffffffffffffffffffffffffffffffffffff1673ffffffffffffffffffffffffffffffffffffffff16815260200190815260200160002060009054906101000a900460ff169050919050565b6000828211156143c257fe5b818303905092915050565b6000806000600260009054906101000a900473ffffffffffffffffffffffffffffffffffffffff1673ffffffffffffffffffffffffffffffffffffffff167329a99c126596c0dc96b02a88a9eaab44eccf511e604051602401808273ffffffffffffffffffffffffffffffffffffffff1681526020019150506040516020818303038152906040527f3ccc0522000000000000000000000000000000000000000000000000000000007bffffffffffffffffffffffffffffffffffffffffffffffffffffffff19166020820180517bffffffffffffffffffffffffffffffffffffffffffffffffffffffff83818316178352505050506040518082805190602001908083835b602083106144f657805182526020820191506020810190506020830392506144d3565b6001836020036101000a0380198251168184511680821785525050505050509050019150506000604051808303816000865af19150503d8060008114614558576040519150601f19603f3d011682016040523d82523d6000602084013e61455d565b606091505b509150915060011515821515146145dc576040517f08c379a000000000000000000000000000000000000000000000000000000000815260040180806020018281038252600e8152602001807f4f7261636c6520697320646f776e00000000000000000000000000000000000081525060200191505060405180910390fd5b60008180602001905160208110156145f357600080fd5b810190808051906020019092919050505090506000600e60003373ffffffffffffffffffffffffffffffffffffffff1673ffffffffffffffffffffffffffffffffffffffff16815260200190815260200160002060030154111561475557600061468c61468689600d60008b815260200190815260200160002060008a81526020019081526020016000205460646147d2565b836147e9565b905060006146dc600e60003373ffffffffffffffffffffffffffffffffffffffff1673ffffffffffffffffffffffffffffffffffffffff16815260200190815260200160002060030154836143b6565b9050600081141561473657600e60003373ffffffffffffffffffffffffffffffffffffffff1673ffffffffffffffffffffffffffffffffffffffff1681526020019081526020016000206003015495505050505050614794565b614742600f5482610bc1565b600f819055508195505050505050614794565b61478e61478888600d60008a815260200190815260200160002060008981526020019081526020016000205460646147d2565b826147e9565b93505050505b9392505050565b6000808314156147ae57600090506147cc565b60008284029050828482816147bf57fe5b04146147c757fe5b809150505b92915050565b600081838502816147df57fe5b0490509392505050565b6000808284816147f557fe5b0490508091505092915050565b6000811415614810576149bf565b61481984614cab565b15614990573373ffffffffffffffffffffffffffffffffffffffff168373ffffffffffffffffffffffffffffffffffffffff161480156148595750803410155b6148ae576040517f08c379a000000000000000000000000000000000000000000000000000000000815260040180806020018281038252602b8152602001806153ea602b913960400191505060405180910390fd5b3073ffffffffffffffffffffffffffffffffffffffff168273ffffffffffffffffffffffffffffffffffffffff1614614929578173ffffffffffffffffffffffffffffffffffffffff166108fc829081150290604051600060405180830381858888f19350505050158015614927573d6000803e3d6000fd5b505b8034111561498b573373ffffffffffffffffffffffffffffffffffffffff166108fc61495e83346143b690919063ffffffff16565b9081150290604051600060405180830381858888f19350505050158015614989573d6000803e3d6000fd5b505b6149be565b6149bd8383838773ffffffffffffffffffffffffffffffffffffffff16614d2d909392919063ffffffff16565b5b5b50505050565b6000808214156149d85760019050614a66565b6149e184614cab565b15614a36578273ffffffffffffffffffffffffffffffffffffffff166108fc839081150290604051600060405180830381858888f19350505050158015614a2c573d6000803e3d6000fd5b5060019050614a66565b614a6183838673ffffffffffffffffffffffffffffffffffffffff16614dee9092919063ffffffff16565b600190505b9392505050565b60008081831015614a7d57600080fd5b8183039050915091565b600073ffffffffffffffffffffffffffffffffffffffff168173ffffffffffffffffffffffffffffffffffffffff161415614bb3576000614ac9838501614e90565b905082600960003373ffffffffffffffffffffffffffffffffffffffff1673ffffffffffffffffffffffffffffffffffffffff16815260200190815260200160002060050160008282540392505081905550600960003373ffffffffffffffffffffffffffffffffffffffff1673ffffffffffffffffffffffffffffffffffffffff16815260200190815260200160002060040154600960003373ffffffffffffffffffffffffffffffffffffffff1673ffffffffffffffffffffffffffffffffffffffff1681526020019081526020016000206001016000828254019250508190555050614ca6565b6000614bc0838501614e90565b905082600960003373ffffffffffffffffffffffffffffffffffffffff1673ffffffffffffffffffffffffffffffffffffffff16815260200190815260200160002060050160008282540392505081905550600960003373ffffffffffffffffffffffffffffffffffffffff1673ffffffffffffffffffffffffffffffffffffffff16815260200190815260200160002060040154600960003373ffffffffffffffffffffffffffffffffffffffff1673ffffffffffffffffffffffffffffffffffffffff16815260200190815260200160002060010160008282540192505081905550505b505050565b60008073ffffffffffffffffffffffffffffffffffffffff168273ffffffffffffffffffffffffffffffffffffffff161480614d26575073eeeeeeeeeeeeeeeeeeeeeeeeeeeeeeeeeeeeeeee73ffffffffffffffffffffffffffffffffffffffff168273ffffffffffffffffffffffffffffffffffffffff16145b9050919050565b614de8846323b872dd60e01b858585604051602401808473ffffffffffffffffffffffffffffffffffffffff1681526020018373ffffffffffffffffffffffffffffffffffffffff1681526020018281526020019350505050604051602081830303815290604052907bffffffffffffffffffffffffffffffffffffffffffffffffffffffff19166020820180517bffffffffffffffffffffffffffffffffffffffffffffffffffffffff8381831617835250505050614fee565b50505050565b614e8b8363a9059cbb60e01b8484604051602401808373ffffffffffffffffffffffffffffffffffffffff16815260200182815260200192505050604051602081830303815290604052907bffffffffffffffffffffffffffffffffffffffffffffffffffffffff19166020820180517bffffffffffffffffffffffffffffffffffffffffffffffffffffffff8381831617835250505050614fee565b505050565b60008082600960003373ffffffffffffffffffffffffffffffffffffffff1673ffffffffffffffffffffffffffffffffffffffff1681526020019081526020016000206007015402905082600960003373ffffffffffffffffffffffffffffffffffffffff1673ffffffffffffffffffffffffffffffffffffffff168152602001908152602001600020600701548281614f2657fe5b0414614f9a576040517f08c379a00000000000000000000000000000000000000000000000000000000081526004018080602001828103825260178152602001807f7061796d656e7420636175736573206f766572666c6f7700000000000000000081525060200191505060405180910390fd5b600960003373ffffffffffffffffffffffffffffffffffffffff1673ffffffffffffffffffffffffffffffffffffffff168152602001908152602001600020600601548181614fe557fe5b04915050919050565b6000615050826040518060400160405280602081526020017f5361666545524332303a206c6f772d6c6576656c2063616c6c206661696c65648152508573ffffffffffffffffffffffffffffffffffffffff166150dd9092919063ffffffff16565b90506000815111156150d85780806020019051602081101561507157600080fd5b81019080805190602001909291905050506150d7576040517f08c379a000000000000000000000000000000000000000000000000000000000815260040180806020018281038252602a815260200180615438602a913960400191505060405180910390fd5b5b505050565b60606150ec84846000856150f5565b90509392505050565b606082471015615150576040517f08c379a00000000000000000000000000000000000000000000000000000000081526004018080602001828103825260268152602001806153a06026913960400191505060405180910390fd5b6151598561529d565b6151cb576040517f08c379a000000000000000000000000000000000000000000000000000000000815260040180806020018281038252601d8152602001807f416464726573733a2063616c6c20746f206e6f6e2d636f6e747261637400000081525060200191505060405180910390fd5b6000808673ffffffffffffffffffffffffffffffffffffffff1685876040518082805190602001908083835b6020831061521a57805182526020820191506020810190506020830392506151f7565b6001836020036101000a03801982511681845116808217855250505050505090500191505060006040518083038185875af1925050503d806000811461527c576040519150601f19603f3d011682016040523d82523d6000602084013e615281565b606091505b50915091506152918282866152b0565b92505050949350505050565b600080823b905060008111915050919050565b606083156152c057829050615375565b6000835111156152d35782518084602001fd5b816040517f08c379a00000000000000000000000000000000000000000000000000000000081526004018080602001828103825283818151815260200191508051906020019080838360005b8381101561533a57808201518184015260208101905061531f565b50505050905090810190601f1680156153675780820380516001836020036101000a031916815260200191505b509250505060405180910390fd5b939250505056fe4368726f6d69756d20646f65736e2774206861766520656e6f75676820746f6b656e73416464726573733a20696e73756666696369656e742062616c616e636520666f722063616c6c576974686472617720616d6f756e742063616e6e6f7420626520657175616c20746f203057726f6e6720757365616765206f66204554482e756e6976657273616c5472616e7366657246726f6d28294572726f722c206465706f736974206d757374206265203e3d20302e303135204554485361666545524332303a204552433230206f7065726174696f6e20646964206e6f742073756363656564776974686472617720616d6f756e742063616e6e6f7420626520657175616c20746f2030a26469706673582212203d988077aca56e18fc3c589a06941a7e310bb7b7708716956a4c5d0e39ba9a0a64736f6c63430007060033",
  "immutableReferences": {},
  "source": "pragma solidity >=0.4.22 <0.9.0;\n\nimport \"./interfaces/Ownable.sol\";\nimport \"./interfaces/IERC20.sol\";\nimport \"./interfaces/SafeMath.sol\";\nimport \"./interfaces/UniversalERC20.sol\";\nimport \"./Chromium.sol\";\n\ncontract Bank is Ownable {\n    using UniversalERC20 for IERC20;\n\n    /**\n     * @dev modifier so that chromium can withdraw cblt form bank\n     */\n    modifier onlyChromium() {\n        require(msg.sender == chromiumAddress);\n        _;\n    }\n    /**\n     * @dev storing CBLT token in ERC20 type\n     */\n    IERC20 token;\n\n    /**\n     * @dev CobaltLend oracle for scoring and CBLT price\n     */\n    address oracleAddress;\n\n    /**\n     * @dev chromium address for modifier\n     */\n    address chromiumAddress;\n    Chromium chromium;\n\n    constructor(\n        address[] memory addresses,\n        address _CBLT,\n        address _oracle\n    ) {\n        for (uint256 i = 0; i < addresses.length; i++) {\n            tokensAllowed[addresses[i]] = true;\n        }\n        oracleAddress = _oracle;\n        token = IERC20(_CBLT);\n        // Staking percentages based on deposit time and amount\n        stakingRewardRate[1][1] = 5;\n        stakingRewardRate[1][2] = 6;\n        stakingRewardRate[1][3] = 7;\n        stakingRewardRate[1][4] = 8;\n        stakingRewardRate[1][5] = 9;\n        //\n        stakingRewardRate[2][1] = 6;\n        stakingRewardRate[2][2] = 7;\n        stakingRewardRate[2][3] = 8;\n        stakingRewardRate[2][4] = 9;\n        stakingRewardRate[2][5] = 10;\n        //\n        stakingRewardRate[3][1] = 7;\n        stakingRewardRate[3][2] = 8;\n        stakingRewardRate[3][3] = 9;\n        stakingRewardRate[3][4] = 10;\n        stakingRewardRate[3][5] = 14;\n        //\n        stakingRewardRate[4][1] = 9;\n        stakingRewardRate[4][2] = 11;\n        stakingRewardRate[4][3] = 13;\n        stakingRewardRate[4][4] = 15;\n        stakingRewardRate[4][5] = 17;\n        //\n        stakingRewardRate[5][1] = 10;\n        stakingRewardRate[5][2] = 13;\n        stakingRewardRate[5][3] = 16;\n        stakingRewardRate[5][4] = 19;\n        stakingRewardRate[5][5] = 20;\n    }\n\n    /**\n     * @dev Events emitted\n     */\n    event onReceived(address indexed _from, uint256 _amount);\n    event onTransfer(\n        address indexed _from,\n        address indexed _to,\n        uint256 _amount\n    );\n    event depositToken(address indexed _from, uint256 _amount);\n\n    /**\n     * @dev a list for each token and each user that has deposited some of that\n     * token into the bank\n     */\n    mapping(address => mapping(address => uint256)) public tokenOwnerBalance;\n    /**\n     * @dev a list of all supported tokens\n     */\n    mapping(address => bool) public tokensAllowed;\n    /**\n     * @dev a ledger of the amount of each token in the bank\n     */\n    mapping(address => uint256) public _tokenSupply;\n\n    /**\n     * @dev a ledger of the amount of each token in the bank\n     */\n    mapping(address => uint256) public etherBalance;\n\n    /**\n     * @dev sets the chromium address\n     */\n    function setChromium(address payable _chromium) public onlyOwner {\n        chromiumAddress = _chromium;\n        chromium = Chromium(_chromium);\n    }\n\n    /**\n     * @dev allows for CBLT Tokens to be withdrawn from treasury\n     * by chromium\n     */\n    function withdrawCbltForExchange(\n        IERC20 fromToken,\n        IERC20 cbltToken,\n        address to,\n        uint256 amount,\n        uint256 minReturn\n    ) public payable onlyChromium {\n        require(\n            amount <= totalTokenSupply(address(cbltToken)),\n            \"Not enough cblt tokens\"\n        );\n        require(amount != 0, \"withdraw amount cannot be equal to 0\");\n\n        fromToken.universalTransferFrom(msg.sender, address(this), amount);\n        _tokenSupply[address(fromToken)] = SafeMath.add(\n            _tokenSupply[address(fromToken)],\n            amount\n        );\n        tokenOwnerBalance[address(fromToken)][chromiumAddress] = SafeMath.add(\n            tokenOwnerBalance[address(fromToken)][chromiumAddress],\n            amount\n        );\n\n        require(\n            cbltToken.universalTransfer(to, minReturn),\n            \"Transaction failed to send.\"\n        );\n        _tokenSupply[address(cbltToken)] = SafeMath.sub(\n            _tokenSupply[address(cbltToken)],\n            minReturn\n        );\n    }\n\n    /**\n     * @dev method that will withdraw tokens from the bank if the caller\n     * has tokens in the bank\n     */\n    function withdrawTokens(address _tokenAddress, uint256 _amount) external {\n        //Check if token is not supported by bank\n        require(tokensAllowed[_tokenAddress] == true, \"Token is not supported\");\n        // Is the user trying to withdraw more tokens than he has in balance?\n        require(_amount <= tokenOwnerBalance[_tokenAddress][msg.sender]);\n        // Withdraw cannot be equal to zero\n        require(_amount != 0, \"Withdraw amount cannot be equal to 0\");\n\n        token = IERC20(address(_tokenAddress));\n\n        _tokenSupply[_tokenAddress] = SafeMath.sub(\n            _tokenSupply[_tokenAddress],\n            _amount\n        );\n        tokenOwnerBalance[_tokenAddress][msg.sender] = SafeMath.sub(\n            tokenOwnerBalance[_tokenAddress][msg.sender],\n            _amount\n        );\n\n        require(\n            token.transfer(msg.sender, _amount) == true,\n            \"Transfer not complete\"\n        );\n        emit onTransfer(msg.sender, address(0), _amount);\n    }\n\n    /**\n     * @dev method to withdraw eth from account\n     */\n    function withdraw(uint256 _amount) external {\n        require(_amount <= etherBalance[msg.sender]);\n        require(_amount != 0, \"Withdraw amount cannot be equal to 0\");\n\n        etherBalance[msg.sender] = SafeMath.sub(\n            etherBalance[msg.sender],\n            _amount\n        );\n\n        payable(msg.sender).transfer(_amount);\n\n        emit onTransfer(msg.sender, address(0), _amount);\n    }\n\n    /**\n     * @dev method to deposit eth into the bank\n     */\n    function deposit() external payable {\n        etherBalance[msg.sender] = SafeMath.add(\n            etherBalance[msg.sender],\n            msg.value\n        );\n\n        emit depositToken(msg.sender, msg.value);\n    }\n\n    /**\n     * @dev function that will add a token to the list of supported tokens\n     */\n    function addToken(address _tokenAddress) external onlyOwner returns (bool) {\n        tokensAllowed[_tokenAddress] = true;\n        return true;\n    }\n\n    /**\n     * @dev function that will remove token from list of supported tokens\n     */\n    function removeToken(address _tokenAddress)\n        external\n        onlyOwner\n        returns (bool)\n    {\n        delete (tokensAllowed[_tokenAddress]);\n        return true;\n    }\n\n    /**\n     * @dev allows for chromium contract to see which tokens\n     * are allowed to be deposited into treasury\n     */\n    function isTokenAllowed(address _token) public view returns (bool) {\n        return tokensAllowed[_token];\n    }\n\n    /**\n     * @dev method that will show the total amount of tokens in the bank for\n     */\n    function totalTokenSupply(address _tokenAddress)\n        public\n        view\n        returns (uint256)\n    {\n        return _tokenSupply[_tokenAddress];\n    }\n\n    function balanceOfToken(address _tokenAddress)\n        public\n        view\n        returns (uint256)\n    {\n        return tokenOwnerBalance[_tokenAddress][msg.sender];\n    }\n\n    /**\n     * @dev fallback function to receive any eth sent to this contract\n     */\n    receive() external payable {\n        etherBalance[address(this)] = SafeMath.add(\n            etherBalance[address(this)],\n            msg.value\n        );\n        emit onReceived(msg.sender, msg.value);\n    }\n\n    function swapTokensForCblt(\n        IERC20 fromToken,\n        IERC20 destToken,\n        uint256 amount,\n        uint256 minReturn,\n        uint256[] memory distribution,\n        uint256 flags\n    ) external payable onlyOwner {\n        require(\n            minReturn <= tokenOwnerBalance[address(destToken)][chromiumAddress],\n            \"Chromium doesn't have enough tokens\"\n        );\n\n        tokenOwnerBalance[address(fromToken)][chromiumAddress] = SafeMath.sub(\n            tokenOwnerBalance[address(fromToken)][chromiumAddress],\n            amount\n        );\n        _tokenSupply[address(fromToken)] = SafeMath.sub(\n            _tokenSupply[address(fromToken)],\n            amount\n        );\n\n        uint256 returnAmount =\n            chromium.swap{value: msg.value}(\n                fromToken,\n                destToken,\n                amount,\n                minReturn,\n                distribution,\n                flags\n            );\n\n        tokenOwnerBalance[address(destToken)][chromiumAddress] = SafeMath.add(\n            tokenOwnerBalance[address(destToken)][chromiumAddress],\n            returnAmount\n        );\n        _tokenSupply[address(destToken)] = SafeMath.add(\n            _tokenSupply[address(destToken)],\n            returnAmount\n        );\n    }\n\n    // ****************************** Lending **********************************\n\n    /**\n     * @dev mapping used to store all loan information with the key of borrower address\n     *  and value of Loan struct with all loan information\n     */\n    mapping(address => Loan) loanBook;\n\n    /**\n     * @dev Struct used to store decimal values\n     */\n    struct Rational {\n        uint256 numerator;\n        uint256 denominator;\n    }\n\n    /**\n     * @dev Struct created so save all loan information\n     */\n    struct Loan {\n        address borrower; // Address of wallet\n        uint256 dueDate; // Time of contract ending\n        Rational interestRate; // Interest rate for loan\n        uint256 paymentPeriod; // Epoch in months\n        uint256 remainingBalance; // Remaining balance\n        uint256 minimumPayment; // MinimumPayment\n        uint256 collateralPerPayment; // CollateralPerPayment\n        bool active; // Is the current loan active (Voted yes)\n        bool initialized; // Does the borrower have a current loan application\n        uint256 timeCreated; // Time of loan application also epoch in days\n        uint256 yes; // Amount of votes for yes\n        uint256 no; // Amount of votes for no\n        uint256 totalVote; // Total amount determined by tier\n        uint256 tier; // Tier based on amount intended to be borrowed\n    }\n\n    /**\n     * @dev Recalculates interest and also conducts check and balances\n     */\n\n    function newLoan(\n        uint256 _paymentPeriod,\n        uint256 _minimumPayment, // NEEDS TO BE CALCULATED\n        uint256 principal\n    ) public payable {\n        // Needs user approve on transfer funds amount\n        // token.approve(address(this), _minimumPayment);\n        // loanbook[msg.sender] -> loanbook[uint signature]\n\n        uint256 riskScore = 20; // NFT ENTRY!!!!!!\n        uint256 riskFactor = 15; // NFT ENTRY!!!!\n        uint256 numerator = 2; // NFT ENTRY!!!!\n        uint256 denominator = 10; // NFT ENTRY!!!!\n\n        // Pulling prices from Oracle\n        (bool result, bytes memory data) =\n            oracleAddress.call(\n                abi.encodeWithSignature(\n                    \"getValue(address)\",\n                    0x29a99c126596c0Dc96b02A88a9EAab44EcCf511e\n                )\n            );\n\n        // Check if oracle is functional\n        require(result == true, \"Oracle is down\");\n\n        uint256 tokenPrice = abi.decode(data, (uint256));\n\n        // Calculate collateral in CBLT based on principal, riskScore and riskFactor\n        uint256 collateralInCBLT =\n            SafeMath.div(\n                SafeMath.multiply(\n                    SafeMath.mul(riskScore, riskFactor),\n                    principal,\n                    1000\n                ),\n                tokenPrice\n            );\n\n        // Payment in\n        uint256 paymentPeriodInMonths = SafeMath.div(_paymentPeriod, 2629743);\n\n        uint256 collateralPerPayment =\n            SafeMath.div(collateralInCBLT, paymentPeriodInMonths);\n\n        require(loanBook[msg.sender].initialized == false);\n\n        require(\n            token.transferFrom(msg.sender, address(this), collateralInCBLT) ==\n                true,\n            \"Payment was not approved.\"\n        );\n\n        loanBook[msg.sender] = Loan(\n            msg.sender,\n            (block.timestamp + _paymentPeriod),\n            Rational(numerator, denominator),\n            _paymentPeriod,\n            principal,\n            _minimumPayment, // Needs to be calculated!!!!!!\n            collateralPerPayment,\n            false,\n            true,\n            block.timestamp,\n            0,\n            0,\n            0,\n            0\n        );\n\n        uint256 timeCreated; // Time of loan application\n        uint256 yes; // Amount of votes for yes\n        uint256 no; // Amount of votes for no\n        uint256 totalVote; // Total amount determined by tier\n        uint256 tier; // Tier based on amount intended to be borrowed\n\n        // uint256 x = _minimumPayment * units; // NEEDS TO BE WORKED AT NIGTHT!!!!!!!!\n        // require(\n        //     x / units == _minimumPayment,\n        //     \"minimumPayment * collateralPerPayment overflows\"\n        // );\n    }\n\n    /**\n    function tallyVotes() public {}\n\n    /**\n     * @dev Prevents overflows\n     *\n     */\n    function multiplyDecimal(uint256 x, Rational memory r)\n        internal\n        pure\n        returns (uint256)\n    {\n        return (x * r.numerator) / r.denominator;\n    }\n\n    /**\n     * @dev Recalculates interest and also conducts check and balances\n     *\n     */\n    function calculateComponents(uint256 amount)\n        internal\n        view\n        returns (uint256 interest, uint256 principal)\n    {\n        // interest = multiply(\n        //     loanBook[msg.sender].remainingBalance,\n        //     loanBook[msg.sender].interestRate\n        // );\n        require(amount >= interest);\n        principal = amount - interest;\n        return (interest, principal);\n    }\n\n    /**\n     * @dev he loan is parameterized with collateralPerPayment,\n     *which represents the amount of collateral that will be returned\n     * or forfeited based on a minimumPayment. If the borrower pays an\n     *amount different than the minimum, the amount of collateral returned\n     * is adjusted proportionally.\n     *\n     */\n    function calculateCollateral(uint256 payment)\n        internal\n        view\n        returns (uint256 units)\n    {\n        uint256 product = loanBook[msg.sender].collateralPerPayment * payment;\n        require(\n            product / loanBook[msg.sender].collateralPerPayment == payment,\n            \"payment causes overflow\"\n        );\n        units = product / loanBook[msg.sender].minimumPayment;\n        return units;\n    }\n\n    /**\n     * @dev a symmetry between accepting loan payments and handling missed payments.\n     * In both cases, there is an adjustment to the remaining principal balance and a\n     * corresponding transfer of tokens. The only difference is that the tokens are\n     * returned to the borrower after a payment, but they are forfeited to the lender\n     * after a missed payment\n     *\n     *Additional Note: the code above does the token transfer last, which follows the\n     * Checks-Effects-Interactions pattern to avoid potential reentrancy vulnerabilities\n     */\n    function processPeriod(\n        uint256 interest,\n        uint256 principal,\n        address recipient\n    ) internal {\n        if (recipient == 0x0000000000000000000000000000000000000000) {\n            uint256 units = calculateCollateral(interest + principal);\n\n            loanBook[msg.sender].remainingBalance -= principal;\n\n            loanBook[msg.sender].dueDate += loanBook[msg.sender].paymentPeriod;\n        } else {\n            uint256 units = calculateCollateral(interest + principal);\n\n            loanBook[msg.sender].remainingBalance -= principal;\n\n            loanBook[msg.sender].dueDate += loanBook[msg.sender].paymentPeriod;\n        }\n    }\n\n    /**\n     * @dev Function for the user to make a payment with ETH\n     *\n     */\n    function makePayment() public payable {\n        require(block.timestamp <= loanBook[msg.sender].dueDate);\n\n        uint256 interest;\n        uint256 principal;\n        (interest, principal) = calculateComponents(msg.value);\n\n        require(principal <= loanBook[msg.sender].remainingBalance);\n        require(\n            msg.value >= loanBook[msg.sender].minimumPayment ||\n                principal == loanBook[msg.sender].remainingBalance\n        );\n\n        processPeriod(interest, principal, msg.sender);\n    }\n\n    /**\n     * @dev  computes the principal component of the missed payment.\n     * This assumes the payment was the minimum amount, which is true\n     * for all but, possibly, the last payment. The conditional handles\n     * the boundary condition when the principal remaining is less than\n     * the principal component of a minimum payment.\n     *\n     */\n    function missedPayment() public {\n        require(block.timestamp > loanBook[msg.sender].dueDate);\n\n        uint256 interest;\n        uint256 principal;\n        (interest, principal) = calculateComponents(\n            loanBook[msg.sender].minimumPayment\n        );\n\n        if (principal > loanBook[msg.sender].remainingBalance) {\n            principal = loanBook[msg.sender].remainingBalance;\n        }\n\n        processPeriod(\n            interest,\n            principal,\n            0x0000000000000000000000000000000000000000\n        );\n    }\n\n    /**\n     * @dev  smart contract allows borrowers to pay more than the minimum,\n     * which will ultimately lead to less total paid because of avoided interest.\n     * If used, this feature will lead to excess collateral owned by the loan contract\n     * after its been fully paid off. This collateral belongs to the borrower.\n     * The simplest way to handle that is to allow excess tokens to be claimed when the remainingBalance is zero:\n     *\n     */\n\n    function returnCollateral() public {\n        require(loanBook[msg.sender].remainingBalance == 0);\n\n        uint256 amount = token.balanceOf(address(this));\n        require(token.transfer(msg.sender, amount));\n    }\n\n    /**\n     * @dev Deletes loan instance once the user has paid his first loan in full\n     */\n    function cleanSlate() public {\n        require(loanBook[msg.sender].remainingBalance == 0);\n        delete loanBook[msg.sender];\n    }\n\n    // **************************** Voting *******************************\n\n    mapping(uint256 => mapping(address => bool)) voteBook; // Signature key => mapping( voters => voted)\n\n    mapping(uint256 => address[]) uintArray;\n\n    // User tries to vote\n    // Contract checks if they have sufficient funds in CBLT tokens - Tiers\n    // Function checks if 7 days have passsed since loan first went into voting\n    // Function checks if loan array has a length <= tier max\n    // Voter casts votes\n    // Vote gets added to counter to yes or no in loan\n    // msg.sender is added to uintArray - Access with the unique signature for each loan\n    // Validate loan checking if enough votes have been casted. 21% of the votes\n    // Check if majority of the votes say yes or no\n    // Change loan status depending on how voting went\n    // Give second wind to the loan depending on if its the first time\n    // Reset voting but keep voters inside\n\n    enum State {Created, Voting, Ended}\n    State public state;\n\n    modifier inState(State _state) {\n        require(state == _state);\n        _;\n    }\n\n    /**\n     * @dev creating function the right to vote\n     * if a person holds a certain amount of CBLT\n     * they can for tier 1\n     *\n     */\n    function rightToVoteTiers(address loanSignature) internal view {\n        uint256 balanceInCBLT =\n            SafeMath.add(\n                token.balanceOf(msg.sender),\n                userBook[msg.sender].rewardWallet\n            );\n\n        // PULL FROM ORACLE // ORACLE ENTRY!!!!!\n        uint256 USDtoCBLT =\n            SafeMath.div(\n                1000000000000000000,\n                SafeMath.mul(2000000000000, 2843)\n            );\n\n        if (loanBook[loanSignature].tier == 1) {\n            require(balanceInCBLT >= SafeMath.mul(100, USDtoCBLT));\n            require(loanBook[loanSignature].totalVote == 100);\n        } else if (loanBook[loanSignature].tier == 2) {\n            require(balanceInCBLT >= SafeMath.mul(10000, USDtoCBLT));\n            require(loanBook[loanSignature].totalVote == 200);\n        } else if (loanBook[loanSignature].tier == 3) {\n            require(balanceInCBLT >= SafeMath.mul(50000, USDtoCBLT));\n            require(loanBook[loanSignature].totalVote == 400);\n        } else if (loanBook[loanSignature].tier == 4) {\n            require(balanceInCBLT >= SafeMath.mul(100000, USDtoCBLT));\n            require(loanBook[loanSignature].totalVote == 800);\n        } else if (loanBook[loanSignature].tier == 5) {\n            require(balanceInCBLT >= SafeMath.mul(250000, USDtoCBLT));\n            require(loanBook[loanSignature].totalVote == 1600);\n        }\n    }\n\n    /**\n     * @dev starts the voting process\n     *\n     */\n    function startVote() internal inState(State.Created) {\n        state = State.Voting;\n    }\n\n    /**\n     * @dev DOES the vote takes in the voter choice\n     *\n     */\n\n    function doVote(uint256 _signature, bool _vote)\n        public\n        inState(State.Voting)\n        returns (bool voted)\n    {\n        // bool found = false;\n        require(\n            voteBook[_signature][msg.sender] == false,\n            \"You have already voted.\"\n        );\n\n        voteBook[_signature][msg.sender] = true;\n\n        if (_vote == true) {\n            loanBook[msg.sender].yes++;\n        } else {\n            loanBook[msg.sender].no++;\n        }\n        loanBook[msg.sender].totalVote++;\n\n        return true;\n    }\n\n    /**\n     * @dev Ends the voting\n     *\n     */\n\n    function endVote() internal inState(State.Voting) {\n        // the  1619656173 represents 7 days in epoch and must be less then 7 days\n        uint256 weekOfEpoch = 1619656173;\n\n        // in which it requires at least 50% of the voters to past\n        // will not use multiple ifs for tiers to save on gas\n        if (loanBook[msg.sender].timeCreated <= weekOfEpoch) {\n            require(\n                SafeMath.multiply(loanBook[msg.sender].totalVote, 50, 100) >= 50\n            );\n            require(\n                SafeMath.multiply(loanBook[msg.sender].totalVote, 50, 200) >= 50\n            );\n            require(\n                SafeMath.multiply(loanBook[msg.sender].totalVote, 50, 400) >= 50\n            );\n            require(\n                SafeMath.multiply(loanBook[msg.sender].totalVote, 50, 800) >= 50\n            );\n            require(\n                SafeMath.multiply(loanBook[msg.sender].totalVote, 50, 1600) >=\n                    50\n            );\n\n            state = State.Ended;\n        } else {\n            state = State.Ended;\n        }\n    }\n\n    //How to give voters another chance if the someone did not vote needs to be added\n    // in\n\n    // if voting is past 7 days then loan ends. Must take 21 votes\n\n    // **************************** Staking *******************************\n\n    mapping(uint256 => mapping(uint256 => uint256)) stakingRewardRate;\n\n    mapping(address => User) userBook;\n\n    uint256 CBLTReserve = 100000000000000000000000000000000000;\n\n    struct User {\n        uint256 depositTime;\n        uint256 rewardWallet;\n        uint256 ethBalance;\n        uint256 cbltReserved;\n        uint256 timeStakedTier;\n        uint256 ethStaked;\n    }\n\n    function calculateReward(\n        uint256 _amount,\n        uint256 _timeStakedTier,\n        uint256 _amountStakedTier\n    ) internal returns (uint256) {\n        // uint256 tokenPrice = 2000000000000;\n        // Pull token price from oracle\n        (bool result, bytes memory data) =\n            oracleAddress.call(\n                abi.encodeWithSignature(\n                    \"getValue(address)\",\n                    0x29a99c126596c0Dc96b02A88a9EAab44EcCf511e\n                )\n            );\n        require(result == true, \"Oracle is down\");\n\n        // Decode bytes data\n        uint256 tokenPrice = abi.decode(data, (uint256));\n\n        if (userBook[msg.sender].cbltReserved > 0) {\n            // Calculate the new amount of cblt reserved for user at current market price\n            uint256 newReserved =\n                SafeMath.div(\n                    SafeMath.multiply(\n                        _amount,\n                        stakingRewardRate[_timeStakedTier][_amountStakedTier],\n                        100\n                    ),\n                    tokenPrice\n                );\n            // Calculate the difference between new and old amount\n            uint256 cbltDifference =\n                SafeMath.sub(userBook[msg.sender].cbltReserved, newReserved);\n\n            if (cbltDifference == 0) {\n                return userBook[msg.sender].cbltReserved;\n            } else {\n                // Add lefover cblt tokens back into treasury\n                CBLTReserve = SafeMath.add(CBLTReserve, cbltDifference);\n                // Return the new staking reward\n                return newReserved;\n            }\n        } else {\n            return\n                SafeMath.div(\n                    SafeMath.multiply(\n                        _amount,\n                        stakingRewardRate[_timeStakedTier][_amountStakedTier],\n                        100\n                    ),\n                    tokenPrice\n                );\n        }\n    }\n\n    function depositEth(uint256 _timeStakedTier) public payable {\n        // Check the amountStakedTier based on deposit\n        uint256 _amountStakedTier;\n\n        if (msg.value <= 4e17) {\n            _amountStakedTier = 1;\n        } else if (msg.value <= 2e18) {\n            _amountStakedTier = 2;\n        } else if (msg.value <= 5e18) {\n            _amountStakedTier = 3;\n        } else if (msg.value <= 25e18) {\n            _amountStakedTier = 4;\n        } else {\n            _amountStakedTier = 5;\n        }\n\n        userBook[msg.sender].ethStaked = _amountStakedTier; // TESTING GET RID OFF!!!!!!!!\n\n        // Minimum deposit of 0.015 ETH\n        require(msg.value >= 15e16, \"Error, deposit must be >= 0.015 ETH\");\n\n        // Checks the amount of CBLT tokens that need to be reserved\n        uint256 cbltReserved =\n            calculateReward(msg.value, _timeStakedTier, _amountStakedTier);\n\n        // Treasury must have that amount open\n        require(cbltReserved <= CBLTReserve, \"Treasury is currently depleted\");\n\n        // Substract CBLT tokens reserved for stake from treasury\n        CBLTReserve = SafeMath.sub(CBLTReserve, cbltReserved);\n\n        // Saves the amount of CBLT tokens reserved in user struct\n        userBook[msg.sender].cbltReserved = SafeMath.add(\n            userBook[msg.sender].cbltReserved,\n            cbltReserved\n        );\n\n        // Save information on the time tier\n        userBook[msg.sender].timeStakedTier = _timeStakedTier;\n\n        // Save new eth deposit in user account\n        userBook[msg.sender].ethBalance = SafeMath.add(\n            userBook[msg.sender].ethBalance,\n            msg.value\n        );\n\n        // Change the time of deposit\n        userBook[msg.sender].depositTime = block.timestamp;\n\n        emit onReceived(msg.sender, msg.value);\n    }\n\n    function withdrawEth(uint256 _amount) public {\n        // Calulate how many months since first staked\n\n        uint256 monthsAfterDeposit =\n            SafeMath.div(\n                SafeMath.sub(block.timestamp, userBook[msg.sender].depositTime),\n                2629743\n            );\n\n        // Make sure user staked for at least 1 month\n        require(monthsAfterDeposit >= 1, \"Wait 30 days to withdraw\");\n\n        uint256 _amountStakedTier;\n\n        uint256 userBalance = userBook[msg.sender].ethBalance;\n\n        if (userBalance <= 4e17) {\n            _amountStakedTier = 5;\n        } else if (userBalance <= 2e18) {\n            _amountStakedTier = 4;\n        } else if (userBalance <= 5e18) {\n            _amountStakedTier = 3;\n        } else if (userBalance <= 25e18) {\n            _amountStakedTier = 2;\n        } else {\n            _amountStakedTier = 1;\n        }\n\n        uint256 stakedPeriodMonths;\n\n        if (userBook[msg.sender].timeStakedTier == 1) {\n            stakedPeriodMonths = 1;\n        } else if (userBook[msg.sender].timeStakedTier == 2) {\n            stakedPeriodMonths = 2;\n        } else if (userBook[msg.sender].timeStakedTier == 3) {\n            stakedPeriodMonths = 3;\n        } else if (userBook[msg.sender].timeStakedTier == 4) {\n            stakedPeriodMonths = 6;\n        } else {\n            stakedPeriodMonths = 12;\n        }\n\n        // Recalculate total CBLT tokens based on current token value\n        uint256 stakingReward =\n            calculateReward(\n                userBook[msg.sender].ethBalance,\n                userBook[msg.sender].timeStakedTier,\n                _amountStakedTier\n            );\n        // Calculate staking reward based on months staked\n        uint256 monthBasedReward =\n            SafeMath.multiply(\n                stakingReward,\n                monthsAfterDeposit,\n                stakedPeriodMonths\n            );\n\n        // Save reward in wallet\n        userBook[msg.sender].rewardWallet = SafeMath.add(\n            userBook[msg.sender].rewardWallet,\n            stakingReward\n        );\n\n        userBook[msg.sender].cbltReserved = 0;\n\n        // Substract eth from user account\n        userBook[msg.sender].ethBalance = SafeMath.sub(\n            userBook[msg.sender].ethBalance,\n            _amount\n        );\n        // Change the latest time of deposit\n        userBook[msg.sender].depositTime = block.timestamp;\n\n        payable(msg.sender).transfer(_amount);\n    }\n\n    function testUserData()\n        public\n        view\n        returns (\n            uint256,\n            uint256,\n            uint256,\n            uint256,\n            uint256\n        )\n    {\n        return (\n            userBook[msg.sender].ethBalance,\n            userBook[msg.sender].depositTime,\n            userBook[msg.sender].cbltReserved,\n            userBook[msg.sender].timeStakedTier,\n            userBook[msg.sender].ethStaked\n        );\n    }\n\n    function withdrawStaking(uint256 _amount) public payable {\n        // Pull token price from oracle\n        (bool call1, bytes memory tokenPriceEncoded) =\n            oracleAddress.call(\n                abi.encodeWithSignature(\n                    \"getValue(address)\",\n                    0x29a99c126596c0Dc96b02A88a9EAab44EcCf511e\n                )\n            );\n        require(call1 == true, \"Oracle is down.\");\n\n        // Pull ETH price in USD\n        (bool call2, bytes memory ethPriceUSD) =\n            oracleAddress.call(abi.encodeWithSignature(\"getETHinUSD()\"));\n\n        require(call2 == true, \"Oracle is down.\");\n\n        // Decode bytes data\n        uint256 tokenPrice = abi.decode(tokenPriceEncoded, (uint256));\n        uint256 ETHinUSD = abi.decode(ethPriceUSD, (uint256));\n\n        uint256 USDtoCBLT =\n            SafeMath.div(\n                100000000000000000000,\n                SafeMath.mul(tokenPrice, ETHinUSD) // A and B coming from oracle\n            );\n\n        require(\n            userBook[msg.sender].rewardWallet >= SafeMath.mul(USDtoCBLT, 50),\n            \"Reward wallet does not have 50$\"\n        );\n\n        userBook[msg.sender].rewardWallet = 0;\n\n        token.universalTransferFrom(address(this), msg.sender, _amount);\n    }\n    // Voting\n    // Lending\n    // Cobalt tokens saved on amount staked\n    // Wallet only updated when user deposits or withdraws\n    // Fixed period loans\n    // Functions check the current balance the treasury has avaliable to stake\n    // Tier system in place\n    // Function to recalculate amount of cblt tokens reserved based on amount staked\n    // 30 60 90 180 365\n}\n\n// 7 days\n// 3 missed payments back to back\n// 4 missed payment overall\n// 6 years 100k ++++\n// 2 years 100k ----\n\n// ************************************* CHANGES ************************************\n\n// mapping (uint id => Loan) loanBook;\n// signature NFT\n\n// loanBook[id]\n// loanBook[id].signature // NFT\n\n// function borrow() {\n//     require(loanBook[id].signature == NFT.value)\n// }\n\n// ******************************** INCENTIVE SYSTEM *******************************\n\n// tier 1 - Loan  50k - Max voters 100 - 5 per head\n//        - msg.sender CBLTs > 300$ worth of ETH\n// tier 2 - Loan 100k - Max voters 150 - 7.5 per head\n//        - msg.sender CBLTs > 200\n// tier 3 - Loan 200k - Max voters 200 - 10 per head\n//        - msg.sender CBLTs > 400\n\n// ************************************** TODOS ************************************\n\n// Starting period, 12-24 months\n// Collateral paid on loan application\n// Create new function to handle application\n// Create a new function to check if loan is ready to loan\n// Array of all voters\n// Save interest amount on loan to an specific\n\n// Calling oracle from ABI\n\n// (bool result, bytes memory data) =\n//             oracleAddress.call(\n//                 abi.encodeWithSignature(\n//                     \"priceOfPair(address,address)\",\n//                     _sellToken,\n//                     _buyToken\n//                 )\n//             );\n//         // Decode bytes data\n//         (uint256 sellTokenValue, uint256 buyTokenValue) =\n//             abi.decode(data, (uint256, uint256));\n",
  "sourcePath": "/Users/christianroque/Desktop/solidity-playground/contracts/Bank.sol",
  "compiler": {
    "name": "solc",
    "version": "0.7.6+commit.7338295f.Emscripten.clang"
  },
  "schemaVersion": "3.3.4",
  "updatedAt": "2021-05-06T19:52:33.007Z",
  "devdoc": {
    "events": {
      "onReceived(address,uint256)": {
        "details": "Events emitted"
      }
    },
    "kind": "dev",
    "methods": {
      "addToken(address)": {
        "details": "function that will add a token to the list of supported tokens"
      },
      "cleanSlate()": {
        "details": "Deletes loan instance once the user has paid his first loan in full"
      },
      "deposit()": {
        "details": "method to deposit eth into the bank"
      },
      "doVote(uint256,bool)": {
        "details": "DOES the vote takes in the voter choice"
      },
      "isTokenAllowed(address)": {
        "details": "allows for chromium contract to see which tokens are allowed to be deposited into treasury"
      },
      "makePayment()": {
        "details": "Function for the user to make a payment with ETH"
      },
      "missedPayment()": {
        "details": "computes the principal component of the missed payment. This assumes the payment was the minimum amount, which is true for all but, possibly, the last payment. The conditional handles the boundary condition when the principal remaining is less than the principal component of a minimum payment."
      },
      "newLoan(uint256,uint256,uint256)": {
        "details": "Recalculates interest and also conducts check and balances"
      },
      "removeToken(address)": {
        "details": "function that will remove token from list of supported tokens"
      },
      "returnCollateral()": {
        "details": "smart contract allows borrowers to pay more than the minimum, which will ultimately lead to less total paid because of avoided interest. If used, this feature will lead to excess collateral owned by the loan contract after its been fully paid off. This collateral belongs to the borrower. The simplest way to handle that is to allow excess tokens to be claimed when the remainingBalance is zero:"
      },
      "setChromium(address)": {
        "details": "sets the chromium address"
      },
      "totalTokenSupply(address)": {
        "details": "method that will show the total amount of tokens in the bank for"
      },
      "withdraw(uint256)": {
        "details": "method to withdraw eth from account"
      },
      "withdrawCbltForExchange(address,address,address,uint256,uint256)": {
        "details": "allows for CBLT Tokens to be withdrawn from treasury by chromium"
      },
      "withdrawTokens(address,uint256)": {
        "details": "method that will withdraw tokens from the bank if the caller has tokens in the bank"
      }
    },
    "stateVariables": {
      "_tokenSupply": {
        "details": "a ledger of the amount of each token in the bank"
      },
      "chromiumAddress": {
        "details": "chromium address for modifier"
      },
      "etherBalance": {
        "details": "a ledger of the amount of each token in the bank"
      },
      "loanBook": {
        "details": "mapping used to store all loan information with the key of borrower address  and value of Loan struct with all loan information"
      },
      "oracleAddress": {
        "details": "CobaltLend oracle for scoring and CBLT price"
      },
      "token": {
        "details": "storing CBLT token in ERC20 type"
      },
      "tokenOwnerBalance": {
        "details": "a list for each token and each user that has deposited some of that token into the bank"
      },
      "tokensAllowed": {
        "details": "a list of all supported tokens"
      }
    },
    "version": 1
  },
  "userdoc": {
    "kind": "user",
    "methods": {},
    "version": 1
  }
}