{
  "contractName": "Bank",
  "abi": [
    {
      "inputs": [
        {
          "internalType": "address",
          "name": "_CBLT",
          "type": "address"
        },
        {
          "internalType": "address",
          "name": "_oracle",
          "type": "address"
        }
      ],
      "stateMutability": "nonpayable",
      "type": "constructor"
    },
    {
      "anonymous": false,
      "inputs": [
        {
          "indexed": false,
          "internalType": "address",
          "name": "_previousOwner",
          "type": "address"
        },
        {
          "indexed": true,
          "internalType": "address",
          "name": "_newOwner",
          "type": "address"
        }
      ],
      "name": "OwnershipTransferred",
      "type": "event"
    },
    {
      "anonymous": false,
      "inputs": [
        {
          "indexed": true,
          "internalType": "address",
          "name": "_from",
          "type": "address"
        },
        {
          "indexed": false,
          "internalType": "uint256",
          "name": "_amount",
          "type": "uint256"
        }
      ],
      "name": "depositToken",
      "type": "event"
    },
    {
      "anonymous": false,
      "inputs": [
        {
          "indexed": true,
          "internalType": "address",
          "name": "_from",
          "type": "address"
        },
        {
          "indexed": false,
          "internalType": "uint256",
          "name": "_amount",
          "type": "uint256"
        }
      ],
      "name": "onReceived",
      "type": "event"
    },
    {
      "anonymous": false,
      "inputs": [
        {
          "indexed": true,
          "internalType": "address",
          "name": "_from",
          "type": "address"
        },
        {
          "indexed": true,
          "internalType": "address",
          "name": "_to",
          "type": "address"
        },
        {
          "indexed": false,
          "internalType": "uint256",
          "name": "_amount",
          "type": "uint256"
        }
      ],
      "name": "onTransfer",
      "type": "event"
    },
    {
      "inputs": [],
      "name": "_owner",
      "outputs": [
        {
          "internalType": "address",
          "name": "",
          "type": "address"
        }
      ],
      "stateMutability": "view",
      "type": "function"
    },
    {
      "inputs": [],
      "name": "borrowingPool",
      "outputs": [
        {
          "internalType": "uint256",
          "name": "",
          "type": "uint256"
        }
      ],
      "stateMutability": "view",
      "type": "function"
    },
    {
      "inputs": [],
      "name": "isOwner",
      "outputs": [
        {
          "internalType": "bool",
          "name": "",
          "type": "bool"
        }
      ],
      "stateMutability": "view",
      "type": "function"
    },
    {
      "inputs": [
        {
          "internalType": "address",
          "name": "",
          "type": "address"
        }
      ],
      "name": "loanBook",
      "outputs": [
        {
          "internalType": "address",
          "name": "borrower",
          "type": "address"
        },
        {
          "internalType": "uint256",
          "name": "amountBorrowed",
          "type": "uint256"
        },
        {
          "internalType": "uint256",
          "name": "remainingBalance",
          "type": "uint256"
        },
        {
          "internalType": "uint256",
          "name": "minimumPayment",
          "type": "uint256"
        },
        {
          "internalType": "uint256",
          "name": "collateral",
          "type": "uint256"
        },
        {
          "internalType": "bool",
          "name": "active",
          "type": "bool"
        },
        {
          "internalType": "bool",
          "name": "initialized",
          "type": "bool"
        },
        {
          "internalType": "uint256",
          "name": "timeCreated",
          "type": "uint256"
        },
        {
          "internalType": "uint256",
          "name": "dueDate",
          "type": "uint256"
        },
        {
          "internalType": "uint256",
          "name": "totalVote",
          "type": "uint256"
        },
        {
          "internalType": "uint256",
          "name": "yes",
          "type": "uint256"
        }
      ],
      "stateMutability": "view",
      "type": "function"
    },
    {
      "inputs": [
        {
          "internalType": "address",
          "name": "",
          "type": "address"
        },
        {
          "internalType": "uint256",
          "name": "",
          "type": "uint256"
        }
      ],
      "name": "loanRecords",
      "outputs": [
        {
          "internalType": "address",
          "name": "borrower",
          "type": "address"
        },
        {
          "internalType": "uint256",
          "name": "amountBorrowed",
          "type": "uint256"
        },
        {
          "internalType": "uint256",
          "name": "remainingBalance",
          "type": "uint256"
        },
        {
          "internalType": "uint256",
          "name": "minimumPayment",
          "type": "uint256"
        },
        {
          "internalType": "uint256",
          "name": "collateral",
          "type": "uint256"
        },
        {
          "internalType": "bool",
          "name": "active",
          "type": "bool"
        },
        {
          "internalType": "bool",
          "name": "initialized",
          "type": "bool"
        },
        {
          "internalType": "uint256",
          "name": "timeCreated",
          "type": "uint256"
        },
        {
          "internalType": "uint256",
          "name": "dueDate",
          "type": "uint256"
        },
        {
          "internalType": "uint256",
          "name": "totalVote",
          "type": "uint256"
        },
        {
          "internalType": "uint256",
          "name": "yes",
          "type": "uint256"
        }
      ],
      "stateMutability": "view",
      "type": "function"
    },
    {
      "inputs": [
        {
          "internalType": "address",
          "name": "",
          "type": "address"
        },
        {
          "internalType": "address",
          "name": "",
          "type": "address"
        }
      ],
      "name": "rewardWallet",
      "outputs": [
        {
          "internalType": "uint256",
          "name": "",
          "type": "uint256"
        }
      ],
      "stateMutability": "view",
      "type": "function"
    },
    {
      "inputs": [
        {
          "internalType": "uint256",
          "name": "",
          "type": "uint256"
        },
        {
          "internalType": "uint256",
          "name": "",
          "type": "uint256"
        }
      ],
      "name": "stakingRewardRate",
      "outputs": [
        {
          "internalType": "uint256",
          "name": "interest",
          "type": "uint256"
        },
        {
          "internalType": "uint256",
          "name": "amountStakersLeft",
          "type": "uint256"
        },
        {
          "internalType": "uint256",
          "name": "tierDuration",
          "type": "uint256"
        },
        {
          "internalType": "uint256",
          "name": "tierAmount",
          "type": "uint256"
        }
      ],
      "stateMutability": "view",
      "type": "function"
    },
    {
      "inputs": [
        {
          "internalType": "address",
          "name": "",
          "type": "address"
        }
      ],
      "name": "tokenReserve",
      "outputs": [
        {
          "internalType": "uint256",
          "name": "",
          "type": "uint256"
        }
      ],
      "stateMutability": "view",
      "type": "function"
    },
    {
      "inputs": [
        {
          "internalType": "address",
          "name": "_newOwner",
          "type": "address"
        }
      ],
      "name": "transferOwnership",
      "outputs": [],
      "stateMutability": "nonpayable",
      "type": "function"
    },
    {
      "inputs": [
        {
          "internalType": "address",
          "name": "",
          "type": "address"
        }
      ],
      "name": "userBook",
      "outputs": [
        {
          "internalType": "uint256",
          "name": "ethBalance",
          "type": "uint256"
        },
        {
          "internalType": "uint256",
          "name": "tokenReserved",
          "type": "uint256"
        },
        {
          "internalType": "uint256",
          "name": "depositTime",
          "type": "uint256"
        },
        {
          "internalType": "uint256",
          "name": "timeStakedTier",
          "type": "uint256"
        },
        {
          "internalType": "address",
          "name": "currentTokenStaked",
          "type": "address"
        },
        {
          "internalType": "uint256",
          "name": "lotteryTicket",
          "type": "uint256"
        },
        {
          "internalType": "bool",
          "name": "withdrawReady",
          "type": "bool"
        }
      ],
      "stateMutability": "view",
      "type": "function"
    },
    {
      "inputs": [
        {
          "internalType": "uint256",
          "name": "_paymentPeriod",
          "type": "uint256"
        },
        {
          "internalType": "uint256",
          "name": "_principal",
          "type": "uint256"
        }
      ],
      "name": "newLoan",
      "outputs": [],
      "stateMutability": "payable",
      "type": "function"
    },
    {
      "inputs": [],
      "name": "validate",
      "outputs": [],
      "stateMutability": "nonpayable",
      "type": "function"
    },
    {
      "inputs": [],
      "name": "makePayment",
      "outputs": [],
      "stateMutability": "payable",
      "type": "function"
    },
    {
      "inputs": [],
      "name": "returnCollateral",
      "outputs": [],
      "stateMutability": "nonpayable",
      "type": "function"
    },
    {
      "inputs": [],
      "name": "cleanSlate",
      "outputs": [],
      "stateMutability": "nonpayable",
      "type": "function"
    },
    {
      "inputs": [
        {
          "internalType": "uint32",
          "name": "_timeStakedTier",
          "type": "uint32"
        },
        {
          "internalType": "address",
          "name": "_tokenAddress",
          "type": "address"
        }
      ],
      "name": "depositEth",
      "outputs": [],
      "stateMutability": "payable",
      "type": "function"
    },
    {
      "inputs": [
        {
          "internalType": "uint256",
          "name": "_amount",
          "type": "uint256"
        }
      ],
      "name": "withdrawEth",
      "outputs": [],
      "stateMutability": "nonpayable",
      "type": "function"
    },
    {
      "inputs": [
        {
          "internalType": "uint256",
          "name": "_amount",
          "type": "uint256"
        },
        {
          "internalType": "address",
          "name": "_withdrawTokenAddress",
          "type": "address"
        }
      ],
      "name": "withdrawStaking",
      "outputs": [],
      "stateMutability": "payable",
      "type": "function"
    },
    {
      "inputs": [
        {
          "internalType": "address",
          "name": "_winnerAddress",
          "type": "address"
        },
        {
          "internalType": "uint256",
          "name": "_timeTier",
          "type": "uint256"
        },
        {
          "internalType": "uint256",
          "name": "_amountTier",
          "type": "uint256"
        }
      ],
      "name": "lottery",
      "outputs": [],
      "stateMutability": "nonpayable",
      "type": "function"
    },
    {
      "inputs": [
        {
          "internalType": "uint256",
          "name": "_new",
          "type": "uint256"
        },
        {
          "internalType": "uint256",
          "name": "_amountTier",
          "type": "uint256"
        },
        {
          "internalType": "uint256",
          "name": "_timeTier",
          "type": "uint256"
        },
        {
          "internalType": "uint256",
          "name": "_newInterest",
          "type": "uint256"
        },
        {
          "internalType": "uint256",
          "name": "_tierDuration",
          "type": "uint256"
        }
      ],
      "name": "modifyTiers",
      "outputs": [],
      "stateMutability": "nonpayable",
      "type": "function"
    },
    {
      "inputs": [
        {
          "internalType": "bool",
          "name": "_status",
          "type": "bool"
        }
      ],
      "name": "stakingControl",
      "outputs": [],
      "stateMutability": "nonpayable",
      "type": "function"
    }
  ],
  "bytecode": "0x608060405260018060146101000a81548160ff02191690831515021790555034801561002a57600080fd5b50604051614c9c380380614c9c8339818101604052604081101561004d57600080fd5b810190808051906020019092919080519060200190929190505050336000806101000a81548173ffffffffffffffffffffffffffffffffffffffff021916908373ffffffffffffffffffffffffffffffffffffffff16021790555080600260006101000a81548173ffffffffffffffffffffffffffffffffffffffff021916908373ffffffffffffffffffffffffffffffffffffffff16021790555081600160006101000a81548173ffffffffffffffffffffffffffffffffffffffff021916908373ffffffffffffffffffffffffffffffffffffffff1602179055506064600660006005815260200190815260200160002060020181905550603c6006600060058152602001908152602001600020600101819055506207a1206006600060058152602001908152602001600020600001819055506b1363156bbee3016d70000000600a600073433c6e3d2def6e1fb414cf9448724efb0399b69873ffffffffffffffffffffffffffffffffffffffff1673ffffffffffffffffffffffffffffffffffffffff168152602001908152602001600020819055506b1363156bbee3016d70000000600a60007395b58a6bff3d14b7db2f5cb5f0ad413dc294065873ffffffffffffffffffffffffffffffffffffffff1673ffffffffffffffffffffffffffffffffffffffff16815260200190815260200160002081905550600160086000600181526020019081526020016000206000600181526020019081526020016000206000018190555060006008600060018152602001908152602001600020600060018152602001908152602001600020600101819055506228206f600860006001815260200190815260200160002060006001815260200190815260200160002060020181905550600260086000600181526020019081526020016000206000600281526020019081526020016000206000018190555060006008600060018152602001908152602001600020600060028152602001908152602001600020600101819055506228206f600860006001815260200190815260200160002060006002815260200190815260200160002060020181905550600360086000600181526020019081526020016000206000600381526020019081526020016000206000018190555060006008600060018152602001908152602001600020600060038152602001908152602001600020600101819055506228206f600860006001815260200190815260200160002060006003815260200190815260200160002060020181905550600460086000600181526020019081526020016000206000600481526020019081526020016000206000018190555060006008600060018152602001908152602001600020600060048152602001908152602001600020600101819055506228206f600860006001815260200190815260200160002060006004815260200190815260200160002060020181905550600460086000600181526020019081526020016000206000600581526020019081526020016000206000018190555060006008600060018152602001908152602001600020600060058152602001908152602001600020600101819055506228206f60086000600181526020019081526020016000206000600581526020019081526020016000206002018190555060016008600060028152602001908152602001600020600060018152602001908152602001600020600001819055506000600860006002815260200190815260200160002060006001815260200190815260200160002060010181905550625040de60086000600281526020019081526020016000206000600181526020019081526020016000206002018190555060026008600060028152602001908152602001600020600060028152602001908152602001600020600001819055506000600860006002815260200190815260200160002060006002815260200190815260200160002060010181905550625040de60086000600281526020019081526020016000206000600281526020019081526020016000206002018190555060036008600060028152602001908152602001600020600060038152602001908152602001600020600001819055506000600860006002815260200190815260200160002060006003815260200190815260200160002060010181905550625040de60086000600281526020019081526020016000206000600381526020019081526020016000206002018190555060046008600060028152602001908152602001600020600060048152602001908152602001600020600001819055506000600860006002815260200190815260200160002060006004815260200190815260200160002060010181905550625040de60086000600281526020019081526020016000206000600481526020019081526020016000206002018190555060046008600060028152602001908152602001600020600060058152602001908152602001600020600001819055506000600860006002815260200190815260200160002060006005815260200190815260200160002060010181905550625040de600860006002815260200190815260200160002060006005815260200190815260200160002060020181905550600160086000600381526020019081526020016000206000600181526020019081526020016000206000018190555060006008600060038152602001908152602001600020600060018152602001908152602001600020600101819055506278614d600860006003815260200190815260200160002060006001815260200190815260200160002060020181905550600260086000600381526020019081526020016000206000600281526020019081526020016000206000018190555060006008600060038152602001908152602001600020600060028152602001908152602001600020600101819055506278614d600860006003815260200190815260200160002060006002815260200190815260200160002060020181905550600360086000600381526020019081526020016000206000600381526020019081526020016000206000018190555060006008600060038152602001908152602001600020600060038152602001908152602001600020600101819055506278614d600860006003815260200190815260200160002060006003815260200190815260200160002060020181905550600460086000600381526020019081526020016000206000600481526020019081526020016000206000018190555060006008600060038152602001908152602001600020600060048152602001908152602001600020600101819055506278614d600860006003815260200190815260200160002060006004815260200190815260200160002060020181905550600460086000600381526020019081526020016000206000600581526020019081526020016000206000018190555060006008600060038152602001908152602001600020600060058152602001908152602001600020600101819055506278614d60086000600381526020019081526020016000206000600581526020019081526020016000206002018190555060036008600060048152602001908152602001600020600060018152602001908152602001600020600001819055506101f460086000600481526020019081526020016000206000600181526020019081526020016000206001018190555062f0c29a60086000600481526020019081526020016000206000600181526020019081526020016000206002018190555060056008600060048152602001908152602001600020600060028152602001908152602001600020600001819055506101f460086000600481526020019081526020016000206000600281526020019081526020016000206001018190555062f0c29a60086000600481526020019081526020016000206000600281526020019081526020016000206002018190555060056008600060048152602001908152602001600020600060038152602001908152602001600020600001819055506101f460086000600481526020019081526020016000206000600381526020019081526020016000206001018190555062f0c29a60086000600481526020019081526020016000206000600381526020019081526020016000206002018190555060056008600060048152602001908152602001600020600060048152602001908152602001600020600001819055506103e860086000600481526020019081526020016000206000600481526020019081526020016000206001018190555062f0c29a60086000600481526020019081526020016000206000600481526020019081526020016000206002018190555060056008600060048152602001908152602001600020600060058152602001908152602001600020600001819055506103e860086000600481526020019081526020016000206000600581526020019081526020016000206001018190555062f0c29a60086000600481526020019081526020016000206000600581526020019081526020016000206002018190555060046008600060058152602001908152602001600020600060018152602001908152602001600020600001819055506101f46008600060058152602001908152602001600020600060018152602001908152602001600020600101819055506301e1853460086000600581526020019081526020016000206000600181526020019081526020016000206002018190555060056008600060058152602001908152602001600020600060028152602001908152602001600020600001819055506101f46008600060058152602001908152602001600020600060028152602001908152602001600020600101819055506301e1853460086000600581526020019081526020016000206000600281526020019081526020016000206002018190555060056008600060058152602001908152602001600020600060038152602001908152602001600020600001819055506101f46008600060058152602001908152602001600020600060038152602001908152602001600020600101819055506301e1853460086000600581526020019081526020016000206000600381526020019081526020016000206002018190555060066008600060058152602001908152602001600020600060048152602001908152602001600020600001819055506103e86008600060058152602001908152602001600020600060048152602001908152602001600020600101819055506301e1853460086000600581526020019081526020016000206000600481526020019081526020016000206002018190555060076008600060058152602001908152602001600020600060058152602001908152602001600020600001819055506103e86008600060058152602001908152602001600020600060058152602001908152602001600020600101819055506301e185346008600060058152602001908152602001600020600060058152602001908152602001600020600201819055505050613c3a806110626000396000f3fe60806040526004361061012a5760003560e01c806397cb01c7116100ab578063b8825aba1161006f578063b8825aba146105a4578063c311d0491461064b578063d8d7970014610686578063e59626ee14610690578063e8f2fd481461075f578063f2fde38b146107c45761012a565b806397cb01c7146103f95780639b1b650614610424578063a0d5d6ec146104e9578063a3f0bb661461054c578063b2bdfa7b146105635761012a565b806361462631116100f2578063614626311461026e5780636901f668146102dc57806369bcb284146102f357806384ad38e9146103785780638f32d59b146103cc5761012a565b80631df74bba1461012f57806344e644df1461017d57806344ed456f146101ba57806354d39008146101d15780635dde3aa914610236575b600080fd5b61017b6004803603604081101561014557600080fd5b8101908080359060200190929190803573ffffffffffffffffffffffffffffffffffffffff169060200190929190505050610815565b005b34801561018957600080fd5b506101b8600480360360208110156101a057600080fd5b81019080803515159060200190929190505050610a93565b005b3480156101c657600080fd5b506101cf610ab0565b005b3480156101dd57600080fd5b50610220600480360360208110156101f457600080fd5b81019080803573ffffffffffffffffffffffffffffffffffffffff169060200190929190505050610c68565b6040518082815260200191505060405180910390f35b61026c6004803603604081101561024c57600080fd5b810190808035906020019092919080359060200190929190505050610c80565b005b34801561027a57600080fd5b506102b16004803603604081101561029157600080fd5b8101908080359060200190929190803590602001909291905050506112ed565b6040518085815260200184815260200183815260200182815260200194505050505060405180910390f35b3480156102e857600080fd5b506102f161132a565b005b3480156102ff57600080fd5b506103626004803603604081101561031657600080fd5b81019080803573ffffffffffffffffffffffffffffffffffffffff169060200190929190803573ffffffffffffffffffffffffffffffffffffffff16906020019092919050505061132c565b6040518082815260200191505060405180910390f35b6103ca6004803603604081101561038e57600080fd5b81019080803563ffffffff169060200190929190803573ffffffffffffffffffffffffffffffffffffffff169060200190929190505050611351565b005b3480156103d857600080fd5b506103e1611e52565b60405180821515815260200191505060405180910390f35b34801561040557600080fd5b5061040e611ea9565b6040518082815260200191505060405180910390f35b34801561043057600080fd5b506104736004803603602081101561044757600080fd5b81019080803573ffffffffffffffffffffffffffffffffffffffff169060200190929190505050611eaf565b604051808c73ffffffffffffffffffffffffffffffffffffffff1681526020018b81526020018a8152602001898152602001888152602001871515815260200186151581526020018581526020018481526020018381526020018281526020019b50505050505050505050505060405180910390f35b3480156104f557600080fd5b5061054a600480360360a081101561050c57600080fd5b810190808035906020019092919080359060200190929190803590602001909291908035906020019092919080359060200190929190505050611f43565b005b34801561055857600080fd5b50610561611fce565b005b34801561056f57600080fd5b506105786122aa565b604051808273ffffffffffffffffffffffffffffffffffffffff16815260200191505060405180910390f35b3480156105b057600080fd5b506105f3600480360360208110156105c757600080fd5b81019080803573ffffffffffffffffffffffffffffffffffffffff1690602001909291905050506122ce565b604051808881526020018781526020018681526020018581526020018473ffffffffffffffffffffffffffffffffffffffff168152602001838152602001821515815260200197505050505050505060405180910390f35b34801561065757600080fd5b506106846004803603602081101561066e57600080fd5b810190808035906020019092919050505061233d565b005b61068e6127f3565b005b34801561069c57600080fd5b506106e9600480360360408110156106b357600080fd5b81019080803573ffffffffffffffffffffffffffffffffffffffff169060200190929190803590602001909291905050506128a9565b604051808c73ffffffffffffffffffffffffffffffffffffffff1681526020018b81526020018a8152602001898152602001888152602001871515815260200186151581526020018581526020018481526020018381526020018281526020019b50505050505050505050505060405180910390f35b34801561076b57600080fd5b506107c26004803603606081101561078257600080fd5b81019080803573ffffffffffffffffffffffffffffffffffffffff169060200190929190803590602001909291908035906020019092919050505061295a565b005b3480156107d057600080fd5b50610813600480360360208110156107e757600080fd5b81019080803573ffffffffffffffffffffffffffffffffffffffff16906020019092919050505061295f565b005b600080600260009054906101000a900473ffffffffffffffffffffffffffffffffffffffff1673ffffffffffffffffffffffffffffffffffffffff166345266697846040518263ffffffff1660e01b8152600401808273ffffffffffffffffffffffffffffffffffffffff168152602001915050604080518083038186803b1580156108a057600080fd5b505afa1580156108b4573d6000803e3d6000fd5b505050506040513d60408110156108ca57600080fd5b810190808051906020019092919080519060200190929190505050915091506000610921610900670de0b6b3a764000085612a9a565b61091368056bc75e2d6310000085612a9a565b670de0b6b3a7640000612ab3565b90506032610930826005612aca565b11610986576040517f08c379a000000000000000000000000000000000000000000000000000000000815260040180806020018281038252603b815260200180613b92603b913960400191505060405180910390fd5b610a0c600b60003373ffffffffffffffffffffffffffffffffffffffff1673ffffffffffffffffffffffffffffffffffffffff16815260200190815260200160002060008673ffffffffffffffffffffffffffffffffffffffff1673ffffffffffffffffffffffffffffffffffffffff1681526020019081526020016000205486612b01565b600b60003373ffffffffffffffffffffffffffffffffffffffff1673ffffffffffffffffffffffffffffffffffffffff16815260200190815260200160002060008673ffffffffffffffffffffffffffffffffffffffff1673ffffffffffffffffffffffffffffffffffffffff168152602001908152602001600020819055505050505050565b80600160146101000a81548160ff02191690831515021790555050565b6000600460003373ffffffffffffffffffffffffffffffffffffffff1673ffffffffffffffffffffffffffffffffffffffff1681526020019081526020016000206002015414610aff57600080fd5b6000600460003373ffffffffffffffffffffffffffffffffffffffff1673ffffffffffffffffffffffffffffffffffffffff168152602001908152602001600020600401549050600160009054906101000a900473ffffffffffffffffffffffffffffffffffffffff1673ffffffffffffffffffffffffffffffffffffffff1663a9059cbb33836040518363ffffffff1660e01b8152600401808373ffffffffffffffffffffffffffffffffffffffff16815260200182815260200192505050602060405180830381600087803b158015610bd957600080fd5b505af1158015610bed573d6000803e3d6000fd5b505050506040513d6020811015610c0357600080fd5b8101908080519060200190929190505050610c1d57600080fd5b6000600460003373ffffffffffffffffffffffffffffffffffffffff1673ffffffffffffffffffffffffffffffffffffffff1681526020019081526020016000206004018190555050565b600a6020528060005260406000206000915090505481565b60001515600460003373ffffffffffffffffffffffffffffffffffffffff1673ffffffffffffffffffffffffffffffffffffffff16815260200190815260200160002060050160019054906101000a900460ff16151514610ce057600080fd5b6000601490506000600f90506000600290506000600590506006600082815260200190815260200160002060010154861115610d67576040517f08c379a0000000000000000000000000000000000000000000000000000000008152600401808060200182810382526038815260200180613bcd6038913960400191505060405180910390fd5b6000610e1e68056bc75e2d63100000600260009054906101000a900473ffffffffffffffffffffffffffffffffffffffff1673ffffffffffffffffffffffffffffffffffffffff1663858b033d6040518163ffffffff1660e01b815260040160206040518083038186803b158015610dde57600080fd5b505afa158015610df2573d6000803e3d6000fd5b505050506040513d6020811015610e0857600080fd5b8101908080519060200190929190505050612a9a565b90506000610e2c8783612a9a565b90506006600084815260200190815260200160002060000154811115610e5157600080fd5b6000806000600260009054906101000a900473ffffffffffffffffffffffffffffffffffffffff1673ffffffffffffffffffffffffffffffffffffffff16633a7a2a06600160009054906101000a900473ffffffffffffffffffffffffffffffffffffffff1673eeeeeeeeeeeeeeeeeeeeeeeeeeeeeeeeeeeeeeee6040518363ffffffff1660e01b8152600401808373ffffffffffffffffffffffffffffffffffffffff1681526020018273ffffffffffffffffffffffffffffffffffffffff1681526020019250505060606040518083038186803b158015610f3357600080fd5b505afa158015610f47573d6000803e3d6000fd5b505050506040513d6060811015610f5d57600080fd5b810190808051906020019092919080519060200190929190805190602001909291905050509250925092506000610fa8610fa28c610f9b8d8d612aca565b6064612ab3565b85612a9a565b90506000610fc18c610fbc8e8c6064612ab3565b612b18565b90506000610fcf828f612a9a565b905060011515600160009054906101000a900473ffffffffffffffffffffffffffffffffffffffff1673ffffffffffffffffffffffffffffffffffffffff166323b872dd3330876040518463ffffffff1660e01b8152600401808473ffffffffffffffffffffffffffffffffffffffff1681526020018373ffffffffffffffffffffffffffffffffffffffff1681526020018281526020019350505050602060405180830381600087803b15801561108657600080fd5b505af115801561109a573d6000803e3d6000fd5b505050506040513d60208110156110b057600080fd5b8101908080519060200190929190505050151514611136576040517f08c379a00000000000000000000000000000000000000000000000000000000081526004018080602001828103825260198152602001807f5061796d656e7420776173206e6f7420617070726f7665642e0000000000000081525060200191505060405180910390fd5b6040518061016001604052803373ffffffffffffffffffffffffffffffffffffffff1681526020018e8152602001838152602001828152602001848152602001600015158152602001600115158152602001611195426228206f612b18565b8152602001428152602001600660008c81526020019081526020016000206002015481526020016000815250600460003373ffffffffffffffffffffffffffffffffffffffff1673ffffffffffffffffffffffffffffffffffffffff16815260200190815260200160002060008201518160000160006101000a81548173ffffffffffffffffffffffffffffffffffffffff021916908373ffffffffffffffffffffffffffffffffffffffff1602179055506020820151816001015560408201518160020155606082015181600301556080820151816004015560a08201518160050160006101000a81548160ff02191690831515021790555060c08201518160050160016101000a81548160ff02191690831515021790555060e082015181600601556101008201518160070155610120820151816008015561014082015181600901559050505050505050505050505050505050565b6008602052816000526040600020602052806000526040600020600091509150508060000154908060010154908060020154908060030154905084565b565b600b602052816000526040600020602052806000526040600020600091509150505481565b8163ffffffff1660011515600160149054906101000a900460ff161515146113e1576040517f08c379a000000000000000000000000000000000000000000000000000000000815260040180806020018281038252601c8152602001807f5374616b696e672069732063757272656e746c79206f66666c696e650000000081525060200191505060405180910390fd5b670214e8348c4f00003411611441576040517f08c379a000000000000000000000000000000000000000000000000000000000815260040180806020018281038252602c815260200180613b66602c913960400191505060405180910390fd5b60018110158015611453575060058111155b6114a8576040517f08c379a000000000000000000000000000000000000000000000000000000000815260040180806020018281038252602d815260200180613b39602d913960400191505060405180910390fd5b600080600090506000806000600960003373ffffffffffffffffffffffffffffffffffffffff1673ffffffffffffffffffffffffffffffffffffffff16815260200190815260200160002060050154905067058d15e176280000341161151157600194506115bc565b671bc16d674ec80000341161152957600294506115bb565b674563918244f40000341161154157600394506115ba565b68015af1d78b58c400003411611587576004945060048863ffffffff16141561156d5760199350611582565b60058863ffffffff16141561158157603293505b5b6115b9565b6005945060048863ffffffff1614156115a357601993506115b8565b60058863ffffffff1614156115b757603293505b5b5b5b5b5b600081111561169757600c6000600960003373ffffffffffffffffffffffffffffffffffffffff1673ffffffffffffffffffffffffffffffffffffffff168152602001908152602001600020600501548152602001908152602001600020600001548863ffffffff161480156116895750600c6000600960003373ffffffffffffffffffffffffffffffffffffffff1673ffffffffffffffffffffffffffffffffffffffff1681526020019081526020016000206005015481526020019081526020016000206001015485145b61169257600080fd5b61173b565b6000600860008a63ffffffff1681526020019081526020016000206000878152602001908152602001600020600101541161173a576040517f08c379a000000000000000000000000000000000000000000000000000000000815260040180806020018281038252601e8152602001807f54696572206465706c657465642c20636f6d65206261636b206c61746572000081525060200191505060405180910390fd5b5b6000600960003373ffffffffffffffffffffffffffffffffffffffff1673ffffffffffffffffffffffffffffffffffffffff1681526020019081526020016000206000015411156118bf576117ff600860008a63ffffffff168152602001908152602001600020600087815260200190815260200160002060020154600960003373ffffffffffffffffffffffffffffffffffffffff1673ffffffffffffffffffffffffffffffffffffffff16815260200190815260200160002060020154612b18565b92506001421161185a576040517f08c379a0000000000000000000000000000000000000000000000000000000008152600401808060200182810382526026815260200180613b136026913960400191505060405180910390fd5b6118b86118a934600960003373ffffffffffffffffffffffffffffffffffffffff1673ffffffffffffffffffffffffffffffffffffffff16815260200190815260200160002060000154612b18565b8963ffffffff16878a85612b34565b91506118d5565b6118d2348963ffffffff16878a85612b34565b91505b600a60008873ffffffffffffffffffffffffffffffffffffffff1673ffffffffffffffffffffffffffffffffffffffff1681526020019081526020016000205482111561198a576040517f08c379a000000000000000000000000000000000000000000000000000000000815260040180806020018281038252601e8152602001807f54726561737572792069732063757272656e746c79206465706c65746564000081525060200191505060405180910390fd5b6000841115611a505760006119a183866064612ab3565b9050611a04600960003373ffffffffffffffffffffffffffffffffffffffff1673ffffffffffffffffffffffffffffffffffffffff168152602001908152602001600020600101546119ff856119f860648a612b01565b6064612ab3565b612b18565b600960003373ffffffffffffffffffffffffffffffffffffffff1673ffffffffffffffffffffffffffffffffffffffff1681526020019081526020016000206001018190555050611ae3565b611a9c600960003373ffffffffffffffffffffffffffffffffffffffff1673ffffffffffffffffffffffffffffffffffffffff1681526020019081526020016000206001015483612b18565b600960003373ffffffffffffffffffffffffffffffffffffffff1673ffffffffffffffffffffffffffffffffffffffff168152602001908152602001600020600101819055505b8763ffffffff16600960003373ffffffffffffffffffffffffffffffffffffffff1673ffffffffffffffffffffffffffffffffffffffff16815260200190815260200160002060030181905550611b79600a60008973ffffffffffffffffffffffffffffffffffffffff1673ffffffffffffffffffffffffffffffffffffffff1681526020019081526020016000205483612b01565b600a60008973ffffffffffffffffffffffffffffffffffffffff1673ffffffffffffffffffffffffffffffffffffffff168152602001908152602001600020819055506000600260009054906101000a900473ffffffffffffffffffffffffffffffffffffffff1673ffffffffffffffffffffffffffffffffffffffff1663858b033d6040518163ffffffff1660e01b815260040160206040518083038186803b158015611c2657600080fd5b505afa158015611c3a573d6000803e3d6000fd5b505050506040513d6020811015611c5057600080fd5b810190808051906020019092919050505090506000611c7868056bc75e2d6310000083612a9a565b9050611ccf600960003373ffffffffffffffffffffffffffffffffffffffff1673ffffffffffffffffffffffffffffffffffffffff16815260200190815260200160002060000154611cca3484612b01565b612b18565b600960003373ffffffffffffffffffffffffffffffffffffffff1673ffffffffffffffffffffffffffffffffffffffff16815260200190815260200160002060000181905550611d4d600860008c63ffffffff1681526020019081526020016000206000898152602001908152602001600020600101546001612b01565b600860008c63ffffffff16815260200190815260200160002060008981526020019081526020016000206001018190555088600960003373ffffffffffffffffffffffffffffffffffffffff1673ffffffffffffffffffffffffffffffffffffffff16815260200190815260200160002060040160006101000a81548173ffffffffffffffffffffffffffffffffffffffff021916908373ffffffffffffffffffffffffffffffffffffffff16021790555042600960003373ffffffffffffffffffffffffffffffffffffffff1673ffffffffffffffffffffffffffffffffffffffff1681526020019081526020016000206002018190555050505050505050505050565b60008060009054906101000a900473ffffffffffffffffffffffffffffffffffffffff1673ffffffffffffffffffffffffffffffffffffffff163373ffffffffffffffffffffffffffffffffffffffff1614905090565b600d5481565b60046020528060005260406000206000915090508060000160009054906101000a900473ffffffffffffffffffffffffffffffffffffffff16908060010154908060020154908060030154908060040154908060050160009054906101000a900460ff16908060050160019054906101000a900460ff1690806006015490806007015490806008015490806009015490508b565b8460086000858152602001908152602001600020600086815260200190815260200160002060010181905550816008600085815260200190815260200160002060008681526020019081526020016000206000018190555080600860008581526020019081526020016000206000868152602001908152602001600020600201819055505050505050565b6000600460003373ffffffffffffffffffffffffffffffffffffffff1673ffffffffffffffffffffffffffffffffffffffff168152602001908152602001600020600201541461201d57600080fd5b600560003373ffffffffffffffffffffffffffffffffffffffff1673ffffffffffffffffffffffffffffffffffffffff168152602001908152602001600020600460003373ffffffffffffffffffffffffffffffffffffffff1673ffffffffffffffffffffffffffffffffffffffff16815260200190815260200160002090806001815401808255809150506001900390600052602060002090600a02016000909190919091506000820160009054906101000a900473ffffffffffffffffffffffffffffffffffffffff168160000160006101000a81548173ffffffffffffffffffffffffffffffffffffffff021916908373ffffffffffffffffffffffffffffffffffffffff160217905550600182015481600101556002820154816002015560038201548160030155600482015481600401556005820160009054906101000a900460ff168160050160006101000a81548160ff0219169083151502179055506005820160019054906101000a900460ff168160050160016101000a81548160ff021916908315150217905550600682015481600601556007820154816007015560088201548160080155600982015481600901555050600460003373ffffffffffffffffffffffffffffffffffffffff1673ffffffffffffffffffffffffffffffffffffffff168152602001908152602001600020600080820160006101000a81549073ffffffffffffffffffffffffffffffffffffffff021916905560018201600090556002820160009055600382016000905560048201600090556005820160006101000a81549060ff02191690556005820160016101000a81549060ff021916905560068201600090556007820160009055600882016000905560098201600090555050565b60008054906101000a900473ffffffffffffffffffffffffffffffffffffffff1681565b60096020528060005260406000206000915090508060000154908060010154908060020154908060030154908060040160009054906101000a900473ffffffffffffffffffffffffffffffffffffffff16908060050154908060060160009054906101000a900460ff16905087565b600080600960003373ffffffffffffffffffffffffffffffffffffffff1673ffffffffffffffffffffffffffffffffffffffff168152602001908152602001600020600301549050600080600960003373ffffffffffffffffffffffffffffffffffffffff1673ffffffffffffffffffffffffffffffffffffffff16815260200190815260200160002060000154905067058d15e17628000081116123e55760059150612436565b671bc16d674ec8000081116123fd5760049150612435565b674563918244f4000081116124155760039150612434565b68015af1d78b58c40000811161242e5760029150612433565b600191505b5b5b5b6124a960086000858152602001908152602001600020600084815260200190815260200160002060020154600960003373ffffffffffffffffffffffffffffffffffffffff1673ffffffffffffffffffffffffffffffffffffffff16815260200190815260200160002060020154612b18565b935060006124b78484612d98565b90506125a1600b60003373ffffffffffffffffffffffffffffffffffffffff1673ffffffffffffffffffffffffffffffffffffffff1681526020019081526020016000206000600960003373ffffffffffffffffffffffffffffffffffffffff1673ffffffffffffffffffffffffffffffffffffffff16815260200190815260200160002060040160009054906101000a900473ffffffffffffffffffffffffffffffffffffffff1673ffffffffffffffffffffffffffffffffffffffff1673ffffffffffffffffffffffffffffffffffffffff1681526020019081526020016000205482612b18565b600b60003373ffffffffffffffffffffffffffffffffffffffff1673ffffffffffffffffffffffffffffffffffffffff1681526020019081526020016000206000600960003373ffffffffffffffffffffffffffffffffffffffff1673ffffffffffffffffffffffffffffffffffffffff16815260200190815260200160002060040160009054906101000a900473ffffffffffffffffffffffffffffffffffffffff1673ffffffffffffffffffffffffffffffffffffffff1673ffffffffffffffffffffffffffffffffffffffff168152602001908152602001600020819055506000600960003373ffffffffffffffffffffffffffffffffffffffff1673ffffffffffffffffffffffffffffffffffffffff16815260200190815260200160002060010181905550612717600960003373ffffffffffffffffffffffffffffffffffffffff1673ffffffffffffffffffffffffffffffffffffffff1681526020019081526020016000206000015487612b01565b600960003373ffffffffffffffffffffffffffffffffffffffff1673ffffffffffffffffffffffffffffffffffffffff1681526020019081526020016000206000018190555042600960003373ffffffffffffffffffffffffffffffffffffffff1673ffffffffffffffffffffffffffffffffffffffff168152602001908152602001600020600201819055503373ffffffffffffffffffffffffffffffffffffffff166108fc879081150290604051600060405180830381858888f193505050501580156127ea573d6000803e3d6000fd5b50505050505050565b600460003373ffffffffffffffffffffffffffffffffffffffff1673ffffffffffffffffffffffffffffffffffffffff1681526020019081526020016000206003015434101561284257600080fd5b600460003373ffffffffffffffffffffffffffffffffffffffff1673ffffffffffffffffffffffffffffffffffffffff16815260200190815260200160002060070154421161289b576128963460006131d1565b6128a7565b6128a63460016131d1565b5b565b600560205281600052604060002081815481106128c557600080fd5b90600052602060002090600a0201600091509150508060000160009054906101000a900473ffffffffffffffffffffffffffffffffffffffff16908060010154908060020154908060030154908060040154908060050160009054906101000a900460ff16908060050160019054906101000a900460ff1690806006015490806007015490806008015490806009015490508b565b505050565b612967611e52565b6129d9576040517f08c379a00000000000000000000000000000000000000000000000000000000081526004018080602001828103825260168152602001807f596f7520617265206e6f7420746865206f776e65722e0000000000000000000081525060200191505060405180910390fd5b600073ffffffffffffffffffffffffffffffffffffffff168173ffffffffffffffffffffffffffffffffffffffff161415612a1357600080fd5b8073ffffffffffffffffffffffffffffffffffffffff167f8be0079c531659141344cd1fd0a4f28419497f9722a3daafe3b4186f6b6457e060008054906101000a900473ffffffffffffffffffffffffffffffffffffffff16604051808273ffffffffffffffffffffffffffffffffffffffff16815260200191505060405180910390a250565b600080828481612aa657fe5b0490508091505092915050565b60008183850281612ac057fe5b0490509392505050565b600080831415612add5760009050612afb565b6000828402905082848281612aee57fe5b0414612af657fe5b809150505b92915050565b600082821115612b0d57fe5b818303905092915050565b600080828401905083811015612b2a57fe5b8091505092915050565b600080600260009054906101000a900473ffffffffffffffffffffffffffffffffffffffff1673ffffffffffffffffffffffffffffffffffffffff1663f3167c05856040518263ffffffff1660e01b8152600401808273ffffffffffffffffffffffffffffffffffffffff16815260200191505060206040518083038186803b158015612bc057600080fd5b505afa158015612bd4573d6000803e3d6000fd5b505050506040513d6020811015612bea57600080fd5b810190808051906020019092919050505090506000600960003373ffffffffffffffffffffffffffffffffffffffff1673ffffffffffffffffffffffffffffffffffffffff168152602001908152602001600020600101549050600080821115612c5857612c578261331e565b5b6000851115612d4a5760001515600960003373ffffffffffffffffffffffffffffffffffffffff1673ffffffffffffffffffffffffffffffffffffffff16815260200190815260200160002060060160009054906101000a900460ff1615151415612cf257612cef600860008a81526020019081526020016000206000898152602001908152602001600020600001546002612aca565b90505b60011515600960003373ffffffffffffffffffffffffffffffffffffffff1673ffffffffffffffffffffffffffffffffffffffff16815260200190815260200160002060060160009054906101000a90505050612d75565b6008600089815260200190815260200160002060008881526020019081526020016000206000015490505b612d8a612d848a836064612ab3565b84612a9a565b935050505095945050505050565b600080606490506000600960003373ffffffffffffffffffffffffffffffffffffffff1673ffffffffffffffffffffffffffffffffffffffff1681526020019081526020016000206001015490506000600960003373ffffffffffffffffffffffffffffffffffffffff1673ffffffffffffffffffffffffffffffffffffffff16815260200190815260200160002060040160009054906101000a900473ffffffffffffffffffffffffffffffffffffffff1690506000600260009054906101000a900473ffffffffffffffffffffffffffffffffffffffff1673ffffffffffffffffffffffffffffffffffffffff1663f3167c05836040518263ffffffff1660e01b8152600401808273ffffffffffffffffffffffffffffffffffffffff16815260200191505060206040518083038186803b158015612ed857600080fd5b505afa158015612eec573d6000803e3d6000fd5b505050506040513d6020811015612f0257600080fd5b810190808051906020019092919050505090506000808411156131c157600488148015612f3a57506004871480612f395750600587145b5b15612f4857604b9450612f6e565b600588148015612f6357506004871480612f625750600587145b5b15612f6d57603294505b5b60011515600960003373ffffffffffffffffffffffffffffffffffffffff1673ffffffffffffffffffffffffffffffffffffffff16815260200190815260200160002060060160009054906101000a900460ff161515141561304b57612ffc600860008a81526020019081526020016000206000898152602001908152602001600020600001546002612aca565b90506000600960003373ffffffffffffffffffffffffffffffffffffffff1673ffffffffffffffffffffffffffffffffffffffff16815260200190815260200160002060050181905550613076565b6008600089815260200190815260200160002060008881526020019081526020016000206000015490505b60006131016130fb6130cc600960003373ffffffffffffffffffffffffffffffffffffffff1673ffffffffffffffffffffffffffffffffffffffff16815260200190815260200160002060000154896064612ab3565b600860008d815260200190815260200160002060008c8152602001908152602001600020600001546064612ab3565b84612a9a565b9050848110613118578496505050505050506131cb565b60006131248683612b01565b905061316f600a60008773ffffffffffffffffffffffffffffffffffffffff1673ffffffffffffffffffffffffffffffffffffffff1681526020019081526020016000205482612b18565b600a60008773ffffffffffffffffffffffffffffffffffffffff1673ffffffffffffffffffffffffffffffffffffffff16815260200190815260200160002081905550819750505050505050506131cb565b6000955050505050505b92915050565b61321d600460003373ffffffffffffffffffffffffffffffffffffffff1673ffffffffffffffffffffffffffffffffffffffff1681526020019081526020016000206002015483612b01565b600460003373ffffffffffffffffffffffffffffffffffffffff1673ffffffffffffffffffffffffffffffffffffffff16815260200190815260200160002060020181905550613270426228206f612b18565b600460003373ffffffffffffffffffffffffffffffffffffffff1673ffffffffffffffffffffffffffffffffffffffff16815260200190815260200160002060070181905550801561331a57600061331661330d42600460003373ffffffffffffffffffffffffffffffffffffffff1673ffffffffffffffffffffffffffffffffffffffff16815260200190815260200160002060070154612b01565b62015180612a9a565b9050505b5050565b6000600960003373ffffffffffffffffffffffffffffffffffffffff1673ffffffffffffffffffffffffffffffffffffffff168152602001908152602001600020600001549050600080600960003373ffffffffffffffffffffffffffffffffffffffff1673ffffffffffffffffffffffffffffffffffffffff16815260200190815260200160002060040160009054906101000a900473ffffffffffffffffffffffffffffffffffffffff1690506000806133d985613a0c565b915091506000600260009054906101000a900473ffffffffffffffffffffffffffffffffffffffff1673ffffffffffffffffffffffffffffffffffffffff1663f3167c05856040518263ffffffff1660e01b8152600401808273ffffffffffffffffffffffffffffffffffffffff16815260200191505060206040518083038186803b15801561346857600080fd5b505afa15801561347c573d6000803e3d6000fd5b505050506040513d602081101561349257600080fd5b8101908080519060200190929190505050905060011515600960003373ffffffffffffffffffffffffffffffffffffffff1673ffffffffffffffffffffffffffffffffffffffff16815260200190815260200160002060060160009054906101000a900460ff16151514156135c45761357560086000600960003373ffffffffffffffffffffffffffffffffffffffff1673ffffffffffffffffffffffffffffffffffffffff1681526020019081526020016000206003015481526020019081526020016000206000848152602001908152602001600020600001546002612aca565b94506000600960003373ffffffffffffffffffffffffffffffffffffffff1673ffffffffffffffffffffffffffffffffffffffff16815260200190815260200160002060050181905550613631565b60086000600960003373ffffffffffffffffffffffffffffffffffffffff1673ffffffffffffffffffffffffffffffffffffffff16815260200190815260200160002060030154815260200190815260200160002060008381526020019081526020016000206000015494505b60006136bc6136b661364589876064612ab3565b60086000600960003373ffffffffffffffffffffffffffffffffffffffff1673ffffffffffffffffffffffffffffffffffffffff1681526020019081526020016000206003015481526020019081526020016000206000878152602001908152602001600020600001546064612ab3565b83612a9a565b90508781106138185761374b600b60003373ffffffffffffffffffffffffffffffffffffffff1673ffffffffffffffffffffffffffffffffffffffff16815260200190815260200160002060008773ffffffffffffffffffffffffffffffffffffffff1673ffffffffffffffffffffffffffffffffffffffff1681526020019081526020016000205489612b18565b600b60003373ffffffffffffffffffffffffffffffffffffffff1673ffffffffffffffffffffffffffffffffffffffff16815260200190815260200160002060008773ffffffffffffffffffffffffffffffffffffffff1673ffffffffffffffffffffffffffffffffffffffff168152602001908152602001600020819055506000600960003373ffffffffffffffffffffffffffffffffffffffff1673ffffffffffffffffffffffffffffffffffffffff16815260200190815260200160002060010181905550613a02565b60006138248983612b01565b905061386f600a60008873ffffffffffffffffffffffffffffffffffffffff1673ffffffffffffffffffffffffffffffffffffffff1681526020019081526020016000205482612b18565b600a60008873ffffffffffffffffffffffffffffffffffffffff1673ffffffffffffffffffffffffffffffffffffffff16815260200190815260200160002081905550613938600b60003373ffffffffffffffffffffffffffffffffffffffff1673ffffffffffffffffffffffffffffffffffffffff16815260200190815260200160002060008873ffffffffffffffffffffffffffffffffffffffff1673ffffffffffffffffffffffffffffffffffffffff1681526020019081526020016000205483612b18565b600b60003373ffffffffffffffffffffffffffffffffffffffff1673ffffffffffffffffffffffffffffffffffffffff16815260200190815260200160002060008873ffffffffffffffffffffffffffffffffffffffff1673ffffffffffffffffffffffffffffffffffffffff168152602001908152602001600020819055506000600960003373ffffffffffffffffffffffffffffffffffffffff1673ffffffffffffffffffffffffffffffffffffffff16815260200190815260200160002060010181905550505b5050505050505050565b600080600080600960003373ffffffffffffffffffffffffffffffffffffffff1673ffffffffffffffffffffffffffffffffffffffff168152602001908152602001600020600301549050600067058d15e1762800008611613a715760019250613b04565b671bc16d674ec800008611613a895760029250613b03565b674563918244f400008611613aa15760039250613b02565b68015af1d78b58c400008611613adb57600492506004821415613ac757604b9050613ad6565b6005821415613ad557603290505b5b613b01565b600592506004821415613af157604b9050613b00565b6005821415613aff57603290505b5b5b5b5b5b80839450945050505091509156fe43757272656e74207374616b696e6720706572696f64206973206e6f74206f7665722079657454696572206e756d626572206d7573742062652061206e756d626572206265747765656e203120616e6420352e4572726f722c206465706f736974206d75737420626520686967686572207468616e20302e30313520455448416d6f756e7420696e2043424c54206d75737420626520686967686572207468616e20353020746f74616c20776f72746820696e2076616c75652e5061796d656e7420706572696f6420657863656564732074686174206f662074686520746965722c20706c6561732074727920616761696ea2646970667358221220a4a4986447f4f9cea15cd0cc1db803bc52334b65203f3a2b44c155c98ce6f88e64736f6c63430007060033",
  "immutableReferences": {},
  "source": "pragma solidity >=0.4.22 <0.9.0;\n\nimport \"./interfaces/Ownable.sol\";\nimport \"./interfaces/IERC20.sol\";\nimport \"./interfaces/SafeMath.sol\";\nimport \"./interfaces/UniversalERC20.sol\";\nimport \"./ExchangeOracle.sol\";\n\n// 0x433C6E3D2def6E1fb414cf9448724EFB0399b698\n\ncontract Bank is Ownable {\n    using UniversalERC20 for IERC20;\n\n    /**\n     * @dev storing CBLT token in ERC20 type\n     */\n    IERC20 token;\n\n    bool internal stakingStatus = true;\n\n    /**\n     * @dev Creating oracle instance\n     */\n    ExchangeOracle oracle;\n\n    /**\n     * @dev CobaltLend oracle for scoring and CBLT price\n     */\n    address oracleAddress;\n\n    constructor(address _CBLT, address _oracle) {\n        oracle = ExchangeOracle(_oracle);\n        token = IERC20(_CBLT);\n\n        loanTiers[5].maxVoters = 100;\n        loanTiers[5].maximumPaymentPeriod = 60;\n        loanTiers[5].principalLimit = 500000;\n\n        tokenReserve[\n            0x433C6E3D2def6E1fb414cf9448724EFB0399b698\n        ] = 6000000000000000000000000000;\n        tokenReserve[\n            0x95b58a6Bff3D14B7DB2f5cb5F0Ad413DC2940658\n        ] = 6000000000000000000000000000;\n\n        // Staking percentages based on deposit time and amount\n        stakingRewardRate[1][1].interest = 1;\n        stakingRewardRate[1][1].amountStakersLeft = 0;\n        stakingRewardRate[1][1].tierDuration = 2629743;\n        stakingRewardRate[1][2].interest = 2;\n        stakingRewardRate[1][2].amountStakersLeft = 0;\n        stakingRewardRate[1][2].tierDuration = 2629743;\n        stakingRewardRate[1][3].interest = 3;\n        stakingRewardRate[1][3].amountStakersLeft = 0;\n        stakingRewardRate[1][3].tierDuration = 2629743;\n        stakingRewardRate[1][4].interest = 4;\n        stakingRewardRate[1][4].amountStakersLeft = 0;\n        stakingRewardRate[1][4].tierDuration = 2629743;\n        stakingRewardRate[1][5].interest = 4;\n        stakingRewardRate[1][5].amountStakersLeft = 0;\n        stakingRewardRate[1][5].tierDuration = 2629743;\n        //\n        stakingRewardRate[2][1].interest = 1;\n        stakingRewardRate[2][1].amountStakersLeft = 0;\n        stakingRewardRate[2][1].tierDuration = 5259486;\n        stakingRewardRate[2][2].interest = 2;\n        stakingRewardRate[2][2].amountStakersLeft = 0;\n        stakingRewardRate[2][2].tierDuration = 5259486;\n        stakingRewardRate[2][3].interest = 3;\n        stakingRewardRate[2][3].amountStakersLeft = 0;\n        stakingRewardRate[2][3].tierDuration = 5259486;\n        stakingRewardRate[2][4].interest = 4;\n        stakingRewardRate[2][4].amountStakersLeft = 0;\n        stakingRewardRate[2][4].tierDuration = 5259486;\n        stakingRewardRate[2][5].interest = 4;\n        stakingRewardRate[2][5].amountStakersLeft = 0;\n        stakingRewardRate[2][5].tierDuration = 5259486;\n        //\n        stakingRewardRate[3][1].interest = 1;\n        stakingRewardRate[3][1].amountStakersLeft = 0;\n        stakingRewardRate[3][1].tierDuration = 7889229;\n        stakingRewardRate[3][2].interest = 2;\n        stakingRewardRate[3][2].amountStakersLeft = 0;\n        stakingRewardRate[3][2].tierDuration = 7889229;\n        stakingRewardRate[3][3].interest = 3;\n        stakingRewardRate[3][3].amountStakersLeft = 0;\n        stakingRewardRate[3][3].tierDuration = 7889229;\n        stakingRewardRate[3][4].interest = 4;\n        stakingRewardRate[3][4].amountStakersLeft = 0;\n        stakingRewardRate[3][4].tierDuration = 7889229;\n        stakingRewardRate[3][5].interest = 4;\n        stakingRewardRate[3][5].amountStakersLeft = 0;\n        stakingRewardRate[3][5].tierDuration = 7889229;\n        //\n        stakingRewardRate[4][1].interest = 3;\n        stakingRewardRate[4][1].amountStakersLeft = 500;\n        stakingRewardRate[4][1].tierDuration = 15778458;\n        stakingRewardRate[4][2].interest = 5;\n        stakingRewardRate[4][2].amountStakersLeft = 500;\n        stakingRewardRate[4][2].tierDuration = 15778458;\n        stakingRewardRate[4][3].interest = 5;\n        stakingRewardRate[4][3].amountStakersLeft = 500;\n        stakingRewardRate[4][3].tierDuration = 15778458;\n        stakingRewardRate[4][4].interest = 5;\n        stakingRewardRate[4][4].amountStakersLeft = 1000;\n        stakingRewardRate[4][4].tierDuration = 15778458;\n        stakingRewardRate[4][5].interest = 5;\n        stakingRewardRate[4][5].amountStakersLeft = 1000;\n        stakingRewardRate[4][5].tierDuration = 15778458;\n        //\n        stakingRewardRate[5][1].interest = 4;\n        stakingRewardRate[5][1].amountStakersLeft = 500;\n        stakingRewardRate[5][1].tierDuration = 31556916;\n        stakingRewardRate[5][2].interest = 5;\n        stakingRewardRate[5][2].amountStakersLeft = 500;\n        stakingRewardRate[5][2].tierDuration = 31556916;\n        stakingRewardRate[5][3].interest = 5;\n        stakingRewardRate[5][3].amountStakersLeft = 500;\n        stakingRewardRate[5][3].tierDuration = 31556916;\n        stakingRewardRate[5][4].interest = 6;\n        stakingRewardRate[5][4].amountStakersLeft = 1000;\n        stakingRewardRate[5][4].tierDuration = 31556916;\n        stakingRewardRate[5][5].interest = 7;\n        stakingRewardRate[5][5].amountStakersLeft = 1000;\n        stakingRewardRate[5][5].tierDuration = 31556916;\n    }\n\n    /**\n     * @dev Events emitted\n     */\n    event onReceived(address indexed _from, uint256 _amount);\n    event onTransfer(\n        address indexed _from,\n        address indexed _to,\n        uint256 _amount\n    );\n    event depositToken(address indexed _from, uint256 _amount);\n\n    // ****************************** Lending **********************************\n\n    /**\n     * @dev mapping used to store all loan information with the key of borrower address\n     *  and value of Loan struct with all loan information\n     */\n    mapping(address => Loan) public loanBook;\n\n    /**\n     * @dev Informstion from previously fullfilled loans are stored into the blockchain\n     * before being permanently deleted\n     */\n    mapping(address => Loan[]) public loanRecords;\n\n    /**\n     * @dev struct to access information on tier structure\n     */\n    struct loanTier {\n        uint256 principalLimit;\n        uint256 maximumPaymentPeriod;\n        uint256 maxVoters;\n    }\n\n    mapping(uint256 => loanTier) loanTiers;\n\n    /**\n     * @dev Struct to store loan information\n     */\n    struct Loan {\n        address borrower; // Address of wallet\n        uint256 amountBorrowed; // Initial loan balance\n        uint256 remainingBalance; // Remaining balance\n        uint256 minimumPayment; // MinimumPayment // Can be calculated off total amount\n        uint256 collateral; // Amount owed back to borrower after loan is paid in full\n        bool active; // Is the current loan active (Voted yes)\n        bool initialized; // Does the borrower have a current loan application\n        uint256 timeCreated; // Time of loan application also epoch in days\n        uint256 dueDate; // Time of contract ending\n        uint256 totalVote; // Total amount determined by tier\n        uint256 yes; // Amount of votes for yes\n        // address currentCoin; // Address of collateral coin\n    }\n\n    /**\n     * @dev Recalculates interest and also conducts check and balances\n     */\n\n    function newLoan(uint256 _paymentPeriod, uint256 _principal)\n        public\n        payable\n    {\n        require(loanBook[msg.sender].initialized == false);\n\n        uint256 riskScore = 20; // NFT ENTRY!!!!\n        uint256 riskFactor = 15; // NFT ENTRY!!!!\n        uint256 interestRate = 2; // NFT ENTRY!!!!\n        uint256 userMaxTier = 5; // NFT ENTRY!!!!\n        // uint256 flatfee = 400; // NFT ENTRY!!!!\n\n        require(\n            _paymentPeriod <= loanTiers[userMaxTier].maximumPaymentPeriod,\n            \"Payment period exceeds that of the tier, pleas try again\"\n        );\n\n        // One dollar in ETH\n        uint256 oneUSDinETH =\n            SafeMath.div(100000000000000000000, oracle.priceOfETH());\n\n        // Calculate how much is being borrowed in USD - must be within limits of the tier\n        uint256 amountBorrowed = SafeMath.div(_principal, oneUSDinETH);\n        require(amountBorrowed <= loanTiers[userMaxTier].principalLimit);\n\n        // Pay loan application lee to cover for fees\n        // require(msg.value >= SafeMath.mul(oneUSDinETH,flatfee)); // Needs change based on current prices\n\n        (uint256 CBLTprice, uint256 ETHprice, bool ready) =\n            oracle.priceOfPair(\n                address(token),\n                0xEeeeeEeeeEeEeeEeEeEeeEEEeeeeEeeeeeeeEEeE\n            );\n\n        // Calculate collateral in CBLT based on principal, riskScore and riskFactor\n        uint256 collateralInCBLT =\n            SafeMath.div(\n                SafeMath.multiply(\n                    _principal,\n                    SafeMath.mul(riskScore, riskFactor),\n                    100\n                ),\n                CBLTprice\n            );\n\n        // Calculate new principal with the added interest\n        uint256 finalPrincipal =\n            SafeMath.add(\n                _principal,\n                SafeMath.multiply(_principal, interestRate, 100)\n            );\n\n        uint256 monthlyPayment = SafeMath.div(finalPrincipal, _paymentPeriod);\n\n        require(\n            token.transferFrom(msg.sender, address(this), collateralInCBLT) ==\n                true,\n            \"Payment was not approved.\"\n        );\n\n        loanBook[msg.sender] = Loan(\n            msg.sender,\n            _principal,\n            finalPrincipal,\n            monthlyPayment,\n            collateralInCBLT,\n            false,\n            true,\n            SafeMath.add(block.timestamp, 2629743),\n            block.timestamp,\n            loanTiers[userMaxTier].maxVoters,\n            0\n        );\n    }\n\n    /**\n     * @dev\n     */\n\n    function processPeriod(uint256 _payment, bool _missedPayment) internal {\n        loanBook[msg.sender].remainingBalance = SafeMath.sub(\n            loanBook[msg.sender].remainingBalance,\n            _payment\n        );\n\n        loanBook[msg.sender].dueDate = SafeMath.add(block.timestamp, 2629743);\n\n        if (_missedPayment) {\n            // Needs to interact with the NFT\n            // Collateral is substracted\n            // Strike system // Connected to NFT\n            uint256 daysMissed =\n                SafeMath.div(\n                    SafeMath.sub(block.timestamp, loanBook[msg.sender].dueDate),\n                    86400\n                );\n            if (daysMissed > 7) {\n                // Suspend loan\n            }\n        }\n    }\n\n    /**\n     * @dev\n     */\n    function validate() public {} // Only devs\n\n    /**\n     * @dev Function for the user to make a payment with ETH\n     *\n     */\n    function makePayment() public payable {\n        require(msg.value >= loanBook[msg.sender].minimumPayment);\n\n        if (block.timestamp <= loanBook[msg.sender].dueDate) {\n            processPeriod(msg.value, false);\n        } else {\n            processPeriod(msg.value, true);\n        }\n    }\n\n    /**\n     * @dev\n     */\n    function returnCollateral() public {\n        require(loanBook[msg.sender].remainingBalance == 0);\n\n        uint256 amount = loanBook[msg.sender].collateral;\n        require(token.transfer(msg.sender, amount));\n\n        loanBook[msg.sender].collateral = 0;\n    }\n\n    /**\n     * @dev Deletes loan instance once the user has paid his active loan in full\n     */\n    function cleanSlate() public {\n        require(loanBook[msg.sender].remainingBalance == 0);\n        loanRecords[msg.sender].push(loanBook[msg.sender]);\n        delete loanBook[msg.sender];\n    }\n\n    // **************************** Staking ******************************\n    struct crossTier {\n        uint256 interest;\n        uint256 amountStakersLeft;\n        uint256 tierDuration;\n        uint256 tierAmount;\n    }\n\n    address currentToken;\n\n    mapping(uint256 => mapping(uint256 => crossTier)) public stakingRewardRate;\n\n    mapping(address => User) public userBook;\n\n    mapping(address => uint256) public tokenReserve;\n\n    mapping(address => mapping(address => uint256)) public rewardWallet;\n\n    mapping(uint256 => LotteryTicket) lotteryBook;\n\n    uint256 public borrowingPool;\n\n    struct LotteryTicket {\n        uint256 lotteryTimeTier;\n        uint256 lotteryAmountTier;\n    }\n\n    struct User {\n        uint256 ethBalance;\n        uint256 tokenReserved;\n        uint256 depositTime;\n        uint256 timeStakedTier;\n        address currentTokenStaked;\n        uint256 lotteryTicket;\n        bool withdrawReady;\n    }\n\n    modifier isValidStake(uint256 _timeStakedTier) {\n        // Checks if staking is currently online\n        require(stakingStatus == true, \"Staking is currently offline\");\n\n        // Minimum deposit of 0.015 ETH\n        require(\n            msg.value > 15e16,\n            \"Error, deposit must be higher than 0.015 ETH\"\n        );\n\n        // The tier input must be between 1 and 5\n        require(\n            _timeStakedTier >= 1 && _timeStakedTier <= 5, // needs to be variable\n            \"Tier number must be a number between 1 and 5.\"\n        );\n        _;\n    }\n\n    function previousStakingMath(uint256 _amountStakedPreviously)\n        internal\n        returns (uint256, uint256)\n    {\n        uint256 previousAmountTier;\n        uint256 tierStakedPreviously = userBook[msg.sender].timeStakedTier;\n        uint256 percentBasedAmount;\n\n        // Determine the amount staked tier based on ETH balance\n        if (_amountStakedPreviously <= 4e17) {\n            previousAmountTier = 1;\n        } else if (_amountStakedPreviously <= 2e18) {\n            previousAmountTier = 2;\n        } else if (_amountStakedPreviously <= 5e18) {\n            previousAmountTier = 3;\n        } else if (_amountStakedPreviously <= 25e18) {\n            previousAmountTier = 4;\n            if (tierStakedPreviously == 4) {\n                percentBasedAmount = 75;\n            } else if (tierStakedPreviously == 5) {\n                percentBasedAmount = 50;\n            }\n        } else {\n            previousAmountTier = 5;\n            if (tierStakedPreviously == 4) {\n                percentBasedAmount = 75;\n            } else if (tierStakedPreviously == 5) {\n                percentBasedAmount = 50;\n            }\n        }\n\n        return (percentBasedAmount, previousAmountTier);\n    }\n\n    function payRewardWalletDeposit(uint256 _userReserved) internal {\n        uint256 amountStakedPreviously = userBook[msg.sender].ethBalance;\n        uint256 interest;\n        address previousTokenAddress = userBook[msg.sender].currentTokenStaked;\n        (uint256 percentBasedAmount, uint256 previousAmountTier) =\n            previousStakingMath(amountStakedPreviously);\n        uint256 previousTokenPrice = oracle.priceOfToken(previousTokenAddress);\n\n        if (userBook[msg.sender].withdrawReady == true) {\n            interest = SafeMath.mul(\n                stakingRewardRate[userBook[msg.sender].timeStakedTier][\n                    previousAmountTier\n                ]\n                    .interest,\n                2\n            );\n            userBook[msg.sender].lotteryTicket = 0;\n        } else {\n            interest = stakingRewardRate[userBook[msg.sender].timeStakedTier][\n                previousAmountTier\n            ]\n                .interest;\n        }\n\n        // Calculate the new amount of cblt reserved for user at current market price\n        uint256 newReserved =\n            SafeMath.div(\n                SafeMath.multiply(\n                    SafeMath.multiply(\n                        amountStakedPreviously,\n                        percentBasedAmount,\n                        100\n                    ),\n                    stakingRewardRate[userBook[msg.sender].timeStakedTier][\n                        previousAmountTier\n                    ]\n                        .interest,\n                    100\n                ),\n                previousTokenPrice\n            );\n\n        if (newReserved >= _userReserved) {\n            // If price decrease, send all tokens reserved\n            rewardWallet[msg.sender][previousTokenAddress] = SafeMath.add(\n                rewardWallet[msg.sender][previousTokenAddress],\n                _userReserved\n            );\n            userBook[msg.sender].tokenReserved = 0;\n        } else {\n            // If price increased, calculate the difference between new and old amount final\n            uint256 tokenDifference = SafeMath.sub(_userReserved, newReserved);\n\n            // Add lefover tokens back into treasury\n            tokenReserve[previousTokenAddress] = SafeMath.add(\n                tokenReserve[previousTokenAddress],\n                tokenDifference\n            );\n\n            // Save tokens in contract wallet\n            rewardWallet[msg.sender][previousTokenAddress] = SafeMath.add(\n                rewardWallet[msg.sender][previousTokenAddress],\n                newReserved\n            );\n            // Reset amount of tokens owed\n            userBook[msg.sender].tokenReserved = 0;\n        }\n    }\n\n    function calculateRewardDeposit(\n        uint256 _amount,\n        uint256 _timeStakedTier,\n        uint256 _amountStakedTier,\n        address _tokenAddress,\n        uint256 _lotteryTicket\n    ) internal returns (uint256) {\n        uint256 tokenPrice = oracle.priceOfToken(address(_tokenAddress));\n        uint256 userReserved = userBook[msg.sender].tokenReserved;\n        uint256 interest;\n\n        // Check if user has CBLT tokens reserved\n        if (userReserved > 0) {\n            payRewardWalletDeposit(userReserved);\n        }\n\n        // Calculate and return new CBLT reserved\n        if (_lotteryTicket > 0) {\n            if (userBook[msg.sender].withdrawReady == false) {\n                interest = SafeMath.mul(\n                    stakingRewardRate[_timeStakedTier][_amountStakedTier]\n                        .interest,\n                    2\n                );\n            }\n            userBook[msg.sender].withdrawReady == true;\n        } else {\n            interest = stakingRewardRate[_timeStakedTier][_amountStakedTier]\n                .interest;\n        }\n\n        return\n            SafeMath.div(SafeMath.multiply(_amount, interest, 100), tokenPrice);\n    }\n\n    function payRewardWalletWithdraw(\n        uint256 _timeStakedTier,\n        uint256 _amountStakedTier\n    ) internal returns (uint256) {\n        uint256 percentBasedAmount = 100;\n        uint256 userReserved = userBook[msg.sender].tokenReserved;\n        address previousTokenAddress = userBook[msg.sender].currentTokenStaked;\n        uint256 tokenPrice = oracle.priceOfToken(previousTokenAddress);\n        uint256 interest;\n\n        // If user has CBLT tokens reserved on withdraw, calculate how much is owed to him\n        if (userReserved > 0) {\n            // Determining if user was sent CBLT tokens on initial staking\n            if (\n                _timeStakedTier == 4 &&\n                (_amountStakedTier == 4 || _amountStakedTier == 5)\n            ) {\n                percentBasedAmount = 75;\n            } else if (\n                _timeStakedTier == 5 &&\n                (_amountStakedTier == 4 || _amountStakedTier == 5)\n            ) {\n                percentBasedAmount = 50;\n            }\n\n            if (userBook[msg.sender].withdrawReady == true) {\n                interest = SafeMath.mul(\n                    stakingRewardRate[_timeStakedTier][_amountStakedTier]\n                        .interest,\n                    2\n                );\n                userBook[msg.sender].lotteryTicket = 0;\n            } else {\n                interest = stakingRewardRate[_timeStakedTier][_amountStakedTier]\n                    .interest;\n            }\n\n            // Calculate the new amount of cblt reserved for user at current market price\n            uint256 newReserved =\n                SafeMath.div(\n                    SafeMath.multiply(\n                        SafeMath.multiply(\n                            userBook[msg.sender].ethBalance,\n                            percentBasedAmount,\n                            100\n                        ),\n                        stakingRewardRate[_timeStakedTier][_amountStakedTier]\n                            .interest,\n                        100\n                    ),\n                    tokenPrice\n                );\n\n            if (newReserved >= userReserved) {\n                // If token price decrease, send all tokens reserved\n                return userReserved;\n            } else {\n                // If CBLT price increased, calculate the difference between new and old amount final\n                uint256 tokenDifference =\n                    SafeMath.sub(userReserved, newReserved);\n\n                // Add lefover cblt tokens back into treasury\n                tokenReserve[previousTokenAddress] = SafeMath.add(\n                    tokenReserve[previousTokenAddress],\n                    tokenDifference\n                );\n\n                // Return new amount of CBLT owed\n                return newReserved;\n            }\n        } else {\n            return 0;\n        }\n    }\n\n    function depositEth(uint32 _timeStakedTier, address _tokenAddress)\n        public\n        payable\n        isValidStake(_timeStakedTier)\n    {\n        uint256 amountStakedTier;\n        uint256 paidAdvanced = 0;\n        uint256 dueDate;\n        uint256 tokensReserved;\n        uint256 lotteryTicket = userBook[msg.sender].lotteryTicket;\n\n        // Check the amountStakedTier based on deposit\n        if (msg.value <= 4e17) {\n            amountStakedTier = 1;\n        } else if (msg.value <= 2e18) {\n            amountStakedTier = 2;\n        } else if (msg.value <= 5e18) {\n            amountStakedTier = 3;\n        } else if (msg.value <= 25e18) {\n            amountStakedTier = 4;\n            if (_timeStakedTier == 4) {\n                paidAdvanced = 25;\n            } else if (_timeStakedTier == 5) {\n                paidAdvanced = 50;\n            }\n        } else {\n            amountStakedTier = 5;\n            if (_timeStakedTier == 4) {\n                paidAdvanced = 25;\n            } else if (_timeStakedTier == 5) {\n                paidAdvanced = 50;\n            }\n        }\n\n        // Checks if the user is a lottery winner and checks if amount staked and time staked is within lottery instance parameters\n        if (lotteryTicket > 0) {\n            require(\n                _timeStakedTier ==\n                    lotteryBook[userBook[msg.sender].lotteryTicket]\n                        .lotteryTimeTier &&\n                    amountStakedTier ==\n                    lotteryBook[userBook[msg.sender].lotteryTicket]\n                        .lotteryAmountTier\n            );\n        } else {\n            // Check if the tier is currently depleted\n            require(\n                stakingRewardRate[_timeStakedTier][amountStakedTier]\n                    .amountStakersLeft > 0,\n                \"Tier depleted, come back later\"\n            );\n        }\n\n        // Checking if user is restaking or this is his/her first staking instance\n        if (userBook[msg.sender].ethBalance > 0) {\n            // Creates a due date for current staking period\n            dueDate = SafeMath.add(\n                stakingRewardRate[_timeStakedTier][amountStakedTier]\n                    .tierDuration,\n                userBook[msg.sender].depositTime\n            );\n            // Revert if staking period is not over\n            require(\n                block.timestamp > 1,\n                \"Current staking period is not over yet\"\n            );\n\n            // Checks the amount of CBLT tokens that need to be reserved plus existing balance\n            tokensReserved = calculateRewardDeposit(\n                SafeMath.add(msg.value, userBook[msg.sender].ethBalance),\n                _timeStakedTier,\n                amountStakedTier,\n                _tokenAddress,\n                lotteryTicket\n            );\n        } else {\n            // Checks the amount of CBLT tokens that need to be reserved\n            tokensReserved = calculateRewardDeposit(\n                msg.value,\n                _timeStakedTier,\n                amountStakedTier,\n                _tokenAddress,\n                lotteryTicket\n            );\n        }\n\n        // Treasury must have that amount open\n        require(\n            tokensReserved <= tokenReserve[_tokenAddress],\n            \"Treasury is currently depleted\"\n        );\n\n        // Check if we are sending CBLT based on time staked\n        if (paidAdvanced > 0) {\n            uint256 tokensSent =\n                SafeMath.multiply(tokensReserved, paidAdvanced, 100);\n            // require( token.transfer(msg.sender, cbltSent), \"Transaction was not successful\" );\n\n            // Saves the amount of CBLT tokens reserved minus the amount sent in advanced\n            userBook[msg.sender].tokenReserved = SafeMath.add(\n                userBook[msg.sender].tokenReserved,\n                SafeMath.multiply(\n                    tokensReserved,\n                    SafeMath.sub(100, paidAdvanced),\n                    100\n                )\n            );\n        } else {\n            // Saves the amount of CBLT tokens reserved in user struct\n            userBook[msg.sender].tokenReserved = SafeMath.add(\n                userBook[msg.sender].tokenReserved,\n                tokensReserved\n            );\n        }\n\n        // Save amount of time staked\n        userBook[msg.sender].timeStakedTier = _timeStakedTier;\n\n        // Substract CBLT tokens reserved for user from treasury\n        tokenReserve[_tokenAddress] = SafeMath.sub(\n            tokenReserve[_tokenAddress],\n            tokensReserved\n        );\n\n        // Oracle call for current ETH price in USD\n        uint256 ETHprice = oracle.priceOfETH();\n\n        // Dollar fee based\n        uint256 ETHinUSD = SafeMath.div(100000000000000000000, ETHprice);\n\n        // Save new eth deposit in user account\n        userBook[msg.sender].ethBalance = SafeMath.add(\n            userBook[msg.sender].ethBalance,\n            SafeMath.sub(msg.value, ETHinUSD)\n        );\n\n        // Decrease number of stakers avaliable for current tier based on time and amount\n        stakingRewardRate[_timeStakedTier][amountStakedTier]\n            .amountStakersLeft = SafeMath.sub(\n            stakingRewardRate[_timeStakedTier][amountStakedTier]\n                .amountStakersLeft,\n            1\n        );\n\n        // Save token address for user\n        userBook[msg.sender].currentTokenStaked = _tokenAddress;\n\n        // Change the time of deposit\n        userBook[msg.sender].depositTime = block.timestamp;\n    }\n\n    function withdrawEth(uint256 _amount) public {\n        uint256 dueDate;\n        uint256 stakingPeriod = userBook[msg.sender].timeStakedTier;\n        uint256 amountStakedTier;\n        uint256 userBalance = userBook[msg.sender].ethBalance;\n\n        // Determine the amount staked tier based on ETH balance\n        if (userBalance <= 4e17) {\n            amountStakedTier = 5;\n        } else if (userBalance <= 2e18) {\n            amountStakedTier = 4;\n        } else if (userBalance <= 5e18) {\n            amountStakedTier = 3;\n        } else if (userBalance <= 25e18) {\n            amountStakedTier = 2;\n        } else {\n            amountStakedTier = 1;\n        }\n\n        // Calulate due date based on time staked tier and deposit time\n        dueDate = SafeMath.add(\n            stakingRewardRate[stakingPeriod][amountStakedTier].tierDuration,\n            userBook[msg.sender].depositTime\n        );\n\n        // Staking period must be over before he withdraws ETH balance\n        // require(block.timestamp >= dueDate, \"Staking period is not over.\");\n\n        // Recalculate tokens based on current token value\n        uint256 stakingReward =\n            payRewardWalletWithdraw(stakingPeriod, amountStakedTier);\n        // Save reward in wallet\n        rewardWallet[msg.sender][\n            userBook[msg.sender].currentTokenStaked\n        ] = SafeMath.add(\n            rewardWallet[msg.sender][userBook[msg.sender].currentTokenStaked],\n            stakingReward\n        );\n        // Reset amount of CBLT reserved\n        userBook[msg.sender].tokenReserved = 0;\n\n        // Substract eth from user account\n        userBook[msg.sender].ethBalance = SafeMath.sub(\n            userBook[msg.sender].ethBalance,\n            _amount\n        );\n        // Change the latest time of deposit\n        userBook[msg.sender].depositTime = block.timestamp;\n\n        payable(msg.sender).transfer(_amount);\n    }\n\n    function withdrawStaking(uint256 _amount, address _withdrawTokenAddress)\n        public\n        payable\n    {\n        (uint256 tokenPrice, uint256 ETHprice) =\n            oracle.priceOfETHandCBLT(_withdrawTokenAddress);\n\n        uint256 USDtoToken =\n            SafeMath.multiply(\n                SafeMath.div(1000000000000000000, tokenPrice),\n                SafeMath.div(100000000000000000000, ETHprice),\n                1000000000000000000\n            );\n\n        require(\n            SafeMath.mul(USDtoToken, 5) > 50,\n            \"Amount in CBLT must be higher than 50 total worth in value.\"\n        );\n\n        rewardWallet[msg.sender][_withdrawTokenAddress] = SafeMath.sub(\n            rewardWallet[msg.sender][_withdrawTokenAddress],\n            _amount\n        );\n\n        // token.transfer\n    }\n\n    function lottery(\n        address _winnerAddress,\n        uint256 _timeTier,\n        uint256 _amountTier\n    ) public {}\n\n    function modifyTiers(\n        uint256 _new,\n        uint256 _amountTier,\n        uint256 _timeTier,\n        uint256 _newInterest,\n        uint256 _tierDuration\n    ) public {\n        // only devs\n        stakingRewardRate[_timeTier][_amountTier].amountStakersLeft = _new;\n        stakingRewardRate[_timeTier][_amountTier].interest = _newInterest;\n        stakingRewardRate[_timeTier][_amountTier].tierDuration = _tierDuration;\n    }\n\n    function stakingControl(bool _status) public {\n        // only devs\n        stakingStatus = _status;\n    }\n}\n\n// Points of entry\n// Recalculating reward wallet and any time cblt or old token goes back to the system.\n\n// Voting\n// Lending\n// Cobalt tokens saved on amount staked\n// Wallet only updated when user deposits or withdraws\n// Fixed period loans\n// Functions check the current balance the treasury has avaliable to stake\n// Tier system in place\n// Function to recalculate amount of cblt tokens reserved based on amount staked\n// 30 60 90 180 365\n\n// 7 days\n// 3 missed payments back to back\n// 4 missed payment overall\n// 6 years 100k ++++\n// 2 years 100k ----\n\n// ************************************* CHANGES ************************************\n\n// mapping (uint id => Loan) loanBook;\n// signature NFT\n\n// loanBook[id]\n// loanBook[id].signature // NFT\n\n// function borrow() {\n//     require(loanBook[id].signature == NFT.value)\n// }\n\n// ******************************** INCENTIVE SYSTEM *******************************\n\n// tier 1 - Loan  50k - Max voters 100 - 5 per head\n//        - msg.sender CBLTs > 300$ worth of ETH\n// tier 2 - Loan 100k - Max voters 150 - 7.5 per head\n//        - msg.sender CBLTs > 200\n// tier 3 - Loan 200k - Max voters 200 - 10 per head\n//        - msg.sender CBLTs > 400\n\n// ************************************** TODOS ************************************\n\n// Starting period, 12-24 months\n// Collateral paid on loan application\n// Create new function to handle application\n// Create a new function to check if loan is ready to loan\n// Array of all voters\n// Save interest amount on loan to an specific\n\n// Calling oracle from ABI\n\n// (bool result, bytes memory data) =\n//             oracleAddress.call(\n//                 abi.encodeWithSignature(\n//                     \"priceOfPair(address,address)\",\n//                     _sellToken,\n//                     _buyToken\n//                 )\n//             );\n//         // Decode bytes data\n//         (uint256 sellTokenValue, uint256 buyTokenValue) =\n//             abi.decode(data, (uint256, uint256));\n\n// Amount of CBLT present in wallet per tier\n\n// Tier 1 - 500  to  5k   USD\n// Tier 2 - 5k   to  20k  USD\n// Tier 3 - 20k  to  50k  USD\n// Tier 4 - 50k  to  100k USD\n// Tier 5 - 100k to  250k USD\n// Tier 6 - +250k         USD\n\n// Amount of votes allowed per tier\n\n// Tier 1 - 20\n// Tier 2 - 40\n// Tier 3 - 60-80\n// Tier 4 ''  '' '' Needs work\n\n// Information made public from the borrower\n// Name, eth account, email\n\n// Maximum period to pay loan per Tier\n// Tier 1 - 10k  to 25k  - 12 months\n// Tier 2 - 25k  to 50k  - 24 months\n// Tier 3 - 50k  to 100k - 36 months\n// Tier 4 - 100k to 250k - 48 months\n// Tier 5 - 250k to 1m   - 60 months\n// Tier 6 - 1m   to 5m   - 60 months\n// Tier 7 - 5m and above - 60 months\n\n// New contract logic needed to be added\n// Lending 50%\n// Long term stakers - 12\n// long term pool\n// staking - indebt\n\n// Points of entry, restricting value\n// Validate\n\n// 25% - 6\n// 50% - 12\n\n// FUNCTION TO VALIDATE LENDING\n\n// function validate(address[] memory _votersAddress, bool _voteFinal, uint _loanSignature ) public { // only devs\n//     // Oracle inject\n//     // loanbook[_loanSignature].tierUSD;\n\n//     uint256 USDtoCBLT =\n//         SafeMath.div(\n//             1000000000000000000,\n//             SafeMath.mul(2000000000000, 2843)\n//         );\n\n//     for(uint i = 0; i < _votersAddress.length;i++) { // 8 // 100\n//          _votersAddress[i];\n//          // uint tierVoters = loanbook[_loanSignature].maxVoters;\n//          // Two things\n//          // token.balanceOf(_votersAddress[i]);\n//     }\n//     // loanbook[_loanSignature].status;\n// }\n",
  "sourcePath": "/Users/christianroque/Desktop/TungstenGroupProject/contracts/Bank.sol",
  "compiler": {
    "name": "solc",
    "version": "0.7.6+commit.7338295f.Emscripten.clang"
  },
  "schemaVersion": "3.3.4",
  "updatedAt": "2021-06-08T07:51:38.263Z",
  "devdoc": {
    "events": {
      "onReceived(address,uint256)": {
        "details": "Events emitted"
      }
    },
    "kind": "dev",
    "methods": {
      "cleanSlate()": {
        "details": "Deletes loan instance once the user has paid his active loan in full"
      },
      "makePayment()": {
        "details": "Function for the user to make a payment with ETH"
      },
      "newLoan(uint256,uint256)": {
        "details": "Recalculates interest and also conducts check and balances"
      }
    },
    "stateVariables": {
      "loanBook": {
        "details": "mapping used to store all loan information with the key of borrower address  and value of Loan struct with all loan information"
      },
      "loanRecords": {
        "details": "Informstion from previously fullfilled loans are stored into the blockchain before being permanently deleted"
      },
      "oracle": {
        "details": "Creating oracle instance"
      },
      "oracleAddress": {
        "details": "CobaltLend oracle for scoring and CBLT price"
      },
      "token": {
        "details": "storing CBLT token in ERC20 type"
      }
    },
    "version": 1
  },
  "userdoc": {
    "kind": "user",
    "methods": {},
    "version": 1
  }
}