{
  "contractName": "Bank",
  "abi": [
    {
      "anonymous": false,
      "inputs": [
        {
          "indexed": false,
          "internalType": "address",
          "name": "_previousOwner",
          "type": "address"
        },
        {
          "indexed": true,
          "internalType": "address",
          "name": "_newOwner",
          "type": "address"
        }
      ],
      "name": "OwnershipTransferred",
      "type": "event"
    },
    {
      "anonymous": false,
      "inputs": [
        {
          "indexed": true,
          "internalType": "address",
          "name": "_from",
          "type": "address"
        },
        {
          "indexed": false,
          "internalType": "uint256",
          "name": "_amount",
          "type": "uint256"
        }
      ],
      "name": "depositToken",
      "type": "event"
    },
    {
      "anonymous": false,
      "inputs": [
        {
          "indexed": true,
          "internalType": "address",
          "name": "_from",
          "type": "address"
        },
        {
          "indexed": false,
          "internalType": "uint256",
          "name": "_amount",
          "type": "uint256"
        }
      ],
      "name": "onReceived",
      "type": "event"
    },
    {
      "anonymous": false,
      "inputs": [
        {
          "indexed": true,
          "internalType": "address",
          "name": "_from",
          "type": "address"
        },
        {
          "indexed": true,
          "internalType": "address",
          "name": "_to",
          "type": "address"
        },
        {
          "indexed": false,
          "internalType": "uint256",
          "name": "_amount",
          "type": "uint256"
        }
      ],
      "name": "onTransfer",
      "type": "event"
    },
    {
      "inputs": [],
      "name": "_owner",
      "outputs": [
        {
          "internalType": "address",
          "name": "",
          "type": "address"
        }
      ],
      "stateMutability": "view",
      "type": "function",
      "constant": true
    },
    {
      "inputs": [
        {
          "internalType": "address",
          "name": "",
          "type": "address"
        }
      ],
      "name": "_tokenSupply",
      "outputs": [
        {
          "internalType": "uint256",
          "name": "",
          "type": "uint256"
        }
      ],
      "stateMutability": "view",
      "type": "function",
      "constant": true
    },
    {
      "inputs": [],
      "name": "isOwner",
      "outputs": [
        {
          "internalType": "bool",
          "name": "",
          "type": "bool"
        }
      ],
      "stateMutability": "view",
      "type": "function",
      "constant": true
    },
    {
      "inputs": [],
      "name": "rate",
      "outputs": [
        {
          "internalType": "uint256",
          "name": "",
          "type": "uint256"
        }
      ],
      "stateMutability": "view",
      "type": "function",
      "constant": true
    },
    {
      "inputs": [
        {
          "internalType": "address",
          "name": "",
          "type": "address"
        },
        {
          "internalType": "address",
          "name": "",
          "type": "address"
        }
      ],
      "name": "tokenOwnerBalance",
      "outputs": [
        {
          "internalType": "uint256",
          "name": "",
          "type": "uint256"
        }
      ],
      "stateMutability": "view",
      "type": "function",
      "constant": true
    },
    {
      "inputs": [
        {
          "internalType": "string",
          "name": "",
          "type": "string"
        }
      ],
      "name": "tokensAllowed",
      "outputs": [
        {
          "internalType": "address",
          "name": "",
          "type": "address"
        }
      ],
      "stateMutability": "view",
      "type": "function",
      "constant": true
    },
    {
      "inputs": [
        {
          "internalType": "address",
          "name": "_newOwner",
          "type": "address"
        }
      ],
      "name": "transferOwnership",
      "outputs": [],
      "stateMutability": "nonpayable",
      "type": "function"
    },
    {
      "stateMutability": "payable",
      "type": "receive",
      "payable": true
    },
    {
      "inputs": [
        {
          "internalType": "string",
          "name": "_symbol",
          "type": "string"
        },
        {
          "internalType": "uint256",
          "name": "_amount",
          "type": "uint256"
        }
      ],
      "name": "withdrawTokens",
      "outputs": [],
      "stateMutability": "nonpayable",
      "type": "function"
    },
    {
      "inputs": [
        {
          "internalType": "string",
          "name": "_symbol",
          "type": "string"
        },
        {
          "internalType": "uint256",
          "name": "_amount",
          "type": "uint256"
        }
      ],
      "name": "withdraw",
      "outputs": [],
      "stateMutability": "nonpayable",
      "type": "function"
    },
    {
      "inputs": [
        {
          "internalType": "string",
          "name": "_symbol",
          "type": "string"
        },
        {
          "internalType": "uint256",
          "name": "_tokenAmount",
          "type": "uint256"
        }
      ],
      "name": "depositTokens",
      "outputs": [],
      "stateMutability": "payable",
      "type": "function",
      "payable": true
    },
    {
      "inputs": [
        {
          "internalType": "string",
          "name": "_symbol",
          "type": "string"
        }
      ],
      "name": "deposit",
      "outputs": [],
      "stateMutability": "payable",
      "type": "function",
      "payable": true
    },
    {
      "inputs": [
        {
          "internalType": "string",
          "name": "_symbol",
          "type": "string"
        },
        {
          "internalType": "address",
          "name": "_tokenAddress",
          "type": "address"
        }
      ],
      "name": "addToken",
      "outputs": [
        {
          "internalType": "bool",
          "name": "",
          "type": "bool"
        }
      ],
      "stateMutability": "nonpayable",
      "type": "function"
    },
    {
      "inputs": [
        {
          "internalType": "string",
          "name": "_symbol",
          "type": "string"
        }
      ],
      "name": "removeToken",
      "outputs": [
        {
          "internalType": "bool",
          "name": "",
          "type": "bool"
        }
      ],
      "stateMutability": "nonpayable",
      "type": "function"
    },
    {
      "inputs": [
        {
          "internalType": "string",
          "name": "_symbol",
          "type": "string"
        }
      ],
      "name": "totalTokenSupply",
      "outputs": [
        {
          "internalType": "uint256",
          "name": "",
          "type": "uint256"
        }
      ],
      "stateMutability": "view",
      "type": "function",
      "constant": true
    },
    {
      "inputs": [
        {
          "internalType": "string",
          "name": "_symbol",
          "type": "string"
        }
      ],
      "name": "balanceOf",
      "outputs": [
        {
          "internalType": "uint256",
          "name": "",
          "type": "uint256"
        }
      ],
      "stateMutability": "view",
      "type": "function",
      "constant": true
    }
  ],
  "bytecode": "0x6080604052600a60015534801561001557600080fd5b50336000806101000a81548173ffffffffffffffffffffffffffffffffffffffff021916908373ffffffffffffffffffffffffffffffffffffffff160217905550612228806100656000396000f3fe6080604052600436106100ec5760003560e01c80638f32d59b1161008a578063b2bdfa7b11610059578063b2bdfa7b1461089b578063d531bc71146108dc578063e9935773146109ae578063f2fde38b14610a7357610141565b80638f32d59b146105c3578063931b5c1e146105f0578063a26e1186146106e2578063b0b22c2c1461079d57610141565b806330b39a62116100c657806330b39a621461032b57806335ee5f87146103fd57806337933da6146104d957806374be5a801461053e57610141565b80631f4559221461014657806325c22dd5146102245780632c4e722e1461030057610141565b36610141573373ffffffffffffffffffffffffffffffffffffffff167fd670118af2f5106578945dd6e0e7ec8146871079961c926ccd38e9a9abb91b72346040518082815260200191505060405180910390a2005b600080fd5b34801561015257600080fd5b5061020c6004803603602081101561016957600080fd5b810190808035906020019064010000000081111561018657600080fd5b82018360208201111561019857600080fd5b803590602001918460018302840111640100000000831117156101ba57600080fd5b91908080601f016020809104026020016040519081016040528093929190818152602001838380828437600081840152601f19601f820116905080830192505050505050509192919290505050610ac4565b60405180821515815260200191505060405180910390f35b34801561023057600080fd5b506102ea6004803603602081101561024757600080fd5b810190808035906020019064010000000081111561026457600080fd5b82018360208201111561027657600080fd5b8035906020019184600183028401116401000000008311171561029857600080fd5b91908080601f016020809104026020016040519081016040528093929190818152602001838380828437600081840152601f19601f820116905080830192505050505050509192919290505050610bd5565b6040518082815260200191505060405180910390f35b34801561030c57600080fd5b50610315610cac565b6040518082815260200191505060405180910390f35b34801561033757600080fd5b506103fb6004803603604081101561034e57600080fd5b810190808035906020019064010000000081111561036b57600080fd5b82018360208201111561037d57600080fd5b8035906020019184600183028401116401000000008311171561039f57600080fd5b91908080601f016020809104026020016040519081016040528093929190818152602001838380828437600081840152601f19601f82011690508083019250505050505050919291929080359060200190929190505050610cb2565b005b34801561040957600080fd5b506104c36004803603602081101561042057600080fd5b810190808035906020019064010000000081111561043d57600080fd5b82018360208201111561044f57600080fd5b8035906020019184600183028401116401000000008311171561047157600080fd5b91908080601f016020809104026020016040519081016040528093929190818152602001838380828437600081840152601f19601f82011690508083019250505050505050919291929050505061101d565b6040518082815260200191505060405180910390f35b3480156104e557600080fd5b50610528600480360360208110156104fc57600080fd5b81019080803573ffffffffffffffffffffffffffffffffffffffff169060200190929190505050611131565b6040518082815260200191505060405180910390f35b34801561054a57600080fd5b506105ad6004803603604081101561056157600080fd5b81019080803573ffffffffffffffffffffffffffffffffffffffff169060200190929190803573ffffffffffffffffffffffffffffffffffffffff169060200190929190505050611149565b6040518082815260200191505060405180910390f35b3480156105cf57600080fd5b506105d861116e565b60405180821515815260200191505060405180910390f35b3480156105fc57600080fd5b506106b66004803603602081101561061357600080fd5b810190808035906020019064010000000081111561063057600080fd5b82018360208201111561064257600080fd5b8035906020019184600183028401116401000000008311171561066457600080fd5b91908080601f016020809104026020016040519081016040528093929190818152602001838380828437600081840152601f19601f8201169050808301925050505050505091929192905050506111c5565b604051808273ffffffffffffffffffffffffffffffffffffffff16815260200191505060405180910390f35b61079b600480360360208110156106f857600080fd5b810190808035906020019064010000000081111561071557600080fd5b82018360208201111561072757600080fd5b8035906020019184600183028401116401000000008311171561074957600080fd5b91908080601f016020809104026020016040519081016040528093929190818152602001838380828437600081840152601f19601f82011690508083019250505050505050919291929050505061120e565b005b3480156107a957600080fd5b50610883600480360360408110156107c057600080fd5b81019080803590602001906401000000008111156107dd57600080fd5b8201836020820111156107ef57600080fd5b8035906020019184600183028401116401000000008311171561081157600080fd5b91908080601f016020809104026020016040519081016040528093929190818152602001838380828437600081840152601f19601f820116905080830192505050505050509192919290803573ffffffffffffffffffffffffffffffffffffffff1690602001909291905050506115d4565b60405180821515815260200191505060405180910390f35b3480156108a757600080fd5b506108b0611688565b604051808273ffffffffffffffffffffffffffffffffffffffff16815260200191505060405180910390f35b3480156108e857600080fd5b506109ac600480360360408110156108ff57600080fd5b810190808035906020019064010000000081111561091c57600080fd5b82018360208201111561092e57600080fd5b8035906020019184600183028401116401000000008311171561095057600080fd5b91908080601f016020809104026020016040519081016040528093929190818152602001838380828437600081840152601f19601f820116905080830192505050505050509192919290803590602001909291905050506116ac565b005b610a71600480360360408110156109c457600080fd5b81019080803590602001906401000000008111156109e157600080fd5b8201836020820111156109f357600080fd5b80359060200191846001830284011164010000000083111715610a1557600080fd5b91908080601f016020809104026020016040519081016040528093929190818152602001838380828437600081840152601f19601f82011690508083019250505050505050919291929080359060200190929190505050611b58565b005b348015610a7f57600080fd5b50610ac260048036036020811015610a9657600080fd5b81019080803573ffffffffffffffffffffffffffffffffffffffff169060200190929190505050612084565b005b6000610ace61116e565b610b40576040517f08c379a00000000000000000000000000000000000000000000000000000000081526004018080602001828103825260168152602001807f596f7520617265206e6f7420746865206f776e65722e0000000000000000000081525060200191505060405180910390fd5b6003826040518082805190602001908083835b60208310610b765780518252602082019150602081019050602083039250610b53565b6001836020036101000a038019825116818451168082178552505050505050905001915050908152602001604051809103902060006101000a81549073ffffffffffffffffffffffffffffffffffffffff021916905560019050919050565b6000806003836040518082805190602001908083835b60208310610c0e5780518252602082019150602081019050602083039250610beb565b6001836020036101000a038019825116818451168082178552505050505050905001915050908152602001604051809103902060009054906101000a900473ffffffffffffffffffffffffffffffffffffffff169050600460008273ffffffffffffffffffffffffffffffffffffffff1673ffffffffffffffffffffffffffffffffffffffff16815260200190815260200160002054915050919050565b60015481565b60006003836040518082805190602001908083835b60208310610cea5780518252602082019150602081019050602083039250610cc7565b6001836020036101000a038019825116818451168082178552505050505050905001915050908152602001604051809103902060009054906101000a900473ffffffffffffffffffffffffffffffffffffffff1690506000600260008373ffffffffffffffffffffffffffffffffffffffff1673ffffffffffffffffffffffffffffffffffffffff16815260200190815260200160002060003373ffffffffffffffffffffffffffffffffffffffff1673ffffffffffffffffffffffffffffffffffffffff16815260200190815260200160002054905080831115610dce57600080fd5b6000831115610f6a57610e20600460008473ffffffffffffffffffffffffffffffffffffffff1673ffffffffffffffffffffffffffffffffffffffff16815260200190815260200160002054846121bf565b600460008473ffffffffffffffffffffffffffffffffffffffff1673ffffffffffffffffffffffffffffffffffffffff16815260200190815260200160002081905550610ee9600260008473ffffffffffffffffffffffffffffffffffffffff1673ffffffffffffffffffffffffffffffffffffffff16815260200190815260200160002060003373ffffffffffffffffffffffffffffffffffffffff1673ffffffffffffffffffffffffffffffffffffffff16815260200190815260200160002054846121bf565b600260008473ffffffffffffffffffffffffffffffffffffffff1673ffffffffffffffffffffffffffffffffffffffff16815260200190815260200160002060003373ffffffffffffffffffffffffffffffffffffffff1673ffffffffffffffffffffffffffffffffffffffff168152602001908152602001600020819055505b3373ffffffffffffffffffffffffffffffffffffffff166108fc849081150290604051600060405180830381858888f19350505050158015610fb0573d6000803e3d6000fd5b50600073ffffffffffffffffffffffffffffffffffffffff163373ffffffffffffffffffffffffffffffffffffffff167f4a39314939a992cd109ba0dcd4547fb405fe016615215f7ba3bd53cb1aa619c8856040518082815260200191505060405180910390a350505050565b6000806003836040518082805190602001908083835b602083106110565780518252602082019150602081019050602083039250611033565b6001836020036101000a038019825116818451168082178552505050505050905001915050908152602001604051809103902060009054906101000a900473ffffffffffffffffffffffffffffffffffffffff169050600260008273ffffffffffffffffffffffffffffffffffffffff1673ffffffffffffffffffffffffffffffffffffffff16815260200190815260200160002060003373ffffffffffffffffffffffffffffffffffffffff1673ffffffffffffffffffffffffffffffffffffffff16815260200190815260200160002054915050919050565b60046020528060005260406000206000915090505481565b6002602052816000526040600020602052806000526040600020600091509150505481565b60008060009054906101000a900473ffffffffffffffffffffffffffffffffffffffff1673ffffffffffffffffffffffffffffffffffffffff163373ffffffffffffffffffffffffffffffffffffffff1614905090565b6003818051602081018201805184825260208301602085012081835280955050505050506000915054906101000a900473ffffffffffffffffffffffffffffffffffffffff1681565b60006003826040518082805190602001908083835b602083106112465780518252602082019150602081019050602083039250611223565b6001836020036101000a038019825116818451168082178552505050505050905001915050908152602001604051809103902060009054906101000a900473ffffffffffffffffffffffffffffffffffffffff16905080600560006101000a81548173ffffffffffffffffffffffffffffffffffffffff021916908373ffffffffffffffffffffffffffffffffffffffff1602179055506000600460008373ffffffffffffffffffffffffffffffffffffffff1673ffffffffffffffffffffffffffffffffffffffff1681526020019081526020016000205411156114bc5761136e600460008373ffffffffffffffffffffffffffffffffffffffff1673ffffffffffffffffffffffffffffffffffffffff16815260200190815260200160002054346121d6565b600460008373ffffffffffffffffffffffffffffffffffffffff1673ffffffffffffffffffffffffffffffffffffffff16815260200190815260200160002081905550611437600260008373ffffffffffffffffffffffffffffffffffffffff1673ffffffffffffffffffffffffffffffffffffffff16815260200190815260200160002060003373ffffffffffffffffffffffffffffffffffffffff1673ffffffffffffffffffffffffffffffffffffffff16815260200190815260200160002054346121d6565b600260008373ffffffffffffffffffffffffffffffffffffffff1673ffffffffffffffffffffffffffffffffffffffff16815260200190815260200160002060003373ffffffffffffffffffffffffffffffffffffffff1673ffffffffffffffffffffffffffffffffffffffff16815260200190815260200160002081905550611582565b34600460008373ffffffffffffffffffffffffffffffffffffffff1673ffffffffffffffffffffffffffffffffffffffff1681526020019081526020016000208190555034600260008373ffffffffffffffffffffffffffffffffffffffff1673ffffffffffffffffffffffffffffffffffffffff16815260200190815260200160002060003373ffffffffffffffffffffffffffffffffffffffff1673ffffffffffffffffffffffffffffffffffffffff168152602001908152602001600020819055505b3373ffffffffffffffffffffffffffffffffffffffff167f338b5dea92b406e11ffb4934504fc21da82d56b24fb3a4f40a176da9186a0d47346040518082815260200191505060405180910390a25050565b6000816003846040518082805190602001908083835b6020831061160d57805182526020820191506020810190506020830392506115ea565b6001836020036101000a038019825116818451168082178552505050505050905001915050908152602001604051809103902060006101000a81548173ffffffffffffffffffffffffffffffffffffffff021916908373ffffffffffffffffffffffffffffffffffffffff1602179055506001905092915050565b60008054906101000a900473ffffffffffffffffffffffffffffffffffffffff1681565b60006003836040518082805190602001908083835b602083106116e457805182526020820191506020810190506020830392506116c1565b6001836020036101000a038019825116818451168082178552505050505050905001915050908152602001604051809103902060009054906101000a900473ffffffffffffffffffffffffffffffffffffffff1690506000600260008373ffffffffffffffffffffffffffffffffffffffff1673ffffffffffffffffffffffffffffffffffffffff16815260200190815260200160002060003373ffffffffffffffffffffffffffffffffffffffff1673ffffffffffffffffffffffffffffffffffffffff16815260200190815260200160002054905081600560006101000a81548173ffffffffffffffffffffffffffffffffffffffff021916908373ffffffffffffffffffffffffffffffffffffffff1602179055508083111561180957600080fd5b60008311156119a55761185b600460008473ffffffffffffffffffffffffffffffffffffffff1673ffffffffffffffffffffffffffffffffffffffff16815260200190815260200160002054846121bf565b600460008473ffffffffffffffffffffffffffffffffffffffff1673ffffffffffffffffffffffffffffffffffffffff16815260200190815260200160002081905550611924600260008473ffffffffffffffffffffffffffffffffffffffff1673ffffffffffffffffffffffffffffffffffffffff16815260200190815260200160002060003373ffffffffffffffffffffffffffffffffffffffff1673ffffffffffffffffffffffffffffffffffffffff16815260200190815260200160002054846121bf565b600260008473ffffffffffffffffffffffffffffffffffffffff1673ffffffffffffffffffffffffffffffffffffffff16815260200190815260200160002060003373ffffffffffffffffffffffffffffffffffffffff1673ffffffffffffffffffffffffffffffffffffffff168152602001908152602001600020819055505b60011515600560009054906101000a900473ffffffffffffffffffffffffffffffffffffffff1673ffffffffffffffffffffffffffffffffffffffff1663a9059cbb33866040518363ffffffff1660e01b8152600401808373ffffffffffffffffffffffffffffffffffffffff16815260200182815260200192505050602060405180830381600087803b158015611a3c57600080fd5b505af1158015611a50573d6000803e3d6000fd5b505050506040513d6020811015611a6657600080fd5b8101908080519060200190929190505050151514611aec576040517f08c379a00000000000000000000000000000000000000000000000000000000081526004018080602001828103825260158152602001807f5472616e73666572206e6f7420636f6d706c657465000000000000000000000081525060200191505060405180910390fd5b600073ffffffffffffffffffffffffffffffffffffffff163373ffffffffffffffffffffffffffffffffffffffff167f4a39314939a992cd109ba0dcd4547fb405fe016615215f7ba3bd53cb1aa619c8856040518082815260200191505060405180910390a350505050565b60006003836040518082805190602001908083835b60208310611b905780518252602082019150602081019050602083039250611b6d565b6001836020036101000a038019825116818451168082178552505050505050905001915050908152602001604051809103902060009054906101000a900473ffffffffffffffffffffffffffffffffffffffff16905080600560006101000a81548173ffffffffffffffffffffffffffffffffffffffff021916908373ffffffffffffffffffffffffffffffffffffffff1602179055506000600460008373ffffffffffffffffffffffffffffffffffffffff1673ffffffffffffffffffffffffffffffffffffffff168152602001908152602001600020541115611e0657611cb8600460008373ffffffffffffffffffffffffffffffffffffffff1673ffffffffffffffffffffffffffffffffffffffff16815260200190815260200160002054836121d6565b600460008373ffffffffffffffffffffffffffffffffffffffff1673ffffffffffffffffffffffffffffffffffffffff16815260200190815260200160002081905550611d81600260008373ffffffffffffffffffffffffffffffffffffffff1673ffffffffffffffffffffffffffffffffffffffff16815260200190815260200160002060003373ffffffffffffffffffffffffffffffffffffffff1673ffffffffffffffffffffffffffffffffffffffff16815260200190815260200160002054836121d6565b600260008373ffffffffffffffffffffffffffffffffffffffff1673ffffffffffffffffffffffffffffffffffffffff16815260200190815260200160002060003373ffffffffffffffffffffffffffffffffffffffff1673ffffffffffffffffffffffffffffffffffffffff16815260200190815260200160002081905550611ecc565b81600460008373ffffffffffffffffffffffffffffffffffffffff1673ffffffffffffffffffffffffffffffffffffffff1681526020019081526020016000208190555081600260008373ffffffffffffffffffffffffffffffffffffffff1673ffffffffffffffffffffffffffffffffffffffff16815260200190815260200160002060003373ffffffffffffffffffffffffffffffffffffffff1673ffffffffffffffffffffffffffffffffffffffff168152602001908152602001600020819055505b60011515600560009054906101000a900473ffffffffffffffffffffffffffffffffffffffff1673ffffffffffffffffffffffffffffffffffffffff166323b872dd3330866040518463ffffffff1660e01b8152600401808473ffffffffffffffffffffffffffffffffffffffff1681526020018373ffffffffffffffffffffffffffffffffffffffff1681526020018281526020019350505050602060405180830381600087803b158015611f8157600080fd5b505af1158015611f95573d6000803e3d6000fd5b505050506040513d6020811015611fab57600080fd5b8101908080519060200190929190505050151514612031576040517f08c379a00000000000000000000000000000000000000000000000000000000081526004018080602001828103825260158152602001807f5472616e73666572206e6f7420636f6d706c657465000000000000000000000081525060200191505060405180910390fd5b3373ffffffffffffffffffffffffffffffffffffffff167f338b5dea92b406e11ffb4934504fc21da82d56b24fb3a4f40a176da9186a0d47836040518082815260200191505060405180910390a2505050565b61208c61116e565b6120fe576040517f08c379a00000000000000000000000000000000000000000000000000000000081526004018080602001828103825260168152602001807f596f7520617265206e6f7420746865206f776e65722e0000000000000000000081525060200191505060405180910390fd5b600073ffffffffffffffffffffffffffffffffffffffff168173ffffffffffffffffffffffffffffffffffffffff16141561213857600080fd5b8073ffffffffffffffffffffffffffffffffffffffff167f8be0079c531659141344cd1fd0a4f28419497f9722a3daafe3b4186f6b6457e060008054906101000a900473ffffffffffffffffffffffffffffffffffffffff16604051808273ffffffffffffffffffffffffffffffffffffffff16815260200191505060405180910390a250565b6000828211156121cb57fe5b818303905092915050565b6000808284019050838110156121e857fe5b809150509291505056fea26469706673582212209771aeaea1af93d51edf47969c45521cb1b6db62cc4033260daddb7b1c7eea2f64736f6c63430007060033",
  "immutableReferences": {},
  "source": "// SPDX-License-Identifier: MIT\npragma solidity >=0.4.22 <0.9.0;\n\nimport \"./Ownable.sol\";\nimport \"./ERC20.sol\";\nimport \"./SafeMath.sol\";\n\ncontract Bank is Ownable {\n\n    uint public rate = 10;\n\n    event onReceived(address indexed _from, uint256 _amount);\n    event onTransfer(address indexed _from, address indexed _to, uint256 _amount);\n    event depositToken(address indexed _from, uint256 _amount);\n\n    /**\n    * @dev a list for each token and each user that has deposited some of that\n    * token into the bank\n    */\n    mapping(address => mapping(address => uint256)) public tokenOwnerBalance;\n    /**\n    * @dev a list of all supported tokens\n    */\n    mapping(string => address) public tokensAllowed;\n    /**\n    * @dev a ledger of the amount of each token in the bank\n    */\n    mapping(address => uint256) public _tokenSupply;\n\n    ERC20 token;\n\n    /**\n    * @dev method that will withdraw tokens from the bank if the caller\n    * has tokens in the bank\n    */\n    function withdrawTokens(string memory _symbol, uint256 _amount) external {\n        address _tokenAddress = tokensAllowed[_symbol];\n        uint256 _tokenBalance = tokenOwnerBalance[_tokenAddress][msg.sender];\n        token = ERC20(address(_tokenAddress));\n        require(_amount <= _tokenBalance);\n        if (_amount > 0) {\n            _tokenSupply[_tokenAddress] = SafeMath.sub(_tokenSupply[_tokenAddress], _amount);\n            tokenOwnerBalance[_tokenAddress][msg.sender] = SafeMath.sub(tokenOwnerBalance[_tokenAddress][msg.sender], _amount);\n        }\n\n        require(token.transfer(msg.sender, _amount) == true, \"Transfer not complete\");\n        emit onTransfer(msg.sender, address(0), _amount);\n    }\n\n    /**\n    * @dev method to withdraw eth from account\n    */\n    function withdraw(string memory _symbol, uint256 _amount) external {\n        address _tokenAddress = tokensAllowed[_symbol];\n        uint256 _tokenBalance = tokenOwnerBalance[_tokenAddress][msg.sender];\n        require(_amount <= _tokenBalance);\n        if (_amount > 0) {\n            _tokenSupply[_tokenAddress] = SafeMath.sub(_tokenSupply[_tokenAddress], _amount);\n            tokenOwnerBalance[_tokenAddress][msg.sender] = SafeMath.sub(tokenOwnerBalance[_tokenAddress][msg.sender], _amount);\n        }\n\n        msg.sender.transfer(_amount);\n\n        emit onTransfer(msg.sender, address(0), _amount);\n    }\n\n    /**\n    * @dev method to deposit tokens into the bank\n    */\n    function depositTokens(string memory _symbol, uint256 _tokenAmount) payable external {\n\n        address _tokenAddress = tokensAllowed[_symbol];\n        token = ERC20(address(_tokenAddress));\n\n        if (_tokenSupply[_tokenAddress] > 0) {\n            _tokenSupply[_tokenAddress] = SafeMath.add(_tokenSupply[_tokenAddress], _tokenAmount);\n            tokenOwnerBalance[_tokenAddress][msg.sender] = SafeMath.add(tokenOwnerBalance[_tokenAddress][msg.sender], _tokenAmount);\n        } else {\n            _tokenSupply[_tokenAddress] = _tokenAmount;\n            tokenOwnerBalance[_tokenAddress][msg.sender] = _tokenAmount;\n        }\n\n        require(token.transferFrom(msg.sender, address(this), _tokenAmount) == true, \"Transfer not complete\");\n\n        emit depositToken(msg.sender, _tokenAmount);\n    }\n\n\n    /**\n    * @dev method to deposit eth into the bank\n    */\n    function deposit(string memory _symbol) payable external {\n\n        address _tokenAddress = tokensAllowed[_symbol];\n        token = ERC20(address(_tokenAddress));\n\n        if (_tokenSupply[_tokenAddress] > 0) {\n            _tokenSupply[_tokenAddress] = SafeMath.add(_tokenSupply[_tokenAddress], msg.value);\n            tokenOwnerBalance[_tokenAddress][msg.sender] = SafeMath.add(tokenOwnerBalance[_tokenAddress][msg.sender], msg.value);\n        } else {\n            _tokenSupply[_tokenAddress] = msg.value;\n            tokenOwnerBalance[_tokenAddress][msg.sender] = msg.value;\n        }\n\n        emit depositToken(msg.sender, msg.value);\n    }\n\n    /**\n    * @dev function that will add a token to the list of supported tokens\n    */\n    function addToken(string memory _symbol, address _tokenAddress) external returns(bool) {\n        tokensAllowed[_symbol] = _tokenAddress;\n        return true;\n    }\n\n    /**\n    * @dev function that will remove token from list of supported tokens\n    */\n    function removeToken(string memory _symbol) external onlyOwner returns (bool) {\n        delete(tokensAllowed[_symbol]);\n        return true;\n    }\n\n    /**\n    * @dev method that will show the total amount of tokens in the bank for\n    */\n    function totalTokenSupply(string memory _symbol) public view returns (uint256) {\n        address _tokenAddress = tokensAllowed[_symbol];\n        return _tokenSupply[_tokenAddress];\n    }\n\n    /**\n    * @dev method that will show the balance that the caller has\n    * for a certain token\n    */\n    function balanceOf(string memory _symbol) public view returns (uint256) {\n        address _tokenAddress = tokensAllowed[_symbol];\n        return tokenOwnerBalance[_tokenAddress][msg.sender];\n    }\n\n    /**\n    * @dev fallback function to receive any eth sent to this contract\n    */\n    receive() payable external {\n        emit onReceived(msg.sender, msg.value);\n    }\n}\n",
  "sourcePath": "/Users/christianroque/Desktop/solidity-playground/contracts/Bank.sol",
  "compiler": {
    "name": "solc",
    "version": "0.7.6+commit.7338295f.Emscripten.clang"
  },
  "schemaVersion": "3.3.4",
  "updatedAt": "2021-03-28T00:31:12.927Z",
  "networkType": "ethereum",
  "devdoc": {
    "kind": "dev",
    "methods": {
      "addToken(string,address)": {
        "details": "function that will add a token to the list of supported tokens"
      },
      "balanceOf(string)": {
        "details": "method that will show the balance that the caller has for a certain token"
      },
      "deposit(string)": {
        "details": "method to deposit eth into the bank"
      },
      "depositTokens(string,uint256)": {
        "details": "method to deposit tokens into the bank"
      },
      "removeToken(string)": {
        "details": "function that will remove token from list of supported tokens"
      },
      "totalTokenSupply(string)": {
        "details": "method that will show the total amount of tokens in the bank for"
      },
      "withdraw(string,uint256)": {
        "details": "method to withdraw eth from account"
      },
      "withdrawTokens(string,uint256)": {
        "details": "method that will withdraw tokens from the bank if the caller has tokens in the bank"
      }
    },
    "stateVariables": {
      "_tokenSupply": {
        "details": "a ledger of the amount of each token in the bank"
      },
      "tokenOwnerBalance": {
        "details": "a list for each token and each user that has deposited some of that token into the bank"
      },
      "tokensAllowed": {
        "details": "a list of all supported tokens"
      }
    },
    "version": 1
  },
  "userdoc": {
    "kind": "user",
    "methods": {},
    "version": 1
  }
}