{
  "contractName": "Bank",
  "abi": [
    {
      "inputs": [],
      "stateMutability": "nonpayable",
      "type": "constructor"
    },
    {
      "anonymous": false,
      "inputs": [
        {
          "indexed": false,
          "internalType": "address",
          "name": "_previousOwner",
          "type": "address"
        },
        {
          "indexed": true,
          "internalType": "address",
          "name": "_newOwner",
          "type": "address"
        }
      ],
      "name": "OwnershipTransferred",
      "type": "event"
    },
    {
      "anonymous": false,
      "inputs": [
        {
          "indexed": true,
          "internalType": "address",
          "name": "_from",
          "type": "address"
        },
        {
          "indexed": false,
          "internalType": "uint256",
          "name": "_amount",
          "type": "uint256"
        }
      ],
      "name": "depositToken",
      "type": "event"
    },
    {
      "anonymous": false,
      "inputs": [
        {
          "indexed": true,
          "internalType": "address",
          "name": "_from",
          "type": "address"
        },
        {
          "indexed": false,
          "internalType": "uint256",
          "name": "_amount",
          "type": "uint256"
        }
      ],
      "name": "onReceived",
      "type": "event"
    },
    {
      "anonymous": false,
      "inputs": [
        {
          "indexed": true,
          "internalType": "address",
          "name": "_from",
          "type": "address"
        },
        {
          "indexed": true,
          "internalType": "address",
          "name": "_to",
          "type": "address"
        },
        {
          "indexed": false,
          "internalType": "uint256",
          "name": "_amount",
          "type": "uint256"
        }
      ],
      "name": "onTransfer",
      "type": "event"
    },
    {
      "inputs": [],
      "name": "_owner",
      "outputs": [
        {
          "internalType": "address",
          "name": "",
          "type": "address"
        }
      ],
      "stateMutability": "view",
      "type": "function",
      "constant": true
    },
    {
      "inputs": [
        {
          "internalType": "address",
          "name": "",
          "type": "address"
        }
      ],
      "name": "_tokenSupply",
      "outputs": [
        {
          "internalType": "uint256",
          "name": "",
          "type": "uint256"
        }
      ],
      "stateMutability": "view",
      "type": "function",
      "constant": true
    },
    {
      "inputs": [],
      "name": "isOwner",
      "outputs": [
        {
          "internalType": "bool",
          "name": "",
          "type": "bool"
        }
      ],
      "stateMutability": "view",
      "type": "function",
      "constant": true
    },
    {
      "inputs": [],
      "name": "rate",
      "outputs": [
        {
          "internalType": "uint256",
          "name": "",
          "type": "uint256"
        }
      ],
      "stateMutability": "view",
      "type": "function",
      "constant": true
    },
    {
      "inputs": [
        {
          "internalType": "address",
          "name": "",
          "type": "address"
        },
        {
          "internalType": "address",
          "name": "",
          "type": "address"
        }
      ],
      "name": "tokenOwnerBalance",
      "outputs": [
        {
          "internalType": "uint256",
          "name": "",
          "type": "uint256"
        }
      ],
      "stateMutability": "view",
      "type": "function",
      "constant": true
    },
    {
      "inputs": [
        {
          "internalType": "string",
          "name": "",
          "type": "string"
        }
      ],
      "name": "tokensAllowed",
      "outputs": [
        {
          "internalType": "address",
          "name": "",
          "type": "address"
        }
      ],
      "stateMutability": "view",
      "type": "function",
      "constant": true
    },
    {
      "inputs": [
        {
          "internalType": "address",
          "name": "_newOwner",
          "type": "address"
        }
      ],
      "name": "transferOwnership",
      "outputs": [],
      "stateMutability": "nonpayable",
      "type": "function"
    },
    {
      "stateMutability": "payable",
      "type": "receive",
      "payable": true
    },
    {
      "inputs": [
        {
          "internalType": "string",
          "name": "_symbol",
          "type": "string"
        },
        {
          "internalType": "uint256",
          "name": "_amount",
          "type": "uint256"
        }
      ],
      "name": "withdraw",
      "outputs": [],
      "stateMutability": "nonpayable",
      "type": "function"
    },
    {
      "inputs": [
        {
          "internalType": "string",
          "name": "_symbol",
          "type": "string"
        }
      ],
      "name": "deposit",
      "outputs": [],
      "stateMutability": "payable",
      "type": "function",
      "payable": true
    },
    {
      "inputs": [
        {
          "internalType": "string",
          "name": "_symbol",
          "type": "string"
        },
        {
          "internalType": "address",
          "name": "_tokenAddress",
          "type": "address"
        }
      ],
      "name": "addToken",
      "outputs": [
        {
          "internalType": "bool",
          "name": "",
          "type": "bool"
        }
      ],
      "stateMutability": "nonpayable",
      "type": "function"
    },
    {
      "inputs": [
        {
          "internalType": "string",
          "name": "_symbol",
          "type": "string"
        }
      ],
      "name": "removeToken",
      "outputs": [
        {
          "internalType": "bool",
          "name": "",
          "type": "bool"
        }
      ],
      "stateMutability": "nonpayable",
      "type": "function"
    },
    {
      "inputs": [
        {
          "internalType": "string",
          "name": "_symbol",
          "type": "string"
        }
      ],
      "name": "totalTokenSupply",
      "outputs": [
        {
          "internalType": "uint256",
          "name": "",
          "type": "uint256"
        }
      ],
      "stateMutability": "view",
      "type": "function",
      "constant": true
    },
    {
      "inputs": [
        {
          "internalType": "string",
          "name": "_symbol",
          "type": "string"
        }
      ],
      "name": "balanceOf",
      "outputs": [
        {
          "internalType": "uint256",
          "name": "",
          "type": "uint256"
        }
      ],
      "stateMutability": "view",
      "type": "function",
      "constant": true
    }
  ],
  "bytecode": "0x6080604052600a60015534801561001557600080fd5b50336000806101000a81548173ffffffffffffffffffffffffffffffffffffffff021916908373ffffffffffffffffffffffffffffffffffffffff1602179055506117de806100656000396000f3fe6080604052600436106100c65760003560e01c806374be5a801161007f578063a26e118611610059578063a26e1186146106bc578063b0b22c2c14610777578063b2bdfa7b14610875578063f2fde38b146108b65761011b565b806374be5a80146105185780638f32d59b1461059d578063931b5c1e146105ca5761011b565b80631f4559221461012057806325c22dd5146101fe5780632c4e722e146102da57806330b39a621461030557806335ee5f87146103d757806337933da6146104b35761011b565b3661011b573373ffffffffffffffffffffffffffffffffffffffff167fd670118af2f5106578945dd6e0e7ec8146871079961c926ccd38e9a9abb91b72346040518082815260200191505060405180910390a2005b600080fd5b34801561012c57600080fd5b506101e66004803603602081101561014357600080fd5b810190808035906020019064010000000081111561016057600080fd5b82018360208201111561017257600080fd5b8035906020019184600183028401116401000000008311171561019457600080fd5b91908080601f016020809104026020016040519081016040528093929190818152602001838380828437600081840152601f19601f820116905080830192505050505050509192919290505050610907565b60405180821515815260200191505060405180910390f35b34801561020a57600080fd5b506102c46004803603602081101561022157600080fd5b810190808035906020019064010000000081111561023e57600080fd5b82018360208201111561025057600080fd5b8035906020019184600183028401116401000000008311171561027257600080fd5b91908080601f016020809104026020016040519081016040528093929190818152602001838380828437600081840152601f19601f820116905080830192505050505050509192919290505050610a18565b6040518082815260200191505060405180910390f35b3480156102e657600080fd5b506102ef610aef565b6040518082815260200191505060405180910390f35b34801561031157600080fd5b506103d56004803603604081101561032857600080fd5b810190808035906020019064010000000081111561034557600080fd5b82018360208201111561035757600080fd5b8035906020019184600183028401116401000000008311171561037957600080fd5b91908080601f016020809104026020016040519081016040528093929190818152602001838380828437600081840152601f19601f82011690508083019250505050505050919291929080359060200190929190505050610af5565b005b3480156103e357600080fd5b5061049d600480360360208110156103fa57600080fd5b810190808035906020019064010000000081111561041757600080fd5b82018360208201111561042957600080fd5b8035906020019184600183028401116401000000008311171561044b57600080fd5b91908080601f016020809104026020016040519081016040528093929190818152602001838380828437600081840152601f19601f820116905080830192505050505050509192919290505050610fa1565b6040518082815260200191505060405180910390f35b3480156104bf57600080fd5b50610502600480360360208110156104d657600080fd5b81019080803573ffffffffffffffffffffffffffffffffffffffff1690602001909291905050506110b5565b6040518082815260200191505060405180910390f35b34801561052457600080fd5b506105876004803603604081101561053b57600080fd5b81019080803573ffffffffffffffffffffffffffffffffffffffff169060200190929190803573ffffffffffffffffffffffffffffffffffffffff1690602001909291905050506110cd565b6040518082815260200191505060405180910390f35b3480156105a957600080fd5b506105b26110f2565b60405180821515815260200191505060405180910390f35b3480156105d657600080fd5b50610690600480360360208110156105ed57600080fd5b810190808035906020019064010000000081111561060a57600080fd5b82018360208201111561061c57600080fd5b8035906020019184600183028401116401000000008311171561063e57600080fd5b91908080601f016020809104026020016040519081016040528093929190818152602001838380828437600081840152601f19601f820116905080830192505050505050509192919290505050611149565b604051808273ffffffffffffffffffffffffffffffffffffffff16815260200191505060405180910390f35b610775600480360360208110156106d257600080fd5b81019080803590602001906401000000008111156106ef57600080fd5b82018360208201111561070157600080fd5b8035906020019184600183028401116401000000008311171561072357600080fd5b91908080601f016020809104026020016040519081016040528093929190818152602001838380828437600081840152601f19601f820116905080830192505050505050509192919290505050611192565b005b34801561078357600080fd5b5061085d6004803603604081101561079a57600080fd5b81019080803590602001906401000000008111156107b757600080fd5b8201836020820111156107c957600080fd5b803590602001918460018302840111640100000000831117156107eb57600080fd5b91908080601f016020809104026020016040519081016040528093929190818152602001838380828437600081840152601f19601f820116905080830192505050505050509192919290803573ffffffffffffffffffffffffffffffffffffffff169060200190929190505050611562565b60405180821515815260200191505060405180910390f35b34801561088157600080fd5b5061088a611616565b604051808273ffffffffffffffffffffffffffffffffffffffff16815260200191505060405180910390f35b3480156108c257600080fd5b50610905600480360360208110156108d957600080fd5b81019080803573ffffffffffffffffffffffffffffffffffffffff16906020019092919050505061163a565b005b60006109116110f2565b610983576040517f08c379a00000000000000000000000000000000000000000000000000000000081526004018080602001828103825260168152602001807f596f7520617265206e6f7420746865206f776e65722e0000000000000000000081525060200191505060405180910390fd5b6003826040518082805190602001908083835b602083106109b95780518252602082019150602081019050602083039250610996565b6001836020036101000a038019825116818451168082178552505050505050905001915050908152602001604051809103902060006101000a81549073ffffffffffffffffffffffffffffffffffffffff021916905560019050919050565b6000806003836040518082805190602001908083835b60208310610a515780518252602082019150602081019050602083039250610a2e565b6001836020036101000a038019825116818451168082178552505050505050905001915050908152602001604051809103902060009054906101000a900473ffffffffffffffffffffffffffffffffffffffff169050600460008273ffffffffffffffffffffffffffffffffffffffff1673ffffffffffffffffffffffffffffffffffffffff16815260200190815260200160002054915050919050565b60015481565b60006003836040518082805190602001908083835b60208310610b2d5780518252602082019150602081019050602083039250610b0a565b6001836020036101000a038019825116818451168082178552505050505050905001915050908152602001604051809103902060009054906101000a900473ffffffffffffffffffffffffffffffffffffffff1690506000600260008373ffffffffffffffffffffffffffffffffffffffff1673ffffffffffffffffffffffffffffffffffffffff16815260200190815260200160002060003373ffffffffffffffffffffffffffffffffffffffff1673ffffffffffffffffffffffffffffffffffffffff16815260200190815260200160002054905081600560006101000a81548173ffffffffffffffffffffffffffffffffffffffff021916908373ffffffffffffffffffffffffffffffffffffffff16021790555080831115610c5257600080fd5b6000831115610dee57610ca4600460008473ffffffffffffffffffffffffffffffffffffffff1673ffffffffffffffffffffffffffffffffffffffff1681526020019081526020016000205484611775565b600460008473ffffffffffffffffffffffffffffffffffffffff1673ffffffffffffffffffffffffffffffffffffffff16815260200190815260200160002081905550610d6d600260008473ffffffffffffffffffffffffffffffffffffffff1673ffffffffffffffffffffffffffffffffffffffff16815260200190815260200160002060003373ffffffffffffffffffffffffffffffffffffffff1673ffffffffffffffffffffffffffffffffffffffff1681526020019081526020016000205484611775565b600260008473ffffffffffffffffffffffffffffffffffffffff1673ffffffffffffffffffffffffffffffffffffffff16815260200190815260200160002060003373ffffffffffffffffffffffffffffffffffffffff1673ffffffffffffffffffffffffffffffffffffffff168152602001908152602001600020819055505b60011515600560009054906101000a900473ffffffffffffffffffffffffffffffffffffffff1673ffffffffffffffffffffffffffffffffffffffff1663095ea7b333866040518363ffffffff1660e01b8152600401808373ffffffffffffffffffffffffffffffffffffffff16815260200182815260200192505050602060405180830381600087803b158015610e8557600080fd5b505af1158015610e99573d6000803e3d6000fd5b505050506040513d6020811015610eaf57600080fd5b8101908080519060200190929190505050151514610f35576040517f08c379a00000000000000000000000000000000000000000000000000000000081526004018080602001828103825260158152602001807f5472616e73666572206e6f7420636f6d706c657465000000000000000000000081525060200191505060405180910390fd5b600073ffffffffffffffffffffffffffffffffffffffff163373ffffffffffffffffffffffffffffffffffffffff167f4a39314939a992cd109ba0dcd4547fb405fe016615215f7ba3bd53cb1aa619c8856040518082815260200191505060405180910390a350505050565b6000806003836040518082805190602001908083835b60208310610fda5780518252602082019150602081019050602083039250610fb7565b6001836020036101000a038019825116818451168082178552505050505050905001915050908152602001604051809103902060009054906101000a900473ffffffffffffffffffffffffffffffffffffffff169050600260008273ffffffffffffffffffffffffffffffffffffffff1673ffffffffffffffffffffffffffffffffffffffff16815260200190815260200160002060003373ffffffffffffffffffffffffffffffffffffffff1673ffffffffffffffffffffffffffffffffffffffff16815260200190815260200160002054915050919050565b60046020528060005260406000206000915090505481565b6002602052816000526040600020602052806000526040600020600091509150505481565b60008060009054906101000a900473ffffffffffffffffffffffffffffffffffffffff1673ffffffffffffffffffffffffffffffffffffffff163373ffffffffffffffffffffffffffffffffffffffff1614905090565b6003818051602081018201805184825260208301602085012081835280955050505050506000915054906101000a900473ffffffffffffffffffffffffffffffffffffffff1681565b60006001543402905060006003836040518082805190602001908083835b602083106111d357805182526020820191506020810190506020830392506111b0565b6001836020036101000a038019825116818451168082178552505050505050905001915050908152602001604051809103902060009054906101000a900473ffffffffffffffffffffffffffffffffffffffff16905080600560006101000a81548173ffffffffffffffffffffffffffffffffffffffff021916908373ffffffffffffffffffffffffffffffffffffffff1602179055506000600460008373ffffffffffffffffffffffffffffffffffffffff1673ffffffffffffffffffffffffffffffffffffffff168152602001908152602001600020541115611449576112fb600460008373ffffffffffffffffffffffffffffffffffffffff1673ffffffffffffffffffffffffffffffffffffffff168152602001908152602001600020548361178c565b600460008373ffffffffffffffffffffffffffffffffffffffff1673ffffffffffffffffffffffffffffffffffffffff168152602001908152602001600020819055506113c4600260008373ffffffffffffffffffffffffffffffffffffffff1673ffffffffffffffffffffffffffffffffffffffff16815260200190815260200160002060003373ffffffffffffffffffffffffffffffffffffffff1673ffffffffffffffffffffffffffffffffffffffff168152602001908152602001600020548361178c565b600260008373ffffffffffffffffffffffffffffffffffffffff1673ffffffffffffffffffffffffffffffffffffffff16815260200190815260200160002060003373ffffffffffffffffffffffffffffffffffffffff1673ffffffffffffffffffffffffffffffffffffffff1681526020019081526020016000208190555061150f565b81600460008373ffffffffffffffffffffffffffffffffffffffff1673ffffffffffffffffffffffffffffffffffffffff1681526020019081526020016000208190555081600260008373ffffffffffffffffffffffffffffffffffffffff1673ffffffffffffffffffffffffffffffffffffffff16815260200190815260200160002060003373ffffffffffffffffffffffffffffffffffffffff1673ffffffffffffffffffffffffffffffffffffffff168152602001908152602001600020819055505b3373ffffffffffffffffffffffffffffffffffffffff167f338b5dea92b406e11ffb4934504fc21da82d56b24fb3a4f40a176da9186a0d47836040518082815260200191505060405180910390a2505050565b6000816003846040518082805190602001908083835b6020831061159b5780518252602082019150602081019050602083039250611578565b6001836020036101000a038019825116818451168082178552505050505050905001915050908152602001604051809103902060006101000a81548173ffffffffffffffffffffffffffffffffffffffff021916908373ffffffffffffffffffffffffffffffffffffffff1602179055506001905092915050565b60008054906101000a900473ffffffffffffffffffffffffffffffffffffffff1681565b6116426110f2565b6116b4576040517f08c379a00000000000000000000000000000000000000000000000000000000081526004018080602001828103825260168152602001807f596f7520617265206e6f7420746865206f776e65722e0000000000000000000081525060200191505060405180910390fd5b600073ffffffffffffffffffffffffffffffffffffffff168173ffffffffffffffffffffffffffffffffffffffff1614156116ee57600080fd5b8073ffffffffffffffffffffffffffffffffffffffff167f8be0079c531659141344cd1fd0a4f28419497f9722a3daafe3b4186f6b6457e060008054906101000a900473ffffffffffffffffffffffffffffffffffffffff16604051808273ffffffffffffffffffffffffffffffffffffffff16815260200191505060405180910390a250565b60008282111561178157fe5b818303905092915050565b60008082840190508381101561179e57fe5b809150509291505056fea2646970667358221220b213adac8100f68258acc5df4c5e84231bb4bb9d22125966c50f7381a09c863164736f6c63430007060033",
  "immutableReferences": {},
  "source": "// SPDX-License-Identifier: MIT\npragma solidity >=0.4.22 <0.9.0;\n\nimport \"./Ownable.sol\";\nimport \"./ERC20.sol\";\nimport \"./SafeMath.sol\";\n\ncontract Bank is Ownable {\n\n    uint public rate = 10;\n\n    event onReceived(address indexed _from, uint256 _amount);\n    event onTransfer(address indexed _from, address indexed _to, uint256 _amount);\n    event depositToken(address indexed _from, uint256 _amount);\n\n    /**\n    * @dev a list for each token and each user that has deposited some of that\n    * token into the bank\n    */\n    mapping(address => mapping(address => uint256)) public tokenOwnerBalance;\n    /**\n    * @dev a list of all supported tokens\n    */\n    mapping(string => address) public tokensAllowed;\n    /**\n    * @dev a ledger of the amount of each token in the bank\n    */\n    mapping(address => uint256) public _tokenSupply;\n\n    ERC20 token;\n\n    constructor() {\n\n    }\n\n    /**\n    * @dev method that will withdraw tokens from the bank if the caller\n    * has tokens in the bank\n    */\n    function withdraw(string memory _symbol, uint256 _amount) external {\n        address _tokenAddress = tokensAllowed[_symbol];\n        uint256 _tokenBalance = tokenOwnerBalance[_tokenAddress][msg.sender];\n        token = ERC20(address(_tokenAddress));\n        require(_amount <= _tokenBalance);\n        if (_amount > 0) {\n            _tokenSupply[_tokenAddress] = SafeMath.sub(_tokenSupply[_tokenAddress], _amount);\n            tokenOwnerBalance[_tokenAddress][msg.sender] = SafeMath.sub(tokenOwnerBalance[_tokenAddress][msg.sender], _amount);\n        }\n\n        require(token.approve(msg.sender, _amount) == true, \"Transfer not complete\");\n        emit onTransfer(msg.sender, address(0), _amount);\n    }\n\n    /**\n    * @dev method to deposit tokens into the bank\n    */\n    function deposit(string memory _symbol) payable external {\n        uint _amount = msg.value * rate;\n        address _tokenAddress = tokensAllowed[_symbol];\n        token = ERC20(address(_tokenAddress));\n\n        if (_tokenSupply[_tokenAddress] > 0) {\n            _tokenSupply[_tokenAddress] = SafeMath.add(_tokenSupply[_tokenAddress], _amount);\n            tokenOwnerBalance[_tokenAddress][msg.sender] = SafeMath.add(tokenOwnerBalance[_tokenAddress][msg.sender], _amount);\n        } else {\n            _tokenSupply[_tokenAddress] = _amount;\n            tokenOwnerBalance[_tokenAddress][msg.sender] = _amount;\n        }\n\n        emit depositToken(msg.sender, _amount);\n    }\n\n    /**\n    * @dev function that will add a token to the list of supported tokens\n    */\n    function addToken(string memory _symbol, address _tokenAddress) external returns(bool) {\n        tokensAllowed[_symbol] = _tokenAddress;\n        return true;\n    }\n\n    /**\n    * @dev function that will remove token from list of supported tokens\n    */\n    function removeToken(string memory _symbol) external onlyOwner returns (bool) {\n        delete(tokensAllowed[_symbol]);\n        return true;\n    }\n\n    /**\n    * @dev method that will show the total amount of tokens in the bank for\n    */\n    function totalTokenSupply(string memory _symbol) public view returns (uint256) {\n        address _tokenAddress = tokensAllowed[_symbol];\n        return _tokenSupply[_tokenAddress];\n    }\n\n    /**\n    * @dev method that will show the balance that the caller has\n    * for a certain token\n    */\n    function balanceOf(string memory _symbol) public view returns (uint256) {\n        address _tokenAddress = tokensAllowed[_symbol];\n        return tokenOwnerBalance[_tokenAddress][msg.sender];\n    }\n\n    /**\n    * @dev fallback function to receive any eth sent to this contract\n    */\n    receive() payable external {\n        emit onReceived(msg.sender, msg.value);\n    }\n}\n",
  "sourcePath": "/Users/christianroque/Desktop/solidity-playground/contracts/Bank.sol",
  "compiler": {
    "name": "solc",
    "version": "0.7.6+commit.7338295f.Emscripten.clang"
  },
  "schemaVersion": "3.3.4",
  "updatedAt": "2021-03-27T20:22:41.037Z",
  "networkType": "ethereum",
  "devdoc": {
    "kind": "dev",
    "methods": {
      "addToken(string,address)": {
        "details": "function that will add a token to the list of supported tokens"
      },
      "balanceOf(string)": {
        "details": "method that will show the balance that the caller has for a certain token"
      },
      "deposit(string)": {
        "details": "method to deposit tokens into the bank"
      },
      "removeToken(string)": {
        "details": "function that will remove token from list of supported tokens"
      },
      "totalTokenSupply(string)": {
        "details": "method that will show the total amount of tokens in the bank for"
      },
      "withdraw(string,uint256)": {
        "details": "method that will withdraw tokens from the bank if the caller has tokens in the bank"
      }
    },
    "stateVariables": {
      "_tokenSupply": {
        "details": "a ledger of the amount of each token in the bank"
      },
      "tokenOwnerBalance": {
        "details": "a list for each token and each user that has deposited some of that token into the bank"
      },
      "tokensAllowed": {
        "details": "a list of all supported tokens"
      }
    },
    "version": 1
  },
  "userdoc": {
    "kind": "user",
    "methods": {},
    "version": 1
  }
}