{
  "contractName": "Bank",
  "abi": [
    {
      "inputs": [
        {
          "internalType": "address[]",
          "name": "addresses",
          "type": "address[]"
        },
        {
          "internalType": "address",
          "name": "_CBLT",
          "type": "address"
        }
      ],
      "stateMutability": "nonpayable",
      "type": "constructor"
    },
    {
      "anonymous": false,
      "inputs": [
        {
          "indexed": false,
          "internalType": "address",
          "name": "_previousOwner",
          "type": "address"
        },
        {
          "indexed": true,
          "internalType": "address",
          "name": "_newOwner",
          "type": "address"
        }
      ],
      "name": "OwnershipTransferred",
      "type": "event"
    },
    {
      "anonymous": false,
      "inputs": [
        {
          "indexed": true,
          "internalType": "address",
          "name": "_from",
          "type": "address"
        },
        {
          "indexed": false,
          "internalType": "uint256",
          "name": "_amount",
          "type": "uint256"
        }
      ],
      "name": "depositToken",
      "type": "event"
    },
    {
      "anonymous": false,
      "inputs": [
        {
          "indexed": true,
          "internalType": "address",
          "name": "_from",
          "type": "address"
        },
        {
          "indexed": false,
          "internalType": "uint256",
          "name": "_amount",
          "type": "uint256"
        }
      ],
      "name": "onReceived",
      "type": "event"
    },
    {
      "anonymous": false,
      "inputs": [
        {
          "indexed": true,
          "internalType": "address",
          "name": "_from",
          "type": "address"
        },
        {
          "indexed": true,
          "internalType": "address",
          "name": "_to",
          "type": "address"
        },
        {
          "indexed": false,
          "internalType": "uint256",
          "name": "_amount",
          "type": "uint256"
        }
      ],
      "name": "onTransfer",
      "type": "event"
    },
    {
      "inputs": [],
      "name": "_owner",
      "outputs": [
        {
          "internalType": "address",
          "name": "",
          "type": "address"
        }
      ],
      "stateMutability": "view",
      "type": "function"
    },
    {
      "inputs": [
        {
          "internalType": "address",
          "name": "",
          "type": "address"
        }
      ],
      "name": "_tokenSupply",
      "outputs": [
        {
          "internalType": "uint256",
          "name": "",
          "type": "uint256"
        }
      ],
      "stateMutability": "view",
      "type": "function"
    },
    {
      "inputs": [
        {
          "internalType": "address",
          "name": "",
          "type": "address"
        }
      ],
      "name": "etherBalance",
      "outputs": [
        {
          "internalType": "uint256",
          "name": "",
          "type": "uint256"
        }
      ],
      "stateMutability": "view",
      "type": "function"
    },
    {
      "inputs": [],
      "name": "isOwner",
      "outputs": [
        {
          "internalType": "bool",
          "name": "",
          "type": "bool"
        }
      ],
      "stateMutability": "view",
      "type": "function"
    },
    {
      "inputs": [],
      "name": "rate",
      "outputs": [
        {
          "internalType": "uint256",
          "name": "",
          "type": "uint256"
        }
      ],
      "stateMutability": "view",
      "type": "function"
    },
    {
      "inputs": [
        {
          "internalType": "address",
          "name": "",
          "type": "address"
        },
        {
          "internalType": "address",
          "name": "",
          "type": "address"
        }
      ],
      "name": "tokenOwnerBalance",
      "outputs": [
        {
          "internalType": "uint256",
          "name": "",
          "type": "uint256"
        }
      ],
      "stateMutability": "view",
      "type": "function"
    },
    {
      "inputs": [
        {
          "internalType": "address",
          "name": "",
          "type": "address"
        }
      ],
      "name": "tokensAllowed",
      "outputs": [
        {
          "internalType": "bool",
          "name": "",
          "type": "bool"
        }
      ],
      "stateMutability": "view",
      "type": "function"
    },
    {
      "inputs": [
        {
          "internalType": "address",
          "name": "_newOwner",
          "type": "address"
        }
      ],
      "name": "transferOwnership",
      "outputs": [],
      "stateMutability": "nonpayable",
      "type": "function"
    },
    {
      "stateMutability": "payable",
      "type": "receive"
    },
    {
      "inputs": [
        {
          "internalType": "address",
          "name": "_tokenAddress",
          "type": "address"
        },
        {
          "internalType": "uint256",
          "name": "_amount",
          "type": "uint256"
        }
      ],
      "name": "withdrawTokens",
      "outputs": [],
      "stateMutability": "nonpayable",
      "type": "function"
    },
    {
      "inputs": [
        {
          "internalType": "uint256",
          "name": "_amount",
          "type": "uint256"
        }
      ],
      "name": "withdraw",
      "outputs": [],
      "stateMutability": "nonpayable",
      "type": "function"
    },
    {
      "inputs": [
        {
          "internalType": "address",
          "name": "_tokenAddress",
          "type": "address"
        },
        {
          "internalType": "uint256",
          "name": "_tokenAmount",
          "type": "uint256"
        }
      ],
      "name": "depositTokens",
      "outputs": [],
      "stateMutability": "payable",
      "type": "function"
    },
    {
      "inputs": [],
      "name": "deposit",
      "outputs": [],
      "stateMutability": "payable",
      "type": "function"
    },
    {
      "inputs": [
        {
          "internalType": "address",
          "name": "_tokenAddress",
          "type": "address"
        }
      ],
      "name": "addToken",
      "outputs": [
        {
          "internalType": "bool",
          "name": "",
          "type": "bool"
        }
      ],
      "stateMutability": "nonpayable",
      "type": "function"
    },
    {
      "inputs": [
        {
          "internalType": "address",
          "name": "_tokenAddress",
          "type": "address"
        }
      ],
      "name": "removeToken",
      "outputs": [
        {
          "internalType": "bool",
          "name": "",
          "type": "bool"
        }
      ],
      "stateMutability": "nonpayable",
      "type": "function"
    },
    {
      "inputs": [
        {
          "internalType": "address",
          "name": "_tokenAddress",
          "type": "address"
        }
      ],
      "name": "totalTokenSupply",
      "outputs": [
        {
          "internalType": "uint256",
          "name": "",
          "type": "uint256"
        }
      ],
      "stateMutability": "view",
      "type": "function"
    },
    {
      "inputs": [],
      "name": "balanceOf",
      "outputs": [
        {
          "internalType": "uint256",
          "name": "",
          "type": "uint256"
        }
      ],
      "stateMutability": "view",
      "type": "function"
    },
    {
      "inputs": [
        {
          "internalType": "address",
          "name": "_tokenAddress",
          "type": "address"
        }
      ],
      "name": "balanceOfToken",
      "outputs": [
        {
          "internalType": "uint256",
          "name": "",
          "type": "uint256"
        }
      ],
      "stateMutability": "view",
      "type": "function"
    },
    {
      "inputs": [
        {
          "internalType": "uint256",
          "name": "interestRateNumerator",
          "type": "uint256"
        },
        {
          "internalType": "uint256",
          "name": "interestRateDenominator",
          "type": "uint256"
        },
        {
          "internalType": "uint256",
          "name": "_paymentPeriod",
          "type": "uint256"
        },
        {
          "internalType": "uint256",
          "name": "_minimumPayment",
          "type": "uint256"
        },
        {
          "internalType": "uint256",
          "name": "principal",
          "type": "uint256"
        },
        {
          "internalType": "uint256",
          "name": "units",
          "type": "uint256"
        }
      ],
      "name": "newLoan",
      "outputs": [],
      "stateMutability": "nonpayable",
      "type": "function"
    },
    {
      "inputs": [],
      "name": "makePayment",
      "outputs": [],
      "stateMutability": "payable",
      "type": "function"
    },
    {
      "inputs": [],
      "name": "missedPayment",
      "outputs": [],
      "stateMutability": "nonpayable",
      "type": "function"
    },
    {
      "inputs": [],
      "name": "returnCollateral",
      "outputs": [],
      "stateMutability": "nonpayable",
      "type": "function"
    },
    {
      "inputs": [],
      "name": "cleanSlate",
      "outputs": [],
      "stateMutability": "nonpayable",
      "type": "function"
    }
  ],
  "bytecode": "0x6080604052600a6001553480156200001657600080fd5b5060405162002a4638038062002a46833981810160405260408110156200003c57600080fd5b81019080805160405193929190846401000000008211156200005d57600080fd5b838201915060208201858111156200007457600080fd5b82518660208202830111640100000000821117156200009257600080fd5b8083526020830192505050908051906020019060200280838360005b83811015620000cb578082015181840152602081019050620000ae565b5050505090500160405260200180519060200190929190505050336000806101000a81548173ffffffffffffffffffffffffffffffffffffffff021916908373ffffffffffffffffffffffffffffffffffffffff16021790555060005b8251811015620001ac576001600560008584815181106200014557fe5b602002602001015173ffffffffffffffffffffffffffffffffffffffff1673ffffffffffffffffffffffffffffffffffffffff16815260200190815260200160002060006101000a81548160ff021916908315150217905550808060010191505062000128565b5080600260006101000a81548173ffffffffffffffffffffffffffffffffffffffff021916908373ffffffffffffffffffffffffffffffffffffffff160217905550505061284680620002006000396000f3fe6080604052600436106101395760003560e01c80638f32d59b116100ab578063cd0c58961161006f578063cd0c589614610608578063d0e30db01461066d578063d48bfca714610677578063d8d79700146106de578063eeda452b146106e8578063f2fde38b1461074f5761018e565b80638f32d59b14610507578063a3f0bb6614610534578063b2bdfa7b1461054b578063b99152d01461058c578063c7d5f598146105f15761018e565b806344ed456f116100fd57806344ed456f1461031e5780635fa7b5841461033557806366168bd71461039c578063722713f7146103ea57806374be5a801461041557806382190e4d1461049a5761018e565b806306b091f9146101935780632c2332fe146101ee5780632c4e722e146102535780632e1a7d4d1461027e57806337933da6146102b95761018e565b3661018e573373ffffffffffffffffffffffffffffffffffffffff167fd670118af2f5106578945dd6e0e7ec8146871079961c926ccd38e9a9abb91b72346040518082815260200191505060405180910390a2005b600080fd5b34801561019f57600080fd5b506101ec600480360360408110156101b657600080fd5b81019080803573ffffffffffffffffffffffffffffffffffffffff169060200190929190803590602001909291905050506107a0565b005b3480156101fa57600080fd5b5061023d6004803603602081101561021157600080fd5b81019080803573ffffffffffffffffffffffffffffffffffffffff169060200190929190505050610ccd565b6040518082815260200191505060405180910390f35b34801561025f57600080fd5b50610268610d16565b6040518082815260200191505060405180910390f35b34801561028a57600080fd5b506102b7600480360360208110156102a157600080fd5b8101908080359060200190929190505050610d1c565b005b3480156102c557600080fd5b50610308600480360360208110156102dc57600080fd5b81019080803573ffffffffffffffffffffffffffffffffffffffff169060200190929190505050610efe565b6040518082815260200191505060405180910390f35b34801561032a57600080fd5b50610333610f16565b005b34801561034157600080fd5b506103846004803603602081101561035857600080fd5b81019080803573ffffffffffffffffffffffffffffffffffffffff169060200190929190505050611107565b60405180821515815260200191505060405180910390f35b6103e8600480360360408110156103b257600080fd5b81019080803573ffffffffffffffffffffffffffffffffffffffff169060200190929190803590602001909291905050506111db565b005b3480156103f657600080fd5b506103ff61162b565b6040518082815260200191505060405180910390f35b34801561042157600080fd5b506104846004803603604081101561043857600080fd5b81019080803573ffffffffffffffffffffffffffffffffffffffff169060200190929190803573ffffffffffffffffffffffffffffffffffffffff169060200190929190505050611672565b6040518082815260200191505060405180910390f35b3480156104a657600080fd5b50610505600480360360c08110156104bd57600080fd5b81019080803590602001909291908035906020019092919080359060200190929190803590602001909291908035906020019092919080359060200190929190505050611697565b005b34801561051357600080fd5b5061051c611a5d565b60405180821515815260200191505060405180910390f35b34801561054057600080fd5b50610549611ab4565b005b34801561055757600080fd5b50610560611bd5565b604051808273ffffffffffffffffffffffffffffffffffffffff16815260200191505060405180910390f35b34801561059857600080fd5b506105db600480360360208110156105af57600080fd5b81019080803573ffffffffffffffffffffffffffffffffffffffff169060200190929190505050611bf9565b6040518082815260200191505060405180910390f35b3480156105fd57600080fd5b50610606611c7f565b005b34801561061457600080fd5b506106576004803603602081101561062b57600080fd5b81019080803573ffffffffffffffffffffffffffffffffffffffff169060200190929190505050611dc3565b6040518082815260200191505060405180910390f35b610675611ddb565b005b34801561068357600080fd5b506106c66004803603602081101561069a57600080fd5b81019080803573ffffffffffffffffffffffffffffffffffffffff169060200190929190505050611eb7565b60405180821515815260200191505060405180910390f35b6106e6611f94565b005b3480156106f457600080fd5b506107376004803603602081101561070b57600080fd5b81019080803573ffffffffffffffffffffffffffffffffffffffff1690602001909291905050506120f0565b60405180821515815260200191505060405180910390f35b34801561075b57600080fd5b5061079e6004803603602081101561077257600080fd5b81019080803573ffffffffffffffffffffffffffffffffffffffff169060200190929190505050612110565b005b60011515600560008473ffffffffffffffffffffffffffffffffffffffff1673ffffffffffffffffffffffffffffffffffffffff16815260200190815260200160002060009054906101000a900460ff16151514610866576040517f08c379a00000000000000000000000000000000000000000000000000000000081526004018080602001828103825260168152602001807f546f6b656e206973206e6f7420737570706f727465640000000000000000000081525060200191505060405180910390fd5b600460008373ffffffffffffffffffffffffffffffffffffffff1673ffffffffffffffffffffffffffffffffffffffff16815260200190815260200160002060003373ffffffffffffffffffffffffffffffffffffffff1673ffffffffffffffffffffffffffffffffffffffff168152602001908152602001600020548111156108ef57600080fd5b6000811415610949576040517f08c379a00000000000000000000000000000000000000000000000000000000081526004018080602001828103825260248152602001806127be6024913960400191505060405180910390fd5b81600260006101000a81548173ffffffffffffffffffffffffffffffffffffffff021916908373ffffffffffffffffffffffffffffffffffffffff1602179055506109d3600660008473ffffffffffffffffffffffffffffffffffffffff1673ffffffffffffffffffffffffffffffffffffffff168152602001908152602001600020548261224b565b600660008473ffffffffffffffffffffffffffffffffffffffff1673ffffffffffffffffffffffffffffffffffffffff16815260200190815260200160002081905550610a9c600460008473ffffffffffffffffffffffffffffffffffffffff1673ffffffffffffffffffffffffffffffffffffffff16815260200190815260200160002060003373ffffffffffffffffffffffffffffffffffffffff1673ffffffffffffffffffffffffffffffffffffffff168152602001908152602001600020548261224b565b600460008473ffffffffffffffffffffffffffffffffffffffff1673ffffffffffffffffffffffffffffffffffffffff16815260200190815260200160002060003373ffffffffffffffffffffffffffffffffffffffff1673ffffffffffffffffffffffffffffffffffffffff1681526020019081526020016000208190555060011515600260009054906101000a900473ffffffffffffffffffffffffffffffffffffffff1673ffffffffffffffffffffffffffffffffffffffff1663a9059cbb33846040518363ffffffff1660e01b8152600401808373ffffffffffffffffffffffffffffffffffffffff16815260200182815260200192505050602060405180830381600087803b158015610bb357600080fd5b505af1158015610bc7573d6000803e3d6000fd5b505050506040513d6020811015610bdd57600080fd5b8101908080519060200190929190505050151514610c63576040517f08c379a00000000000000000000000000000000000000000000000000000000081526004018080602001828103825260158152602001807f5472616e73666572206e6f7420636f6d706c657465000000000000000000000081525060200191505060405180910390fd5b600073ffffffffffffffffffffffffffffffffffffffff163373ffffffffffffffffffffffffffffffffffffffff167f4a39314939a992cd109ba0dcd4547fb405fe016615215f7ba3bd53cb1aa619c8836040518082815260200191505060405180910390a35050565b6000600660008373ffffffffffffffffffffffffffffffffffffffff1673ffffffffffffffffffffffffffffffffffffffff168152602001908152602001600020549050919050565b60015481565b600760003373ffffffffffffffffffffffffffffffffffffffff1673ffffffffffffffffffffffffffffffffffffffff16815260200190815260200160002054811115610d6857600080fd5b6000811415610dc2576040517f08c379a00000000000000000000000000000000000000000000000000000000081526004018080602001828103825260248152602001806127be6024913960400191505060405180910390fd5b610e0b600760003373ffffffffffffffffffffffffffffffffffffffff1673ffffffffffffffffffffffffffffffffffffffff168152602001908152602001600020548261224b565b600760003373ffffffffffffffffffffffffffffffffffffffff1673ffffffffffffffffffffffffffffffffffffffff168152602001908152602001600020819055503373ffffffffffffffffffffffffffffffffffffffff166108fc829081150290604051600060405180830381858888f19350505050158015610e94573d6000803e3d6000fd5b50600073ffffffffffffffffffffffffffffffffffffffff163373ffffffffffffffffffffffffffffffffffffffff167f4a39314939a992cd109ba0dcd4547fb405fe016615215f7ba3bd53cb1aa619c8836040518082815260200191505060405180910390a350565b60066020528060005260406000206000915090505481565b6000600360003373ffffffffffffffffffffffffffffffffffffffff1673ffffffffffffffffffffffffffffffffffffffff1681526020019081526020016000206005015414610f6557600080fd5b6000600260009054906101000a900473ffffffffffffffffffffffffffffffffffffffff1673ffffffffffffffffffffffffffffffffffffffff166370a08231306040518263ffffffff1660e01b8152600401808273ffffffffffffffffffffffffffffffffffffffff16815260200191505060206040518083038186803b158015610ff057600080fd5b505afa158015611004573d6000803e3d6000fd5b505050506040513d602081101561101a57600080fd5b81019080805190602001909291905050509050600260009054906101000a900473ffffffffffffffffffffffffffffffffffffffff1673ffffffffffffffffffffffffffffffffffffffff1663a9059cbb33836040518363ffffffff1660e01b8152600401808373ffffffffffffffffffffffffffffffffffffffff16815260200182815260200192505050602060405180830381600087803b1580156110c057600080fd5b505af11580156110d4573d6000803e3d6000fd5b505050506040513d60208110156110ea57600080fd5b810190808051906020019092919050505061110457600080fd5b50565b6000611111611a5d565b611183576040517f08c379a00000000000000000000000000000000000000000000000000000000081526004018080602001828103825260168152602001807f596f7520617265206e6f7420746865206f776e65722e0000000000000000000081525060200191505060405180910390fd5b600560008373ffffffffffffffffffffffffffffffffffffffff1673ffffffffffffffffffffffffffffffffffffffff16815260200190815260200160002060006101000a81549060ff021916905560019050919050565b60011515600560008473ffffffffffffffffffffffffffffffffffffffff1673ffffffffffffffffffffffffffffffffffffffff16815260200190815260200160002060009054906101000a900460ff161515146112a1576040517f08c379a00000000000000000000000000000000000000000000000000000000081526004018080602001828103825260168152602001807f546f6b656e206973206e6f7420737570706f727465640000000000000000000081525060200191505060405180910390fd5b81600260006101000a81548173ffffffffffffffffffffffffffffffffffffffff021916908373ffffffffffffffffffffffffffffffffffffffff16021790555061132b600660008473ffffffffffffffffffffffffffffffffffffffff1673ffffffffffffffffffffffffffffffffffffffff1681526020019081526020016000205482612262565b600660008473ffffffffffffffffffffffffffffffffffffffff1673ffffffffffffffffffffffffffffffffffffffff168152602001908152602001600020819055506113f4600460008473ffffffffffffffffffffffffffffffffffffffff1673ffffffffffffffffffffffffffffffffffffffff16815260200190815260200160002060003373ffffffffffffffffffffffffffffffffffffffff1673ffffffffffffffffffffffffffffffffffffffff1681526020019081526020016000205482612262565b600460008473ffffffffffffffffffffffffffffffffffffffff1673ffffffffffffffffffffffffffffffffffffffff16815260200190815260200160002060003373ffffffffffffffffffffffffffffffffffffffff1673ffffffffffffffffffffffffffffffffffffffff1681526020019081526020016000208190555060011515600260009054906101000a900473ffffffffffffffffffffffffffffffffffffffff1673ffffffffffffffffffffffffffffffffffffffff166323b872dd3330856040518463ffffffff1660e01b8152600401808473ffffffffffffffffffffffffffffffffffffffff1681526020018373ffffffffffffffffffffffffffffffffffffffff1681526020018281526020019350505050602060405180830381600087803b15801561152957600080fd5b505af115801561153d573d6000803e3d6000fd5b505050506040513d602081101561155357600080fd5b81019080805190602001909291905050501515146115d9576040517f08c379a00000000000000000000000000000000000000000000000000000000081526004018080602001828103825260158152602001807f5472616e73666572206e6f7420636f6d706c657465000000000000000000000081525060200191505060405180910390fd5b3373ffffffffffffffffffffffffffffffffffffffff167f338b5dea92b406e11ffb4934504fc21da82d56b24fb3a4f40a176da9186a0d47826040518082815260200191505060405180910390a25050565b6000600760003373ffffffffffffffffffffffffffffffffffffffff1673ffffffffffffffffffffffffffffffffffffffff16815260200190815260200160002054905090565b6004602052816000526040600020602052806000526040600020600091509150505481565b60001515600360003373ffffffffffffffffffffffffffffffffffffffff1673ffffffffffffffffffffffffffffffffffffffff16815260200190815260200160002060080160019054906101000a900460ff161515146116f757600080fd5b60011515600260009054906101000a900473ffffffffffffffffffffffffffffffffffffffff1673ffffffffffffffffffffffffffffffffffffffff166323b872dd3330600c86026040518463ffffffff1660e01b8152600401808473ffffffffffffffffffffffffffffffffffffffff1681526020018373ffffffffffffffffffffffffffffffffffffffff1681526020018281526020019350505050602060405180830381600087803b1580156117af57600080fd5b505af11580156117c3573d6000803e3d6000fd5b505050506040513d60208110156117d957600080fd5b810190808051906020019092919050505015151461185f576040517f08c379a00000000000000000000000000000000000000000000000000000000081526004018080602001828103825260198152602001807f5061796d656e7420776173206e6f7420617070726f7665642e0000000000000081525060200191505060405180910390fd5b6040518061012001604052803373ffffffffffffffffffffffffffffffffffffffff1681526020018542018152602001604051806040016040528089815260200188815250815260200185815260200183815260200184815260200182815260200160001515815260200160011515815250600360003373ffffffffffffffffffffffffffffffffffffffff1673ffffffffffffffffffffffffffffffffffffffff16815260200190815260200160002060008201518160000160006101000a81548173ffffffffffffffffffffffffffffffffffffffff021916908373ffffffffffffffffffffffffffffffffffffffff1602179055506020820151816001015560408201518160020160008201518160000155602082015181600101555050606082015181600401556080820151816005015560a0820151816006015560c0820151816007015560e08201518160080160006101000a81548160ff0219169083151502179055506101008201518160080160016101000a81548160ff02191690831515021790555090505060008184029050838282816119fd57fe5b0414611a54576040517f08c379a000000000000000000000000000000000000000000000000000000000815260040180806020018281038252602f8152602001806127e2602f913960400191505060405180910390fd5b50505050505050565b60008060009054906101000a900473ffffffffffffffffffffffffffffffffffffffff1673ffffffffffffffffffffffffffffffffffffffff163373ffffffffffffffffffffffffffffffffffffffff1614905090565b6000600360003373ffffffffffffffffffffffffffffffffffffffff1673ffffffffffffffffffffffffffffffffffffffff1681526020019081526020016000206005015414611b0357600080fd5b600360003373ffffffffffffffffffffffffffffffffffffffff1673ffffffffffffffffffffffffffffffffffffffff168152602001908152602001600020600080820160006101000a81549073ffffffffffffffffffffffffffffffffffffffff02191690556001820160009055600282016000808201600090556001820160009055505060048201600090556005820160009055600682016000905560078201600090556008820160006101000a81549060ff02191690556008820160016101000a81549060ff02191690555050565b60008054906101000a900473ffffffffffffffffffffffffffffffffffffffff1681565b6000600460008373ffffffffffffffffffffffffffffffffffffffff1673ffffffffffffffffffffffffffffffffffffffff16815260200190815260200160002060003373ffffffffffffffffffffffffffffffffffffffff1673ffffffffffffffffffffffffffffffffffffffff168152602001908152602001600020549050919050565b600360003373ffffffffffffffffffffffffffffffffffffffff1673ffffffffffffffffffffffffffffffffffffffff168152602001908152602001600020600101544211611ccd57600080fd5b600080611d1b600360003373ffffffffffffffffffffffffffffffffffffffff1673ffffffffffffffffffffffffffffffffffffffff1681526020019081526020016000206006015461227e565b8092508193505050600360003373ffffffffffffffffffffffffffffffffffffffff1673ffffffffffffffffffffffffffffffffffffffff16815260200190815260200160002060050154811115611db357600360003373ffffffffffffffffffffffffffffffffffffffff1673ffffffffffffffffffffffffffffffffffffffff1681526020019081526020016000206005015490505b611dbf82826000612346565b5050565b60076020528060005260406000206000915090505481565b611e24600760003373ffffffffffffffffffffffffffffffffffffffff1673ffffffffffffffffffffffffffffffffffffffff1681526020019081526020016000205434612262565b600760003373ffffffffffffffffffffffffffffffffffffffff1673ffffffffffffffffffffffffffffffffffffffff168152602001908152602001600020819055503373ffffffffffffffffffffffffffffffffffffffff167f338b5dea92b406e11ffb4934504fc21da82d56b24fb3a4f40a176da9186a0d47346040518082815260200191505060405180910390a2565b6000611ec1611a5d565b611f33576040517f08c379a00000000000000000000000000000000000000000000000000000000081526004018080602001828103825260168152602001807f596f7520617265206e6f7420746865206f776e65722e0000000000000000000081525060200191505060405180910390fd5b6001600560008473ffffffffffffffffffffffffffffffffffffffff1673ffffffffffffffffffffffffffffffffffffffff16815260200190815260200160002060006101000a81548160ff02191690831515021790555060019050919050565b600360003373ffffffffffffffffffffffffffffffffffffffff1673ffffffffffffffffffffffffffffffffffffffff16815260200190815260200160002060010154421115611fe357600080fd5b600080611fef3461227e565b8092508193505050600360003373ffffffffffffffffffffffffffffffffffffffff1673ffffffffffffffffffffffffffffffffffffffff1681526020019081526020016000206005015481111561204657600080fd5b600360003373ffffffffffffffffffffffffffffffffffffffff1673ffffffffffffffffffffffffffffffffffffffff16815260200190815260200160002060060154341015806120d85750600360003373ffffffffffffffffffffffffffffffffffffffff1673ffffffffffffffffffffffffffffffffffffffff1681526020019081526020016000206005015481145b6120e157600080fd5b6120ec828233612346565b5050565b60056020528060005260406000206000915054906101000a900460ff1681565b612118611a5d565b61218a576040517f08c379a00000000000000000000000000000000000000000000000000000000081526004018080602001828103825260168152602001807f596f7520617265206e6f7420746865206f776e65722e0000000000000000000081525060200191505060405180910390fd5b600073ffffffffffffffffffffffffffffffffffffffff168173ffffffffffffffffffffffffffffffffffffffff1614156121c457600080fd5b8073ffffffffffffffffffffffffffffffffffffffff167f8be0079c531659141344cd1fd0a4f28419497f9722a3daafe3b4186f6b6457e060008054906101000a900473ffffffffffffffffffffffffffffffffffffffff16604051808273ffffffffffffffffffffffffffffffffffffffff16815260200191505060405180910390a250565b60008282111561225757fe5b818303905092915050565b60008082840190508381101561227457fe5b8091505092915050565b60008061232d600360003373ffffffffffffffffffffffffffffffffffffffff1673ffffffffffffffffffffffffffffffffffffffff16815260200190815260200160002060050154600360003373ffffffffffffffffffffffffffffffffffffffff1673ffffffffffffffffffffffffffffffffffffffff16815260200190815260200160002060020160405180604001604052908160008201548152602001600182015481525050612641565b91508183101561233c57600080fd5b8183039050915091565b600073ffffffffffffffffffffffffffffffffffffffff168173ffffffffffffffffffffffffffffffffffffffff16141561247257600061238883850161265f565b905082600360003373ffffffffffffffffffffffffffffffffffffffff1673ffffffffffffffffffffffffffffffffffffffff16815260200190815260200160002060050160008282540392505081905550600360003373ffffffffffffffffffffffffffffffffffffffff1673ffffffffffffffffffffffffffffffffffffffff16815260200190815260200160002060040154600360003373ffffffffffffffffffffffffffffffffffffffff1673ffffffffffffffffffffffffffffffffffffffff168152602001908152602001600020600101600082825401925050819055505061263c565b600061247f83850161265f565b905082600360003373ffffffffffffffffffffffffffffffffffffffff1673ffffffffffffffffffffffffffffffffffffffff16815260200190815260200160002060050160008282540392505081905550600360003373ffffffffffffffffffffffffffffffffffffffff1673ffffffffffffffffffffffffffffffffffffffff16815260200190815260200160002060040154600360003373ffffffffffffffffffffffffffffffffffffffff1673ffffffffffffffffffffffffffffffffffffffff16815260200190815260200160002060010160008282540192505081905550600260009054906101000a900473ffffffffffffffffffffffffffffffffffffffff1673ffffffffffffffffffffffffffffffffffffffff1663a9059cbb83836040518363ffffffff1660e01b8152600401808373ffffffffffffffffffffffffffffffffffffffff16815260200182815260200192505050602060405180830381600087803b1580156125f657600080fd5b505af115801561260a573d6000803e3d6000fd5b505050506040513d602081101561262057600080fd5b810190808051906020019092919050505061263a57600080fd5b505b505050565b60008160200151826000015184028161265657fe5b04905092915050565b60008082600360003373ffffffffffffffffffffffffffffffffffffffff1673ffffffffffffffffffffffffffffffffffffffff1681526020019081526020016000206007015402905082600360003373ffffffffffffffffffffffffffffffffffffffff1673ffffffffffffffffffffffffffffffffffffffff1681526020019081526020016000206007015482816126f557fe5b0414612769576040517f08c379a00000000000000000000000000000000000000000000000000000000081526004018080602001828103825260178152602001807f7061796d656e7420636175736573206f766572666c6f7700000000000000000081525060200191505060405180910390fd5b600360003373ffffffffffffffffffffffffffffffffffffffff1673ffffffffffffffffffffffffffffffffffffffff1681526020019081526020016000206006015481816127b457fe5b0491505091905056fe576974686472617720616d6f756e742063616e6e6f7420626520657175616c20746f20306d696e696d756d5061796d656e74202a20636f6c6c61746572616c5065725061796d656e74206f766572666c6f7773a2646970667358221220eb3269c30d749f0d8b7ea68ea273ea4474f99f67a2d33d280dbab112f4ed4df864736f6c63430007060033",
  "immutableReferences": {},
  "source": "// SPDX-License-Identifier: MIT\npragma solidity >=0.4.22 <0.9.0;\n\nimport \"./Ownable.sol\";\nimport \"./ERC20.sol\";\nimport \"./SafeMath.sol\";\n\ncontract Bank is Ownable {\n    uint256 public rate = 10;\n    ERC20 token;\n\n    /**\n     * @dev mapping used to store all loan information with the key of borrower address\n     *  and value of Loan struct with all loan information\n     */\n    mapping(address => Loan) loanBook;\n\n    constructor(address[] memory addresses, address _CBLT) public {\n        for (uint256 i = 0; i < addresses.length; i++) {\n            tokensAllowed[addresses[i]] = true;\n        }\n        token = ERC20(_CBLT);\n    }\n\n    /**\n     * @dev Struct created so save all loan information\n     */\n    struct Loan {\n        address borrower;\n        uint256 dueDate;\n        Rational interestRate;\n        uint256 paymentPeriod;\n        uint256 remainingBalance;\n        uint256 minimumPayment;\n        uint256 collateralPerPayment;\n        bool active;\n        bool initialized;\n    }\n\n    /**\n     * @dev Struct used to calculate interest rate\n     */\n    struct Rational {\n        uint256 numerator;\n        uint256 denominator;\n    }\n\n    /**\n     * @dev Events emitted\n     */\n    event onReceived(address indexed _from, uint256 _amount);\n    event onTransfer(\n        address indexed _from,\n        address indexed _to,\n        uint256 _amount\n    );\n    event depositToken(address indexed _from, uint256 _amount);\n\n    /**\n     * @dev a list for each token and each user that has deposited some of that\n     * token into the bank\n     */\n    mapping(address => mapping(address => uint256)) public tokenOwnerBalance;\n    /**\n     * @dev a list of all supported tokens\n     */\n    mapping(address => bool) public tokensAllowed;\n    /**\n     * @dev a ledger of the amount of each token in the bank\n     */\n    mapping(address => uint256) public _tokenSupply;\n\n    /**\n     * @dev a ledger of the amount of each token in the bank\n     */\n    mapping(address => uint256) public etherBalance;\n\n    /**\n     * @dev method that will withdraw tokens from the bank if the caller\n     * has tokens in the bank\n     */\n\n    function withdrawTokens(address _tokenAddress, uint256 _amount) external {\n        //Check if token is not supported by bank\n        require(tokensAllowed[_tokenAddress] == true, \"Token is not supported\");\n        // Is the user trying to withdraw more tokens than he has in balance?\n        require(_amount <= tokenOwnerBalance[_tokenAddress][msg.sender]);\n        // Withdraw cannot be equal to zero\n        require(_amount != 0, \"Withdraw amount cannot be equal to 0\");\n\n        token = ERC20(address(_tokenAddress));\n\n        _tokenSupply[_tokenAddress] = SafeMath.sub(\n            _tokenSupply[_tokenAddress],\n            _amount\n        );\n        tokenOwnerBalance[_tokenAddress][msg.sender] = SafeMath.sub(\n            tokenOwnerBalance[_tokenAddress][msg.sender],\n            _amount\n        );\n\n        require(\n            token.transfer(msg.sender, _amount) == true,\n            \"Transfer not complete\"\n        );\n        emit onTransfer(msg.sender, address(0), _amount);\n    }\n\n    /**\n     * @dev method to withdraw eth from account\n     */\n\n    function withdraw(uint256 _amount) external {\n        require(_amount <= etherBalance[msg.sender]);\n        require(_amount != 0, \"Withdraw amount cannot be equal to 0\");\n\n        etherBalance[msg.sender] = SafeMath.sub(\n            etherBalance[msg.sender],\n            _amount\n        );\n\n        msg.sender.transfer(_amount);\n\n        emit onTransfer(msg.sender, address(0), _amount);\n    }\n\n    /**\n     * @dev method to deposit tokens into the bank\n     */\n    function depositTokens(address _tokenAddress, uint256 _tokenAmount)\n        external\n        payable\n    {\n        //Check if token is not supported by bank\n        require(tokensAllowed[_tokenAddress] == true, \"Token is not supported\");\n        token = ERC20(address(_tokenAddress));\n\n        _tokenSupply[_tokenAddress] = SafeMath.add(\n            _tokenSupply[_tokenAddress],\n            _tokenAmount\n        );\n        tokenOwnerBalance[_tokenAddress][msg.sender] = SafeMath.add(\n            tokenOwnerBalance[_tokenAddress][msg.sender],\n            _tokenAmount\n        );\n\n        require(\n            token.transferFrom(msg.sender, address(this), _tokenAmount) == true,\n            \"Transfer not complete\"\n        );\n\n        emit depositToken(msg.sender, _tokenAmount);\n    }\n\n    /**\n     * @dev method to deposit eth into the bank\n     */\n    function deposit() external payable {\n        etherBalance[msg.sender] = SafeMath.add(\n            etherBalance[msg.sender],\n            msg.value\n        );\n\n        emit depositToken(msg.sender, msg.value);\n    }\n\n    /**\n     * @dev function that will add a token to the list of supported tokens\n     */\n    function addToken(address _tokenAddress) external onlyOwner returns (bool) {\n        tokensAllowed[_tokenAddress] = true;\n        return true;\n    }\n\n    /**\n     * @dev function that will remove token from list of supported tokens\n     */\n    function removeToken(address _tokenAddress)\n        external\n        onlyOwner\n        returns (bool)\n    {\n        delete (tokensAllowed[_tokenAddress]);\n        return true;\n    }\n\n    /**\n     * @dev method that will show the total amount of tokens in the bank for\n     */\n    function totalTokenSupply(address _tokenAddress)\n        public\n        view\n        returns (uint256)\n    {\n        return _tokenSupply[_tokenAddress];\n    }\n\n    /**\n     * @dev method that will show the balance that the caller has\n     * for a certain token\n     */\n    function balanceOf() public view returns (uint256) {\n        return etherBalance[msg.sender];\n    }\n\n    function balanceOfToken(address _tokenAddress)\n        public\n        view\n        returns (uint256)\n    {\n        return tokenOwnerBalance[_tokenAddress][msg.sender];\n    }\n\n    /**\n     * @dev fallback function to receive any eth sent to this contract\n     */\n\n    receive() external payable {\n        emit onReceived(msg.sender, msg.value);\n    }\n\n    // ****************************** Lending **********************************\n\n    /**\n     * @dev Recalculates interest and also conducts check and balances\n     */\n    function newLoan(\n        uint256 interestRateNumerator,\n        uint256 interestRateDenominator,\n        uint256 _paymentPeriod,\n        uint256 _minimumPayment,\n        uint256 principal,\n        uint256 units\n    ) public {\n        // Needs user approve on transfer funds amount\n        // token.approve(address(this), _minimumPayment);\n\n        require(loanBook[msg.sender].initialized == false);\n        require(\n            token.transferFrom(msg.sender, address(this), units * 12) == true,\n            \"Payment was not approved.\"\n        );\n        loanBook[msg.sender] = Loan(\n            msg.sender,\n            (block.timestamp + _paymentPeriod),\n            Rational(interestRateNumerator, interestRateDenominator),\n            _paymentPeriod,\n            principal,\n            _minimumPayment,\n            units,\n            false,\n            true\n        );\n\n        uint256 x = _minimumPayment * units;\n        require(\n            x / units == _minimumPayment,\n            \"minimumPayment * collateralPerPayment overflows\"\n        );\n    }\n\n    /**\n     * @dev Prevents overflows\n     *\n     */\n    function multiply(uint256 x, Rational memory r)\n        internal\n        pure\n        returns (uint256)\n    {\n        return (x * r.numerator) / r.denominator;\n    }\n\n    /**\n     * @dev Recalculates interest and also conducts check and balances\n     *\n     */\n    function calculateComponents(uint256 amount)\n        internal\n        view\n        returns (uint256 interest, uint256 principal)\n    {\n        interest = multiply(\n            loanBook[msg.sender].remainingBalance,\n            loanBook[msg.sender].interestRate\n        );\n        require(amount >= interest);\n        principal = amount - interest;\n        return (interest, principal);\n    }\n\n    /**\n     * @dev he loan is parameterized with collateralPerPayment,\n     *which represents the amount of collateral that will be returned\n     * or forfeited based on a minimumPayment. If the borrower pays an\n     *amount different than the minimum, the amount of collateral returned\n     * is adjusted proportionally.\n     *\n     */\n    function calculateCollateral(uint256 payment)\n        internal\n        view\n        returns (uint256 units)\n    {\n        uint256 product = loanBook[msg.sender].collateralPerPayment * payment;\n        require(\n            product / loanBook[msg.sender].collateralPerPayment == payment,\n            \"payment causes overflow\"\n        );\n        units = product / loanBook[msg.sender].minimumPayment;\n        return units;\n    }\n\n    /**\n     * @dev a symmetry between accepting loan payments and handling missed payments.\n     * In both cases, there is an adjustment to the remaining principal balance and a\n     * corresponding transfer of tokens. The only difference is that the tokens are\n     * returned to the borrower after a payment, but they are forfeited to the lender\n     * after a missed payment\n     *\n     *Additional Note: the code above does the token transfer last, which follows the\n     * Checks-Effects-Interactions pattern to avoid potential reentrancy vulnerabilities\n     */\n    function processPeriod(\n        uint256 interest,\n        uint256 principal,\n        address recipient\n    ) internal {\n        if (recipient == 0x0000000000000000000000000000000000000000) {\n            uint256 units = calculateCollateral(interest + principal);\n\n            loanBook[msg.sender].remainingBalance -= principal;\n\n            loanBook[msg.sender].dueDate += loanBook[msg.sender].paymentPeriod;\n        } else {\n            uint256 units = calculateCollateral(interest + principal);\n\n            loanBook[msg.sender].remainingBalance -= principal;\n\n            loanBook[msg.sender].dueDate += loanBook[msg.sender].paymentPeriod;\n\n            require(token.transfer(recipient, units));\n        }\n    }\n\n    /**\n     * @dev Function for the user to make a payment with ETH\n     *\n     */\n    function makePayment() public payable {\n        require(block.timestamp <= loanBook[msg.sender].dueDate);\n\n        uint256 interest;\n        uint256 principal;\n        (interest, principal) = calculateComponents(msg.value);\n\n        require(principal <= loanBook[msg.sender].remainingBalance);\n        require(\n            msg.value >= loanBook[msg.sender].minimumPayment ||\n                principal == loanBook[msg.sender].remainingBalance\n        );\n\n        processPeriod(interest, principal, msg.sender);\n    }\n\n    /**\n     * @dev  computes the principal component of the missed payment.\n     * This assumes the payment was the minimum amount, which is true\n     * for all but, possibly, the last payment. The conditional handles\n     * the boundary condition when the principal remaining is less than\n     * the principal component of a minimum payment.\n     *\n     */\n    function missedPayment() public {\n        require(block.timestamp > loanBook[msg.sender].dueDate);\n\n        uint256 interest;\n        uint256 principal;\n        (interest, principal) = calculateComponents(\n            loanBook[msg.sender].minimumPayment\n        );\n\n        if (principal > loanBook[msg.sender].remainingBalance) {\n            principal = loanBook[msg.sender].remainingBalance;\n        }\n\n        processPeriod(\n            interest,\n            principal,\n            0x0000000000000000000000000000000000000000\n        );\n    }\n\n    /**\n     * @dev  smart contract allows borrowers to pay more than the minimum,\n     * which will ultimately lead to less total paid because of avoided interest.\n     * If used, this feature will lead to excess collateral owned by the loan contract\n     * after its been fully paid off. This collateral belongs to the borrower.\n     * The simplest way to handle that is to allow excess tokens to be claimed when the remainingBalance is zero:\n     *\n     */\n    function returnCollateral() public {\n        require(loanBook[msg.sender].remainingBalance == 0);\n\n        uint256 amount = token.balanceOf(address(this));\n        require(token.transfer(msg.sender, amount));\n    }\n\n    /**\n     * @dev Deletes loan instance once the user has paid his first loan in full\n     */\n    function cleanSlate() public {\n        require(loanBook[msg.sender].remainingBalance == 0);\n        delete loanBook[msg.sender];\n    }\n}\n",
  "sourcePath": "/Users/christianroque/Desktop/solidity-playground/contracts/Bank.sol",
  "compiler": {
    "name": "solc",
    "version": "0.7.6+commit.7338295f.Emscripten.clang"
  },
  "schemaVersion": "3.3.4",
  "updatedAt": "2021-04-06T03:52:39.437Z",
  "devdoc": {
    "events": {
      "onReceived(address,uint256)": {
        "details": "Events emitted"
      }
    },
    "kind": "dev",
    "methods": {
      "addToken(address)": {
        "details": "function that will add a token to the list of supported tokens"
      },
      "balanceOf()": {
        "details": "method that will show the balance that the caller has for a certain token"
      },
      "cleanSlate()": {
        "details": "Deletes loan instance once the user has paid his first loan in full"
      },
      "deposit()": {
        "details": "method to deposit eth into the bank"
      },
      "depositTokens(address,uint256)": {
        "details": "method to deposit tokens into the bank"
      },
      "makePayment()": {
        "details": "Function for the user to make a payment with ETH"
      },
      "missedPayment()": {
        "details": "computes the principal component of the missed payment. This assumes the payment was the minimum amount, which is true for all but, possibly, the last payment. The conditional handles the boundary condition when the principal remaining is less than the principal component of a minimum payment."
      },
      "newLoan(uint256,uint256,uint256,uint256,uint256,uint256)": {
        "details": "Recalculates interest and also conducts check and balances"
      },
      "removeToken(address)": {
        "details": "function that will remove token from list of supported tokens"
      },
      "returnCollateral()": {
        "details": "smart contract allows borrowers to pay more than the minimum, which will ultimately lead to less total paid because of avoided interest. If used, this feature will lead to excess collateral owned by the loan contract after its been fully paid off. This collateral belongs to the borrower. The simplest way to handle that is to allow excess tokens to be claimed when the remainingBalance is zero:"
      },
      "totalTokenSupply(address)": {
        "details": "method that will show the total amount of tokens in the bank for"
      },
      "withdraw(uint256)": {
        "details": "method to withdraw eth from account"
      },
      "withdrawTokens(address,uint256)": {
        "details": "method that will withdraw tokens from the bank if the caller has tokens in the bank"
      }
    },
    "stateVariables": {
      "_tokenSupply": {
        "details": "a ledger of the amount of each token in the bank"
      },
      "etherBalance": {
        "details": "a ledger of the amount of each token in the bank"
      },
      "loanBook": {
        "details": "mapping used to store all loan information with the key of borrower address  and value of Loan struct with all loan information"
      },
      "tokenOwnerBalance": {
        "details": "a list for each token and each user that has deposited some of that token into the bank"
      },
      "tokensAllowed": {
        "details": "a list of all supported tokens"
      }
    },
    "version": 1
  },
  "userdoc": {
    "kind": "user",
    "methods": {},
    "version": 1
  }
}