{
  "contractName": "Bank",
  "abi": [
    {
      "inputs": [
        {
          "internalType": "address[]",
          "name": "addresses",
          "type": "address[]"
        },
        {
          "internalType": "address",
          "name": "_CBLT",
          "type": "address"
        },
        {
          "internalType": "address",
          "name": "_oracle",
          "type": "address"
        }
      ],
      "stateMutability": "nonpayable",
      "type": "constructor"
    },
    {
      "anonymous": false,
      "inputs": [
        {
          "indexed": false,
          "internalType": "address",
          "name": "_previousOwner",
          "type": "address"
        },
        {
          "indexed": true,
          "internalType": "address",
          "name": "_newOwner",
          "type": "address"
        }
      ],
      "name": "OwnershipTransferred",
      "type": "event"
    },
    {
      "anonymous": false,
      "inputs": [
        {
          "indexed": true,
          "internalType": "address",
          "name": "_from",
          "type": "address"
        },
        {
          "indexed": false,
          "internalType": "uint256",
          "name": "_amount",
          "type": "uint256"
        }
      ],
      "name": "depositToken",
      "type": "event"
    },
    {
      "anonymous": false,
      "inputs": [
        {
          "indexed": true,
          "internalType": "address",
          "name": "_from",
          "type": "address"
        },
        {
          "indexed": false,
          "internalType": "uint256",
          "name": "_amount",
          "type": "uint256"
        }
      ],
      "name": "onReceived",
      "type": "event"
    },
    {
      "anonymous": false,
      "inputs": [
        {
          "indexed": true,
          "internalType": "address",
          "name": "_from",
          "type": "address"
        },
        {
          "indexed": true,
          "internalType": "address",
          "name": "_to",
          "type": "address"
        },
        {
          "indexed": false,
          "internalType": "uint256",
          "name": "_amount",
          "type": "uint256"
        }
      ],
      "name": "onTransfer",
      "type": "event"
    },
    {
      "inputs": [],
      "name": "_owner",
      "outputs": [
        {
          "internalType": "address",
          "name": "",
          "type": "address"
        }
      ],
      "stateMutability": "view",
      "type": "function"
    },
    {
      "inputs": [
        {
          "internalType": "address",
          "name": "",
          "type": "address"
        }
      ],
      "name": "_tokenSupply",
      "outputs": [
        {
          "internalType": "uint256",
          "name": "",
          "type": "uint256"
        }
      ],
      "stateMutability": "view",
      "type": "function"
    },
    {
      "inputs": [
        {
          "internalType": "address",
          "name": "",
          "type": "address"
        }
      ],
      "name": "etherBalance",
      "outputs": [
        {
          "internalType": "uint256",
          "name": "",
          "type": "uint256"
        }
      ],
      "stateMutability": "view",
      "type": "function"
    },
    {
      "inputs": [],
      "name": "isOwner",
      "outputs": [
        {
          "internalType": "bool",
          "name": "",
          "type": "bool"
        }
      ],
      "stateMutability": "view",
      "type": "function"
    },
    {
      "inputs": [],
      "name": "state",
      "outputs": [
        {
          "internalType": "enum Bank.State",
          "name": "",
          "type": "uint8"
        }
      ],
      "stateMutability": "view",
      "type": "function"
    },
    {
      "inputs": [
        {
          "internalType": "address",
          "name": "",
          "type": "address"
        },
        {
          "internalType": "address",
          "name": "",
          "type": "address"
        }
      ],
      "name": "tokenOwnerBalance",
      "outputs": [
        {
          "internalType": "uint256",
          "name": "",
          "type": "uint256"
        }
      ],
      "stateMutability": "view",
      "type": "function"
    },
    {
      "inputs": [
        {
          "internalType": "address",
          "name": "",
          "type": "address"
        }
      ],
      "name": "tokensAllowed",
      "outputs": [
        {
          "internalType": "bool",
          "name": "",
          "type": "bool"
        }
      ],
      "stateMutability": "view",
      "type": "function"
    },
    {
      "inputs": [
        {
          "internalType": "address",
          "name": "_newOwner",
          "type": "address"
        }
      ],
      "name": "transferOwnership",
      "outputs": [],
      "stateMutability": "nonpayable",
      "type": "function"
    },
    {
      "stateMutability": "payable",
      "type": "receive"
    },
    {
      "inputs": [
        {
          "internalType": "address payable",
          "name": "_chromium",
          "type": "address"
        }
      ],
      "name": "setChromium",
      "outputs": [],
      "stateMutability": "nonpayable",
      "type": "function"
    },
    {
      "inputs": [
        {
          "internalType": "address",
          "name": "_token",
          "type": "address"
        }
      ],
      "name": "isTokenAllowed",
      "outputs": [
        {
          "internalType": "bool",
          "name": "",
          "type": "bool"
        }
      ],
      "stateMutability": "view",
      "type": "function"
    },
    {
      "inputs": [
        {
          "internalType": "contract IERC20",
          "name": "fromToken",
          "type": "address"
        },
        {
          "internalType": "contract IERC20",
          "name": "cbltToken",
          "type": "address"
        },
        {
          "internalType": "address",
          "name": "to",
          "type": "address"
        },
        {
          "internalType": "uint256",
          "name": "amount",
          "type": "uint256"
        },
        {
          "internalType": "uint256",
          "name": "minReturn",
          "type": "uint256"
        }
      ],
      "name": "withdrawCbltForExchange",
      "outputs": [],
      "stateMutability": "payable",
      "type": "function"
    },
    {
      "inputs": [
        {
          "internalType": "address",
          "name": "_tokenAddress",
          "type": "address"
        },
        {
          "internalType": "uint256",
          "name": "_amount",
          "type": "uint256"
        }
      ],
      "name": "withdrawTokens",
      "outputs": [],
      "stateMutability": "nonpayable",
      "type": "function"
    },
    {
      "inputs": [
        {
          "internalType": "uint256",
          "name": "_amount",
          "type": "uint256"
        }
      ],
      "name": "withdraw",
      "outputs": [],
      "stateMutability": "nonpayable",
      "type": "function"
    },
    {
      "inputs": [
        {
          "internalType": "address",
          "name": "_tokenAddress",
          "type": "address"
        },
        {
          "internalType": "uint256",
          "name": "_tokenAmount",
          "type": "uint256"
        }
      ],
      "name": "depositTokens",
      "outputs": [],
      "stateMutability": "payable",
      "type": "function"
    },
    {
      "inputs": [],
      "name": "deposit",
      "outputs": [],
      "stateMutability": "payable",
      "type": "function"
    },
    {
      "inputs": [
        {
          "internalType": "address",
          "name": "_tokenAddress",
          "type": "address"
        }
      ],
      "name": "addToken",
      "outputs": [
        {
          "internalType": "bool",
          "name": "",
          "type": "bool"
        }
      ],
      "stateMutability": "nonpayable",
      "type": "function"
    },
    {
      "inputs": [
        {
          "internalType": "address",
          "name": "_tokenAddress",
          "type": "address"
        }
      ],
      "name": "removeToken",
      "outputs": [
        {
          "internalType": "bool",
          "name": "",
          "type": "bool"
        }
      ],
      "stateMutability": "nonpayable",
      "type": "function"
    },
    {
      "inputs": [
        {
          "internalType": "address",
          "name": "_tokenAddress",
          "type": "address"
        }
      ],
      "name": "totalTokenSupply",
      "outputs": [
        {
          "internalType": "uint256",
          "name": "",
          "type": "uint256"
        }
      ],
      "stateMutability": "view",
      "type": "function"
    },
    {
      "inputs": [],
      "name": "balanceOf",
      "outputs": [
        {
          "internalType": "uint256",
          "name": "",
          "type": "uint256"
        }
      ],
      "stateMutability": "view",
      "type": "function"
    },
    {
      "inputs": [
        {
          "internalType": "address",
          "name": "_tokenAddress",
          "type": "address"
        }
      ],
      "name": "balanceOfToken",
      "outputs": [
        {
          "internalType": "uint256",
          "name": "",
          "type": "uint256"
        }
      ],
      "stateMutability": "view",
      "type": "function"
    },
    {
      "inputs": [
        {
          "internalType": "uint256",
          "name": "interestRateNumerator",
          "type": "uint256"
        },
        {
          "internalType": "uint256",
          "name": "interestRateDenominator",
          "type": "uint256"
        },
        {
          "internalType": "uint256",
          "name": "_paymentPeriod",
          "type": "uint256"
        },
        {
          "internalType": "uint256",
          "name": "_minimumPayment",
          "type": "uint256"
        },
        {
          "internalType": "uint256",
          "name": "principal",
          "type": "uint256"
        },
        {
          "internalType": "uint256",
          "name": "units",
          "type": "uint256"
        }
      ],
      "name": "newLoan",
      "outputs": [],
      "stateMutability": "payable",
      "type": "function"
    },
    {
      "inputs": [],
      "name": "tallyVotes",
      "outputs": [],
      "stateMutability": "nonpayable",
      "type": "function"
    },
    {
      "inputs": [],
      "name": "makePayment",
      "outputs": [],
      "stateMutability": "payable",
      "type": "function"
    },
    {
      "inputs": [],
      "name": "missedPayment",
      "outputs": [],
      "stateMutability": "nonpayable",
      "type": "function"
    },
    {
      "inputs": [],
      "name": "returnCollateral",
      "outputs": [],
      "stateMutability": "nonpayable",
      "type": "function"
    },
    {
      "inputs": [],
      "name": "cleanSlate",
      "outputs": [],
      "stateMutability": "nonpayable",
      "type": "function"
    },
    {
      "inputs": [
        {
          "internalType": "uint256",
          "name": "_signature",
          "type": "uint256"
        },
        {
          "internalType": "bool",
          "name": "_vote",
          "type": "bool"
        }
      ],
      "name": "doVote",
      "outputs": [
        {
          "internalType": "bool",
          "name": "voted",
          "type": "bool"
        }
      ],
      "stateMutability": "nonpayable",
      "type": "function"
    },
    {
      "inputs": [
        {
          "internalType": "uint256",
          "name": "_amount",
          "type": "uint256"
        },
        {
          "internalType": "uint256",
          "name": "_timeStakedTier",
          "type": "uint256"
        },
        {
          "internalType": "uint256",
          "name": "_amountStakedTier",
          "type": "uint256"
        }
      ],
      "name": "calculateReward",
      "outputs": [
        {
          "internalType": "uint256",
          "name": "",
          "type": "uint256"
        }
      ],
      "stateMutability": "nonpayable",
      "type": "function"
    },
    {
      "inputs": [
        {
          "internalType": "uint256",
          "name": "_timeStakedTier",
          "type": "uint256"
        }
      ],
      "name": "depositEth",
      "outputs": [],
      "stateMutability": "payable",
      "type": "function"
    },
    {
      "inputs": [
        {
          "internalType": "uint256",
          "name": "_amount",
          "type": "uint256"
        }
      ],
      "name": "withdrawEth",
      "outputs": [],
      "stateMutability": "nonpayable",
      "type": "function"
    },
    {
      "inputs": [],
      "name": "testUserData",
      "outputs": [
        {
          "internalType": "uint256",
          "name": "",
          "type": "uint256"
        },
        {
          "internalType": "uint256",
          "name": "",
          "type": "uint256"
        },
        {
          "internalType": "uint256",
          "name": "",
          "type": "uint256"
        },
        {
          "internalType": "uint256",
          "name": "",
          "type": "uint256"
        }
      ],
      "stateMutability": "view",
      "type": "function"
    },
    {
      "inputs": [],
      "name": "withdrawStaking",
      "outputs": [],
      "stateMutability": "payable",
      "type": "function"
    }
  ],
  "bytecode": "0x60806040526040518060400160405280600181526020016014815250600460008201518160000155602082015181600101555050620186a0600f553480156200004757600080fd5b5060405162004a0f38038062004a0f833981810160405260608110156200006d57600080fd5b81019080805160405193929190846401000000008211156200008e57600080fd5b83820191506020820185811115620000a557600080fd5b8251866020820283011164010000000082111715620000c357600080fd5b8083526020830192505050908051906020019060200280838360005b83811015620000fc578082015181840152602081019050620000df565b505050509050016040526020018051906020019092919080519060200190929190505050336000806101000a81548173ffffffffffffffffffffffffffffffffffffffff021916908373ffffffffffffffffffffffffffffffffffffffff16021790555060005b8351811015620001e7576001600960008684815181106200018057fe5b602002602001015173ffffffffffffffffffffffffffffffffffffffff1673ffffffffffffffffffffffffffffffffffffffff16815260200190815260200160002060006101000a81548160ff021916908315150217905550808060010191505062000163565b5080600260006101000a81548173ffffffffffffffffffffffffffffffffffffffff021916908373ffffffffffffffffffffffffffffffffffffffff16021790555081600160006101000a81548173ffffffffffffffffffffffffffffffffffffffff021916908373ffffffffffffffffffffffffffffffffffffffff1602179055506005600d600060018152602001908152602001600020600060018152602001908152602001600020819055506006600d600060018152602001908152602001600020600060028152602001908152602001600020819055506007600d600060018152602001908152602001600020600060038152602001908152602001600020819055506008600d600060018152602001908152602001600020600060048152602001908152602001600020819055506009600d600060018152602001908152602001600020600060058152602001908152602001600020819055506006600d600060028152602001908152602001600020600060018152602001908152602001600020819055506007600d600060028152602001908152602001600020600060028152602001908152602001600020819055506008600d600060028152602001908152602001600020600060038152602001908152602001600020819055506009600d60006002815260200190815260200160002060006004815260200190815260200160002081905550600a600d600060028152602001908152602001600020600060058152602001908152602001600020819055506007600d600060038152602001908152602001600020600060018152602001908152602001600020819055506008600d600060038152602001908152602001600020600060028152602001908152602001600020819055506009600d60006003815260200190815260200160002060006003815260200190815260200160002081905550600a600d60006003815260200190815260200160002060006004815260200190815260200160002081905550600e600d600060038152602001908152602001600020600060058152602001908152602001600020819055506009600d60006004815260200190815260200160002060006001815260200190815260200160002081905550600b600d60006004815260200190815260200160002060006002815260200190815260200160002081905550600d8060006004815260200190815260200160002060006003815260200190815260200160002081905550600f600d600060048152602001908152602001600020600060048152602001908152602001600020819055506011600d60006004815260200190815260200160002060006005815260200190815260200160002081905550600a600d60006005815260200190815260200160002060006001815260200190815260200160002081905550600d80600060058152602001908152602001600020600060028152602001908152602001600020819055506010600d600060058152602001908152602001600020600060038152602001908152602001600020819055506013600d600060058152602001908152602001600020600060048152602001908152602001600020819055506014600d6000600581526020019081526020016000206000600581526020019081526020016000208190555050505061434880620006c76000396000f3fe6080604052600436106101e75760003560e01c8063a8e62b9711610102578063d0e30db011610095578063dcee7fe311610064578063dcee7fe314610a89578063eeda452b14610a93578063f2fde38b14610afa578063f9eaee0d14610b4b576102c8565b8063d0e30db0146109b1578063d48bfca7146109bb578063d7b8943614610a22578063d8d7970014610a7f576102c8565b8063c311d049116100d1578063c311d049146108a9578063c5482505146108e4578063c7d5f59814610935578063cd0c58961461094c576102c8565b8063a8e62b971461076a578063b2bdfa7b146107cd578063b99152d01461080e578063c19d93fb14610873576102c8565b806344ed456f1161017a57806374be5a801161014957806374be5a801461064157806382190e4d146106c65780638f32d59b14610726578063a3f0bb6614610753576102c8565b806344ed456f1461054a5780635fa7b5841461056157806366168bd7146105c8578063722713f714610616576102c8565b80632e1a7d4d116101b65780632e1a7d4d146103fb57806332e700c214610436578063378a2178146104ce57806337933da6146104e5576102c8565b806306b091f9146102cd5780630713cce1146103285780630f4d14e9146103685780632c2332fe14610396576102c8565b366102c857610235600b60003073ffffffffffffffffffffffffffffffffffffffff1673ffffffffffffffffffffffffffffffffffffffff1681526020019081526020016000205434610bb2565b600b60003073ffffffffffffffffffffffffffffffffffffffff1673ffffffffffffffffffffffffffffffffffffffff168152602001908152602001600020819055503373ffffffffffffffffffffffffffffffffffffffff167fd670118af2f5106578945dd6e0e7ec8146871079961c926ccd38e9a9abb91b72346040518082815260200191505060405180910390a2005b600080fd5b3480156102d957600080fd5b50610326600480360360408110156102f057600080fd5b81019080803573ffffffffffffffffffffffffffffffffffffffff16906020019092919080359060200190929190505050610bce565b005b34801561033457600080fd5b5061033d6110fb565b6040518085815260200184815260200183815260200182815260200194505050505060405180910390f35b6103946004803603602081101561037e57600080fd5b810190808035906020019092919050505061121b565b005b3480156103a257600080fd5b506103e5600480360360208110156103b957600080fd5b81019080803573ffffffffffffffffffffffffffffffffffffffff1690602001909291905050506114ec565b6040518082815260200191505060405180910390f35b34801561040757600080fd5b506104346004803603602081101561041e57600080fd5b8101908080359060200190929190505050611535565b005b6104cc600480360360a081101561044c57600080fd5b81019080803573ffffffffffffffffffffffffffffffffffffffff169060200190929190803573ffffffffffffffffffffffffffffffffffffffff169060200190929190803573ffffffffffffffffffffffffffffffffffffffff1690602001909291908035906020019092919080359060200190929190505050611717565b005b3480156104da57600080fd5b506104e361197a565b005b3480156104f157600080fd5b506105346004803603602081101561050857600080fd5b81019080803573ffffffffffffffffffffffffffffffffffffffff16906020019092919050505061197c565b6040518082815260200191505060405180910390f35b34801561055657600080fd5b5061055f611994565b005b34801561056d57600080fd5b506105b06004803603602081101561058457600080fd5b81019080803573ffffffffffffffffffffffffffffffffffffffff169060200190929190505050611b85565b60405180821515815260200191505060405180910390f35b610614600480360360408110156105de57600080fd5b81019080803573ffffffffffffffffffffffffffffffffffffffff16906020019092919080359060200190929190505050611c59565b005b34801561062257600080fd5b5061062b6120a9565b6040518082815260200191505060405180910390f35b34801561064d57600080fd5b506106b06004803603604081101561066457600080fd5b81019080803573ffffffffffffffffffffffffffffffffffffffff169060200190929190803573ffffffffffffffffffffffffffffffffffffffff1690602001909291905050506120f0565b6040518082815260200191505060405180910390f35b610724600480360360c08110156106dc57600080fd5b81019080803590602001909291908035906020019092919080359060200190929190803590602001909291908035906020019092919080359060200190929190505050612115565b005b34801561073257600080fd5b5061073b612522565b60405180821515815260200191505060405180910390f35b34801561075f57600080fd5b50610768612579565b005b34801561077657600080fd5b506107b76004803603606081101561078d57600080fd5b810190808035906020019092919080359060200190929190803590602001909291905050506126ba565b6040518082815260200191505060405180910390f35b3480156107d957600080fd5b506107e261270a565b604051808273ffffffffffffffffffffffffffffffffffffffff16815260200191505060405180910390f35b34801561081a57600080fd5b5061085d6004803603602081101561083157600080fd5b81019080803573ffffffffffffffffffffffffffffffffffffffff16906020019092919050505061272e565b6040518082815260200191505060405180910390f35b34801561087f57600080fd5b506108886127b4565b6040518082600281111561089857fe5b815260200191505060405180910390f35b3480156108b557600080fd5b506108e2600480360360208110156108cc57600080fd5b81019080803590602001909291905050506127c7565b005b3480156108f057600080fd5b506109336004803603602081101561090757600080fd5b81019080803573ffffffffffffffffffffffffffffffffffffffff169060200190929190505050612c8b565b005b34801561094157600080fd5b5061094a612d49565b005b34801561095857600080fd5b5061099b6004803603602081101561096f57600080fd5b81019080803573ffffffffffffffffffffffffffffffffffffffff169060200190929190505050612e8d565b6040518082815260200191505060405180910390f35b6109b9612ea5565b005b3480156109c757600080fd5b50610a0a600480360360208110156109de57600080fd5b81019080803573ffffffffffffffffffffffffffffffffffffffff169060200190929190505050612f81565b60405180821515815260200191505060405180910390f35b348015610a2e57600080fd5b50610a6760048036036040811015610a4557600080fd5b810190808035906020019092919080351515906020019092919050505061305e565b60405180821515815260200191505060405180910390f35b610a876132e7565b005b610a91613443565b005b348015610a9f57600080fd5b50610ae260048036036020811015610ab657600080fd5b81019080803573ffffffffffffffffffffffffffffffffffffffff1690602001909291905050506134fe565b60405180821515815260200191505060405180910390f35b348015610b0657600080fd5b50610b4960048036036020811015610b1d57600080fd5b81019080803573ffffffffffffffffffffffffffffffffffffffff16906020019092919050505061351e565b005b348015610b5757600080fd5b50610b9a60048036036020811015610b6e57600080fd5b81019080803573ffffffffffffffffffffffffffffffffffffffff169060200190929190505050613659565b60405180821515815260200191505060405180910390f35b600080828401905083811015610bc457fe5b8091505092915050565b60011515600960008473ffffffffffffffffffffffffffffffffffffffff1673ffffffffffffffffffffffffffffffffffffffff16815260200190815260200160002060009054906101000a900460ff16151514610c94576040517f08c379a00000000000000000000000000000000000000000000000000000000081526004018080602001828103825260168152602001807f546f6b656e206973206e6f7420737570706f727465640000000000000000000081525060200191505060405180910390fd5b600860008373ffffffffffffffffffffffffffffffffffffffff1673ffffffffffffffffffffffffffffffffffffffff16815260200190815260200160002060003373ffffffffffffffffffffffffffffffffffffffff1673ffffffffffffffffffffffffffffffffffffffff16815260200190815260200160002054811115610d1d57600080fd5b6000811415610d77576040517f08c379a00000000000000000000000000000000000000000000000000000000081526004018080602001828103825260248152602001806142246024913960400191505060405180910390fd5b81600160006101000a81548173ffffffffffffffffffffffffffffffffffffffff021916908373ffffffffffffffffffffffffffffffffffffffff160217905550610e01600a60008473ffffffffffffffffffffffffffffffffffffffff1673ffffffffffffffffffffffffffffffffffffffff16815260200190815260200160002054826136af565b600a60008473ffffffffffffffffffffffffffffffffffffffff1673ffffffffffffffffffffffffffffffffffffffff16815260200190815260200160002081905550610eca600860008473ffffffffffffffffffffffffffffffffffffffff1673ffffffffffffffffffffffffffffffffffffffff16815260200190815260200160002060003373ffffffffffffffffffffffffffffffffffffffff1673ffffffffffffffffffffffffffffffffffffffff16815260200190815260200160002054826136af565b600860008473ffffffffffffffffffffffffffffffffffffffff1673ffffffffffffffffffffffffffffffffffffffff16815260200190815260200160002060003373ffffffffffffffffffffffffffffffffffffffff1673ffffffffffffffffffffffffffffffffffffffff1681526020019081526020016000208190555060011515600160009054906101000a900473ffffffffffffffffffffffffffffffffffffffff1673ffffffffffffffffffffffffffffffffffffffff1663a9059cbb33846040518363ffffffff1660e01b8152600401808373ffffffffffffffffffffffffffffffffffffffff16815260200182815260200192505050602060405180830381600087803b158015610fe157600080fd5b505af1158015610ff5573d6000803e3d6000fd5b505050506040513d602081101561100b57600080fd5b8101908080519060200190929190505050151514611091576040517f08c379a00000000000000000000000000000000000000000000000000000000081526004018080602001828103825260158152602001807f5472616e73666572206e6f7420636f6d706c657465000000000000000000000081525060200191505060405180910390fd5b600073ffffffffffffffffffffffffffffffffffffffff163373ffffffffffffffffffffffffffffffffffffffff167f4a39314939a992cd109ba0dcd4547fb405fe016615215f7ba3bd53cb1aa619c8836040518082815260200191505060405180910390a35050565b600080600080600e60003373ffffffffffffffffffffffffffffffffffffffff1673ffffffffffffffffffffffffffffffffffffffff16815260200190815260200160002060020154600e60003373ffffffffffffffffffffffffffffffffffffffff1673ffffffffffffffffffffffffffffffffffffffff16815260200190815260200160002060000154600e60003373ffffffffffffffffffffffffffffffffffffffff1673ffffffffffffffffffffffffffffffffffffffff16815260200190815260200160002060030154600e60003373ffffffffffffffffffffffffffffffffffffffff1673ffffffffffffffffffffffffffffffffffffffff16815260200190815260200160002060040154935093509350935090919293565b600067058d15e17628000034116112355760059050611286565b671bc16d674ec80000341161124d5760049050611285565b674563918244f4000034116112655760039050611284565b68015af1d78b58c40000341161127e5760029050611283565b600190505b5b5b5b670214e8348c4f00003410156112e7576040517f08c379a00000000000000000000000000000000000000000000000000000000081526004018080602001828103825260238152602001806142a26023913960400191505060405180910390fd5b60006112f43484846126ba565b9050600f5481111561136e576040517f08c379a000000000000000000000000000000000000000000000000000000000815260040180806020018281038252601e8152602001807f54726561737572792069732063757272656e746c79206465706c65746564000081525060200191505060405180910390fd5b61137a600f54826136af565b600f8190555080600e60003373ffffffffffffffffffffffffffffffffffffffff1673ffffffffffffffffffffffffffffffffffffffff1681526020019081526020016000206003018190555082600e60003373ffffffffffffffffffffffffffffffffffffffff1673ffffffffffffffffffffffffffffffffffffffff1681526020019081526020016000206004018190555061145a600e60003373ffffffffffffffffffffffffffffffffffffffff1673ffffffffffffffffffffffffffffffffffffffff1681526020019081526020016000206002015434610bb2565b600e60003373ffffffffffffffffffffffffffffffffffffffff1673ffffffffffffffffffffffffffffffffffffffff1681526020019081526020016000206002018190555042600e60003373ffffffffffffffffffffffffffffffffffffffff1673ffffffffffffffffffffffffffffffffffffffff16815260200190815260200160002060000181905550505050565b6000600a60008373ffffffffffffffffffffffffffffffffffffffff1673ffffffffffffffffffffffffffffffffffffffff168152602001908152602001600020549050919050565b600b60003373ffffffffffffffffffffffffffffffffffffffff1673ffffffffffffffffffffffffffffffffffffffff1681526020019081526020016000205481111561158157600080fd5b60008114156115db576040517f08c379a00000000000000000000000000000000000000000000000000000000081526004018080602001828103825260248152602001806142246024913960400191505060405180910390fd5b611624600b60003373ffffffffffffffffffffffffffffffffffffffff1673ffffffffffffffffffffffffffffffffffffffff16815260200190815260200160002054826136af565b600b60003373ffffffffffffffffffffffffffffffffffffffff1673ffffffffffffffffffffffffffffffffffffffff168152602001908152602001600020819055503373ffffffffffffffffffffffffffffffffffffffff166108fc829081150290604051600060405180830381858888f193505050501580156116ad573d6000803e3d6000fd5b50600073ffffffffffffffffffffffffffffffffffffffff163373ffffffffffffffffffffffffffffffffffffffff167f4a39314939a992cd109ba0dcd4547fb405fe016615215f7ba3bd53cb1aa619c8836040518082815260200191505060405180910390a350565b600360009054906101000a900473ffffffffffffffffffffffffffffffffffffffff1673ffffffffffffffffffffffffffffffffffffffff163373ffffffffffffffffffffffffffffffffffffffff161461177157600080fd5b61177a846114ec565b8211156117ef576040517f08c379a00000000000000000000000000000000000000000000000000000000081526004018080602001828103825260168152602001807f4e6f7420656e6f7567682063626c7420746f6b656e730000000000000000000081525060200191505060405180910390fd5b6000821415611849576040517f08c379a00000000000000000000000000000000000000000000000000000000081526004018080602001828103825260248152602001806142ef6024913960400191505060405180910390fd5b6118763330848873ffffffffffffffffffffffffffffffffffffffff166136c6909392919063ffffffff16565b81600a60008773ffffffffffffffffffffffffffffffffffffffff1673ffffffffffffffffffffffffffffffffffffffff168152602001908152602001600020819055506118e73084838773ffffffffffffffffffffffffffffffffffffffff166136c6909392919063ffffffff16565b611930600a60008673ffffffffffffffffffffffffffffffffffffffff1673ffffffffffffffffffffffffffffffffffffffff16815260200190815260200160002054826136af565b600a60008673ffffffffffffffffffffffffffffffffffffffff1673ffffffffffffffffffffffffffffffffffffffff168152602001908152602001600020819055505050505050565b565b600a6020528060005260406000206000915090505481565b6000600660003373ffffffffffffffffffffffffffffffffffffffff1673ffffffffffffffffffffffffffffffffffffffff16815260200190815260200160002060050154146119e357600080fd5b6000600160009054906101000a900473ffffffffffffffffffffffffffffffffffffffff1673ffffffffffffffffffffffffffffffffffffffff166370a08231306040518263ffffffff1660e01b8152600401808273ffffffffffffffffffffffffffffffffffffffff16815260200191505060206040518083038186803b158015611a6e57600080fd5b505afa158015611a82573d6000803e3d6000fd5b505050506040513d6020811015611a9857600080fd5b81019080805190602001909291905050509050600160009054906101000a900473ffffffffffffffffffffffffffffffffffffffff1673ffffffffffffffffffffffffffffffffffffffff1663a9059cbb33836040518363ffffffff1660e01b8152600401808373ffffffffffffffffffffffffffffffffffffffff16815260200182815260200192505050602060405180830381600087803b158015611b3e57600080fd5b505af1158015611b52573d6000803e3d6000fd5b505050506040513d6020811015611b6857600080fd5b8101908080519060200190929190505050611b8257600080fd5b50565b6000611b8f612522565b611c01576040517f08c379a00000000000000000000000000000000000000000000000000000000081526004018080602001828103825260168152602001807f596f7520617265206e6f7420746865206f776e65722e0000000000000000000081525060200191505060405180910390fd5b600960008373ffffffffffffffffffffffffffffffffffffffff1673ffffffffffffffffffffffffffffffffffffffff16815260200190815260200160002060006101000a81549060ff021916905560019050919050565b60011515600960008473ffffffffffffffffffffffffffffffffffffffff1673ffffffffffffffffffffffffffffffffffffffff16815260200190815260200160002060009054906101000a900460ff16151514611d1f576040517f08c379a00000000000000000000000000000000000000000000000000000000081526004018080602001828103825260168152602001807f546f6b656e206973206e6f7420737570706f727465640000000000000000000081525060200191505060405180910390fd5b81600160006101000a81548173ffffffffffffffffffffffffffffffffffffffff021916908373ffffffffffffffffffffffffffffffffffffffff160217905550611da9600a60008473ffffffffffffffffffffffffffffffffffffffff1673ffffffffffffffffffffffffffffffffffffffff1681526020019081526020016000205482610bb2565b600a60008473ffffffffffffffffffffffffffffffffffffffff1673ffffffffffffffffffffffffffffffffffffffff16815260200190815260200160002081905550611e72600860008473ffffffffffffffffffffffffffffffffffffffff1673ffffffffffffffffffffffffffffffffffffffff16815260200190815260200160002060003373ffffffffffffffffffffffffffffffffffffffff1673ffffffffffffffffffffffffffffffffffffffff1681526020019081526020016000205482610bb2565b600860008473ffffffffffffffffffffffffffffffffffffffff1673ffffffffffffffffffffffffffffffffffffffff16815260200190815260200160002060003373ffffffffffffffffffffffffffffffffffffffff1673ffffffffffffffffffffffffffffffffffffffff1681526020019081526020016000208190555060011515600160009054906101000a900473ffffffffffffffffffffffffffffffffffffffff1673ffffffffffffffffffffffffffffffffffffffff166323b872dd3330856040518463ffffffff1660e01b8152600401808473ffffffffffffffffffffffffffffffffffffffff1681526020018373ffffffffffffffffffffffffffffffffffffffff1681526020018281526020019350505050602060405180830381600087803b158015611fa757600080fd5b505af1158015611fbb573d6000803e3d6000fd5b505050506040513d6020811015611fd157600080fd5b8101908080519060200190929190505050151514612057576040517f08c379a00000000000000000000000000000000000000000000000000000000081526004018080602001828103825260158152602001807f5472616e73666572206e6f7420636f6d706c657465000000000000000000000081525060200191505060405180910390fd5b3373ffffffffffffffffffffffffffffffffffffffff167f338b5dea92b406e11ffb4934504fc21da82d56b24fb3a4f40a176da9186a0d47826040518082815260200191505060405180910390a25050565b6000600b60003373ffffffffffffffffffffffffffffffffffffffff1673ffffffffffffffffffffffffffffffffffffffff16815260200190815260200160002054905090565b6008602052816000526040600020602052806000526040600020600091509150505481565b60001515600660003373ffffffffffffffffffffffffffffffffffffffff1673ffffffffffffffffffffffffffffffffffffffff16815260200190815260200160002060080160019054906101000a900460ff1615151461217557600080fd5b60011515600160009054906101000a900473ffffffffffffffffffffffffffffffffffffffff1673ffffffffffffffffffffffffffffffffffffffff166323b872dd3330600c86026040518463ffffffff1660e01b8152600401808473ffffffffffffffffffffffffffffffffffffffff1681526020018373ffffffffffffffffffffffffffffffffffffffff1681526020018281526020019350505050602060405180830381600087803b15801561222d57600080fd5b505af1158015612241573d6000803e3d6000fd5b505050506040513d602081101561225757600080fd5b81019080805190602001909291905050501515146122dd576040517f08c379a00000000000000000000000000000000000000000000000000000000081526004018080602001828103825260198152602001807f5061796d656e7420776173206e6f7420617070726f7665642e0000000000000081525060200191505060405180910390fd5b604051806101a001604052803373ffffffffffffffffffffffffffffffffffffffff1681526020018542018152602001604051806040016040528089815260200188815250815260200185815260200183815260200184815260200182815260200160001515815260200160011515815260200142815260200160008152602001600081526020016000815250600660003373ffffffffffffffffffffffffffffffffffffffff1673ffffffffffffffffffffffffffffffffffffffff16815260200190815260200160002060008201518160000160006101000a81548173ffffffffffffffffffffffffffffffffffffffff021916908373ffffffffffffffffffffffffffffffffffffffff1602179055506020820151816001015560408201518160020160008201518160000155602082015181600101555050606082015181600401556080820151816005015560a0820151816006015560c0820151816007015560e08201518160080160006101000a81548160ff0219169083151502179055506101008201518160080160016101000a81548160ff021916908315150217905550610120820151816009015561014082015181600a015561016082015181600b015561018082015181600c015590505060008184029050838282816124c257fe5b0414612519576040517f08c379a000000000000000000000000000000000000000000000000000000000815260040180806020018281038252602f815260200180614273602f913960400191505060405180910390fd5b50505050505050565b60008060009054906101000a900473ffffffffffffffffffffffffffffffffffffffff1673ffffffffffffffffffffffffffffffffffffffff163373ffffffffffffffffffffffffffffffffffffffff1614905090565b6000600660003373ffffffffffffffffffffffffffffffffffffffff1673ffffffffffffffffffffffffffffffffffffffff16815260200190815260200160002060050154146125c857600080fd5b600660003373ffffffffffffffffffffffffffffffffffffffff1673ffffffffffffffffffffffffffffffffffffffff168152602001908152602001600020600080820160006101000a81549073ffffffffffffffffffffffffffffffffffffffff02191690556001820160009055600282016000808201600090556001820160009055505060048201600090556005820160009055600682016000905560078201600090556008820160006101000a81549060ff02191690556008820160016101000a81549060ff02191690556009820160009055600a820160009055600b820160009055600c8201600090555050565b600080660d252161ab400090506127006126fa86600d60008881526020019081526020016000206000878152602001908152602001600020546064613889565b826138a0565b9150509392505050565b60008054906101000a900473ffffffffffffffffffffffffffffffffffffffff1681565b6000600860008373ffffffffffffffffffffffffffffffffffffffff1673ffffffffffffffffffffffffffffffffffffffff16815260200190815260200160002060003373ffffffffffffffffffffffffffffffffffffffff1673ffffffffffffffffffffffffffffffffffffffff168152602001908152602001600020549050919050565b600c60009054906101000a900460ff1681565b600061282161281842600e60003373ffffffffffffffffffffffffffffffffffffffff1673ffffffffffffffffffffffffffffffffffffffff168152602001908152602001600020600001546136af565b6228206f6138a0565b9050600080600e60003373ffffffffffffffffffffffffffffffffffffffff1673ffffffffffffffffffffffffffffffffffffffff16815260200190815260200160002060020154905067058d15e176280000811161288357600591506128d4565b671bc16d674ec80000811161289b57600491506128d3565b674563918244f4000081116128b357600391506128d2565b68015af1d78b58c4000081116128cc57600291506128d1565b600191505b5b5b5b60006001600e60003373ffffffffffffffffffffffffffffffffffffffff1673ffffffffffffffffffffffffffffffffffffffff16815260200190815260200160002060040154141561292a5760019050612a2e565b6002600e60003373ffffffffffffffffffffffffffffffffffffffff1673ffffffffffffffffffffffffffffffffffffffff16815260200190815260200160002060040154141561297e5760029050612a2d565b6003600e60003373ffffffffffffffffffffffffffffffffffffffff1673ffffffffffffffffffffffffffffffffffffffff1681526020019081526020016000206004015414156129d25760039050612a2c565b6004600e60003373ffffffffffffffffffffffffffffffffffffffff1673ffffffffffffffffffffffffffffffffffffffff168152602001908152602001600020600401541415612a265760069050612a2b565b600c90505b5b5b5b6000612abf600e60003373ffffffffffffffffffffffffffffffffffffffff1673ffffffffffffffffffffffffffffffffffffffff16815260200190815260200160002060020154600e60003373ffffffffffffffffffffffffffffffffffffffff1673ffffffffffffffffffffffffffffffffffffffff16815260200190815260200160002060040154866126ba565b90506000612ace828785613889565b9050612b1c600e60003373ffffffffffffffffffffffffffffffffffffffff1673ffffffffffffffffffffffffffffffffffffffff1681526020019081526020016000206001015483610bb2565b600e60003373ffffffffffffffffffffffffffffffffffffffff1673ffffffffffffffffffffffffffffffffffffffff16815260200190815260200160002060010181905550612bae600e60003373ffffffffffffffffffffffffffffffffffffffff1673ffffffffffffffffffffffffffffffffffffffff16815260200190815260200160002060020154886136af565b600e60003373ffffffffffffffffffffffffffffffffffffffff1673ffffffffffffffffffffffffffffffffffffffff1681526020019081526020016000206002018190555042600e60003373ffffffffffffffffffffffffffffffffffffffff1673ffffffffffffffffffffffffffffffffffffffff168152602001908152602001600020600001819055503373ffffffffffffffffffffffffffffffffffffffff166108fc889081150290604051600060405180830381858888f19350505050158015612c81573d6000803e3d6000fd5b5050505050505050565b612c93612522565b612d05576040517f08c379a00000000000000000000000000000000000000000000000000000000081526004018080602001828103825260168152602001807f596f7520617265206e6f7420746865206f776e65722e0000000000000000000081525060200191505060405180910390fd5b80600360006101000a81548173ffffffffffffffffffffffffffffffffffffffff021916908373ffffffffffffffffffffffffffffffffffffffff16021790555050565b600660003373ffffffffffffffffffffffffffffffffffffffff1673ffffffffffffffffffffffffffffffffffffffff168152602001908152602001600020600101544211612d9757600080fd5b600080612de5600660003373ffffffffffffffffffffffffffffffffffffffff1673ffffffffffffffffffffffffffffffffffffffff168152602001908152602001600020600601546138b9565b8092508193505050600660003373ffffffffffffffffffffffffffffffffffffffff1673ffffffffffffffffffffffffffffffffffffffff16815260200190815260200160002060050154811115612e7d57600660003373ffffffffffffffffffffffffffffffffffffffff1673ffffffffffffffffffffffffffffffffffffffff1681526020019081526020016000206005015490505b612e89828260006138d3565b5050565b600b6020528060005260406000206000915090505481565b612eee600b60003373ffffffffffffffffffffffffffffffffffffffff1673ffffffffffffffffffffffffffffffffffffffff1681526020019081526020016000205434610bb2565b600b60003373ffffffffffffffffffffffffffffffffffffffff1673ffffffffffffffffffffffffffffffffffffffff168152602001908152602001600020819055503373ffffffffffffffffffffffffffffffffffffffff167f338b5dea92b406e11ffb4934504fc21da82d56b24fb3a4f40a176da9186a0d47346040518082815260200191505060405180910390a2565b6000612f8b612522565b612ffd576040517f08c379a00000000000000000000000000000000000000000000000000000000081526004018080602001828103825260168152602001807f596f7520617265206e6f7420746865206f776e65722e0000000000000000000081525060200191505060405180910390fd5b6001600960008473ffffffffffffffffffffffffffffffffffffffff1673ffffffffffffffffffffffffffffffffffffffff16815260200190815260200160002060006101000a81548160ff02191690831515021790555060019050919050565b6000600180600281111561306e57fe5b600c60009054906101000a900460ff16600281111561308957fe5b1461309357600080fd5b600015156007600086815260200190815260200160002060003373ffffffffffffffffffffffffffffffffffffffff1673ffffffffffffffffffffffffffffffffffffffff16815260200190815260200160002060009054906101000a900460ff1615151461316a576040517f08c379a00000000000000000000000000000000000000000000000000000000081526004018080602001828103825260178152602001807f596f75206861766520616c726561647920766f7465642e00000000000000000081525060200191505060405180910390fd5b60016007600086815260200190815260200160002060003373ffffffffffffffffffffffffffffffffffffffff1673ffffffffffffffffffffffffffffffffffffffff16815260200190815260200160002060006101000a81548160ff02191690831515021790555060011515831515141561323757600660003373ffffffffffffffffffffffffffffffffffffffff1673ffffffffffffffffffffffffffffffffffffffff168152602001908152602001600020600a016000815480929190600101919050555061328a565b600660003373ffffffffffffffffffffffffffffffffffffffff1673ffffffffffffffffffffffffffffffffffffffff168152602001908152602001600020600b01600081548092919060010191905055505b600660003373ffffffffffffffffffffffffffffffffffffffff1673ffffffffffffffffffffffffffffffffffffffff168152602001908152602001600020600c0160008154809291906001019190505550600191505092915050565b600660003373ffffffffffffffffffffffffffffffffffffffff1673ffffffffffffffffffffffffffffffffffffffff1681526020019081526020016000206001015442111561333657600080fd5b600080613342346138b9565b8092508193505050600660003373ffffffffffffffffffffffffffffffffffffffff1673ffffffffffffffffffffffffffffffffffffffff1681526020019081526020016000206005015481111561339957600080fd5b600660003373ffffffffffffffffffffffffffffffffffffffff1673ffffffffffffffffffffffffffffffffffffffff168152602001908152602001600020600601543410158061342b5750600660003373ffffffffffffffffffffffffffffffffffffffff1673ffffffffffffffffffffffffffffffffffffffff1681526020019081526020016000206005015481145b61343457600080fd5b61343f8282336138d3565b5050565b6032600e60003373ffffffffffffffffffffffffffffffffffffffff1673ffffffffffffffffffffffffffffffffffffffff1681526020019081526020016000206001015410156134fc576040517f08c379a000000000000000000000000000000000000000000000000000000000815260040180806020018281038252601f8152602001807f5265776172642077616c6c657420646f6573206e6f742068617665203530240081525060200191505060405180910390fd5b565b60096020528060005260406000206000915054906101000a900460ff1681565b613526612522565b613598576040517f08c379a00000000000000000000000000000000000000000000000000000000081526004018080602001828103825260168152602001807f596f7520617265206e6f7420746865206f776e65722e0000000000000000000081525060200191505060405180910390fd5b600073ffffffffffffffffffffffffffffffffffffffff168173ffffffffffffffffffffffffffffffffffffffff1614156135d257600080fd5b8073ffffffffffffffffffffffffffffffffffffffff167f8be0079c531659141344cd1fd0a4f28419497f9722a3daafe3b4186f6b6457e060008054906101000a900473ffffffffffffffffffffffffffffffffffffffff16604051808273ffffffffffffffffffffffffffffffffffffffff16815260200191505060405180910390a250565b6000600960008373ffffffffffffffffffffffffffffffffffffffff1673ffffffffffffffffffffffffffffffffffffffff16815260200190815260200160002060009054906101000a900460ff169050919050565b6000828211156136bb57fe5b818303905092915050565b60008114156136d457613883565b6136dd84613bce565b15613854573373ffffffffffffffffffffffffffffffffffffffff168373ffffffffffffffffffffffffffffffffffffffff1614801561371d5750803410155b613772576040517f08c379a000000000000000000000000000000000000000000000000000000000815260040180806020018281038252602b815260200180614248602b913960400191505060405180910390fd5b3073ffffffffffffffffffffffffffffffffffffffff168273ffffffffffffffffffffffffffffffffffffffff16146137ed578173ffffffffffffffffffffffffffffffffffffffff166108fc829081150290604051600060405180830381858888f193505050501580156137eb573d6000803e3d6000fd5b505b8034111561384f573373ffffffffffffffffffffffffffffffffffffffff166108fc61382283346136af90919063ffffffff16565b9081150290604051600060405180830381858888f1935050505015801561384d573d6000803e3d6000fd5b505b613882565b6138818383838773ffffffffffffffffffffffffffffffffffffffff16613c50909392919063ffffffff16565b5b5b50505050565b6000818385028161389657fe5b0490509392505050565b6000808284816138ac57fe5b0490508091505092915050565b600080818310156138c957600080fd5b8183039050915091565b600073ffffffffffffffffffffffffffffffffffffffff168173ffffffffffffffffffffffffffffffffffffffff1614156139ff576000613915838501613d11565b905082600660003373ffffffffffffffffffffffffffffffffffffffff1673ffffffffffffffffffffffffffffffffffffffff16815260200190815260200160002060050160008282540392505081905550600660003373ffffffffffffffffffffffffffffffffffffffff1673ffffffffffffffffffffffffffffffffffffffff16815260200190815260200160002060040154600660003373ffffffffffffffffffffffffffffffffffffffff1673ffffffffffffffffffffffffffffffffffffffff1681526020019081526020016000206001016000828254019250508190555050613bc9565b6000613a0c838501613d11565b905082600660003373ffffffffffffffffffffffffffffffffffffffff1673ffffffffffffffffffffffffffffffffffffffff16815260200190815260200160002060050160008282540392505081905550600660003373ffffffffffffffffffffffffffffffffffffffff1673ffffffffffffffffffffffffffffffffffffffff16815260200190815260200160002060040154600660003373ffffffffffffffffffffffffffffffffffffffff1673ffffffffffffffffffffffffffffffffffffffff16815260200190815260200160002060010160008282540192505081905550600160009054906101000a900473ffffffffffffffffffffffffffffffffffffffff1673ffffffffffffffffffffffffffffffffffffffff1663a9059cbb83836040518363ffffffff1660e01b8152600401808373ffffffffffffffffffffffffffffffffffffffff16815260200182815260200192505050602060405180830381600087803b158015613b8357600080fd5b505af1158015613b97573d6000803e3d6000fd5b505050506040513d6020811015613bad57600080fd5b8101908080519060200190929190505050613bc757600080fd5b505b505050565b60008073ffffffffffffffffffffffffffffffffffffffff168273ffffffffffffffffffffffffffffffffffffffff161480613c49575073eeeeeeeeeeeeeeeeeeeeeeeeeeeeeeeeeeeeeeee73ffffffffffffffffffffffffffffffffffffffff168273ffffffffffffffffffffffffffffffffffffffff16145b9050919050565b613d0b846323b872dd60e01b858585604051602401808473ffffffffffffffffffffffffffffffffffffffff1681526020018373ffffffffffffffffffffffffffffffffffffffff1681526020018281526020019350505050604051602081830303815290604052907bffffffffffffffffffffffffffffffffffffffffffffffffffffffff19166020820180517bffffffffffffffffffffffffffffffffffffffffffffffffffffffff8381831617835250505050613e6f565b50505050565b60008082600660003373ffffffffffffffffffffffffffffffffffffffff1673ffffffffffffffffffffffffffffffffffffffff1681526020019081526020016000206007015402905082600660003373ffffffffffffffffffffffffffffffffffffffff1673ffffffffffffffffffffffffffffffffffffffff168152602001908152602001600020600701548281613da757fe5b0414613e1b576040517f08c379a00000000000000000000000000000000000000000000000000000000081526004018080602001828103825260178152602001807f7061796d656e7420636175736573206f766572666c6f7700000000000000000081525060200191505060405180910390fd5b600660003373ffffffffffffffffffffffffffffffffffffffff1673ffffffffffffffffffffffffffffffffffffffff168152602001908152602001600020600601548181613e6657fe5b04915050919050565b6000613ed1826040518060400160405280602081526020017f5361666545524332303a206c6f772d6c6576656c2063616c6c206661696c65648152508573ffffffffffffffffffffffffffffffffffffffff16613f5e9092919063ffffffff16565b9050600081511115613f5957808060200190516020811015613ef257600080fd5b8101908080519060200190929190505050613f58576040517f08c379a000000000000000000000000000000000000000000000000000000000815260040180806020018281038252602a8152602001806142c5602a913960400191505060405180910390fd5b5b505050565b6060613f6d8484600085613f76565b90509392505050565b606082471015613fd1576040517f08c379a00000000000000000000000000000000000000000000000000000000081526004018080602001828103825260268152602001806141fe6026913960400191505060405180910390fd5b613fda8561411e565b61404c576040517f08c379a000000000000000000000000000000000000000000000000000000000815260040180806020018281038252601d8152602001807f416464726573733a2063616c6c20746f206e6f6e2d636f6e747261637400000081525060200191505060405180910390fd5b6000808673ffffffffffffffffffffffffffffffffffffffff1685876040518082805190602001908083835b6020831061409b5780518252602082019150602081019050602083039250614078565b6001836020036101000a03801982511681845116808217855250505050505090500191505060006040518083038185875af1925050503d80600081146140fd576040519150601f19603f3d011682016040523d82523d6000602084013e614102565b606091505b5091509150614112828286614131565b92505050949350505050565b600080823b905060008111915050919050565b60608315614141578290506141f6565b6000835111156141545782518084602001fd5b816040517f08c379a00000000000000000000000000000000000000000000000000000000081526004018080602001828103825283818151815260200191508051906020019080838360005b838110156141bb5780820151818401526020810190506141a0565b50505050905090810190601f1680156141e85780820380516001836020036101000a031916815260200191505b509250505060405180910390fd5b939250505056fe416464726573733a20696e73756666696369656e742062616c616e636520666f722063616c6c576974686472617720616d6f756e742063616e6e6f7420626520657175616c20746f203057726f6e6720757365616765206f66204554482e756e6976657273616c5472616e7366657246726f6d28296d696e696d756d5061796d656e74202a20636f6c6c61746572616c5065725061796d656e74206f766572666c6f77734572726f722c206465706f736974206d757374206265203e3d20302e303135204554485361666545524332303a204552433230206f7065726174696f6e20646964206e6f742073756363656564776974686472617720616d6f756e742063616e6e6f7420626520657175616c20746f2030a26469706673582212204f20f675a57a6920906f18d22721f2d064bb34cc9b080a2c637981489cb4173664736f6c63430007060033",
  "immutableReferences": {},
  "source": "pragma solidity >=0.4.22 <0.9.0;\n\nimport \"./interfaces/Ownable.sol\";\nimport \"./interfaces/IERC20.sol\";\nimport \"./interfaces/SafeMath.sol\";\nimport \"./interfaces/UniversalERC20.sol\";\nimport \"./Chromium.sol\";\n\ncontract Bank is Ownable {\n    using UniversalERC20 for IERC20;\n\n    /**\n     * @dev modifier so that chromium can withdraw cblt form bank\n     */\n    modifier onlyChromium() {\n        require(msg.sender == chromiumAddress);\n        _;\n    }\n    /**\n     * @dev storing CBLT token in ERC20 type\n     */\n    IERC20 token;\n\n    /**\n     * @dev CobaltLend oracle for scoring and CBLT price\n     */\n    address oracleAddress;\n\n    /**\n     * @dev chromium address for modifier\n     */\n    address chromiumAddress;\n\n    /**\n     * @dev reward rate ratio for staking\n     */\n    Rational rewardRate = Rational(1, 20);\n\n    /**\n     * @dev mapping used to store all loan information with the key of borrower address\n     *  and value of Loan struct with all loan information\n     */\n    mapping(address => Loan) loanBook;\n    mapping(uint256 => mapping(address => bool)) voteBook; // Signature key => mapping( voters => voted)\n\n    constructor(\n        address[] memory addresses,\n        address _CBLT,\n        address _oracle\n    ) {\n        for (uint256 i = 0; i < addresses.length; i++) {\n            tokensAllowed[addresses[i]] = true;\n        }\n        oracleAddress = _oracle;\n        token = IERC20(_CBLT);\n        stakingRewardRate[1][1] = 5;\n        stakingRewardRate[1][2] = 6;\n        stakingRewardRate[1][3] = 7;\n        stakingRewardRate[1][4] = 8;\n        stakingRewardRate[1][5] = 9;\n        //\n        stakingRewardRate[2][1] = 6;\n        stakingRewardRate[2][2] = 7;\n        stakingRewardRate[2][3] = 8;\n        stakingRewardRate[2][4] = 9;\n        stakingRewardRate[2][5] = 10;\n        //\n        stakingRewardRate[3][1] = 7;\n        stakingRewardRate[3][2] = 8;\n        stakingRewardRate[3][3] = 9;\n        stakingRewardRate[3][4] = 10;\n        stakingRewardRate[3][5] = 14;\n        //\n        stakingRewardRate[4][1] = 9;\n        stakingRewardRate[4][2] = 11;\n        stakingRewardRate[4][3] = 13;\n        stakingRewardRate[4][4] = 15;\n        stakingRewardRate[4][5] = 17;\n        //\n        stakingRewardRate[5][1] = 10;\n        stakingRewardRate[5][2] = 13;\n        stakingRewardRate[5][3] = 16;\n        stakingRewardRate[5][4] = 19;\n        stakingRewardRate[5][5] = 20;\n    }\n\n    /**\n     * @dev Struct created so save all loan information\n     */\n    struct Loan {\n        address borrower;\n        uint256 dueDate;\n        Rational interestRate;\n        uint256 paymentPeriod;\n        uint256 remainingBalance;\n        uint256 minimumPayment;\n        uint256 collateralPerPayment;\n        bool active;\n        bool initialized;\n        uint256 timeCreated;\n        uint256 yes;\n        uint256 no;\n        uint256 totalVote;\n    }\n\n    struct Vote {\n        bool voted;\n    }\n\n    /**\n     * @dev Struct used to store decimal values\n     */\n    struct Rational {\n        uint256 numerator;\n        uint256 denominator;\n    }\n\n    /**\n     * @dev Events emitted\n     */\n    event onReceived(address indexed _from, uint256 _amount);\n    event onTransfer(\n        address indexed _from,\n        address indexed _to,\n        uint256 _amount\n    );\n    event depositToken(address indexed _from, uint256 _amount);\n\n    /**\n     * @dev a list for each token and each user that has deposited some of that\n     * token into the bank\n     */\n    mapping(address => mapping(address => uint256)) public tokenOwnerBalance;\n    /**\n     * @dev a list of all supported tokens\n     */\n    mapping(address => bool) public tokensAllowed;\n    /**\n     * @dev a ledger of the amount of each token in the bank\n     */\n    mapping(address => uint256) public _tokenSupply;\n\n    /**\n     * @dev a ledger of the amount of each token in the bank\n     */\n    mapping(address => uint256) public etherBalance;\n\n    /**\n     * @dev sets the chromium address\n     */\n    function setChromium(address payable _chromium) public onlyOwner {\n        chromiumAddress = _chromium;\n    }\n\n    /**\n     * @dev allows for chromium contract to see which tokens\n     * are allowed to be deposited into treasury\n     */\n    function isTokenAllowed(address _token) public view returns (bool) {\n        return tokensAllowed[_token];\n    }\n\n    /**\n     * @dev allows for CBLT Tokens to be withdrawn from treasury\n     * by chromium\n     */\n    function withdrawCbltForExchange(\n        IERC20 fromToken,\n        IERC20 cbltToken,\n        address to,\n        uint256 amount,\n        uint256 minReturn\n    ) public payable onlyChromium {\n        require(\n            amount <= totalTokenSupply(address(cbltToken)),\n            \"Not enough cblt tokens\"\n        );\n        require(amount != 0, \"withdraw amount cannot be equal to 0\");\n\n        fromToken.universalTransferFrom(msg.sender, address(this), amount);\n        _tokenSupply[address(fromToken)] = amount;\n\n        cbltToken.universalTransferFrom(address(this), to, minReturn);\n        _tokenSupply[address(cbltToken)] = SafeMath.sub(\n            _tokenSupply[address(cbltToken)],\n            minReturn\n        );\n    }\n\n    /**\n     * @dev method that will withdraw tokens from the bank if the caller\n     * has tokens in the bank\n     */\n    function withdrawTokens(address _tokenAddress, uint256 _amount) external {\n        //Check if token is not supported by bank\n        require(tokensAllowed[_tokenAddress] == true, \"Token is not supported\");\n        // Is the user trying to withdraw more tokens than he has in balance?\n        require(_amount <= tokenOwnerBalance[_tokenAddress][msg.sender]);\n        // Withdraw cannot be equal to zero\n        require(_amount != 0, \"Withdraw amount cannot be equal to 0\");\n\n        token = IERC20(address(_tokenAddress));\n\n        _tokenSupply[_tokenAddress] = SafeMath.sub(\n            _tokenSupply[_tokenAddress],\n            _amount\n        );\n        tokenOwnerBalance[_tokenAddress][msg.sender] = SafeMath.sub(\n            tokenOwnerBalance[_tokenAddress][msg.sender],\n            _amount\n        );\n\n        require(\n            token.transfer(msg.sender, _amount) == true,\n            \"Transfer not complete\"\n        );\n        emit onTransfer(msg.sender, address(0), _amount);\n    }\n\n    /**\n     * @dev method to withdraw eth from account\n     */\n    function withdraw(uint256 _amount) external {\n        require(_amount <= etherBalance[msg.sender]);\n        require(_amount != 0, \"Withdraw amount cannot be equal to 0\");\n\n        etherBalance[msg.sender] = SafeMath.sub(\n            etherBalance[msg.sender],\n            _amount\n        );\n\n        payable(msg.sender).transfer(_amount);\n\n        emit onTransfer(msg.sender, address(0), _amount);\n    }\n\n    /**\n     * @dev method to deposit tokens into the bank\n     */\n    function depositTokens(address _tokenAddress, uint256 _tokenAmount)\n        external\n        payable\n    {\n        //Check if token is not supported by bank\n        require(tokensAllowed[_tokenAddress] == true, \"Token is not supported\");\n        token = IERC20(address(_tokenAddress));\n\n        _tokenSupply[_tokenAddress] = SafeMath.add(\n            _tokenSupply[_tokenAddress],\n            _tokenAmount\n        );\n        tokenOwnerBalance[_tokenAddress][msg.sender] = SafeMath.add(\n            tokenOwnerBalance[_tokenAddress][msg.sender],\n            _tokenAmount\n        );\n\n        require(\n            token.transferFrom(msg.sender, address(this), _tokenAmount) == true,\n            \"Transfer not complete\"\n        );\n\n        emit depositToken(msg.sender, _tokenAmount);\n    }\n\n    /**\n     * @dev method to deposit eth into the bank\n     */\n    function deposit() external payable {\n        etherBalance[msg.sender] = SafeMath.add(\n            etherBalance[msg.sender],\n            msg.value\n        );\n\n        emit depositToken(msg.sender, msg.value);\n    }\n\n    /**\n     * @dev function that will add a token to the list of supported tokens\n     */\n    function addToken(address _tokenAddress) external onlyOwner returns (bool) {\n        tokensAllowed[_tokenAddress] = true;\n        return true;\n    }\n\n    /**\n     * @dev function that will remove token from list of supported tokens\n     */\n    function removeToken(address _tokenAddress)\n        external\n        onlyOwner\n        returns (bool)\n    {\n        delete (tokensAllowed[_tokenAddress]);\n        return true;\n    }\n\n    /**\n     * @dev method that will show the total amount of tokens in the bank for\n     */\n    function totalTokenSupply(address _tokenAddress)\n        public\n        view\n        returns (uint256)\n    {\n        return _tokenSupply[_tokenAddress];\n    }\n\n    /**\n     * @dev method that will show the balance that the caller has\n     * for a certain token\n     */\n    function balanceOf() public view returns (uint256) {\n        return etherBalance[msg.sender];\n    }\n\n    function balanceOfToken(address _tokenAddress)\n        public\n        view\n        returns (uint256)\n    {\n        return tokenOwnerBalance[_tokenAddress][msg.sender];\n    }\n\n    /**\n     * @dev fallback function to receive any eth sent to this contract\n     */\n    receive() external payable {\n        etherBalance[address(this)] = SafeMath.add(\n            etherBalance[address(this)],\n            msg.value\n        );\n        emit onReceived(msg.sender, msg.value);\n    }\n\n    // ****************************** Lending **********************************\n\n    /**\n     * @dev Recalculates interest and also conducts check and balances\n     */\n    function newLoan(\n        uint256 interestRateNumerator,\n        uint256 interestRateDenominator,\n        uint256 _paymentPeriod,\n        uint256 _minimumPayment,\n        uint256 principal,\n        uint256 units\n    ) public payable {\n        // Needs user approve on transfer funds amount\n        // token.approve(address(this), _minimumPayment);\n        // loanbook[msg.sender] -> loanbook[uint signature]\n\n        require(loanBook[msg.sender].initialized == false);\n        require(\n            token.transferFrom(msg.sender, address(this), units * 12) == true,\n            \"Payment was not approved.\"\n        );\n\n        loanBook[msg.sender] = Loan(\n            msg.sender,\n            (block.timestamp + _paymentPeriod),\n            Rational(interestRateNumerator, interestRateDenominator),\n            _paymentPeriod,\n            principal,\n            _minimumPayment,\n            units,\n            false,\n            true,\n            block.timestamp,\n            0,\n            0,\n            0\n        );\n\n        uint256 x = _minimumPayment * units;\n        require(\n            x / units == _minimumPayment,\n            \"minimumPayment * collateralPerPayment overflows\"\n        );\n    }\n\n    function tallyVotes() public {}\n\n    /**\n     * @dev Prevents overflows\n     *\n     */\n    function multiplyDecimal(uint256 x, Rational memory r)\n        internal\n        pure\n        returns (uint256)\n    {\n        return (x * r.numerator) / r.denominator;\n    }\n\n    /**\n     * @dev Recalculates interest and also conducts check and balances\n     *\n     */\n    function calculateComponents(uint256 amount)\n        internal\n        view\n        returns (uint256 interest, uint256 principal)\n    {\n        // interest = multiply(\n        //     loanBook[msg.sender].remainingBalance,\n        //     loanBook[msg.sender].interestRate\n        // );\n        require(amount >= interest);\n        principal = amount - interest;\n        return (interest, principal);\n    }\n\n    /**\n     * @dev he loan is parameterized with collateralPerPayment,\n     *which represents the amount of collateral that will be returned\n     * or forfeited based on a minimumPayment. If the borrower pays an\n     *amount different than the minimum, the amount of collateral returned\n     * is adjusted proportionally.\n     *\n     */\n    function calculateCollateral(uint256 payment)\n        internal\n        view\n        returns (uint256 units)\n    {\n        uint256 product = loanBook[msg.sender].collateralPerPayment * payment;\n        require(\n            product / loanBook[msg.sender].collateralPerPayment == payment,\n            \"payment causes overflow\"\n        );\n        units = product / loanBook[msg.sender].minimumPayment;\n        return units;\n    }\n\n    /**\n     * @dev a symmetry between accepting loan payments and handling missed payments.\n     * In both cases, there is an adjustment to the remaining principal balance and a\n     * corresponding transfer of tokens. The only difference is that the tokens are\n     * returned to the borrower after a payment, but they are forfeited to the lender\n     * after a missed payment\n     *\n     *Additional Note: the code above does the token transfer last, which follows the\n     * Checks-Effects-Interactions pattern to avoid potential reentrancy vulnerabilities\n     */\n    function processPeriod(\n        uint256 interest,\n        uint256 principal,\n        address recipient\n    ) internal {\n        if (recipient == 0x0000000000000000000000000000000000000000) {\n            uint256 units = calculateCollateral(interest + principal);\n\n            loanBook[msg.sender].remainingBalance -= principal;\n\n            loanBook[msg.sender].dueDate += loanBook[msg.sender].paymentPeriod;\n        } else {\n            uint256 units = calculateCollateral(interest + principal);\n\n            loanBook[msg.sender].remainingBalance -= principal;\n\n            loanBook[msg.sender].dueDate += loanBook[msg.sender].paymentPeriod;\n\n            require(token.transfer(recipient, units));\n        }\n    }\n\n    /**\n     * @dev Function for the user to make a payment with ETH\n     *\n     */\n    function makePayment() public payable {\n        require(block.timestamp <= loanBook[msg.sender].dueDate);\n\n        uint256 interest;\n        uint256 principal;\n        (interest, principal) = calculateComponents(msg.value);\n\n        require(principal <= loanBook[msg.sender].remainingBalance);\n        require(\n            msg.value >= loanBook[msg.sender].minimumPayment ||\n                principal == loanBook[msg.sender].remainingBalance\n        );\n\n        processPeriod(interest, principal, msg.sender);\n    }\n\n    /**\n     * @dev  computes the principal component of the missed payment.\n     * This assumes the payment was the minimum amount, which is true\n     * for all but, possibly, the last payment. The conditional handles\n     * the boundary condition when the principal remaining is less than\n     * the principal component of a minimum payment.\n     *\n     */\n    function missedPayment() public {\n        require(block.timestamp > loanBook[msg.sender].dueDate);\n\n        uint256 interest;\n        uint256 principal;\n        (interest, principal) = calculateComponents(\n            loanBook[msg.sender].minimumPayment\n        );\n\n        if (principal > loanBook[msg.sender].remainingBalance) {\n            principal = loanBook[msg.sender].remainingBalance;\n        }\n\n        processPeriod(\n            interest,\n            principal,\n            0x0000000000000000000000000000000000000000\n        );\n    }\n\n    /**\n     * @dev  smart contract allows borrowers to pay more than the minimum,\n     * which will ultimately lead to less total paid because of avoided interest.\n     * If used, this feature will lead to excess collateral owned by the loan contract\n     * after its been fully paid off. This collateral belongs to the borrower.\n     * The simplest way to handle that is to allow excess tokens to be claimed when the remainingBalance is zero:\n     *\n     */\n    function returnCollateral() public {\n        require(loanBook[msg.sender].remainingBalance == 0);\n\n        uint256 amount = token.balanceOf(address(this));\n        require(token.transfer(msg.sender, amount));\n    }\n\n    /**\n     * @dev Deletes loan instance once the user has paid his first loan in full\n     */\n    function cleanSlate() public {\n        require(loanBook[msg.sender].remainingBalance == 0);\n        delete loanBook[msg.sender];\n    }\n\n    // **************************** Voting *******************************\n\n    enum State {Created, Voting, Ended}\n    State public state;\n\n    modifier inState(State _state) {\n        require(state == _state);\n        _;\n    }\n\n    /**\n     * @dev starts the voting process\n     *\n     */\n    function startVote() internal inState(State.Created) {\n        state = State.Voting;\n    }\n\n    /**\n     * @dev DOES the vote takes in the voter choice\n     *\n     */\n\n    function doVote(uint256 _signature, bool _vote)\n        public\n        inState(State.Voting)\n        returns (bool voted)\n    {\n        // bool found = false;\n        require(\n            voteBook[_signature][msg.sender] == false,\n            \"You have already voted.\"\n        );\n\n        voteBook[_signature][msg.sender] = true;\n\n        if (_vote == true) {\n            loanBook[msg.sender].yes++;\n        } else {\n            loanBook[msg.sender].no++;\n        }\n        loanBook[msg.sender].totalVote++;\n\n        return true;\n    }\n\n    /**\n     * @dev Ends the voting\n     *\n     */\n\n    // function endVote() internal inState(State.Voting) {\n    //     state = State.Ended;\n    //     finalResult = countResult;\n    //     emit voteEnded(finalResult);\n    // }\n\n    // if voting is past 7 days then loan ends. Must be take take 21 votes\n\n    // **************************** Staking *******************************\n\n    mapping(uint256 => mapping(uint256 => uint256)) stakingRewardRate;\n\n    mapping(address => User) userBook;\n\n    uint256 CBLTReserve = 100000;\n\n    struct User {\n        uint256 depositTime;\n        uint256 rewardWallet;\n        uint256 ethBalance;\n        uint256 cbltReserved;\n        uint256 timeStakedTier;\n    }\n\n    function calculateReward(\n        uint256 _amount,\n        uint256 _timeStakedTier,\n        uint256 _amountStakedTier\n    ) public returns (uint256) {\n        // Pull token price from oracle\n        // (bool result, bytes memory data) =\n        //     oracleAddress.call(\n        //         abi.encodeWithSignature(\n        //             \"getValue(address)\",\n        //             0x29a99c126596c0Dc96b02A88a9EAab44EcCf511e\n        //         )\n        //     );\n        // Decode bytes data\n        // uint256 tokenPrice = abi.decode(data, (uint256));\n\n        uint256 tokenPrice = 3700000000000000;\n\n        return\n            SafeMath.div(\n                SafeMath.multiply(\n                    _amount,\n                    stakingRewardRate[_timeStakedTier][_amountStakedTier],\n                    100\n                ),\n                tokenPrice\n            );\n    }\n\n    function depositEth(uint256 _timeStakedTier) public payable {\n        // Check the amountStakedTier based on deposit\n        uint256 _amountStakedTier;\n\n        if (msg.value <= 4e17) {\n            _amountStakedTier = 5;\n        } else if (msg.value <= 2e18) {\n            _amountStakedTier = 4;\n        } else if (msg.value <= 5e18) {\n            _amountStakedTier = 3;\n        } else if (msg.value <= 25e18) {\n            _amountStakedTier = 2;\n        } else {\n            _amountStakedTier = 1;\n        }\n\n        // Minimum deposit of 0.015 ETH\n        require(msg.value >= 15e16, \"Error, deposit must be >= 0.015 ETH\");\n\n        // Checks the amount of CBLT tokens that need to be reserved\n        uint256 cbltReserved =\n            calculateReward(msg.value, _timeStakedTier, _amountStakedTier);\n\n        // Treasury must have that amount open\n        require(cbltReserved <= CBLTReserve, \"Treasury is currently depleted\");\n\n        // Substract CBLT tokens reserved for stake from treasury\n        CBLTReserve = SafeMath.sub(CBLTReserve, cbltReserved);\n\n        // Saves the amount of CBLT tokens reserved in user struct\n        userBook[msg.sender].cbltReserved = cbltReserved;\n\n        // Save information on the time tier\n        userBook[msg.sender].timeStakedTier = _timeStakedTier;\n\n        // Save new eth deposit in user account\n        userBook[msg.sender].ethBalance = SafeMath.add(\n            userBook[msg.sender].ethBalance,\n            msg.value\n        );\n\n        // Change the time of deposit\n        userBook[msg.sender].depositTime = block.timestamp;\n\n        // emit onReceived(msg.sender, msg.value);\n    }\n\n    function withdrawEth(uint256 _amount) public {\n        // Calulate how many months since first staked\n\n        uint256 monthsAfterDeposit =\n            SafeMath.div(\n                SafeMath.sub(block.timestamp, userBook[msg.sender].depositTime),\n                2629743\n            );\n        // Make sure user staked for at least 1 month\n        // require(monthsAfterDeposit >= 1, \"Wait 30 days to withdraw\");\n\n        uint256 _amountStakedTier;\n\n        uint256 userBalance = userBook[msg.sender].ethBalance;\n\n        if (userBalance <= 4e17) {\n            _amountStakedTier = 5;\n        } else if (userBalance <= 2e18) {\n            _amountStakedTier = 4;\n        } else if (userBalance <= 5e18) {\n            _amountStakedTier = 3;\n        } else if (userBalance <= 25e18) {\n            _amountStakedTier = 2;\n        } else {\n            _amountStakedTier = 1;\n        }\n\n        uint256 stakedPeriodMonths;\n\n        if (userBook[msg.sender].timeStakedTier == 1) {\n            stakedPeriodMonths = 1;\n        } else if (userBook[msg.sender].timeStakedTier == 2) {\n            stakedPeriodMonths = 2;\n        } else if (userBook[msg.sender].timeStakedTier == 3) {\n            stakedPeriodMonths = 3;\n        } else if (userBook[msg.sender].timeStakedTier == 4) {\n            stakedPeriodMonths = 6;\n        } else {\n            stakedPeriodMonths = 12;\n        }\n\n        // Recalculate total CBLT tokens based on current token value\n        uint256 stakingReward =\n            calculateReward(\n                userBook[msg.sender].ethBalance,\n                userBook[msg.sender].timeStakedTier,\n                _amountStakedTier\n            );\n        // Calculate staking reward based on months staked\n        uint256 monthBasedReward =\n            SafeMath.multiply(\n                stakingReward,\n                monthsAfterDeposit,\n                stakedPeriodMonths\n            );\n\n        // Save reward in wallet\n        userBook[msg.sender].rewardWallet = SafeMath.add(\n            userBook[msg.sender].rewardWallet,\n            stakingReward\n        );\n\n        // Substract eth from user account\n        userBook[msg.sender].ethBalance = SafeMath.sub(\n            userBook[msg.sender].ethBalance,\n            _amount\n        );\n        // Change the latest time of deposit\n        userBook[msg.sender].depositTime = block.timestamp;\n\n        payable(msg.sender).transfer(_amount);\n    }\n\n    function testUserData()\n        public\n        view\n        returns (\n            uint256,\n            uint256,\n            uint256,\n            uint256\n        )\n    {\n        return (\n            userBook[msg.sender].ethBalance,\n            userBook[msg.sender].depositTime,\n            userBook[msg.sender].cbltReserved,\n            userBook[msg.sender].timeStakedTier\n        );\n    }\n\n    function withdrawStaking() public payable {\n        require(\n            userBook[msg.sender].rewardWallet >= 50,\n            \"Reward wallet does not have 50$\"\n        );\n    }\n    // Voting\n    // Lending\n    // Cobalt tokens saved on amount staked\n    // Wallet only updated when user deposits or withdraws\n    // Fixed period loans\n    // Functions check the current balance the treasury has avaliable to stake\n    // Tier system in place\n    // Function to recalculate amount of cblt tokens reserved based on amount staked\n    // 30 60 90 180 365\n}\n\n// 7 days\n// 3 missed payments back to back\n// 4 missed payment overall\n// 6 years 100k ++++\n// 2 years 100k ----\n\n// ************************************* CHANGES ************************************\n\n// mapping (uint id => Loan) loanBook;\n// signature NFT\n\n// loanBook[id]\n// loanBook[id].signature // NFT\n\n// function borrow() {\n//     require(loanBook[id].signature == NFT.value)\n// }\n\n// ******************************** INCENTIVE SYSTEM *******************************\n\n// tier 1 - Loan  50k - Max voters 100 - 5 per head\n//        - msg.sender CBLTs > 300$ worth of ETH\n// tier 2 - Loan 100k - Max voters 150 - 7.5 per head\n//        - msg.sender CBLTs > 200\n// tier 3 - Loan 200k - Max voters 200 - 10 per head\n//        - msg.sender CBLTs > 400\n\n// ************************************** TODOS ************************************\n\n// Starting period, 12-24 months\n// Collateral paid on loan application\n// Create new function to handle application\n// Create a new function to check if loan is ready to loan\n// Array of all voters\n// Save interest amount on loan to an specific\n\n// Calling oracle from ABI\n\n// (bool result, bytes memory data) =\n//             oracleAddress.call(\n//                 abi.encodeWithSignature(\n//                     \"priceOfPair(address,address)\",\n//                     _sellToken,\n//                     _buyToken\n//                 )\n//             );\n//         // Decode bytes data\n//         (uint256 sellTokenValue, uint256 buyTokenValue) =\n//             abi.decode(data, (uint256, uint256));\n",
  "sourcePath": "/Users/christianroque/Desktop/solidity-playground/contracts/Bank.sol",
  "compiler": {
    "name": "solc",
    "version": "0.7.6+commit.7338295f.Emscripten.clang"
  },
  "schemaVersion": "3.3.4",
  "updatedAt": "2021-04-29T13:40:23.894Z",
  "devdoc": {
    "events": {
      "onReceived(address,uint256)": {
        "details": "Events emitted"
      }
    },
    "kind": "dev",
    "methods": {
      "addToken(address)": {
        "details": "function that will add a token to the list of supported tokens"
      },
      "balanceOf()": {
        "details": "method that will show the balance that the caller has for a certain token"
      },
      "cleanSlate()": {
        "details": "Deletes loan instance once the user has paid his first loan in full"
      },
      "deposit()": {
        "details": "method to deposit eth into the bank"
      },
      "depositTokens(address,uint256)": {
        "details": "method to deposit tokens into the bank"
      },
      "doVote(uint256,bool)": {
        "details": "DOES the vote takes in the voter choice"
      },
      "isTokenAllowed(address)": {
        "details": "allows for chromium contract to see which tokens are allowed to be deposited into treasury"
      },
      "makePayment()": {
        "details": "Function for the user to make a payment with ETH"
      },
      "missedPayment()": {
        "details": "computes the principal component of the missed payment. This assumes the payment was the minimum amount, which is true for all but, possibly, the last payment. The conditional handles the boundary condition when the principal remaining is less than the principal component of a minimum payment."
      },
      "newLoan(uint256,uint256,uint256,uint256,uint256,uint256)": {
        "details": "Recalculates interest and also conducts check and balances"
      },
      "removeToken(address)": {
        "details": "function that will remove token from list of supported tokens"
      },
      "returnCollateral()": {
        "details": "smart contract allows borrowers to pay more than the minimum, which will ultimately lead to less total paid because of avoided interest. If used, this feature will lead to excess collateral owned by the loan contract after its been fully paid off. This collateral belongs to the borrower. The simplest way to handle that is to allow excess tokens to be claimed when the remainingBalance is zero:"
      },
      "setChromium(address)": {
        "details": "sets the chromium address"
      },
      "totalTokenSupply(address)": {
        "details": "method that will show the total amount of tokens in the bank for"
      },
      "withdraw(uint256)": {
        "details": "method to withdraw eth from account"
      },
      "withdrawCbltForExchange(address,address,address,uint256,uint256)": {
        "details": "allows for CBLT Tokens to be withdrawn from treasury by chromium"
      },
      "withdrawTokens(address,uint256)": {
        "details": "method that will withdraw tokens from the bank if the caller has tokens in the bank"
      }
    },
    "stateVariables": {
      "_tokenSupply": {
        "details": "a ledger of the amount of each token in the bank"
      },
      "chromiumAddress": {
        "details": "chromium address for modifier"
      },
      "etherBalance": {
        "details": "a ledger of the amount of each token in the bank"
      },
      "loanBook": {
        "details": "mapping used to store all loan information with the key of borrower address  and value of Loan struct with all loan information"
      },
      "oracleAddress": {
        "details": "CobaltLend oracle for scoring and CBLT price"
      },
      "rewardRate": {
        "details": "reward rate ratio for staking"
      },
      "stakingRewardRate": {
        "details": "Ends the voting"
      },
      "token": {
        "details": "storing CBLT token in ERC20 type"
      },
      "tokenOwnerBalance": {
        "details": "a list for each token and each user that has deposited some of that token into the bank"
      },
      "tokensAllowed": {
        "details": "a list of all supported tokens"
      }
    },
    "version": 1
  },
  "userdoc": {
    "kind": "user",
    "methods": {},
    "version": 1
  }
}