{
  "contractName": "Bank",
  "abi": [
    {
      "inputs": [
        {
          "internalType": "address",
          "name": "_CBLT",
          "type": "address"
        },
        {
          "internalType": "address",
          "name": "_oracle",
          "type": "address"
        }
      ],
      "stateMutability": "nonpayable",
      "type": "constructor"
    },
    {
      "anonymous": false,
      "inputs": [
        {
          "indexed": false,
          "internalType": "address",
          "name": "_previousOwner",
          "type": "address"
        },
        {
          "indexed": true,
          "internalType": "address",
          "name": "_newOwner",
          "type": "address"
        }
      ],
      "name": "OwnershipTransferred",
      "type": "event"
    },
    {
      "anonymous": false,
      "inputs": [
        {
          "indexed": false,
          "internalType": "address",
          "name": "",
          "type": "address"
        },
        {
          "indexed": false,
          "internalType": "uint256",
          "name": "",
          "type": "uint256"
        }
      ],
      "name": "Received",
      "type": "event"
    },
    {
      "anonymous": false,
      "inputs": [
        {
          "indexed": true,
          "internalType": "address",
          "name": "_from",
          "type": "address"
        },
        {
          "indexed": false,
          "internalType": "uint256",
          "name": "_amount",
          "type": "uint256"
        }
      ],
      "name": "depositToken",
      "type": "event"
    },
    {
      "anonymous": false,
      "inputs": [
        {
          "indexed": true,
          "internalType": "address",
          "name": "_from",
          "type": "address"
        },
        {
          "indexed": false,
          "internalType": "uint256",
          "name": "_amount",
          "type": "uint256"
        }
      ],
      "name": "onReceived",
      "type": "event"
    },
    {
      "anonymous": false,
      "inputs": [
        {
          "indexed": true,
          "internalType": "address",
          "name": "_from",
          "type": "address"
        },
        {
          "indexed": true,
          "internalType": "address",
          "name": "_to",
          "type": "address"
        },
        {
          "indexed": false,
          "internalType": "uint256",
          "name": "_amount",
          "type": "uint256"
        }
      ],
      "name": "onTransfer",
      "type": "event"
    },
    {
      "inputs": [],
      "name": "_owner",
      "outputs": [
        {
          "internalType": "address",
          "name": "",
          "type": "address"
        }
      ],
      "stateMutability": "view",
      "type": "function"
    },
    {
      "inputs": [],
      "name": "borrowingPool",
      "outputs": [
        {
          "internalType": "uint256",
          "name": "",
          "type": "uint256"
        }
      ],
      "stateMutability": "view",
      "type": "function"
    },
    {
      "inputs": [],
      "name": "feeThreshold",
      "outputs": [
        {
          "internalType": "uint256",
          "name": "",
          "type": "uint256"
        }
      ],
      "stateMutability": "view",
      "type": "function"
    },
    {
      "inputs": [],
      "name": "flatFee",
      "outputs": [
        {
          "internalType": "uint256",
          "name": "",
          "type": "uint256"
        }
      ],
      "stateMutability": "view",
      "type": "function"
    },
    {
      "inputs": [],
      "name": "isOwner",
      "outputs": [
        {
          "internalType": "bool",
          "name": "",
          "type": "bool"
        }
      ],
      "stateMutability": "view",
      "type": "function"
    },
    {
      "inputs": [],
      "name": "percentFee",
      "outputs": [
        {
          "internalType": "uint256",
          "name": "",
          "type": "uint256"
        }
      ],
      "stateMutability": "view",
      "type": "function"
    },
    {
      "inputs": [
        {
          "internalType": "address",
          "name": "",
          "type": "address"
        },
        {
          "internalType": "address",
          "name": "",
          "type": "address"
        }
      ],
      "name": "rewardWallet",
      "outputs": [
        {
          "internalType": "uint256",
          "name": "",
          "type": "uint256"
        }
      ],
      "stateMutability": "view",
      "type": "function"
    },
    {
      "inputs": [
        {
          "internalType": "uint256",
          "name": "",
          "type": "uint256"
        },
        {
          "internalType": "uint256",
          "name": "",
          "type": "uint256"
        }
      ],
      "name": "stakingRewardRate",
      "outputs": [
        {
          "internalType": "uint256",
          "name": "interest",
          "type": "uint256"
        },
        {
          "internalType": "uint256",
          "name": "amountStakersLeft",
          "type": "uint256"
        },
        {
          "internalType": "uint256",
          "name": "tierDuration",
          "type": "uint256"
        }
      ],
      "stateMutability": "view",
      "type": "function"
    },
    {
      "inputs": [],
      "name": "stakingStatus",
      "outputs": [
        {
          "internalType": "bool",
          "name": "",
          "type": "bool"
        }
      ],
      "stateMutability": "view",
      "type": "function"
    },
    {
      "inputs": [],
      "name": "terminateStaking",
      "outputs": [
        {
          "internalType": "bool",
          "name": "",
          "type": "bool"
        }
      ],
      "stateMutability": "view",
      "type": "function"
    },
    {
      "inputs": [],
      "name": "tierMax",
      "outputs": [
        {
          "internalType": "uint256",
          "name": "",
          "type": "uint256"
        }
      ],
      "stateMutability": "view",
      "type": "function"
    },
    {
      "inputs": [
        {
          "internalType": "address",
          "name": "",
          "type": "address"
        }
      ],
      "name": "tokenReserve",
      "outputs": [
        {
          "internalType": "uint256",
          "name": "",
          "type": "uint256"
        }
      ],
      "stateMutability": "view",
      "type": "function"
    },
    {
      "inputs": [],
      "name": "totalFeeBalance",
      "outputs": [
        {
          "internalType": "uint256",
          "name": "",
          "type": "uint256"
        }
      ],
      "stateMutability": "view",
      "type": "function"
    },
    {
      "inputs": [
        {
          "internalType": "address",
          "name": "_newOwner",
          "type": "address"
        }
      ],
      "name": "transferOwnership",
      "outputs": [],
      "stateMutability": "nonpayable",
      "type": "function"
    },
    {
      "inputs": [
        {
          "internalType": "address",
          "name": "",
          "type": "address"
        }
      ],
      "name": "userBook",
      "outputs": [
        {
          "internalType": "uint256",
          "name": "ethBalance",
          "type": "uint256"
        },
        {
          "internalType": "uint256",
          "name": "tokenReserved",
          "type": "uint256"
        },
        {
          "internalType": "uint256",
          "name": "depositTime",
          "type": "uint256"
        },
        {
          "internalType": "uint256",
          "name": "timeStakedTier",
          "type": "uint256"
        },
        {
          "internalType": "uint256",
          "name": "amountStakedTier",
          "type": "uint256"
        },
        {
          "internalType": "address",
          "name": "currentTokenStaked",
          "type": "address"
        }
      ],
      "stateMutability": "view",
      "type": "function"
    },
    {
      "stateMutability": "payable",
      "type": "receive"
    },
    {
      "inputs": [],
      "name": "getTokenSupport",
      "outputs": [
        {
          "internalType": "bool",
          "name": "",
          "type": "bool"
        }
      ],
      "stateMutability": "view",
      "type": "function"
    },
    {
      "inputs": [
        {
          "internalType": "address",
          "name": "_tokenAddress",
          "type": "address"
        }
      ],
      "name": "getTokenReserve",
      "outputs": [
        {
          "internalType": "uint256",
          "name": "",
          "type": "uint256"
        }
      ],
      "stateMutability": "view",
      "type": "function"
    },
    {
      "inputs": [],
      "name": "getStakingStatus",
      "outputs": [
        {
          "internalType": "bool",
          "name": "",
          "type": "bool"
        }
      ],
      "stateMutability": "view",
      "type": "function"
    },
    {
      "inputs": [
        {
          "internalType": "bool",
          "name": "_bool",
          "type": "bool"
        }
      ],
      "name": "setStakingTermination",
      "outputs": [],
      "stateMutability": "nonpayable",
      "type": "function"
    },
    {
      "inputs": [
        {
          "internalType": "bool",
          "name": "_bool",
          "type": "bool"
        }
      ],
      "name": "setTokenSupport",
      "outputs": [],
      "stateMutability": "nonpayable",
      "type": "function"
    },
    {
      "inputs": [
        {
          "internalType": "bool",
          "name": "_bool",
          "type": "bool"
        }
      ],
      "name": "setStakingStatus",
      "outputs": [],
      "stateMutability": "nonpayable",
      "type": "function"
    },
    {
      "inputs": [
        {
          "internalType": "uint256",
          "name": "_amount",
          "type": "uint256"
        },
        {
          "internalType": "address",
          "name": "_tokenAddress",
          "type": "address"
        }
      ],
      "name": "tokenReserveDeposit",
      "outputs": [],
      "stateMutability": "payable",
      "type": "function"
    },
    {
      "inputs": [
        {
          "internalType": "address",
          "name": "_treasuryAddress",
          "type": "address"
        }
      ],
      "name": "setContract",
      "outputs": [],
      "stateMutability": "nonpayable",
      "type": "function"
    },
    {
      "inputs": [],
      "name": "getTotalBalance",
      "outputs": [
        {
          "internalType": "uint256",
          "name": "",
          "type": "uint256"
        }
      ],
      "stateMutability": "view",
      "type": "function"
    },
    {
      "inputs": [
        {
          "internalType": "uint256",
          "name": "_amount",
          "type": "uint256"
        }
      ],
      "name": "withdrawFees",
      "outputs": [],
      "stateMutability": "payable",
      "type": "function"
    },
    {
      "inputs": [
        {
          "internalType": "uint256",
          "name": "_newFee",
          "type": "uint256"
        }
      ],
      "name": "newFlatFee",
      "outputs": [],
      "stateMutability": "nonpayable",
      "type": "function"
    },
    {
      "inputs": [
        {
          "internalType": "uint256",
          "name": "_newFee",
          "type": "uint256"
        }
      ],
      "name": "newPercentFee",
      "outputs": [],
      "stateMutability": "nonpayable",
      "type": "function"
    },
    {
      "inputs": [
        {
          "internalType": "uint256",
          "name": "_num",
          "type": "uint256"
        }
      ],
      "name": "proposeNumberChange",
      "outputs": [],
      "stateMutability": "nonpayable",
      "type": "function"
    },
    {
      "inputs": [
        {
          "internalType": "uint256",
          "name": "_amountTier",
          "type": "uint256"
        },
        {
          "internalType": "uint256",
          "name": "_timeTier",
          "type": "uint256"
        },
        {
          "internalType": "uint256",
          "name": "_interest",
          "type": "uint256"
        },
        {
          "internalType": "uint256",
          "name": "_amountStakersLeft",
          "type": "uint256"
        },
        {
          "internalType": "uint256",
          "name": "_tierDuration",
          "type": "uint256"
        }
      ],
      "name": "proposeTierChange",
      "outputs": [],
      "stateMutability": "nonpayable",
      "type": "function"
    },
    {
      "inputs": [],
      "name": "getLotteryContract",
      "outputs": [
        {
          "internalType": "address",
          "name": "",
          "type": "address"
        }
      ],
      "stateMutability": "view",
      "type": "function"
    },
    {
      "inputs": [
        {
          "internalType": "address",
          "name": "_userAddress",
          "type": "address"
        }
      ],
      "name": "lotteryWinner",
      "outputs": [
        {
          "internalType": "bool",
          "name": "",
          "type": "bool"
        }
      ],
      "stateMutability": "view",
      "type": "function"
    },
    {
      "inputs": [
        {
          "internalType": "address",
          "name": "_lotteryAddress",
          "type": "address"
        }
      ],
      "name": "setLotteryContract",
      "outputs": [],
      "stateMutability": "nonpayable",
      "type": "function"
    },
    {
      "inputs": [
        {
          "internalType": "address[]",
          "name": "_winners",
          "type": "address[]"
        }
      ],
      "name": "lottery",
      "outputs": [],
      "stateMutability": "nonpayable",
      "type": "function"
    },
    {
      "inputs": [
        {
          "internalType": "uint256",
          "name": "_tokenAmount",
          "type": "uint256"
        },
        {
          "internalType": "address",
          "name": "_tokenAddress",
          "type": "address"
        }
      ],
      "name": "getEstimateUSD",
      "outputs": [
        {
          "internalType": "uint256",
          "name": "",
          "type": "uint256"
        }
      ],
      "stateMutability": "view",
      "type": "function"
    },
    {
      "inputs": [
        {
          "internalType": "uint256",
          "name": "_amount",
          "type": "uint256"
        },
        {
          "internalType": "uint256",
          "name": "_timeTier",
          "type": "uint256"
        }
      ],
      "name": "getTierInformation",
      "outputs": [
        {
          "internalType": "uint256",
          "name": "",
          "type": "uint256"
        },
        {
          "internalType": "uint256",
          "name": "",
          "type": "uint256"
        },
        {
          "internalType": "uint256",
          "name": "",
          "type": "uint256"
        }
      ],
      "stateMutability": "view",
      "type": "function"
    },
    {
      "inputs": [
        {
          "internalType": "uint256",
          "name": "_amountTier",
          "type": "uint256"
        },
        {
          "internalType": "uint256",
          "name": "_timeTier",
          "type": "uint256"
        }
      ],
      "name": "getTierCombination",
      "outputs": [
        {
          "internalType": "uint256",
          "name": "",
          "type": "uint256"
        },
        {
          "internalType": "uint256",
          "name": "",
          "type": "uint256"
        },
        {
          "internalType": "uint256",
          "name": "",
          "type": "uint256"
        }
      ],
      "stateMutability": "view",
      "type": "function"
    },
    {
      "inputs": [
        {
          "internalType": "address",
          "name": "_userAddress",
          "type": "address"
        }
      ],
      "name": "getUser",
      "outputs": [
        {
          "internalType": "uint256",
          "name": "",
          "type": "uint256"
        },
        {
          "internalType": "uint256",
          "name": "",
          "type": "uint256"
        },
        {
          "internalType": "uint256",
          "name": "",
          "type": "uint256"
        },
        {
          "internalType": "uint256",
          "name": "",
          "type": "uint256"
        },
        {
          "internalType": "uint256",
          "name": "",
          "type": "uint256"
        },
        {
          "internalType": "address",
          "name": "",
          "type": "address"
        }
      ],
      "stateMutability": "view",
      "type": "function"
    },
    {
      "inputs": [
        {
          "internalType": "address",
          "name": "_userAddress",
          "type": "address"
        },
        {
          "internalType": "address",
          "name": "_tokenAddress",
          "type": "address"
        }
      ],
      "name": "getUserBalance",
      "outputs": [
        {
          "internalType": "uint256",
          "name": "",
          "type": "uint256"
        }
      ],
      "stateMutability": "view",
      "type": "function"
    },
    {
      "inputs": [
        {
          "internalType": "uint256",
          "name": "_amountTier",
          "type": "uint256"
        },
        {
          "internalType": "uint256",
          "name": "_timeTier",
          "type": "uint256"
        },
        {
          "internalType": "uint256",
          "name": "_interest",
          "type": "uint256"
        },
        {
          "internalType": "uint256",
          "name": "_amountStakersLeft",
          "type": "uint256"
        },
        {
          "internalType": "uint256",
          "name": "_tierDuration",
          "type": "uint256"
        }
      ],
      "name": "setTierInformation",
      "outputs": [],
      "stateMutability": "nonpayable",
      "type": "function"
    },
    {
      "inputs": [
        {
          "internalType": "uint256",
          "name": "_amount",
          "type": "uint256"
        }
      ],
      "name": "calculateFee",
      "outputs": [
        {
          "internalType": "uint256",
          "name": "",
          "type": "uint256"
        },
        {
          "internalType": "uint256",
          "name": "",
          "type": "uint256"
        }
      ],
      "stateMutability": "view",
      "type": "function"
    },
    {
      "inputs": [
        {
          "internalType": "uint256",
          "name": "_amount",
          "type": "uint256"
        },
        {
          "internalType": "uint256",
          "name": "_timeStakedTier",
          "type": "uint256"
        },
        {
          "internalType": "address",
          "name": "_tokenAddress",
          "type": "address"
        }
      ],
      "name": "getTokenReturn",
      "outputs": [
        {
          "internalType": "uint256",
          "name": "",
          "type": "uint256"
        },
        {
          "internalType": "uint256",
          "name": "",
          "type": "uint256"
        },
        {
          "internalType": "uint256",
          "name": "",
          "type": "uint256"
        },
        {
          "internalType": "uint256",
          "name": "",
          "type": "uint256"
        }
      ],
      "stateMutability": "view",
      "type": "function"
    },
    {
      "inputs": [
        {
          "internalType": "uint32",
          "name": "_timeStakedTier",
          "type": "uint32"
        },
        {
          "internalType": "address",
          "name": "_tokenAddress",
          "type": "address"
        }
      ],
      "name": "stakeEth",
      "outputs": [],
      "stateMutability": "payable",
      "type": "function"
    },
    {
      "inputs": [
        {
          "internalType": "uint256",
          "name": "_amount",
          "type": "uint256"
        }
      ],
      "name": "withdrawEth",
      "outputs": [],
      "stateMutability": "payable",
      "type": "function"
    },
    {
      "inputs": [
        {
          "internalType": "uint256",
          "name": "_amount",
          "type": "uint256"
        },
        {
          "internalType": "address",
          "name": "_withdrawTokenAddress",
          "type": "address"
        }
      ],
      "name": "withdrawStaking",
      "outputs": [],
      "stateMutability": "payable",
      "type": "function"
    },
    {
      "inputs": [],
      "name": "earlyWithdraw",
      "outputs": [],
      "stateMutability": "payable",
      "type": "function"
    },
    {
      "inputs": [],
      "name": "emergencyWithdraw",
      "outputs": [],
      "stateMutability": "payable",
      "type": "function"
    },
    {
      "inputs": [],
      "name": "getContractBalance",
      "outputs": [
        {
          "internalType": "uint256",
          "name": "",
          "type": "uint256"
        }
      ],
      "stateMutability": "view",
      "type": "function"
    }
  ],
  "bytecode": "0x60806040523480156200001157600080fd5b506040516200656a3803806200656a833981810160405260408110156200003757600080fd5b810190808051906020019092919080519060200190929190505050336000806101000a81548173ffffffffffffffffffffffffffffffffffffffff021916908373ffffffffffffffffffffffffffffffffffffffff16021790555080600260006101000a81548173ffffffffffffffffffffffffffffffffffffffff021916908373ffffffffffffffffffffffffffffffffffffffff16021790555081600160006101000a81548173ffffffffffffffffffffffffffffffffffffffff021916908373ffffffffffffffffffffffffffffffffffffffff1602179055506b1363156bbee3016d700000006004600073433c6e3d2def6e1fb414cf9448724efb0399b69873ffffffffffffffffffffffffffffffffffffffff1673ffffffffffffffffffffffffffffffffffffffff168152602001908152602001600020819055506b1363156bbee3016d700000006004600073c778417e063141139fce010982780140aa0cd5ab73ffffffffffffffffffffffffffffffffffffffff1673ffffffffffffffffffffffffffffffffffffffff1681526020019081526020016000208190555060056017819055506000600360146101000a81548160ff0219169083151502179055506001600360156101000a81548160ff021916908315150217905550600360068190555060036007819055506000600360166101000a81548160ff021916908315150217905550674563918244f40000600581905550600160186000600181526020019081526020016000206000600181526020019081526020016000206000018190555060006018600060018152602001908152602001600020600060018152602001908152602001600020600101819055506107086018600060018152602001908152602001600020600060018152602001908152602001600020600201819055506002601860006001815260200190815260200160002060006002815260200190815260200160002060000181905550600060186000600181526020019081526020016000206000600281526020019081526020016000206001018190555061070860186000600181526020019081526020016000206000600281526020019081526020016000206002018190555060036018600060018152602001908152602001600020600060038152602001908152602001600020600001819055506000601860006001815260200190815260200160002060006003815260200190815260200160002060010181905550610708601860006001815260200190815260200160002060006003815260200190815260200160002060020181905550600460186000600181526020019081526020016000206000600481526020019081526020016000206000018190555060006018600060018152602001908152602001600020600060048152602001908152602001600020600101819055506107086018600060018152602001908152602001600020600060048152602001908152602001600020600201819055506004601860006001815260200190815260200160002060006005815260200190815260200160002060000181905550600060186000600181526020019081526020016000206000600581526020019081526020016000206001018190555061070860186000600181526020019081526020016000206000600581526020019081526020016000206002018190555060016018600060028152602001908152602001600020600060018152602001908152602001600020600001819055506000601860006002815260200190815260200160002060006001815260200190815260200160002060010181905550610e1060186000600281526020019081526020016000206000600181526020019081526020016000206002018190555060026018600060028152602001908152602001600020600060028152602001908152602001600020600001819055506000601860006002815260200190815260200160002060006002815260200190815260200160002060010181905550610e1060186000600281526020019081526020016000206000600281526020019081526020016000206002018190555060036018600060028152602001908152602001600020600060038152602001908152602001600020600001819055506000601860006002815260200190815260200160002060006003815260200190815260200160002060010181905550610e1060186000600281526020019081526020016000206000600381526020019081526020016000206002018190555060046018600060028152602001908152602001600020600060048152602001908152602001600020600001819055506000601860006002815260200190815260200160002060006004815260200190815260200160002060010181905550610e1060186000600281526020019081526020016000206000600481526020019081526020016000206002018190555060046018600060028152602001908152602001600020600060058152602001908152602001600020600001819055506000601860006002815260200190815260200160002060006005815260200190815260200160002060010181905550610e10601860006002815260200190815260200160002060006005815260200190815260200160002060020181905550600160186000600381526020019081526020016000206000600181526020019081526020016000206000018190555060006018600060038152602001908152602001600020600060018152602001908152602001600020600101819055506115186018600060038152602001908152602001600020600060018152602001908152602001600020600201819055506002601860006003815260200190815260200160002060006002815260200190815260200160002060000181905550600060186000600381526020019081526020016000206000600281526020019081526020016000206001018190555061151860186000600381526020019081526020016000206000600281526020019081526020016000206002018190555060036018600060038152602001908152602001600020600060038152602001908152602001600020600001819055506000601860006003815260200190815260200160002060006003815260200190815260200160002060010181905550611518601860006003815260200190815260200160002060006003815260200190815260200160002060020181905550600460186000600381526020019081526020016000206000600481526020019081526020016000206000018190555060006018600060038152602001908152602001600020600060048152602001908152602001600020600101819055506115186018600060038152602001908152602001600020600060048152602001908152602001600020600201819055506004601860006003815260200190815260200160002060006005815260200190815260200160002060000181905550600060186000600381526020019081526020016000206000600581526020019081526020016000206001018190555061151860186000600381526020019081526020016000206000600581526020019081526020016000206002018190555060026018600060048152602001908152602001600020600060018152602001908152602001600020600001819055506101f4601860006004815260200190815260200160002060006001815260200190815260200160002060010181905550612a3060186000600481526020019081526020016000206000600181526020019081526020016000206002018190555060036018600060048152602001908152602001600020600060028152602001908152602001600020600001819055506101f4601860006004815260200190815260200160002060006002815260200190815260200160002060010181905550612a3060186000600481526020019081526020016000206000600281526020019081526020016000206002018190555060046018600060048152602001908152602001600020600060038152602001908152602001600020600001819055506101f4601860006004815260200190815260200160002060006003815260200190815260200160002060010181905550612a3060186000600481526020019081526020016000206000600381526020019081526020016000206002018190555060056018600060048152602001908152602001600020600060048152602001908152602001600020600001819055506103e8601860006004815260200190815260200160002060006004815260200190815260200160002060010181905550612a3060186000600481526020019081526020016000206000600481526020019081526020016000206002018190555060066018600060048152602001908152602001600020600060058152602001908152602001600020600001819055506103e8601860006004815260200190815260200160002060006005815260200190815260200160002060010181905550612a3060186000600481526020019081526020016000206000600581526020019081526020016000206002018190555060036018600060058152602001908152602001600020600060018152602001908152602001600020600001819055506101f460186000600581526020019081526020016000206000600181526020019081526020016000206001018190555061537060186000600581526020019081526020016000206000600181526020019081526020016000206002018190555060046018600060058152602001908152602001600020600060028152602001908152602001600020600001819055506101f460186000600581526020019081526020016000206000600281526020019081526020016000206001018190555061537060186000600581526020019081526020016000206000600281526020019081526020016000206002018190555060056018600060058152602001908152602001600020600060038152602001908152602001600020600001819055506101f460186000600581526020019081526020016000206000600381526020019081526020016000206001018190555061537060186000600581526020019081526020016000206000600381526020019081526020016000206002018190555060066018600060058152602001908152602001600020600060048152602001908152602001600020600001819055506103e860186000600581526020019081526020016000206000600481526020019081526020016000206001018190555061537060186000600581526020019081526020016000206000600481526020019081526020016000206002018190555060076018600060058152602001908152602001600020600060058152602001908152602001600020600001819055506103e8601860006005815260200190815260200160002060006005815260200190815260200160002060010181905550615370601860006005815260200190815260200160002060006005815260200190815260200160002060020181905550505061551c806200104e6000396000f3fe60806040526004361061028c5760003560e01c806375f890ab1161015a578063b123e7ed116100c1578063cab9b8fb1161007a578063cab9b8fb14610fbb578063cb4e162b14610fe8578063d9eb594714611013578063db2e21bc1461103e578063e3902a7014611048578063f2fde38b1461109c576102e8565b8063b123e7ed14610d7e578063b2bdfa7b14610e0c578063b8825aba14610e4d578063b8bec6a014610eeb578063c016deae14610f28578063c311d04914610f8d576102e8565b806385cf32dc1161011357806385cf32dc14610bde5780638f32d59b14610c1b57806397cb01c714610c4857806399a5d74714610c73578063a448dba614610cc9578063ae17e9aa14610d17576102e8565b806375f890ab14610a285780637a89f6ee14610a795780637d9f37c514610ae85780637ef5de7d14610b2357806383d899fc14610b4e5780638593788d14610b7b576102e8565b806350fc3165116101fe5780636335b801116101b75780636335b8011461074f5780636805d6ad1461079057806369bcb284146108155780636d55946b1461089a5780636f77926b1461095f5780636f9fb98a146109fd576102e8565b806350fc3165146105b057806354d39008146105dd5780635a0f5fe8146106425780635e318e071461067d5780636071c158146106ab57806361462631146106e8576102e8565b8063309279981161025057806330927998146103ec57806330b165201461042757806343450afe1461048a578063455ab53c146104f15780634b0b8e271461051e5780634c1a411514610585576102e8565b80630c5ce3ae146102ed57806312b58349146103185780631590a04f1461034357806315d74bb3146103945780631df74bba1461039e576102e8565b366102e8577f88a5966d370b9919b20f3e2c13ff65706f196a4e32cc2c12bf57088f885258743334604051808373ffffffffffffffffffffffffffffffffffffffff1681526020018281526020019250505060405180910390a1005b600080fd5b3480156102f957600080fd5b506103026110ed565b6040518082815260200191505060405180910390f35b34801561032457600080fd5b5061032d6110f3565b6040518082815260200191505060405180910390f35b34801561034f57600080fd5b506103926004803603602081101561036657600080fd5b81019080803573ffffffffffffffffffffffffffffffffffffffff1690602001909291905050506110fd565b005b61039c611141565b005b6103ea600480360360408110156103b457600080fd5b8101908080359060200190929190803573ffffffffffffffffffffffffffffffffffffffff1690602001909291905050506116fd565b005b3480156103f857600080fd5b506104256004803603602081101561040f57600080fd5b8101908080359060200190929190505050611c39565b005b34801561043357600080fd5b50610488600480360360a081101561044a57600080fd5b810190808035906020019092919080359060200190929190803590602001909291908035906020019092919080359060200190929190505050611d3c565b005b34801561049657600080fd5b506104d9600480360360208110156104ad57600080fd5b81019080803573ffffffffffffffffffffffffffffffffffffffff169060200190929190505050611d43565b60405180821515815260200191505060405180910390f35b3480156104fd57600080fd5b50610506611d99565b60405180821515815260200191505060405180910390f35b34801561052a57600080fd5b506105616004803603604081101561054157600080fd5b810190808035906020019092919080359060200190929190505050611dac565b60405180848152602001838152602001828152602001935050505060405180910390f35b34801561059157600080fd5b5061059a611e36565b6040518082815260200191505060405180910390f35b3480156105bc57600080fd5b506105c5611e3c565b60405180821515815260200191505060405180910390f35b3480156105e957600080fd5b5061062c6004803603602081101561060057600080fd5b81019080803573ffffffffffffffffffffffffffffffffffffffff169060200190929190505050611e4f565b6040518082815260200191505060405180910390f35b34801561064e57600080fd5b5061067b6004803603602081101561066557600080fd5b8101908080359060200190929190505050611e67565b005b6106a96004803603602081101561069357600080fd5b8101908080359060200190929190505050611e71565b005b3480156106b757600080fd5b506106e6600480360360208110156106ce57600080fd5b81019080803515159060200190929190505050611fce565b005b3480156106f457600080fd5b5061072b6004803603604081101561070b57600080fd5b810190808035906020019092919080359060200190929190505050611feb565b60405180848152602001838152602001828152602001935050505060405180910390f35b34801561075b57600080fd5b50610764612022565b604051808273ffffffffffffffffffffffffffffffffffffffff16815260200191505060405180910390f35b34801561079c57600080fd5b506107ff600480360360408110156107b357600080fd5b81019080803573ffffffffffffffffffffffffffffffffffffffff169060200190929190803573ffffffffffffffffffffffffffffffffffffffff16906020019092919050505061204c565b6040518082815260200191505060405180910390f35b34801561082157600080fd5b506108846004803603604081101561083857600080fd5b81019080803573ffffffffffffffffffffffffffffffffffffffff169060200190929190803573ffffffffffffffffffffffffffffffffffffffff1690602001909291905050506120d3565b6040518082815260200191505060405180910390f35b3480156108a657600080fd5b5061095d600480360360208110156108bd57600080fd5b81019080803590602001906401000000008111156108da57600080fd5b8201836020820111156108ec57600080fd5b8035906020019184602083028401116401000000008311171561090e57600080fd5b919080806020026020016040519081016040528093929190818152602001838360200280828437600081840152601f19601f8201169050808301925050505050505091929192905050506120f8565b005b34801561096b57600080fd5b506109ae6004803603602081101561098257600080fd5b81019080803573ffffffffffffffffffffffffffffffffffffffff1690602001909291905050506121da565b604051808781526020018681526020018581526020018481526020018381526020018273ffffffffffffffffffffffffffffffffffffffff168152602001965050505050505060405180910390f35b348015610a0957600080fd5b50610a126123aa565b6040518082815260200191505060405180910390f35b348015610a3457600080fd5b50610a7760048036036020811015610a4b57600080fd5b81019080803573ffffffffffffffffffffffffffffffffffffffff1690602001909291905050506123b2565b005b348015610a8557600080fd5b50610ad260048036036040811015610a9c57600080fd5b8101908080359060200190929190803573ffffffffffffffffffffffffffffffffffffffff1690602001909291905050506123f6565b6040518082815260200191505060405180910390f35b348015610af457600080fd5b50610b2160048036036020811015610b0b57600080fd5b81019080803590602001909291905050506125a6565b005b348015610b2f57600080fd5b50610b386125b0565b6040518082815260200191505060405180910390f35b348015610b5a57600080fd5b50610b636125b6565b60405180821515815260200191505060405180910390f35b348015610b8757600080fd5b50610bdc600480360360a0811015610b9e57600080fd5b8101908080359060200190929190803590602001909291908035906020019092919080359060200190929190803590602001909291905050506125cd565b005b348015610bea57600080fd5b50610c1960048036036020811015610c0157600080fd5b810190808035151590602001909291905050506126c4565b005b348015610c2757600080fd5b50610c306126e1565b60405180821515815260200191505060405180910390f35b348015610c5457600080fd5b50610c5d612738565b6040518082815260200191505060405180910390f35b348015610c7f57600080fd5b50610cac60048036036020811015610c9657600080fd5b810190808035906020019092919050505061273e565b604051808381526020018281526020019250505060405180910390f35b610d1560048036036040811015610cdf57600080fd5b8101908080359060200190929190803573ffffffffffffffffffffffffffffffffffffffff169060200190929190505050612858565b005b348015610d2357600080fd5b50610d5a60048036036040811015610d3a57600080fd5b810190808035906020019092919080359060200190929190505050612911565b60405180848152602001838152602001828152602001935050505060405180910390f35b348015610d8a57600080fd5b50610de160048036036060811015610da157600080fd5b810190808035906020019092919080359060200190929190803573ffffffffffffffffffffffffffffffffffffffff169060200190929190505050612a06565b6040518085815260200184815260200183815260200182815260200194505050505060405180910390f35b348015610e1857600080fd5b50610e21612aad565b604051808273ffffffffffffffffffffffffffffffffffffffff16815260200191505060405180910390f35b348015610e5957600080fd5b50610e9c60048036036020811015610e7057600080fd5b81019080803573ffffffffffffffffffffffffffffffffffffffff169060200190929190505050612ad1565b604051808781526020018681526020018581526020018481526020018381526020018273ffffffffffffffffffffffffffffffffffffffff168152602001965050505050505060405180910390f35b348015610ef757600080fd5b50610f2660048036036020811015610f0e57600080fd5b81019080803515159060200190929190505050612b2d565b005b348015610f3457600080fd5b50610f7760048036036020811015610f4b57600080fd5b81019080803573ffffffffffffffffffffffffffffffffffffffff169060200190929190505050612b4a565b6040518082815260200191505060405180910390f35b610fb960048036036020811015610fa357600080fd5b8101908080359060200190929190505050612b93565b005b348015610fc757600080fd5b50610fd0612f52565b60405180821515815260200191505060405180910390f35b348015610ff457600080fd5b50610ffd612f69565b6040518082815260200191505060405180910390f35b34801561101f57600080fd5b50611028612f6f565b6040518082815260200191505060405180910390f35b611046612f75565b005b61109a6004803603604081101561105e57600080fd5b81019080803563ffffffff169060200190929190803573ffffffffffffffffffffffffffffffffffffffff169060200190929190505050613152565b005b3480156110a857600080fd5b506110eb600480360360208110156110bf57600080fd5b81019080803573ffffffffffffffffffffffffffffffffffffffff169060200190929190505050613ab4565b005b60095481565b6000600954905090565b80601460016101000a81548173ffffffffffffffffffffffffffffffffffffffff021916908373ffffffffffffffffffffffffffffffffffffffff16021790555050565b600080156111d75760011515600360169054906101000a900460ff161515146111d2576040517f08c379a000000000000000000000000000000000000000000000000000000000815260040180806020018281038252601e8152602001807f5374616b696e672069732063757272656e746c792064697361626c65642e000081525060200191505060405180910390fd5b611244565b60001515600360169054906101000a900460ff16151514611243576040517f08c379a000000000000000000000000000000000000000000000000000000000815260040180806020018281038252602c815260200180615456602c913960400191505060405180910390fd5b5b6000601960003373ffffffffffffffffffffffffffffffffffffffff1673ffffffffffffffffffffffffffffffffffffffff1681526020019081526020016000206003015490506000601960003373ffffffffffffffffffffffffffffffffffffffff1673ffffffffffffffffffffffffffffffffffffffff1681526020019081526020016000206004015490506000601960003373ffffffffffffffffffffffffffffffffffffffff1673ffffffffffffffffffffffffffffffffffffffff16815260200190815260200160002060050160009054906101000a900473ffffffffffffffffffffffffffffffffffffffff1690506000601960003373ffffffffffffffffffffffffffffffffffffffff1673ffffffffffffffffffffffffffffffffffffffff1681526020019081526020016000206002015490506000601960003373ffffffffffffffffffffffffffffffffffffffff1673ffffffffffffffffffffffffffffffffffffffff1681526020019081526020016000206000015490506000601960003373ffffffffffffffffffffffffffffffffffffffff1673ffffffffffffffffffffffffffffffffffffffff16815260200190815260200160002060010154905060058611611467576040517f08c379a00000000000000000000000000000000000000000000000000000000081526004018080602001828103825260228152602001806153b26022913960400191505060405180910390fd5b60006114734285613bef565b90506000600260009054906101000a900473ffffffffffffffffffffffffffffffffffffffff1673ffffffffffffffffffffffffffffffffffffffff1663f3167c05876040518263ffffffff1660e01b8152600401808273ffffffffffffffffffffffffffffffffffffffff16815260200191505060206040518083038186803b15801561150057600080fd5b505afa158015611514573d6000803e3d6000fd5b505050506040513d602081101561152a57600080fd5b81019080805190602001909291905050509050600061158c61157e61157887601860008e815260200190815260200160002060008d8152602001908152602001600020600001546064613c06565b84613c1d565b670de0b6b3a7640000613c36565b905060006115c28285601860008e815260200190815260200160002060008d815260200190815260200160002060020154613c06565b90506000601960003373ffffffffffffffffffffffffffffffffffffffff1673ffffffffffffffffffffffffffffffffffffffff168152602001908152602001600020600001819055506000601960003373ffffffffffffffffffffffffffffffffffffffff1673ffffffffffffffffffffffffffffffffffffffff1681526020019081526020016000206001018190555042601960003373ffffffffffffffffffffffffffffffffffffffff1673ffffffffffffffffffffffffffffffffffffffff16815260200190815260200160002060020181905550848111156116a8576116a9565b5b3373ffffffffffffffffffffffffffffffffffffffff166108fc879081150290604051600060405180830381858888f193505050501580156116ef573d6000803e3d6000fd5b505050505050505050505050565b600080156117935760011515600360169054906101000a900460ff1615151461178e576040517f08c379a000000000000000000000000000000000000000000000000000000000815260040180806020018281038252601e8152602001807f5374616b696e672069732063757272656e746c792064697361626c65642e000081525060200191505060405180910390fd5b611800565b60001515600360169054906101000a900460ff161515146117ff576040517f08c379a000000000000000000000000000000000000000000000000000000000815260040180806020018281038252602c815260200180615456602c913960400191505060405180910390fd5b5b600080601960003373ffffffffffffffffffffffffffffffffffffffff1673ffffffffffffffffffffffffffffffffffffffff1681526020019081526020016000206001015490506000601960003373ffffffffffffffffffffffffffffffffffffffff1673ffffffffffffffffffffffffffffffffffffffff1681526020019081526020016000206003015490506000601960003373ffffffffffffffffffffffffffffffffffffffff1673ffffffffffffffffffffffffffffffffffffffff16815260200190815260200160002060040154905060008311156119b65761195260186000848152602001908152602001600020600083815260200190815260200160002060020154601960003373ffffffffffffffffffffffffffffffffffffffff1673ffffffffffffffffffffffffffffffffffffffff16815260200190815260200160002060020154613c6d565b93504284106119ac576040517f08c379a00000000000000000000000000000000000000000000000000000000081526004018080602001828103825260268152602001806152fd6026913960400191505060405180910390fd5b6119b583613c89565b5b600080600260009054906101000a900473ffffffffffffffffffffffffffffffffffffffff1673ffffffffffffffffffffffffffffffffffffffff166345266697896040518263ffffffff1660e01b8152600401808273ffffffffffffffffffffffffffffffffffffffff168152602001915050604080518083038186803b158015611a4157600080fd5b505afa158015611a55573d6000803e3d6000fd5b505050506040513d6040811015611a6b57600080fd5b810190808051906020019092919080519060200190929190505050915091506000611ac2611aa1670de0b6b3a764000085613c1d565b611ab468056bc75e2d6310000085613c1d565b670de0b6b3a7640000613c06565b90506032611ad1826005613c36565b11611b27576040517f08c379a000000000000000000000000000000000000000000000000000000000815260040180806020018281038252603b815260200180615482603b913960400191505060405180910390fd5b611bad601a60003373ffffffffffffffffffffffffffffffffffffffff1673ffffffffffffffffffffffffffffffffffffffff16815260200190815260200160002060008b73ffffffffffffffffffffffffffffffffffffffff1673ffffffffffffffffffffffffffffffffffffffff168152602001908152602001600020548b613bef565b601a60003373ffffffffffffffffffffffffffffffffffffffff1673ffffffffffffffffffffffffffffffffffffffff16815260200190815260200160002060008b73ffffffffffffffffffffffffffffffffffffffff1673ffffffffffffffffffffffffffffffffffffffff1681526020019081526020016000208190555050505050505050505050565b60005b600b80549050811015611ce5576000600a6000600b8481548110611c5c57fe5b9060005260206000200160009054906101000a900473ffffffffffffffffffffffffffffffffffffffff1673ffffffffffffffffffffffffffffffffffffffff1673ffffffffffffffffffffffffffffffffffffffff16815260200190815260200160002060006101000a81548160ff0219169083151502179055508080600101915050611c3c565b5080600e819055506040518060400160405280600681526020017f6e756d6265720000000000000000000000000000000000000000000000000000815250600d9080519060200190611d3892919061522b565b5050565b5050505050565b6000601560008373ffffffffffffffffffffffffffffffffffffffff1673ffffffffffffffffffffffffffffffffffffffff16815260200190815260200160002060009054906101000a900460ff169050919050565b600360159054906101000a900460ff1681565b60008060006018600085815260200190815260200160002060008681526020019081526020016000206000015460186000868152602001908152602001600020600087815260200190815260200160002060010154601860008781526020019081526020016000206000888152602001908152602001600020600201549250925092509250925092565b60075481565b600360169054906101000a900460ff1681565b60046020528060005260406000206000915090505481565b8060068190555050565b600860009054906101000a900473ffffffffffffffffffffffffffffffffffffffff1673ffffffffffffffffffffffffffffffffffffffff163373ffffffffffffffffffffffffffffffffffffffff1614611f17576040517f08c379a000000000000000000000000000000000000000000000000000000000815260040180806020018281038252602f8152602001806153d4602f913960400191505060405180910390fd5b600954811115611f72576040517f08c379a00000000000000000000000000000000000000000000000000000000081526004018080602001828103825260278152602001806153236027913960400191505060405180910390fd5b611f7e60095482613bef565b6009819055503373ffffffffffffffffffffffffffffffffffffffff166108fc829081150290604051600060405180830381858888f19350505050158015611fca573d6000803e3d6000fd5b5050565b80600360146101000a81548160ff02191690831515021790555050565b6018602052816000526040600020602052806000526040600020600091509150508060000154908060010154908060020154905083565b6000601460019054906101000a900473ffffffffffffffffffffffffffffffffffffffff16905090565b6000601a60008473ffffffffffffffffffffffffffffffffffffffff1673ffffffffffffffffffffffffffffffffffffffff16815260200190815260200160002060008373ffffffffffffffffffffffffffffffffffffffff1673ffffffffffffffffffffffffffffffffffffffff16815260200190815260200160002054905092915050565b601a602052816000526040600020602052806000526040600020600091509150505481565b601460019054906101000a900473ffffffffffffffffffffffffffffffffffffffff1673ffffffffffffffffffffffffffffffffffffffff163373ffffffffffffffffffffffffffffffffffffffff161461215257600080fd5b60005b81518110156121d65760016015600084848151811061217057fe5b602002602001015173ffffffffffffffffffffffffffffffffffffffff1673ffffffffffffffffffffffffffffffffffffffff16815260200190815260200160002060006101000a81548160ff0219169083151502179055508080600101915050612155565b5050565b600080600080600080601960008873ffffffffffffffffffffffffffffffffffffffff1673ffffffffffffffffffffffffffffffffffffffff16815260200190815260200160002060000154601960008973ffffffffffffffffffffffffffffffffffffffff1673ffffffffffffffffffffffffffffffffffffffff16815260200190815260200160002060010154601960008a73ffffffffffffffffffffffffffffffffffffffff1673ffffffffffffffffffffffffffffffffffffffff16815260200190815260200160002060020154601960008b73ffffffffffffffffffffffffffffffffffffffff1673ffffffffffffffffffffffffffffffffffffffff16815260200190815260200160002060030154601960008c73ffffffffffffffffffffffffffffffffffffffff1673ffffffffffffffffffffffffffffffffffffffff16815260200190815260200160002060040154601960008d73ffffffffffffffffffffffffffffffffffffffff1673ffffffffffffffffffffffffffffffffffffffff16815260200190815260200160002060050160009054906101000a900473ffffffffffffffffffffffffffffffffffffffff1695509550955095509550955091939550919395565b600047905090565b80600860006101000a81548173ffffffffffffffffffffffffffffffffffffffff021916908373ffffffffffffffffffffffffffffffffffffffff16021790555050565b600080600080600260009054906101000a900473ffffffffffffffffffffffffffffffffffffffff1673ffffffffffffffffffffffffffffffffffffffff1663858b033d6040518163ffffffff1660e01b815260040160206040518083038186803b15801561246457600080fd5b505afa158015612478573d6000803e3d6000fd5b505050506040513d602081101561248e57600080fd5b810190808051906020019092919050505090506000600260009054906101000a900473ffffffffffffffffffffffffffffffffffffffff1673ffffffffffffffffffffffffffffffffffffffff1663f3167c05876040518263ffffffff1660e01b8152600401808273ffffffffffffffffffffffffffffffffffffffff16815260200191505060206040518083038186803b15801561252c57600080fd5b505afa158015612540573d6000803e3d6000fd5b505050506040513d602081101561255657600080fd5b81019080805190602001909291905050509050600061257e68056bc75e2d6310000084613c1d565b905061258a8883613c36565b94506125968582613c1d565b9350839550505050505092915050565b8060078190555050565b60175481565b6000600360149054906101000a900460ff16905090565b6005851115612627576040517f08c379a000000000000000000000000000000000000000000000000000000000815260040180806020018281038252602781526020018061542f6027913960400191505060405180910390fd5b8260186000868152602001908152602001600020600087815260200190815260200160002060000181905550816018600086815260200190815260200160002060008781526020019081526020016000206001018190555080601860008681526020019081526020016000206000878152602001908152602001600020600201819055506017548411156126bd57836017819055505b5050505050565b80600360166101000a81548160ff02191690831515021790555050565b60008060009054906101000a900473ffffffffffffffffffffffffffffffffffffffff1673ffffffffffffffffffffffffffffffffffffffff163373ffffffffffffffffffffffffffffffffffffffff1614905090565b60165481565b6000806000806005548511156127705761275d856007546103e8613c06565b90506127698582613bef565b915061284b565b6000600260009054906101000a900473ffffffffffffffffffffffffffffffffffffffff1673ffffffffffffffffffffffffffffffffffffffff1663858b033d6040518163ffffffff1660e01b815260040160206040518083038186803b1580156127da57600080fd5b505afa1580156127ee573d6000803e3d6000fd5b505050506040513d602081101561280457600080fd5b81019080805190602001909291905050509050600061282c68056bc75e2d6310000083613c1d565b905061283a81600654613c36565b92506128468784613bef565b935050505b8181935093505050915091565b612881828273ffffffffffffffffffffffffffffffffffffffff1661489a90919063ffffffff16565b6128ca600460008373ffffffffffffffffffffffffffffffffffffffff1673ffffffffffffffffffffffffffffffffffffffff1681526020019081526020016000205483613c6d565b600460008373ffffffffffffffffffffffffffffffffffffffff1673ffffffffffffffffffffffffffffffffffffffff168152602001908152602001600020819055505050565b60008060008067058d15e176280000861161292f5760019050612980565b671bc16d674ec800008611612947576002905061297f565b674563918244f40000861161295f576003905061297e565b68015af1d78b58c400008611612978576004905061297d565b600590505b5b5b5b601860008681526020019081526020016000206000828152602001908152602001600020600001546018600087815260200190815260200160002060008381526020019081526020016000206001015460186000888152602001908152602001600020600084815260200190815260200160002060020154935093509350509250925092565b6000806000806000806000806000612a60601960003373ffffffffffffffffffffffffffffffffffffffff1673ffffffffffffffffffffffffffffffffffffffff168152602001908152602001600020600001548d613c6d565b9050612a6c8c8c614950565b8094508193505050612a7d8161273e565b8096508192505050612a918b83838d614a10565b9350838382849850985098509850505050505093509350935093565b60008054906101000a900473ffffffffffffffffffffffffffffffffffffffff1681565b60196020528060005260406000206000915090508060000154908060010154908060020154908060030154908060040154908060050160009054906101000a900473ffffffffffffffffffffffffffffffffffffffff16905086565b80600360156101000a81548160ff02191690831515021790555050565b6000600460008373ffffffffffffffffffffffffffffffffffffffff1673ffffffffffffffffffffffffffffffffffffffff168152602001908152602001600020549050919050565b60008015612c295760011515600360169054906101000a900460ff16151514612c24576040517f08c379a000000000000000000000000000000000000000000000000000000000815260040180806020018281038252601e8152602001807f5374616b696e672069732063757272656e746c792064697361626c65642e000081525060200191505060405180910390fd5b612c96565b60001515600360169054906101000a900460ff16151514612c95576040517f08c379a000000000000000000000000000000000000000000000000000000000815260040180806020018281038252602c815260200180615456602c913960400191505060405180910390fd5b5b600080601960003373ffffffffffffffffffffffffffffffffffffffff1673ffffffffffffffffffffffffffffffffffffffff1681526020019081526020016000206001015490506000601960003373ffffffffffffffffffffffffffffffffffffffff1673ffffffffffffffffffffffffffffffffffffffff1681526020019081526020016000206003015490506000601960003373ffffffffffffffffffffffffffffffffffffffff1673ffffffffffffffffffffffffffffffffffffffff1681526020019081526020016000206004015490506000601960003373ffffffffffffffffffffffffffffffffffffffff1673ffffffffffffffffffffffffffffffffffffffff1681526020019081526020016000206000015490506000841115612dc657612dc584613c89565b5b612e3960186000858152602001908152602001600020600084815260200190815260200160002060020154601960003373ffffffffffffffffffffffffffffffffffffffff1673ffffffffffffffffffffffffffffffffffffffff16815260200190815260200160002060020154613c6d565b94506001421015612eb2576040517f08c379a000000000000000000000000000000000000000000000000000000000815260040180806020018281038252601b8152602001807f5374616b696e6720706572696f64206973206e6f74206f7665722e000000000081525060200191505060405180910390fd5b612ebc8188613bef565b601960003373ffffffffffffffffffffffffffffffffffffffff1673ffffffffffffffffffffffffffffffffffffffff168152602001908152602001600020600001819055503373ffffffffffffffffffffffffffffffffffffffff166108fc889081150290604051600060405180830381858888f19350505050158015612f48573d6000803e3d6000fd5b5050505050505050565b6000600360159054906101000a900460ff16905090565b60055481565b60065481565b6001801561300b5760011515600360169054906101000a900460ff16151514613006576040517f08c379a000000000000000000000000000000000000000000000000000000000815260040180806020018281038252601e8152602001807f5374616b696e672069732063757272656e746c792064697361626c65642e000081525060200191505060405180910390fd5b613078565b60001515600360169054906101000a900460ff16151514613077576040517f08c379a000000000000000000000000000000000000000000000000000000000815260040180806020018281038252602c815260200180615456602c913960400191505060405180910390fd5b5b6000601960003373ffffffffffffffffffffffffffffffffffffffff1673ffffffffffffffffffffffffffffffffffffffff1681526020019081526020016000206000015490506000601960003373ffffffffffffffffffffffffffffffffffffffff1673ffffffffffffffffffffffffffffffffffffffff168152602001908152602001600020600001819055503373ffffffffffffffffffffffffffffffffffffffff166108fc829081150290604051600060405180830381858888f1935050505015801561314d573d6000803e3d6000fd5b505050565b8060001515600360149054906101000a900460ff16151514156132255773433c6e3d2def6e1fb414cf9448724efb0399b69873ffffffffffffffffffffffffffffffffffffffff168173ffffffffffffffffffffffffffffffffffffffff1614613224576040517f08c379a00000000000000000000000000000000000000000000000000000000081526004018080602001828103825260128152602001807f546f6b656e206d7573742062652043424c54000000000000000000000000000081525060200191505060405180910390fd5b5b8263ffffffff1660011515600360159054906101000a900460ff161515146132b5576040517f08c379a000000000000000000000000000000000000000000000000000000000815260040180806020018281038252601c8152602001807f5374616b696e672069732063757272656e746c79206f66666c696e650000000081525060200191505060405180910390fd5b670214e8348c4f00003411613315576040517f08c379a000000000000000000000000000000000000000000000000000000000815260040180806020018281038252602c815260200180615403602c913960400191505060405180910390fd5b6001811015801561332857506017548111155b61337d576040517f08c379a000000000000000000000000000000000000000000000000000000000815260040180806020018281038252604281526020018061534a6042913960600191505060405180910390fd5b600080156134135760011515600360169054906101000a900460ff1615151461340e576040517f08c379a000000000000000000000000000000000000000000000000000000000815260040180806020018281038252601e8152602001807f5374616b696e672069732063757272656e746c792064697361626c65642e000081525060200191505060405180910390fd5b613480565b60001515600360169054906101000a900460ff1615151461347f576040517f08c379a000000000000000000000000000000000000000000000000000000000815260040180806020018281038252602c815260200180615456602c913960400191505060405180910390fd5b5b60008060009050600080600080601960003373ffffffffffffffffffffffffffffffffffffffff1673ffffffffffffffffffffffffffffffffffffffff16815260200190815260200160002060010154905060008111156134e5576134e481613c89565b5b6134f6348c63ffffffff168c612a06565b80995081965082985083975050505050600460008b73ffffffffffffffffffffffffffffffffffffffff1673ffffffffffffffffffffffffffffffffffffffff168152602001908152602001600020548411156135bb576040517f08c379a000000000000000000000000000000000000000000000000000000000815260040180806020018281038252601e8152602001807f54726561737572792069732063757272656e746c79206465706c65746564000081525060200191505060405180910390fd5b60008511156136755760006135d285876064613c06565b9050613629601960003373ffffffffffffffffffffffffffffffffffffffff1673ffffffffffffffffffffffffffffffffffffffff168152602001908152602001600020600101546136248784613bef565b613c6d565b601960003373ffffffffffffffffffffffffffffffffffffffff1673ffffffffffffffffffffffffffffffffffffffff1681526020019081526020016000206001018190555050613708565b6136c1601960003373ffffffffffffffffffffffffffffffffffffffff1673ffffffffffffffffffffffffffffffffffffffff1681526020019081526020016000206001015485613c6d565b601960003373ffffffffffffffffffffffffffffffffffffffff1673ffffffffffffffffffffffffffffffffffffffff168152602001908152602001600020600101819055505b601560003373ffffffffffffffffffffffffffffffffffffffff1673ffffffffffffffffffffffffffffffffffffffff16815260200190815260200160002060009054906101000a900460ff16613866576000601860008d63ffffffff168152602001908152602001600020600088815260200190815260200160002060010154116137fc576040517f08c379a000000000000000000000000000000000000000000000000000000000815260040180806020018281038252601e8152602001807f54696572206465706c657465642c20636f6d65206261636b206c61746572000081525060200191505060405180910390fd5b613834601860008d63ffffffff1681526020019081526020016000206000888152602001908152602001600020600101546001613bef565b601860008d63ffffffff1681526020019081526020016000206000888152602001908152602001600020600101819055505b8a63ffffffff16601960003373ffffffffffffffffffffffffffffffffffffffff1673ffffffffffffffffffffffffffffffffffffffff1681526020019081526020016000206003018190555085601960003373ffffffffffffffffffffffffffffffffffffffff1673ffffffffffffffffffffffffffffffffffffffff1681526020019081526020016000206004018190555089601960003373ffffffffffffffffffffffffffffffffffffffff1673ffffffffffffffffffffffffffffffffffffffff16815260200190815260200160002060050160006101000a81548173ffffffffffffffffffffffffffffffffffffffff021916908373ffffffffffffffffffffffffffffffffffffffff16021790555042601960003373ffffffffffffffffffffffffffffffffffffffff1673ffffffffffffffffffffffffffffffffffffffff1681526020019081526020016000206002018190555082601960003373ffffffffffffffffffffffffffffffffffffffff1673ffffffffffffffffffffffffffffffffffffffff16815260200190815260200160002060000181905550613a1560095483613c6d565b600981905550613a64600460008c73ffffffffffffffffffffffffffffffffffffffff1673ffffffffffffffffffffffffffffffffffffffff1681526020019081526020016000205485613bef565b600460008c73ffffffffffffffffffffffffffffffffffffffff1673ffffffffffffffffffffffffffffffffffffffff168152602001908152602001600020819055505050505050505050505050565b613abc6126e1565b613b2e576040517f08c379a00000000000000000000000000000000000000000000000000000000081526004018080602001828103825260168152602001807f596f7520617265206e6f7420746865206f776e65722e0000000000000000000081525060200191505060405180910390fd5b600073ffffffffffffffffffffffffffffffffffffffff168173ffffffffffffffffffffffffffffffffffffffff161415613b6857600080fd5b8073ffffffffffffffffffffffffffffffffffffffff167f8be0079c531659141344cd1fd0a4f28419497f9722a3daafe3b4186f6b6457e060008054906101000a900473ffffffffffffffffffffffffffffffffffffffff16604051808273ffffffffffffffffffffffffffffffffffffffff16815260200191505060405180910390a250565b600082821115613bfb57fe5b818303905092915050565b60008183850281613c1357fe5b0490509392505050565b600080828481613c2957fe5b0490508091505092915050565b600080831415613c495760009050613c67565b6000828402905082848281613c5a57fe5b0414613c6257fe5b809150505b92915050565b600080828401905083811015613c7f57fe5b8091505092915050565b600080606490506000601960003373ffffffffffffffffffffffffffffffffffffffff1673ffffffffffffffffffffffffffffffffffffffff1681526020019081526020016000206000015490506000601960003373ffffffffffffffffffffffffffffffffffffffff1673ffffffffffffffffffffffffffffffffffffffff1681526020019081526020016000206003015490506000601960003373ffffffffffffffffffffffffffffffffffffffff1673ffffffffffffffffffffffffffffffffffffffff1681526020019081526020016000206004015490506000601960003373ffffffffffffffffffffffffffffffffffffffff1673ffffffffffffffffffffffffffffffffffffffff16815260200190815260200160002060050160009054906101000a900473ffffffffffffffffffffffffffffffffffffffff1690506000600260009054906101000a900473ffffffffffffffffffffffffffffffffffffffff1673ffffffffffffffffffffffffffffffffffffffff1663f3167c05836040518263ffffffff1660e01b8152600401808273ffffffffffffffffffffffffffffffffffffffff16815260200191505060206040518083038186803b158015613e5757600080fd5b505afa158015613e6b573d6000803e3d6000fd5b505050506040513d6020811015613e8157600080fd5b81019080805190602001909291905050509050600484148015613eaf57506004831480613eae5750600583145b5b15613ebd57604b9550613ee3565b600584148015613ed857506004831480613ed75750600583145b5b15613ee257603295505b5b601560003373ffffffffffffffffffffffffffffffffffffffff1673ffffffffffffffffffffffffffffffffffffffff16815260200190815260200160002060009054906101000a900460ff1615613fb057613fa960186000601960003373ffffffffffffffffffffffffffffffffffffffff1673ffffffffffffffffffffffffffffffffffffffff1681526020019081526020016000206003015481526020019081526020016000206000858152602001908152602001600020600001546002613c36565b965061401d565b60186000601960003373ffffffffffffffffffffffffffffffffffffffff1673ffffffffffffffffffffffffffffffffffffffff16815260200190815260200160002060030154815260200190815260200160002060008481526020019081526020016000206000015496505b600061405061404261403c614034898b6064613c06565b8b6064613c06565b84613c1d565b670de0b6b3a7640000613c36565b905088811061459e57601560003373ffffffffffffffffffffffffffffffffffffffff1673ffffffffffffffffffffffffffffffffffffffff16815260200190815260200160002060009054906101000a900460ff16156143ed57600460008473ffffffffffffffffffffffffffffffffffffffff1673ffffffffffffffffffffffffffffffffffffffff168152602001908152602001600020548110156142e15761413b600460008573ffffffffffffffffffffffffffffffffffffffff1673ffffffffffffffffffffffffffffffffffffffff1681526020019081526020016000205482613bef565b600460008573ffffffffffffffffffffffffffffffffffffffff1673ffffffffffffffffffffffffffffffffffffffff16815260200190815260200160002081905550614204601a60003373ffffffffffffffffffffffffffffffffffffffff1673ffffffffffffffffffffffffffffffffffffffff16815260200190815260200160002060008573ffffffffffffffffffffffffffffffffffffffff1673ffffffffffffffffffffffffffffffffffffffff1681526020019081526020016000205482613c6d565b601a60003373ffffffffffffffffffffffffffffffffffffffff1673ffffffffffffffffffffffffffffffffffffffff16815260200190815260200160002060008573ffffffffffffffffffffffffffffffffffffffff1673ffffffffffffffffffffffffffffffffffffffff168152602001908152602001600020819055506000601560003373ffffffffffffffffffffffffffffffffffffffff1673ffffffffffffffffffffffffffffffffffffffff16815260200190815260200160002060006101000a81548160ff0219169083151502179055506143e8565b614367601a60003373ffffffffffffffffffffffffffffffffffffffff1673ffffffffffffffffffffffffffffffffffffffff16815260200190815260200160002060008573ffffffffffffffffffffffffffffffffffffffff1673ffffffffffffffffffffffffffffffffffffffff168152602001908152602001600020548a613c6d565b601a60003373ffffffffffffffffffffffffffffffffffffffff1673ffffffffffffffffffffffffffffffffffffffff16815260200190815260200160002060008573ffffffffffffffffffffffffffffffffffffffff1673ffffffffffffffffffffffffffffffffffffffff168152602001908152602001600020819055505b614551565b614473601a60003373ffffffffffffffffffffffffffffffffffffffff1673ffffffffffffffffffffffffffffffffffffffff16815260200190815260200160002060008573ffffffffffffffffffffffffffffffffffffffff1673ffffffffffffffffffffffffffffffffffffffff168152602001908152602001600020548a613c6d565b601a60003373ffffffffffffffffffffffffffffffffffffffff1673ffffffffffffffffffffffffffffffffffffffff16815260200190815260200160002060008573ffffffffffffffffffffffffffffffffffffffff1673ffffffffffffffffffffffffffffffffffffffff16815260200190815260200160002081905550614525601860008781526020019081526020016000206000868152602001908152602001600020600101546001613c6d565b601860008781526020019081526020016000206000868152602001908152602001600020600101819055505b6000601960003373ffffffffffffffffffffffffffffffffffffffff1673ffffffffffffffffffffffffffffffffffffffff1681526020019081526020016000206001018190555061488f565b60006145aa8a83613bef565b90506145f5600460008673ffffffffffffffffffffffffffffffffffffffff1673ffffffffffffffffffffffffffffffffffffffff1681526020019081526020016000205482613c6d565b600460008673ffffffffffffffffffffffffffffffffffffffff1673ffffffffffffffffffffffffffffffffffffffff168152602001908152602001600020819055506146be601a60003373ffffffffffffffffffffffffffffffffffffffff1673ffffffffffffffffffffffffffffffffffffffff16815260200190815260200160002060008673ffffffffffffffffffffffffffffffffffffffff1673ffffffffffffffffffffffffffffffffffffffff1681526020019081526020016000205483613c6d565b601a60003373ffffffffffffffffffffffffffffffffffffffff1673ffffffffffffffffffffffffffffffffffffffff16815260200190815260200160002060008673ffffffffffffffffffffffffffffffffffffffff1673ffffffffffffffffffffffffffffffffffffffff168152602001908152602001600020819055506000601960003373ffffffffffffffffffffffffffffffffffffffff1673ffffffffffffffffffffffffffffffffffffffff16815260200190815260200160002060010181905550601560003373ffffffffffffffffffffffffffffffffffffffff1673ffffffffffffffffffffffffffffffffffffffff16815260200190815260200160002060009054906101000a900460ff1661488d57614809601860008881526020019081526020016000206000878152602001908152602001600020600101546001613c6d565b601860008881526020019081526020016000206000878152602001908152602001600020600101819055506000601560003373ffffffffffffffffffffffffffffffffffffffff1673ffffffffffffffffffffffffffffffffffffffff16815260200190815260200160002060006101000a81548160ff0219169083151502179055505b505b505050505050505050565b60008114156148a85761494c565b6148b182614b49565b1561491d5780341115614918573373ffffffffffffffffffffffffffffffffffffffff166108fc6148eb8334613bef90919063ffffffff16565b9081150290604051600060405180830381858888f19350505050158015614916573d6000803e3d6000fd5b505b61494b565b61494a3330838573ffffffffffffffffffffffffffffffffffffffff16614c29909392919063ffffffff16565b5b5b5050565b60008060008067058d15e176280000861161496e5760019150614a01565b671bc16d674ec8000086116149865760029150614a00565b674563918244f40000861161499e57600391506149ff565b68015af1d78b58c4000086116149d8576004915060048514156149c457601990506149d3565b60058514156149d257603290505b5b6149fe565b6005915060048514156149ee57601990506149fd565b60058514156149fc57603290505b5b5b5b5b5b81819350935050509250929050565b600080600080601960003373ffffffffffffffffffffffffffffffffffffffff1673ffffffffffffffffffffffffffffffffffffffff168152602001908152602001600020600001541115614b2e57614ad260186000898152602001908152602001600020600088815260200190815260200160002060020154601960003373ffffffffffffffffffffffffffffffffffffffff1673ffffffffffffffffffffffffffffffffffffffff16815260200190815260200160002060020154613c6d565b915060014211614b2d576040517f08c379a00000000000000000000000000000000000000000000000000000000081526004018080602001828103825260268152602001806152d76026913960400191505060405180910390fd5b5b614b3a85888887614cea565b90508092505050949350505050565b600073c02aaa39b223fe8d0a0e5c4f27ead9083c756cc273ffffffffffffffffffffffffffffffffffffffff168273ffffffffffffffffffffffffffffffffffffffff161480614bd8575073eeeeeeeeeeeeeeeeeeeeeeeeeeeeeeeeeeeeeeee73ffffffffffffffffffffffffffffffffffffffff168273ffffffffffffffffffffffffffffffffffffffff16145b80614c22575073c778417e063141139fce010982780140aa0cd5ab73ffffffffffffffffffffffffffffffffffffffff168273ffffffffffffffffffffffffffffffffffffffff16145b9050919050565b614ce4846323b872dd60e01b858585604051602401808473ffffffffffffffffffffffffffffffffffffffff1681526020018373ffffffffffffffffffffffffffffffffffffffff1681526020018281526020019350505050604051602081830303815290604052907bffffffffffffffffffffffffffffffffffffffffffffffffffffffff19166020820180517bffffffffffffffffffffffffffffffffffffffffffffffffffffffff8381831617835250505050614e9d565b50505050565b600080600260009054906101000a900473ffffffffffffffffffffffffffffffffffffffff1673ffffffffffffffffffffffffffffffffffffffff1663f3167c05846040518263ffffffff1660e01b8152600401808273ffffffffffffffffffffffffffffffffffffffff16815260200191505060206040518083038186803b158015614d7657600080fd5b505afa158015614d8a573d6000803e3d6000fd5b505050506040513d6020811015614da057600080fd5b810190808051906020019092919050505090506000601560003373ffffffffffffffffffffffffffffffffffffffff1673ffffffffffffffffffffffffffffffffffffffff16815260200190815260200160002060009054906101000a900460ff1615614e4057614e39601860008881526020019081526020016000206000878152602001908152602001600020600001546002613c36565b9050614e6b565b6018600087815260200190815260200160002060008681526020019081526020016000206000015490505b614e91614e83614e7d89846064613c06565b84613c1d565b670de0b6b3a7640000613c36565b92505050949350505050565b6000614eff826040518060400160405280602081526020017f5361666545524332303a206c6f772d6c6576656c2063616c6c206661696c65648152508573ffffffffffffffffffffffffffffffffffffffff16614f8c9092919063ffffffff16565b9050600081511115614f8757808060200190516020811015614f2057600080fd5b8101908080519060200190929190505050614f86576040517f08c379a000000000000000000000000000000000000000000000000000000000815260040180806020018281038252602a8152602001806154bd602a913960400191505060405180910390fd5b5b505050565b6060614f9b8484600085614fa4565b90509392505050565b606082471015614fff576040517f08c379a000000000000000000000000000000000000000000000000000000000815260040180806020018281038252602681526020018061538c6026913960400191505060405180910390fd5b6150088561514c565b61507a576040517f08c379a000000000000000000000000000000000000000000000000000000000815260040180806020018281038252601d8152602001807f416464726573733a2063616c6c20746f206e6f6e2d636f6e747261637400000081525060200191505060405180910390fd5b6000808673ffffffffffffffffffffffffffffffffffffffff1685876040518082805190602001908083835b602083106150c957805182526020820191506020810190506020830392506150a6565b6001836020036101000a03801982511681845116808217855250505050505090500191505060006040518083038185875af1925050503d806000811461512b576040519150601f19603f3d011682016040523d82523d6000602084013e615130565b606091505b509150915061514082828661515f565b92505050949350505050565b600080823b905060008111915050919050565b6060831561516f57829050615224565b6000835111156151825782518084602001fd5b816040517f08c379a00000000000000000000000000000000000000000000000000000000081526004018080602001828103825283818151815260200191508051906020019080838360005b838110156151e95780820151818401526020810190506151ce565b50505050905090810190601f1680156152165780820380516001836020036101000a031916815260200191505b509250505060405180910390fd5b9392505050565b828054600181600116156101000203166002900490600052602060002090601f01602090048101928261526157600085556152a8565b82601f1061527a57805160ff19168380011785556152a8565b828001600101855582156152a8579182015b828111156152a757825182559160200191906001019061528c565b5b5090506152b591906152b9565b5090565b5b808211156152d25760008160009055506001016152ba565b509056fe43757272656e74207374616b696e6720706572696f64206973206e6f74206f7665722079657443757272656e74207374616b696e6720706572696f64206973207374696c6c20616374697665547265617375727920646f65736e277420686176652073756666696369656e742066756e64732e54696572206e756d626572206d7573742062652061206e756d626572206265747765656e203120616e64206d6178696d756d207469657220737570706f727465642e416464726573733a20696e73756666696369656e742062616c616e636520666f722063616c6c54696572206e6f7420737570706f7274696e67206561726c792077697468647261775468697320616464726573732063616e27742077697468647261772066756e64732066726f6d2074726561737572794572726f722c206465706f736974206d75737420626520686967686572207468616e20302e30313520455448416d6f756e742074696572206d757374206265206c6f776572206f7220657175616c20746f20355374616b696e672069732063757272656e746c792066756e6374696f6e696e67206173206578706563746564416d6f756e7420696e2043424c54206d75737420626520686967686572207468616e20353020746f74616c20776f72746820696e2076616c75652e5361666545524332303a204552433230206f7065726174696f6e20646964206e6f742073756363656564a264697066735822122015b4141b7a785ec9c9d117a8a01fb118637670363fce97352a58ae47193308d564736f6c63430007060033",
  "immutableReferences": {},
  "source": "// SPDX-License-Identifier: MIT\npragma solidity >=0.4.22 <0.9.0;\n\nimport \"./interfaces/Ownable.sol\";\nimport \"./interfaces/IERC20.sol\";\nimport \"./interfaces/SafeMath.sol\";\nimport \"./interfaces/UniversalERC20.sol\";\nimport \"./ExchangeOracle.sol\";\n\n// 0x433C6E3D2def6E1fb414cf9448724EFB0399b698\n\ncontract Bank is Ownable {\n    using UniversalERC20 for IERC20;\n\n    // ********************************** CONTRACT CONTROL *********************************\n    /**\n     * @dev storing CBLT token in ERC20 type\n     */\n    IERC20 token;\n\n    /**\n     * @dev Creating oracle instance\n     */\n    ExchangeOracle oracle;\n\n    /**\n     * @dev CobaltLend oracle for scoring and CBLT price\n     */\n    address oracleAddress;\n\n    /**\n     * @dev Bool switch turns support for other tokens as reward outside of CBLT.\n     */\n    bool multipleTokenSupport;\n\n    /**\n     * @dev Variable to turn staking off and on.\n     */\n    bool public stakingStatus;\n\n    /**\n     * @dev Bool switch for all staking instance terminations\n     */\n    bool public terminateStaking;\n\n    /**\n     * @dev Mapping with key value address (token address) leads the current reserves avaliable for tokens\n     * being currently offered to stake on.\n     */\n    mapping(address => uint256) public tokenReserve;\n\n    /**\n     * @dev Checks if all current staking instances are to be terminated\n     */\n    modifier stakingTermination(bool _functionSpecific) {\n        if (_functionSpecific) {\n            require(terminateStaking == true, \"Staking is currently disabled.\");\n        } else {\n            require(\n                terminateStaking == false,\n                \"Staking is currently functioning as expected\"\n            );\n        }\n        _;\n    }\n\n    /**\n     * @dev Getter function to pull info on support for other tokens.\n     */\n    function getTokenSupport() public view returns (bool) {\n        return multipleTokenSupport;\n    }\n\n    /**\n     * @dev Getter function to pull information for avaliable token amount in reserves\n     * @param _tokenAddress token address of queried token\n     */\n    function getTokenReserve(address _tokenAddress)\n        public\n        view\n        returns (uint256)\n    {\n        return tokenReserve[_tokenAddress];\n    }\n\n    /**\n     * @dev Getter function to pull staking status on and off.\n     */\n    function getStakingStatus() public view returns (bool) {\n        return stakingStatus;\n    }\n\n    /**\n     * @dev Function terminates all staking instances and allows early balance withdrewal\n     * @param _bool true terminates all contract instances and allows users to withdraw\n     * @notice This action can only be perform under dev vote.\n     */\n    function setStakingTermination(bool _bool) public {\n        terminateStaking = _bool;\n    }\n\n    /**\n     * @dev Setter function to turn support for other tokens.\n     * @notice This action can only be perform under dev vote.\n     * @param _bool true turns on other token support for staking reward, false off\n     */\n    function setTokenSupport(bool _bool) public {\n        multipleTokenSupport = _bool;\n    }\n\n    /**\n     * @dev Setter function to turn staking status on and off.\n     * @notice This action can only be perform under dev vote.\n     * @param _bool value true - on, false - off.\n     */\n    function setStakingStatus(bool _bool) public {\n        stakingStatus = _bool;\n    }\n\n    /**\n     * @dev Function handles token deposit for treasury to track\n     */\n    function tokenReserveDeposit(uint256 _amount, address _tokenAddress)\n        public\n        payable\n    {\n        IERC20(_tokenAddress).universalTransferFromSenderToThis(_amount);\n        tokenReserve[_tokenAddress] = SafeMath.add(\n            tokenReserve[_tokenAddress],\n            _amount\n        );\n    }\n\n    constructor(address _CBLT, address _oracle) {\n        oracle = ExchangeOracle(_oracle);\n        token = IERC20(_CBLT);\n\n        // loanTiers[5].maxVoters = 100;\n        // loanTiers[5].maximumPaymentPeriod = 60;\n        // loanTiers[5].principalLimit = 500000;\n\n        tokenReserve[\n            0x433C6E3D2def6E1fb414cf9448724EFB0399b698\n        ] = 6000000000000000000000000000;\n        tokenReserve[\n            0xc778417E063141139Fce010982780140Aa0cD5Ab\n        ] = 6000000000000000000000000000;\n\n        tierMax = 5;\n        multipleTokenSupport = false;\n        stakingStatus = true;\n        flatFee = 3;\n        percentFee = 3;\n        terminateStaking = false;\n        feeThreshold = 5e18;\n\n        // Staking percentages based on deposit time and amount\n        stakingRewardRate[1][1].interest = 1;\n        stakingRewardRate[1][1].amountStakersLeft = 0;\n        stakingRewardRate[1][1].tierDuration = 1800;\n        stakingRewardRate[1][2].interest = 2;\n        stakingRewardRate[1][2].amountStakersLeft = 0;\n        stakingRewardRate[1][2].tierDuration = 1800;\n        stakingRewardRate[1][3].interest = 3;\n        stakingRewardRate[1][3].amountStakersLeft = 0;\n        stakingRewardRate[1][3].tierDuration = 1800;\n        stakingRewardRate[1][4].interest = 4;\n        stakingRewardRate[1][4].amountStakersLeft = 0;\n        stakingRewardRate[1][4].tierDuration = 1800;\n        stakingRewardRate[1][5].interest = 4;\n        stakingRewardRate[1][5].amountStakersLeft = 0;\n        stakingRewardRate[1][5].tierDuration = 1800;\n        //\n        stakingRewardRate[2][1].interest = 1;\n        stakingRewardRate[2][1].amountStakersLeft = 0;\n        stakingRewardRate[2][1].tierDuration = 3600;\n        stakingRewardRate[2][2].interest = 2;\n        stakingRewardRate[2][2].amountStakersLeft = 0;\n        stakingRewardRate[2][2].tierDuration = 3600;\n        stakingRewardRate[2][3].interest = 3;\n        stakingRewardRate[2][3].amountStakersLeft = 0;\n        stakingRewardRate[2][3].tierDuration = 3600;\n        stakingRewardRate[2][4].interest = 4;\n        stakingRewardRate[2][4].amountStakersLeft = 0;\n        stakingRewardRate[2][4].tierDuration = 3600;\n        stakingRewardRate[2][5].interest = 4;\n        stakingRewardRate[2][5].amountStakersLeft = 0;\n        stakingRewardRate[2][5].tierDuration = 3600;\n        //\n        stakingRewardRate[3][1].interest = 1;\n        stakingRewardRate[3][1].amountStakersLeft = 0;\n        stakingRewardRate[3][1].tierDuration = 5400;\n        stakingRewardRate[3][2].interest = 2;\n        stakingRewardRate[3][2].amountStakersLeft = 0;\n        stakingRewardRate[3][2].tierDuration = 5400;\n        stakingRewardRate[3][3].interest = 3;\n        stakingRewardRate[3][3].amountStakersLeft = 0;\n        stakingRewardRate[3][3].tierDuration = 5400;\n        stakingRewardRate[3][4].interest = 4;\n        stakingRewardRate[3][4].amountStakersLeft = 0;\n        stakingRewardRate[3][4].tierDuration = 5400;\n        stakingRewardRate[3][5].interest = 4;\n        stakingRewardRate[3][5].amountStakersLeft = 0;\n        stakingRewardRate[3][5].tierDuration = 5400;\n        //\n        stakingRewardRate[4][1].interest = 2;\n        stakingRewardRate[4][1].amountStakersLeft = 500;\n        stakingRewardRate[4][1].tierDuration = 10800;\n        stakingRewardRate[4][2].interest = 3;\n        stakingRewardRate[4][2].amountStakersLeft = 500;\n        stakingRewardRate[4][2].tierDuration = 10800;\n        stakingRewardRate[4][3].interest = 4;\n        stakingRewardRate[4][3].amountStakersLeft = 500;\n        stakingRewardRate[4][3].tierDuration = 10800;\n        stakingRewardRate[4][4].interest = 5;\n        stakingRewardRate[4][4].amountStakersLeft = 1000;\n        stakingRewardRate[4][4].tierDuration = 10800;\n        stakingRewardRate[4][5].interest = 6;\n        stakingRewardRate[4][5].amountStakersLeft = 1000;\n        stakingRewardRate[4][5].tierDuration = 10800;\n        //\n        stakingRewardRate[5][1].interest = 3;\n        stakingRewardRate[5][1].amountStakersLeft = 500;\n        stakingRewardRate[5][1].tierDuration = 21360;\n        stakingRewardRate[5][2].interest = 4;\n        stakingRewardRate[5][2].amountStakersLeft = 500;\n        stakingRewardRate[5][2].tierDuration = 21360;\n        stakingRewardRate[5][3].interest = 5;\n        stakingRewardRate[5][3].amountStakersLeft = 500;\n        stakingRewardRate[5][3].tierDuration = 21360;\n        stakingRewardRate[5][4].interest = 6;\n        stakingRewardRate[5][4].amountStakersLeft = 1000;\n        stakingRewardRate[5][4].tierDuration = 21360;\n        stakingRewardRate[5][5].interest = 7;\n        stakingRewardRate[5][5].amountStakersLeft = 1000;\n        stakingRewardRate[5][5].tierDuration = 21360;\n    }\n\n    /**\n     * @dev\n     */\n    receive() external payable {\n        emit Received(msg.sender, msg.value);\n    }\n\n    // ******************************** Fee mechanism ***********************************\n\n    /**\n     * @dev\n     */\n    uint256 public feeThreshold;\n\n    /**\n     * @dev Variable for staking flat fee.\n     */\n    uint256 public flatFee;\n\n    /**\n     * @dev Variable for staking flat fee.\n     */\n    uint256 public percentFee;\n\n    /**\n     * @dev\n     */\n    address WithdrawContract;\n\n    /**\n     * @dev Saving running fee total\n     */\n    uint256 public totalFeeBalance;\n\n    modifier onlyTreasury {\n        require(\n            msg.sender == WithdrawContract,\n            \"This address can't withdraw funds from treasury\"\n        );\n        _;\n    }\n\n    /**\n     * @dev\n     */\n    function setContract(address _treasuryAddress) public {\n        WithdrawContract = _treasuryAddress;\n    }\n\n    /**\n     * @dev\n     */\n    function getTotalBalance() public view returns (uint256) {\n        return totalFeeBalance;\n    }\n\n    /**\n     * @dev transfers funds to an approved contract\n     */\n    function withdrawFees(uint256 _amount) public payable onlyTreasury {\n        require(\n            _amount <= totalFeeBalance,\n            \"Treasury doesn't have sufficient funds.\"\n        );\n        totalFeeBalance = SafeMath.sub(totalFeeBalance, _amount);\n        payable(msg.sender).transfer(_amount);\n    }\n\n    /**\n     * @dev Setter for staking flat fee.\n     * @param _newFee new uint fee value.\n     * @notice This action can only be perform under dev vote.\n     */\n    function newFlatFee(uint256 _newFee) public {\n        flatFee = _newFee;\n    }\n\n    function newPercentFee(uint256 _newFee) public {\n        percentFee = _newFee;\n    }\n\n    // **************************************** DEV VOTE ************************************************\n\n    event Received(address, uint256);\n\n    /**\n     * @dev Events emitted\n     */\n    event onReceived(address indexed _from, uint256 _amount);\n    event onTransfer(\n        address indexed _from,\n        address indexed _to,\n        uint256 _amount\n    );\n    event depositToken(address indexed _from, uint256 _amount);\n\n    mapping(address => bool) devBook;\n    address[] devArray;\n    address addressProposed;\n    string proposedChange;\n    uint256 intProposed;\n    uint256 _amountTier;\n    uint256 _timeTier;\n    uint256 _interest;\n    uint256 _amountStakersLeft;\n    uint256 _tierDuration;\n    bool boolProposed;\n\n    modifier clearedAction(\n        uint256 percentage,\n        string memory _currentChange,\n        string memory _proposedChange\n    ) {\n        uint256 votes;\n        uint256 totalVotes = devArray.length;\n\n        for (uint256 i = 0; i < devArray.length; i++) {\n            if (devBook[devArray[i]] == true) {\n                votes++;\n            }\n        }\n\n        require(SafeMath.multiply(votes, totalVotes, 100) >= percentage);\n        require(bytes(_proposedChange).length == bytes(_currentChange).length);\n\n        for (uint256 i = 0; i < devArray.length; i++) {\n            devBook[devArray[i]] = false;\n        }\n        _;\n    }\n\n    function proposeNumberChange(uint256 _num) public {\n        for (uint256 i = 0; i < devArray.length; i++) {\n            devBook[devArray[i]] = false;\n        }\n        intProposed = _num;\n        proposedChange = \"number\";\n    }\n\n    function proposeTierChange(\n        uint256 _amountTier,\n        uint256 _timeTier,\n        uint256 _interest,\n        uint256 _amountStakersLeft,\n        uint256 _tierDuration\n    ) public {}\n\n    // need modifier for public functions\n    // function proposeBoolChange(bool _bool) public {}\n    // proposeAddressChange(address _address)  proposedChange = \"string\"\n    // addDevTeam\n    // deleteDevTeam\n\n    // function changeInterest()\n    //     public\n    //     clearedAction(75, \"number\", proposedChange)\n    // {\n    //     uint256 interest = intProposed;\n    // }\n\n    // ************************************ Lottery ***************************************\n    /**\n     * @dev Address of lottery contract in charge of executing LotteryWinner function\n     */\n    address Lottery;\n\n    /**\n     * @dev Mapping with key value uint (lottery ticket) leads to the information on ticket\n     * amount and time tier for the user to redeem his reward staking.\n     */\n    mapping(address => bool) lotteryBook;\n\n    /**\n     * @dev Modifier ensures only the lottery is allowed to pick new winners\n     */\n    modifier isLotteryContract {\n        require(msg.sender == Lottery);\n        _;\n    }\n\n    /**\n     * @dev Getter function to pull current lottery address\n     * @return address of contract\n     */\n    function getLotteryContract() public view returns (address) {\n        return Lottery;\n    }\n\n    /**\n     * @dev Getter function to pull information on lottery winner\n     * @param _userAddress address of user queried\n     * @return if user has a multiplier ready to be reedemed\n     */\n    function lotteryWinner(address _userAddress) public view returns (bool) {\n        return (lotteryBook[_userAddress]);\n    }\n\n    /**\n     * @dev Setter function to change the contract address for the lottery connected to\n     * staking.\n     * @notice This action can only be perform under dev vote.\n     * @param _lotteryAddress address of lottery contract picking winners.\n     */\n    function setLotteryContract(address _lotteryAddress) public {\n        Lottery = _lotteryAddress;\n    }\n\n    /**\n     * @dev Passes an array of winners\n     * @param _winners array of all  winners\n     * @notice Only an allowed address will be able to execute this function\n     */\n    function lottery(address[] memory _winners) public isLotteryContract {\n        // needs modifier\n        for (uint256 i = 0; i < _winners.length; i++) {\n            lotteryBook[_winners[i]] = true;\n        }\n    }\n\n    // ****************************** Lending **********************************\n\n    // /**\n    //  * @dev Mapping with key to store all loan information with the key of borrower address\n    //  *  and value of Loan struct with all loan information\n    //  */\n    // mapping(address => Loan) public loanBook;\n\n    // /**\n    //  * @dev Informstion from previously fullfilled loans are stored into the blockchain\n    //  * before being permanently deleted\n    //  */\n    // mapping(address => Loan[]) public loanRecords;\n    // /**\n    //  * @dev struct to access information on tier structure\n    //  */\n    // struct loanTier {\n    //     uint256 principalLimit;\n    //     uint256 maximumPaymentPeriod;\n    //     uint256 maxVoters;\n    // }\n\n    // mapping(uint256 => loanTier) loanTiers;\n\n    // /**\n    //  * @dev Struct to store loan information\n    //  */\n    // struct Loan {\n    //     address borrower; // Address of wallet\n    //     uint256 amountBorrowed; // Initial loan balance\n    //     uint256 remainingBalance; // Remaining balance\n    //     uint256 minimumPayment; // MinimumPayment // Can be calculated off total amount\n    //     uint256 collateral; // Amount owed back to borrower after loan is paid in full\n    //     bool active; // Is the current loan active (Voted yes)\n    //     bool initialized; // Does the borrower have a current loan application\n    //     uint256 timeCreated; // Time of loan application also epoch in days\n    //     uint256 dueDate; // Time of contract ending\n    //     uint256 totalVote; // Total amount determined by tier\n    //     uint256 yes; // Amount of votes for yes\n    //     // address currentCoin; // Address of collateral coin\n    // }\n\n    // /**\n    //  * @dev Recalculates interest and also conducts check and balances\n    //  */\n\n    // function newLoan(uint256 _paymentPeriod, uint256 _principal)\n    //     public\n    //     payable\n    // {\n    //     require(loanBook[msg.sender].initialized == false);\n\n    //     uint256 riskScore = 20; // NFT ENTRY!!!!\n    //     uint256 riskFactor = 15; // NFT ENTRY!!!!\n    //     uint256 interestRate = 2; // NFT ENTRY!!!!\n    //     uint256 userMaxTier = 5; // NFT ENTRY!!!!\n    //     // uint256 flatfee = 400; // NFT ENTRY!!!!\n\n    //     require(\n    //         _paymentPeriod <= loanTiers[userMaxTier].maximumPaymentPeriod,\n    //         \"Payment period exceeds that of the tier, pleas try again\"\n    //     );\n\n    //     // One dollar in ETH\n    //     uint256 oneUSDinETH =\n    //         SafeMath.div(100000000000000000000, oracle.priceOfETH());\n\n    //     // Calculate how much is being borrowed in USD - must be within limits of the tier\n    //     uint256 amountBorrowed = SafeMath.div(_principal, oneUSDinETH);\n    //     require(amountBorrowed <= loanTiers[userMaxTier].principalLimit);\n\n    //     // Pay loan application lee to cover for fees\n    //     // require(msg.value >= SafeMath.mul(oneUSDinETH,flatfee)); // Needs change based on current prices\n\n    //     (uint256 CBLTprice, uint256 ETHprice, bool ready) =\n    //         oracle.priceOfPair(\n    //             address(token),\n    //             0xEeeeeEeeeEeEeeEeEeEeeEEEeeeeEeeeeeeeEEeE\n    //         );\n\n    //     // Calculate collateral in CBLT based on principal, riskScore and riskFactor\n    //     uint256 collateralInCBLT =\n    //         SafeMath.div(\n    //             SafeMath.multiply(\n    //                 _principal,\n    //                 SafeMath.mul(riskScore, riskFactor),\n    //                 100\n    //             ),\n    //             CBLTprice\n    //         );\n\n    //     // Calculate new principal with the added interest\n    //     uint256 finalPrincipal =\n    //         SafeMath.add(\n    //             _principal,\n    //             SafeMath.multiply(_principal, interestRate, 100)\n    //         );\n\n    //     uint256 monthlyPayment = SafeMath.div(finalPrincipal, _paymentPeriod);\n\n    //     require(\n    //         token.transferFrom(msg.sender, address(this), collateralInCBLT) ==\n    //             true,\n    //         \"Payment was not approved.\"\n    //     );\n\n    //     loanBook[msg.sender] = Loan(\n    //         msg.sender,\n    //         _principal,\n    //         finalPrincipal,\n    //         monthlyPayment,\n    //         collateralInCBLT,\n    //         false,\n    //         true,\n    //         SafeMath.add(block.timestamp, 2629743),\n    //         block.timestamp,\n    //         loanTiers[userMaxTier].maxVoters,\n    //         0\n    //     );\n    // }\n\n    // /**\n    //  * @dev\n    //  */\n\n    // function processPeriod(uint256 _payment, bool _missedPayment) internal {\n    //     loanBook[msg.sender].remainingBalance = SafeMath.sub(\n    //         loanBook[msg.sender].remainingBalance,\n    //         _payment\n    //     );\n\n    //     loanBook[msg.sender].dueDate = SafeMath.add(block.timestamp, 2629743);\n\n    //     if (_missedPayment) {\n    //         // Needs to interact with the NFT\n    //         // Collateral is substracted\n    //         // Strike system // Connected to NFT\n    //         uint256 daysMissed =\n    //             SafeMath.div(\n    //                 SafeMath.sub(block.timestamp, loanBook[msg.sender].dueDate),\n    //                 86400\n    //             );\n    //         if (daysMissed > 7) {\n    //             // Suspend loan\n    //         }\n    //     }\n    // }\n\n    // /**\n    //  * @dev\n    //  */\n    // function validate() public {} // Only devs\n\n    // /**\n    //  * @dev Function for the user to make a payment with ETH\n    //  *\n    //  */\n    // function makePayment() public payable {\n    //     require(msg.value >= loanBook[msg.sender].minimumPayment);\n\n    //     if (block.timestamp <= loanBook[msg.sender].dueDate) {\n    //         processPeriod(msg.value, false);\n    //     } else {\n    //         processPeriod(msg.value, true);\n    //     }\n    // }\n\n    // /**\n    //  * @dev\n    //  */\n    // function returnCollateral() public {\n    //     require(loanBook[msg.sender].remainingBalance == 0);\n\n    //     uint256 amount = loanBook[msg.sender].collateral;\n    //     require(token.transfer(msg.sender, amount));\n\n    //     loanBook[msg.sender].collateral = 0;\n    // }\n\n    // /**\n    //  * @dev Deletes loan instance once the user has paid his active loan in full\n    //  */\n    // function cleanSlate() public {\n    //     require(loanBook[msg.sender].remainingBalance == 0);\n    //     loanRecords[msg.sender].push(loanBook[msg.sender]);\n    //     delete loanBook[msg.sender];\n    // }\n\n    // ********************************* Staking ***********************************\n\n    /**\n     * @dev Struct saves tier interest, monitor amount of stakers allowed per tier and\n     * tier duration used to calculate due dates.\n     */\n    struct crossTier {\n        uint256 interest;\n        uint256 amountStakersLeft;\n        uint256 tierDuration;\n    }\n\n    /**\n     * @dev Struct saves user data for ongoing staking and lottery results.\n     */\n    struct User {\n        uint256 ethBalance;\n        uint256 tokenReserved;\n        uint256 depositTime;\n        uint256 timeStakedTier;\n        uint256 amountStakedTier;\n        address currentTokenStaked;\n    }\n\n    /**\n     * @dev Variable displays information on ETH staked in the treasury for time tiers 4 and 5.\n     */\n    uint256 public borrowingPool;\n\n    /**\n     * @dev Variable displaying the maximum time tier supported.\n     */\n    uint256 public tierMax;\n\n    /**\n     * @dev Nested mappings with key value uint (time tier) leads to submapping with key value uint\n     * (amount tier) that leads the crossTier combination to pull the combination's interest amount of stakers\n     * avaliable and the tier duration used to calculate due date period.\n     */\n    mapping(uint256 => mapping(uint256 => crossTier)) public stakingRewardRate;\n\n    /**\n     * @dev Mapping with key value address(the user's address) leads to the struct with the user's\n     * staking and lottery information.\n     */\n    mapping(address => User) public userBook;\n\n    /**\n     * @dev Mapping with key value address (user address) leads to submapping with key value address\n     * (token address) to pull the current balance rewarded to that user in the tokens\n     */\n    mapping(address => mapping(address => uint256)) public rewardWallet;\n\n    /**\n     * @dev Modifier checks if staking is currently online, the deposit is higher\n     * than 0.015 ETH and tier value falls under the supported amount\n     */\n    modifier isValidStake(uint256 _timeStakedTier) {\n        // Checks if staking is currently online\n        require(stakingStatus == true, \"Staking is currently offline\");\n\n        // Minimum deposit of 0.015 ETH\n        require(\n            msg.value > 15e16,\n            \"Error, deposit must be higher than 0.015 ETH\"\n        );\n\n        // The tier input must be between 1 and tierMax\n        require(\n            _timeStakedTier >= 1 && _timeStakedTier <= tierMax,\n            \"Tier number must be a number between 1 and maximum tier supported.\"\n        );\n        _;\n    }\n\n    /**\n     * @dev Modifier checks current support on other tokens as rewards for staking\n     */\n    modifier tokenIsCBLT(address _tokenAddress) {\n        if (multipleTokenSupport == false) {\n            require(\n                _tokenAddress ==\n                    address(0x433C6E3D2def6E1fb414cf9448724EFB0399b698),\n                \"Token must be CBLT\"\n            );\n        }\n        _;\n    }\n\n    function getEstimateUSD(uint256 _tokenAmount, address _tokenAddress)\n        public\n        view\n        returns (uint256)\n    {\n        uint256 tokenToETH;\n        uint256 ETHtoUSD;\n        uint256 ETHprice = oracle.priceOfETH();\n        uint256 tokenPrice = oracle.priceOfToken(address(_tokenAddress));\n        uint256 ETHinUSD = SafeMath.div(100000000000000000000, ETHprice);\n\n        tokenToETH = SafeMath.mul(_tokenAmount, tokenPrice);\n        ETHtoUSD = SafeMath.div(tokenToETH, ETHinUSD);\n        return ETHtoUSD;\n    }\n\n    /**\n     * @dev Getter function pulls current tier information.\n     * @param _amount amount value sent in ETH used to access tier combination.\n     * @param _timeTier key tier time value used to access tier combination.\n     * @return Returns the interest under time and amount tier combination, amount of stakers avaliable.\n     * and the tierDuration or period staked in EPOCH.\n     */\n    function getTierInformation(uint256 _amount, uint256 _timeTier)\n        public\n        view\n        returns (\n            uint256,\n            uint256,\n            uint256\n        )\n    {\n        uint256 amountStakedTier;\n\n        if (_amount <= 4e17) {\n            amountStakedTier = 1;\n        } else if (_amount <= 2e18) {\n            amountStakedTier = 2;\n        } else if (_amount <= 5e18) {\n            amountStakedTier = 3;\n        } else if (_amount <= 25e18) {\n            amountStakedTier = 4;\n        } else {\n            amountStakedTier = 5;\n        }\n\n        return (\n            stakingRewardRate[_timeTier][amountStakedTier].interest,\n            stakingRewardRate[_timeTier][amountStakedTier].amountStakersLeft,\n            stakingRewardRate[_timeTier][amountStakedTier].tierDuration\n        );\n    }\n\n    /**\n     * @dev\n     */\n    function getTierCombination(uint256 _amountTier, uint256 _timeTier)\n        public\n        view\n        returns (\n            uint256,\n            uint256,\n            uint256\n        )\n    {\n        return (\n            stakingRewardRate[_timeTier][_amountTier].interest,\n            stakingRewardRate[_timeTier][_amountTier].amountStakersLeft,\n            stakingRewardRate[_timeTier][_amountTier].tierDuration\n        );\n    }\n\n    /**\n     * @dev Getter function to pull information from the user.\n     * @param _userAddress address of the queried user.\n     */\n    function getUser(address _userAddress)\n        public\n        view\n        returns (\n            uint256,\n            uint256,\n            uint256,\n            uint256,\n            uint256,\n            address\n        )\n    {\n        return (\n            userBook[_userAddress].ethBalance,\n            userBook[_userAddress].tokenReserved,\n            userBook[_userAddress].depositTime,\n            userBook[_userAddress].timeStakedTier,\n            userBook[_userAddress].amountStakedTier,\n            userBook[_userAddress].currentTokenStaked\n        );\n    }\n\n    /**\n     * @dev Getter function to pull avaliable tokens ready to withdraw from reserves\n     * @param _userAddress address of queried user\n     * @param _tokenAddress address of queried token\n     */\n    function getUserBalance(address _userAddress, address _tokenAddress)\n        public\n        view\n        returns (uint256)\n    {\n        return rewardWallet[_userAddress][_tokenAddress];\n    }\n\n    /**\n     * @dev Setter function to modify interests based on time and amount\n     * @notice Function is used to modify existing tiers or create new tiers if new\n     * tier key values are passed, creating new tier combinations.If time tier used\n     * is higher than current tier max, new tier combination was just created and\n     * tierMax should change to new cap\n     * @notice This action can only be perform under dev vote\n     * @param _amountTier key tier amount value used to access tier combination.\n     * @param _timeTier key tier time value used to access tier combination.\n     * @param _interest new interest to be modified.\n     * @param _amountStakersLeft new interest to be modified.\n     * @param _tierDuration new tier duration to be modified.\n     */\n    function setTierInformation(\n        uint256 _amountTier,\n        uint256 _timeTier,\n        uint256 _interest,\n        uint256 _amountStakersLeft,\n        uint256 _tierDuration\n    ) public {\n        require(_amountTier <= 5, \"Amount tier must be lower or equal to 5\");\n\n        stakingRewardRate[_timeTier][_amountTier].interest = _interest;\n        stakingRewardRate[_timeTier][_amountTier]\n            .amountStakersLeft = _amountStakersLeft;\n        stakingRewardRate[_timeTier][_amountTier].tierDuration = _tierDuration;\n        // Check if time tier modified increases the tierMax cap\n        if (_timeTier > tierMax) {\n            tierMax = _timeTier; // Save new tierMax if so\n        }\n    }\n\n    function calculateAmountTier(uint256 _amount, uint256 _timeStakedTier)\n        internal\n        pure\n        returns (uint256, uint256)\n    {\n        uint256 amountStakedTier;\n        uint256 paidAdvanced;\n\n        if (_amount <= 4e17) {\n            amountStakedTier = 1;\n        } else if (_amount <= 2e18) {\n            amountStakedTier = 2;\n        } else if (_amount <= 5e18) {\n            amountStakedTier = 3;\n        } else if (_amount <= 25e18) {\n            amountStakedTier = 4;\n\n            if (_timeStakedTier == 4) {\n                paidAdvanced = 25;\n            } else if (_timeStakedTier == 5) {\n                paidAdvanced = 50;\n            }\n        } else {\n            amountStakedTier = 5;\n\n            if (_timeStakedTier == 4) {\n                paidAdvanced = 25;\n            } else if (_timeStakedTier == 5) {\n                paidAdvanced = 50;\n            }\n        }\n\n        return (amountStakedTier, paidAdvanced);\n    }\n\n    function calculateFee(uint256 _amount)\n        public\n        view\n        returns (uint256, uint256)\n    {\n        uint256 newBalance;\n        uint256 fee;\n\n        if (_amount > feeThreshold) {\n            fee = SafeMath.multiply(_amount, percentFee, 1000);\n            newBalance = SafeMath.sub(_amount, fee);\n        } else {\n            uint256 ETHprice = oracle.priceOfETH();\n            uint256 ETHinUSD = SafeMath.div(100000000000000000000, ETHprice);\n            fee = SafeMath.mul(ETHinUSD, flatFee);\n            newBalance = SafeMath.sub(_amount, fee);\n        }\n\n        return (newBalance, fee);\n    }\n\n    function calculateRewardReturn(\n        uint256 _timeStakedTier,\n        uint256 _amountStakedTier,\n        uint256 _balance,\n        address _tokenAddress\n    ) internal view returns (uint256) {\n        uint256 dueDate;\n        uint256 tokensReserved;\n\n        if (userBook[msg.sender].ethBalance > 0) {\n            dueDate = SafeMath.add(\n                stakingRewardRate[_timeStakedTier][_amountStakedTier]\n                    .tierDuration,\n                userBook[msg.sender].depositTime\n            );\n\n            require(\n                block.timestamp > 1,\n                \"Current staking period is not over yet\"\n            );\n        }\n\n        tokensReserved = calculateRewardDeposit(\n            _balance,\n            _timeStakedTier,\n            _amountStakedTier,\n            _tokenAddress\n        );\n        return tokensReserved;\n    }\n\n    /**\n     * @dev Function sends an estimation of how many tokens user is owed\n     * @param _amount Amount of ETH send by the user\n     * @param _timeStakedTier Duration tier for staking instance\n     * @param _tokenAddress Address of token rewarded\n     */\n    function getTokenReturn(\n        uint256 _amount,\n        uint256 _timeStakedTier,\n        address _tokenAddress\n    )\n        public\n        view\n        returns (\n            uint256,\n            uint256,\n            uint256,\n            uint256\n        )\n    {\n        uint256 fee;\n        uint256 tokensOwed;\n        uint256 paidAdvanced;\n        uint256 amountStakedTier;\n        uint256 newBalance =\n            SafeMath.add(userBook[msg.sender].ethBalance, _amount);\n\n        (amountStakedTier, paidAdvanced) = calculateAmountTier(\n            _amount,\n            _timeStakedTier\n        );\n\n        (newBalance, fee) = calculateFee(newBalance);\n\n        tokensOwed = calculateRewardReturn(\n            _timeStakedTier,\n            amountStakedTier,\n            newBalance,\n            _tokenAddress\n        );\n\n        return (tokensOwed, paidAdvanced, newBalance, amountStakedTier);\n    }\n\n    /**\n     * @dev Function stakes ethereum based on the user's desired duration and token of reward\n     * @param _timeStakedTier intended duration of their desired staking period\n     * @param _tokenAddress token address rewarded to user staking\n     * CBLT used as default during launch\n     * @notice Modifier tokenIsCBLT checks if support for other tokens as reward is turned on.\n     */\n    function stakeEth(uint32 _timeStakedTier, address _tokenAddress)\n        public\n        payable\n        tokenIsCBLT(_tokenAddress)\n        isValidStake(_timeStakedTier)\n        stakingTermination(false)\n    {\n        uint256 amountStakedTier;\n        uint256 paidAdvanced = 0;\n        uint256 tokensReserved;\n        uint256 balance;\n        uint256 fee;\n        uint256 userReserved = userBook[msg.sender].tokenReserved;\n\n        if (userReserved > 0) {\n            payRewardWallet(userReserved);\n        }\n\n        (\n            tokensReserved,\n            paidAdvanced,\n            balance,\n            amountStakedTier\n        ) = getTokenReturn(msg.value, _timeStakedTier, _tokenAddress);\n\n        require(\n            tokensReserved <= tokenReserve[_tokenAddress],\n            \"Treasury is currently depleted\"\n        );\n\n        if (paidAdvanced > 0) {\n            uint256 tokensSent =\n                SafeMath.multiply(tokensReserved, paidAdvanced, 100);\n            // IERC20(_tokenAddress).universalTransfer(msg.sender, tokensSent);\n\n            userBook[msg.sender].tokenReserved = SafeMath.add(\n                userBook[msg.sender].tokenReserved,\n                SafeMath.sub(tokensReserved, tokensSent)\n            );\n        } else {\n            userBook[msg.sender].tokenReserved = SafeMath.add(\n                userBook[msg.sender].tokenReserved,\n                tokensReserved\n            );\n        }\n\n        if (!lotteryBook[msg.sender]) {\n            require(\n                stakingRewardRate[_timeStakedTier][amountStakedTier]\n                    .amountStakersLeft > 0,\n                \"Tier depleted, come back later\"\n            );\n\n            stakingRewardRate[_timeStakedTier][amountStakedTier]\n                .amountStakersLeft = SafeMath.sub(\n                stakingRewardRate[_timeStakedTier][amountStakedTier]\n                    .amountStakersLeft,\n                1\n            );\n        }\n\n        userBook[msg.sender].timeStakedTier = _timeStakedTier;\n        userBook[msg.sender].amountStakedTier = amountStakedTier;\n        userBook[msg.sender].currentTokenStaked = _tokenAddress;\n        userBook[msg.sender].depositTime = block.timestamp;\n        userBook[msg.sender].ethBalance = balance;\n\n        totalFeeBalance = SafeMath.add(totalFeeBalance, fee);\n        tokenReserve[_tokenAddress] = SafeMath.sub(\n            tokenReserve[_tokenAddress],\n            tokensReserved\n        );\n    }\n\n    /**\n     * @dev Helper function calculates amount of tokens owed to user at current market value\n     * with both tier combinations. If user is restaking the function calls another helper\n     * function (payRewardWalletDeposit(userReserved)) that deposits previous tokens staked\n     * this function also recalculates the amount based on deposit and current token value.\n     * @param _amount new amount balance saved by user. Combination of existing balance and\n     * incoming amount.\n     * @param _timeStakedTier time duration tier for staking period\n     * @param _amountStakedTier time amount tier for staking period\n     * @param _tokenAddress token address of token owed at the end of staking period\n     * be rewarded with x2 interest reward for his staking period\n     */\n    function calculateRewardDeposit(\n        uint256 _amount,\n        uint256 _timeStakedTier,\n        uint256 _amountStakedTier,\n        address _tokenAddress\n    ) internal view returns (uint256) {\n        uint256 tokenPrice = oracle.priceOfToken(address(_tokenAddress));\n        uint256 interest;\n\n        if (lotteryBook[msg.sender]) {\n            interest = SafeMath.mul(\n                stakingRewardRate[_timeStakedTier][_amountStakedTier].interest,\n                2\n            );\n        } else {\n            interest = stakingRewardRate[_timeStakedTier][_amountStakedTier]\n                .interest;\n        }\n\n        return\n            SafeMath.mul(\n                SafeMath.div(\n                    SafeMath.multiply(_amount, interest, 100),\n                    tokenPrice\n                ),\n                1e18\n            );\n    }\n\n    /**\n     * @dev Helper function calculates the amount of tokens owed to user based on previous\n     * token value, time and amount tier combination and current token value and saves the\n     * amount in the virtual wallet for the user to withdraw from.\n     * @notice if the new amount promised to user is higher than avaliable for a lottery winner\n     * treasury will check if we can fund the reward. If not, lottery ticket is saved for another\n     * instance\n     * @param _userReserved maximum amount of tokens reserved for user based on previous\n     * token value when staking instance was created.\n     */\n    function payRewardWallet(uint256 _userReserved) internal {\n        uint256 interest;\n        uint256 percentBasedAmount = 100;\n        uint256 amountStakedPreviously = userBook[msg.sender].ethBalance;\n        uint256 previousTimeTier = userBook[msg.sender].timeStakedTier;\n        uint256 previousAmountTier = userBook[msg.sender].amountStakedTier;\n        address previousTokenAddress = userBook[msg.sender].currentTokenStaked;\n        uint256 previousTokenPrice = oracle.priceOfToken(previousTokenAddress);\n\n        if (\n            previousTimeTier == 4 &&\n            (previousAmountTier == 4 || previousAmountTier == 5)\n        ) {\n            percentBasedAmount = 75;\n        } else if (\n            previousTimeTier == 5 &&\n            (previousAmountTier == 4 || previousAmountTier == 5)\n        ) {\n            percentBasedAmount = 50;\n        }\n\n        if (lotteryBook[msg.sender]) {\n            interest = SafeMath.mul(\n                stakingRewardRate[userBook[msg.sender].timeStakedTier][\n                    previousAmountTier\n                ]\n                    .interest,\n                2\n            );\n        } else {\n            interest = stakingRewardRate[userBook[msg.sender].timeStakedTier][\n                previousAmountTier\n            ]\n                .interest;\n        }\n\n        uint256 tokensOwed =\n            SafeMath.mul(\n                SafeMath.div(\n                    SafeMath.multiply(\n                        SafeMath.multiply(\n                            amountStakedPreviously,\n                            percentBasedAmount,\n                            100\n                        ),\n                        interest,\n                        100\n                    ),\n                    previousTokenPrice\n                ),\n                1e18\n            );\n\n        if (tokensOwed >= _userReserved) {\n            if (lotteryBook[msg.sender]) {\n                if (tokensOwed < tokenReserve[previousTokenAddress]) {\n                    tokenReserve[previousTokenAddress] = SafeMath.sub(\n                        tokenReserve[previousTokenAddress],\n                        tokensOwed\n                    );\n                    rewardWallet[msg.sender][previousTokenAddress] = SafeMath\n                        .add(\n                        rewardWallet[msg.sender][previousTokenAddress],\n                        tokensOwed\n                    );\n\n                    lotteryBook[msg.sender] = false;\n                } else {\n                    rewardWallet[msg.sender][previousTokenAddress] = SafeMath\n                        .add(\n                        rewardWallet[msg.sender][previousTokenAddress],\n                        _userReserved\n                    );\n                }\n            } else {\n                rewardWallet[msg.sender][previousTokenAddress] = SafeMath.add(\n                    rewardWallet[msg.sender][previousTokenAddress],\n                    _userReserved\n                );\n\n                stakingRewardRate[previousTimeTier][previousAmountTier]\n                    .amountStakersLeft = SafeMath.add(\n                    stakingRewardRate[previousTimeTier][previousAmountTier]\n                        .amountStakersLeft,\n                    1\n                );\n            }\n            userBook[msg.sender].tokenReserved = 0;\n        } else {\n            uint256 tokenDifference = SafeMath.sub(_userReserved, tokensOwed);\n\n            tokenReserve[previousTokenAddress] = SafeMath.add(\n                tokenReserve[previousTokenAddress],\n                tokenDifference\n            );\n\n            rewardWallet[msg.sender][previousTokenAddress] = SafeMath.add(\n                rewardWallet[msg.sender][previousTokenAddress],\n                tokensOwed\n            );\n\n            userBook[msg.sender].tokenReserved = 0;\n\n            if (!lotteryBook[msg.sender]) {\n                stakingRewardRate[previousTimeTier][previousAmountTier]\n                    .amountStakersLeft = SafeMath.add(\n                    stakingRewardRate[previousTimeTier][previousAmountTier]\n                        .amountStakersLeft,\n                    1\n                );\n                lotteryBook[msg.sender] = false;\n            }\n        }\n    }\n\n    /**\n     * @dev Function sends a specified amount of ETH from the users balance back to the user\n     * @notice Function also allocates final amount tokens owed into users reward wallet\n     * if this hasnt ocurred already\n     */\n    function withdrawEth(uint256 _amount)\n        public\n        payable\n        stakingTermination(false)\n    {\n        uint256 dueDate;\n        uint256 userReserved = userBook[msg.sender].tokenReserved;\n        uint256 stakingPeriodTier = userBook[msg.sender].timeStakedTier;\n        uint256 stakingAmountTier = userBook[msg.sender].amountStakedTier;\n        uint256 userBalance = userBook[msg.sender].ethBalance;\n\n        if (userReserved > 0) {\n            payRewardWallet(userReserved);\n        }\n\n        dueDate = SafeMath.add(\n            stakingRewardRate[stakingPeriodTier][stakingAmountTier]\n                .tierDuration,\n            userBook[msg.sender].depositTime\n        );\n\n        require(block.timestamp >= 1, \"Staking period is not over.\");\n\n        userBook[msg.sender].ethBalance = SafeMath.sub(userBalance, _amount);\n\n        payable(msg.sender).transfer(_amount);\n    }\n\n    /**\n     * @dev Function transfer an amount of desired cblt tokens from the user's\n     * token reward wallet.\n     * @notice Function also calculates any running token balance reserved and deposits it\n     * on the user's reward wallet\n     * @param _amount amount of token rewarded sent to the user's wallet\n     * @param _withdrawTokenAddress token address of token being withdrawn\n     */\n    function withdrawStaking(uint256 _amount, address _withdrawTokenAddress)\n        public\n        payable\n        stakingTermination(false)\n    {\n        uint256 dueDate;\n        uint256 userReserved = userBook[msg.sender].tokenReserved;\n        uint256 stakingPeriodTier = userBook[msg.sender].timeStakedTier;\n        uint256 stakingAmountTier = userBook[msg.sender].amountStakedTier;\n\n        if (userReserved > 0) {\n            dueDate = SafeMath.add(\n                stakingRewardRate[stakingPeriodTier][stakingAmountTier]\n                    .tierDuration,\n                userBook[msg.sender].depositTime\n            );\n\n            require(\n                dueDate < block.timestamp,\n                \"Current staking period is still active\"\n            );\n\n            payRewardWallet(userReserved);\n        }\n\n        (uint256 tokenPrice, uint256 ETHprice) =\n            oracle.priceOfETHandCBLT(_withdrawTokenAddress);\n\n        uint256 USDtoToken =\n            SafeMath.multiply(\n                SafeMath.div(1000000000000000000, tokenPrice),\n                SafeMath.div(100000000000000000000, ETHprice),\n                1000000000000000000\n            );\n\n        require(\n            SafeMath.mul(USDtoToken, 5) > 50,\n            \"Amount in CBLT must be higher than 50 total worth in value.\"\n        );\n\n        rewardWallet[msg.sender][_withdrawTokenAddress] = SafeMath.sub(\n            rewardWallet[msg.sender][_withdrawTokenAddress],\n            _amount\n        );\n\n        // IERC20(_withdrawTokenAddress).universalTransfer(msg.sender, _amount);\n    }\n\n    /**\n     * @dev Breaks staking instance for users with a duration tier higher than\n     * the default of 5. A relative amount of tokens reserved are sent to the\n     * user based on time staked.\n     */\n    function earlyWithdraw() public payable stakingTermination(false) {\n        uint256 stakingPeriodTier = userBook[msg.sender].timeStakedTier;\n        uint256 stakingAmountTier = userBook[msg.sender].amountStakedTier;\n        address previousTokenAddress = userBook[msg.sender].currentTokenStaked;\n        uint256 timeOfStaking = userBook[msg.sender].depositTime;\n        uint256 userBalance = userBook[msg.sender].ethBalance;\n        uint256 tokensReserved = userBook[msg.sender].tokenReserved;\n\n        require(stakingPeriodTier > 5, \"Tier not supporting early withdraw\");\n\n        uint256 timeStaked = SafeMath.sub(block.timestamp, timeOfStaking);\n        uint256 tokenPrice = oracle.priceOfToken(previousTokenAddress);\n\n        uint256 tokensOwed =\n            SafeMath.mul(\n                SafeMath.div(\n                    SafeMath.multiply(\n                        userBalance,\n                        stakingRewardRate[stakingPeriodTier][stakingAmountTier]\n                            .interest,\n                        100\n                    ),\n                    tokenPrice\n                ),\n                1e18\n            );\n\n        uint256 relativeOwed =\n            SafeMath.multiply(\n                tokensOwed,\n                timeStaked,\n                stakingRewardRate[stakingPeriodTier][stakingAmountTier]\n                    .tierDuration\n            );\n\n        // Reset values\n        userBook[msg.sender].ethBalance = 0;\n        userBook[msg.sender].tokenReserved = 0;\n        userBook[msg.sender].depositTime = block.timestamp;\n\n        if (relativeOwed > tokensReserved) {\n            // IERC20(previousTokenAddress).universalTransfer(\n            //     msg.sender,\n            //     tokensReserved\n            // );\n        } else {\n            // IERC20(previousTokenAddress).universalTransfer(\n            //     msg.sender,\n            //     relativeOwed\n            // );\n        }\n\n        payable(msg.sender).transfer(userBalance);\n    }\n\n    /**\n     * @dev Function allows all users to break staking instance and withdraw\n     * all eth deposited for staking.\n     */\n    function emergencyWithdraw() public payable stakingTermination(true) {\n        uint256 userBalance = userBook[msg.sender].ethBalance;\n\n        // Substract eth from user account\n        userBook[msg.sender].ethBalance = 0;\n\n        payable(msg.sender).transfer(userBalance);\n    }\n\n    function getContractBalance() public view returns (uint256) {\n        return address(this).balance;\n    }\n}\n\n// 7 days\n// 3 missed payments back to back\n// 4 missed payment overall\n// 6 years 100k ++++\n// 2 years 100k ----\n\n// ************************************* CHANGES ************************************\n\n// mapping (uint id => Loan) loanBook;\n// signature NFT\n\n// loanBook[id]\n// loanBook[id].signature // NFT\n\n// function borrow() {\n//     require(loanBook[id].signature == NFT.value)\n// }\n\n// ******************************** INCENTIVE SYSTEM *******************************\n\n// tier 1 - Loan  50k - Max voters 100 - 5 per head\n//        - msg.sender CBLTs > 300$ worth of ETH\n// tier 2 - Loan 100k - Max voters 150 - 7.5 per head\n//        - msg.sender CBLTs > 200\n// tier 3 - Loan 200k - Max voters 200 - 10 per head\n//        - msg.sender CBLTs > 400\n\n// ************************************** TODOS ************************************\n\n// Starting period, 12-24 months\n// Collateral paid on loan application\n// Create new function to handle application\n// Create a new function to check if loan is ready to loan\n// Array of all voters\n// Save interest amount on loan to an specific\n\n// Calling oracle from ABI\n\n// (bool result, bytes memory data) =\n//             oracleAddress.call(\n//                 abi.encodeWithSignature(\n//                     \"priceOfPair(address,address)\",\n//                     _sellToken,\n//                     _buyToken\n//                 )\n//             );\n//         // Decode bytes data\n//         (uint256 sellTokenValue, uint256 buyTokenValue) =\n//             abi.decode(data, (uint256, uint256));\n\n// Amount of CBLT present in wallet per tier\n\n// Tier 1 - 500  to  5k   USD\n// Tier 2 - 5k   to  20k  USD\n// Tier 3 - 20k  to  50k  USD\n// Tier 4 - 50k  to  100k USD\n// Tier 5 - 100k to  250k USD\n// Tier 6 - +250k         USD\n\n// Amount of votes allowed per tier\n\n// Tier 1 - 20\n// Tier 2 - 40\n// Tier 3 - 60-80\n// Tier 4 ''  '' '' Needs work\n\n// Information made public from the borrower\n// Name, eth account, email\n\n// Maximum period to pay loan per Tier\n// Tier 1 - 10k  to 25k  - 12 months\n// Tier 2 - 25k  to 50k  - 24 months\n// Tier 3 - 50k  to 100k - 36 months\n// Tier 4 - 100k to 250k - 48 months\n// Tier 5 - 250k to 1m   - 60 months\n// Tier 6 - 1m   to 5m   - 60 months\n// Tier 7 - 5m and above - 60 months\n\n// New contract logic needed to be added\n// Lending 50%\n// Long term stakers - 12\n// long term pool\n// staking - indebt\n\n// Points of entry, restricting value\n// Validate\n\n// 25% - 6\n// 50% - 12\n\n// FUNCTION TO VALIDATE LENDING\n\n// function validate(address[] memory _votersAddress, bool _voteFinal, uint _loanSignature ) public { // only devs\n//     // Oracle inject\n//     // loanbook[_loanSignature].tierUSD;\n\n//     uint256 USDtoCBLT =\n//         SafeMath.div(\n//             1000000000000000000,\n//             SafeMath.mul(2000000000000, 2843)\n//         );\n\n//     for(uint i = 0; i < _votersAddress.length;i++) { // 8 // 100\n//          _votersAddress[i];\n//          // uint tierVoters = loanbook[_loanSignature].maxVoters;\n//          // Two things\n//          // token.balanceOf(_votersAddress[i]);\n//     }\n//     // loanbook[_loanSignature].status;\n// }\n\n//     \"4\": {\n//       \"events\": {},\n//       \"links\": {},\n//       \"address\": \"0xb46dc6f708711a9887d6f4260e27e46cc77ac7a9\",\n//       \"transactionHash\": \"0xe4cd16d654f7c2b00579515b007587830bfb922e3bd3307850b15d953b9a49f4\"\n//     }\n",
  "sourcePath": "/Users/christianroque/Desktop/TungstenGroupProject/contracts/Bank.sol",
  "compiler": {
    "name": "solc",
    "version": "0.7.6+commit.7338295f.Emscripten.clang"
  },
  "schemaVersion": "3.3.4",
  "updatedAt": "2021-06-21T07:29:07.038Z",
  "devdoc": {
    "events": {
      "onReceived(address,uint256)": {
        "details": "Events emitted"
      }
    },
    "kind": "dev",
    "methods": {
      "earlyWithdraw()": {
        "details": "Breaks staking instance for users with a duration tier higher than the default of 5. A relative amount of tokens reserved are sent to the user based on time staked."
      },
      "emergencyWithdraw()": {
        "details": "Function allows all users to break staking instance and withdraw all eth deposited for staking."
      },
      "getLotteryContract()": {
        "details": "Getter function to pull current lottery address",
        "returns": {
          "_0": "address of contract"
        }
      },
      "getStakingStatus()": {
        "details": "Getter function to pull staking status on and off."
      },
      "getTierInformation(uint256,uint256)": {
        "details": "Getter function pulls current tier information.",
        "params": {
          "_amount": "amount value sent in ETH used to access tier combination.",
          "_timeTier": "key tier time value used to access tier combination."
        },
        "returns": {
          "_0": "Returns the interest under time and amount tier combination, amount of stakers avaliable. and the tierDuration or period staked in EPOCH."
        }
      },
      "getTokenReserve(address)": {
        "details": "Getter function to pull information for avaliable token amount in reserves",
        "params": {
          "_tokenAddress": "token address of queried token"
        }
      },
      "getTokenReturn(uint256,uint256,address)": {
        "details": "Function sends an estimation of how many tokens user is owed",
        "params": {
          "_amount": "Amount of ETH send by the user",
          "_timeStakedTier": "Duration tier for staking instance",
          "_tokenAddress": "Address of token rewarded"
        }
      },
      "getTokenSupport()": {
        "details": "Getter function to pull info on support for other tokens."
      },
      "getUser(address)": {
        "details": "Getter function to pull information from the user.",
        "params": {
          "_userAddress": "address of the queried user."
        }
      },
      "getUserBalance(address,address)": {
        "details": "Getter function to pull avaliable tokens ready to withdraw from reserves",
        "params": {
          "_tokenAddress": "address of queried token",
          "_userAddress": "address of queried user"
        }
      },
      "lottery(address[])": {
        "details": "Passes an array of winners",
        "params": {
          "_winners": "array of all  winners"
        }
      },
      "lotteryWinner(address)": {
        "details": "Getter function to pull information on lottery winner",
        "params": {
          "_userAddress": "address of user queried"
        },
        "returns": {
          "_0": "if user has a multiplier ready to be reedemed"
        }
      },
      "newFlatFee(uint256)": {
        "details": "Setter for staking flat fee.",
        "params": {
          "_newFee": "new uint fee value."
        }
      },
      "setLotteryContract(address)": {
        "details": "Setter function to change the contract address for the lottery connected to staking.",
        "params": {
          "_lotteryAddress": "address of lottery contract picking winners."
        }
      },
      "setStakingStatus(bool)": {
        "details": "Setter function to turn staking status on and off.",
        "params": {
          "_bool": "value true - on, false - off."
        }
      },
      "setStakingTermination(bool)": {
        "details": "Function terminates all staking instances and allows early balance withdrewal",
        "params": {
          "_bool": "true terminates all contract instances and allows users to withdraw"
        }
      },
      "setTierInformation(uint256,uint256,uint256,uint256,uint256)": {
        "details": "Setter function to modify interests based on time and amount",
        "params": {
          "_amountStakersLeft": "new interest to be modified.",
          "_amountTier": "key tier amount value used to access tier combination.",
          "_interest": "new interest to be modified.",
          "_tierDuration": "new tier duration to be modified.",
          "_timeTier": "key tier time value used to access tier combination."
        }
      },
      "setTokenSupport(bool)": {
        "details": "Setter function to turn support for other tokens.",
        "params": {
          "_bool": "true turns on other token support for staking reward, false off"
        }
      },
      "stakeEth(uint32,address)": {
        "details": "Function stakes ethereum based on the user's desired duration and token of reward",
        "params": {
          "_timeStakedTier": "intended duration of their desired staking period",
          "_tokenAddress": "token address rewarded to user staking CBLT used as default during launch"
        }
      },
      "tokenReserveDeposit(uint256,address)": {
        "details": "Function handles token deposit for treasury to track"
      },
      "withdrawEth(uint256)": {
        "details": "Function sends a specified amount of ETH from the users balance back to the user"
      },
      "withdrawFees(uint256)": {
        "details": "transfers funds to an approved contract"
      },
      "withdrawStaking(uint256,address)": {
        "details": "Function transfer an amount of desired cblt tokens from the user's token reward wallet.",
        "params": {
          "_amount": "amount of token rewarded sent to the user's wallet",
          "_withdrawTokenAddress": "token address of token being withdrawn"
        }
      }
    },
    "stateVariables": {
      "Lottery": {
        "details": "Address of lottery contract in charge of executing LotteryWinner function"
      },
      "borrowingPool": {
        "details": "Variable displays information on ETH staked in the treasury for time tiers 4 and 5."
      },
      "flatFee": {
        "details": "Variable for staking flat fee."
      },
      "lotteryBook": {
        "details": "Mapping with key value uint (lottery ticket) leads to the information on ticket amount and time tier for the user to redeem his reward staking."
      },
      "multipleTokenSupport": {
        "details": "Bool switch turns support for other tokens as reward outside of CBLT."
      },
      "oracle": {
        "details": "Creating oracle instance"
      },
      "oracleAddress": {
        "details": "CobaltLend oracle for scoring and CBLT price"
      },
      "percentFee": {
        "details": "Variable for staking flat fee."
      },
      "rewardWallet": {
        "details": "Mapping with key value address (user address) leads to submapping with key value address (token address) to pull the current balance rewarded to that user in the tokens"
      },
      "stakingRewardRate": {
        "details": "Nested mappings with key value uint (time tier) leads to submapping with key value uint (amount tier) that leads the crossTier combination to pull the combination's interest amount of stakers avaliable and the tier duration used to calculate due date period."
      },
      "stakingStatus": {
        "details": "Variable to turn staking off and on."
      },
      "terminateStaking": {
        "details": "Bool switch for all staking instance terminations"
      },
      "tierMax": {
        "details": "Variable displaying the maximum time tier supported."
      },
      "token": {
        "details": "storing CBLT token in ERC20 type"
      },
      "tokenReserve": {
        "details": "Mapping with key value address (token address) leads the current reserves avaliable for tokens being currently offered to stake on."
      },
      "totalFeeBalance": {
        "details": "Saving running fee total"
      },
      "userBook": {
        "details": "Mapping with key value address(the user's address) leads to the struct with the user's staking and lottery information."
      }
    },
    "version": 1
  },
  "userdoc": {
    "kind": "user",
    "methods": {
      "lottery(address[])": {
        "notice": "Only an allowed address will be able to execute this function"
      },
      "newFlatFee(uint256)": {
        "notice": "This action can only be perform under dev vote."
      },
      "setLotteryContract(address)": {
        "notice": "This action can only be perform under dev vote."
      },
      "setStakingStatus(bool)": {
        "notice": "This action can only be perform under dev vote."
      },
      "setStakingTermination(bool)": {
        "notice": "This action can only be perform under dev vote."
      },
      "setTierInformation(uint256,uint256,uint256,uint256,uint256)": {
        "notice": "Function is used to modify existing tiers or create new tiers if new tier key values are passed, creating new tier combinations.If time tier used is higher than current tier max, new tier combination was just created and tierMax should change to new capThis action can only be perform under dev vote"
      },
      "setTokenSupport(bool)": {
        "notice": "This action can only be perform under dev vote."
      },
      "stakeEth(uint32,address)": {
        "notice": "Modifier tokenIsCBLT checks if support for other tokens as reward is turned on."
      },
      "withdrawEth(uint256)": {
        "notice": "Function also allocates final amount tokens owed into users reward wallet if this hasnt ocurred already"
      },
      "withdrawStaking(uint256,address)": {
        "notice": "Function also calculates any running token balance reserved and deposits it on the user's reward wallet"
      }
    },
    "version": 1
  }
}