{
  "contractName": "Bank",
  "abi": [
    {
      "inputs": [
        {
          "internalType": "address",
          "name": "_CBLT",
          "type": "address"
        },
        {
          "internalType": "address",
          "name": "_oracle",
          "type": "address"
        }
      ],
      "stateMutability": "nonpayable",
      "type": "constructor"
    },
    {
      "anonymous": false,
      "inputs": [
        {
          "indexed": false,
          "internalType": "address",
          "name": "_previousOwner",
          "type": "address"
        },
        {
          "indexed": true,
          "internalType": "address",
          "name": "_newOwner",
          "type": "address"
        }
      ],
      "name": "OwnershipTransferred",
      "type": "event"
    },
    {
      "anonymous": false,
      "inputs": [
        {
          "indexed": true,
          "internalType": "address",
          "name": "_from",
          "type": "address"
        },
        {
          "indexed": false,
          "internalType": "uint256",
          "name": "_amount",
          "type": "uint256"
        }
      ],
      "name": "depositToken",
      "type": "event"
    },
    {
      "anonymous": false,
      "inputs": [
        {
          "indexed": true,
          "internalType": "address",
          "name": "_from",
          "type": "address"
        },
        {
          "indexed": false,
          "internalType": "uint256",
          "name": "_amount",
          "type": "uint256"
        }
      ],
      "name": "onReceived",
      "type": "event"
    },
    {
      "anonymous": false,
      "inputs": [
        {
          "indexed": true,
          "internalType": "address",
          "name": "_from",
          "type": "address"
        },
        {
          "indexed": true,
          "internalType": "address",
          "name": "_to",
          "type": "address"
        },
        {
          "indexed": false,
          "internalType": "uint256",
          "name": "_amount",
          "type": "uint256"
        }
      ],
      "name": "onTransfer",
      "type": "event"
    },
    {
      "inputs": [],
      "name": "_owner",
      "outputs": [
        {
          "internalType": "address",
          "name": "",
          "type": "address"
        }
      ],
      "stateMutability": "view",
      "type": "function"
    },
    {
      "inputs": [],
      "name": "isOwner",
      "outputs": [
        {
          "internalType": "bool",
          "name": "",
          "type": "bool"
        }
      ],
      "stateMutability": "view",
      "type": "function"
    },
    {
      "inputs": [
        {
          "internalType": "address",
          "name": "",
          "type": "address"
        }
      ],
      "name": "loanBook",
      "outputs": [
        {
          "internalType": "address",
          "name": "borrower",
          "type": "address"
        },
        {
          "internalType": "uint256",
          "name": "amountBorrowed",
          "type": "uint256"
        },
        {
          "internalType": "uint256",
          "name": "remainingBalance",
          "type": "uint256"
        },
        {
          "internalType": "uint256",
          "name": "minimumPayment",
          "type": "uint256"
        },
        {
          "internalType": "uint256",
          "name": "collateral",
          "type": "uint256"
        },
        {
          "internalType": "bool",
          "name": "active",
          "type": "bool"
        },
        {
          "internalType": "bool",
          "name": "initialized",
          "type": "bool"
        },
        {
          "internalType": "uint256",
          "name": "timeCreated",
          "type": "uint256"
        },
        {
          "internalType": "uint256",
          "name": "dueDate",
          "type": "uint256"
        },
        {
          "internalType": "uint256",
          "name": "totalVote",
          "type": "uint256"
        },
        {
          "internalType": "uint256",
          "name": "yes",
          "type": "uint256"
        }
      ],
      "stateMutability": "view",
      "type": "function"
    },
    {
      "inputs": [
        {
          "internalType": "address",
          "name": "",
          "type": "address"
        },
        {
          "internalType": "uint256",
          "name": "",
          "type": "uint256"
        }
      ],
      "name": "loanRecords",
      "outputs": [
        {
          "internalType": "address",
          "name": "borrower",
          "type": "address"
        },
        {
          "internalType": "uint256",
          "name": "amountBorrowed",
          "type": "uint256"
        },
        {
          "internalType": "uint256",
          "name": "remainingBalance",
          "type": "uint256"
        },
        {
          "internalType": "uint256",
          "name": "minimumPayment",
          "type": "uint256"
        },
        {
          "internalType": "uint256",
          "name": "collateral",
          "type": "uint256"
        },
        {
          "internalType": "bool",
          "name": "active",
          "type": "bool"
        },
        {
          "internalType": "bool",
          "name": "initialized",
          "type": "bool"
        },
        {
          "internalType": "uint256",
          "name": "timeCreated",
          "type": "uint256"
        },
        {
          "internalType": "uint256",
          "name": "dueDate",
          "type": "uint256"
        },
        {
          "internalType": "uint256",
          "name": "totalVote",
          "type": "uint256"
        },
        {
          "internalType": "uint256",
          "name": "yes",
          "type": "uint256"
        }
      ],
      "stateMutability": "view",
      "type": "function"
    },
    {
      "inputs": [
        {
          "internalType": "uint256",
          "name": "",
          "type": "uint256"
        },
        {
          "internalType": "uint256",
          "name": "",
          "type": "uint256"
        }
      ],
      "name": "stakingRewardRate",
      "outputs": [
        {
          "internalType": "uint256",
          "name": "interest",
          "type": "uint256"
        },
        {
          "internalType": "uint256",
          "name": "amountStakersLeft",
          "type": "uint256"
        }
      ],
      "stateMutability": "view",
      "type": "function"
    },
    {
      "inputs": [
        {
          "internalType": "address",
          "name": "_newOwner",
          "type": "address"
        }
      ],
      "name": "transferOwnership",
      "outputs": [],
      "stateMutability": "nonpayable",
      "type": "function"
    },
    {
      "inputs": [
        {
          "internalType": "address",
          "name": "",
          "type": "address"
        }
      ],
      "name": "userBook",
      "outputs": [
        {
          "internalType": "uint256",
          "name": "rewardWallet",
          "type": "uint256"
        },
        {
          "internalType": "uint256",
          "name": "ethBalance",
          "type": "uint256"
        },
        {
          "internalType": "uint256",
          "name": "cbltReserved",
          "type": "uint256"
        },
        {
          "internalType": "uint256",
          "name": "depositTime",
          "type": "uint256"
        },
        {
          "internalType": "uint256",
          "name": "timeStakedTier",
          "type": "uint256"
        }
      ],
      "stateMutability": "view",
      "type": "function"
    },
    {
      "inputs": [
        {
          "internalType": "uint256",
          "name": "_paymentPeriod",
          "type": "uint256"
        },
        {
          "internalType": "uint256",
          "name": "_principal",
          "type": "uint256"
        }
      ],
      "name": "newLoan",
      "outputs": [],
      "stateMutability": "payable",
      "type": "function"
    },
    {
      "inputs": [],
      "name": "validate",
      "outputs": [],
      "stateMutability": "nonpayable",
      "type": "function"
    },
    {
      "inputs": [],
      "name": "makePayment",
      "outputs": [],
      "stateMutability": "payable",
      "type": "function"
    },
    {
      "inputs": [],
      "name": "returnCollateral",
      "outputs": [],
      "stateMutability": "nonpayable",
      "type": "function"
    },
    {
      "inputs": [],
      "name": "cleanSlate",
      "outputs": [],
      "stateMutability": "nonpayable",
      "type": "function"
    },
    {
      "inputs": [
        {
          "internalType": "uint32",
          "name": "_timeStakedTier",
          "type": "uint32"
        }
      ],
      "name": "depositEth",
      "outputs": [],
      "stateMutability": "payable",
      "type": "function"
    },
    {
      "inputs": [
        {
          "internalType": "uint256",
          "name": "_amount",
          "type": "uint256"
        }
      ],
      "name": "withdrawEth",
      "outputs": [],
      "stateMutability": "nonpayable",
      "type": "function"
    },
    {
      "inputs": [
        {
          "internalType": "uint256",
          "name": "_amount",
          "type": "uint256"
        }
      ],
      "name": "withdrawStaking",
      "outputs": [],
      "stateMutability": "payable",
      "type": "function"
    },
    {
      "inputs": [
        {
          "internalType": "uint256",
          "name": "_timeStakedTier",
          "type": "uint256"
        },
        {
          "internalType": "uint256",
          "name": "_amountStakedTier",
          "type": "uint256"
        },
        {
          "internalType": "uint256",
          "name": "_newInterest",
          "type": "uint256"
        }
      ],
      "name": "changeInterest",
      "outputs": [],
      "stateMutability": "nonpayable",
      "type": "function"
    },
    {
      "inputs": [
        {
          "internalType": "uint256",
          "name": "_new",
          "type": "uint256"
        },
        {
          "internalType": "uint256",
          "name": "_amountTier",
          "type": "uint256"
        },
        {
          "internalType": "uint256",
          "name": "_timeTier",
          "type": "uint256"
        }
      ],
      "name": "modifyTiers",
      "outputs": [],
      "stateMutability": "nonpayable",
      "type": "function"
    },
    {
      "inputs": [
        {
          "internalType": "bool",
          "name": "_status",
          "type": "bool"
        }
      ],
      "name": "stakingControl",
      "outputs": [],
      "stateMutability": "nonpayable",
      "type": "function"
    }
  ],
  "bytecode": "0x608060405260018060146101000a81548160ff0219169083151502179055506b1363156bbee3016d70000000600a5534801561003a57600080fd5b50604051613d40380380613d408339818101604052604081101561005d57600080fd5b810190808051906020019092919080519060200190929190505050336000806101000a81548173ffffffffffffffffffffffffffffffffffffffff021916908373ffffffffffffffffffffffffffffffffffffffff16021790555080600260006101000a81548173ffffffffffffffffffffffffffffffffffffffff021916908373ffffffffffffffffffffffffffffffffffffffff16021790555081600160006101000a81548173ffffffffffffffffffffffffffffffffffffffff021916908373ffffffffffffffffffffffffffffffffffffffff1602179055506064600760006005815260200190815260200160002060020181905550603c6007600060058152602001908152602001600020600101819055506207a12060076000600581526020019081526020016000206000018190555060016008600060018152602001908152602001600020600060018152602001908152602001600020600001819055506000600860006001815260200190815260200160002060006001815260200190815260200160002060010181905550600260086000600181526020019081526020016000206000600281526020019081526020016000206000018190555060006008600060018152602001908152602001600020600060028152602001908152602001600020600101819055506003600860006001815260200190815260200160002060006003815260200190815260200160002060000181905550600060086000600181526020019081526020016000206000600381526020019081526020016000206001018190555060046008600060018152602001908152602001600020600060048152602001908152602001600020600001819055506000600860006001815260200190815260200160002060006004815260200190815260200160002060010181905550600460086000600181526020019081526020016000206000600581526020019081526020016000206000018190555060006008600060018152602001908152602001600020600060058152602001908152602001600020600101819055506001600860006002815260200190815260200160002060006001815260200190815260200160002060000181905550600060086000600281526020019081526020016000206000600181526020019081526020016000206001018190555060026008600060028152602001908152602001600020600060028152602001908152602001600020600001819055506000600860006002815260200190815260200160002060006002815260200190815260200160002060010181905550600360086000600281526020019081526020016000206000600381526020019081526020016000206000018190555060006008600060028152602001908152602001600020600060038152602001908152602001600020600101819055506004600860006002815260200190815260200160002060006004815260200190815260200160002060000181905550600060086000600281526020019081526020016000206000600481526020019081526020016000206001018190555060046008600060028152602001908152602001600020600060058152602001908152602001600020600001819055506000600860006002815260200190815260200160002060006005815260200190815260200160002060010181905550600160086000600381526020019081526020016000206000600181526020019081526020016000206000018190555060006008600060038152602001908152602001600020600060018152602001908152602001600020600101819055506002600860006003815260200190815260200160002060006002815260200190815260200160002060000181905550600060086000600381526020019081526020016000206000600281526020019081526020016000206001018190555060036008600060038152602001908152602001600020600060038152602001908152602001600020600001819055506000600860006003815260200190815260200160002060006003815260200190815260200160002060010181905550600460086000600381526020019081526020016000206000600481526020019081526020016000206000018190555060006008600060038152602001908152602001600020600060048152602001908152602001600020600101819055506004600860006003815260200190815260200160002060006005815260200190815260200160002060000181905550600060086000600381526020019081526020016000206000600581526020019081526020016000206001018190555060036008600060048152602001908152602001600020600060018152602001908152602001600020600001819055506101f460086000600481526020019081526020016000206000600181526020019081526020016000206001018190555060056008600060048152602001908152602001600020600060028152602001908152602001600020600001819055506101f460086000600481526020019081526020016000206000600281526020019081526020016000206001018190555060056008600060048152602001908152602001600020600060038152602001908152602001600020600001819055506101f460086000600481526020019081526020016000206000600381526020019081526020016000206001018190555060056008600060048152602001908152602001600020600060048152602001908152602001600020600001819055506103e860086000600481526020019081526020016000206000600481526020019081526020016000206001018190555060056008600060048152602001908152602001600020600060058152602001908152602001600020600001819055506103e860086000600481526020019081526020016000206000600581526020019081526020016000206001018190555060046008600060058152602001908152602001600020600060018152602001908152602001600020600001819055506101f460086000600581526020019081526020016000206000600181526020019081526020016000206001018190555060056008600060058152602001908152602001600020600060028152602001908152602001600020600001819055506101f460086000600581526020019081526020016000206000600281526020019081526020016000206001018190555060056008600060058152602001908152602001600020600060038152602001908152602001600020600001819055506101f460086000600581526020019081526020016000206000600381526020019081526020016000206001018190555060066008600060058152602001908152602001600020600060048152602001908152602001600020600001819055506103e860086000600581526020019081526020016000206000600481526020019081526020016000206001018190555060076008600060058152602001908152602001600020600060058152602001908152602001600020600001819055506103e8600860006005815260200190815260200160002060006005815260200190815260200160002060010181905550505061326480610adc6000396000f3fe6080604052600436106101095760003560e01c8063a3f0bb6611610095578063d3f5475f11610064578063d3f5475f14610494578063d8d79700146104c8578063e3610ff7146104d2578063e59626ee14610521578063f2fde38b146105f057610109565b8063a3f0bb6614610380578063b2bdfa7b14610397578063b8825aba146103d8578063c311d0491461045957610109565b806361462631116100dc57806361462631146101c85780636901f668146102285780636b12cd0a1461023f5780638f32d59b1461028e5780639b1b6506146102bb57610109565b80632e0b78f61461010e57806344e644df1461013c57806344ed456f146101795780635dde3aa914610190575b600080fd5b61013a6004803603602081101561012457600080fd5b8101908080359060200190929190505050610641565b005b34801561014857600080fd5b506101776004803603602081101561015f57600080fd5b8101908080351515906020019092919050505061086c565b005b34801561018557600080fd5b5061018e610889565b005b6101c6600480360360408110156101a657600080fd5b810190808035906020019092919080359060200190929190505050610a41565b005b3480156101d457600080fd5b5061020b600480360360408110156101eb57600080fd5b8101908080359060200190929190803590602001909291905050506110a4565b604051808381526020018281526020019250505060405180910390f35b34801561023457600080fd5b5061023d6110d5565b005b34801561024b57600080fd5b5061028c6004803603606081101561026257600080fd5b810190808035906020019092919080359060200190929190803590602001909291905050506110d7565b005b34801561029a57600080fd5b506102a3611108565b60405180821515815260200191505060405180910390f35b3480156102c757600080fd5b5061030a600480360360208110156102de57600080fd5b81019080803573ffffffffffffffffffffffffffffffffffffffff16906020019092919050505061115f565b604051808c73ffffffffffffffffffffffffffffffffffffffff1681526020018b81526020018a8152602001898152602001888152602001871515815260200186151581526020018581526020018481526020018381526020018281526020019b50505050505050505050505060405180910390f35b34801561038c57600080fd5b506103956111f3565b005b3480156103a357600080fd5b506103ac6114cf565b604051808273ffffffffffffffffffffffffffffffffffffffff16815260200191505060405180910390f35b3480156103e457600080fd5b50610427600480360360208110156103fb57600080fd5b81019080803573ffffffffffffffffffffffffffffffffffffffff1690602001909291905050506114f3565b604051808681526020018581526020018481526020018381526020018281526020019550505050505060405180910390f35b34801561046557600080fd5b506104926004803603602081101561047c57600080fd5b8101908080359060200190929190505050611529565b005b6104c6600480360360208110156104aa57600080fd5b81019080803563ffffffff169060200190929190505050611a47565b005b6104d06124a4565b005b3480156104de57600080fd5b5061051f600480360360608110156104f557600080fd5b8101908080359060200190929190803590602001909291908035906020019092919050505061255a565b005b34801561052d57600080fd5b5061057a6004803603604081101561054457600080fd5b81019080803573ffffffffffffffffffffffffffffffffffffffff1690602001909291908035906020019092919050505061258b565b604051808c73ffffffffffffffffffffffffffffffffffffffff1681526020018b81526020018a8152602001898152602001888152602001871515815260200186151581526020018581526020018481526020018381526020018281526020019b50505050505050505050505060405180910390f35b3480156105fc57600080fd5b5061063f6004803603602081101561061357600080fd5b81019080803573ffffffffffffffffffffffffffffffffffffffff16906020019092919050505061263c565b005b600080600260009054906101000a900473ffffffffffffffffffffffffffffffffffffffff1673ffffffffffffffffffffffffffffffffffffffff166345266697600160009054906101000a900473ffffffffffffffffffffffffffffffffffffffff166040518263ffffffff1660e01b8152600401808273ffffffffffffffffffffffffffffffffffffffff168152602001915050604080518083038186803b1580156106ee57600080fd5b505afa158015610702573d6000803e3d6000fd5b505050506040513d604081101561071857600080fd5b81019080805190602001909291908051906020019092919050505091509150600061076f61074e670de0b6b3a764000085612777565b61076168056bc75e2d6310000085612777565b670de0b6b3a7640000612790565b9050603261077e8260056127a7565b116107d4576040517f08c379a000000000000000000000000000000000000000000000000000000000815260040180806020018281038252603b8152602001806131bc603b913960400191505060405180910390fd5b610820600960003373ffffffffffffffffffffffffffffffffffffffff1673ffffffffffffffffffffffffffffffffffffffff16815260200190815260200160002060000154856127de565b600960003373ffffffffffffffffffffffffffffffffffffffff1673ffffffffffffffffffffffffffffffffffffffff1681526020019081526020016000206000018190555050505050565b80600160146101000a81548160ff02191690831515021790555050565b6000600560003373ffffffffffffffffffffffffffffffffffffffff1673ffffffffffffffffffffffffffffffffffffffff16815260200190815260200160002060020154146108d857600080fd5b6000600560003373ffffffffffffffffffffffffffffffffffffffff1673ffffffffffffffffffffffffffffffffffffffff168152602001908152602001600020600401549050600160009054906101000a900473ffffffffffffffffffffffffffffffffffffffff1673ffffffffffffffffffffffffffffffffffffffff1663a9059cbb33836040518363ffffffff1660e01b8152600401808373ffffffffffffffffffffffffffffffffffffffff16815260200182815260200192505050602060405180830381600087803b1580156109b257600080fd5b505af11580156109c6573d6000803e3d6000fd5b505050506040513d60208110156109dc57600080fd5b81019080805190602001909291905050506109f657600080fd5b6000600560003373ffffffffffffffffffffffffffffffffffffffff1673ffffffffffffffffffffffffffffffffffffffff1681526020019081526020016000206004018190555050565b60001515600560003373ffffffffffffffffffffffffffffffffffffffff1673ffffffffffffffffffffffffffffffffffffffff16815260200190815260200160002060050160019054906101000a900460ff16151514610aa157600080fd5b6000601490506000600f90506000600290506000600590506007600082815260200190815260200160002060010154861115610b28576040517f08c379a00000000000000000000000000000000000000000000000000000000081526004018080602001828103825260388152602001806131f76038913960400191505060405180910390fd5b6000600260009054906101000a900473ffffffffffffffffffffffffffffffffffffffff1673ffffffffffffffffffffffffffffffffffffffff1663858b033d6040518163ffffffff1660e01b815260040160206040518083038186803b158015610b9257600080fd5b505afa158015610ba6573d6000803e3d6000fd5b505050506040513d6020811015610bbc57600080fd5b810190808051906020019092919050505090506000610be468056bc75e2d6310000083612777565b90506000610bf28883612777565b90506007600085815260200190815260200160002060000154811115610c1757600080fd5b600080600260009054906101000a900473ffffffffffffffffffffffffffffffffffffffff1673ffffffffffffffffffffffffffffffffffffffff16633a7a2a06600160009054906101000a900473ffffffffffffffffffffffffffffffffffffffff1673eeeeeeeeeeeeeeeeeeeeeeeeeeeeeeeeeeeeeeee6040518363ffffffff1660e01b8152600401808373ffffffffffffffffffffffffffffffffffffffff1681526020018273ffffffffffffffffffffffffffffffffffffffff16815260200192505050604080518083038186803b158015610cf657600080fd5b505afa158015610d0a573d6000803e3d6000fd5b505050506040513d6040811015610d2057600080fd5b810190808051906020019092919080519060200190929190505050915091506000610d5f610d598c610d528d8d6127a7565b6064612790565b84612777565b90506000610d788c610d738e8c6064612790565b6127f5565b90506000610d86828f612777565b905060011515600160009054906101000a900473ffffffffffffffffffffffffffffffffffffffff1673ffffffffffffffffffffffffffffffffffffffff166323b872dd3330876040518463ffffffff1660e01b8152600401808473ffffffffffffffffffffffffffffffffffffffff1681526020018373ffffffffffffffffffffffffffffffffffffffff1681526020018281526020019350505050602060405180830381600087803b158015610e3d57600080fd5b505af1158015610e51573d6000803e3d6000fd5b505050506040513d6020811015610e6757600080fd5b8101908080519060200190929190505050151514610eed576040517f08c379a00000000000000000000000000000000000000000000000000000000081526004018080602001828103825260198152602001807f5061796d656e7420776173206e6f7420617070726f7665642e0000000000000081525060200191505060405180910390fd5b6040518061016001604052803373ffffffffffffffffffffffffffffffffffffffff1681526020018e8152602001838152602001828152602001848152602001600015158152602001600115158152602001610f4c426228206f6127f5565b8152602001428152602001600760008c81526020019081526020016000206002015481526020016000815250600560003373ffffffffffffffffffffffffffffffffffffffff1673ffffffffffffffffffffffffffffffffffffffff16815260200190815260200160002060008201518160000160006101000a81548173ffffffffffffffffffffffffffffffffffffffff021916908373ffffffffffffffffffffffffffffffffffffffff1602179055506020820151816001015560408201518160020155606082015181600301556080820151816004015560a08201518160050160006101000a81548160ff02191690831515021790555060c08201518160050160016101000a81548160ff02191690831515021790555060e082015181600601556101008201518160070155610120820151816008015561014082015181600901559050505050505050505050505050505050565b6008602052816000526040600020602052806000526040600020600091509150508060000154908060010154905082565b565b8260086000838152602001908152602001600020600084815260200190815260200160002060010181905550505050565b60008060009054906101000a900473ffffffffffffffffffffffffffffffffffffffff1673ffffffffffffffffffffffffffffffffffffffff163373ffffffffffffffffffffffffffffffffffffffff1614905090565b60056020528060005260406000206000915090508060000160009054906101000a900473ffffffffffffffffffffffffffffffffffffffff16908060010154908060020154908060030154908060040154908060050160009054906101000a900460ff16908060050160019054906101000a900460ff1690806006015490806007015490806008015490806009015490508b565b6000600560003373ffffffffffffffffffffffffffffffffffffffff1673ffffffffffffffffffffffffffffffffffffffff168152602001908152602001600020600201541461124257600080fd5b600660003373ffffffffffffffffffffffffffffffffffffffff1673ffffffffffffffffffffffffffffffffffffffff168152602001908152602001600020600560003373ffffffffffffffffffffffffffffffffffffffff1673ffffffffffffffffffffffffffffffffffffffff16815260200190815260200160002090806001815401808255809150506001900390600052602060002090600a02016000909190919091506000820160009054906101000a900473ffffffffffffffffffffffffffffffffffffffff168160000160006101000a81548173ffffffffffffffffffffffffffffffffffffffff021916908373ffffffffffffffffffffffffffffffffffffffff160217905550600182015481600101556002820154816002015560038201548160030155600482015481600401556005820160009054906101000a900460ff168160050160006101000a81548160ff0219169083151502179055506005820160019054906101000a900460ff168160050160016101000a81548160ff021916908315150217905550600682015481600601556007820154816007015560088201548160080155600982015481600901555050600560003373ffffffffffffffffffffffffffffffffffffffff1673ffffffffffffffffffffffffffffffffffffffff168152602001908152602001600020600080820160006101000a81549073ffffffffffffffffffffffffffffffffffffffff021916905560018201600090556002820160009055600382016000905560048201600090556005820160006101000a81549060ff02191690556005820160016101000a81549060ff021916905560068201600090556007820160009055600882016000905560098201600090555050565b60008054906101000a900473ffffffffffffffffffffffffffffffffffffffff1681565b60096020528060005260406000206000915090508060000154908060010154908060020154908060030154908060040154905085565b600080600960003373ffffffffffffffffffffffffffffffffffffffff1673ffffffffffffffffffffffffffffffffffffffff168152602001908152602001600020600401549050600080600960003373ffffffffffffffffffffffffffffffffffffffff1673ffffffffffffffffffffffffffffffffffffffff168152602001908152602001600020600101549050600183141561161857611611600960003373ffffffffffffffffffffffffffffffffffffffff1673ffffffffffffffffffffffffffffffffffffffff168152602001908152602001600020600301546228206f6127f5565b935061178b565b600283141561167757611670600960003373ffffffffffffffffffffffffffffffffffffffff1673ffffffffffffffffffffffffffffffffffffffff16815260200190815260200160002060030154625040de6127f5565b935061178a565b60038314156116d6576116cf600960003373ffffffffffffffffffffffffffffffffffffffff1673ffffffffffffffffffffffffffffffffffffffff168152602001908152602001600020600301546278614d6127f5565b9350611789565b60048314156117355761172e600960003373ffffffffffffffffffffffffffffffffffffffff1673ffffffffffffffffffffffffffffffffffffffff1681526020019081526020016000206003015462f0c29a6127f5565b9350611788565b611785600960003373ffffffffffffffffffffffffffffffffffffffff1673ffffffffffffffffffffffffffffffffffffffff168152602001908152602001600020600301546301e185346127f5565b93505b5b5b5b67058d15e17628000081116117a357600591506117f4565b671bc16d674ec8000081116117bb57600491506117f3565b674563918244f4000081116117d357600391506117f2565b68015af1d78b58c4000081116117ec57600291506117f1565b600191505b5b5b5b6000611843600960003373ffffffffffffffffffffffffffffffffffffffff1673ffffffffffffffffffffffffffffffffffffffff168152602001908152602001600020600101548585612811565b9050611891600960003373ffffffffffffffffffffffffffffffffffffffff1673ffffffffffffffffffffffffffffffffffffffff16815260200190815260200160002060000154826127f5565b600960003373ffffffffffffffffffffffffffffffffffffffff1673ffffffffffffffffffffffffffffffffffffffff168152602001908152602001600020600001819055506000600960003373ffffffffffffffffffffffffffffffffffffffff1673ffffffffffffffffffffffffffffffffffffffff1681526020019081526020016000206002018190555061196b600960003373ffffffffffffffffffffffffffffffffffffffff1673ffffffffffffffffffffffffffffffffffffffff16815260200190815260200160002060010154876127de565b600960003373ffffffffffffffffffffffffffffffffffffffff1673ffffffffffffffffffffffffffffffffffffffff1681526020019081526020016000206001018190555042600960003373ffffffffffffffffffffffffffffffffffffffff1673ffffffffffffffffffffffffffffffffffffffff168152602001908152602001600020600301819055503373ffffffffffffffffffffffffffffffffffffffff166108fc879081150290604051600060405180830381858888f19350505050158015611a3e573d6000803e3d6000fd5b50505050505050565b60011515600160149054906101000a900460ff16151514611ad0576040517f08c379a000000000000000000000000000000000000000000000000000000000815260040180806020018281038252601c8152602001807f5374616b696e672069732063757272656e746c79206f66666c696e650000000081525060200191505060405180910390fd5b6000806000905060008060018563ffffffff1610158015611af8575060058563ffffffff1611155b611b4d576040517f08c379a000000000000000000000000000000000000000000000000000000000815260040180806020018281038252602d815260200180613163602d913960400191505060405180910390fd5b670214e8348c4f00003411611bad576040517f08c379a000000000000000000000000000000000000000000000000000000000815260040180806020018281038252602c815260200180613190602c913960400191505060405180910390fd5b67058d15e1762800003411611bc55760019350611c70565b671bc16d674ec800003411611bdd5760029350611c6f565b674563918244f400003411611bf55760039350611c6e565b68015af1d78b58c400003411611c3b576004935060048563ffffffff161415611c215760199250611c36565b60058563ffffffff161415611c3557603292505b5b611c6d565b6005935060048563ffffffff161415611c575760199250611c6c565b60058563ffffffff161415611c6b57603292505b5b5b5b5b5b600360009054906101000a900473ffffffffffffffffffffffffffffffffffffffff1673ffffffffffffffffffffffffffffffffffffffff163373ffffffffffffffffffffffffffffffffffffffff161415611ccb57611d6f565b6000600860008763ffffffff16815260200190815260200160002060008681526020019081526020016000206001015411611d6e576040517f08c379a000000000000000000000000000000000000000000000000000000000815260040180806020018281038252601e8152602001807f54696572206465706c657465642c20636f6d65206261636b206c61746572000081525060200191505060405180910390fd5b5b6000600960003373ffffffffffffffffffffffffffffffffffffffff1673ffffffffffffffffffffffffffffffffffffffff168152602001908152602001600020600401549050600081111561204d576001811415611e1e57611e17600960003373ffffffffffffffffffffffffffffffffffffffff1673ffffffffffffffffffffffffffffffffffffffff168152602001908152602001600020600301546228206f6127f5565b9250611f91565b6002811415611e7d57611e76600960003373ffffffffffffffffffffffffffffffffffffffff1673ffffffffffffffffffffffffffffffffffffffff16815260200190815260200160002060030154625040de6127f5565b9250611f90565b6003811415611edc57611ed5600960003373ffffffffffffffffffffffffffffffffffffffff1673ffffffffffffffffffffffffffffffffffffffff168152602001908152602001600020600301546278614d6127f5565b9250611f8f565b6004811415611f3b57611f34600960003373ffffffffffffffffffffffffffffffffffffffff1673ffffffffffffffffffffffffffffffffffffffff1681526020019081526020016000206003015462f0c29a6127f5565b9250611f8e565b611f8b600960003373ffffffffffffffffffffffffffffffffffffffff1673ffffffffffffffffffffffffffffffffffffffff168152602001908152602001600020600301546301e185346127f5565b92505b5b5b5b60014211611fea576040517f08c379a000000000000000000000000000000000000000000000000000000000815260040180806020018281038252602681526020018061313d6026913960400191505060405180910390fd5b61204661203934600960003373ffffffffffffffffffffffffffffffffffffffff1673ffffffffffffffffffffffffffffffffffffffff168152602001908152602001600020600101546127f5565b8763ffffffff1687612abe565b9150612061565b61205e348763ffffffff1687612abe565b91505b600a548211156120d9576040517f08c379a000000000000000000000000000000000000000000000000000000000815260040180806020018281038252601e8152602001807f54726561737572792069732063757272656e746c79206465706c65746564000081525060200191505060405180910390fd5b600084111561219f5760006120f083866064612790565b9050612153600960003373ffffffffffffffffffffffffffffffffffffffff1673ffffffffffffffffffffffffffffffffffffffff1681526020019081526020016000206002015461214e8561214760648a6127de565b6064612790565b6127f5565b600960003373ffffffffffffffffffffffffffffffffffffffff1673ffffffffffffffffffffffffffffffffffffffff1681526020019081526020016000206002018190555050612232565b6121eb600960003373ffffffffffffffffffffffffffffffffffffffff1673ffffffffffffffffffffffffffffffffffffffff16815260200190815260200160002060020154836127f5565b600960003373ffffffffffffffffffffffffffffffffffffffff1673ffffffffffffffffffffffffffffffffffffffff168152602001908152602001600020600201819055505b8563ffffffff16600960003373ffffffffffffffffffffffffffffffffffffffff1673ffffffffffffffffffffffffffffffffffffffff1681526020019081526020016000206004018190555061228b600a54836127de565b600a819055506000600260009054906101000a900473ffffffffffffffffffffffffffffffffffffffff1673ffffffffffffffffffffffffffffffffffffffff1663858b033d6040518163ffffffff1660e01b815260040160206040518083038186803b1580156122fb57600080fd5b505afa15801561230f573d6000803e3d6000fd5b505050506040513d602081101561232557600080fd5b81019080805190602001909291905050509050600061234d68056bc75e2d6310000083612777565b90506123a4600960003373ffffffffffffffffffffffffffffffffffffffff1673ffffffffffffffffffffffffffffffffffffffff1681526020019081526020016000206001015461239f34846127de565b6127f5565b600960003373ffffffffffffffffffffffffffffffffffffffff1673ffffffffffffffffffffffffffffffffffffffff16815260200190815260200160002060010181905550612422600860008a63ffffffff16815260200190815260200160002060008981526020019081526020016000206001015460016127de565b600860008a63ffffffff16815260200190815260200160002060008981526020019081526020016000206001018190555042600960003373ffffffffffffffffffffffffffffffffffffffff1673ffffffffffffffffffffffffffffffffffffffff168152602001908152602001600020600301819055505050505050505050565b600560003373ffffffffffffffffffffffffffffffffffffffff1673ffffffffffffffffffffffffffffffffffffffff168152602001908152602001600020600301543410156124f357600080fd5b600560003373ffffffffffffffffffffffffffffffffffffffff1673ffffffffffffffffffffffffffffffffffffffff16815260200190815260200160002060070154421161254c57612547346000612fef565b612558565b612557346001612fef565b5b565b8060086000858152602001908152602001600020600084815260200190815260200160002060000181905550505050565b600660205281600052604060002081815481106125a757600080fd5b90600052602060002090600a0201600091509150508060000160009054906101000a900473ffffffffffffffffffffffffffffffffffffffff16908060010154908060020154908060030154908060040154908060050160009054906101000a900460ff16908060050160019054906101000a900460ff1690806006015490806007015490806008015490806009015490508b565b612644611108565b6126b6576040517f08c379a00000000000000000000000000000000000000000000000000000000081526004018080602001828103825260168152602001807f596f7520617265206e6f7420746865206f776e65722e0000000000000000000081525060200191505060405180910390fd5b600073ffffffffffffffffffffffffffffffffffffffff168173ffffffffffffffffffffffffffffffffffffffff1614156126f057600080fd5b8073ffffffffffffffffffffffffffffffffffffffff167f8be0079c531659141344cd1fd0a4f28419497f9722a3daafe3b4186f6b6457e060008054906101000a900473ffffffffffffffffffffffffffffffffffffffff16604051808273ffffffffffffffffffffffffffffffffffffffff16815260200191505060405180910390a250565b60008082848161278357fe5b0490508091505092915050565b6000818385028161279d57fe5b0490509392505050565b6000808314156127ba57600090506127d8565b60008284029050828482816127cb57fe5b04146127d357fe5b809150505b92915050565b6000828211156127ea57fe5b818303905092915050565b60008082840190508381101561280757fe5b8091505092915050565b600080606490506000600960003373ffffffffffffffffffffffffffffffffffffffff1673ffffffffffffffffffffffffffffffffffffffff168152602001908152602001600020600201549050600080600260009054906101000a900473ffffffffffffffffffffffffffffffffffffffff1673ffffffffffffffffffffffffffffffffffffffff16633a7a2a06600160009054906101000a900473ffffffffffffffffffffffffffffffffffffffff1673eeeeeeeeeeeeeeeeeeeeeeeeeeeeeeeeeeeeeeee6040518363ffffffff1660e01b8152600401808373ffffffffffffffffffffffffffffffffffffffff1681526020018273ffffffffffffffffffffffffffffffffffffffff16815260200192505050604080518083038186803b15801561293e57600080fd5b505afa158015612952573d6000803e3d6000fd5b505050506040513d604081101561296857600080fd5b810190808051906020019092919080519060200190929190505050915091506004871480156129a2575060048614806129a15750600586145b5b156129b057604b93506129d6565b6005871480156129cb575060048614806129ca5750600586145b5b156129d557603293505b5b6000831115612aae576000612a6a612a64612a35600960003373ffffffffffffffffffffffffffffffffffffffff1673ffffffffffffffffffffffffffffffffffffffff16815260200190815260200160002060010154886064612790565b600860008c815260200190815260200160002060008b8152602001908152602001600020600001546064612790565b84612777565b9050838110612a80578395505050505050612ab7565b6000612a8c85836127de565b9050612a9a600a54826127f5565b600a81905550819650505050505050612ab7565b60009450505050505b9392505050565b6000806000600260009054906101000a900473ffffffffffffffffffffffffffffffffffffffff1673ffffffffffffffffffffffffffffffffffffffff16633a7a2a06600160009054906101000a900473ffffffffffffffffffffffffffffffffffffffff1673eeeeeeeeeeeeeeeeeeeeeeeeeeeeeeeeeeeeeeee6040518363ffffffff1660e01b8152600401808373ffffffffffffffffffffffffffffffffffffffff1681526020018273ffffffffffffffffffffffffffffffffffffffff16815260200192505050604080518083038186803b158015612b9f57600080fd5b505afa158015612bb3573d6000803e3d6000fd5b505050506040513d6040811015612bc957600080fd5b810190808051906020019092919080519060200190929190505050915091506000600960003373ffffffffffffffffffffffffffffffffffffffff1673ffffffffffffffffffffffffffffffffffffffff1681526020019081526020016000206002015490506000811115612fa7576000600960003373ffffffffffffffffffffffffffffffffffffffff1673ffffffffffffffffffffffffffffffffffffffff1681526020019081526020016000206001015490506000806000600960003373ffffffffffffffffffffffffffffffffffffffff1673ffffffffffffffffffffffffffffffffffffffff16815260200190815260200160002060040154905067058d15e1762800008411612ce15760019250612d74565b671bc16d674ec800008411612cf95760029250612d73565b674563918244f400008411612d115760039250612d72565b68015af1d78b58c400008411612d4b57600492506004811415612d3757604b9150612d46565b6005811415612d4557603291505b5b612d71565b600592506004811415612d6157604b9150612d70565b6005811415612d6f57603291505b5b5b5b5b5b6000612dbd612db7612d8887866064612790565b600860008f815260200190815260200160002060008e8152602001908152602001600020600001546064612790565b89612777565b9050858110612ea557612e12600960003373ffffffffffffffffffffffffffffffffffffffff1673ffffffffffffffffffffffffffffffffffffffff16815260200190815260200160002060000154876127f5565b600960003373ffffffffffffffffffffffffffffffffffffffff1673ffffffffffffffffffffffffffffffffffffffff168152602001908152602001600020600001819055506000600960003373ffffffffffffffffffffffffffffffffffffffff1673ffffffffffffffffffffffffffffffffffffffff16815260200190815260200160002060020181905550612fa1565b6000612eb187836127de565b9050612ebf600a54826127f5565b600a81905550612f11600960003373ffffffffffffffffffffffffffffffffffffffff1673ffffffffffffffffffffffffffffffffffffffff16815260200190815260200160002060000154836127f5565b600960003373ffffffffffffffffffffffffffffffffffffffff1673ffffffffffffffffffffffffffffffffffffffff168152602001908152602001600020600001819055506000600960003373ffffffffffffffffffffffffffffffffffffffff1673ffffffffffffffffffffffffffffffffffffffff16815260200190815260200160002060020181905550505b50505050505b612fe3612fdd88600860008a81526020019081526020016000206000898152602001908152602001600020600001546064612790565b84612777565b93505050509392505050565b61303b600560003373ffffffffffffffffffffffffffffffffffffffff1673ffffffffffffffffffffffffffffffffffffffff16815260200190815260200160002060020154836127de565b600560003373ffffffffffffffffffffffffffffffffffffffff1673ffffffffffffffffffffffffffffffffffffffff1681526020019081526020016000206002018190555061308e426228206f6127f5565b600560003373ffffffffffffffffffffffffffffffffffffffff1673ffffffffffffffffffffffffffffffffffffffff16815260200190815260200160002060070181905550801561313857600061313461312b42600560003373ffffffffffffffffffffffffffffffffffffffff1673ffffffffffffffffffffffffffffffffffffffff168152602001908152602001600020600701546127de565b62015180612777565b9050505b505056fe43757272656e74207374616b696e6720706572696f64206973206e6f74206f7665722079657454696572206e756d626572206d7573742062652061206e756d626572206265747765656e203120616e6420352e4572726f722c206465706f736974206d75737420626520686967686572207468616e20302e30313520455448416d6f756e7420696e2043424c54206d75737420626520686967686572207468616e20353020746f74616c20776f72746820696e2076616c75652e5061796d656e7420706572696f6420657863656564732074686174206f662074686520746965722c20706c6561732074727920616761696ea2646970667358221220f4232880365098754f69b2c8d5c33ac37ee1c140b4b8b2c3e1ba6e0ae06d03d564736f6c63430007060033",
  "immutableReferences": {},
  "source": "pragma solidity >=0.4.22 <0.9.0;\n\nimport \"./interfaces/Ownable.sol\";\nimport \"./interfaces/IERC20.sol\";\nimport \"./interfaces/SafeMath.sol\";\nimport \"./interfaces/UniversalERC20.sol\";\nimport \"./ExchangeOracle.sol\";\n\n// 0x433C6E3D2def6E1fb414cf9448724EFB0399b698\n\ncontract Bank is Ownable {\n    using UniversalERC20 for IERC20;\n\n    /**\n     * @dev storing CBLT token in ERC20 type\n     */\n    IERC20 token;\n\n    bool internal stakingStatus = true;\n\n    /**\n     * @dev Creating oracle instance\n     */\n    ExchangeOracle oracle;\n\n    address currentWinner;\n\n    /**\n     * @dev CobaltLend oracle for scoring and CBLT price\n     */\n    address oracleAddress;\n\n    constructor(address _CBLT, address _oracle) {\n        oracle = ExchangeOracle(_oracle);\n        token = IERC20(_CBLT);\n\n        loanTiers[5].maxVoters = 100;\n        loanTiers[5].maximumPaymentPeriod = 60;\n        loanTiers[5].principalLimit = 500000;\n\n        // Staking percentages based on deposit time and amount\n        stakingRewardRate[1][1].interest = 1;\n        stakingRewardRate[1][1].amountStakersLeft = 0;\n        stakingRewardRate[1][2].interest = 2;\n        stakingRewardRate[1][2].amountStakersLeft = 0;\n        stakingRewardRate[1][3].interest = 3;\n        stakingRewardRate[1][3].amountStakersLeft = 0;\n        stakingRewardRate[1][4].interest = 4;\n        stakingRewardRate[1][4].amountStakersLeft = 0;\n        stakingRewardRate[1][5].interest = 4;\n        stakingRewardRate[1][5].amountStakersLeft = 0;\n        //\n        stakingRewardRate[2][1].interest = 1;\n        stakingRewardRate[2][1].amountStakersLeft = 0;\n        stakingRewardRate[2][2].interest = 2;\n        stakingRewardRate[2][2].amountStakersLeft = 0;\n        stakingRewardRate[2][3].interest = 3;\n        stakingRewardRate[2][3].amountStakersLeft = 0;\n        stakingRewardRate[2][4].interest = 4;\n        stakingRewardRate[2][4].amountStakersLeft = 0;\n        stakingRewardRate[2][5].interest = 4;\n        stakingRewardRate[2][5].amountStakersLeft = 0;\n        //\n        stakingRewardRate[3][1].interest = 1;\n        stakingRewardRate[3][1].amountStakersLeft = 0;\n        stakingRewardRate[3][2].interest = 2;\n        stakingRewardRate[3][2].amountStakersLeft = 0;\n        stakingRewardRate[3][3].interest = 3;\n        stakingRewardRate[3][3].amountStakersLeft = 0;\n        stakingRewardRate[3][4].interest = 4;\n        stakingRewardRate[3][4].amountStakersLeft = 0;\n        stakingRewardRate[3][5].interest = 4;\n        stakingRewardRate[3][5].amountStakersLeft = 0;\n        //\n        stakingRewardRate[4][1].interest = 3;\n        stakingRewardRate[4][1].amountStakersLeft = 500;\n        stakingRewardRate[4][2].interest = 5;\n        stakingRewardRate[4][2].amountStakersLeft = 500;\n        stakingRewardRate[4][3].interest = 5;\n        stakingRewardRate[4][3].amountStakersLeft = 500;\n        stakingRewardRate[4][4].interest = 5;\n        stakingRewardRate[4][4].amountStakersLeft = 1000;\n        stakingRewardRate[4][5].interest = 5;\n        stakingRewardRate[4][5].amountStakersLeft = 1000;\n        //\n        stakingRewardRate[5][1].interest = 4;\n        stakingRewardRate[5][1].amountStakersLeft = 500;\n        stakingRewardRate[5][2].interest = 5;\n        stakingRewardRate[5][2].amountStakersLeft = 500;\n        stakingRewardRate[5][3].interest = 5;\n        stakingRewardRate[5][3].amountStakersLeft = 500;\n        stakingRewardRate[5][4].interest = 6;\n        stakingRewardRate[5][4].amountStakersLeft = 1000;\n        stakingRewardRate[5][5].interest = 7;\n        stakingRewardRate[5][5].amountStakersLeft = 1000;\n    }\n\n    /**\n     * @dev Events emitted\n     */\n    event onReceived(address indexed _from, uint256 _amount);\n    event onTransfer(\n        address indexed _from,\n        address indexed _to,\n        uint256 _amount\n    );\n    event depositToken(address indexed _from, uint256 _amount);\n\n    // ****************************** Lending **********************************\n\n    /**\n     * @dev mapping used to store all loan information with the key of borrower address\n     *  and value of Loan struct with all loan information\n     */\n    mapping(address => Loan) public loanBook;\n\n    /**\n     * @dev Informstion from previously fullfilled loans are stored into the blockchain\n     * before being permanently deleted\n     */\n    mapping(address => Loan[]) public loanRecords;\n\n    /**\n     * @dev struct to access information on tier structure\n     */\n    struct loanTier {\n        uint256 principalLimit;\n        uint256 maximumPaymentPeriod;\n        uint256 maxVoters;\n    }\n\n    mapping(uint256 => loanTier) loanTiers;\n\n    /**\n     * @dev Struct to store loan information\n     */\n    struct Loan {\n        address borrower; // Address of wallet\n        uint256 amountBorrowed; // Initial loan balance\n        uint256 remainingBalance; // Remaining balance\n        uint256 minimumPayment; // MinimumPayment // Can be calculated off total amount\n        uint256 collateral; // Amount owed back to borrower after loan is paid in full\n        bool active; // Is the current loan active (Voted yes)\n        bool initialized; // Does the borrower have a current loan application\n        uint256 timeCreated; // Time of loan application also epoch in days\n        uint256 dueDate; // Time of contract ending\n        uint256 totalVote; // Total amount determined by tier\n        uint256 yes; // Amount of votes for yes\n    }\n\n    /**\n     * @dev Recalculates interest and also conducts check and balances\n     */\n\n    function newLoan(uint256 _paymentPeriod, uint256 _principal)\n        public\n        payable\n    {\n        require(loanBook[msg.sender].initialized == false);\n\n        uint256 riskScore = 20; // NFT ENTRY!!!!\n        uint256 riskFactor = 15; // NFT ENTRY!!!!\n        uint256 interestRate = 2; // NFT ENTRY!!!!\n        uint256 userMaxTier = 5; // NFT ENTRY!!!!\n        // uint256 flatfee = 400; // NFT ENTRY!!!!\n\n        require(\n            _paymentPeriod <= loanTiers[userMaxTier].maximumPaymentPeriod,\n            \"Payment period exceeds that of the tier, pleas try again\"\n        );\n\n        uint256 ETHpriceUSD = oracle.priceOfETH();\n\n        // One dollar in ETH\n        uint256 oneUSDinETH = SafeMath.div(100000000000000000000, ETHpriceUSD);\n\n        // Calculate how much is being borrowed in USD - must be within limits of the tier\n        uint256 amountBorrowed = SafeMath.div(_principal, oneUSDinETH);\n        require(amountBorrowed <= loanTiers[userMaxTier].principalLimit);\n\n        // Pay loan application lee to cover for fees\n        // require(msg.value >= SafeMath.mul(oneUSDinETH,flatfee)); // Needs change based on current prices\n\n        (uint256 CBLTprice, uint256 ETHprice) =\n            oracle.priceOfPair(\n                address(token),\n                0xEeeeeEeeeEeEeeEeEeEeeEEEeeeeEeeeeeeeEEeE\n            );\n\n        // Calculate collateral in CBLT based on principal, riskScore and riskFactor\n        uint256 collateralInCBLT =\n            SafeMath.div(\n                SafeMath.multiply(\n                    _principal,\n                    SafeMath.mul(riskScore, riskFactor),\n                    100\n                ),\n                CBLTprice\n            );\n\n        // Calculate new principal with the added interest\n        uint256 finalPrincipal =\n            SafeMath.add(\n                _principal,\n                SafeMath.multiply(_principal, interestRate, 100)\n            );\n\n        uint256 monthlyPayment = SafeMath.div(finalPrincipal, _paymentPeriod);\n\n        require(\n            token.transferFrom(msg.sender, address(this), collateralInCBLT) ==\n                true,\n            \"Payment was not approved.\"\n        );\n\n        loanBook[msg.sender] = Loan(\n            msg.sender,\n            _principal,\n            finalPrincipal,\n            monthlyPayment,\n            collateralInCBLT,\n            false,\n            true,\n            SafeMath.add(block.timestamp, 2629743),\n            block.timestamp,\n            loanTiers[userMaxTier].maxVoters,\n            0\n        );\n    }\n\n    /**\n     * @dev\n     */\n\n    function processPeriod(uint256 _payment, bool _missedPayment) internal {\n        loanBook[msg.sender].remainingBalance = SafeMath.sub(\n            loanBook[msg.sender].remainingBalance,\n            _payment\n        );\n\n        loanBook[msg.sender].dueDate = SafeMath.add(block.timestamp, 2629743);\n\n        if (_missedPayment) {\n            // Needs to interact with the NFT\n            // Collateral is substracted\n            // Strike system // Connected to NFT\n            uint256 daysMissed =\n                SafeMath.div(\n                    SafeMath.sub(block.timestamp, loanBook[msg.sender].dueDate),\n                    86400\n                );\n            if (daysMissed > 7) {\n                // Suspend loan\n            }\n        }\n    }\n\n    /**\n     * @dev\n     */\n    function validate() public {} // Only devs\n\n    /**\n     * @dev Function for the user to make a payment with ETH\n     *\n     */\n    function makePayment() public payable {\n        require(msg.value >= loanBook[msg.sender].minimumPayment);\n\n        if (block.timestamp <= loanBook[msg.sender].dueDate) {\n            processPeriod(msg.value, false);\n        } else {\n            processPeriod(msg.value, true);\n        }\n    }\n\n    /**\n     * @dev\n     */\n    function returnCollateral() public {\n        require(loanBook[msg.sender].remainingBalance == 0);\n\n        uint256 amount = loanBook[msg.sender].collateral;\n        require(token.transfer(msg.sender, amount));\n\n        loanBook[msg.sender].collateral = 0;\n    }\n\n    /**\n     * @dev Deletes loan instance once the user has paid his active loan in full\n     */\n    function cleanSlate() public {\n        require(loanBook[msg.sender].remainingBalance == 0);\n        loanRecords[msg.sender].push(loanBook[msg.sender]);\n        delete loanBook[msg.sender];\n    }\n\n    // **************************** Staking *******************************\n\n    struct crossTier {\n        uint256 interest;\n        uint256 amountStakersLeft;\n    }\n\n    mapping(uint256 => mapping(uint256 => crossTier)) public stakingRewardRate;\n\n    mapping(address => User) public userBook;\n\n    uint256 CBLTReserve = 6000000000000000000000000000;\n\n    uint256 borrowingPool;\n\n    struct User {\n        uint256 rewardWallet;\n        uint256 ethBalance;\n        uint256 cbltReserved;\n        uint256 depositTime;\n        uint256 timeStakedTier;\n    }\n\n    function calculateRewardDeposit(\n        uint256 _amount,\n        uint256 _timeStakedTier,\n        uint256 _amountStakedTier\n    ) internal returns (uint256) {\n        (uint256 CBLTprice, uint256 ETHprice) =\n            oracle.priceOfPair(\n                address(token),\n                0xEeeeeEeeeEeEeeEeEeEeeEEEeeeeEeeeeeeeEEeE\n            );\n\n        uint256 userReserved = userBook[msg.sender].cbltReserved;\n\n        // Check if user has CBLT tokens reserved\n        if (userReserved > 0) {\n            uint256 amountStakedPreviously = userBook[msg.sender].ethBalance;\n            uint256 previousAmountTier;\n            uint256 percentBasedAmount;\n            uint256 tierStakedPreviously = userBook[msg.sender].timeStakedTier;\n\n            // Determine the amount staked tier based on ETH balance\n            if (amountStakedPreviously <= 4e17) {\n                previousAmountTier = 1;\n            } else if (amountStakedPreviously <= 2e18) {\n                previousAmountTier = 2;\n            } else if (amountStakedPreviously <= 5e18) {\n                previousAmountTier = 3;\n            } else if (amountStakedPreviously <= 25e18) {\n                previousAmountTier = 4;\n                if (tierStakedPreviously == 4) {\n                    percentBasedAmount = 75;\n                } else if (tierStakedPreviously == 5) {\n                    percentBasedAmount = 50;\n                }\n            } else {\n                previousAmountTier = 5;\n                if (tierStakedPreviously == 4) {\n                    percentBasedAmount = 75;\n                } else if (tierStakedPreviously == 5) {\n                    percentBasedAmount = 50;\n                }\n            }\n\n            // Calculate the new amount of cblt reserved for user at current market price\n            uint256 newReserved =\n                SafeMath.div(\n                    SafeMath.multiply(\n                        SafeMath.multiply(\n                            amountStakedPreviously,\n                            percentBasedAmount,\n                            100\n                        ),\n                        stakingRewardRate[_timeStakedTier][_amountStakedTier]\n                            .interest,\n                        100\n                    ),\n                    CBLTprice\n                );\n\n            if (newReserved >= userReserved) {\n                // If CBLT price decrease, send all tokens reserved\n                userBook[msg.sender].rewardWallet = SafeMath.add(\n                    userBook[msg.sender].rewardWallet,\n                    userReserved\n                );\n                userBook[msg.sender].cbltReserved = 0;\n            } else {\n                // If CBLT price increased, calculate the difference between new and old amount final\n                uint256 cbltDifference =\n                    SafeMath.sub(userReserved, newReserved);\n\n                // Add lefover CBLT tokens back into treasury\n                CBLTReserve = SafeMath.add(CBLTReserve, cbltDifference);\n\n                // Save CBLT tokens in contract wallet\n                userBook[msg.sender].rewardWallet = SafeMath.add(\n                    userBook[msg.sender].rewardWallet,\n                    newReserved\n                );\n\n                userBook[msg.sender].cbltReserved = 0;\n            }\n        }\n        // Calculate and return new CBLT reserved\n        return\n            SafeMath.div(\n                SafeMath.multiply(\n                    _amount,\n                    stakingRewardRate[_timeStakedTier][_amountStakedTier]\n                        .interest,\n                    100\n                ),\n                CBLTprice\n            );\n    }\n\n    function calculateRewardWithdraw(\n        uint256 _amount,\n        uint256 _timeStakedTier,\n        uint256 _amountStakedTier\n    ) internal returns (uint256) {\n        uint256 percentBasedAmount = 100;\n        uint256 userReserved = userBook[msg.sender].cbltReserved;\n\n        (uint256 CBLTprice, uint256 ETHprice) =\n            oracle.priceOfPair(\n                address(token),\n                0xEeeeeEeeeEeEeeEeEeEeeEEEeeeeEeeeeeeeEEeE\n            );\n\n        // Determining if user was sent CBLT tokens on initial staking\n        if (\n            _timeStakedTier == 4 &&\n            (_amountStakedTier == 4 || _amountStakedTier == 5)\n        ) {\n            percentBasedAmount = 75;\n        } else if (\n            _timeStakedTier == 5 &&\n            (_amountStakedTier == 4 || _amountStakedTier == 5)\n        ) {\n            percentBasedAmount = 50;\n        }\n\n        // If user has CBLT tokens reserved on withdraw, calculate how much is owed to him\n        if (userReserved > 0) {\n            // Calculate the new amount of cblt reserved for user at current market price\n            uint256 newReserved =\n                SafeMath.div(\n                    SafeMath.multiply(\n                        SafeMath.multiply(\n                            userBook[msg.sender].ethBalance,\n                            percentBasedAmount,\n                            100\n                        ),\n                        stakingRewardRate[_timeStakedTier][_amountStakedTier]\n                            .interest,\n                        100\n                    ),\n                    CBLTprice\n                );\n\n            if (newReserved >= userReserved) {\n                // If CBLT price decrease, send all tokens reserved\n                return userReserved;\n            } else {\n                // If CBLT price increased, calculate the difference between new and old amount final\n                uint256 cbltDifference =\n                    SafeMath.sub(userReserved, newReserved);\n\n                // Add lefover cblt tokens back into treasury\n                CBLTReserve = SafeMath.add(CBLTReserve, cbltDifference);\n\n                // Return new amount of CBLT owed\n                return newReserved;\n            }\n        }\n        return 0;\n    }\n\n    function depositEth(uint32 _timeStakedTier) public payable {\n        require(stakingStatus == true, \"Staking is currently offline\");\n\n        uint256 amountStakedTier;\n        uint256 paidAdvanced = 0;\n        uint256 dueDate;\n        uint256 cbltReserved;\n\n        // The tier input must be between 1 and 5\n        require(\n            _timeStakedTier >= 1 && _timeStakedTier <= 5,\n            \"Tier number must be a number between 1 and 5.\"\n        );\n\n        // Minimum deposit of 0.015 ETH\n        require(\n            msg.value > 15e16,\n            \"Error, deposit must be higher than 0.015 ETH\"\n        );\n\n        // Check the amountStakedTier based on deposit\n        if (msg.value <= 4e17) {\n            amountStakedTier = 1;\n        } else if (msg.value <= 2e18) {\n            amountStakedTier = 2;\n        } else if (msg.value <= 5e18) {\n            amountStakedTier = 3;\n        } else if (msg.value <= 25e18) {\n            amountStakedTier = 4;\n            if (_timeStakedTier == 4) {\n                paidAdvanced = 25;\n            } else if (_timeStakedTier == 5) {\n                paidAdvanced = 50;\n            }\n        } else {\n            amountStakedTier = 5;\n            if (_timeStakedTier == 4) {\n                paidAdvanced = 25;\n            } else if (_timeStakedTier == 5) {\n                paidAdvanced = 50;\n            }\n        }\n\n        if (msg.sender == currentWinner) {} else {\n            // Check if tier has not been depleted\n            require(\n                stakingRewardRate[_timeStakedTier][amountStakedTier]\n                    .amountStakersLeft > 0,\n                \"Tier depleted, come back later\"\n            );\n        }\n\n        // Checking if user is restaking or this is his/her first staking instance\n        uint256 stakingPeriod = userBook[msg.sender].timeStakedTier;\n\n        if (stakingPeriod > 0) {\n            // Create due date based on deposite time and time Tier\n            if (stakingPeriod == 1) {\n                dueDate = SafeMath.add(\n                    userBook[msg.sender].depositTime,\n                    2629743\n                );\n            } else if (stakingPeriod == 2) {\n                dueDate = SafeMath.add(\n                    userBook[msg.sender].depositTime,\n                    5259486\n                );\n            } else if (stakingPeriod == 3) {\n                dueDate = SafeMath.add(\n                    userBook[msg.sender].depositTime,\n                    7889229\n                );\n            } else if (stakingPeriod == 4) {\n                dueDate = SafeMath.add(\n                    userBook[msg.sender].depositTime,\n                    15778458\n                );\n            } else {\n                dueDate = SafeMath.add(\n                    userBook[msg.sender].depositTime,\n                    31556916\n                );\n            }\n            // Revert if staking period is not over\n            require(\n                block.timestamp > 1,\n                \"Current staking period is not over yet\"\n            );\n\n            // Checks the amount of CBLT tokens that need to be reserved\n            cbltReserved = calculateRewardDeposit(\n                SafeMath.add(msg.value, userBook[msg.sender].ethBalance),\n                _timeStakedTier,\n                amountStakedTier\n            );\n        } else {\n            // Checks the amount of CBLT tokens that need to be reserved\n            cbltReserved = calculateRewardDeposit(\n                msg.value,\n                _timeStakedTier,\n                amountStakedTier\n            );\n        }\n\n        // Treasury must have that amount open\n        require(cbltReserved <= CBLTReserve, \"Treasury is currently depleted\");\n\n        // Check if we are sending CBLT based on time staked\n        if (paidAdvanced > 0) {\n            uint256 cbltSent =\n                SafeMath.multiply(cbltReserved, paidAdvanced, 100);\n            // require( token.transfer(msg.sender, cbltSent), \"Transaction was not successful\" );\n\n            // Saves the amount of CBLT tokens reserved minus the amount sent in advanced\n            userBook[msg.sender].cbltReserved = SafeMath.add(\n                userBook[msg.sender].cbltReserved,\n                SafeMath.multiply(\n                    cbltReserved,\n                    SafeMath.sub(100, paidAdvanced),\n                    100\n                )\n            );\n        } else {\n            // Saves the amount of CBLT tokens reserved in user struct\n            userBook[msg.sender].cbltReserved = SafeMath.add(\n                userBook[msg.sender].cbltReserved,\n                cbltReserved\n            );\n        }\n\n        // Save amount of time staked\n        userBook[msg.sender].timeStakedTier = _timeStakedTier;\n\n        // Substract CBLT tokens reserved for user from treasury\n        CBLTReserve = SafeMath.sub(CBLTReserve, cbltReserved);\n\n        // Oracle call for current ETH price in USD\n        uint256 ETHprice = oracle.priceOfETH();\n\n        // Dollar fee based\n        uint256 ETHinUSD = SafeMath.div(100000000000000000000, ETHprice);\n\n        // Save new eth deposit in user account\n        userBook[msg.sender].ethBalance = SafeMath.add(\n            userBook[msg.sender].ethBalance,\n            SafeMath.sub(msg.value, ETHinUSD)\n        );\n\n        // Decrease number of stakers avaliable for current tier based on time and amount\n        stakingRewardRate[_timeStakedTier][amountStakedTier]\n            .amountStakersLeft = SafeMath.sub(\n            stakingRewardRate[_timeStakedTier][amountStakedTier]\n                .amountStakersLeft,\n            1\n        );\n\n        // Change the time of deposit\n        userBook[msg.sender].depositTime = block.timestamp;\n    }\n\n    function withdrawEth(uint256 _amount) public {\n        uint256 dueDate;\n        uint256 stakingPeriod = userBook[msg.sender].timeStakedTier;\n        uint256 _amountStakedTier;\n        uint256 userBalance = userBook[msg.sender].ethBalance;\n\n        // Calulate due date based on time staked tier and deposit time\n        if (stakingPeriod == 1) {\n            dueDate = SafeMath.add(userBook[msg.sender].depositTime, 2629743);\n        } else if (stakingPeriod == 2) {\n            dueDate = SafeMath.add(userBook[msg.sender].depositTime, 5259486);\n        } else if (stakingPeriod == 3) {\n            dueDate = SafeMath.add(userBook[msg.sender].depositTime, 7889229);\n        } else if (stakingPeriod == 4) {\n            dueDate = SafeMath.add(userBook[msg.sender].depositTime, 15778458);\n        } else {\n            dueDate = SafeMath.add(userBook[msg.sender].depositTime, 31556916);\n        }\n        // Staking period must be over before he withdraws ETH balance\n        // require(block.timestamp >= dueDate, \"Staking period is not over.\");\n\n        // Determine the amount staked tier based on ETH balance\n        if (userBalance <= 4e17) {\n            _amountStakedTier = 5;\n        } else if (userBalance <= 2e18) {\n            _amountStakedTier = 4;\n        } else if (userBalance <= 5e18) {\n            _amountStakedTier = 3;\n        } else if (userBalance <= 25e18) {\n            _amountStakedTier = 2;\n        } else {\n            _amountStakedTier = 1;\n        }\n        // Recalculate total CBLT tokens based on current token value\n        uint256 stakingReward =\n            calculateRewardWithdraw(\n                userBook[msg.sender].ethBalance,\n                stakingPeriod,\n                _amountStakedTier\n            );\n        // Save reward in wallet\n        userBook[msg.sender].rewardWallet = SafeMath.add(\n            userBook[msg.sender].rewardWallet,\n            stakingReward\n        );\n        // Reset amount of CBLT reserved\n        userBook[msg.sender].cbltReserved = 0;\n        // Substract eth from user account\n        userBook[msg.sender].ethBalance = SafeMath.sub(\n            userBook[msg.sender].ethBalance,\n            _amount\n        );\n        // Change the latest time of deposit\n        userBook[msg.sender].depositTime = block.timestamp;\n\n        payable(msg.sender).transfer(_amount);\n    }\n\n    function withdrawStaking(uint256 _amount) public payable {\n        (uint256 CBLTprice, uint256 ETHprice) =\n            oracle.priceOfETHandCBLT(address(token));\n\n        uint256 USDtoCBLT =\n            SafeMath.multiply(\n                SafeMath.div(1000000000000000000, CBLTprice),\n                SafeMath.div(100000000000000000000, ETHprice),\n                1000000000000000000\n            );\n\n        require(\n            SafeMath.mul(USDtoCBLT, 5) > 50,\n            \"Amount in CBLT must be higher than 50 total worth in value.\"\n        );\n\n        userBook[msg.sender].rewardWallet = SafeMath.sub(\n            userBook[msg.sender].rewardWallet,\n            _amount\n        );\n\n        // token.transfer\n    }\n\n    function changeInterest(\n        uint256 _timeStakedTier,\n        uint256 _amountStakedTier,\n        uint256 _newInterest\n    ) public {\n        // Only devs\n        stakingRewardRate[_timeStakedTier][_amountStakedTier]\n            .interest = _newInterest;\n    }\n\n    function modifyTiers(\n        uint256 _new,\n        uint256 _amountTier,\n        uint256 _timeTier\n    ) public {\n        // only devs\n        stakingRewardRate[_timeTier][_amountTier].amountStakersLeft = _new;\n    }\n\n    function stakingControl(bool _status) public {\n        // only devs\n        stakingStatus = _status;\n    }\n}\n\n// Voting\n// Lending\n// Cobalt tokens saved on amount staked\n// Wallet only updated when user deposits or withdraws\n// Fixed period loans\n// Functions check the current balance the treasury has avaliable to stake\n// Tier system in place\n// Function to recalculate amount of cblt tokens reserved based on amount staked\n// 30 60 90 180 365\n\n// 7 days\n// 3 missed payments back to back\n// 4 missed payment overall\n// 6 years 100k ++++\n// 2 years 100k ----\n\n// ************************************* CHANGES ************************************\n\n// mapping (uint id => Loan) loanBook;\n// signature NFT\n\n// loanBook[id]\n// loanBook[id].signature // NFT\n\n// function borrow() {\n//     require(loanBook[id].signature == NFT.value)\n// }\n\n// ******************************** INCENTIVE SYSTEM *******************************\n\n// tier 1 - Loan  50k - Max voters 100 - 5 per head\n//        - msg.sender CBLTs > 300$ worth of ETH\n// tier 2 - Loan 100k - Max voters 150 - 7.5 per head\n//        - msg.sender CBLTs > 200\n// tier 3 - Loan 200k - Max voters 200 - 10 per head\n//        - msg.sender CBLTs > 400\n\n// ************************************** TODOS ************************************\n\n// Starting period, 12-24 months\n// Collateral paid on loan application\n// Create new function to handle application\n// Create a new function to check if loan is ready to loan\n// Array of all voters\n// Save interest amount on loan to an specific\n\n// Calling oracle from ABI\n\n// (bool result, bytes memory data) =\n//             oracleAddress.call(\n//                 abi.encodeWithSignature(\n//                     \"priceOfPair(address,address)\",\n//                     _sellToken,\n//                     _buyToken\n//                 )\n//             );\n//         // Decode bytes data\n//         (uint256 sellTokenValue, uint256 buyTokenValue) =\n//             abi.decode(data, (uint256, uint256));\n\n// Amount of CBLT present in wallet per tier\n\n// Tier 1 - 500  to  5k   USD\n// Tier 2 - 5k   to  20k  USD\n// Tier 3 - 20k  to  50k  USD\n// Tier 4 - 50k  to  100k USD\n// Tier 5 - 100k to  250k USD\n// Tier 6 - +250k         USD\n\n// Amount of votes allowed per tier\n\n// Tier 1 - 20\n// Tier 2 - 40\n// Tier 3 - 60-80\n// Tier 4 ''  '' '' Needs work\n\n// Information made public from the borrower\n// Name, eth account, email\n\n// Maximum period to pay loan per Tier\n// Tier 1 - 10k  to 25k  - 12 months\n// Tier 2 - 25k  to 50k  - 24 months\n// Tier 3 - 50k  to 100k - 36 months\n// Tier 4 - 100k to 250k - 48 months\n// Tier 5 - 250k to 1m   - 60 months\n// Tier 6 - 1m   to 5m   - 60 months\n// Tier 7 - 5m and above - 60 months\n\n// New contract logic needed to be added\n// Lending 50%\n// Long term stakers - 12\n// long term pool\n// staking - indebt\n\n// Points of entry, restricting value\n// Validate\n\n// 25% - 6\n// 50% - 12\n\n// FUNCTION TO VALIDATE LENDING\n\n// function validate(address[] memory _votersAddress, bool _voteFinal, uint _loanSignature ) public { // only devs\n//     // Oracle inject\n//     // loanbook[_loanSignature].tierUSD;\n\n//     uint256 USDtoCBLT =\n//         SafeMath.div(\n//             1000000000000000000,\n//             SafeMath.mul(2000000000000, 2843)\n//         );\n\n//     for(uint i = 0; i < _votersAddress.length;i++) { // 8 // 100\n//          _votersAddress[i];\n//          // uint tierVoters = loanbook[_loanSignature].maxVoters;\n//          // Two things\n//          // token.balanceOf(_votersAddress[i]);\n//     }\n//     // loanbook[_loanSignature].status;\n// }\n",
  "sourcePath": "/Users/christianroque/Desktop/TungstenGroupProject/contracts/Bank.sol",
  "compiler": {
    "name": "solc",
    "version": "0.7.6+commit.7338295f.Emscripten.clang"
  },
  "schemaVersion": "3.3.4",
  "updatedAt": "2021-05-27T06:45:30.330Z",
  "devdoc": {
    "events": {
      "onReceived(address,uint256)": {
        "details": "Events emitted"
      }
    },
    "kind": "dev",
    "methods": {
      "cleanSlate()": {
        "details": "Deletes loan instance once the user has paid his active loan in full"
      },
      "makePayment()": {
        "details": "Function for the user to make a payment with ETH"
      },
      "newLoan(uint256,uint256)": {
        "details": "Recalculates interest and also conducts check and balances"
      }
    },
    "stateVariables": {
      "loanBook": {
        "details": "mapping used to store all loan information with the key of borrower address  and value of Loan struct with all loan information"
      },
      "loanRecords": {
        "details": "Informstion from previously fullfilled loans are stored into the blockchain before being permanently deleted"
      },
      "oracle": {
        "details": "Creating oracle instance"
      },
      "oracleAddress": {
        "details": "CobaltLend oracle for scoring and CBLT price"
      },
      "token": {
        "details": "storing CBLT token in ERC20 type"
      }
    },
    "version": 1
  },
  "userdoc": {
    "kind": "user",
    "methods": {},
    "version": 1
  }
}