{
  "contractName": "Bank",
  "abi": [
    {
      "inputs": [
        {
          "internalType": "address",
          "name": "_CBLT",
          "type": "address"
        },
        {
          "internalType": "address",
          "name": "_oracle",
          "type": "address"
        }
      ],
      "stateMutability": "nonpayable",
      "type": "constructor"
    },
    {
      "anonymous": false,
      "inputs": [
        {
          "indexed": false,
          "internalType": "address",
          "name": "_previousOwner",
          "type": "address"
        },
        {
          "indexed": true,
          "internalType": "address",
          "name": "_newOwner",
          "type": "address"
        }
      ],
      "name": "OwnershipTransferred",
      "type": "event"
    },
    {
      "anonymous": false,
      "inputs": [
        {
          "indexed": true,
          "internalType": "address",
          "name": "_from",
          "type": "address"
        },
        {
          "indexed": false,
          "internalType": "uint256",
          "name": "_amount",
          "type": "uint256"
        }
      ],
      "name": "depositToken",
      "type": "event"
    },
    {
      "anonymous": false,
      "inputs": [
        {
          "indexed": true,
          "internalType": "address",
          "name": "_from",
          "type": "address"
        },
        {
          "indexed": false,
          "internalType": "uint256",
          "name": "_amount",
          "type": "uint256"
        }
      ],
      "name": "onReceived",
      "type": "event"
    },
    {
      "anonymous": false,
      "inputs": [
        {
          "indexed": true,
          "internalType": "address",
          "name": "_from",
          "type": "address"
        },
        {
          "indexed": true,
          "internalType": "address",
          "name": "_to",
          "type": "address"
        },
        {
          "indexed": false,
          "internalType": "uint256",
          "name": "_amount",
          "type": "uint256"
        }
      ],
      "name": "onTransfer",
      "type": "event"
    },
    {
      "inputs": [],
      "name": "_owner",
      "outputs": [
        {
          "internalType": "address",
          "name": "",
          "type": "address"
        }
      ],
      "stateMutability": "view",
      "type": "function"
    },
    {
      "inputs": [],
      "name": "borrowingPool",
      "outputs": [
        {
          "internalType": "uint256",
          "name": "",
          "type": "uint256"
        }
      ],
      "stateMutability": "view",
      "type": "function"
    },
    {
      "inputs": [],
      "name": "isOwner",
      "outputs": [
        {
          "internalType": "bool",
          "name": "",
          "type": "bool"
        }
      ],
      "stateMutability": "view",
      "type": "function"
    },
    {
      "inputs": [
        {
          "internalType": "address",
          "name": "",
          "type": "address"
        }
      ],
      "name": "loanBook",
      "outputs": [
        {
          "internalType": "address",
          "name": "borrower",
          "type": "address"
        },
        {
          "internalType": "uint256",
          "name": "amountBorrowed",
          "type": "uint256"
        },
        {
          "internalType": "uint256",
          "name": "remainingBalance",
          "type": "uint256"
        },
        {
          "internalType": "uint256",
          "name": "minimumPayment",
          "type": "uint256"
        },
        {
          "internalType": "uint256",
          "name": "collateral",
          "type": "uint256"
        },
        {
          "internalType": "bool",
          "name": "active",
          "type": "bool"
        },
        {
          "internalType": "bool",
          "name": "initialized",
          "type": "bool"
        },
        {
          "internalType": "uint256",
          "name": "timeCreated",
          "type": "uint256"
        },
        {
          "internalType": "uint256",
          "name": "dueDate",
          "type": "uint256"
        },
        {
          "internalType": "uint256",
          "name": "totalVote",
          "type": "uint256"
        },
        {
          "internalType": "uint256",
          "name": "yes",
          "type": "uint256"
        }
      ],
      "stateMutability": "view",
      "type": "function"
    },
    {
      "inputs": [
        {
          "internalType": "address",
          "name": "",
          "type": "address"
        },
        {
          "internalType": "uint256",
          "name": "",
          "type": "uint256"
        }
      ],
      "name": "loanRecords",
      "outputs": [
        {
          "internalType": "address",
          "name": "borrower",
          "type": "address"
        },
        {
          "internalType": "uint256",
          "name": "amountBorrowed",
          "type": "uint256"
        },
        {
          "internalType": "uint256",
          "name": "remainingBalance",
          "type": "uint256"
        },
        {
          "internalType": "uint256",
          "name": "minimumPayment",
          "type": "uint256"
        },
        {
          "internalType": "uint256",
          "name": "collateral",
          "type": "uint256"
        },
        {
          "internalType": "bool",
          "name": "active",
          "type": "bool"
        },
        {
          "internalType": "bool",
          "name": "initialized",
          "type": "bool"
        },
        {
          "internalType": "uint256",
          "name": "timeCreated",
          "type": "uint256"
        },
        {
          "internalType": "uint256",
          "name": "dueDate",
          "type": "uint256"
        },
        {
          "internalType": "uint256",
          "name": "totalVote",
          "type": "uint256"
        },
        {
          "internalType": "uint256",
          "name": "yes",
          "type": "uint256"
        }
      ],
      "stateMutability": "view",
      "type": "function"
    },
    {
      "inputs": [
        {
          "internalType": "address",
          "name": "",
          "type": "address"
        },
        {
          "internalType": "address",
          "name": "",
          "type": "address"
        }
      ],
      "name": "rewardWallet",
      "outputs": [
        {
          "internalType": "uint256",
          "name": "",
          "type": "uint256"
        }
      ],
      "stateMutability": "view",
      "type": "function"
    },
    {
      "inputs": [
        {
          "internalType": "uint256",
          "name": "",
          "type": "uint256"
        },
        {
          "internalType": "uint256",
          "name": "",
          "type": "uint256"
        }
      ],
      "name": "stakingRewardRate",
      "outputs": [
        {
          "internalType": "uint256",
          "name": "interest",
          "type": "uint256"
        },
        {
          "internalType": "uint256",
          "name": "amountStakersLeft",
          "type": "uint256"
        },
        {
          "internalType": "uint256",
          "name": "tierDuration",
          "type": "uint256"
        }
      ],
      "stateMutability": "view",
      "type": "function"
    },
    {
      "inputs": [],
      "name": "stakingStatus",
      "outputs": [
        {
          "internalType": "bool",
          "name": "",
          "type": "bool"
        }
      ],
      "stateMutability": "view",
      "type": "function"
    },
    {
      "inputs": [],
      "name": "tierMax",
      "outputs": [
        {
          "internalType": "uint256",
          "name": "",
          "type": "uint256"
        }
      ],
      "stateMutability": "view",
      "type": "function"
    },
    {
      "inputs": [
        {
          "internalType": "address",
          "name": "",
          "type": "address"
        }
      ],
      "name": "tokenReserve",
      "outputs": [
        {
          "internalType": "uint256",
          "name": "",
          "type": "uint256"
        }
      ],
      "stateMutability": "view",
      "type": "function"
    },
    {
      "inputs": [
        {
          "internalType": "address",
          "name": "_newOwner",
          "type": "address"
        }
      ],
      "name": "transferOwnership",
      "outputs": [],
      "stateMutability": "nonpayable",
      "type": "function"
    },
    {
      "inputs": [
        {
          "internalType": "address",
          "name": "",
          "type": "address"
        }
      ],
      "name": "userBook",
      "outputs": [
        {
          "internalType": "uint256",
          "name": "ethBalance",
          "type": "uint256"
        },
        {
          "internalType": "uint256",
          "name": "tokenReserved",
          "type": "uint256"
        },
        {
          "internalType": "uint256",
          "name": "depositTime",
          "type": "uint256"
        },
        {
          "internalType": "uint256",
          "name": "timeStakedTier",
          "type": "uint256"
        },
        {
          "internalType": "address",
          "name": "currentTokenStaked",
          "type": "address"
        },
        {
          "internalType": "uint256",
          "name": "lotteryTicket",
          "type": "uint256"
        },
        {
          "internalType": "bool",
          "name": "withdrawReady",
          "type": "bool"
        }
      ],
      "stateMutability": "view",
      "type": "function"
    },
    {
      "inputs": [
        {
          "internalType": "uint256",
          "name": "_num",
          "type": "uint256"
        }
      ],
      "name": "proposeNumberChange",
      "outputs": [],
      "stateMutability": "nonpayable",
      "type": "function"
    },
    {
      "inputs": [
        {
          "internalType": "uint256",
          "name": "_paymentPeriod",
          "type": "uint256"
        },
        {
          "internalType": "uint256",
          "name": "_principal",
          "type": "uint256"
        }
      ],
      "name": "newLoan",
      "outputs": [],
      "stateMutability": "payable",
      "type": "function"
    },
    {
      "inputs": [],
      "name": "validate",
      "outputs": [],
      "stateMutability": "nonpayable",
      "type": "function"
    },
    {
      "inputs": [],
      "name": "makePayment",
      "outputs": [],
      "stateMutability": "payable",
      "type": "function"
    },
    {
      "inputs": [],
      "name": "returnCollateral",
      "outputs": [],
      "stateMutability": "nonpayable",
      "type": "function"
    },
    {
      "inputs": [],
      "name": "cleanSlate",
      "outputs": [],
      "stateMutability": "nonpayable",
      "type": "function"
    },
    {
      "inputs": [
        {
          "internalType": "uint256",
          "name": "_amountTier",
          "type": "uint256"
        },
        {
          "internalType": "uint256",
          "name": "_timeTier",
          "type": "uint256"
        }
      ],
      "name": "getTierInformation",
      "outputs": [
        {
          "internalType": "uint256",
          "name": "",
          "type": "uint256"
        },
        {
          "internalType": "uint256",
          "name": "",
          "type": "uint256"
        },
        {
          "internalType": "uint256",
          "name": "",
          "type": "uint256"
        }
      ],
      "stateMutability": "view",
      "type": "function"
    },
    {
      "inputs": [
        {
          "internalType": "uint256",
          "name": "_amountTier",
          "type": "uint256"
        },
        {
          "internalType": "uint256",
          "name": "_timeTier",
          "type": "uint256"
        },
        {
          "internalType": "uint256",
          "name": "_interest",
          "type": "uint256"
        },
        {
          "internalType": "uint256",
          "name": "_amountStakersLeft",
          "type": "uint256"
        },
        {
          "internalType": "uint256",
          "name": "_tierDuration",
          "type": "uint256"
        }
      ],
      "name": "setTierInformation",
      "outputs": [],
      "stateMutability": "nonpayable",
      "type": "function"
    },
    {
      "inputs": [
        {
          "internalType": "address",
          "name": "_userAddress",
          "type": "address"
        }
      ],
      "name": "getUser",
      "outputs": [
        {
          "internalType": "uint256",
          "name": "",
          "type": "uint256"
        },
        {
          "internalType": "uint256",
          "name": "",
          "type": "uint256"
        },
        {
          "internalType": "uint256",
          "name": "",
          "type": "uint256"
        },
        {
          "internalType": "uint256",
          "name": "",
          "type": "uint256"
        },
        {
          "internalType": "address",
          "name": "",
          "type": "address"
        },
        {
          "internalType": "uint256",
          "name": "",
          "type": "uint256"
        },
        {
          "internalType": "bool",
          "name": "",
          "type": "bool"
        }
      ],
      "stateMutability": "view",
      "type": "function"
    },
    {
      "inputs": [
        {
          "internalType": "uint32",
          "name": "_timeStakedTier",
          "type": "uint32"
        },
        {
          "internalType": "address",
          "name": "_tokenAddress",
          "type": "address"
        }
      ],
      "name": "depositEth",
      "outputs": [],
      "stateMutability": "payable",
      "type": "function"
    },
    {
      "inputs": [
        {
          "internalType": "uint256",
          "name": "_amount",
          "type": "uint256"
        }
      ],
      "name": "withdrawEth",
      "outputs": [],
      "stateMutability": "nonpayable",
      "type": "function"
    },
    {
      "inputs": [
        {
          "internalType": "uint256",
          "name": "_amount",
          "type": "uint256"
        },
        {
          "internalType": "address",
          "name": "_withdrawTokenAddress",
          "type": "address"
        }
      ],
      "name": "withdrawStaking",
      "outputs": [],
      "stateMutability": "payable",
      "type": "function"
    },
    {
      "inputs": [
        {
          "internalType": "address",
          "name": "_winnerAddress",
          "type": "address"
        },
        {
          "internalType": "uint256",
          "name": "_timeTier",
          "type": "uint256"
        },
        {
          "internalType": "uint256",
          "name": "_amountTier",
          "type": "uint256"
        }
      ],
      "name": "lottery",
      "outputs": [],
      "stateMutability": "nonpayable",
      "type": "function"
    },
    {
      "inputs": [
        {
          "internalType": "uint256",
          "name": "_new",
          "type": "uint256"
        },
        {
          "internalType": "uint256",
          "name": "_amountTier",
          "type": "uint256"
        },
        {
          "internalType": "uint256",
          "name": "_timeTier",
          "type": "uint256"
        },
        {
          "internalType": "uint256",
          "name": "_newInterest",
          "type": "uint256"
        },
        {
          "internalType": "uint256",
          "name": "_tierDuration",
          "type": "uint256"
        }
      ],
      "name": "modifyTiers",
      "outputs": [],
      "stateMutability": "nonpayable",
      "type": "function"
    },
    {
      "inputs": [
        {
          "internalType": "bool",
          "name": "_status",
          "type": "bool"
        }
      ],
      "name": "stakingControl",
      "outputs": [],
      "stateMutability": "nonpayable",
      "type": "function"
    }
  ],
  "bytecode": "0x608060405234801561001057600080fd5b506040516200540b3803806200540b8339818101604052604081101561003557600080fd5b810190808051906020019092919080519060200190929190505050336000806101000a81548173ffffffffffffffffffffffffffffffffffffffff021916908373ffffffffffffffffffffffffffffffffffffffff16021790555080600260006101000a81548173ffffffffffffffffffffffffffffffffffffffff021916908373ffffffffffffffffffffffffffffffffffffffff16021790555081600160006101000a81548173ffffffffffffffffffffffffffffffffffffffff021916908373ffffffffffffffffffffffffffffffffffffffff1602179055506064600b60006005815260200190815260200160002060020181905550603c600b600060058152602001908152602001600020600101819055506207a120600b600060058152602001908152602001600020600001819055506b1363156bbee3016d700000006011600073433c6e3d2def6e1fb414cf9448724efb0399b69873ffffffffffffffffffffffffffffffffffffffff1673ffffffffffffffffffffffffffffffffffffffff168152602001908152602001600020819055506b1363156bbee3016d70000000601160007395b58a6bff3d14b7db2f5cb5f0ad413dc294065873ffffffffffffffffffffffffffffffffffffffff1673ffffffffffffffffffffffffffffffffffffffff168152602001908152602001600020819055506005600d819055506001600f600060018152602001908152602001600020600060018152602001908152602001600020600001819055506000600f600060018152602001908152602001600020600060018152602001908152602001600020600101819055506228206f600f600060018152602001908152602001600020600060018152602001908152602001600020600201819055506002600f600060018152602001908152602001600020600060028152602001908152602001600020600001819055506000600f600060018152602001908152602001600020600060028152602001908152602001600020600101819055506228206f600f600060018152602001908152602001600020600060028152602001908152602001600020600201819055506003600f600060018152602001908152602001600020600060038152602001908152602001600020600001819055506000600f600060018152602001908152602001600020600060038152602001908152602001600020600101819055506228206f600f600060018152602001908152602001600020600060038152602001908152602001600020600201819055506004600f600060018152602001908152602001600020600060048152602001908152602001600020600001819055506000600f600060018152602001908152602001600020600060048152602001908152602001600020600101819055506228206f600f600060018152602001908152602001600020600060048152602001908152602001600020600201819055506004600f600060018152602001908152602001600020600060058152602001908152602001600020600001819055506000600f600060018152602001908152602001600020600060058152602001908152602001600020600101819055506228206f600f600060018152602001908152602001600020600060058152602001908152602001600020600201819055506001600f600060028152602001908152602001600020600060018152602001908152602001600020600001819055506000600f60006002815260200190815260200160002060006001815260200190815260200160002060010181905550625040de600f600060028152602001908152602001600020600060018152602001908152602001600020600201819055506002600f600060028152602001908152602001600020600060028152602001908152602001600020600001819055506000600f60006002815260200190815260200160002060006002815260200190815260200160002060010181905550625040de600f600060028152602001908152602001600020600060028152602001908152602001600020600201819055506003600f600060028152602001908152602001600020600060038152602001908152602001600020600001819055506000600f60006002815260200190815260200160002060006003815260200190815260200160002060010181905550625040de600f600060028152602001908152602001600020600060038152602001908152602001600020600201819055506004600f600060028152602001908152602001600020600060048152602001908152602001600020600001819055506000600f60006002815260200190815260200160002060006004815260200190815260200160002060010181905550625040de600f600060028152602001908152602001600020600060048152602001908152602001600020600201819055506004600f600060028152602001908152602001600020600060058152602001908152602001600020600001819055506000600f60006002815260200190815260200160002060006005815260200190815260200160002060010181905550625040de600f600060028152602001908152602001600020600060058152602001908152602001600020600201819055506001600f600060038152602001908152602001600020600060018152602001908152602001600020600001819055506000600f600060038152602001908152602001600020600060018152602001908152602001600020600101819055506278614d600f600060038152602001908152602001600020600060018152602001908152602001600020600201819055506002600f600060038152602001908152602001600020600060028152602001908152602001600020600001819055506000600f600060038152602001908152602001600020600060028152602001908152602001600020600101819055506278614d600f600060038152602001908152602001600020600060028152602001908152602001600020600201819055506003600f600060038152602001908152602001600020600060038152602001908152602001600020600001819055506000600f600060038152602001908152602001600020600060038152602001908152602001600020600101819055506278614d600f600060038152602001908152602001600020600060038152602001908152602001600020600201819055506004600f600060038152602001908152602001600020600060048152602001908152602001600020600001819055506000600f600060038152602001908152602001600020600060048152602001908152602001600020600101819055506278614d600f600060038152602001908152602001600020600060048152602001908152602001600020600201819055506004600f600060038152602001908152602001600020600060058152602001908152602001600020600001819055506000600f600060038152602001908152602001600020600060058152602001908152602001600020600101819055506278614d600f600060038152602001908152602001600020600060058152602001908152602001600020600201819055506003600f600060048152602001908152602001600020600060018152602001908152602001600020600001819055506101f4600f6000600481526020019081526020016000206000600181526020019081526020016000206001018190555062f0c29a600f600060048152602001908152602001600020600060018152602001908152602001600020600201819055506005600f600060048152602001908152602001600020600060028152602001908152602001600020600001819055506101f4600f6000600481526020019081526020016000206000600281526020019081526020016000206001018190555062f0c29a600f600060048152602001908152602001600020600060028152602001908152602001600020600201819055506005600f600060048152602001908152602001600020600060038152602001908152602001600020600001819055506101f4600f6000600481526020019081526020016000206000600381526020019081526020016000206001018190555062f0c29a600f600060048152602001908152602001600020600060038152602001908152602001600020600201819055506005600f600060048152602001908152602001600020600060048152602001908152602001600020600001819055506103e8600f6000600481526020019081526020016000206000600481526020019081526020016000206001018190555062f0c29a600f600060048152602001908152602001600020600060048152602001908152602001600020600201819055506005600f600060048152602001908152602001600020600060058152602001908152602001600020600001819055506103e8600f6000600481526020019081526020016000206000600581526020019081526020016000206001018190555062f0c29a600f600060048152602001908152602001600020600060058152602001908152602001600020600201819055506004600f600060058152602001908152602001600020600060018152602001908152602001600020600001819055506101f4600f600060058152602001908152602001600020600060018152602001908152602001600020600101819055506301e18534600f600060058152602001908152602001600020600060018152602001908152602001600020600201819055506005600f600060058152602001908152602001600020600060028152602001908152602001600020600001819055506101f4600f600060058152602001908152602001600020600060028152602001908152602001600020600101819055506301e18534600f600060058152602001908152602001600020600060028152602001908152602001600020600201819055506005600f600060058152602001908152602001600020600060038152602001908152602001600020600001819055506101f4600f600060058152602001908152602001600020600060038152602001908152602001600020600101819055506301e18534600f600060058152602001908152602001600020600060038152602001908152602001600020600201819055506006600f600060058152602001908152602001600020600060048152602001908152602001600020600001819055506103e8600f600060058152602001908152602001600020600060048152602001908152602001600020600101819055506301e18534600f600060058152602001908152602001600020600060048152602001908152602001600020600201819055506007600f600060058152602001908152602001600020600060058152602001908152602001600020600001819055506103e8600f600060058152602001908152602001600020600060058152602001908152602001600020600101819055506301e18534600f6000600581526020019081526020016000206000600581526020019081526020016000206002018190555050506143b880620010536000396000f3fe60806040526004361061019c5760003560e01c80638593788d116100ec578063b2bdfa7b1161008a578063d8d7970011610064578063d8d79700146108f5578063e59626ee146108ff578063e8f2fd48146109ce578063f2fde38b14610a335761019c565b8063b2bdfa7b146107d2578063b8825aba14610813578063c311d049146108ba5761019c565b80639b1b6506116100c65780639b1b65061461062c578063a0d5d6ec146106f1578063a3f0bb6614610754578063ae17e9aa1461076b5761019c565b80638593788d146105715780638f32d59b146105d457806397cb01c7146106015761019c565b80635dde3aa91161015957806369bcb2841161013357806369bcb284146103c65780636f77926b1461044b5780637ef5de7d146104f257806384ad38e91461051d5761019c565b80635dde3aa91461031057806361462631146103485780636901f668146103af5761019c565b80631df74bba146101a157806330927998146101ef57806344e644df1461022a57806344ed456f14610267578063455ab53c1461027e57806354d39008146102ab575b600080fd5b6101ed600480360360408110156101b757600080fd5b8101908080359060200190929190803573ffffffffffffffffffffffffffffffffffffffff169060200190929190505050610a84565b005b3480156101fb57600080fd5b506102286004803603602081101561021257600080fd5b8101908080359060200190929190505050610d02565b005b34801561023657600080fd5b506102656004803603602081101561024d57600080fd5b81019080803515159060200190929190505050610e05565b005b34801561027357600080fd5b5061027c610e22565b005b34801561028a57600080fd5b50610293610fda565b60405180821515815260200191505060405180910390f35b3480156102b757600080fd5b506102fa600480360360208110156102ce57600080fd5b81019080803573ffffffffffffffffffffffffffffffffffffffff169060200190929190505050610fed565b6040518082815260200191505060405180910390f35b6103466004803603604081101561032657600080fd5b810190808035906020019092919080359060200190929190505050611005565b005b34801561035457600080fd5b5061038b6004803603604081101561036b57600080fd5b810190808035906020019092919080359060200190929190505050611672565b60405180848152602001838152602001828152602001935050505060405180910390f35b3480156103bb57600080fd5b506103c46116a9565b005b3480156103d257600080fd5b50610435600480360360408110156103e957600080fd5b81019080803573ffffffffffffffffffffffffffffffffffffffff169060200190929190803573ffffffffffffffffffffffffffffffffffffffff1690602001909291905050506116ab565b6040518082815260200191505060405180910390f35b34801561045757600080fd5b5061049a6004803603602081101561046e57600080fd5b81019080803573ffffffffffffffffffffffffffffffffffffffff1690602001909291905050506116d0565b604051808881526020018781526020018681526020018581526020018473ffffffffffffffffffffffffffffffffffffffff168152602001838152602001821515815260200197505050505050505060405180910390f35b3480156104fe57600080fd5b506105076118f6565b6040518082815260200191505060405180910390f35b61056f6004803603604081101561053357600080fd5b81019080803563ffffffff169060200190929190803573ffffffffffffffffffffffffffffffffffffffff1690602001909291905050506118fc565b005b34801561057d57600080fd5b506105d2600480360360a081101561059457600080fd5b8101908080359060200190929190803590602001909291908035906020019092919080359060200190929190803590602001909291905050506123fe565b005b3480156105e057600080fd5b506105e961249b565b60405180821515815260200191505060405180910390f35b34801561060d57600080fd5b506106166124f2565b6040518082815260200191505060405180910390f35b34801561063857600080fd5b5061067b6004803603602081101561064f57600080fd5b81019080803573ffffffffffffffffffffffffffffffffffffffff1690602001909291905050506124f8565b604051808c73ffffffffffffffffffffffffffffffffffffffff1681526020018b81526020018a8152602001898152602001888152602001871515815260200186151581526020018581526020018481526020018381526020018281526020019b50505050505050505050505060405180910390f35b3480156106fd57600080fd5b50610752600480360360a081101561071457600080fd5b81019080803590602001909291908035906020019092919080359060200190929190803590602001909291908035906020019092919050505061258c565b005b34801561076057600080fd5b50610769612617565b005b34801561077757600080fd5b506107ae6004803603604081101561078e57600080fd5b8101908080359060200190929190803590602001909291905050506128f3565b60405180848152602001838152602001828152602001935050505060405180910390f35b3480156107de57600080fd5b506107e761297d565b604051808273ffffffffffffffffffffffffffffffffffffffff16815260200191505060405180910390f35b34801561081f57600080fd5b506108626004803603602081101561083657600080fd5b81019080803573ffffffffffffffffffffffffffffffffffffffff1690602001909291905050506129a1565b604051808881526020018781526020018681526020018581526020018473ffffffffffffffffffffffffffffffffffffffff168152602001838152602001821515815260200197505050505050505060405180910390f35b3480156108c657600080fd5b506108f3600480360360208110156108dd57600080fd5b8101908080359060200190929190505050612a10565b005b6108fd612ec6565b005b34801561090b57600080fd5b506109586004803603604081101561092257600080fd5b81019080803573ffffffffffffffffffffffffffffffffffffffff16906020019092919080359060200190929190505050612f7c565b604051808c73ffffffffffffffffffffffffffffffffffffffff1681526020018b81526020018a8152602001898152602001888152602001871515815260200186151581526020018581526020018481526020018381526020018281526020019b50505050505050505050505060405180910390f35b3480156109da57600080fd5b50610a31600480360360608110156109f157600080fd5b81019080803573ffffffffffffffffffffffffffffffffffffffff169060200190929190803590602001909291908035906020019092919050505061302d565b005b348015610a3f57600080fd5b50610a8260048036036020811015610a5657600080fd5b81019080803573ffffffffffffffffffffffffffffffffffffffff169060200190929190505050613032565b005b600080600260009054906101000a900473ffffffffffffffffffffffffffffffffffffffff1673ffffffffffffffffffffffffffffffffffffffff166345266697846040518263ffffffff1660e01b8152600401808273ffffffffffffffffffffffffffffffffffffffff168152602001915050604080518083038186803b158015610b0f57600080fd5b505afa158015610b23573d6000803e3d6000fd5b505050506040513d6040811015610b3957600080fd5b810190808051906020019092919080519060200190929190505050915091506000610b90610b6f670de0b6b3a76400008561316d565b610b8268056bc75e2d631000008561316d565b670de0b6b3a7640000613186565b90506032610b9f82600561319d565b11610bf5576040517f08c379a000000000000000000000000000000000000000000000000000000000815260040180806020018281038252603b815260200180614310603b913960400191505060405180910390fd5b610c7b601260003373ffffffffffffffffffffffffffffffffffffffff1673ffffffffffffffffffffffffffffffffffffffff16815260200190815260200160002060008673ffffffffffffffffffffffffffffffffffffffff1673ffffffffffffffffffffffffffffffffffffffff16815260200190815260200160002054866131d4565b601260003373ffffffffffffffffffffffffffffffffffffffff1673ffffffffffffffffffffffffffffffffffffffff16815260200190815260200160002060008673ffffffffffffffffffffffffffffffffffffffff1673ffffffffffffffffffffffffffffffffffffffff168152602001908152602001600020819055505050505050565b60005b600580549050811015610dae5760006004600060058481548110610d2557fe5b9060005260206000200160009054906101000a900473ffffffffffffffffffffffffffffffffffffffff1673ffffffffffffffffffffffffffffffffffffffff1673ffffffffffffffffffffffffffffffffffffffff16815260200190815260200160002060006101000a81548160ff0219169083151502179055508080600101915050610d05565b50806007819055506040518060400160405280600681526020017f6e756d626572000000000000000000000000000000000000000000000000000081525060069080519060200190610e019291906141e5565b5050565b80600e60006101000a81548160ff02191690831515021790555050565b6000600960003373ffffffffffffffffffffffffffffffffffffffff1673ffffffffffffffffffffffffffffffffffffffff1681526020019081526020016000206002015414610e7157600080fd5b6000600960003373ffffffffffffffffffffffffffffffffffffffff1673ffffffffffffffffffffffffffffffffffffffff168152602001908152602001600020600401549050600160009054906101000a900473ffffffffffffffffffffffffffffffffffffffff1673ffffffffffffffffffffffffffffffffffffffff1663a9059cbb33836040518363ffffffff1660e01b8152600401808373ffffffffffffffffffffffffffffffffffffffff16815260200182815260200192505050602060405180830381600087803b158015610f4b57600080fd5b505af1158015610f5f573d6000803e3d6000fd5b505050506040513d6020811015610f7557600080fd5b8101908080519060200190929190505050610f8f57600080fd5b6000600960003373ffffffffffffffffffffffffffffffffffffffff1673ffffffffffffffffffffffffffffffffffffffff1681526020019081526020016000206004018190555050565b600e60009054906101000a900460ff1681565b60116020528060005260406000206000915090505481565b60001515600960003373ffffffffffffffffffffffffffffffffffffffff1673ffffffffffffffffffffffffffffffffffffffff16815260200190815260200160002060050160019054906101000a900460ff1615151461106557600080fd5b6000601490506000600f9050600060029050600060059050600b6000828152602001908152602001600020600101548611156110ec576040517f08c379a000000000000000000000000000000000000000000000000000000000815260040180806020018281038252603881526020018061434b6038913960400191505060405180910390fd5b60006111a368056bc75e2d63100000600260009054906101000a900473ffffffffffffffffffffffffffffffffffffffff1673ffffffffffffffffffffffffffffffffffffffff1663858b033d6040518163ffffffff1660e01b815260040160206040518083038186803b15801561116357600080fd5b505afa158015611177573d6000803e3d6000fd5b505050506040513d602081101561118d57600080fd5b810190808051906020019092919050505061316d565b905060006111b1878361316d565b9050600b6000848152602001908152602001600020600001548111156111d657600080fd5b6000806000600260009054906101000a900473ffffffffffffffffffffffffffffffffffffffff1673ffffffffffffffffffffffffffffffffffffffff16633a7a2a06600160009054906101000a900473ffffffffffffffffffffffffffffffffffffffff1673eeeeeeeeeeeeeeeeeeeeeeeeeeeeeeeeeeeeeeee6040518363ffffffff1660e01b8152600401808373ffffffffffffffffffffffffffffffffffffffff1681526020018273ffffffffffffffffffffffffffffffffffffffff1681526020019250505060606040518083038186803b1580156112b857600080fd5b505afa1580156112cc573d6000803e3d6000fd5b505050506040513d60608110156112e257600080fd5b81019080805190602001909291908051906020019092919080519060200190929190505050925092509250600061132d6113278c6113208d8d61319d565b6064613186565b8561316d565b905060006113468c6113418e8c6064613186565b6131eb565b90506000611354828f61316d565b905060011515600160009054906101000a900473ffffffffffffffffffffffffffffffffffffffff1673ffffffffffffffffffffffffffffffffffffffff166323b872dd3330876040518463ffffffff1660e01b8152600401808473ffffffffffffffffffffffffffffffffffffffff1681526020018373ffffffffffffffffffffffffffffffffffffffff1681526020018281526020019350505050602060405180830381600087803b15801561140b57600080fd5b505af115801561141f573d6000803e3d6000fd5b505050506040513d602081101561143557600080fd5b81019080805190602001909291905050501515146114bb576040517f08c379a00000000000000000000000000000000000000000000000000000000081526004018080602001828103825260198152602001807f5061796d656e7420776173206e6f7420617070726f7665642e0000000000000081525060200191505060405180910390fd5b6040518061016001604052803373ffffffffffffffffffffffffffffffffffffffff1681526020018e815260200183815260200182815260200184815260200160001515815260200160011515815260200161151a426228206f6131eb565b8152602001428152602001600b60008c81526020019081526020016000206002015481526020016000815250600960003373ffffffffffffffffffffffffffffffffffffffff1673ffffffffffffffffffffffffffffffffffffffff16815260200190815260200160002060008201518160000160006101000a81548173ffffffffffffffffffffffffffffffffffffffff021916908373ffffffffffffffffffffffffffffffffffffffff1602179055506020820151816001015560408201518160020155606082015181600301556080820151816004015560a08201518160050160006101000a81548160ff02191690831515021790555060c08201518160050160016101000a81548160ff02191690831515021790555060e082015181600601556101008201518160070155610120820151816008015561014082015181600901559050505050505050505050505050505050565b600f602052816000526040600020602052806000526040600020600091509150508060000154908060010154908060020154905083565b565b6012602052816000526040600020602052806000526040600020600091509150505481565b6000806000806000806000601060008973ffffffffffffffffffffffffffffffffffffffff1673ffffffffffffffffffffffffffffffffffffffff16815260200190815260200160002060000154601060008a73ffffffffffffffffffffffffffffffffffffffff1673ffffffffffffffffffffffffffffffffffffffff16815260200190815260200160002060010154601060008b73ffffffffffffffffffffffffffffffffffffffff1673ffffffffffffffffffffffffffffffffffffffff16815260200190815260200160002060020154601060008c73ffffffffffffffffffffffffffffffffffffffff1673ffffffffffffffffffffffffffffffffffffffff16815260200190815260200160002060030154601060008d73ffffffffffffffffffffffffffffffffffffffff1673ffffffffffffffffffffffffffffffffffffffff16815260200190815260200160002060040160009054906101000a900473ffffffffffffffffffffffffffffffffffffffff16601060008e73ffffffffffffffffffffffffffffffffffffffff1673ffffffffffffffffffffffffffffffffffffffff16815260200190815260200160002060050154601060008f73ffffffffffffffffffffffffffffffffffffffff1673ffffffffffffffffffffffffffffffffffffffff16815260200190815260200160002060060160009054906101000a900460ff169650965096509650965096509650919395979092949650565b600d5481565b8163ffffffff1660011515600e60009054906101000a900460ff1615151461198c576040517f08c379a000000000000000000000000000000000000000000000000000000000815260040180806020018281038252601c8152602001807f5374616b696e672069732063757272656e746c79206f66666c696e650000000081525060200191505060405180910390fd5b670214e8348c4f000034116119ec576040517f08c379a000000000000000000000000000000000000000000000000000000000815260040180806020018281038252602c8152602001806142e4602c913960400191505060405180910390fd5b600181101580156119ff5750600d548111155b611a54576040517f08c379a000000000000000000000000000000000000000000000000000000000815260040180806020018281038252602d8152602001806142b7602d913960400191505060405180910390fd5b600080600090506000806000601060003373ffffffffffffffffffffffffffffffffffffffff1673ffffffffffffffffffffffffffffffffffffffff16815260200190815260200160002060050154905067058d15e1762800003411611abd5760019450611b68565b671bc16d674ec800003411611ad55760029450611b67565b674563918244f400003411611aed5760039450611b66565b68015af1d78b58c400003411611b33576004945060048863ffffffff161415611b195760199350611b2e565b60058863ffffffff161415611b2d57603293505b5b611b65565b6005945060048863ffffffff161415611b4f5760199350611b64565b60058863ffffffff161415611b6357603293505b5b5b5b5b5b6000811115611c435760136000601060003373ffffffffffffffffffffffffffffffffffffffff1673ffffffffffffffffffffffffffffffffffffffff168152602001908152602001600020600501548152602001908152602001600020600001548863ffffffff16148015611c35575060136000601060003373ffffffffffffffffffffffffffffffffffffffff1673ffffffffffffffffffffffffffffffffffffffff1681526020019081526020016000206005015481526020019081526020016000206001015485145b611c3e57600080fd5b611ce7565b6000600f60008a63ffffffff16815260200190815260200160002060008781526020019081526020016000206001015411611ce6576040517f08c379a000000000000000000000000000000000000000000000000000000000815260040180806020018281038252601e8152602001807f54696572206465706c657465642c20636f6d65206261636b206c61746572000081525060200191505060405180910390fd5b5b6000601060003373ffffffffffffffffffffffffffffffffffffffff1673ffffffffffffffffffffffffffffffffffffffff168152602001908152602001600020600001541115611e6b57611dab600f60008a63ffffffff168152602001908152602001600020600087815260200190815260200160002060020154601060003373ffffffffffffffffffffffffffffffffffffffff1673ffffffffffffffffffffffffffffffffffffffff168152602001908152602001600020600201546131eb565b925060014211611e06576040517f08c379a00000000000000000000000000000000000000000000000000000000081526004018080602001828103825260268152602001806142916026913960400191505060405180910390fd5b611e64611e5534601060003373ffffffffffffffffffffffffffffffffffffffff1673ffffffffffffffffffffffffffffffffffffffff168152602001908152602001600020600001546131eb565b8963ffffffff16878a85613207565b9150611e81565b611e7e348963ffffffff16878a85613207565b91505b601160008873ffffffffffffffffffffffffffffffffffffffff1673ffffffffffffffffffffffffffffffffffffffff16815260200190815260200160002054821115611f36576040517f08c379a000000000000000000000000000000000000000000000000000000000815260040180806020018281038252601e8152602001807f54726561737572792069732063757272656e746c79206465706c65746564000081525060200191505060405180910390fd5b6000841115611ffc576000611f4d83866064613186565b9050611fb0601060003373ffffffffffffffffffffffffffffffffffffffff1673ffffffffffffffffffffffffffffffffffffffff16815260200190815260200160002060010154611fab85611fa460648a6131d4565b6064613186565b6131eb565b601060003373ffffffffffffffffffffffffffffffffffffffff1673ffffffffffffffffffffffffffffffffffffffff168152602001908152602001600020600101819055505061208f565b612048601060003373ffffffffffffffffffffffffffffffffffffffff1673ffffffffffffffffffffffffffffffffffffffff16815260200190815260200160002060010154836131eb565b601060003373ffffffffffffffffffffffffffffffffffffffff1673ffffffffffffffffffffffffffffffffffffffff168152602001908152602001600020600101819055505b8763ffffffff16601060003373ffffffffffffffffffffffffffffffffffffffff1673ffffffffffffffffffffffffffffffffffffffff16815260200190815260200160002060030181905550612125601160008973ffffffffffffffffffffffffffffffffffffffff1673ffffffffffffffffffffffffffffffffffffffff16815260200190815260200160002054836131d4565b601160008973ffffffffffffffffffffffffffffffffffffffff1673ffffffffffffffffffffffffffffffffffffffff168152602001908152602001600020819055506000600260009054906101000a900473ffffffffffffffffffffffffffffffffffffffff1673ffffffffffffffffffffffffffffffffffffffff1663858b033d6040518163ffffffff1660e01b815260040160206040518083038186803b1580156121d257600080fd5b505afa1580156121e6573d6000803e3d6000fd5b505050506040513d60208110156121fc57600080fd5b81019080805190602001909291905050509050600061222468056bc75e2d631000008361316d565b905061227b601060003373ffffffffffffffffffffffffffffffffffffffff1673ffffffffffffffffffffffffffffffffffffffff1681526020019081526020016000206000015461227634846131d4565b6131eb565b601060003373ffffffffffffffffffffffffffffffffffffffff1673ffffffffffffffffffffffffffffffffffffffff168152602001908152602001600020600001819055506122f9600f60008c63ffffffff16815260200190815260200160002060008981526020019081526020016000206001015460016131d4565b600f60008c63ffffffff16815260200190815260200160002060008981526020019081526020016000206001018190555088601060003373ffffffffffffffffffffffffffffffffffffffff1673ffffffffffffffffffffffffffffffffffffffff16815260200190815260200160002060040160006101000a81548173ffffffffffffffffffffffffffffffffffffffff021916908373ffffffffffffffffffffffffffffffffffffffff16021790555042601060003373ffffffffffffffffffffffffffffffffffffffff1673ffffffffffffffffffffffffffffffffffffffff1681526020019081526020016000206002018190555050505050505050505050565b82600f600086815260200190815260200160002060008781526020019081526020016000206000018190555081600f600086815260200190815260200160002060008781526020019081526020016000206001018190555080600f6000868152602001908152602001600020600087815260200190815260200160002060020181905550600d548411156124945783600d819055505b5050505050565b60008060009054906101000a900473ffffffffffffffffffffffffffffffffffffffff1673ffffffffffffffffffffffffffffffffffffffff163373ffffffffffffffffffffffffffffffffffffffff1614905090565b600c5481565b60096020528060005260406000206000915090508060000160009054906101000a900473ffffffffffffffffffffffffffffffffffffffff16908060010154908060020154908060030154908060040154908060050160009054906101000a900460ff16908060050160019054906101000a900460ff1690806006015490806007015490806008015490806009015490508b565b84600f600085815260200190815260200160002060008681526020019081526020016000206001018190555081600f600085815260200190815260200160002060008681526020019081526020016000206000018190555080600f60008581526020019081526020016000206000868152602001908152602001600020600201819055505050505050565b6000600960003373ffffffffffffffffffffffffffffffffffffffff1673ffffffffffffffffffffffffffffffffffffffff168152602001908152602001600020600201541461266657600080fd5b600a60003373ffffffffffffffffffffffffffffffffffffffff1673ffffffffffffffffffffffffffffffffffffffff168152602001908152602001600020600960003373ffffffffffffffffffffffffffffffffffffffff1673ffffffffffffffffffffffffffffffffffffffff16815260200190815260200160002090806001815401808255809150506001900390600052602060002090600a02016000909190919091506000820160009054906101000a900473ffffffffffffffffffffffffffffffffffffffff168160000160006101000a81548173ffffffffffffffffffffffffffffffffffffffff021916908373ffffffffffffffffffffffffffffffffffffffff160217905550600182015481600101556002820154816002015560038201548160030155600482015481600401556005820160009054906101000a900460ff168160050160006101000a81548160ff0219169083151502179055506005820160019054906101000a900460ff168160050160016101000a81548160ff021916908315150217905550600682015481600601556007820154816007015560088201548160080155600982015481600901555050600960003373ffffffffffffffffffffffffffffffffffffffff1673ffffffffffffffffffffffffffffffffffffffff168152602001908152602001600020600080820160006101000a81549073ffffffffffffffffffffffffffffffffffffffff021916905560018201600090556002820160009055600382016000905560048201600090556005820160006101000a81549060ff02191690556005820160016101000a81549060ff021916905560068201600090556007820160009055600882016000905560098201600090555050565b6000806000600f6000858152602001908152602001600020600086815260200190815260200160002060000154600f6000868152602001908152602001600020600087815260200190815260200160002060010154600f60008781526020019081526020016000206000888152602001908152602001600020600201549250925092509250925092565b60008054906101000a900473ffffffffffffffffffffffffffffffffffffffff1681565b60106020528060005260406000206000915090508060000154908060010154908060020154908060030154908060040160009054906101000a900473ffffffffffffffffffffffffffffffffffffffff16908060050154908060060160009054906101000a900460ff16905087565b600080601060003373ffffffffffffffffffffffffffffffffffffffff1673ffffffffffffffffffffffffffffffffffffffff168152602001908152602001600020600301549050600080601060003373ffffffffffffffffffffffffffffffffffffffff1673ffffffffffffffffffffffffffffffffffffffff16815260200190815260200160002060000154905067058d15e1762800008111612ab85760059150612b09565b671bc16d674ec800008111612ad05760049150612b08565b674563918244f400008111612ae85760039150612b07565b68015af1d78b58c400008111612b015760029150612b06565b600191505b5b5b5b612b7c600f6000858152602001908152602001600020600084815260200190815260200160002060020154601060003373ffffffffffffffffffffffffffffffffffffffff1673ffffffffffffffffffffffffffffffffffffffff168152602001908152602001600020600201546131eb565b93506000612b8a848461346b565b9050612c74601260003373ffffffffffffffffffffffffffffffffffffffff1673ffffffffffffffffffffffffffffffffffffffff1681526020019081526020016000206000601060003373ffffffffffffffffffffffffffffffffffffffff1673ffffffffffffffffffffffffffffffffffffffff16815260200190815260200160002060040160009054906101000a900473ffffffffffffffffffffffffffffffffffffffff1673ffffffffffffffffffffffffffffffffffffffff1673ffffffffffffffffffffffffffffffffffffffff16815260200190815260200160002054826131eb565b601260003373ffffffffffffffffffffffffffffffffffffffff1673ffffffffffffffffffffffffffffffffffffffff1681526020019081526020016000206000601060003373ffffffffffffffffffffffffffffffffffffffff1673ffffffffffffffffffffffffffffffffffffffff16815260200190815260200160002060040160009054906101000a900473ffffffffffffffffffffffffffffffffffffffff1673ffffffffffffffffffffffffffffffffffffffff1673ffffffffffffffffffffffffffffffffffffffff168152602001908152602001600020819055506000601060003373ffffffffffffffffffffffffffffffffffffffff1673ffffffffffffffffffffffffffffffffffffffff16815260200190815260200160002060010181905550612dea601060003373ffffffffffffffffffffffffffffffffffffffff1673ffffffffffffffffffffffffffffffffffffffff16815260200190815260200160002060000154876131d4565b601060003373ffffffffffffffffffffffffffffffffffffffff1673ffffffffffffffffffffffffffffffffffffffff1681526020019081526020016000206000018190555042601060003373ffffffffffffffffffffffffffffffffffffffff1673ffffffffffffffffffffffffffffffffffffffff168152602001908152602001600020600201819055503373ffffffffffffffffffffffffffffffffffffffff166108fc879081150290604051600060405180830381858888f19350505050158015612ebd573d6000803e3d6000fd5b50505050505050565b600960003373ffffffffffffffffffffffffffffffffffffffff1673ffffffffffffffffffffffffffffffffffffffff16815260200190815260200160002060030154341015612f1557600080fd5b600960003373ffffffffffffffffffffffffffffffffffffffff1673ffffffffffffffffffffffffffffffffffffffff168152602001908152602001600020600701544211612f6e57612f693460006138a4565b612f7a565b612f793460016138a4565b5b565b600a6020528160005260406000208181548110612f9857600080fd5b90600052602060002090600a0201600091509150508060000160009054906101000a900473ffffffffffffffffffffffffffffffffffffffff16908060010154908060020154908060030154908060040154908060050160009054906101000a900460ff16908060050160019054906101000a900460ff1690806006015490806007015490806008015490806009015490508b565b505050565b61303a61249b565b6130ac576040517f08c379a00000000000000000000000000000000000000000000000000000000081526004018080602001828103825260168152602001807f596f7520617265206e6f7420746865206f776e65722e0000000000000000000081525060200191505060405180910390fd5b600073ffffffffffffffffffffffffffffffffffffffff168173ffffffffffffffffffffffffffffffffffffffff1614156130e657600080fd5b8073ffffffffffffffffffffffffffffffffffffffff167f8be0079c531659141344cd1fd0a4f28419497f9722a3daafe3b4186f6b6457e060008054906101000a900473ffffffffffffffffffffffffffffffffffffffff16604051808273ffffffffffffffffffffffffffffffffffffffff16815260200191505060405180910390a250565b60008082848161317957fe5b0490508091505092915050565b6000818385028161319357fe5b0490509392505050565b6000808314156131b057600090506131ce565b60008284029050828482816131c157fe5b04146131c957fe5b809150505b92915050565b6000828211156131e057fe5b818303905092915050565b6000808284019050838110156131fd57fe5b8091505092915050565b600080600260009054906101000a900473ffffffffffffffffffffffffffffffffffffffff1673ffffffffffffffffffffffffffffffffffffffff1663f3167c05856040518263ffffffff1660e01b8152600401808273ffffffffffffffffffffffffffffffffffffffff16815260200191505060206040518083038186803b15801561329357600080fd5b505afa1580156132a7573d6000803e3d6000fd5b505050506040513d60208110156132bd57600080fd5b810190808051906020019092919050505090506000601060003373ffffffffffffffffffffffffffffffffffffffff1673ffffffffffffffffffffffffffffffffffffffff16815260200190815260200160002060010154905060008082111561332b5761332a826139f1565b5b600085111561341d5760001515601060003373ffffffffffffffffffffffffffffffffffffffff1673ffffffffffffffffffffffffffffffffffffffff16815260200190815260200160002060060160009054906101000a900460ff16151514156133c5576133c2600f60008a8152602001908152602001600020600089815260200190815260200160002060000154600261319d565b90505b60011515601060003373ffffffffffffffffffffffffffffffffffffffff1673ffffffffffffffffffffffffffffffffffffffff16815260200190815260200160002060060160009054906101000a90505050613448565b600f600089815260200190815260200160002060008881526020019081526020016000206000015490505b61345d6134578a836064613186565b8461316d565b935050505095945050505050565b600080606490506000601060003373ffffffffffffffffffffffffffffffffffffffff1673ffffffffffffffffffffffffffffffffffffffff1681526020019081526020016000206001015490506000601060003373ffffffffffffffffffffffffffffffffffffffff1673ffffffffffffffffffffffffffffffffffffffff16815260200190815260200160002060040160009054906101000a900473ffffffffffffffffffffffffffffffffffffffff1690506000600260009054906101000a900473ffffffffffffffffffffffffffffffffffffffff1673ffffffffffffffffffffffffffffffffffffffff1663f3167c05836040518263ffffffff1660e01b8152600401808273ffffffffffffffffffffffffffffffffffffffff16815260200191505060206040518083038186803b1580156135ab57600080fd5b505afa1580156135bf573d6000803e3d6000fd5b505050506040513d60208110156135d557600080fd5b810190808051906020019092919050505090506000808411156138945760048814801561360d5750600487148061360c5750600587145b5b1561361b57604b9450613641565b600588148015613636575060048714806136355750600587145b5b1561364057603294505b5b60011515601060003373ffffffffffffffffffffffffffffffffffffffff1673ffffffffffffffffffffffffffffffffffffffff16815260200190815260200160002060060160009054906101000a900460ff161515141561371e576136cf600f60008a8152602001908152602001600020600089815260200190815260200160002060000154600261319d565b90506000601060003373ffffffffffffffffffffffffffffffffffffffff1673ffffffffffffffffffffffffffffffffffffffff16815260200190815260200160002060050181905550613749565b600f600089815260200190815260200160002060008881526020019081526020016000206000015490505b60006137d46137ce61379f601060003373ffffffffffffffffffffffffffffffffffffffff1673ffffffffffffffffffffffffffffffffffffffff16815260200190815260200160002060000154896064613186565b600f60008d815260200190815260200160002060008c8152602001908152602001600020600001546064613186565b8461316d565b90508481106137eb5784965050505050505061389e565b60006137f786836131d4565b9050613842601160008773ffffffffffffffffffffffffffffffffffffffff1673ffffffffffffffffffffffffffffffffffffffff16815260200190815260200160002054826131eb565b601160008773ffffffffffffffffffffffffffffffffffffffff1673ffffffffffffffffffffffffffffffffffffffff168152602001908152602001600020819055508197505050505050505061389e565b6000955050505050505b92915050565b6138f0600960003373ffffffffffffffffffffffffffffffffffffffff1673ffffffffffffffffffffffffffffffffffffffff16815260200190815260200160002060020154836131d4565b600960003373ffffffffffffffffffffffffffffffffffffffff1673ffffffffffffffffffffffffffffffffffffffff16815260200190815260200160002060020181905550613943426228206f6131eb565b600960003373ffffffffffffffffffffffffffffffffffffffff1673ffffffffffffffffffffffffffffffffffffffff1681526020019081526020016000206007018190555080156139ed5760006139e96139e042600960003373ffffffffffffffffffffffffffffffffffffffff1673ffffffffffffffffffffffffffffffffffffffff168152602001908152602001600020600701546131d4565b6201518061316d565b9050505b5050565b6000601060003373ffffffffffffffffffffffffffffffffffffffff1673ffffffffffffffffffffffffffffffffffffffff168152602001908152602001600020600001549050600080601060003373ffffffffffffffffffffffffffffffffffffffff1673ffffffffffffffffffffffffffffffffffffffff16815260200190815260200160002060040160009054906101000a900473ffffffffffffffffffffffffffffffffffffffff169050600080613aac856140df565b915091506000600260009054906101000a900473ffffffffffffffffffffffffffffffffffffffff1673ffffffffffffffffffffffffffffffffffffffff1663f3167c05856040518263ffffffff1660e01b8152600401808273ffffffffffffffffffffffffffffffffffffffff16815260200191505060206040518083038186803b158015613b3b57600080fd5b505afa158015613b4f573d6000803e3d6000fd5b505050506040513d6020811015613b6557600080fd5b8101908080519060200190929190505050905060011515601060003373ffffffffffffffffffffffffffffffffffffffff1673ffffffffffffffffffffffffffffffffffffffff16815260200190815260200160002060060160009054906101000a900460ff1615151415613c9757613c48600f6000601060003373ffffffffffffffffffffffffffffffffffffffff1673ffffffffffffffffffffffffffffffffffffffff168152602001908152602001600020600301548152602001908152602001600020600084815260200190815260200160002060000154600261319d565b94506000601060003373ffffffffffffffffffffffffffffffffffffffff1673ffffffffffffffffffffffffffffffffffffffff16815260200190815260200160002060050181905550613d04565b600f6000601060003373ffffffffffffffffffffffffffffffffffffffff1673ffffffffffffffffffffffffffffffffffffffff16815260200190815260200160002060030154815260200190815260200160002060008381526020019081526020016000206000015494505b6000613d8f613d89613d1889876064613186565b600f6000601060003373ffffffffffffffffffffffffffffffffffffffff1673ffffffffffffffffffffffffffffffffffffffff1681526020019081526020016000206003015481526020019081526020016000206000878152602001908152602001600020600001546064613186565b8361316d565b9050878110613eeb57613e1e601260003373ffffffffffffffffffffffffffffffffffffffff1673ffffffffffffffffffffffffffffffffffffffff16815260200190815260200160002060008773ffffffffffffffffffffffffffffffffffffffff1673ffffffffffffffffffffffffffffffffffffffff16815260200190815260200160002054896131eb565b601260003373ffffffffffffffffffffffffffffffffffffffff1673ffffffffffffffffffffffffffffffffffffffff16815260200190815260200160002060008773ffffffffffffffffffffffffffffffffffffffff1673ffffffffffffffffffffffffffffffffffffffff168152602001908152602001600020819055506000601060003373ffffffffffffffffffffffffffffffffffffffff1673ffffffffffffffffffffffffffffffffffffffff168152602001908152602001600020600101819055506140d5565b6000613ef789836131d4565b9050613f42601160008873ffffffffffffffffffffffffffffffffffffffff1673ffffffffffffffffffffffffffffffffffffffff16815260200190815260200160002054826131eb565b601160008873ffffffffffffffffffffffffffffffffffffffff1673ffffffffffffffffffffffffffffffffffffffff1681526020019081526020016000208190555061400b601260003373ffffffffffffffffffffffffffffffffffffffff1673ffffffffffffffffffffffffffffffffffffffff16815260200190815260200160002060008873ffffffffffffffffffffffffffffffffffffffff1673ffffffffffffffffffffffffffffffffffffffff16815260200190815260200160002054836131eb565b601260003373ffffffffffffffffffffffffffffffffffffffff1673ffffffffffffffffffffffffffffffffffffffff16815260200190815260200160002060008873ffffffffffffffffffffffffffffffffffffffff1673ffffffffffffffffffffffffffffffffffffffff168152602001908152602001600020819055506000601060003373ffffffffffffffffffffffffffffffffffffffff1673ffffffffffffffffffffffffffffffffffffffff16815260200190815260200160002060010181905550505b5050505050505050565b600080600080601060003373ffffffffffffffffffffffffffffffffffffffff1673ffffffffffffffffffffffffffffffffffffffff168152602001908152602001600020600301549050600067058d15e176280000861161414457600192506141d7565b671bc16d674ec80000861161415c57600292506141d6565b674563918244f40000861161417457600392506141d5565b68015af1d78b58c4000086116141ae5760049250600482141561419a57604b90506141a9565b60058214156141a857603290505b5b6141d4565b6005925060048214156141c457604b90506141d3565b60058214156141d257603290505b5b5b5b5b5b808394509450505050915091565b828054600181600116156101000203166002900490600052602060002090601f01602090048101928261421b5760008555614262565b82601f1061423457805160ff1916838001178555614262565b82800160010185558215614262579182015b82811115614261578251825591602001919060010190614246565b5b50905061426f9190614273565b5090565b5b8082111561428c576000816000905550600101614274565b509056fe43757272656e74207374616b696e6720706572696f64206973206e6f74206f7665722079657454696572206e756d626572206d7573742062652061206e756d626572206265747765656e203120616e6420352e4572726f722c206465706f736974206d75737420626520686967686572207468616e20302e30313520455448416d6f756e7420696e2043424c54206d75737420626520686967686572207468616e20353020746f74616c20776f72746820696e2076616c75652e5061796d656e7420706572696f6420657863656564732074686174206f662074686520746965722c20706c6561732074727920616761696ea26469706673582212209d218803cf0bf0f6f5e3d255b655b406d0e1c0309bdf3873df0c24d6adff53a664736f6c63430007060033",
  "immutableReferences": {},
  "source": "// SPDX-License-Identifier: MIT\npragma solidity >=0.4.22 <0.9.0;\n\nimport \"./interfaces/Ownable.sol\";\nimport \"./interfaces/IERC20.sol\";\nimport \"./interfaces/SafeMath.sol\";\nimport \"./interfaces/UniversalERC20.sol\";\nimport \"./ExchangeOracle.sol\";\n\n// 0x433C6E3D2def6E1fb414cf9448724EFB0399b698\n\ncontract Bank is Ownable {\n    using UniversalERC20 for IERC20;\n\n    /**\n     * @dev storing CBLT token in ERC20 type\n     */\n    IERC20 token;\n\n    /**\n     * @dev Creating oracle instance\n     */\n    ExchangeOracle oracle;\n\n    /**\n     * @dev CobaltLend oracle for scoring and CBLT price\n     */\n    address oracleAddress;\n\n    constructor(address _CBLT, address _oracle) {\n        oracle = ExchangeOracle(_oracle);\n        token = IERC20(_CBLT);\n\n        loanTiers[5].maxVoters = 100;\n        loanTiers[5].maximumPaymentPeriod = 60;\n        loanTiers[5].principalLimit = 500000;\n\n        tokenReserve[\n            0x433C6E3D2def6E1fb414cf9448724EFB0399b698\n        ] = 6000000000000000000000000000;\n        tokenReserve[\n            0x95b58a6Bff3D14B7DB2f5cb5F0Ad413DC2940658\n        ] = 6000000000000000000000000000;\n\n        // Time tier at launch is 5\n        tierMax = 5;\n\n        // Staking percentages based on deposit time and amount\n        stakingRewardRate[1][1].interest = 1;\n        stakingRewardRate[1][1].amountStakersLeft = 0;\n        stakingRewardRate[1][1].tierDuration = 2629743;\n        stakingRewardRate[1][2].interest = 2;\n        stakingRewardRate[1][2].amountStakersLeft = 0;\n        stakingRewardRate[1][2].tierDuration = 2629743;\n        stakingRewardRate[1][3].interest = 3;\n        stakingRewardRate[1][3].amountStakersLeft = 0;\n        stakingRewardRate[1][3].tierDuration = 2629743;\n        stakingRewardRate[1][4].interest = 4;\n        stakingRewardRate[1][4].amountStakersLeft = 0;\n        stakingRewardRate[1][4].tierDuration = 2629743;\n        stakingRewardRate[1][5].interest = 4;\n        stakingRewardRate[1][5].amountStakersLeft = 0;\n        stakingRewardRate[1][5].tierDuration = 2629743;\n        //\n        stakingRewardRate[2][1].interest = 1;\n        stakingRewardRate[2][1].amountStakersLeft = 0;\n        stakingRewardRate[2][1].tierDuration = 5259486;\n        stakingRewardRate[2][2].interest = 2;\n        stakingRewardRate[2][2].amountStakersLeft = 0;\n        stakingRewardRate[2][2].tierDuration = 5259486;\n        stakingRewardRate[2][3].interest = 3;\n        stakingRewardRate[2][3].amountStakersLeft = 0;\n        stakingRewardRate[2][3].tierDuration = 5259486;\n        stakingRewardRate[2][4].interest = 4;\n        stakingRewardRate[2][4].amountStakersLeft = 0;\n        stakingRewardRate[2][4].tierDuration = 5259486;\n        stakingRewardRate[2][5].interest = 4;\n        stakingRewardRate[2][5].amountStakersLeft = 0;\n        stakingRewardRate[2][5].tierDuration = 5259486;\n        //\n        stakingRewardRate[3][1].interest = 1;\n        stakingRewardRate[3][1].amountStakersLeft = 0;\n        stakingRewardRate[3][1].tierDuration = 7889229;\n        stakingRewardRate[3][2].interest = 2;\n        stakingRewardRate[3][2].amountStakersLeft = 0;\n        stakingRewardRate[3][2].tierDuration = 7889229;\n        stakingRewardRate[3][3].interest = 3;\n        stakingRewardRate[3][3].amountStakersLeft = 0;\n        stakingRewardRate[3][3].tierDuration = 7889229;\n        stakingRewardRate[3][4].interest = 4;\n        stakingRewardRate[3][4].amountStakersLeft = 0;\n        stakingRewardRate[3][4].tierDuration = 7889229;\n        stakingRewardRate[3][5].interest = 4;\n        stakingRewardRate[3][5].amountStakersLeft = 0;\n        stakingRewardRate[3][5].tierDuration = 7889229;\n        //\n        stakingRewardRate[4][1].interest = 3;\n        stakingRewardRate[4][1].amountStakersLeft = 500;\n        stakingRewardRate[4][1].tierDuration = 15778458;\n        stakingRewardRate[4][2].interest = 5;\n        stakingRewardRate[4][2].amountStakersLeft = 500;\n        stakingRewardRate[4][2].tierDuration = 15778458;\n        stakingRewardRate[4][3].interest = 5;\n        stakingRewardRate[4][3].amountStakersLeft = 500;\n        stakingRewardRate[4][3].tierDuration = 15778458;\n        stakingRewardRate[4][4].interest = 5;\n        stakingRewardRate[4][4].amountStakersLeft = 1000;\n        stakingRewardRate[4][4].tierDuration = 15778458;\n        stakingRewardRate[4][5].interest = 5;\n        stakingRewardRate[4][5].amountStakersLeft = 1000;\n        stakingRewardRate[4][5].tierDuration = 15778458;\n        //\n        stakingRewardRate[5][1].interest = 4;\n        stakingRewardRate[5][1].amountStakersLeft = 500;\n        stakingRewardRate[5][1].tierDuration = 31556916;\n        stakingRewardRate[5][2].interest = 5;\n        stakingRewardRate[5][2].amountStakersLeft = 500;\n        stakingRewardRate[5][2].tierDuration = 31556916;\n        stakingRewardRate[5][3].interest = 5;\n        stakingRewardRate[5][3].amountStakersLeft = 500;\n        stakingRewardRate[5][3].tierDuration = 31556916;\n        stakingRewardRate[5][4].interest = 6;\n        stakingRewardRate[5][4].amountStakersLeft = 1000;\n        stakingRewardRate[5][4].tierDuration = 31556916;\n        stakingRewardRate[5][5].interest = 7;\n        stakingRewardRate[5][5].amountStakersLeft = 1000;\n        stakingRewardRate[5][5].tierDuration = 31556916;\n    }\n\n    /**\n     * @dev Events emitted\n     */\n    event onReceived(address indexed _from, uint256 _amount);\n    event onTransfer(\n        address indexed _from,\n        address indexed _to,\n        uint256 _amount\n    );\n    event depositToken(address indexed _from, uint256 _amount);\n\n    // **************************************** DEV VOTE ************************************************\n\n    mapping(address => bool) devBook;\n    address[] devArray;\n    string proposedChange;\n    uint256 intProposed;\n    address addressProposed;\n    bool boolProposed;\n\n    modifier clearedAction(\n        uint256 percentage,\n        string memory _currentChange,\n        string memory _proposedChange\n    ) {\n        uint256 votes;\n        uint256 totalVotes = devArray.length;\n\n        for (uint256 i = 0; i < devArray.length; i++) {\n            if (devBook[devArray[i]] == true) {\n                votes++;\n            }\n        }\n\n        require(SafeMath.multiply(votes, totalVotes, 100) >= percentage);\n        require(bytes(_proposedChange).length == bytes(_currentChange).length);\n\n        for (uint256 i = 0; i < devArray.length; i++) {\n            devBook[devArray[i]] = false;\n        }\n        _;\n    }\n\n    function proposeNumberChange(uint256 _num) public {\n        for (uint256 i = 0; i < devArray.length; i++) {\n            devBook[devArray[i]] = false;\n        }\n        intProposed = _num;\n        proposedChange = \"number\";\n    }\n\n    // proposeBoolChange(bool _bool)  proposedChange = \"bool\"\n    // proposeAddressChange(address _address)  proposedChange = \"string\"\n    // addDevTeam\n    // deleteDevTeam\n\n    // function changeInterest()\n    //     public\n    //     clearedAction(75, \"number\", proposedChange)\n    // {\n    //     uint256 interest = intProposed;\n    // }\n\n    // ****************************** Lending **********************************\n\n    /**\n     * @dev Mapping with key to store all loan information with the key of borrower address\n     *  and value of Loan struct with all loan information\n     */\n    mapping(address => Loan) public loanBook;\n\n    /**\n     * @dev Informstion from previously fullfilled loans are stored into the blockchain\n     * before being permanently deleted\n     */\n    mapping(address => Loan[]) public loanRecords;\n\n    /**\n     * @dev struct to access information on tier structure\n     */\n    struct loanTier {\n        uint256 principalLimit;\n        uint256 maximumPaymentPeriod;\n        uint256 maxVoters;\n    }\n\n    mapping(uint256 => loanTier) loanTiers;\n\n    /**\n     * @dev Struct to store loan information\n     */\n    struct Loan {\n        address borrower; // Address of wallet\n        uint256 amountBorrowed; // Initial loan balance\n        uint256 remainingBalance; // Remaining balance\n        uint256 minimumPayment; // MinimumPayment // Can be calculated off total amount\n        uint256 collateral; // Amount owed back to borrower after loan is paid in full\n        bool active; // Is the current loan active (Voted yes)\n        bool initialized; // Does the borrower have a current loan application\n        uint256 timeCreated; // Time of loan application also epoch in days\n        uint256 dueDate; // Time of contract ending\n        uint256 totalVote; // Total amount determined by tier\n        uint256 yes; // Amount of votes for yes\n        // address currentCoin; // Address of collateral coin\n    }\n\n    /**\n     * @dev Recalculates interest and also conducts check and balances\n     */\n\n    function newLoan(uint256 _paymentPeriod, uint256 _principal)\n        public\n        payable\n    {\n        require(loanBook[msg.sender].initialized == false);\n\n        uint256 riskScore = 20; // NFT ENTRY!!!!\n        uint256 riskFactor = 15; // NFT ENTRY!!!!\n        uint256 interestRate = 2; // NFT ENTRY!!!!\n        uint256 userMaxTier = 5; // NFT ENTRY!!!!\n        // uint256 flatfee = 400; // NFT ENTRY!!!!\n\n        require(\n            _paymentPeriod <= loanTiers[userMaxTier].maximumPaymentPeriod,\n            \"Payment period exceeds that of the tier, pleas try again\"\n        );\n\n        // One dollar in ETH\n        uint256 oneUSDinETH =\n            SafeMath.div(100000000000000000000, oracle.priceOfETH());\n\n        // Calculate how much is being borrowed in USD - must be within limits of the tier\n        uint256 amountBorrowed = SafeMath.div(_principal, oneUSDinETH);\n        require(amountBorrowed <= loanTiers[userMaxTier].principalLimit);\n\n        // Pay loan application lee to cover for fees\n        // require(msg.value >= SafeMath.mul(oneUSDinETH,flatfee)); // Needs change based on current prices\n\n        (uint256 CBLTprice, uint256 ETHprice, bool ready) =\n            oracle.priceOfPair(\n                address(token),\n                0xEeeeeEeeeEeEeeEeEeEeeEEEeeeeEeeeeeeeEEeE\n            );\n\n        // Calculate collateral in CBLT based on principal, riskScore and riskFactor\n        uint256 collateralInCBLT =\n            SafeMath.div(\n                SafeMath.multiply(\n                    _principal,\n                    SafeMath.mul(riskScore, riskFactor),\n                    100\n                ),\n                CBLTprice\n            );\n\n        // Calculate new principal with the added interest\n        uint256 finalPrincipal =\n            SafeMath.add(\n                _principal,\n                SafeMath.multiply(_principal, interestRate, 100)\n            );\n\n        uint256 monthlyPayment = SafeMath.div(finalPrincipal, _paymentPeriod);\n\n        require(\n            token.transferFrom(msg.sender, address(this), collateralInCBLT) ==\n                true,\n            \"Payment was not approved.\"\n        );\n\n        loanBook[msg.sender] = Loan(\n            msg.sender,\n            _principal,\n            finalPrincipal,\n            monthlyPayment,\n            collateralInCBLT,\n            false,\n            true,\n            SafeMath.add(block.timestamp, 2629743),\n            block.timestamp,\n            loanTiers[userMaxTier].maxVoters,\n            0\n        );\n    }\n\n    /**\n     * @dev\n     */\n\n    function processPeriod(uint256 _payment, bool _missedPayment) internal {\n        loanBook[msg.sender].remainingBalance = SafeMath.sub(\n            loanBook[msg.sender].remainingBalance,\n            _payment\n        );\n\n        loanBook[msg.sender].dueDate = SafeMath.add(block.timestamp, 2629743);\n\n        if (_missedPayment) {\n            // Needs to interact with the NFT\n            // Collateral is substracted\n            // Strike system // Connected to NFT\n            uint256 daysMissed =\n                SafeMath.div(\n                    SafeMath.sub(block.timestamp, loanBook[msg.sender].dueDate),\n                    86400\n                );\n            if (daysMissed > 7) {\n                // Suspend loan\n            }\n        }\n    }\n\n    /**\n     * @dev\n     */\n    function validate() public {} // Only devs\n\n    /**\n     * @dev Function for the user to make a payment with ETH\n     *\n     */\n    function makePayment() public payable {\n        require(msg.value >= loanBook[msg.sender].minimumPayment);\n\n        if (block.timestamp <= loanBook[msg.sender].dueDate) {\n            processPeriod(msg.value, false);\n        } else {\n            processPeriod(msg.value, true);\n        }\n    }\n\n    /**\n     * @dev\n     */\n    function returnCollateral() public {\n        require(loanBook[msg.sender].remainingBalance == 0);\n\n        uint256 amount = loanBook[msg.sender].collateral;\n        require(token.transfer(msg.sender, amount));\n\n        loanBook[msg.sender].collateral = 0;\n    }\n\n    /**\n     * @dev Deletes loan instance once the user has paid his active loan in full\n     */\n    function cleanSlate() public {\n        require(loanBook[msg.sender].remainingBalance == 0);\n        loanRecords[msg.sender].push(loanBook[msg.sender]);\n        delete loanBook[msg.sender];\n    }\n\n    // **************************** Staking ******************************\n    /**\n     * @dev Variable displays information on ETH staked in the treasury for time tiers 4 and 5.\n     */\n    uint256 public borrowingPool;\n\n    /**\n     * @dev Variable displaying the maximum time tier supported.\n     * @notice This action can only be perform under dev vote\n     */\n    uint256 public tierMax;\n\n    /**\n     * @dev Variable to turn staking off and on\n     * @notice This action can only be perform under dev vote\n     */\n    bool public stakingStatus;\n\n    /**\n     * @dev Struct saves tier interest, monitor amount of stakers allowed per tier and\n     * tier duration used to calculate due dates.\n     */\n    struct crossTier {\n        uint256 interest;\n        uint256 amountStakersLeft;\n        uint256 tierDuration;\n    }\n\n    /**\n     * @dev Nested mappings with key value uint (time tier) leads to submapping with key value uint\n     * (amount tier) that leads the crossTier combination to pull the combination's interest amount of stakers\n     * avaliable and the tier duration used to calculate due date period.\n     */\n    mapping(uint256 => mapping(uint256 => crossTier)) public stakingRewardRate;\n\n    /**\n     * @dev Getter function pulls current tier information.\n     * @param _amountTier key tier amount value used to access tier combination.\n     * @param _timeTier key tier time value used to access tier combination.\n     * @return Returns the interest under time and amount tier combination, amount of stakers avaliable.\n     * and the tierDuration or period staked in EPOCH.\n     */\n    function getTierInformation(uint256 _amountTier, uint256 _timeTier)\n        public\n        view\n        returns (\n            uint256,\n            uint256,\n            uint256\n        )\n    {\n        return (\n            stakingRewardRate[_timeTier][_amountTier].interest,\n            stakingRewardRate[_timeTier][_amountTier].amountStakersLeft,\n            stakingRewardRate[_timeTier][_amountTier].tierDuration\n        );\n    }\n\n    /**\n     * @dev Setter function to modify interests based on time and amount\n     * @notice Function is used to modify existing tiers or create new tiers if new\n     * tier key values are passed, creating new tier combinations.If time tier used\n     * is higher than current tier max, new tier combination was just created and\n     * tierMax should change to new cap\n     * @notice This action can only be perform under dev vote\n     * @param _amountTier key tier amount value used to access tier combination.\n     * @param _timeTier key tier time value used to access tier combination.\n     * @param _interest new interest to be modified.\n     * @param _amountStakersLeft new interest to be modified.\n     * @param _tierDuration new tier duration to be modified.\n     */\n    function setTierInformation(\n        uint256 _amountTier,\n        uint256 _timeTier,\n        uint256 _interest,\n        uint256 _amountStakersLeft,\n        uint256 _tierDuration\n    ) public {\n        stakingRewardRate[_timeTier][_amountTier].interest = _interest;\n        stakingRewardRate[_timeTier][_amountTier]\n            .amountStakersLeft = _amountStakersLeft;\n        stakingRewardRate[_timeTier][_amountTier].tierDuration = _tierDuration;\n        // Check if time tier modified increases the tierMax cap\n        if (_timeTier > tierMax) {\n            tierMax = _timeTier; // Save new tierMax if so\n        }\n    }\n\n    /**\n     * @dev Struct saves user data for ongoing staking and lottery results.\n     */\n    struct User {\n        uint256 ethBalance;\n        uint256 tokenReserved;\n        uint256 depositTime;\n        uint256 timeStakedTier;\n        address currentTokenStaked;\n        uint256 lotteryTicket;\n        bool withdrawReady;\n    }\n\n    /**\n     * @dev Mapping with key value address(the user's address) leads to the struct with the user's\n     * staking and lottery information.\n     */\n    mapping(address => User) public userBook;\n\n    /**\n     * @dev Getter function to pull information from the user.\n     * @param _userAddress address of the queried user.\n     */\n    function getUser(address _userAddress)\n        public\n        view\n        returns (\n            uint256,\n            uint256,\n            uint256,\n            uint256,\n            address,\n            uint256,\n            bool\n        )\n    {\n        return (\n            userBook[_userAddress].ethBalance,\n            userBook[_userAddress].tokenReserved,\n            userBook[_userAddress].depositTime,\n            userBook[_userAddress].timeStakedTier,\n            userBook[_userAddress].currentTokenStaked,\n            userBook[_userAddress].lotteryTicket,\n            userBook[_userAddress].withdrawReady\n        );\n    }\n\n    /**\n     * @dev Mapping with key value address (token address) leads the current reserves avaliable for tokens\n     * being currently offered to stake on.\n     */\n    mapping(address => uint256) public tokenReserve;\n\n    /**\n     * @dev Mapping with key value address (user address) leads to submapping with key value address\n     * (token address) to pull the current balance rewarded to that user in the tokens\n     */\n    mapping(address => mapping(address => uint256)) public rewardWallet;\n\n    /**\n     * @dev Struct saves information on previous lottery tickets. Saves information on the time and amount\n     * tier the user is allowed to stake to redeem his x2 staking reward.\n     */\n    struct LotteryTicket {\n        uint256 lotteryTimeTier;\n        uint256 lotteryAmountTier;\n    }\n\n    /**\n     * @dev Mapping with key value uint (lottery ticket) leads to the information on ticket amount and time\n     * tier for the user to redeem his reward staking.\n     */\n    mapping(uint256 => LotteryTicket) lotteryBook;\n\n    /**\n     * @dev Modifier checks if staking is currently online, the deposit is higher\n     * than 0.015 ETH and tier value falls under the supported amount\n     */\n    modifier isValidStake(uint256 _timeStakedTier) {\n        // Checks if staking is currently online\n        require(stakingStatus == true, \"Staking is currently offline\");\n\n        // Minimum deposit of 0.015 ETH\n        require(\n            msg.value > 15e16,\n            \"Error, deposit must be higher than 0.015 ETH\"\n        );\n\n        // The tier input must be between 1 and tierMax\n        require(\n            _timeStakedTier >= 1 && _timeStakedTier <= tierMax,\n            \"Tier number must be a number between 1 and 5.\"\n        );\n        _;\n    }\n\n    /**\n     * @dev  j\n     * @param _timeStakedTier j\n     * @param _tokenAddress k\n     */\n    function depositEth(uint32 _timeStakedTier, address _tokenAddress)\n        public\n        payable\n        isValidStake(_timeStakedTier)\n    {\n        uint256 amountStakedTier;\n        uint256 paidAdvanced = 0;\n        uint256 dueDate;\n        uint256 tokensReserved;\n        uint256 lotteryTicket = userBook[msg.sender].lotteryTicket;\n\n        // Check the amountStakedTier based on deposit\n        if (msg.value <= 4e17) {\n            amountStakedTier = 1;\n        } else if (msg.value <= 2e18) {\n            amountStakedTier = 2;\n        } else if (msg.value <= 5e18) {\n            amountStakedTier = 3;\n        } else if (msg.value <= 25e18) {\n            amountStakedTier = 4;\n            if (_timeStakedTier == 4) {\n                paidAdvanced = 25;\n            } else if (_timeStakedTier == 5) {\n                paidAdvanced = 50;\n            }\n        } else {\n            amountStakedTier = 5;\n            if (_timeStakedTier == 4) {\n                paidAdvanced = 25;\n            } else if (_timeStakedTier == 5) {\n                paidAdvanced = 50;\n            }\n        }\n\n        // Checks if the user is a lottery winner and checks if amount staked and time staked is within lottery instance parameters\n        if (lotteryTicket > 0) {\n            require(\n                _timeStakedTier ==\n                    lotteryBook[userBook[msg.sender].lotteryTicket]\n                        .lotteryTimeTier &&\n                    amountStakedTier ==\n                    lotteryBook[userBook[msg.sender].lotteryTicket]\n                        .lotteryAmountTier\n            );\n        } else {\n            // Check if the tier is currently depleted\n            require(\n                stakingRewardRate[_timeStakedTier][amountStakedTier]\n                    .amountStakersLeft > 0,\n                \"Tier depleted, come back later\"\n            );\n        }\n\n        // Checking if user is restaking or this is his/her first staking instance\n        if (userBook[msg.sender].ethBalance > 0) {\n            // Creates a due date for current staking period\n            dueDate = SafeMath.add(\n                stakingRewardRate[_timeStakedTier][amountStakedTier]\n                    .tierDuration,\n                userBook[msg.sender].depositTime\n            );\n            // Revert if staking period is not over\n            require(\n                block.timestamp > 1,\n                \"Current staking period is not over yet\"\n            );\n\n            // Checks the amount of CBLT tokens that need to be reserved plus existing balance\n            tokensReserved = calculateRewardDeposit(\n                SafeMath.add(msg.value, userBook[msg.sender].ethBalance),\n                _timeStakedTier,\n                amountStakedTier,\n                _tokenAddress,\n                lotteryTicket\n            );\n        } else {\n            // Checks the amount of CBLT tokens that need to be reserved\n            tokensReserved = calculateRewardDeposit(\n                msg.value,\n                _timeStakedTier,\n                amountStakedTier,\n                _tokenAddress,\n                lotteryTicket\n            );\n        }\n\n        // Treasury must have that amount open\n        require(\n            tokensReserved <= tokenReserve[_tokenAddress],\n            \"Treasury is currently depleted\"\n        );\n\n        // Check if we are sending CBLT based on time staked\n        if (paidAdvanced > 0) {\n            uint256 tokensSent =\n                SafeMath.multiply(tokensReserved, paidAdvanced, 100);\n            // require( token.transfer(msg.sender, cbltSent), \"Transaction was not successful\" );\n\n            // Saves the amount of CBLT tokens reserved minus the amount sent in advanced\n            userBook[msg.sender].tokenReserved = SafeMath.add(\n                userBook[msg.sender].tokenReserved,\n                SafeMath.multiply(\n                    tokensReserved,\n                    SafeMath.sub(100, paidAdvanced),\n                    100\n                )\n            );\n        } else {\n            // Saves the amount of CBLT tokens reserved in user struct\n            userBook[msg.sender].tokenReserved = SafeMath.add(\n                userBook[msg.sender].tokenReserved,\n                tokensReserved\n            );\n        }\n\n        // Save amount of time staked\n        userBook[msg.sender].timeStakedTier = _timeStakedTier;\n\n        // Substract CBLT tokens reserved for user from treasury\n        tokenReserve[_tokenAddress] = SafeMath.sub(\n            tokenReserve[_tokenAddress],\n            tokensReserved\n        );\n\n        // Oracle call for current ETH price in USD\n        uint256 ETHprice = oracle.priceOfETH();\n\n        // Dollar fee based\n        uint256 ETHinUSD = SafeMath.div(100000000000000000000, ETHprice);\n\n        // Save new eth deposit in user account\n        userBook[msg.sender].ethBalance = SafeMath.add(\n            userBook[msg.sender].ethBalance,\n            SafeMath.sub(msg.value, ETHinUSD)\n        );\n\n        // Decrease number of stakers avaliable for current tier based on time and amount\n        stakingRewardRate[_timeStakedTier][amountStakedTier]\n            .amountStakersLeft = SafeMath.sub(\n            stakingRewardRate[_timeStakedTier][amountStakedTier]\n                .amountStakersLeft,\n            1\n        );\n\n        // Save token address for user\n        userBook[msg.sender].currentTokenStaked = _tokenAddress;\n\n        // Change the time of deposit\n        userBook[msg.sender].depositTime = block.timestamp;\n    }\n\n    function previousStakingMath(uint256 _amountStakedPreviously)\n        internal\n        view\n        returns (uint256, uint256)\n    {\n        uint256 previousAmountTier;\n        uint256 tierStakedPreviously = userBook[msg.sender].timeStakedTier;\n        uint256 percentBasedAmount;\n\n        // Determine the amount staked tier based on ETH balance\n        if (_amountStakedPreviously <= 4e17) {\n            previousAmountTier = 1;\n        } else if (_amountStakedPreviously <= 2e18) {\n            previousAmountTier = 2;\n        } else if (_amountStakedPreviously <= 5e18) {\n            previousAmountTier = 3;\n        } else if (_amountStakedPreviously <= 25e18) {\n            previousAmountTier = 4;\n            if (tierStakedPreviously == 4) {\n                percentBasedAmount = 75;\n            } else if (tierStakedPreviously == 5) {\n                percentBasedAmount = 50;\n            }\n        } else {\n            previousAmountTier = 5;\n            if (tierStakedPreviously == 4) {\n                percentBasedAmount = 75;\n            } else if (tierStakedPreviously == 5) {\n                percentBasedAmount = 50;\n            }\n        }\n\n        return (percentBasedAmount, previousAmountTier);\n    }\n\n    function payRewardWalletDeposit(uint256 _userReserved) internal {\n        uint256 amountStakedPreviously = userBook[msg.sender].ethBalance;\n        uint256 interest;\n        address previousTokenAddress = userBook[msg.sender].currentTokenStaked;\n        (uint256 percentBasedAmount, uint256 previousAmountTier) =\n            previousStakingMath(amountStakedPreviously);\n        uint256 previousTokenPrice = oracle.priceOfToken(previousTokenAddress);\n\n        if (userBook[msg.sender].withdrawReady == true) {\n            interest = SafeMath.mul(\n                stakingRewardRate[userBook[msg.sender].timeStakedTier][\n                    previousAmountTier\n                ]\n                    .interest,\n                2\n            );\n            userBook[msg.sender].lotteryTicket = 0;\n        } else {\n            interest = stakingRewardRate[userBook[msg.sender].timeStakedTier][\n                previousAmountTier\n            ]\n                .interest;\n        }\n\n        // Calculate the new amount of cblt reserved for user at current market price\n        uint256 newReserved =\n            SafeMath.div(\n                SafeMath.multiply(\n                    SafeMath.multiply(\n                        amountStakedPreviously,\n                        percentBasedAmount,\n                        100\n                    ),\n                    stakingRewardRate[userBook[msg.sender].timeStakedTier][\n                        previousAmountTier\n                    ]\n                        .interest,\n                    100\n                ),\n                previousTokenPrice\n            );\n\n        if (newReserved >= _userReserved) {\n            // If price decrease, send all tokens reserved\n            rewardWallet[msg.sender][previousTokenAddress] = SafeMath.add(\n                rewardWallet[msg.sender][previousTokenAddress],\n                _userReserved\n            );\n            userBook[msg.sender].tokenReserved = 0;\n        } else {\n            // If price increased, calculate the difference between new and old amount final\n            uint256 tokenDifference = SafeMath.sub(_userReserved, newReserved);\n\n            // Add lefover tokens back into treasury\n            tokenReserve[previousTokenAddress] = SafeMath.add(\n                tokenReserve[previousTokenAddress],\n                tokenDifference\n            );\n\n            // Save tokens in contract wallet\n            rewardWallet[msg.sender][previousTokenAddress] = SafeMath.add(\n                rewardWallet[msg.sender][previousTokenAddress],\n                newReserved\n            );\n            // Reset amount of tokens owed\n            userBook[msg.sender].tokenReserved = 0;\n        }\n    }\n\n    function calculateRewardDeposit(\n        uint256 _amount,\n        uint256 _timeStakedTier,\n        uint256 _amountStakedTier,\n        address _tokenAddress,\n        uint256 _lotteryTicket\n    ) internal returns (uint256) {\n        uint256 tokenPrice = oracle.priceOfToken(address(_tokenAddress));\n        uint256 userReserved = userBook[msg.sender].tokenReserved;\n        uint256 interest;\n\n        // Check if user has CBLT tokens reserved\n        if (userReserved > 0) {\n            payRewardWalletDeposit(userReserved);\n        }\n\n        // Calculate and return new CBLT reserved\n        if (_lotteryTicket > 0) {\n            if (userBook[msg.sender].withdrawReady == false) {\n                interest = SafeMath.mul(\n                    stakingRewardRate[_timeStakedTier][_amountStakedTier]\n                        .interest,\n                    2\n                );\n            }\n            userBook[msg.sender].withdrawReady == true;\n        } else {\n            interest = stakingRewardRate[_timeStakedTier][_amountStakedTier]\n                .interest;\n        }\n\n        return\n            SafeMath.div(SafeMath.multiply(_amount, interest, 100), tokenPrice);\n    }\n\n    function payRewardWalletWithdraw(\n        uint256 _timeStakedTier,\n        uint256 _amountStakedTier\n    ) internal returns (uint256) {\n        uint256 percentBasedAmount = 100;\n        uint256 userReserved = userBook[msg.sender].tokenReserved;\n        address previousTokenAddress = userBook[msg.sender].currentTokenStaked;\n        uint256 tokenPrice = oracle.priceOfToken(previousTokenAddress);\n        uint256 interest;\n\n        // If user has CBLT tokens reserved on withdraw, calculate how much is owed to him\n        if (userReserved > 0) {\n            // Determining if user was sent CBLT tokens on initial staking\n            if (\n                _timeStakedTier == 4 &&\n                (_amountStakedTier == 4 || _amountStakedTier == 5)\n            ) {\n                percentBasedAmount = 75;\n            } else if (\n                _timeStakedTier == 5 &&\n                (_amountStakedTier == 4 || _amountStakedTier == 5)\n            ) {\n                percentBasedAmount = 50;\n            }\n\n            if (userBook[msg.sender].withdrawReady == true) {\n                interest = SafeMath.mul(\n                    stakingRewardRate[_timeStakedTier][_amountStakedTier]\n                        .interest,\n                    2\n                );\n                userBook[msg.sender].lotteryTicket = 0;\n            } else {\n                interest = stakingRewardRate[_timeStakedTier][_amountStakedTier]\n                    .interest;\n            }\n\n            // Calculate the new amount of cblt reserved for user at current market price\n            uint256 newReserved =\n                SafeMath.div(\n                    SafeMath.multiply(\n                        SafeMath.multiply(\n                            userBook[msg.sender].ethBalance,\n                            percentBasedAmount,\n                            100\n                        ),\n                        stakingRewardRate[_timeStakedTier][_amountStakedTier]\n                            .interest,\n                        100\n                    ),\n                    tokenPrice\n                );\n\n            if (newReserved >= userReserved) {\n                // If token price decrease, send all tokens reserved\n                return userReserved;\n            } else {\n                // If CBLT price increased, calculate the difference between new and old amount final\n                uint256 tokenDifference =\n                    SafeMath.sub(userReserved, newReserved);\n\n                // Add lefover cblt tokens back into treasury\n                tokenReserve[previousTokenAddress] = SafeMath.add(\n                    tokenReserve[previousTokenAddress],\n                    tokenDifference\n                );\n\n                // Return new amount of CBLT owed\n                return newReserved;\n            }\n        } else {\n            return 0;\n        }\n    }\n\n    function withdrawEth(uint256 _amount) public {\n        uint256 dueDate;\n        uint256 stakingPeriod = userBook[msg.sender].timeStakedTier;\n        uint256 amountStakedTier;\n        uint256 userBalance = userBook[msg.sender].ethBalance;\n\n        // Determine the amount staked tier based on ETH balance\n        if (userBalance <= 4e17) {\n            amountStakedTier = 5;\n        } else if (userBalance <= 2e18) {\n            amountStakedTier = 4;\n        } else if (userBalance <= 5e18) {\n            amountStakedTier = 3;\n        } else if (userBalance <= 25e18) {\n            amountStakedTier = 2;\n        } else {\n            amountStakedTier = 1;\n        }\n\n        // Calulate due date based on time staked tier and deposit time\n        dueDate = SafeMath.add(\n            stakingRewardRate[stakingPeriod][amountStakedTier].tierDuration,\n            userBook[msg.sender].depositTime\n        );\n\n        // Staking period must be over before he withdraws ETH balance\n        // require(block.timestamp >= dueDate, \"Staking period is not over.\");\n\n        // Recalculate tokens based on current token value\n        uint256 stakingReward =\n            payRewardWalletWithdraw(stakingPeriod, amountStakedTier);\n        // Save reward in wallet\n        rewardWallet[msg.sender][\n            userBook[msg.sender].currentTokenStaked\n        ] = SafeMath.add(\n            rewardWallet[msg.sender][userBook[msg.sender].currentTokenStaked],\n            stakingReward\n        );\n        // Reset amount of CBLT reserved\n        userBook[msg.sender].tokenReserved = 0;\n\n        // Substract eth from user account\n        userBook[msg.sender].ethBalance = SafeMath.sub(\n            userBook[msg.sender].ethBalance,\n            _amount\n        );\n        // Change the latest time of deposit\n        userBook[msg.sender].depositTime = block.timestamp;\n\n        payable(msg.sender).transfer(_amount);\n    }\n\n    function withdrawStaking(uint256 _amount, address _withdrawTokenAddress)\n        public\n        payable\n    {\n        (uint256 tokenPrice, uint256 ETHprice) =\n            oracle.priceOfETHandCBLT(_withdrawTokenAddress);\n\n        uint256 USDtoToken =\n            SafeMath.multiply(\n                SafeMath.div(1000000000000000000, tokenPrice),\n                SafeMath.div(100000000000000000000, ETHprice),\n                1000000000000000000\n            );\n\n        require(\n            SafeMath.mul(USDtoToken, 5) > 50,\n            \"Amount in CBLT must be higher than 50 total worth in value.\"\n        );\n\n        rewardWallet[msg.sender][_withdrawTokenAddress] = SafeMath.sub(\n            rewardWallet[msg.sender][_withdrawTokenAddress],\n            _amount\n        );\n\n        // token.transfer\n    }\n\n    function lottery(\n        address _winnerAddress,\n        uint256 _timeTier,\n        uint256 _amountTier\n    ) public {}\n\n    function modifyTiers(\n        uint256 _new,\n        uint256 _amountTier,\n        uint256 _timeTier,\n        uint256 _newInterest,\n        uint256 _tierDuration\n    ) public {\n        // only devs\n        stakingRewardRate[_timeTier][_amountTier].amountStakersLeft = _new;\n        stakingRewardRate[_timeTier][_amountTier].interest = _newInterest;\n        stakingRewardRate[_timeTier][_amountTier].tierDuration = _tierDuration;\n    }\n\n    function stakingControl(bool _status) public {\n        // only devs\n        stakingStatus = _status;\n    }\n}\n\n// 7 days\n// 3 missed payments back to back\n// 4 missed payment overall\n// 6 years 100k ++++\n// 2 years 100k ----\n\n// ************************************* CHANGES ************************************\n\n// mapping (uint id => Loan) loanBook;\n// signature NFT\n\n// loanBook[id]\n// loanBook[id].signature // NFT\n\n// function borrow() {\n//     require(loanBook[id].signature == NFT.value)\n// }\n\n// ******************************** INCENTIVE SYSTEM *******************************\n\n// tier 1 - Loan  50k - Max voters 100 - 5 per head\n//        - msg.sender CBLTs > 300$ worth of ETH\n// tier 2 - Loan 100k - Max voters 150 - 7.5 per head\n//        - msg.sender CBLTs > 200\n// tier 3 - Loan 200k - Max voters 200 - 10 per head\n//        - msg.sender CBLTs > 400\n\n// ************************************** TODOS ************************************\n\n// Starting period, 12-24 months\n// Collateral paid on loan application\n// Create new function to handle application\n// Create a new function to check if loan is ready to loan\n// Array of all voters\n// Save interest amount on loan to an specific\n\n// Calling oracle from ABI\n\n// (bool result, bytes memory data) =\n//             oracleAddress.call(\n//                 abi.encodeWithSignature(\n//                     \"priceOfPair(address,address)\",\n//                     _sellToken,\n//                     _buyToken\n//                 )\n//             );\n//         // Decode bytes data\n//         (uint256 sellTokenValue, uint256 buyTokenValue) =\n//             abi.decode(data, (uint256, uint256));\n\n// Amount of CBLT present in wallet per tier\n\n// Tier 1 - 500  to  5k   USD\n// Tier 2 - 5k   to  20k  USD\n// Tier 3 - 20k  to  50k  USD\n// Tier 4 - 50k  to  100k USD\n// Tier 5 - 100k to  250k USD\n// Tier 6 - +250k         USD\n\n// Amount of votes allowed per tier\n\n// Tier 1 - 20\n// Tier 2 - 40\n// Tier 3 - 60-80\n// Tier 4 ''  '' '' Needs work\n\n// Information made public from the borrower\n// Name, eth account, email\n\n// Maximum period to pay loan per Tier\n// Tier 1 - 10k  to 25k  - 12 months\n// Tier 2 - 25k  to 50k  - 24 months\n// Tier 3 - 50k  to 100k - 36 months\n// Tier 4 - 100k to 250k - 48 months\n// Tier 5 - 250k to 1m   - 60 months\n// Tier 6 - 1m   to 5m   - 60 months\n// Tier 7 - 5m and above - 60 months\n\n// New contract logic needed to be added\n// Lending 50%\n// Long term stakers - 12\n// long term pool\n// staking - indebt\n\n// Points of entry, restricting value\n// Validate\n\n// 25% - 6\n// 50% - 12\n\n// FUNCTION TO VALIDATE LENDING\n\n// function validate(address[] memory _votersAddress, bool _voteFinal, uint _loanSignature ) public { // only devs\n//     // Oracle inject\n//     // loanbook[_loanSignature].tierUSD;\n\n//     uint256 USDtoCBLT =\n//         SafeMath.div(\n//             1000000000000000000,\n//             SafeMath.mul(2000000000000, 2843)\n//         );\n\n//     for(uint i = 0; i < _votersAddress.length;i++) { // 8 // 100\n//          _votersAddress[i];\n//          // uint tierVoters = loanbook[_loanSignature].maxVoters;\n//          // Two things\n//          // token.balanceOf(_votersAddress[i]);\n//     }\n//     // loanbook[_loanSignature].status;\n// }\n",
  "sourcePath": "/Users/christianroque/Desktop/TungstenGroupProject/contracts/Bank.sol",
  "compiler": {
    "name": "solc",
    "version": "0.7.6+commit.7338295f.Emscripten.clang"
  },
  "schemaVersion": "3.3.4",
  "updatedAt": "2021-06-09T05:22:52.659Z",
  "devdoc": {
    "events": {
      "onReceived(address,uint256)": {
        "details": "Events emitted"
      }
    },
    "kind": "dev",
    "methods": {
      "cleanSlate()": {
        "details": "Deletes loan instance once the user has paid his active loan in full"
      },
      "depositEth(uint32,address)": {
        "details": "j",
        "params": {
          "_timeStakedTier": "j",
          "_tokenAddress": "k"
        }
      },
      "getTierInformation(uint256,uint256)": {
        "details": "Getter function pulls current tier information.",
        "params": {
          "_amountTier": "key tier amount value used to access tier combination.",
          "_timeTier": "key tier time value used to access tier combination."
        },
        "returns": {
          "_0": "Returns the interest under time and amount tier combination, amount of stakers avaliable. and the tierDuration or period staked in EPOCH."
        }
      },
      "getUser(address)": {
        "details": "Getter function to pull information from the user.",
        "params": {
          "_userAddress": "address of the queried user."
        }
      },
      "makePayment()": {
        "details": "Function for the user to make a payment with ETH"
      },
      "newLoan(uint256,uint256)": {
        "details": "Recalculates interest and also conducts check and balances"
      },
      "setTierInformation(uint256,uint256,uint256,uint256,uint256)": {
        "details": "Setter function to modify interests based on time and amount",
        "params": {
          "_amountStakersLeft": "new interest to be modified.",
          "_amountTier": "key tier amount value used to access tier combination.",
          "_interest": "new interest to be modified.",
          "_tierDuration": "new tier duration to be modified.",
          "_timeTier": "key tier time value used to access tier combination."
        }
      }
    },
    "stateVariables": {
      "borrowingPool": {
        "details": "Variable displays information on ETH staked in the treasury for time tiers 4 and 5."
      },
      "loanBook": {
        "details": "Mapping with key to store all loan information with the key of borrower address  and value of Loan struct with all loan information"
      },
      "loanRecords": {
        "details": "Informstion from previously fullfilled loans are stored into the blockchain before being permanently deleted"
      },
      "lotteryBook": {
        "details": "Mapping with key value uint (lottery ticket) leads to the information on ticket amount and time tier for the user to redeem his reward staking."
      },
      "oracle": {
        "details": "Creating oracle instance"
      },
      "oracleAddress": {
        "details": "CobaltLend oracle for scoring and CBLT price"
      },
      "rewardWallet": {
        "details": "Mapping with key value address (user address) leads to submapping with key value address (token address) to pull the current balance rewarded to that user in the tokens"
      },
      "stakingRewardRate": {
        "details": "Nested mappings with key value uint (time tier) leads to submapping with key value uint (amount tier) that leads the crossTier combination to pull the combination's interest amount of stakers avaliable and the tier duration used to calculate due date period."
      },
      "stakingStatus": {
        "details": "Variable to turn staking off and on"
      },
      "tierMax": {
        "details": "Variable displaying the maximum time tier supported."
      },
      "token": {
        "details": "storing CBLT token in ERC20 type"
      },
      "tokenReserve": {
        "details": "Mapping with key value address (token address) leads the current reserves avaliable for tokens being currently offered to stake on."
      },
      "userBook": {
        "details": "Mapping with key value address(the user's address) leads to the struct with the user's staking and lottery information."
      }
    },
    "version": 1
  },
  "userdoc": {
    "kind": "user",
    "methods": {
      "setTierInformation(uint256,uint256,uint256,uint256,uint256)": {
        "notice": "Function is used to modify existing tiers or create new tiers if new tier key values are passed, creating new tier combinations.If time tier used is higher than current tier max, new tier combination was just created and tierMax should change to new capThis action can only be perform under dev vote"
      },
      "stakingStatus()": {
        "notice": "This action can only be perform under dev vote"
      },
      "tierMax()": {
        "notice": "This action can only be perform under dev vote"
      }
    },
    "version": 1
  }
}