{
  "contractName": "Bank",
  "abi": [
    {
      "inputs": [
        {
          "internalType": "address",
          "name": "_CBLT",
          "type": "address"
        },
        {
          "internalType": "address",
          "name": "_oracle",
          "type": "address"
        }
      ],
      "stateMutability": "nonpayable",
      "type": "constructor"
    },
    {
      "anonymous": false,
      "inputs": [
        {
          "indexed": false,
          "internalType": "address",
          "name": "_previousOwner",
          "type": "address"
        },
        {
          "indexed": true,
          "internalType": "address",
          "name": "_newOwner",
          "type": "address"
        }
      ],
      "name": "OwnershipTransferred",
      "type": "event"
    },
    {
      "anonymous": false,
      "inputs": [
        {
          "indexed": true,
          "internalType": "address",
          "name": "_from",
          "type": "address"
        },
        {
          "indexed": false,
          "internalType": "uint256",
          "name": "_amount",
          "type": "uint256"
        }
      ],
      "name": "depositToken",
      "type": "event"
    },
    {
      "anonymous": false,
      "inputs": [
        {
          "indexed": true,
          "internalType": "address",
          "name": "_from",
          "type": "address"
        },
        {
          "indexed": false,
          "internalType": "uint256",
          "name": "_amount",
          "type": "uint256"
        }
      ],
      "name": "onReceived",
      "type": "event"
    },
    {
      "anonymous": false,
      "inputs": [
        {
          "indexed": true,
          "internalType": "address",
          "name": "_from",
          "type": "address"
        },
        {
          "indexed": true,
          "internalType": "address",
          "name": "_to",
          "type": "address"
        },
        {
          "indexed": false,
          "internalType": "uint256",
          "name": "_amount",
          "type": "uint256"
        }
      ],
      "name": "onTransfer",
      "type": "event"
    },
    {
      "inputs": [],
      "name": "_owner",
      "outputs": [
        {
          "internalType": "address",
          "name": "",
          "type": "address"
        }
      ],
      "stateMutability": "view",
      "type": "function"
    },
    {
      "inputs": [],
      "name": "isOwner",
      "outputs": [
        {
          "internalType": "bool",
          "name": "",
          "type": "bool"
        }
      ],
      "stateMutability": "view",
      "type": "function"
    },
    {
      "inputs": [
        {
          "internalType": "address",
          "name": "_newOwner",
          "type": "address"
        }
      ],
      "name": "transferOwnership",
      "outputs": [],
      "stateMutability": "nonpayable",
      "type": "function"
    },
    {
      "inputs": [
        {
          "internalType": "address",
          "name": "",
          "type": "address"
        }
      ],
      "name": "userBook",
      "outputs": [
        {
          "internalType": "uint256",
          "name": "rewardWallet",
          "type": "uint256"
        },
        {
          "internalType": "uint256",
          "name": "ethBalance",
          "type": "uint256"
        },
        {
          "internalType": "uint256",
          "name": "cbltReserved",
          "type": "uint256"
        },
        {
          "internalType": "uint256",
          "name": "depositTime",
          "type": "uint256"
        },
        {
          "internalType": "uint256",
          "name": "timeStakedTier",
          "type": "uint256"
        }
      ],
      "stateMutability": "view",
      "type": "function"
    },
    {
      "inputs": [
        {
          "internalType": "uint256",
          "name": "_paymentPeriod",
          "type": "uint256"
        },
        {
          "internalType": "uint256",
          "name": "principal",
          "type": "uint256"
        }
      ],
      "name": "newLoan",
      "outputs": [],
      "stateMutability": "payable",
      "type": "function"
    },
    {
      "inputs": [],
      "name": "makePayment",
      "outputs": [],
      "stateMutability": "payable",
      "type": "function"
    },
    {
      "inputs": [],
      "name": "missedPayment",
      "outputs": [],
      "stateMutability": "nonpayable",
      "type": "function"
    },
    {
      "inputs": [],
      "name": "returnCollateral",
      "outputs": [],
      "stateMutability": "nonpayable",
      "type": "function"
    },
    {
      "inputs": [],
      "name": "cleanSlate",
      "outputs": [],
      "stateMutability": "nonpayable",
      "type": "function"
    },
    {
      "inputs": [
        {
          "internalType": "uint32",
          "name": "_timeStakedTier",
          "type": "uint32"
        }
      ],
      "name": "depositEth",
      "outputs": [],
      "stateMutability": "payable",
      "type": "function"
    },
    {
      "inputs": [
        {
          "internalType": "uint256",
          "name": "_amount",
          "type": "uint256"
        }
      ],
      "name": "withdrawEth",
      "outputs": [],
      "stateMutability": "nonpayable",
      "type": "function"
    },
    {
      "inputs": [
        {
          "internalType": "uint256",
          "name": "_amount",
          "type": "uint256"
        }
      ],
      "name": "withdrawStaking",
      "outputs": [],
      "stateMutability": "payable",
      "type": "function"
    },
    {
      "inputs": [
        {
          "internalType": "uint256",
          "name": "_timeStakedTier",
          "type": "uint256"
        },
        {
          "internalType": "uint256",
          "name": "_amountStakedTier",
          "type": "uint256"
        },
        {
          "internalType": "uint256",
          "name": "_newInterest",
          "type": "uint256"
        }
      ],
      "name": "changeInterest",
      "outputs": [],
      "stateMutability": "nonpayable",
      "type": "function"
    }
  ],
  "bytecode": "0x60806040526b1363156bbee3016d7000000060085534801561002057600080fd5b506040516138493803806138498339818101604052604081101561004357600080fd5b810190808051906020019092919080519060200190929190505050336000806101000a81548173ffffffffffffffffffffffffffffffffffffffff021916908373ffffffffffffffffffffffffffffffffffffffff16021790555080600260006101000a81548173ffffffffffffffffffffffffffffffffffffffff021916908373ffffffffffffffffffffffffffffffffffffffff16021790555081600160006101000a81548173ffffffffffffffffffffffffffffffffffffffff021916908373ffffffffffffffffffffffffffffffffffffffff1602179055506001600660006001815260200190815260200160002060006001815260200190815260200160002060000181905550600060066000600181526020019081526020016000206000600181526020019081526020016000206001018190555060026006600060018152602001908152602001600020600060028152602001908152602001600020600001819055506000600660006001815260200190815260200160002060006002815260200190815260200160002060010181905550600360066000600181526020019081526020016000206000600381526020019081526020016000206000018190555060006006600060018152602001908152602001600020600060038152602001908152602001600020600101819055506004600660006001815260200190815260200160002060006004815260200190815260200160002060000181905550600060066000600181526020019081526020016000206000600481526020019081526020016000206001018190555060046006600060018152602001908152602001600020600060058152602001908152602001600020600001819055506103e86006600060018152602001908152602001600020600060058152602001908152602001600020600101819055506001600660006002815260200190815260200160002060006001815260200190815260200160002060000181905550600060066000600281526020019081526020016000206000600181526020019081526020016000206001018190555060026006600060028152602001908152602001600020600060028152602001908152602001600020600001819055506000600660006002815260200190815260200160002060006002815260200190815260200160002060010181905550600360066000600281526020019081526020016000206000600381526020019081526020016000206000018190555060006006600060028152602001908152602001600020600060038152602001908152602001600020600101819055506004600660006002815260200190815260200160002060006004815260200190815260200160002060000181905550600060066000600281526020019081526020016000206000600481526020019081526020016000206001018190555060046006600060028152602001908152602001600020600060058152602001908152602001600020600001819055506000600660006002815260200190815260200160002060006005815260200190815260200160002060010181905550600160066000600381526020019081526020016000206000600181526020019081526020016000206000018190555060006006600060038152602001908152602001600020600060018152602001908152602001600020600101819055506002600660006003815260200190815260200160002060006002815260200190815260200160002060000181905550600060066000600381526020019081526020016000206000600281526020019081526020016000206001018190555060036006600060038152602001908152602001600020600060038152602001908152602001600020600001819055506000600660006003815260200190815260200160002060006003815260200190815260200160002060010181905550600460066000600381526020019081526020016000206000600481526020019081526020016000206000018190555060006006600060038152602001908152602001600020600060048152602001908152602001600020600101819055506004600660006003815260200190815260200160002060006005815260200190815260200160002060000181905550600060066000600381526020019081526020016000206000600581526020019081526020016000206001018190555060036006600060048152602001908152602001600020600060018152602001908152602001600020600001819055506101f460066000600481526020019081526020016000206000600181526020019081526020016000206001018190555060056006600060048152602001908152602001600020600060028152602001908152602001600020600001819055506101f460066000600481526020019081526020016000206000600281526020019081526020016000206001018190555060056006600060048152602001908152602001600020600060038152602001908152602001600020600001819055506101f460066000600481526020019081526020016000206000600381526020019081526020016000206001018190555060056006600060048152602001908152602001600020600060048152602001908152602001600020600001819055506103e860066000600481526020019081526020016000206000600481526020019081526020016000206001018190555060056006600060048152602001908152602001600020600060058152602001908152602001600020600001819055506103e860066000600481526020019081526020016000206000600581526020019081526020016000206001018190555060046006600060058152602001908152602001600020600060018152602001908152602001600020600001819055506101f460066000600581526020019081526020016000206000600181526020019081526020016000206001018190555060056006600060058152602001908152602001600020600060028152602001908152602001600020600001819055506101f460066000600581526020019081526020016000206000600281526020019081526020016000206001018190555060056006600060058152602001908152602001600020600060038152602001908152602001600020600001819055506101f4600660006005815260200190815260200160002060006003815260200190815260200160002060010181905550600680600060058152602001908152602001600020600060048152602001908152602001600020600001819055506103e860066000600581526020019081526020016000206000600481526020019081526020016000206001018190555060076006600060058152602001908152602001600020600060058152602001908152602001600020600001819055506103e86006600060058152602001908152602001600020600060058152602001908152602001600020600101819055505050612de080610a696000396000f3fe6080604052600436106100c25760003560e01c8063b8825aba1161007f578063d3f5475f11610059578063d3f5475f1461029c578063d8d79700146102d0578063e3610ff7146102da578063f2fde38b14610329576100c2565b8063b8825aba146101c9578063c311d0491461024a578063c7d5f59814610285576100c2565b80632e0b78f6146100c757806344ed456f146100f55780635dde3aa91461010c5780638f32d59b14610144578063a3f0bb6614610171578063b2bdfa7b14610188575b600080fd5b6100f3600480360360208110156100dd57600080fd5b810190808035906020019092919050505061037a565b005b34801561010157600080fd5b5061010a6108e7565b005b6101426004803603604081101561012257600080fd5b810190808035906020019092919080359060200190929190505050610ad8565b005b34801561015057600080fd5b50610159610f35565b60405180821515815260200191505060405180910390f35b34801561017d57600080fd5b50610186610f8c565b005b34801561019457600080fd5b5061019d6110ea565b604051808273ffffffffffffffffffffffffffffffffffffffff16815260200191505060405180910390f35b3480156101d557600080fd5b50610218600480360360208110156101ec57600080fd5b81019080803573ffffffffffffffffffffffffffffffffffffffff16906020019092919050505061110e565b604051808681526020018581526020018481526020018381526020018281526020019550505050505060405180910390f35b34801561025657600080fd5b506102836004803603602081101561026d57600080fd5b8101908080359060200190929190505050611144565b005b34801561029157600080fd5b5061029a6116d8565b005b6102ce600480360360208110156102b257600080fd5b81019080803563ffffffff16906020019092919050505061183a565b005b6102d861215a565b005b3480156102e657600080fd5b50610327600480360360608110156102fd57600080fd5b810190808035906020019092919080359060200190929190803590602001909291905050506122d4565b005b34801561033557600080fd5b506103786004803603602081101561034c57600080fd5b81019080803573ffffffffffffffffffffffffffffffffffffffff169060200190929190505050612305565b005b600080600360009054906101000a900473ffffffffffffffffffffffffffffffffffffffff1673ffffffffffffffffffffffffffffffffffffffff167329a99c126596c0dc96b02a88a9eaab44eccf511e604051602401808273ffffffffffffffffffffffffffffffffffffffff1681526020019150506040516020818303038152906040527f3ccc0522000000000000000000000000000000000000000000000000000000007bffffffffffffffffffffffffffffffffffffffffffffffffffffffff19166020820180517bffffffffffffffffffffffffffffffffffffffffffffffffffffffff83818316178352505050506040518082805190602001908083835b602083106104a1578051825260208201915060208101905060208303925061047e565b6001836020036101000a0380198251168184511680821785525050505050509050019150506000604051808303816000865af19150503d8060008114610503576040519150601f19603f3d011682016040523d82523d6000602084013e610508565b606091505b50915091506001151582151514610587576040517f08c379a000000000000000000000000000000000000000000000000000000000815260040180806020018281038252600f8152602001807f4f7261636c6520697320646f776e2e000000000000000000000000000000000081525060200191505060405180910390fd5b600080600360009054906101000a900473ffffffffffffffffffffffffffffffffffffffff1673ffffffffffffffffffffffffffffffffffffffff166040516024016040516020818303038152906040527fb52e6f27000000000000000000000000000000000000000000000000000000007bffffffffffffffffffffffffffffffffffffffffffffffffffffffff19166020820180517bffffffffffffffffffffffffffffffffffffffffffffffffffffffff83818316178352505050506040518082805190602001908083835b602083106106795780518252602082019150602081019050602083039250610656565b6001836020036101000a0380198251168184511680821785525050505050509050019150506000604051808303816000865af19150503d80600081146106db576040519150601f19603f3d011682016040523d82523d6000602084013e6106e0565b606091505b5091509150600115158215151461075f576040517f08c379a000000000000000000000000000000000000000000000000000000000815260040180806020018281038252600f8152602001807f4f7261636c6520697320646f776e2e000000000000000000000000000000000081525060200191505060405180910390fd5b600083806020019051602081101561077657600080fd5b8101908080519060200190929190505050905060008280602001905160208110156107a057600080fd5b8101908080519060200190929190505050905060006107d168056bc75e2d631000006107cc8585612440565b612477565b90506107de816032612440565b600760003373ffffffffffffffffffffffffffffffffffffffff1673ffffffffffffffffffffffffffffffffffffffff168152602001908152602001600020600001541015610895576040517f08c379a000000000000000000000000000000000000000000000000000000000815260040180806020018281038252601f8152602001807f5265776172642077616c6c657420646f6573206e6f742068617665203530240081525060200191505060405180910390fd5b6000600760003373ffffffffffffffffffffffffffffffffffffffff1673ffffffffffffffffffffffffffffffffffffffff168152602001908152602001600020600001819055505050505050505050565b6000600460003373ffffffffffffffffffffffffffffffffffffffff1673ffffffffffffffffffffffffffffffffffffffff168152602001908152602001600020600101541461093657600080fd5b6000600160009054906101000a900473ffffffffffffffffffffffffffffffffffffffff1673ffffffffffffffffffffffffffffffffffffffff166370a08231306040518263ffffffff1660e01b8152600401808273ffffffffffffffffffffffffffffffffffffffff16815260200191505060206040518083038186803b1580156109c157600080fd5b505afa1580156109d5573d6000803e3d6000fd5b505050506040513d60208110156109eb57600080fd5b81019080805190602001909291905050509050600160009054906101000a900473ffffffffffffffffffffffffffffffffffffffff1673ffffffffffffffffffffffffffffffffffffffff1663a9059cbb33836040518363ffffffff1660e01b8152600401808373ffffffffffffffffffffffffffffffffffffffff16815260200182815260200192505050602060405180830381600087803b158015610a9157600080fd5b505af1158015610aa5573d6000803e3d6000fd5b505050506040513d6020811015610abb57600080fd5b8101908080519060200190929190505050610ad557600080fd5b50565b6000601490506000600f9050600060029050600080600360009054906101000a900473ffffffffffffffffffffffffffffffffffffffff1673ffffffffffffffffffffffffffffffffffffffff167329a99c126596c0dc96b02a88a9eaab44eccf511e604051602401808273ffffffffffffffffffffffffffffffffffffffff1681526020019150506040516020818303038152906040527f3ccc0522000000000000000000000000000000000000000000000000000000007bffffffffffffffffffffffffffffffffffffffffffffffffffffffff19166020820180517bffffffffffffffffffffffffffffffffffffffffffffffffffffffff83818316178352505050506040518082805190602001908083835b60208310610c115780518252602082019150602081019050602083039250610bee565b6001836020036101000a0380198251168184511680821785525050505050509050019150506000604051808303816000865af19150503d8060008114610c73576040519150601f19603f3d011682016040523d82523d6000602084013e610c78565b606091505b50915091506001151582151514610cf7576040517f08c379a000000000000000000000000000000000000000000000000000000000815260040180806020018281038252600e8152602001807f4f7261636c6520697320646f776e00000000000000000000000000000000000081525060200191505060405180910390fd5b6000818060200190516020811015610d0e57600080fd5b810190808051906020019092919050505090506000610d42610d3c610d338989612440565b8a6103e8612490565b83612477565b90506000610d538a6228206f612477565b90506000610d618383612477565b905060001515600460003373ffffffffffffffffffffffffffffffffffffffff1673ffffffffffffffffffffffffffffffffffffffff16815260200190815260200160002060030160019054906101000a900460ff16151514610dc357600080fd5b60011515600160009054906101000a900473ffffffffffffffffffffffffffffffffffffffff1673ffffffffffffffffffffffffffffffffffffffff166323b872dd3330876040518463ffffffff1660e01b8152600401808473ffffffffffffffffffffffffffffffffffffffff1681526020018373ffffffffffffffffffffffffffffffffffffffff1681526020018281526020019350505050602060405180830381600087803b158015610e7857600080fd5b505af1158015610e8c573d6000803e3d6000fd5b505050506040513d6020811015610ea257600080fd5b8101908080519060200190929190505050151514610f28576040517f08c379a00000000000000000000000000000000000000000000000000000000081526004018080602001828103825260198152602001807f5061796d656e7420776173206e6f7420617070726f7665642e0000000000000081525060200191505060405180910390fd5b5050505050505050505050565b60008060009054906101000a900473ffffffffffffffffffffffffffffffffffffffff1673ffffffffffffffffffffffffffffffffffffffff163373ffffffffffffffffffffffffffffffffffffffff1614905090565b6000600460003373ffffffffffffffffffffffffffffffffffffffff1673ffffffffffffffffffffffffffffffffffffffff1681526020019081526020016000206001015414610fdb57600080fd5b600460003373ffffffffffffffffffffffffffffffffffffffff1673ffffffffffffffffffffffffffffffffffffffff168152602001908152602001600020600080820160006101000a81549073ffffffffffffffffffffffffffffffffffffffff0219169055600182016000905560028201600090556003820160006101000a81549060ff02191690556003820160016101000a81549060ff02191690556003820160026101000a81549067ffffffffffffffff021916905560038201600a6101000a81549067ffffffffffffffff02191690556003820160126101000a81549067ffffffffffffffff02191690556004820160006101000a81549067ffffffffffffffff02191690555050565b60008054906101000a900473ffffffffffffffffffffffffffffffffffffffff1681565b60076020528060005260406000206000915090508060000154908060010154908060020154908060030154908060040154905085565b600080600760003373ffffffffffffffffffffffffffffffffffffffff1673ffffffffffffffffffffffffffffffffffffffff168152602001908152602001600020600401549050600080600760003373ffffffffffffffffffffffffffffffffffffffff1673ffffffffffffffffffffffffffffffffffffffff16815260200190815260200160002060010154905060018314156112335761122c600760003373ffffffffffffffffffffffffffffffffffffffff1673ffffffffffffffffffffffffffffffffffffffff168152602001908152602001600020600301546228206f6124a7565b93506113a6565b60028314156112925761128b600760003373ffffffffffffffffffffffffffffffffffffffff1673ffffffffffffffffffffffffffffffffffffffff16815260200190815260200160002060030154625040de6124a7565b93506113a5565b60038314156112f1576112ea600760003373ffffffffffffffffffffffffffffffffffffffff1673ffffffffffffffffffffffffffffffffffffffff168152602001908152602001600020600301546278614d6124a7565b93506113a4565b600483141561135057611349600760003373ffffffffffffffffffffffffffffffffffffffff1673ffffffffffffffffffffffffffffffffffffffff1681526020019081526020016000206003015462f0c29a6124a7565b93506113a3565b6113a0600760003373ffffffffffffffffffffffffffffffffffffffff1673ffffffffffffffffffffffffffffffffffffffff168152602001908152602001600020600301546301e185346124a7565b93505b5b5b5b8342101561141c576040517f08c379a000000000000000000000000000000000000000000000000000000000815260040180806020018281038252601b8152602001807f5374616b696e6720706572696f64206973206e6f74206f7665722e000000000081525060200191505060405180910390fd5b67058d15e17628000081116114345760059150611485565b671bc16d674ec80000811161144c5760049150611484565b674563918244f4000081116114645760039150611483565b68015af1d78b58c40000811161147d5760029150611482565b600191505b5b5b5b60006114d4600760003373ffffffffffffffffffffffffffffffffffffffff1673ffffffffffffffffffffffffffffffffffffffff1681526020019081526020016000206001015485856124c3565b9050611522600760003373ffffffffffffffffffffffffffffffffffffffff1673ffffffffffffffffffffffffffffffffffffffff16815260200190815260200160002060000154826124a7565b600760003373ffffffffffffffffffffffffffffffffffffffff1673ffffffffffffffffffffffffffffffffffffffff168152602001908152602001600020600001819055506000600760003373ffffffffffffffffffffffffffffffffffffffff1673ffffffffffffffffffffffffffffffffffffffff168152602001908152602001600020600201819055506115fc600760003373ffffffffffffffffffffffffffffffffffffffff1673ffffffffffffffffffffffffffffffffffffffff1681526020019081526020016000206001015487612770565b600760003373ffffffffffffffffffffffffffffffffffffffff1673ffffffffffffffffffffffffffffffffffffffff1681526020019081526020016000206001018190555042600760003373ffffffffffffffffffffffffffffffffffffffff1673ffffffffffffffffffffffffffffffffffffffff168152602001908152602001600020600301819055503373ffffffffffffffffffffffffffffffffffffffff166108fc879081150290604051600060405180830381858888f193505050501580156116cf573d6000803e3d6000fd5b50505050505050565b600460003373ffffffffffffffffffffffffffffffffffffffff1673ffffffffffffffffffffffffffffffffffffffff16815260200190815260200160002060030160029054906101000a900467ffffffffffffffff1667ffffffffffffffff16421161174457600080fd5b600080611792600460003373ffffffffffffffffffffffffffffffffffffffff1673ffffffffffffffffffffffffffffffffffffffff16815260200190815260200160002060020154612787565b8092508193505050600460003373ffffffffffffffffffffffffffffffffffffffff1673ffffffffffffffffffffffffffffffffffffffff1681526020019081526020016000206001015481111561182a57600460003373ffffffffffffffffffffffffffffffffffffffff1673ffffffffffffffffffffffffffffffffffffffff1681526020019081526020016000206001015490505b611836828260006127a1565b5050565b60008060009050600060018463ffffffff1610158015611861575060058463ffffffff1611155b6118b6576040517f08c379a000000000000000000000000000000000000000000000000000000000815260040180806020018281038252602d815260200180612d52602d913960400191505060405180910390fd5b670214e8348c4f00003411611916576040517f08c379a000000000000000000000000000000000000000000000000000000000815260040180806020018281038252602c815260200180612d7f602c913960400191505060405180910390fd5b67058d15e176280000341161192e57600192506119d9565b671bc16d674ec80000341161194657600292506119d8565b674563918244f40000341161195e57600392506119d7565b68015af1d78b58c4000034116119a4576004925060048463ffffffff16141561198a576019915061199f565b60058463ffffffff16141561199e57603291505b5b6119d6565b6005925060048463ffffffff1614156119c057601991506119d5565b60058463ffffffff1614156119d457603291505b5b5b5b5b5b6000600660008663ffffffff16815260200190815260200160002060008581526020019081526020016000206001015411611a7c576040517f08c379a000000000000000000000000000000000000000000000000000000000815260040180806020018281038252601e8152602001807f54696572206465706c657465642c20636f6d65206261636b206c61746572000081525060200191505060405180910390fd5b6000600760003373ffffffffffffffffffffffffffffffffffffffff1673ffffffffffffffffffffffffffffffffffffffff1681526020019081526020016000206004015490506000811115611cf7576001811415611b2b57611b24600760003373ffffffffffffffffffffffffffffffffffffffff1673ffffffffffffffffffffffffffffffffffffffff168152602001908152602001600020600301546228206f6124a7565b9150611c9e565b6002811415611b8a57611b83600760003373ffffffffffffffffffffffffffffffffffffffff1673ffffffffffffffffffffffffffffffffffffffff16815260200190815260200160002060030154625040de6124a7565b9150611c9d565b6003811415611be957611be2600760003373ffffffffffffffffffffffffffffffffffffffff1673ffffffffffffffffffffffffffffffffffffffff168152602001908152602001600020600301546278614d6124a7565b9150611c9c565b6004811415611c4857611c41600760003373ffffffffffffffffffffffffffffffffffffffff1673ffffffffffffffffffffffffffffffffffffffff1681526020019081526020016000206003015462f0c29a6124a7565b9150611c9b565b611c98600760003373ffffffffffffffffffffffffffffffffffffffff1673ffffffffffffffffffffffffffffffffffffffff168152602001908152602001600020600301546301e185346124a7565b91505b5b5b5b814211611cf6576040517f08c379a0000000000000000000000000000000000000000000000000000000008152600401808060200182810382526026815260200180612d2c6026913960400191505060405180910390fd5b5b6000611d15348763ffffffff1687611d10606489612770565b612987565b9050600854811115611d8f576040517f08c379a000000000000000000000000000000000000000000000000000000000815260040180806020018281038252601e8152602001807f54726561737572792069732063757272656e746c79206465706c65746564000081525060200191505060405180910390fd5b6000841115611e55576000611da682866064612490565b9050611e09600760003373ffffffffffffffffffffffffffffffffffffffff1673ffffffffffffffffffffffffffffffffffffffff16815260200190815260200160002060020154611e0484611dfd60648a612770565b6064612490565b6124a7565b600760003373ffffffffffffffffffffffffffffffffffffffff1673ffffffffffffffffffffffffffffffffffffffff1681526020019081526020016000206002018190555050611ee8565b611ea1600760003373ffffffffffffffffffffffffffffffffffffffff1673ffffffffffffffffffffffffffffffffffffffff16815260200190815260200160002060020154826124a7565b600760003373ffffffffffffffffffffffffffffffffffffffff1673ffffffffffffffffffffffffffffffffffffffff168152602001908152602001600020600201819055505b8563ffffffff16600760003373ffffffffffffffffffffffffffffffffffffffff1673ffffffffffffffffffffffffffffffffffffffff16815260200190815260200160002060040181905550611f4160085482612770565b6008819055506000600260009054906101000a900473ffffffffffffffffffffffffffffffffffffffff1673ffffffffffffffffffffffffffffffffffffffff1663858b033d6040518163ffffffff1660e01b815260040160206040518083038186803b158015611fb157600080fd5b505afa158015611fc5573d6000803e3d6000fd5b505050506040513d6020811015611fdb57600080fd5b81019080805190602001909291905050509050600061200368056bc75e2d6310000083612477565b905061205a600760003373ffffffffffffffffffffffffffffffffffffffff1673ffffffffffffffffffffffffffffffffffffffff168152602001908152602001600020600101546120553484612770565b6124a7565b600760003373ffffffffffffffffffffffffffffffffffffffff1673ffffffffffffffffffffffffffffffffffffffff168152602001908152602001600020600101819055506120d8600660008a63ffffffff1681526020019081526020016000206000898152602001908152602001600020600101546001612770565b600660008a63ffffffff16815260200190815260200160002060008981526020019081526020016000206001018190555042600760003373ffffffffffffffffffffffffffffffffffffffff1673ffffffffffffffffffffffffffffffffffffffff168152602001908152602001600020600301819055505050505050505050565b600460003373ffffffffffffffffffffffffffffffffffffffff1673ffffffffffffffffffffffffffffffffffffffff16815260200190815260200160002060030160029054906101000a900467ffffffffffffffff1667ffffffffffffffff164211156121c757600080fd5b6000806121d334612787565b8092508193505050600460003373ffffffffffffffffffffffffffffffffffffffff1673ffffffffffffffffffffffffffffffffffffffff1681526020019081526020016000206001015481111561222a57600080fd5b600460003373ffffffffffffffffffffffffffffffffffffffff1673ffffffffffffffffffffffffffffffffffffffff16815260200190815260200160002060020154341015806122bc5750600460003373ffffffffffffffffffffffffffffffffffffffff1673ffffffffffffffffffffffffffffffffffffffff1681526020019081526020016000206001015481145b6122c557600080fd5b6122d08282336127a1565b5050565b8060066000858152602001908152602001600020600084815260200190815260200160002060000181905550505050565b61230d610f35565b61237f576040517f08c379a00000000000000000000000000000000000000000000000000000000081526004018080602001828103825260168152602001807f596f7520617265206e6f7420746865206f776e65722e0000000000000000000081525060200191505060405180910390fd5b600073ffffffffffffffffffffffffffffffffffffffff168173ffffffffffffffffffffffffffffffffffffffff1614156123b957600080fd5b8073ffffffffffffffffffffffffffffffffffffffff167f8be0079c531659141344cd1fd0a4f28419497f9722a3daafe3b4186f6b6457e060008054906101000a900473ffffffffffffffffffffffffffffffffffffffff16604051808273ffffffffffffffffffffffffffffffffffffffff16815260200191505060405180910390a250565b6000808314156124535760009050612471565b600082840290508284828161246457fe5b041461246c57fe5b809150505b92915050565b60008082848161248357fe5b0490508091505092915050565b6000818385028161249d57fe5b0490509392505050565b6000808284019050838110156124b957fe5b8091505092915050565b600080606490506000600760003373ffffffffffffffffffffffffffffffffffffffff1673ffffffffffffffffffffffffffffffffffffffff168152602001908152602001600020600201549050600080600260009054906101000a900473ffffffffffffffffffffffffffffffffffffffff1673ffffffffffffffffffffffffffffffffffffffff16633a7a2a06600160009054906101000a900473ffffffffffffffffffffffffffffffffffffffff1673eeeeeeeeeeeeeeeeeeeeeeeeeeeeeeeeeeeeeeee6040518363ffffffff1660e01b8152600401808373ffffffffffffffffffffffffffffffffffffffff1681526020018273ffffffffffffffffffffffffffffffffffffffff16815260200192505050604080518083038186803b1580156125f057600080fd5b505afa158015612604573d6000803e3d6000fd5b505050506040513d604081101561261a57600080fd5b81019080805190602001909291908051906020019092919050505091509150600487148015612654575060048614806126535750600586145b5b1561266257604b9350612688565b60058714801561267d5750600486148061267c5750600586145b5b1561268757603293505b5b600083111561276057600061271c6127166126e7600760003373ffffffffffffffffffffffffffffffffffffffff1673ffffffffffffffffffffffffffffffffffffffff16815260200190815260200160002060010154886064612490565b600660008c815260200190815260200160002060008b8152602001908152602001600020600001546064612490565b84612477565b9050838110612732578395505050505050612769565b600061273e8583612770565b905061274c600854826124a7565b600881905550819650505050505050612769565b60009450505050505b9392505050565b60008282111561277c57fe5b818303905092915050565b6000808183101561279757600080fd5b8183039050915091565b600073ffffffffffffffffffffffffffffffffffffffff168173ffffffffffffffffffffffffffffffffffffffff1614156128ae5781600460003373ffffffffffffffffffffffffffffffffffffffff1673ffffffffffffffffffffffffffffffffffffffff16815260200190815260200160002060010160008282540392505081905550601e600460003373ffffffffffffffffffffffffffffffffffffffff1673ffffffffffffffffffffffffffffffffffffffff16815260200190815260200160002060030160028282829054906101000a900467ffffffffffffffff160192506101000a81548167ffffffffffffffff021916908367ffffffffffffffff160217905550612982565b81600460003373ffffffffffffffffffffffffffffffffffffffff1673ffffffffffffffffffffffffffffffffffffffff16815260200190815260200160002060010160008282540392505081905550601e600460003373ffffffffffffffffffffffffffffffffffffffff1673ffffffffffffffffffffffffffffffffffffffff16815260200190815260200160002060030160028282829054906101000a900467ffffffffffffffff160192506101000a81548167ffffffffffffffff021916908367ffffffffffffffff1602179055505b505050565b6000806000600260009054906101000a900473ffffffffffffffffffffffffffffffffffffffff1673ffffffffffffffffffffffffffffffffffffffff16633a7a2a06600160009054906101000a900473ffffffffffffffffffffffffffffffffffffffff1673eeeeeeeeeeeeeeeeeeeeeeeeeeeeeeeeeeeeeeee6040518363ffffffff1660e01b8152600401808373ffffffffffffffffffffffffffffffffffffffff1681526020018273ffffffffffffffffffffffffffffffffffffffff16815260200192505050604080518083038186803b158015612a6857600080fd5b505afa158015612a7c573d6000803e3d6000fd5b505050506040513d6040811015612a9257600080fd5b810190808051906020019092919080519060200190929190505050915091506000600760003373ffffffffffffffffffffffffffffffffffffffff1673ffffffffffffffffffffffffffffffffffffffff1681526020019081526020016000206002015490506000811115612ce2576000612b8c612b86612b57600760003373ffffffffffffffffffffffffffffffffffffffff1673ffffffffffffffffffffffffffffffffffffffff16815260200190815260200160002060010154896064612490565b600660008c815260200190815260200160002060008b8152602001908152602001600020600001546064612490565b85612477565b9050818110612c2c57612be1600760003373ffffffffffffffffffffffffffffffffffffffff1673ffffffffffffffffffffffffffffffffffffffff16815260200190815260200160002060000154836124a7565b600760003373ffffffffffffffffffffffffffffffffffffffff1673ffffffffffffffffffffffffffffffffffffffff16815260200190815260200160002060000181905550612ce0565b6000612c388383612770565b9050612c46600854826124a7565b600881905550612c98600760003373ffffffffffffffffffffffffffffffffffffffff1673ffffffffffffffffffffffffffffffffffffffff16815260200190815260200160002060000154836124a7565b600760003373ffffffffffffffffffffffffffffffffffffffff1673ffffffffffffffffffffffffffffffffffffffff16815260200190815260200160002060000181905550505b505b612d1e612d1889600660008b815260200190815260200160002060008a8152602001908152602001600020600001546064612490565b84612477565b935050505094935050505056fe43757272656e74207374616b696e6720706572696f64206973206e6f74206f7665722079657454696572206e756d626572206d7573742062652061206e756d626572206265747765656e203120616e6420352e4572726f722c206465706f736974206d75737420626520686967686572207468616e20302e30313520455448a264697066735822122090c22adb22ed29dc67e9b8e4620ad9c6f31aae5055c10ede0048ed9841d6be8d64736f6c63430007060033",
  "immutableReferences": {},
  "source": "pragma solidity >=0.4.22 <0.9.0;\n\nimport \"./interfaces/Ownable.sol\";\nimport \"./interfaces/IERC20.sol\";\nimport \"./interfaces/SafeMath.sol\";\nimport \"./interfaces/UniversalERC20.sol\";\nimport \"./ExchangeOracle.sol\";\n\ncontract Bank is Ownable {\n    using UniversalERC20 for IERC20;\n\n    /**\n     * @dev storing CBLT token in ERC20 type\n     */\n    // 0x433C6E3D2def6E1fb414cf9448724EFB0399b698\n    IERC20 token;\n\n    /**\n     * @dev Creating oracle instance\n     */\n    ExchangeOracle oracle;\n\n    /**\n     * @dev CobaltLend oracle for scoring and CBLT price\n     */\n    address oracleAddress;\n\n    constructor(address _CBLT, address _oracle) {\n        oracle = ExchangeOracle(_oracle);\n        token = IERC20(_CBLT);\n\n        // Staking percentages based on deposit time and amount\n        stakingRewardRate[1][1].interest = 1;\n        stakingRewardRate[1][1].amountStakersLeft = 0;\n        stakingRewardRate[1][2].interest = 2;\n        stakingRewardRate[1][2].amountStakersLeft = 0;\n        stakingRewardRate[1][3].interest = 3;\n        stakingRewardRate[1][3].amountStakersLeft = 0;\n        stakingRewardRate[1][4].interest = 4;\n        stakingRewardRate[1][4].amountStakersLeft = 0;\n        stakingRewardRate[1][5].interest = 4;\n        stakingRewardRate[1][5].amountStakersLeft = 1000;\n        //\n        stakingRewardRate[2][1].interest = 1;\n        stakingRewardRate[2][1].amountStakersLeft = 0;\n        stakingRewardRate[2][2].interest = 2;\n        stakingRewardRate[2][2].amountStakersLeft = 0;\n        stakingRewardRate[2][3].interest = 3;\n        stakingRewardRate[2][3].amountStakersLeft = 0;\n        stakingRewardRate[2][4].interest = 4;\n        stakingRewardRate[2][4].amountStakersLeft = 0;\n        stakingRewardRate[2][5].interest = 4;\n        stakingRewardRate[2][5].amountStakersLeft = 0;\n        //\n        stakingRewardRate[3][1].interest = 1;\n        stakingRewardRate[3][1].amountStakersLeft = 0;\n        stakingRewardRate[3][2].interest = 2;\n        stakingRewardRate[3][2].amountStakersLeft = 0;\n        stakingRewardRate[3][3].interest = 3;\n        stakingRewardRate[3][3].amountStakersLeft = 0;\n        stakingRewardRate[3][4].interest = 4;\n        stakingRewardRate[3][4].amountStakersLeft = 0;\n        stakingRewardRate[3][5].interest = 4;\n        stakingRewardRate[3][5].amountStakersLeft = 0;\n        //\n        stakingRewardRate[4][1].interest = 3;\n        stakingRewardRate[4][1].amountStakersLeft = 500;\n        stakingRewardRate[4][2].interest = 5;\n        stakingRewardRate[4][2].amountStakersLeft = 500;\n        stakingRewardRate[4][3].interest = 5;\n        stakingRewardRate[4][3].amountStakersLeft = 500;\n        stakingRewardRate[4][4].interest = 5;\n        stakingRewardRate[4][4].amountStakersLeft = 1000;\n        stakingRewardRate[4][5].interest = 5;\n        stakingRewardRate[4][5].amountStakersLeft = 1000;\n        //\n        stakingRewardRate[5][1].interest = 4;\n        stakingRewardRate[5][1].amountStakersLeft = 500;\n        stakingRewardRate[5][2].interest = 5;\n        stakingRewardRate[5][2].amountStakersLeft = 500;\n        stakingRewardRate[5][3].interest = 5;\n        stakingRewardRate[5][3].amountStakersLeft = 500;\n        stakingRewardRate[5][4].interest = 6;\n        stakingRewardRate[5][4].amountStakersLeft = 1000;\n        stakingRewardRate[5][5].interest = 7;\n        stakingRewardRate[5][5].amountStakersLeft = 1000;\n    }\n\n    /**\n     * @dev Events emitted\n     */\n    event onReceived(address indexed _from, uint256 _amount);\n    event onTransfer(\n        address indexed _from,\n        address indexed _to,\n        uint256 _amount\n    );\n    event depositToken(address indexed _from, uint256 _amount);\n\n    // ****************************** Lending **********************************\n\n    /**\n     * @dev mapping used to store all loan information with the key of borrower address\n     *  and value of Loan struct with all loan information\n     */\n    mapping(address => Loan) loanBook;\n\n    /**\n     * @dev mapping used to record information on loan tiers i.e. maximum period, votes\n     */\n    mapping(uint256 => Tier) tierBook;\n\n    /**\n     * @dev mapping used to record information on loan tiers i.e. maximum period, votes\n     */\n    struct Tier {\n        uint128 voterLimit;\n        uint128 maximumPeriodPayment;\n    }\n\n    /**\n     * @dev Struct to store loan information\n     */\n    struct Loan {\n        address borrower; // Address of wallet\n        uint256 remainingBalance; // Remaining balance\n        uint256 minimumPayment; // MinimumPayment // Can be calculated off total amount\n        bool active; // Is the current loan active (Voted yes)\n        bool initialized; // Does the borrower have a current loan application\n        uint64 dueDate; // Time of contract ending\n        uint64 timeCreated; // Time of loan application also epoch in days\n        uint64 totalVote; // Total amount determined by tier\n        uint64 yes; // Amount of votes for yes\n    }\n\n    /**\n     * @dev Recalculates interest and also conducts check and balances\n     */\n\n    function newLoan(uint256 _paymentPeriod, uint256 principal) public payable {\n        // require(_paymentPeriod <= )\n\n        uint256 riskScore = 20; // NFT ENTRY!!!!!!\n        uint256 riskFactor = 15; // NFT ENTRY!!!!\n        uint256 numerator = 2; // NFT ENTRY!!!!\n\n        // Pulling prices from Oracle\n        (bool result, bytes memory data) =\n            oracleAddress.call(\n                abi.encodeWithSignature(\n                    \"getValue(address)\",\n                    0x29a99c126596c0Dc96b02A88a9EAab44EcCf511e\n                )\n            );\n\n        // Check if oracle is functional\n        require(result == true, \"Oracle is down\");\n\n        uint256 tokenPrice = abi.decode(data, (uint256));\n\n        // Calculate collateral in CBLT based on principal, riskScore and riskFactor\n        uint256 collateralInCBLT =\n            SafeMath.div(\n                SafeMath.multiply(\n                    SafeMath.mul(riskScore, riskFactor),\n                    principal,\n                    1000\n                ),\n                tokenPrice\n            );\n\n        // Payment in\n        uint256 paymentPeriodInMonths = SafeMath.div(_paymentPeriod, 2629743);\n\n        uint256 collateralPerPayment =\n            SafeMath.div(collateralInCBLT, paymentPeriodInMonths);\n\n        require(loanBook[msg.sender].initialized == false);\n\n        require(\n            token.transferFrom(msg.sender, address(this), collateralInCBLT) ==\n                true,\n            \"Payment was not approved.\"\n        );\n\n        // loanBook[msg.sender] = Loan(\n        //     msg.sender,\n        //     (block.timestamp + _paymentPeriod),\n        //     // Rational(numerator, denominator),\n        //     _paymentPeriod,\n        //     principal,\n        //     // _minimumPayment, // Needs to be calculated!!!!!!\n        //     collateralPerPayment,\n        //     false,\n        //     true,\n        //     block.timestamp,\n        //     0,\n        //     0,\n        //     0,\n        //     0\n        // );\n\n        uint256 timeCreated; // Time of loan application\n        uint256 yes; // Amount of votes for yes\n        uint256 no; // Amount of votes for no\n        uint256 totalVote; // Total amount determined by tier\n        uint256 tier; // Tier based on amount intended to be borrowed\n\n        // uint256 x = _minimumPayment * units; // NEEDS TO BE WORKED AT NIGTHT!!!!!!!!\n        // require(\n        //     x / units == _minimumPayment,\n        //     \"minimumPayment * collateralPerPayment overflows\"\n        // );\n    }\n\n    /**\n    function tallyVotes() public {}\n\n    /**\n     * @dev Prevents overflows\n     *\n     */\n    // function multiplyDecimal(uint256 x, Rational memory r)\n    //     internal\n    //     pure\n    //     returns (uint256)\n    // {\n    //     return (x * r.numerator) / r.denominator;\n    // }\n\n    /**\n     * @dev Recalculates interest and also conducts check and balances\n     *\n     */\n    function calculateComponents(uint256 amount)\n        internal\n        view\n        returns (uint256 interest, uint256 principal)\n    {\n        // interest = multiply(\n        //     loanBook[msg.sender].remainingBalance,\n        //     loanBook[msg.sender].interestRate\n        // );\n        require(amount >= interest);\n        principal = amount - interest;\n        return (interest, principal);\n    }\n\n    /**\n     * @dev a symmetry between accepting loan payments and handling missed payments.\n     * In both cases, there is an adjustment to the remaining principal balance and a\n     * corresponding transfer of tokens. The only difference is that the tokens are\n     * returned to the borrower after a payment, but they are forfeited to the lender\n     * after a missed payment\n     *\n     *Additional Note: the code above does the token transfer last, which follows the\n     * Checks-Effects-Interactions pattern to avoid potential reentrancy vulnerabilities\n     */\n\n    function processPeriod(\n        uint256 interest,\n        uint256 principal,\n        address recipient\n    ) internal {\n        if (recipient == 0x0000000000000000000000000000000000000000) {\n            // uint256 units = calculateCollateral(interest + principal);\n\n            loanBook[msg.sender].remainingBalance -= principal;\n\n            loanBook[msg.sender].dueDate += 30; // days\n        } else {\n            // uint256 units = calculateCollateral(interest + principal);\n\n            loanBook[msg.sender].remainingBalance -= principal;\n\n            loanBook[msg.sender].dueDate += 30; // days\n        }\n    }\n\n    /**\n     * @dev Function for the user to make a payment with ETH\n     *\n     */\n    function makePayment() public payable {\n        require(block.timestamp <= loanBook[msg.sender].dueDate);\n\n        uint256 interest;\n        uint256 principal;\n        (interest, principal) = calculateComponents(msg.value);\n\n        require(principal <= loanBook[msg.sender].remainingBalance);\n        require(\n            msg.value >= loanBook[msg.sender].minimumPayment ||\n                principal == loanBook[msg.sender].remainingBalance\n        );\n\n        processPeriod(interest, principal, msg.sender);\n    }\n\n    /**\n     * @dev  computes the principal component of the missed payment.\n     * This assumes the payment was the minimum amount, which is true\n     * for all but, possibly, the last payment. The conditional handles\n     * the boundary condition when the principal remaining is less than\n     * the principal component of a minimum payment.\n     *\n     */\n    function missedPayment() public {\n        require(block.timestamp > loanBook[msg.sender].dueDate);\n\n        uint256 interest;\n        uint256 principal;\n        (interest, principal) = calculateComponents(\n            loanBook[msg.sender].minimumPayment\n        );\n\n        if (principal > loanBook[msg.sender].remainingBalance) {\n            principal = loanBook[msg.sender].remainingBalance;\n        }\n\n        processPeriod(\n            interest,\n            principal,\n            0x0000000000000000000000000000000000000000\n        );\n    }\n\n    /**\n     * @dev  smart contract allows borrowers to pay more than the minimum,\n     * which will ultimately lead to less total paid because of avoided interest.\n     * If used, this feature will lead to excess collateral owned by the loan contract\n     * after its been fully paid off. This collateral belongs to the borrower.\n     * The simplest way to handle that is to allow excess tokens to be claimed when the remainingBalance is zero:\n     *\n     */\n\n    function returnCollateral() public {\n        require(loanBook[msg.sender].remainingBalance == 0);\n\n        uint256 amount = token.balanceOf(address(this));\n        require(token.transfer(msg.sender, amount));\n    }\n\n    /**\n     * @dev Deletes loan instance once the user has paid his first loan in full\n     */\n    function cleanSlate() public {\n        require(loanBook[msg.sender].remainingBalance == 0);\n        delete loanBook[msg.sender];\n    }\n\n    // **************************** Staking *******************************\n\n    struct crossTier {\n        uint256 interest;\n        uint256 amountStakersLeft;\n    }\n\n    mapping(uint256 => mapping(uint256 => crossTier)) stakingRewardRate;\n\n    mapping(address => User) public userBook;\n\n    uint256 CBLTReserve = 6000000000000000000000000000;\n\n    uint256 borrowingPool; // 25% use for lending\n\n    struct User {\n        uint256 rewardWallet;\n        uint256 ethBalance;\n        uint256 cbltReserved;\n        uint256 depositTime;\n        uint256 timeStakedTier;\n    }\n\n    function calculateRewardDeposit(\n        uint256 _amount,\n        uint256 _timeStakedTier,\n        uint256 _amountStakedTier,\n        uint256 percentBasedAmount\n    ) internal returns (uint256) {\n        (uint256 CBLTprice, uint256 ETHprice) =\n            oracle.priceOfPair(\n                address(token),\n                0xEeeeeEeeeEeEeeEeEeEeeEEEeeeeEeeeeeeeEEeE\n            );\n\n        uint256 userReserved = userBook[msg.sender].cbltReserved;\n\n        // Check if user has CBLT tokens reserved\n        if (userReserved > 0) {\n            // Calculate the new amount of cblt reserved for user at current market price\n            uint256 newReserved =\n                SafeMath.div(\n                    SafeMath.multiply(\n                        SafeMath.multiply(\n                            userBook[msg.sender].ethBalance,\n                            percentBasedAmount,\n                            100\n                        ),\n                        stakingRewardRate[_timeStakedTier][_amountStakedTier]\n                            .interest,\n                        100\n                    ),\n                    CBLTprice\n                );\n\n            if (newReserved >= userReserved) {\n                // If CBLT price decrease, send all tokens reserved\n                userBook[msg.sender].rewardWallet = SafeMath.add(\n                    userBook[msg.sender].rewardWallet,\n                    userReserved\n                );\n            } else {\n                // If CBLT price increased, calculate the difference between new and old amount final\n                uint256 cbltDifference =\n                    SafeMath.sub(userReserved, newReserved);\n\n                // Add lefover CBLT tokens back into treasury\n                CBLTReserve = SafeMath.add(CBLTReserve, cbltDifference);\n\n                // Save CBLT tokens in contract wallet\n                userBook[msg.sender].rewardWallet = SafeMath.add(\n                    userBook[msg.sender].rewardWallet,\n                    newReserved\n                );\n            }\n        }\n        // Calculate and return new CBLT reserved\n        return\n            SafeMath.div(\n                SafeMath.multiply(\n                    _amount,\n                    stakingRewardRate[_timeStakedTier][_amountStakedTier]\n                        .interest,\n                    100\n                ),\n                CBLTprice\n            );\n    }\n\n    function calculateRewardWithdraw(\n        uint256 _amount,\n        uint256 _timeStakedTier,\n        uint256 _amountStakedTier\n    ) internal returns (uint256) {\n        uint256 percentBasedAmount = 100;\n        uint256 userReserved = userBook[msg.sender].cbltReserved;\n\n        (uint256 CBLTprice, uint256 ETHprice) =\n            oracle.priceOfPair(\n                address(token),\n                0xEeeeeEeeeEeEeeEeEeEeeEEEeeeeEeeeeeeeEEeE\n            );\n\n        // Determining if user was sent CBLT tokens on initial staking\n        if (\n            _timeStakedTier == 4 &&\n            (_amountStakedTier == 4 || _amountStakedTier == 5)\n        ) {\n            percentBasedAmount = 75;\n        } else if (\n            _timeStakedTier == 5 &&\n            (_amountStakedTier == 4 || _amountStakedTier == 5)\n        ) {\n            percentBasedAmount = 50;\n        }\n\n        // If user has CBLT tokens reserved on withdraw, calculate how much is owed to him\n        if (userReserved > 0) {\n            // Calculate the new amount of cblt reserved for user at current market price\n            uint256 newReserved =\n                SafeMath.div(\n                    SafeMath.multiply(\n                        SafeMath.multiply(\n                            userBook[msg.sender].ethBalance,\n                            percentBasedAmount,\n                            100\n                        ),\n                        stakingRewardRate[_timeStakedTier][_amountStakedTier]\n                            .interest,\n                        100\n                    ),\n                    CBLTprice\n                );\n\n            if (newReserved >= userReserved) {\n                // If CBLT price decrease, send all tokens reserved\n                return userReserved;\n            } else {\n                // If CBLT price increased, calculate the difference between new and old amount final\n                uint256 cbltDifference =\n                    SafeMath.sub(userReserved, newReserved);\n\n                // Add lefover cblt tokens back into treasury\n                CBLTReserve = SafeMath.add(CBLTReserve, cbltDifference);\n\n                // Return new amount of CBLT owed\n                return newReserved;\n            }\n        }\n        return 0;\n    }\n\n    function depositEth(uint32 _timeStakedTier) public payable {\n        uint256 amountStakedTier;\n        uint256 paidAdvanced = 0;\n        uint256 dueDate;\n\n        // The tier input must be between 1 and 5\n        require(\n            _timeStakedTier >= 1 && _timeStakedTier <= 5,\n            \"Tier number must be a number between 1 and 5.\"\n        );\n\n        // Minimum deposit of 0.015 ETH\n        require(\n            msg.value > 15e16,\n            \"Error, deposit must be higher than 0.015 ETH\"\n        );\n\n        // Check the amountStakedTier based on deposit\n        if (msg.value <= 4e17) {\n            amountStakedTier = 1;\n        } else if (msg.value <= 2e18) {\n            amountStakedTier = 2;\n        } else if (msg.value <= 5e18) {\n            amountStakedTier = 3;\n        } else if (msg.value <= 25e18) {\n            amountStakedTier = 4;\n            if (_timeStakedTier == 4) {\n                paidAdvanced = 25;\n            } else if (_timeStakedTier == 5) {\n                paidAdvanced = 50;\n            }\n        } else {\n            amountStakedTier = 5;\n            if (_timeStakedTier == 4) {\n                paidAdvanced = 25;\n            } else if (_timeStakedTier == 5) {\n                paidAdvanced = 50;\n            }\n        }\n        // Check if tier has not been depleted\n        require(\n            stakingRewardRate[_timeStakedTier][amountStakedTier]\n                .amountStakersLeft > 0,\n            \"Tier depleted, come back later\"\n        );\n\n        // Checking if user is restaking or this is his/her first staking instance\n        uint256 stakingPeriod = userBook[msg.sender].timeStakedTier;\n\n        if (stakingPeriod > 0) {\n            // Create due date based on deposite time and time Tier\n            if (stakingPeriod == 1) {\n                dueDate = SafeMath.add(\n                    userBook[msg.sender].depositTime,\n                    2629743\n                );\n            } else if (stakingPeriod == 2) {\n                dueDate = SafeMath.add(\n                    userBook[msg.sender].depositTime,\n                    5259486\n                );\n            } else if (stakingPeriod == 3) {\n                dueDate = SafeMath.add(\n                    userBook[msg.sender].depositTime,\n                    7889229\n                );\n            } else if (stakingPeriod == 4) {\n                dueDate = SafeMath.add(\n                    userBook[msg.sender].depositTime,\n                    15778458\n                );\n            } else {\n                dueDate = SafeMath.add(\n                    userBook[msg.sender].depositTime,\n                    31556916\n                );\n            }\n            // Revert if staking period is not over\n            require(\n                block.timestamp > dueDate,\n                \"Current staking period is not over yet\"\n            );\n        }\n\n        // Checks the amount of CBLT tokens that need to be reserved\n        uint256 cbltReserved =\n            calculateRewardDeposit(\n                msg.value,\n                _timeStakedTier,\n                amountStakedTier,\n                SafeMath.sub(100, paidAdvanced)\n            );\n\n        // Treasury must have that amount open\n        require(cbltReserved <= CBLTReserve, \"Treasury is currently depleted\");\n\n        // Check if we are sending CBLT based on time staked\n        if (paidAdvanced > 0) {\n            uint256 cbltSent =\n                SafeMath.multiply(cbltReserved, paidAdvanced, 100);\n            // require( token.transfer(msg.sender, cbltSent), \"Transaction was not successful\" );\n\n            // Saves the amount of CBLT tokens reserved minus the amount sent in advanced\n            userBook[msg.sender].cbltReserved = SafeMath.add(\n                userBook[msg.sender].cbltReserved,\n                SafeMath.multiply(\n                    cbltReserved,\n                    SafeMath.sub(100, paidAdvanced),\n                    100\n                )\n            );\n        } else {\n            // Saves the amount of CBLT tokens reserved in user struct\n            userBook[msg.sender].cbltReserved = SafeMath.add(\n                userBook[msg.sender].cbltReserved,\n                cbltReserved\n            );\n        }\n\n        // Save amount of time staked\n        userBook[msg.sender].timeStakedTier = _timeStakedTier;\n\n        // Substract CBLT tokens reserved for user from treasury\n        CBLTReserve = SafeMath.sub(CBLTReserve, cbltReserved);\n\n        // Oracle call for current ETH price in USD\n        uint256 ETHprice = oracle.priceOfETH();\n\n        // Dollar fee based\n        uint256 ETHinUSD = SafeMath.div(100000000000000000000, ETHprice);\n\n        // Save new eth deposit in user account\n        userBook[msg.sender].ethBalance = SafeMath.add(\n            userBook[msg.sender].ethBalance,\n            SafeMath.sub(msg.value, ETHinUSD)\n        );\n\n        // Decrease number of stakers avaliable for current tier based on time and amount\n        stakingRewardRate[_timeStakedTier][amountStakedTier]\n            .amountStakersLeft = SafeMath.sub(\n            stakingRewardRate[_timeStakedTier][amountStakedTier]\n                .amountStakersLeft,\n            1\n        );\n\n        // Change the time of deposit\n        userBook[msg.sender].depositTime = block.timestamp;\n    }\n\n    function withdrawEth(uint256 _amount) public {\n        uint256 dueDate;\n        uint256 stakingPeriod = userBook[msg.sender].timeStakedTier;\n        uint256 _amountStakedTier;\n        uint256 userBalance = userBook[msg.sender].ethBalance;\n\n        // Calulate due date based on time staked tier and deposit time\n        if (stakingPeriod == 1) {\n            dueDate = SafeMath.add(userBook[msg.sender].depositTime, 2629743);\n        } else if (stakingPeriod == 2) {\n            dueDate = SafeMath.add(userBook[msg.sender].depositTime, 5259486);\n        } else if (stakingPeriod == 3) {\n            dueDate = SafeMath.add(userBook[msg.sender].depositTime, 7889229);\n        } else if (stakingPeriod == 4) {\n            dueDate = SafeMath.add(userBook[msg.sender].depositTime, 15778458);\n        } else {\n            dueDate = SafeMath.add(userBook[msg.sender].depositTime, 31556916);\n        }\n        // Staking period must be over before he withdraws ETH balance\n        require(block.timestamp >= dueDate, \"Staking period is not over.\");\n\n        // Determine the amount staked tier based on ETH balance\n        if (userBalance <= 4e17) {\n            _amountStakedTier = 5;\n        } else if (userBalance <= 2e18) {\n            _amountStakedTier = 4;\n        } else if (userBalance <= 5e18) {\n            _amountStakedTier = 3;\n        } else if (userBalance <= 25e18) {\n            _amountStakedTier = 2;\n        } else {\n            _amountStakedTier = 1;\n        }\n        // Recalculate total CBLT tokens based on current token value\n        uint256 stakingReward =\n            calculateRewardWithdraw(\n                userBook[msg.sender].ethBalance,\n                stakingPeriod,\n                _amountStakedTier\n            );\n        // Save reward in wallet\n        userBook[msg.sender].rewardWallet = SafeMath.add(\n            userBook[msg.sender].rewardWallet,\n            stakingReward\n        );\n        // Reset amount of CBLT reserved\n        userBook[msg.sender].cbltReserved = 0;\n        // Substract eth from user account\n        userBook[msg.sender].ethBalance = SafeMath.sub(\n            userBook[msg.sender].ethBalance,\n            _amount\n        );\n        // Change the latest time of deposit\n        userBook[msg.sender].depositTime = block.timestamp;\n\n        payable(msg.sender).transfer(_amount);\n    }\n\n    function withdrawStaking(uint256 _amount) public payable {\n        // Pull token price from oracle\n        (bool call1, bytes memory tokenPriceEncoded) =\n            oracleAddress.call(\n                abi.encodeWithSignature(\n                    \"getValue(address)\",\n                    0x29a99c126596c0Dc96b02A88a9EAab44EcCf511e\n                )\n            );\n        require(call1 == true, \"Oracle is down.\");\n\n        // Pull ETH price in USD\n        (bool call2, bytes memory ethPriceUSD) =\n            oracleAddress.call(abi.encodeWithSignature(\"getETHinUSD()\"));\n\n        require(call2 == true, \"Oracle is down.\");\n\n        // Decode bytes data\n        uint256 tokenPrice = abi.decode(tokenPriceEncoded, (uint256));\n        uint256 ETHinUSD = abi.decode(ethPriceUSD, (uint256));\n\n        uint256 USDtoCBLT =\n            SafeMath.div(\n                100000000000000000000,\n                SafeMath.mul(tokenPrice, ETHinUSD) // A and B coming from oracle\n            );\n\n        require(\n            userBook[msg.sender].rewardWallet >= SafeMath.mul(USDtoCBLT, 50),\n            \"Reward wallet does not have 50$\"\n        );\n\n        userBook[msg.sender].rewardWallet = 0;\n\n        // token.transfer(address(this), msg.sender, _amount);\n    }\n\n    function changeInterest(\n        uint256 _timeStakedTier,\n        uint256 _amountStakedTier,\n        uint256 _newInterest\n    ) public {\n        // Only devs\n        stakingRewardRate[_timeStakedTier][_amountStakedTier]\n            .interest = _newInterest;\n    }\n}\n\n// Voting\n// Lending\n// Cobalt tokens saved on amount staked\n// Wallet only updated when user deposits or withdraws\n// Fixed period loans\n// Functions check the current balance the treasury has avaliable to stake\n// Tier system in place\n// Function to recalculate amount of cblt tokens reserved based on amount staked\n// 30 60 90 180 365\n\n// 7 days\n// 3 missed payments back to back\n// 4 missed payment overall\n// 6 years 100k ++++\n// 2 years 100k ----\n\n// ************************************* CHANGES ************************************\n\n// mapping (uint id => Loan) loanBook;\n// signature NFT\n\n// loanBook[id]\n// loanBook[id].signature // NFT\n\n// function borrow() {\n//     require(loanBook[id].signature == NFT.value)\n// }\n\n// ******************************** INCENTIVE SYSTEM *******************************\n\n// tier 1 - Loan  50k - Max voters 100 - 5 per head\n//        - msg.sender CBLTs > 300$ worth of ETH\n// tier 2 - Loan 100k - Max voters 150 - 7.5 per head\n//        - msg.sender CBLTs > 200\n// tier 3 - Loan 200k - Max voters 200 - 10 per head\n//        - msg.sender CBLTs > 400\n\n// ************************************** TODOS ************************************\n\n// Starting period, 12-24 months\n// Collateral paid on loan application\n// Create new function to handle application\n// Create a new function to check if loan is ready to loan\n// Array of all voters\n// Save interest amount on loan to an specific\n\n// Calling oracle from ABI\n\n// (bool result, bytes memory data) =\n//             oracleAddress.call(\n//                 abi.encodeWithSignature(\n//                     \"priceOfPair(address,address)\",\n//                     _sellToken,\n//                     _buyToken\n//                 )\n//             );\n//         // Decode bytes data\n//         (uint256 sellTokenValue, uint256 buyTokenValue) =\n//             abi.decode(data, (uint256, uint256));\n\n// Amount of CBLT present in wallet per tier\n\n// Tier 1 - 500  to  5k   USD\n// Tier 2 - 5k   to  20k  USD\n// Tier 3 - 20k  to  50k  USD\n// Tier 4 - 50k  to  100k USD\n// Tier 5 - 100k to  250k USD\n// Tier 6 - +250k         USD\n\n// Amount of votes allowed per tier\n\n// Tier 1 - 20\n// Tier 2 - 40\n// Tier 3 - 60-80\n// Tier 4 ''  '' '' Needs work\n\n// Information made public from the borrower\n// Name, eth account, email\n\n// Maximum period to pay loan per Tier\n// Tier 1 - 10k  to 25k  - 12 months\n// Tier 2 - 25k  to 50k  - 24 months\n// Tier 3 - 50k  to 100k - 36 months\n// Tier 4 - 100k to 250k - 48 months\n// Tier 5 - 250k to 1m   - 60 months\n// Tier 6 - 1m   to 5m   - 60 months\n// Tier 7 - 5m and above - 60 months\n\n// New contract logic needed to be added\n// Lending 50%\n// Long term stakers - 12\n// long term pool\n// staking - indebt\n\n// Points of entry, restricting value\n// Validate\n\n// 25% - 6\n// 50% - 12\n\n// FUNCTION TO VALIDATE LENDING\n\n// function validate(address[] memory _votersAddress, bool _voteFinal, uint _loanSignature ) public { // only devs\n//     // Oracle inject\n//     // loanbook[_loanSignature].tierUSD;\n\n//     uint256 USDtoCBLT =\n//         SafeMath.div(\n//             1000000000000000000,\n//             SafeMath.mul(2000000000000, 2843)\n//         );\n\n//     for(uint i = 0; i < _votersAddress.length;i++) { // 8 // 100\n//          _votersAddress[i];\n//          // uint tierVoters = loanbook[_loanSignature].maxVoters;\n//          // Two things\n//          // token.balanceOf(_votersAddress[i]);\n//     }\n//     // loanbook[_loanSignature].status;\n// }\n",
  "sourcePath": "/Users/christianroque/Desktop/TungstenGroupProject/contracts/Bank.sol",
  "compiler": {
    "name": "solc",
    "version": "0.7.6+commit.7338295f.Emscripten.clang"
  },
  "schemaVersion": "3.3.4",
  "updatedAt": "2021-05-21T18:40:02.204Z",
  "devdoc": {
    "events": {
      "onReceived(address,uint256)": {
        "details": "Events emitted"
      }
    },
    "kind": "dev",
    "methods": {
      "cleanSlate()": {
        "details": "Deletes loan instance once the user has paid his first loan in full"
      },
      "makePayment()": {
        "details": "Function for the user to make a payment with ETH"
      },
      "missedPayment()": {
        "details": "computes the principal component of the missed payment. This assumes the payment was the minimum amount, which is true for all but, possibly, the last payment. The conditional handles the boundary condition when the principal remaining is less than the principal component of a minimum payment."
      },
      "newLoan(uint256,uint256)": {
        "details": "Recalculates interest and also conducts check and balances"
      },
      "returnCollateral()": {
        "details": "smart contract allows borrowers to pay more than the minimum, which will ultimately lead to less total paid because of avoided interest. If used, this feature will lead to excess collateral owned by the loan contract after its been fully paid off. This collateral belongs to the borrower. The simplest way to handle that is to allow excess tokens to be claimed when the remainingBalance is zero:"
      }
    },
    "stateVariables": {
      "loanBook": {
        "details": "mapping used to store all loan information with the key of borrower address  and value of Loan struct with all loan information"
      },
      "oracle": {
        "details": "Creating oracle instance"
      },
      "oracleAddress": {
        "details": "CobaltLend oracle for scoring and CBLT price"
      },
      "tierBook": {
        "details": "mapping used to record information on loan tiers i.e. maximum period, votes"
      },
      "token": {
        "details": "storing CBLT token in ERC20 type"
      }
    },
    "version": 1
  },
  "userdoc": {
    "kind": "user",
    "methods": {},
    "version": 1
  }
}