{
  "contractName": "Bank",
  "abi": [
    {
      "inputs": [
        {
          "internalType": "address",
          "name": "_CBLT",
          "type": "address"
        },
        {
          "internalType": "address",
          "name": "_oracle",
          "type": "address"
        }
      ],
      "stateMutability": "nonpayable",
      "type": "constructor"
    },
    {
      "anonymous": false,
      "inputs": [
        {
          "indexed": false,
          "internalType": "address",
          "name": "_previousOwner",
          "type": "address"
        },
        {
          "indexed": true,
          "internalType": "address",
          "name": "_newOwner",
          "type": "address"
        }
      ],
      "name": "OwnershipTransferred",
      "type": "event"
    },
    {
      "anonymous": false,
      "inputs": [
        {
          "indexed": true,
          "internalType": "address",
          "name": "_from",
          "type": "address"
        },
        {
          "indexed": false,
          "internalType": "uint256",
          "name": "_amount",
          "type": "uint256"
        }
      ],
      "name": "depositToken",
      "type": "event"
    },
    {
      "anonymous": false,
      "inputs": [
        {
          "indexed": true,
          "internalType": "address",
          "name": "_from",
          "type": "address"
        },
        {
          "indexed": false,
          "internalType": "uint256",
          "name": "_amount",
          "type": "uint256"
        }
      ],
      "name": "onReceived",
      "type": "event"
    },
    {
      "anonymous": false,
      "inputs": [
        {
          "indexed": true,
          "internalType": "address",
          "name": "_from",
          "type": "address"
        },
        {
          "indexed": true,
          "internalType": "address",
          "name": "_to",
          "type": "address"
        },
        {
          "indexed": false,
          "internalType": "uint256",
          "name": "_amount",
          "type": "uint256"
        }
      ],
      "name": "onTransfer",
      "type": "event"
    },
    {
      "inputs": [],
      "name": "_owner",
      "outputs": [
        {
          "internalType": "address",
          "name": "",
          "type": "address"
        }
      ],
      "stateMutability": "view",
      "type": "function"
    },
    {
      "inputs": [],
      "name": "borrowingPool",
      "outputs": [
        {
          "internalType": "uint256",
          "name": "",
          "type": "uint256"
        }
      ],
      "stateMutability": "view",
      "type": "function"
    },
    {
      "inputs": [],
      "name": "isOwner",
      "outputs": [
        {
          "internalType": "bool",
          "name": "",
          "type": "bool"
        }
      ],
      "stateMutability": "view",
      "type": "function"
    },
    {
      "inputs": [
        {
          "internalType": "address",
          "name": "",
          "type": "address"
        }
      ],
      "name": "loanBook",
      "outputs": [
        {
          "internalType": "address",
          "name": "borrower",
          "type": "address"
        },
        {
          "internalType": "uint256",
          "name": "amountBorrowed",
          "type": "uint256"
        },
        {
          "internalType": "uint256",
          "name": "remainingBalance",
          "type": "uint256"
        },
        {
          "internalType": "uint256",
          "name": "minimumPayment",
          "type": "uint256"
        },
        {
          "internalType": "uint256",
          "name": "collateral",
          "type": "uint256"
        },
        {
          "internalType": "bool",
          "name": "active",
          "type": "bool"
        },
        {
          "internalType": "bool",
          "name": "initialized",
          "type": "bool"
        },
        {
          "internalType": "uint256",
          "name": "timeCreated",
          "type": "uint256"
        },
        {
          "internalType": "uint256",
          "name": "dueDate",
          "type": "uint256"
        },
        {
          "internalType": "uint256",
          "name": "totalVote",
          "type": "uint256"
        },
        {
          "internalType": "uint256",
          "name": "yes",
          "type": "uint256"
        }
      ],
      "stateMutability": "view",
      "type": "function"
    },
    {
      "inputs": [
        {
          "internalType": "address",
          "name": "",
          "type": "address"
        },
        {
          "internalType": "uint256",
          "name": "",
          "type": "uint256"
        }
      ],
      "name": "loanRecords",
      "outputs": [
        {
          "internalType": "address",
          "name": "borrower",
          "type": "address"
        },
        {
          "internalType": "uint256",
          "name": "amountBorrowed",
          "type": "uint256"
        },
        {
          "internalType": "uint256",
          "name": "remainingBalance",
          "type": "uint256"
        },
        {
          "internalType": "uint256",
          "name": "minimumPayment",
          "type": "uint256"
        },
        {
          "internalType": "uint256",
          "name": "collateral",
          "type": "uint256"
        },
        {
          "internalType": "bool",
          "name": "active",
          "type": "bool"
        },
        {
          "internalType": "bool",
          "name": "initialized",
          "type": "bool"
        },
        {
          "internalType": "uint256",
          "name": "timeCreated",
          "type": "uint256"
        },
        {
          "internalType": "uint256",
          "name": "dueDate",
          "type": "uint256"
        },
        {
          "internalType": "uint256",
          "name": "totalVote",
          "type": "uint256"
        },
        {
          "internalType": "uint256",
          "name": "yes",
          "type": "uint256"
        }
      ],
      "stateMutability": "view",
      "type": "function"
    },
    {
      "inputs": [
        {
          "internalType": "address",
          "name": "",
          "type": "address"
        },
        {
          "internalType": "address",
          "name": "",
          "type": "address"
        }
      ],
      "name": "rewardWallet",
      "outputs": [
        {
          "internalType": "uint256",
          "name": "",
          "type": "uint256"
        }
      ],
      "stateMutability": "view",
      "type": "function"
    },
    {
      "inputs": [
        {
          "internalType": "uint256",
          "name": "",
          "type": "uint256"
        },
        {
          "internalType": "uint256",
          "name": "",
          "type": "uint256"
        }
      ],
      "name": "stakingRewardRate",
      "outputs": [
        {
          "internalType": "uint256",
          "name": "interest",
          "type": "uint256"
        },
        {
          "internalType": "uint256",
          "name": "amountStakersLeft",
          "type": "uint256"
        },
        {
          "internalType": "uint256",
          "name": "tierDuration",
          "type": "uint256"
        }
      ],
      "stateMutability": "view",
      "type": "function"
    },
    {
      "inputs": [
        {
          "internalType": "address",
          "name": "",
          "type": "address"
        }
      ],
      "name": "tokenReserve",
      "outputs": [
        {
          "internalType": "uint256",
          "name": "",
          "type": "uint256"
        }
      ],
      "stateMutability": "view",
      "type": "function"
    },
    {
      "inputs": [
        {
          "internalType": "address",
          "name": "_newOwner",
          "type": "address"
        }
      ],
      "name": "transferOwnership",
      "outputs": [],
      "stateMutability": "nonpayable",
      "type": "function"
    },
    {
      "inputs": [
        {
          "internalType": "address",
          "name": "",
          "type": "address"
        }
      ],
      "name": "userBook",
      "outputs": [
        {
          "internalType": "uint256",
          "name": "ethBalance",
          "type": "uint256"
        },
        {
          "internalType": "uint256",
          "name": "tokenReserved",
          "type": "uint256"
        },
        {
          "internalType": "uint256",
          "name": "depositTime",
          "type": "uint256"
        },
        {
          "internalType": "uint256",
          "name": "timeStakedTier",
          "type": "uint256"
        },
        {
          "internalType": "address",
          "name": "currentTokenStaked",
          "type": "address"
        }
      ],
      "stateMutability": "view",
      "type": "function"
    },
    {
      "inputs": [
        {
          "internalType": "uint256",
          "name": "_paymentPeriod",
          "type": "uint256"
        },
        {
          "internalType": "uint256",
          "name": "_principal",
          "type": "uint256"
        }
      ],
      "name": "newLoan",
      "outputs": [],
      "stateMutability": "payable",
      "type": "function"
    },
    {
      "inputs": [],
      "name": "validate",
      "outputs": [],
      "stateMutability": "nonpayable",
      "type": "function"
    },
    {
      "inputs": [],
      "name": "makePayment",
      "outputs": [],
      "stateMutability": "payable",
      "type": "function"
    },
    {
      "inputs": [],
      "name": "returnCollateral",
      "outputs": [],
      "stateMutability": "nonpayable",
      "type": "function"
    },
    {
      "inputs": [],
      "name": "cleanSlate",
      "outputs": [],
      "stateMutability": "nonpayable",
      "type": "function"
    },
    {
      "inputs": [
        {
          "internalType": "uint32",
          "name": "_timeStakedTier",
          "type": "uint32"
        },
        {
          "internalType": "address",
          "name": "_tokenAddress",
          "type": "address"
        }
      ],
      "name": "depositEth",
      "outputs": [],
      "stateMutability": "payable",
      "type": "function"
    },
    {
      "inputs": [
        {
          "internalType": "uint256",
          "name": "_amount",
          "type": "uint256"
        }
      ],
      "name": "withdrawEth",
      "outputs": [],
      "stateMutability": "nonpayable",
      "type": "function"
    },
    {
      "inputs": [
        {
          "internalType": "uint256",
          "name": "_amount",
          "type": "uint256"
        },
        {
          "internalType": "address",
          "name": "_withdrawTokenAddress",
          "type": "address"
        }
      ],
      "name": "withdrawStaking",
      "outputs": [],
      "stateMutability": "payable",
      "type": "function"
    },
    {
      "inputs": [
        {
          "internalType": "address",
          "name": "_winnerAddress",
          "type": "address"
        },
        {
          "internalType": "uint256",
          "name": "_timeTier",
          "type": "uint256"
        },
        {
          "internalType": "uint256",
          "name": "_amountTier",
          "type": "uint256"
        }
      ],
      "name": "lottery",
      "outputs": [],
      "stateMutability": "nonpayable",
      "type": "function"
    },
    {
      "inputs": [
        {
          "internalType": "uint256",
          "name": "_new",
          "type": "uint256"
        },
        {
          "internalType": "uint256",
          "name": "_amountTier",
          "type": "uint256"
        },
        {
          "internalType": "uint256",
          "name": "_timeTier",
          "type": "uint256"
        }
      ],
      "name": "modifyTiers",
      "outputs": [],
      "stateMutability": "nonpayable",
      "type": "function"
    },
    {
      "inputs": [
        {
          "internalType": "bool",
          "name": "_status",
          "type": "bool"
        }
      ],
      "name": "stakingControl",
      "outputs": [],
      "stateMutability": "nonpayable",
      "type": "function"
    }
  ],
  "bytecode": "0x608060405260018060146101000a81548160ff02191690831515021790555034801561002a57600080fd5b506040516147cc3803806147cc8339818101604052604081101561004d57600080fd5b810190808051906020019092919080519060200190929190505050336000806101000a81548173ffffffffffffffffffffffffffffffffffffffff021916908373ffffffffffffffffffffffffffffffffffffffff16021790555080600260006101000a81548173ffffffffffffffffffffffffffffffffffffffff021916908373ffffffffffffffffffffffffffffffffffffffff16021790555081600160006101000a81548173ffffffffffffffffffffffffffffffffffffffff021916908373ffffffffffffffffffffffffffffffffffffffff1602179055506064600660006005815260200190815260200160002060020181905550603c6006600060058152602001908152602001600020600101819055506207a1206006600060058152602001908152602001600020600001819055506b1363156bbee3016d70000000600a600073433c6e3d2def6e1fb414cf9448724efb0399b69873ffffffffffffffffffffffffffffffffffffffff1673ffffffffffffffffffffffffffffffffffffffff168152602001908152602001600020819055506b1363156bbee3016d70000000600a60007395b58a6bff3d14b7db2f5cb5f0ad413dc294065873ffffffffffffffffffffffffffffffffffffffff1673ffffffffffffffffffffffffffffffffffffffff16815260200190815260200160002081905550600160086000600181526020019081526020016000206000600181526020019081526020016000206000018190555060006008600060018152602001908152602001600020600060018152602001908152602001600020600101819055506228206f600860006001815260200190815260200160002060006001815260200190815260200160002060020181905550600260086000600181526020019081526020016000206000600281526020019081526020016000206000018190555060006008600060018152602001908152602001600020600060028152602001908152602001600020600101819055506228206f600860006001815260200190815260200160002060006002815260200190815260200160002060020181905550600360086000600181526020019081526020016000206000600381526020019081526020016000206000018190555060006008600060018152602001908152602001600020600060038152602001908152602001600020600101819055506228206f600860006001815260200190815260200160002060006003815260200190815260200160002060020181905550600460086000600181526020019081526020016000206000600481526020019081526020016000206000018190555060006008600060018152602001908152602001600020600060048152602001908152602001600020600101819055506228206f600860006001815260200190815260200160002060006004815260200190815260200160002060020181905550600460086000600181526020019081526020016000206000600581526020019081526020016000206000018190555060006008600060018152602001908152602001600020600060058152602001908152602001600020600101819055506228206f60086000600181526020019081526020016000206000600581526020019081526020016000206002018190555060016008600060028152602001908152602001600020600060018152602001908152602001600020600001819055506000600860006002815260200190815260200160002060006001815260200190815260200160002060010181905550625040de60086000600281526020019081526020016000206000600181526020019081526020016000206002018190555060026008600060028152602001908152602001600020600060028152602001908152602001600020600001819055506000600860006002815260200190815260200160002060006002815260200190815260200160002060010181905550625040de60086000600281526020019081526020016000206000600281526020019081526020016000206002018190555060036008600060028152602001908152602001600020600060038152602001908152602001600020600001819055506000600860006002815260200190815260200160002060006003815260200190815260200160002060010181905550625040de60086000600281526020019081526020016000206000600381526020019081526020016000206002018190555060046008600060028152602001908152602001600020600060048152602001908152602001600020600001819055506000600860006002815260200190815260200160002060006004815260200190815260200160002060010181905550625040de60086000600281526020019081526020016000206000600481526020019081526020016000206002018190555060046008600060028152602001908152602001600020600060058152602001908152602001600020600001819055506000600860006002815260200190815260200160002060006005815260200190815260200160002060010181905550625040de600860006002815260200190815260200160002060006005815260200190815260200160002060020181905550600160086000600381526020019081526020016000206000600181526020019081526020016000206000018190555060006008600060038152602001908152602001600020600060018152602001908152602001600020600101819055506278614d600860006003815260200190815260200160002060006001815260200190815260200160002060020181905550600260086000600381526020019081526020016000206000600281526020019081526020016000206000018190555060006008600060038152602001908152602001600020600060028152602001908152602001600020600101819055506278614d600860006003815260200190815260200160002060006002815260200190815260200160002060020181905550600360086000600381526020019081526020016000206000600381526020019081526020016000206000018190555060006008600060038152602001908152602001600020600060038152602001908152602001600020600101819055506278614d600860006003815260200190815260200160002060006003815260200190815260200160002060020181905550600460086000600381526020019081526020016000206000600481526020019081526020016000206000018190555060006008600060038152602001908152602001600020600060048152602001908152602001600020600101819055506278614d600860006003815260200190815260200160002060006004815260200190815260200160002060020181905550600460086000600381526020019081526020016000206000600581526020019081526020016000206000018190555060006008600060038152602001908152602001600020600060058152602001908152602001600020600101819055506278614d60086000600381526020019081526020016000206000600581526020019081526020016000206002018190555060036008600060048152602001908152602001600020600060018152602001908152602001600020600001819055506101f460086000600481526020019081526020016000206000600181526020019081526020016000206001018190555062f0c29a60086000600481526020019081526020016000206000600181526020019081526020016000206002018190555060056008600060048152602001908152602001600020600060028152602001908152602001600020600001819055506101f460086000600481526020019081526020016000206000600281526020019081526020016000206001018190555062f0c29a60086000600481526020019081526020016000206000600281526020019081526020016000206002018190555060056008600060048152602001908152602001600020600060038152602001908152602001600020600001819055506101f460086000600481526020019081526020016000206000600381526020019081526020016000206001018190555062f0c29a60086000600481526020019081526020016000206000600381526020019081526020016000206002018190555060056008600060048152602001908152602001600020600060048152602001908152602001600020600001819055506103e860086000600481526020019081526020016000206000600481526020019081526020016000206001018190555062f0c29a60086000600481526020019081526020016000206000600481526020019081526020016000206002018190555060056008600060048152602001908152602001600020600060058152602001908152602001600020600001819055506103e860086000600481526020019081526020016000206000600581526020019081526020016000206001018190555062f0c29a60086000600481526020019081526020016000206000600581526020019081526020016000206002018190555060046008600060058152602001908152602001600020600060018152602001908152602001600020600001819055506101f46008600060058152602001908152602001600020600060018152602001908152602001600020600101819055506301e1853460086000600581526020019081526020016000206000600181526020019081526020016000206002018190555060056008600060058152602001908152602001600020600060028152602001908152602001600020600001819055506101f46008600060058152602001908152602001600020600060028152602001908152602001600020600101819055506301e1853460086000600581526020019081526020016000206000600281526020019081526020016000206002018190555060056008600060058152602001908152602001600020600060038152602001908152602001600020600001819055506101f46008600060058152602001908152602001600020600060038152602001908152602001600020600101819055506301e1853460086000600581526020019081526020016000206000600381526020019081526020016000206002018190555060066008600060058152602001908152602001600020600060048152602001908152602001600020600001819055506103e86008600060058152602001908152602001600020600060048152602001908152602001600020600101819055506301e1853460086000600581526020019081526020016000206000600481526020019081526020016000206002018190555060076008600060058152602001908152602001600020600060058152602001908152602001600020600001819055506103e86008600060058152602001908152602001600020600060058152602001908152602001600020600101819055506301e18534600860006005815260200190815260200160002060006005815260200190815260200160002060020181905550505061376a806110626000396000f3fe60806040526004361061012a5760003560e01c80638f32d59b116100ab578063b8825aba1161006f578063b8825aba14610589578063c311d04914610620578063d8d797001461065b578063e59626ee14610665578063e8f2fd4814610734578063f2fde38b146107995761012a565b80638f32d59b1461041457806397cb01c7146104415780639b1b65061461046c578063a3f0bb6614610531578063b2bdfa7b146105485761012a565b806361462631116100f2578063614626311461026e5780636901f668146102d557806369bcb284146102ec5780636b12cd0a1461037157806384ad38e9146103c05761012a565b80631df74bba1461012f57806344e644df1461017d57806344ed456f146101ba57806354d39008146101d15780635dde3aa914610236575b600080fd5b61017b6004803603604081101561014557600080fd5b8101908080359060200190929190803573ffffffffffffffffffffffffffffffffffffffff1690602001909291905050506107ea565b005b34801561018957600080fd5b506101b8600480360360208110156101a057600080fd5b81019080803515159060200190929190505050610a68565b005b3480156101c657600080fd5b506101cf610a85565b005b3480156101dd57600080fd5b50610220600480360360208110156101f457600080fd5b81019080803573ffffffffffffffffffffffffffffffffffffffff169060200190929190505050610c3d565b6040518082815260200191505060405180910390f35b61026c6004803603604081101561024c57600080fd5b810190808035906020019092919080359060200190929190505050610c55565b005b34801561027a57600080fd5b506102b16004803603604081101561029157600080fd5b8101908080359060200190929190803590602001909291905050506112c2565b60405180848152602001838152602001828152602001935050505060405180910390f35b3480156102e157600080fd5b506102ea6112f9565b005b3480156102f857600080fd5b5061035b6004803603604081101561030f57600080fd5b81019080803573ffffffffffffffffffffffffffffffffffffffff169060200190929190803573ffffffffffffffffffffffffffffffffffffffff1690602001909291905050506112fb565b6040518082815260200191505060405180910390f35b34801561037d57600080fd5b506103be6004803603606081101561039457600080fd5b81019080803590602001909291908035906020019092919080359060200190929190505050611320565b005b610412600480360360408110156103d657600080fd5b81019080803563ffffffff169060200190929190803573ffffffffffffffffffffffffffffffffffffffff169060200190929190505050611351565b005b34801561042057600080fd5b50610429611da9565b60405180821515815260200191505060405180910390f35b34801561044d57600080fd5b50610456611e00565b6040518082815260200191505060405180910390f35b34801561047857600080fd5b506104bb6004803603602081101561048f57600080fd5b81019080803573ffffffffffffffffffffffffffffffffffffffff169060200190929190505050611e06565b604051808c73ffffffffffffffffffffffffffffffffffffffff1681526020018b81526020018a8152602001898152602001888152602001871515815260200186151581526020018581526020018481526020018381526020018281526020019b50505050505050505050505060405180910390f35b34801561053d57600080fd5b50610546611e9a565b005b34801561055457600080fd5b5061055d612176565b604051808273ffffffffffffffffffffffffffffffffffffffff16815260200191505060405180910390f35b34801561059557600080fd5b506105d8600480360360208110156105ac57600080fd5b81019080803573ffffffffffffffffffffffffffffffffffffffff16906020019092919050505061219a565b604051808681526020018581526020018481526020018381526020018273ffffffffffffffffffffffffffffffffffffffff1681526020019550505050505060405180910390f35b34801561062c57600080fd5b506106596004803603602081101561064357600080fd5b81019080803590602001909291905050506121f0565b005b6106636126e9565b005b34801561067157600080fd5b506106be6004803603604081101561068857600080fd5b81019080803573ffffffffffffffffffffffffffffffffffffffff1690602001909291908035906020019092919050505061279f565b604051808c73ffffffffffffffffffffffffffffffffffffffff1681526020018b81526020018a8152602001898152602001888152602001871515815260200186151581526020018581526020018481526020018381526020018281526020019b50505050505050505050505060405180910390f35b34801561074057600080fd5b506107976004803603606081101561075757600080fd5b81019080803573ffffffffffffffffffffffffffffffffffffffff1690602001909291908035906020019092919080359060200190929190505050612850565b005b3480156107a557600080fd5b506107e8600480360360208110156107bc57600080fd5b81019080803573ffffffffffffffffffffffffffffffffffffffff169060200190929190505050612855565b005b600080600260009054906101000a900473ffffffffffffffffffffffffffffffffffffffff1673ffffffffffffffffffffffffffffffffffffffff166345266697846040518263ffffffff1660e01b8152600401808273ffffffffffffffffffffffffffffffffffffffff168152602001915050604080518083038186803b15801561087557600080fd5b505afa158015610889573d6000803e3d6000fd5b505050506040513d604081101561089f57600080fd5b8101908080519060200190929190805190602001909291905050509150915060006108f66108d5670de0b6b3a764000085612990565b6108e868056bc75e2d6310000085612990565b670de0b6b3a76400006129a9565b905060326109058260056129c0565b1161095b576040517f08c379a000000000000000000000000000000000000000000000000000000000815260040180806020018281038252603b8152602001806136c2603b913960400191505060405180910390fd5b6109e1600b60003373ffffffffffffffffffffffffffffffffffffffff1673ffffffffffffffffffffffffffffffffffffffff16815260200190815260200160002060008673ffffffffffffffffffffffffffffffffffffffff1673ffffffffffffffffffffffffffffffffffffffff16815260200190815260200160002054866129f7565b600b60003373ffffffffffffffffffffffffffffffffffffffff1673ffffffffffffffffffffffffffffffffffffffff16815260200190815260200160002060008673ffffffffffffffffffffffffffffffffffffffff1673ffffffffffffffffffffffffffffffffffffffff168152602001908152602001600020819055505050505050565b80600160146101000a81548160ff02191690831515021790555050565b6000600460003373ffffffffffffffffffffffffffffffffffffffff1673ffffffffffffffffffffffffffffffffffffffff1681526020019081526020016000206002015414610ad457600080fd5b6000600460003373ffffffffffffffffffffffffffffffffffffffff1673ffffffffffffffffffffffffffffffffffffffff168152602001908152602001600020600401549050600160009054906101000a900473ffffffffffffffffffffffffffffffffffffffff1673ffffffffffffffffffffffffffffffffffffffff1663a9059cbb33836040518363ffffffff1660e01b8152600401808373ffffffffffffffffffffffffffffffffffffffff16815260200182815260200192505050602060405180830381600087803b158015610bae57600080fd5b505af1158015610bc2573d6000803e3d6000fd5b505050506040513d6020811015610bd857600080fd5b8101908080519060200190929190505050610bf257600080fd5b6000600460003373ffffffffffffffffffffffffffffffffffffffff1673ffffffffffffffffffffffffffffffffffffffff1681526020019081526020016000206004018190555050565b600a6020528060005260406000206000915090505481565b60001515600460003373ffffffffffffffffffffffffffffffffffffffff1673ffffffffffffffffffffffffffffffffffffffff16815260200190815260200160002060050160019054906101000a900460ff16151514610cb557600080fd5b6000601490506000600f90506000600290506000600590506006600082815260200190815260200160002060010154861115610d3c576040517f08c379a00000000000000000000000000000000000000000000000000000000081526004018080602001828103825260388152602001806136fd6038913960400191505060405180910390fd5b6000610df368056bc75e2d63100000600260009054906101000a900473ffffffffffffffffffffffffffffffffffffffff1673ffffffffffffffffffffffffffffffffffffffff1663858b033d6040518163ffffffff1660e01b815260040160206040518083038186803b158015610db357600080fd5b505afa158015610dc7573d6000803e3d6000fd5b505050506040513d6020811015610ddd57600080fd5b8101908080519060200190929190505050612990565b90506000610e018783612990565b90506006600084815260200190815260200160002060000154811115610e2657600080fd5b6000806000600260009054906101000a900473ffffffffffffffffffffffffffffffffffffffff1673ffffffffffffffffffffffffffffffffffffffff16633a7a2a06600160009054906101000a900473ffffffffffffffffffffffffffffffffffffffff1673eeeeeeeeeeeeeeeeeeeeeeeeeeeeeeeeeeeeeeee6040518363ffffffff1660e01b8152600401808373ffffffffffffffffffffffffffffffffffffffff1681526020018273ffffffffffffffffffffffffffffffffffffffff1681526020019250505060606040518083038186803b158015610f0857600080fd5b505afa158015610f1c573d6000803e3d6000fd5b505050506040513d6060811015610f3257600080fd5b810190808051906020019092919080519060200190929190805190602001909291905050509250925092506000610f7d610f778c610f708d8d6129c0565b60646129a9565b85612990565b90506000610f968c610f918e8c60646129a9565b612a0e565b90506000610fa4828f612990565b905060011515600160009054906101000a900473ffffffffffffffffffffffffffffffffffffffff1673ffffffffffffffffffffffffffffffffffffffff166323b872dd3330876040518463ffffffff1660e01b8152600401808473ffffffffffffffffffffffffffffffffffffffff1681526020018373ffffffffffffffffffffffffffffffffffffffff1681526020018281526020019350505050602060405180830381600087803b15801561105b57600080fd5b505af115801561106f573d6000803e3d6000fd5b505050506040513d602081101561108557600080fd5b810190808051906020019092919050505015151461110b576040517f08c379a00000000000000000000000000000000000000000000000000000000081526004018080602001828103825260198152602001807f5061796d656e7420776173206e6f7420617070726f7665642e0000000000000081525060200191505060405180910390fd5b6040518061016001604052803373ffffffffffffffffffffffffffffffffffffffff1681526020018e815260200183815260200182815260200184815260200160001515815260200160011515815260200161116a426228206f612a0e565b8152602001428152602001600660008c81526020019081526020016000206002015481526020016000815250600460003373ffffffffffffffffffffffffffffffffffffffff1673ffffffffffffffffffffffffffffffffffffffff16815260200190815260200160002060008201518160000160006101000a81548173ffffffffffffffffffffffffffffffffffffffff021916908373ffffffffffffffffffffffffffffffffffffffff1602179055506020820151816001015560408201518160020155606082015181600301556080820151816004015560a08201518160050160006101000a81548160ff02191690831515021790555060c08201518160050160016101000a81548160ff02191690831515021790555060e082015181600601556101008201518160070155610120820151816008015561014082015181600901559050505050505050505050505050505050565b6008602052816000526040600020602052806000526040600020600091509150508060000154908060010154908060020154905083565b565b600b602052816000526040600020602052806000526040600020600091509150505481565b8260086000838152602001908152602001600020600084815260200190815260200160002060010181905550505050565b8163ffffffff1660011515600160149054906101000a900460ff161515146113e1576040517f08c379a000000000000000000000000000000000000000000000000000000000815260040180806020018281038252601c8152602001807f5374616b696e672069732063757272656e746c79206f66666c696e650000000081525060200191505060405180910390fd5b670214e8348c4f00003411611441576040517f08c379a000000000000000000000000000000000000000000000000000000000815260040180806020018281038252602c815260200180613696602c913960400191505060405180910390fd5b60018110158015611453575060058111155b6114a8576040517f08c379a000000000000000000000000000000000000000000000000000000000815260040180806020018281038252602d815260200180613669602d913960400191505060405180910390fd5b6000806000905060008067058d15e17628000034116114ca5760019350611575565b671bc16d674ec8000034116114e25760029350611574565b674563918244f4000034116114fa5760039350611573565b68015af1d78b58c400003411611540576004935060048763ffffffff161415611526576019925061153b565b60058763ffffffff16141561153a57603292505b5b611572565b6005935060048763ffffffff16141561155c5760199250611571565b60058763ffffffff16141561157057603292505b5b5b5b5b5b600c60009054906101000a900473ffffffffffffffffffffffffffffffffffffffff1673ffffffffffffffffffffffffffffffffffffffff163373ffffffffffffffffffffffffffffffffffffffff1614156115f157600d548763ffffffff161480156115e35750600e5484145b6115ec57600080fd5b611695565b6000600860008963ffffffff16815260200190815260200160002060008681526020019081526020016000206001015411611694576040517f08c379a000000000000000000000000000000000000000000000000000000000815260040180806020018281038252601e8152602001807f54696572206465706c657465642c20636f6d65206261636b206c61746572000081525060200191505060405180910390fd5b5b6000600960003373ffffffffffffffffffffffffffffffffffffffff1673ffffffffffffffffffffffffffffffffffffffff16815260200190815260200160002060000154111561181857611759600860008963ffffffff168152602001908152602001600020600086815260200190815260200160002060020154600960003373ffffffffffffffffffffffffffffffffffffffff1673ffffffffffffffffffffffffffffffffffffffff16815260200190815260200160002060020154612a0e565b9150600142116117b4576040517f08c379a00000000000000000000000000000000000000000000000000000000081526004018080602001828103825260268152602001806136436026913960400191505060405180910390fd5b61181161180334600960003373ffffffffffffffffffffffffffffffffffffffff1673ffffffffffffffffffffffffffffffffffffffff16815260200190815260200160002060000154612a0e565b8863ffffffff168689612a2a565b905061182d565b61182a348863ffffffff168689612a2a565b90505b600a60008773ffffffffffffffffffffffffffffffffffffffff1673ffffffffffffffffffffffffffffffffffffffff168152602001908152602001600020548111156118e2576040517f08c379a000000000000000000000000000000000000000000000000000000000815260040180806020018281038252601e8152602001807f54726561737572792069732063757272656e746c79206465706c65746564000081525060200191505060405180910390fd5b60008311156119a85760006118f9828560646129a9565b905061195c600960003373ffffffffffffffffffffffffffffffffffffffff1673ffffffffffffffffffffffffffffffffffffffff16815260200190815260200160002060010154611957846119506064896129f7565b60646129a9565b612a0e565b600960003373ffffffffffffffffffffffffffffffffffffffff1673ffffffffffffffffffffffffffffffffffffffff1681526020019081526020016000206001018190555050611a3b565b6119f4600960003373ffffffffffffffffffffffffffffffffffffffff1673ffffffffffffffffffffffffffffffffffffffff1681526020019081526020016000206001015482612a0e565b600960003373ffffffffffffffffffffffffffffffffffffffff1673ffffffffffffffffffffffffffffffffffffffff168152602001908152602001600020600101819055505b8663ffffffff16600960003373ffffffffffffffffffffffffffffffffffffffff1673ffffffffffffffffffffffffffffffffffffffff16815260200190815260200160002060030181905550611ad1600a60008873ffffffffffffffffffffffffffffffffffffffff1673ffffffffffffffffffffffffffffffffffffffff16815260200190815260200160002054826129f7565b600a60008873ffffffffffffffffffffffffffffffffffffffff1673ffffffffffffffffffffffffffffffffffffffff168152602001908152602001600020819055506000600260009054906101000a900473ffffffffffffffffffffffffffffffffffffffff1673ffffffffffffffffffffffffffffffffffffffff1663858b033d6040518163ffffffff1660e01b815260040160206040518083038186803b158015611b7e57600080fd5b505afa158015611b92573d6000803e3d6000fd5b505050506040513d6020811015611ba857600080fd5b810190808051906020019092919050505090506000611bd068056bc75e2d6310000083612990565b9050611c27600960003373ffffffffffffffffffffffffffffffffffffffff1673ffffffffffffffffffffffffffffffffffffffff16815260200190815260200160002060000154611c2234846129f7565b612a0e565b600960003373ffffffffffffffffffffffffffffffffffffffff1673ffffffffffffffffffffffffffffffffffffffff16815260200190815260200160002060000181905550611ca5600860008b63ffffffff16815260200190815260200160002060008881526020019081526020016000206001015460016129f7565b600860008b63ffffffff16815260200190815260200160002060008881526020019081526020016000206001018190555087600960003373ffffffffffffffffffffffffffffffffffffffff1673ffffffffffffffffffffffffffffffffffffffff16815260200190815260200160002060040160006101000a81548173ffffffffffffffffffffffffffffffffffffffff021916908373ffffffffffffffffffffffffffffffffffffffff16021790555042600960003373ffffffffffffffffffffffffffffffffffffffff1673ffffffffffffffffffffffffffffffffffffffff16815260200190815260200160002060020181905550505050505050505050565b60008060009054906101000a900473ffffffffffffffffffffffffffffffffffffffff1673ffffffffffffffffffffffffffffffffffffffff163373ffffffffffffffffffffffffffffffffffffffff1614905090565b600f5481565b60046020528060005260406000206000915090508060000160009054906101000a900473ffffffffffffffffffffffffffffffffffffffff16908060010154908060020154908060030154908060040154908060050160009054906101000a900460ff16908060050160019054906101000a900460ff1690806006015490806007015490806008015490806009015490508b565b6000600460003373ffffffffffffffffffffffffffffffffffffffff1673ffffffffffffffffffffffffffffffffffffffff1681526020019081526020016000206002015414611ee957600080fd5b600560003373ffffffffffffffffffffffffffffffffffffffff1673ffffffffffffffffffffffffffffffffffffffff168152602001908152602001600020600460003373ffffffffffffffffffffffffffffffffffffffff1673ffffffffffffffffffffffffffffffffffffffff16815260200190815260200160002090806001815401808255809150506001900390600052602060002090600a02016000909190919091506000820160009054906101000a900473ffffffffffffffffffffffffffffffffffffffff168160000160006101000a81548173ffffffffffffffffffffffffffffffffffffffff021916908373ffffffffffffffffffffffffffffffffffffffff160217905550600182015481600101556002820154816002015560038201548160030155600482015481600401556005820160009054906101000a900460ff168160050160006101000a81548160ff0219169083151502179055506005820160019054906101000a900460ff168160050160016101000a81548160ff021916908315150217905550600682015481600601556007820154816007015560088201548160080155600982015481600901555050600460003373ffffffffffffffffffffffffffffffffffffffff1673ffffffffffffffffffffffffffffffffffffffff168152602001908152602001600020600080820160006101000a81549073ffffffffffffffffffffffffffffffffffffffff021916905560018201600090556002820160009055600382016000905560048201600090556005820160006101000a81549060ff02191690556005820160016101000a81549060ff021916905560068201600090556007820160009055600882016000905560098201600090555050565b60008054906101000a900473ffffffffffffffffffffffffffffffffffffffff1681565b60096020528060005260406000206000915090508060000154908060010154908060020154908060030154908060040160009054906101000a900473ffffffffffffffffffffffffffffffffffffffff16905085565b600080600960003373ffffffffffffffffffffffffffffffffffffffff1673ffffffffffffffffffffffffffffffffffffffff168152602001908152602001600020600301549050600080600960003373ffffffffffffffffffffffffffffffffffffffff1673ffffffffffffffffffffffffffffffffffffffff16815260200190815260200160002060000154905067058d15e176280000811161229857600591506122e9565b671bc16d674ec8000081116122b057600491506122e8565b674563918244f4000081116122c857600391506122e7565b68015af1d78b58c4000081116122e157600291506122e6565b600191505b5b5b5b61235c60086000858152602001908152602001600020600084815260200190815260200160002060020154600960003373ffffffffffffffffffffffffffffffffffffffff1673ffffffffffffffffffffffffffffffffffffffff16815260200190815260200160002060020154612a0e565b935060006123ad600960003373ffffffffffffffffffffffffffffffffffffffff1673ffffffffffffffffffffffffffffffffffffffff1681526020019081526020016000206000015485856130c5565b9050612497600b60003373ffffffffffffffffffffffffffffffffffffffff1673ffffffffffffffffffffffffffffffffffffffff1681526020019081526020016000206000600960003373ffffffffffffffffffffffffffffffffffffffff1673ffffffffffffffffffffffffffffffffffffffff16815260200190815260200160002060040160009054906101000a900473ffffffffffffffffffffffffffffffffffffffff1673ffffffffffffffffffffffffffffffffffffffff1673ffffffffffffffffffffffffffffffffffffffff1681526020019081526020016000205482612a0e565b600b60003373ffffffffffffffffffffffffffffffffffffffff1673ffffffffffffffffffffffffffffffffffffffff1681526020019081526020016000206000600960003373ffffffffffffffffffffffffffffffffffffffff1673ffffffffffffffffffffffffffffffffffffffff16815260200190815260200160002060040160009054906101000a900473ffffffffffffffffffffffffffffffffffffffff1673ffffffffffffffffffffffffffffffffffffffff1673ffffffffffffffffffffffffffffffffffffffff168152602001908152602001600020819055506000600960003373ffffffffffffffffffffffffffffffffffffffff1673ffffffffffffffffffffffffffffffffffffffff1681526020019081526020016000206001018190555061260d600960003373ffffffffffffffffffffffffffffffffffffffff1673ffffffffffffffffffffffffffffffffffffffff16815260200190815260200160002060000154876129f7565b600960003373ffffffffffffffffffffffffffffffffffffffff1673ffffffffffffffffffffffffffffffffffffffff1681526020019081526020016000206000018190555042600960003373ffffffffffffffffffffffffffffffffffffffff1673ffffffffffffffffffffffffffffffffffffffff168152602001908152602001600020600201819055503373ffffffffffffffffffffffffffffffffffffffff166108fc879081150290604051600060405180830381858888f193505050501580156126e0573d6000803e3d6000fd5b50505050505050565b600460003373ffffffffffffffffffffffffffffffffffffffff1673ffffffffffffffffffffffffffffffffffffffff1681526020019081526020016000206003015434101561273857600080fd5b600460003373ffffffffffffffffffffffffffffffffffffffff1673ffffffffffffffffffffffffffffffffffffffff1681526020019081526020016000206007015442116127915761278c3460006133f3565b61279d565b61279c3460016133f3565b5b565b600560205281600052604060002081815481106127bb57600080fd5b90600052602060002090600a0201600091509150508060000160009054906101000a900473ffffffffffffffffffffffffffffffffffffffff16908060010154908060020154908060030154908060040154908060050160009054906101000a900460ff16908060050160019054906101000a900460ff1690806006015490806007015490806008015490806009015490508b565b505050565b61285d611da9565b6128cf576040517f08c379a00000000000000000000000000000000000000000000000000000000081526004018080602001828103825260168152602001807f596f7520617265206e6f7420746865206f776e65722e0000000000000000000081525060200191505060405180910390fd5b600073ffffffffffffffffffffffffffffffffffffffff168173ffffffffffffffffffffffffffffffffffffffff16141561290957600080fd5b8073ffffffffffffffffffffffffffffffffffffffff167f8be0079c531659141344cd1fd0a4f28419497f9722a3daafe3b4186f6b6457e060008054906101000a900473ffffffffffffffffffffffffffffffffffffffff16604051808273ffffffffffffffffffffffffffffffffffffffff16815260200191505060405180910390a250565b60008082848161299c57fe5b0490508091505092915050565b600081838502816129b657fe5b0490509392505050565b6000808314156129d357600090506129f1565b60008284029050828482816129e457fe5b04146129ec57fe5b809150505b92915050565b600082821115612a0357fe5b818303905092915050565b600080828401905083811015612a2057fe5b8091505092915050565b600080600260009054906101000a900473ffffffffffffffffffffffffffffffffffffffff1673ffffffffffffffffffffffffffffffffffffffff1663f3167c05600160009054906101000a900473ffffffffffffffffffffffffffffffffffffffff166040518263ffffffff1660e01b8152600401808273ffffffffffffffffffffffffffffffffffffffff16815260200191505060206040518083038186803b158015612ad857600080fd5b505afa158015612aec573d6000803e3d6000fd5b505050506040513d6020811015612b0257600080fd5b810190808051906020019092919050505090506000600960003373ffffffffffffffffffffffffffffffffffffffff1673ffffffffffffffffffffffffffffffffffffffff168152602001908152602001600020600101549050600081111561307d576000600960003373ffffffffffffffffffffffffffffffffffffffff1673ffffffffffffffffffffffffffffffffffffffff1681526020019081526020016000206000015490506000600960003373ffffffffffffffffffffffffffffffffffffffff1673ffffffffffffffffffffffffffffffffffffffff16815260200190815260200160002060040160009054906101000a900473ffffffffffffffffffffffffffffffffffffffff1690506000612c1e83613540565b90506000600260009054906101000a900473ffffffffffffffffffffffffffffffffffffffff1673ffffffffffffffffffffffffffffffffffffffff1663f3167c05846040518263ffffffff1660e01b8152600401808273ffffffffffffffffffffffffffffffffffffffff16815260200191505060206040518083038186803b158015612cab57600080fd5b505afa158015612cbf573d6000803e3d6000fd5b505050506040513d6020811015612cd557600080fd5b810190808051906020019092919050505090506000612d31612d2b612cfc878660646129a9565b600860008f815260200190815260200160002060008e81526020019081526020016000206000015460646129a9565b83612990565b9050858110612e8d57612dc0600b60003373ffffffffffffffffffffffffffffffffffffffff1673ffffffffffffffffffffffffffffffffffffffff16815260200190815260200160002060008673ffffffffffffffffffffffffffffffffffffffff1673ffffffffffffffffffffffffffffffffffffffff1681526020019081526020016000205487612a0e565b600b60003373ffffffffffffffffffffffffffffffffffffffff1673ffffffffffffffffffffffffffffffffffffffff16815260200190815260200160002060008673ffffffffffffffffffffffffffffffffffffffff1673ffffffffffffffffffffffffffffffffffffffff168152602001908152602001600020819055506000600960003373ffffffffffffffffffffffffffffffffffffffff1673ffffffffffffffffffffffffffffffffffffffff16815260200190815260200160002060010181905550613077565b6000612e9987836129f7565b9050612ee4600a60008773ffffffffffffffffffffffffffffffffffffffff1673ffffffffffffffffffffffffffffffffffffffff1681526020019081526020016000205482612a0e565b600a60008773ffffffffffffffffffffffffffffffffffffffff1673ffffffffffffffffffffffffffffffffffffffff16815260200190815260200160002081905550612fad600b60003373ffffffffffffffffffffffffffffffffffffffff1673ffffffffffffffffffffffffffffffffffffffff16815260200190815260200160002060008773ffffffffffffffffffffffffffffffffffffffff1673ffffffffffffffffffffffffffffffffffffffff1681526020019081526020016000205483612a0e565b600b60003373ffffffffffffffffffffffffffffffffffffffff1673ffffffffffffffffffffffffffffffffffffffff16815260200190815260200160002060008773ffffffffffffffffffffffffffffffffffffffff1673ffffffffffffffffffffffffffffffffffffffff168152602001908152602001600020819055506000600960003373ffffffffffffffffffffffffffffffffffffffff1673ffffffffffffffffffffffffffffffffffffffff16815260200190815260200160002060010181905550505b50505050505b6130b96130b388600860008a815260200190815260200160002060008981526020019081526020016000206000015460646129a9565b83612990565b92505050949350505050565b600080606490506000600960003373ffffffffffffffffffffffffffffffffffffffff1673ffffffffffffffffffffffffffffffffffffffff1681526020019081526020016000206001015490506000600960003373ffffffffffffffffffffffffffffffffffffffff1673ffffffffffffffffffffffffffffffffffffffff16815260200190815260200160002060040160009054906101000a900473ffffffffffffffffffffffffffffffffffffffff1690506000600260009054906101000a900473ffffffffffffffffffffffffffffffffffffffff1673ffffffffffffffffffffffffffffffffffffffff1663f3167c05836040518263ffffffff1660e01b8152600401808273ffffffffffffffffffffffffffffffffffffffff16815260200191505060206040518083038186803b15801561320557600080fd5b505afa158015613219573d6000803e3d6000fd5b505050506040513d602081101561322f57600080fd5b8101908080519060200190929190505050905060048714801561325d5750600486148061325c5750600586145b5b1561326b57604b9350613291565b600587148015613286575060048614806132855750600586145b5b1561329057603293505b5b60008311156133e357600061332561331f6132f0600960003373ffffffffffffffffffffffffffffffffffffffff1673ffffffffffffffffffffffffffffffffffffffff168152602001908152602001600020600001548860646129a9565b600860008c815260200190815260200160002060008b81526020019081526020016000206000015460646129a9565b83612990565b905083811061333b5783955050505050506133ec565b600061334785836129f7565b9050613392600a60008673ffffffffffffffffffffffffffffffffffffffff1673ffffffffffffffffffffffffffffffffffffffff1681526020019081526020016000205482612a0e565b600a60008673ffffffffffffffffffffffffffffffffffffffff1673ffffffffffffffffffffffffffffffffffffffff168152602001908152602001600020819055508196505050505050506133ec565b60009450505050505b9392505050565b61343f600460003373ffffffffffffffffffffffffffffffffffffffff1673ffffffffffffffffffffffffffffffffffffffff16815260200190815260200160002060020154836129f7565b600460003373ffffffffffffffffffffffffffffffffffffffff1673ffffffffffffffffffffffffffffffffffffffff16815260200190815260200160002060020181905550613492426228206f612a0e565b600460003373ffffffffffffffffffffffffffffffffffffffff1673ffffffffffffffffffffffffffffffffffffffff16815260200190815260200160002060070181905550801561353c57600061353861352f42600460003373ffffffffffffffffffffffffffffffffffffffff1673ffffffffffffffffffffffffffffffffffffffff168152602001908152602001600020600701546129f7565b62015180612990565b9050505b5050565b6000806000600960003373ffffffffffffffffffffffffffffffffffffffff1673ffffffffffffffffffffffffffffffffffffffff168152602001908152602001600020600301549050600067058d15e17628000085116135a45760019250613637565b671bc16d674ec8000085116135bc5760029250613636565b674563918244f4000085116135d45760039250613635565b68015af1d78b58c40000851161360e576004925060048214156135fa57604b9050613609565b600582141561360857603290505b5b613634565b60059250600482141561362457604b9050613633565b600582141561363257603290505b5b5b5b5b5b80935050505091905056fe43757272656e74207374616b696e6720706572696f64206973206e6f74206f7665722079657454696572206e756d626572206d7573742062652061206e756d626572206265747765656e203120616e6420352e4572726f722c206465706f736974206d75737420626520686967686572207468616e20302e30313520455448416d6f756e7420696e2043424c54206d75737420626520686967686572207468616e20353020746f74616c20776f72746820696e2076616c75652e5061796d656e7420706572696f6420657863656564732074686174206f662074686520746965722c20706c6561732074727920616761696ea264697066735822122002d33640b03b812269ccd8daf97be2a235cd0c090bfee7c7f6c16873250e797664736f6c63430007060033",
  "immutableReferences": {},
  "source": "pragma solidity >=0.4.22 <0.9.0;\n\nimport \"./interfaces/Ownable.sol\";\nimport \"./interfaces/IERC20.sol\";\nimport \"./interfaces/SafeMath.sol\";\nimport \"./interfaces/UniversalERC20.sol\";\nimport \"./ExchangeOracle.sol\";\n\n// 0x433C6E3D2def6E1fb414cf9448724EFB0399b698\n\ncontract Bank is Ownable {\n    using UniversalERC20 for IERC20;\n\n    /**\n     * @dev storing CBLT token in ERC20 type\n     */\n    IERC20 token;\n\n    bool internal stakingStatus = true;\n\n    /**\n     * @dev Creating oracle instance\n     */\n    ExchangeOracle oracle;\n\n    /**\n     * @dev CobaltLend oracle for scoring and CBLT price\n     */\n    address oracleAddress;\n\n    constructor(address _CBLT, address _oracle) {\n        oracle = ExchangeOracle(_oracle);\n        token = IERC20(_CBLT);\n\n        loanTiers[5].maxVoters = 100;\n        loanTiers[5].maximumPaymentPeriod = 60;\n        loanTiers[5].principalLimit = 500000;\n\n        tokenReserve[\n            0x433C6E3D2def6E1fb414cf9448724EFB0399b698\n        ] = 6000000000000000000000000000;\n        tokenReserve[\n            0x95b58a6Bff3D14B7DB2f5cb5F0Ad413DC2940658\n        ] = 6000000000000000000000000000;\n\n        // Staking percentages based on deposit time and amount\n        stakingRewardRate[1][1].interest = 1;\n        stakingRewardRate[1][1].amountStakersLeft = 0;\n        stakingRewardRate[1][1].tierDuration = 2629743;\n        stakingRewardRate[1][2].interest = 2;\n        stakingRewardRate[1][2].amountStakersLeft = 0;\n        stakingRewardRate[1][2].tierDuration = 2629743;\n        stakingRewardRate[1][3].interest = 3;\n        stakingRewardRate[1][3].amountStakersLeft = 0;\n        stakingRewardRate[1][3].tierDuration = 2629743;\n        stakingRewardRate[1][4].interest = 4;\n        stakingRewardRate[1][4].amountStakersLeft = 0;\n        stakingRewardRate[1][4].tierDuration = 2629743;\n        stakingRewardRate[1][5].interest = 4;\n        stakingRewardRate[1][5].amountStakersLeft = 0;\n        stakingRewardRate[1][5].tierDuration = 2629743;\n        //\n        stakingRewardRate[2][1].interest = 1;\n        stakingRewardRate[2][1].amountStakersLeft = 0;\n        stakingRewardRate[2][1].tierDuration = 5259486;\n        stakingRewardRate[2][2].interest = 2;\n        stakingRewardRate[2][2].amountStakersLeft = 0;\n        stakingRewardRate[2][2].tierDuration = 5259486;\n        stakingRewardRate[2][3].interest = 3;\n        stakingRewardRate[2][3].amountStakersLeft = 0;\n        stakingRewardRate[2][3].tierDuration = 5259486;\n        stakingRewardRate[2][4].interest = 4;\n        stakingRewardRate[2][4].amountStakersLeft = 0;\n        stakingRewardRate[2][4].tierDuration = 5259486;\n        stakingRewardRate[2][5].interest = 4;\n        stakingRewardRate[2][5].amountStakersLeft = 0;\n        stakingRewardRate[2][5].tierDuration = 5259486;\n        //\n        stakingRewardRate[3][1].interest = 1;\n        stakingRewardRate[3][1].amountStakersLeft = 0;\n        stakingRewardRate[3][1].tierDuration = 7889229;\n        stakingRewardRate[3][2].interest = 2;\n        stakingRewardRate[3][2].amountStakersLeft = 0;\n        stakingRewardRate[3][2].tierDuration = 7889229;\n        stakingRewardRate[3][3].interest = 3;\n        stakingRewardRate[3][3].amountStakersLeft = 0;\n        stakingRewardRate[3][3].tierDuration = 7889229;\n        stakingRewardRate[3][4].interest = 4;\n        stakingRewardRate[3][4].amountStakersLeft = 0;\n        stakingRewardRate[3][4].tierDuration = 7889229;\n        stakingRewardRate[3][5].interest = 4;\n        stakingRewardRate[3][5].amountStakersLeft = 0;\n        stakingRewardRate[3][5].tierDuration = 7889229;\n        //\n        stakingRewardRate[4][1].interest = 3;\n        stakingRewardRate[4][1].amountStakersLeft = 500;\n        stakingRewardRate[4][1].tierDuration = 15778458;\n        stakingRewardRate[4][2].interest = 5;\n        stakingRewardRate[4][2].amountStakersLeft = 500;\n        stakingRewardRate[4][2].tierDuration = 15778458;\n        stakingRewardRate[4][3].interest = 5;\n        stakingRewardRate[4][3].amountStakersLeft = 500;\n        stakingRewardRate[4][3].tierDuration = 15778458;\n        stakingRewardRate[4][4].interest = 5;\n        stakingRewardRate[4][4].amountStakersLeft = 1000;\n        stakingRewardRate[4][4].tierDuration = 15778458;\n        stakingRewardRate[4][5].interest = 5;\n        stakingRewardRate[4][5].amountStakersLeft = 1000;\n        stakingRewardRate[4][5].tierDuration = 15778458;\n        //\n        stakingRewardRate[5][1].interest = 4;\n        stakingRewardRate[5][1].amountStakersLeft = 500;\n        stakingRewardRate[5][1].tierDuration = 31556916;\n        stakingRewardRate[5][2].interest = 5;\n        stakingRewardRate[5][2].amountStakersLeft = 500;\n        stakingRewardRate[5][2].tierDuration = 31556916;\n        stakingRewardRate[5][3].interest = 5;\n        stakingRewardRate[5][3].amountStakersLeft = 500;\n        stakingRewardRate[5][3].tierDuration = 31556916;\n        stakingRewardRate[5][4].interest = 6;\n        stakingRewardRate[5][4].amountStakersLeft = 1000;\n        stakingRewardRate[5][4].tierDuration = 31556916;\n        stakingRewardRate[5][5].interest = 7;\n        stakingRewardRate[5][5].amountStakersLeft = 1000;\n        stakingRewardRate[5][5].tierDuration = 31556916;\n    }\n\n    /**\n     * @dev Events emitted\n     */\n    event onReceived(address indexed _from, uint256 _amount);\n    event onTransfer(\n        address indexed _from,\n        address indexed _to,\n        uint256 _amount\n    );\n    event depositToken(address indexed _from, uint256 _amount);\n\n    // ****************************** Lending **********************************\n\n    /**\n     * @dev mapping used to store all loan information with the key of borrower address\n     *  and value of Loan struct with all loan information\n     */\n    mapping(address => Loan) public loanBook;\n\n    /**\n     * @dev Informstion from previously fullfilled loans are stored into the blockchain\n     * before being permanently deleted\n     */\n    mapping(address => Loan[]) public loanRecords;\n\n    /**\n     * @dev struct to access information on tier structure\n     */\n    struct loanTier {\n        uint256 principalLimit;\n        uint256 maximumPaymentPeriod;\n        uint256 maxVoters;\n    }\n\n    mapping(uint256 => loanTier) loanTiers;\n\n    /**\n     * @dev Struct to store loan information\n     */\n    struct Loan {\n        address borrower; // Address of wallet\n        uint256 amountBorrowed; // Initial loan balance\n        uint256 remainingBalance; // Remaining balance\n        uint256 minimumPayment; // MinimumPayment // Can be calculated off total amount\n        uint256 collateral; // Amount owed back to borrower after loan is paid in full\n        bool active; // Is the current loan active (Voted yes)\n        bool initialized; // Does the borrower have a current loan application\n        uint256 timeCreated; // Time of loan application also epoch in days\n        uint256 dueDate; // Time of contract ending\n        uint256 totalVote; // Total amount determined by tier\n        uint256 yes; // Amount of votes for yes\n        // address currentCoin; // Address of collateral coin\n    }\n\n    /**\n     * @dev Recalculates interest and also conducts check and balances\n     */\n\n    function newLoan(uint256 _paymentPeriod, uint256 _principal)\n        public\n        payable\n    {\n        require(loanBook[msg.sender].initialized == false);\n\n        uint256 riskScore = 20; // NFT ENTRY!!!!\n        uint256 riskFactor = 15; // NFT ENTRY!!!!\n        uint256 interestRate = 2; // NFT ENTRY!!!!\n        uint256 userMaxTier = 5; // NFT ENTRY!!!!\n        // uint256 flatfee = 400; // NFT ENTRY!!!!\n\n        require(\n            _paymentPeriod <= loanTiers[userMaxTier].maximumPaymentPeriod,\n            \"Payment period exceeds that of the tier, pleas try again\"\n        );\n\n        // One dollar in ETH\n        uint256 oneUSDinETH =\n            SafeMath.div(100000000000000000000, oracle.priceOfETH());\n\n        // Calculate how much is being borrowed in USD - must be within limits of the tier\n        uint256 amountBorrowed = SafeMath.div(_principal, oneUSDinETH);\n        require(amountBorrowed <= loanTiers[userMaxTier].principalLimit);\n\n        // Pay loan application lee to cover for fees\n        // require(msg.value >= SafeMath.mul(oneUSDinETH,flatfee)); // Needs change based on current prices\n\n        (uint256 CBLTprice, uint256 ETHprice, bool success) =\n            oracle.priceOfPair(\n                address(token),\n                0xEeeeeEeeeEeEeeEeEeEeeEEEeeeeEeeeeeeeEEeE\n            );\n\n        // Calculate collateral in CBLT based on principal, riskScore and riskFactor\n        uint256 collateralInCBLT =\n            SafeMath.div(\n                SafeMath.multiply(\n                    _principal,\n                    SafeMath.mul(riskScore, riskFactor),\n                    100\n                ),\n                CBLTprice\n            );\n\n        // Calculate new principal with the added interest\n        uint256 finalPrincipal =\n            SafeMath.add(\n                _principal,\n                SafeMath.multiply(_principal, interestRate, 100)\n            );\n\n        uint256 monthlyPayment = SafeMath.div(finalPrincipal, _paymentPeriod);\n\n        require(\n            token.transferFrom(msg.sender, address(this), collateralInCBLT) ==\n                true,\n            \"Payment was not approved.\"\n        );\n\n        loanBook[msg.sender] = Loan(\n            msg.sender,\n            _principal,\n            finalPrincipal,\n            monthlyPayment,\n            collateralInCBLT,\n            false,\n            true,\n            SafeMath.add(block.timestamp, 2629743),\n            block.timestamp,\n            loanTiers[userMaxTier].maxVoters,\n            0\n        );\n    }\n\n    /**\n     * @dev\n     */\n\n    function processPeriod(uint256 _payment, bool _missedPayment) internal {\n        loanBook[msg.sender].remainingBalance = SafeMath.sub(\n            loanBook[msg.sender].remainingBalance,\n            _payment\n        );\n\n        loanBook[msg.sender].dueDate = SafeMath.add(block.timestamp, 2629743);\n\n        if (_missedPayment) {\n            // Needs to interact with the NFT\n            // Collateral is substracted\n            // Strike system // Connected to NFT\n            uint256 daysMissed =\n                SafeMath.div(\n                    SafeMath.sub(block.timestamp, loanBook[msg.sender].dueDate),\n                    86400\n                );\n            if (daysMissed > 7) {\n                // Suspend loan\n            }\n        }\n    }\n\n    /**\n     * @dev\n     */\n    function validate() public {} // Only devs\n\n    /**\n     * @dev Function for the user to make a payment with ETH\n     *\n     */\n    function makePayment() public payable {\n        require(msg.value >= loanBook[msg.sender].minimumPayment);\n\n        if (block.timestamp <= loanBook[msg.sender].dueDate) {\n            processPeriod(msg.value, false);\n        } else {\n            processPeriod(msg.value, true);\n        }\n    }\n\n    /**\n     * @dev\n     */\n    function returnCollateral() public {\n        require(loanBook[msg.sender].remainingBalance == 0);\n\n        uint256 amount = loanBook[msg.sender].collateral;\n        require(token.transfer(msg.sender, amount));\n\n        loanBook[msg.sender].collateral = 0;\n    }\n\n    /**\n     * @dev Deletes loan instance once the user has paid his active loan in full\n     */\n    function cleanSlate() public {\n        require(loanBook[msg.sender].remainingBalance == 0);\n        loanRecords[msg.sender].push(loanBook[msg.sender]);\n        delete loanBook[msg.sender];\n    }\n\n    // **************************** Staking ******************************\n    struct crossTier {\n        uint256 interest;\n        uint256 amountStakersLeft;\n        uint256 tierDuration;\n    }\n\n    address currentToken;\n\n    mapping(uint256 => mapping(uint256 => crossTier)) public stakingRewardRate;\n\n    mapping(address => User) public userBook;\n\n    mapping(address => uint256) public tokenReserve;\n\n    mapping(address => mapping(address => uint256)) public rewardWallet;\n\n    address lotteryWinner;\n    uint256 lotteryTimeTier;\n    uint256 lotteryAmountTier;\n\n    uint256 public borrowingPool;\n\n    struct User {\n        uint256 ethBalance;\n        uint256 tokenReserved;\n        uint256 depositTime;\n        uint256 timeStakedTier;\n        address currentTokenStaked;\n    }\n\n    modifier isValidStake(uint256 _timeStakedTier) {\n        // Checks if staking is currently online\n        require(stakingStatus == true, \"Staking is currently offline\");\n\n        // Minimum deposit of 0.015 ETH\n        require(\n            msg.value > 15e16,\n            \"Error, deposit must be higher than 0.015 ETH\"\n        );\n\n        // The tier input must be between 1 and 5\n        require(\n            _timeStakedTier >= 1 && _timeStakedTier <= 5, // needs to be variable\n            \"Tier number must be a number between 1 and 5.\"\n        );\n        _;\n    }\n\n    function previousStakingMath(uint256 _amountStakedPreviously)\n        internal\n        returns (uint256)\n    {\n        uint256 previousAmountTier;\n        uint256 tierStakedPreviously = userBook[msg.sender].timeStakedTier;\n        uint256 percentBasedAmount;\n\n        // Determine the amount staked tier based on ETH balance\n        if (_amountStakedPreviously <= 4e17) {\n            previousAmountTier = 1;\n        } else if (_amountStakedPreviously <= 2e18) {\n            previousAmountTier = 2;\n        } else if (_amountStakedPreviously <= 5e18) {\n            previousAmountTier = 3;\n        } else if (_amountStakedPreviously <= 25e18) {\n            previousAmountTier = 4;\n            if (tierStakedPreviously == 4) {\n                percentBasedAmount = 75;\n            } else if (tierStakedPreviously == 5) {\n                percentBasedAmount = 50;\n            }\n        } else {\n            previousAmountTier = 5;\n            if (tierStakedPreviously == 4) {\n                percentBasedAmount = 75;\n            } else if (tierStakedPreviously == 5) {\n                percentBasedAmount = 50;\n            }\n        }\n\n        return percentBasedAmount;\n    }\n\n    function calculateRewardDeposit(\n        uint256 _amount,\n        uint256 _timeStakedTier,\n        uint256 _amountStakedTier,\n        address _tokenAddress\n    ) internal returns (uint256) {\n        uint256 tokenPrice = oracle.priceOfToken(address(token));\n\n        uint256 userReserved = userBook[msg.sender].tokenReserved;\n\n        // Check if user has CBLT tokens reserved\n        if (userReserved > 0) {\n            uint256 amountStakedPreviously = userBook[msg.sender].ethBalance;\n            address previousTokenAddress =\n                userBook[msg.sender].currentTokenStaked;\n            uint256 percentBasedAmount =\n                previousStakingMath(amountStakedPreviously);\n\n            uint256 previousTokenPrice =\n                oracle.priceOfToken(previousTokenAddress);\n\n            // Calculate the new amount of cblt reserved for user at current market price\n            uint256 newReserved =\n                SafeMath.div(\n                    SafeMath.multiply(\n                        SafeMath.multiply(\n                            amountStakedPreviously,\n                            percentBasedAmount,\n                            100\n                        ),\n                        stakingRewardRate[_timeStakedTier][_amountStakedTier]\n                            .interest,\n                        100\n                    ),\n                    previousTokenPrice\n                );\n\n            if (newReserved >= userReserved) {\n                // If price decrease, send all tokens reserved\n                rewardWallet[msg.sender][previousTokenAddress] = SafeMath.add(\n                    rewardWallet[msg.sender][previousTokenAddress],\n                    userReserved\n                );\n                userBook[msg.sender].tokenReserved = 0;\n            } else {\n                // If price increased, calculate the difference between new and old amount final\n                uint256 tokenDifference =\n                    SafeMath.sub(userReserved, newReserved);\n\n                // Add lefover tokens back into treasury\n                tokenReserve[previousTokenAddress] = SafeMath.add(\n                    tokenReserve[previousTokenAddress],\n                    tokenDifference\n                );\n\n                // Save tokens in contract wallet\n                rewardWallet[msg.sender][previousTokenAddress] = SafeMath.add(\n                    rewardWallet[msg.sender][previousTokenAddress],\n                    newReserved\n                );\n                // Reset amount of tokens owed\n                userBook[msg.sender].tokenReserved = 0;\n            }\n        }\n        // Calculate and return new CBLT reserved\n        return\n            SafeMath.div(\n                SafeMath.multiply(\n                    _amount,\n                    stakingRewardRate[_timeStakedTier][_amountStakedTier]\n                        .interest,\n                    100\n                ),\n                tokenPrice\n            );\n    }\n\n    function calculateRewardWithdraw(\n        uint256 _amount,\n        uint256 _timeStakedTier,\n        uint256 _amountStakedTier\n    ) internal returns (uint256) {\n        uint256 percentBasedAmount = 100;\n        uint256 userReserved = userBook[msg.sender].tokenReserved;\n        address previousTokenAddress = userBook[msg.sender].currentTokenStaked;\n\n        uint256 tokenPrice = oracle.priceOfToken(previousTokenAddress);\n\n        // Determining if user was sent CBLT tokens on initial staking\n        if (\n            _timeStakedTier == 4 &&\n            (_amountStakedTier == 4 || _amountStakedTier == 5)\n        ) {\n            percentBasedAmount = 75;\n        } else if (\n            _timeStakedTier == 5 &&\n            (_amountStakedTier == 4 || _amountStakedTier == 5)\n        ) {\n            percentBasedAmount = 50;\n        }\n\n        // If user has CBLT tokens reserved on withdraw, calculate how much is owed to him\n        if (userReserved > 0) {\n            // Calculate the new amount of cblt reserved for user at current market price\n            uint256 newReserved =\n                SafeMath.div(\n                    SafeMath.multiply(\n                        SafeMath.multiply(\n                            userBook[msg.sender].ethBalance,\n                            percentBasedAmount,\n                            100\n                        ),\n                        stakingRewardRate[_timeStakedTier][_amountStakedTier]\n                            .interest,\n                        100\n                    ),\n                    tokenPrice\n                );\n\n            if (newReserved >= userReserved) {\n                // If token price decrease, send all tokens reserved\n                return userReserved;\n            } else {\n                // If CBLT price increased, calculate the difference between new and old amount final\n                uint256 tokenDifference =\n                    SafeMath.sub(userReserved, newReserved);\n\n                // Add lefover cblt tokens back into treasury\n                tokenReserve[previousTokenAddress] = SafeMath.add(\n                    tokenReserve[previousTokenAddress],\n                    tokenDifference\n                );\n\n                // Return new amount of CBLT owed\n                return newReserved;\n            }\n        }\n        return 0;\n    }\n\n    function depositEth(uint32 _timeStakedTier, address _tokenAddress)\n        public\n        payable\n        isValidStake(_timeStakedTier)\n    {\n        uint256 amountStakedTier;\n        uint256 paidAdvanced = 0;\n        uint256 dueDate;\n        uint256 tokensReserved;\n\n        // Check the amountStakedTier based on deposit\n        if (msg.value <= 4e17) {\n            amountStakedTier = 1;\n        } else if (msg.value <= 2e18) {\n            amountStakedTier = 2;\n        } else if (msg.value <= 5e18) {\n            amountStakedTier = 3;\n        } else if (msg.value <= 25e18) {\n            amountStakedTier = 4;\n            if (_timeStakedTier == 4) {\n                paidAdvanced = 25;\n            } else if (_timeStakedTier == 5) {\n                paidAdvanced = 50;\n            }\n        } else {\n            amountStakedTier = 5;\n            if (_timeStakedTier == 4) {\n                paidAdvanced = 25;\n            } else if (_timeStakedTier == 5) {\n                paidAdvanced = 50;\n            }\n        }\n\n        if (msg.sender == lotteryWinner) {\n            require(\n                _timeStakedTier == lotteryTimeTier &&\n                    amountStakedTier == lotteryAmountTier\n            );\n        } else {\n            // Check if tier has not been depleted\n            require(\n                stakingRewardRate[_timeStakedTier][amountStakedTier]\n                    .amountStakersLeft > 0,\n                \"Tier depleted, come back later\"\n            );\n        }\n\n        // Checking if user is restaking or this is his/her first staking instance\n        if (userBook[msg.sender].ethBalance > 0) {\n            // Creates a due date for current staking period\n            dueDate = SafeMath.add(\n                stakingRewardRate[_timeStakedTier][amountStakedTier]\n                    .tierDuration,\n                userBook[msg.sender].depositTime\n            );\n            // Revert if staking period is not over\n            require(\n                block.timestamp > 1,\n                \"Current staking period is not over yet\"\n            );\n\n            // Checks the amount of CBLT tokens that need to be reserved plus existing balance\n            tokensReserved = calculateRewardDeposit(\n                SafeMath.add(msg.value, userBook[msg.sender].ethBalance),\n                _timeStakedTier,\n                amountStakedTier,\n                _tokenAddress\n            );\n        } else {\n            // Checks the amount of CBLT tokens that need to be reserved\n            tokensReserved = calculateRewardDeposit(\n                msg.value,\n                _timeStakedTier,\n                amountStakedTier,\n                _tokenAddress\n            );\n        }\n\n        // Treasury must have that amount open\n        require(\n            tokensReserved <= tokenReserve[_tokenAddress],\n            \"Treasury is currently depleted\"\n        );\n\n        // Check if we are sending CBLT based on time staked\n        if (paidAdvanced > 0) {\n            uint256 tokensSent =\n                SafeMath.multiply(tokensReserved, paidAdvanced, 100);\n            // require( token.transfer(msg.sender, cbltSent), \"Transaction was not successful\" );\n\n            // Saves the amount of CBLT tokens reserved minus the amount sent in advanced\n            userBook[msg.sender].tokenReserved = SafeMath.add(\n                userBook[msg.sender].tokenReserved,\n                SafeMath.multiply(\n                    tokensReserved,\n                    SafeMath.sub(100, paidAdvanced),\n                    100\n                )\n            );\n        } else {\n            // Saves the amount of CBLT tokens reserved in user struct\n            userBook[msg.sender].tokenReserved = SafeMath.add(\n                userBook[msg.sender].tokenReserved,\n                tokensReserved\n            );\n        }\n\n        // Save amount of time staked\n        userBook[msg.sender].timeStakedTier = _timeStakedTier;\n\n        // Substract CBLT tokens reserved for user from treasury\n        tokenReserve[_tokenAddress] = SafeMath.sub(\n            tokenReserve[_tokenAddress],\n            tokensReserved\n        );\n\n        // Oracle call for current ETH price in USD\n        uint256 ETHprice = oracle.priceOfETH();\n\n        // Dollar fee based\n        uint256 ETHinUSD = SafeMath.div(100000000000000000000, ETHprice);\n\n        // Save new eth deposit in user account\n        userBook[msg.sender].ethBalance = SafeMath.add(\n            userBook[msg.sender].ethBalance,\n            SafeMath.sub(msg.value, ETHinUSD)\n        );\n\n        // Decrease number of stakers avaliable for current tier based on time and amount\n        stakingRewardRate[_timeStakedTier][amountStakedTier]\n            .amountStakersLeft = SafeMath.sub(\n            stakingRewardRate[_timeStakedTier][amountStakedTier]\n                .amountStakersLeft,\n            1\n        );\n\n        // Save token address for user\n        userBook[msg.sender].currentTokenStaked = _tokenAddress;\n\n        // Change the time of deposit\n        userBook[msg.sender].depositTime = block.timestamp;\n    }\n\n    function withdrawEth(uint256 _amount) public {\n        uint256 dueDate;\n        uint256 stakingPeriod = userBook[msg.sender].timeStakedTier;\n        uint256 amountStakedTier;\n        uint256 userBalance = userBook[msg.sender].ethBalance;\n\n        // Determine the amount staked tier based on ETH balance\n        if (userBalance <= 4e17) {\n            amountStakedTier = 5;\n        } else if (userBalance <= 2e18) {\n            amountStakedTier = 4;\n        } else if (userBalance <= 5e18) {\n            amountStakedTier = 3;\n        } else if (userBalance <= 25e18) {\n            amountStakedTier = 2;\n        } else {\n            amountStakedTier = 1;\n        }\n\n        // Calulate due date based on time staked tier and deposit time\n        dueDate = SafeMath.add(\n            stakingRewardRate[stakingPeriod][amountStakedTier].tierDuration,\n            userBook[msg.sender].depositTime\n        );\n\n        // Staking period must be over before he withdraws ETH balance\n        // require(block.timestamp >= dueDate, \"Staking period is not over.\");\n\n        // Recalculate tokens based on current token value\n        uint256 stakingReward =\n            calculateRewardWithdraw(\n                userBook[msg.sender].ethBalance,\n                stakingPeriod,\n                amountStakedTier\n            );\n        // Save reward in wallet\n        rewardWallet[msg.sender][\n            userBook[msg.sender].currentTokenStaked\n        ] = SafeMath.add(\n            rewardWallet[msg.sender][userBook[msg.sender].currentTokenStaked],\n            stakingReward\n        );\n        // Reset amount of CBLT reserved\n        userBook[msg.sender].tokenReserved = 0;\n\n        // Substract eth from user account\n        userBook[msg.sender].ethBalance = SafeMath.sub(\n            userBook[msg.sender].ethBalance,\n            _amount\n        );\n        // Change the latest time of deposit\n        userBook[msg.sender].depositTime = block.timestamp;\n\n        payable(msg.sender).transfer(_amount);\n    }\n\n    function withdrawStaking(uint256 _amount, address _withdrawTokenAddress)\n        public\n        payable\n    {\n        (uint256 tokenPrice, uint256 ETHprice) =\n            oracle.priceOfETHandCBLT(_withdrawTokenAddress);\n\n        uint256 USDtoToken =\n            SafeMath.multiply(\n                SafeMath.div(1000000000000000000, tokenPrice),\n                SafeMath.div(100000000000000000000, ETHprice),\n                1000000000000000000\n            );\n\n        require(\n            SafeMath.mul(USDtoToken, 5) > 50,\n            \"Amount in CBLT must be higher than 50 total worth in value.\"\n        );\n\n        rewardWallet[msg.sender][_withdrawTokenAddress] = SafeMath.sub(\n            rewardWallet[msg.sender][_withdrawTokenAddress],\n            _amount\n        );\n\n        // token.transfer\n    }\n\n    function lottery(\n        address _winnerAddress,\n        uint256 _timeTier,\n        uint256 _amountTier\n    ) public {}\n\n    function modifyTiers(\n        uint256 _new,\n        uint256 _amountTier,\n        uint256 _timeTier\n    ) public {\n        // only devs\n        stakingRewardRate[_timeTier][_amountTier].amountStakersLeft = _new;\n    }\n\n    function stakingControl(bool _status) public {\n        // only devs\n        stakingStatus = _status;\n    }\n}\n\n// Points of entry\n// Recalculating reward wallet and any time cblt or old token goes back to the system.\n\n// Voting\n// Lending\n// Cobalt tokens saved on amount staked\n// Wallet only updated when user deposits or withdraws\n// Fixed period loans\n// Functions check the current balance the treasury has avaliable to stake\n// Tier system in place\n// Function to recalculate amount of cblt tokens reserved based on amount staked\n// 30 60 90 180 365\n\n// 7 days\n// 3 missed payments back to back\n// 4 missed payment overall\n// 6 years 100k ++++\n// 2 years 100k ----\n\n// ************************************* CHANGES ************************************\n\n// mapping (uint id => Loan) loanBook;\n// signature NFT\n\n// loanBook[id]\n// loanBook[id].signature // NFT\n\n// function borrow() {\n//     require(loanBook[id].signature == NFT.value)\n// }\n\n// ******************************** INCENTIVE SYSTEM *******************************\n\n// tier 1 - Loan  50k - Max voters 100 - 5 per head\n//        - msg.sender CBLTs > 300$ worth of ETH\n// tier 2 - Loan 100k - Max voters 150 - 7.5 per head\n//        - msg.sender CBLTs > 200\n// tier 3 - Loan 200k - Max voters 200 - 10 per head\n//        - msg.sender CBLTs > 400\n\n// ************************************** TODOS ************************************\n\n// Starting period, 12-24 months\n// Collateral paid on loan application\n// Create new function to handle application\n// Create a new function to check if loan is ready to loan\n// Array of all voters\n// Save interest amount on loan to an specific\n\n// Calling oracle from ABI\n\n// (bool result, bytes memory data) =\n//             oracleAddress.call(\n//                 abi.encodeWithSignature(\n//                     \"priceOfPair(address,address)\",\n//                     _sellToken,\n//                     _buyToken\n//                 )\n//             );\n//         // Decode bytes data\n//         (uint256 sellTokenValue, uint256 buyTokenValue) =\n//             abi.decode(data, (uint256, uint256));\n\n// Amount of CBLT present in wallet per tier\n\n// Tier 1 - 500  to  5k   USD\n// Tier 2 - 5k   to  20k  USD\n// Tier 3 - 20k  to  50k  USD\n// Tier 4 - 50k  to  100k USD\n// Tier 5 - 100k to  250k USD\n// Tier 6 - +250k         USD\n\n// Amount of votes allowed per tier\n\n// Tier 1 - 20\n// Tier 2 - 40\n// Tier 3 - 60-80\n// Tier 4 ''  '' '' Needs work\n\n// Information made public from the borrower\n// Name, eth account, email\n\n// Maximum period to pay loan per Tier\n// Tier 1 - 10k  to 25k  - 12 months\n// Tier 2 - 25k  to 50k  - 24 months\n// Tier 3 - 50k  to 100k - 36 months\n// Tier 4 - 100k to 250k - 48 months\n// Tier 5 - 250k to 1m   - 60 months\n// Tier 6 - 1m   to 5m   - 60 months\n// Tier 7 - 5m and above - 60 months\n\n// New contract logic needed to be added\n// Lending 50%\n// Long term stakers - 12\n// long term pool\n// staking - indebt\n\n// Points of entry, restricting value\n// Validate\n\n// 25% - 6\n// 50% - 12\n\n// FUNCTION TO VALIDATE LENDING\n\n// function validate(address[] memory _votersAddress, bool _voteFinal, uint _loanSignature ) public { // only devs\n//     // Oracle inject\n//     // loanbook[_loanSignature].tierUSD;\n\n//     uint256 USDtoCBLT =\n//         SafeMath.div(\n//             1000000000000000000,\n//             SafeMath.mul(2000000000000, 2843)\n//         );\n\n//     for(uint i = 0; i < _votersAddress.length;i++) { // 8 // 100\n//          _votersAddress[i];\n//          // uint tierVoters = loanbook[_loanSignature].maxVoters;\n//          // Two things\n//          // token.balanceOf(_votersAddress[i]);\n//     }\n//     // loanbook[_loanSignature].status;\n// }\n",
  "sourcePath": "/Users/christianroque/Desktop/TungstenGroupProject/contracts/Bank.sol",
  "compiler": {
    "name": "solc",
    "version": "0.7.6+commit.7338295f.Emscripten.clang"
  },
  "schemaVersion": "3.3.4",
  "updatedAt": "2021-06-02T18:15:08.307Z",
  "devdoc": {
    "events": {
      "onReceived(address,uint256)": {
        "details": "Events emitted"
      }
    },
    "kind": "dev",
    "methods": {
      "cleanSlate()": {
        "details": "Deletes loan instance once the user has paid his active loan in full"
      },
      "makePayment()": {
        "details": "Function for the user to make a payment with ETH"
      },
      "newLoan(uint256,uint256)": {
        "details": "Recalculates interest and also conducts check and balances"
      }
    },
    "stateVariables": {
      "loanBook": {
        "details": "mapping used to store all loan information with the key of borrower address  and value of Loan struct with all loan information"
      },
      "loanRecords": {
        "details": "Informstion from previously fullfilled loans are stored into the blockchain before being permanently deleted"
      },
      "oracle": {
        "details": "Creating oracle instance"
      },
      "oracleAddress": {
        "details": "CobaltLend oracle for scoring and CBLT price"
      },
      "token": {
        "details": "storing CBLT token in ERC20 type"
      }
    },
    "version": 1
  },
  "userdoc": {
    "kind": "user",
    "methods": {},
    "version": 1
  }
}