{
  "contractName": "Chromium",
  "abi": [
    {
      "inputs": [
        {
          "internalType": "address",
          "name": "_oracle",
          "type": "address"
        },
        {
          "internalType": "address payable",
          "name": "_treasury",
          "type": "address"
        }
      ],
      "stateMutability": "nonpayable",
      "type": "constructor"
    },
    {
      "anonymous": false,
      "inputs": [
        {
          "indexed": false,
          "internalType": "address",
          "name": "_previousOwner",
          "type": "address"
        },
        {
          "indexed": true,
          "internalType": "address",
          "name": "_newOwner",
          "type": "address"
        }
      ],
      "name": "OwnershipTransferred",
      "type": "event"
    },
    {
      "anonymous": false,
      "inputs": [
        {
          "indexed": true,
          "internalType": "address",
          "name": "_from",
          "type": "address"
        },
        {
          "indexed": false,
          "internalType": "uint256",
          "name": "_amount",
          "type": "uint256"
        }
      ],
      "name": "depositToken",
      "type": "event"
    },
    {
      "anonymous": false,
      "inputs": [
        {
          "indexed": true,
          "internalType": "address",
          "name": "_from",
          "type": "address"
        },
        {
          "indexed": true,
          "internalType": "address",
          "name": "_to",
          "type": "address"
        },
        {
          "indexed": false,
          "internalType": "uint256",
          "name": "_amount",
          "type": "uint256"
        }
      ],
      "name": "onTransfer",
      "type": "event"
    },
    {
      "anonymous": false,
      "inputs": [
        {
          "indexed": true,
          "internalType": "address",
          "name": "_sendingToken",
          "type": "address"
        },
        {
          "indexed": false,
          "internalType": "uint256",
          "name": "_amountSent",
          "type": "uint256"
        },
        {
          "indexed": true,
          "internalType": "address",
          "name": "_receivedToken",
          "type": "address"
        },
        {
          "indexed": false,
          "internalType": "uint256",
          "name": "_amountRecieved",
          "type": "uint256"
        }
      ],
      "name": "tokensExchanged",
      "type": "event"
    },
    {
      "inputs": [],
      "name": "_owner",
      "outputs": [
        {
          "internalType": "address",
          "name": "",
          "type": "address"
        }
      ],
      "stateMutability": "view",
      "type": "function"
    },
    {
      "inputs": [
        {
          "internalType": "contract IERC20",
          "name": "",
          "type": "address"
        }
      ],
      "name": "allowedTokens",
      "outputs": [
        {
          "internalType": "bool",
          "name": "",
          "type": "bool"
        }
      ],
      "stateMutability": "view",
      "type": "function"
    },
    {
      "inputs": [],
      "name": "isOwner",
      "outputs": [
        {
          "internalType": "bool",
          "name": "",
          "type": "bool"
        }
      ],
      "stateMutability": "view",
      "type": "function"
    },
    {
      "inputs": [
        {
          "internalType": "address",
          "name": "_newOwner",
          "type": "address"
        }
      ],
      "name": "transferOwnership",
      "outputs": [],
      "stateMutability": "nonpayable",
      "type": "function"
    },
    {
      "stateMutability": "payable",
      "type": "receive"
    },
    {
      "inputs": [
        {
          "internalType": "address payable",
          "name": "_treasury",
          "type": "address"
        }
      ],
      "name": "setTreasury",
      "outputs": [],
      "stateMutability": "nonpayable",
      "type": "function"
    },
    {
      "inputs": [
        {
          "internalType": "address",
          "name": "_oracle",
          "type": "address"
        }
      ],
      "name": "setOracle",
      "outputs": [],
      "stateMutability": "nonpayable",
      "type": "function"
    },
    {
      "inputs": [
        {
          "internalType": "contract IERC20",
          "name": "fromToken",
          "type": "address"
        },
        {
          "internalType": "contract IERC20",
          "name": "destToken",
          "type": "address"
        },
        {
          "internalType": "uint256",
          "name": "amount",
          "type": "uint256"
        },
        {
          "internalType": "uint256",
          "name": "parts",
          "type": "uint256"
        },
        {
          "internalType": "uint256",
          "name": "flags",
          "type": "uint256"
        }
      ],
      "name": "getExpectedReturn",
      "outputs": [
        {
          "internalType": "uint256",
          "name": "returnAmount",
          "type": "uint256"
        },
        {
          "internalType": "uint256[]",
          "name": "distribution",
          "type": "uint256[]"
        }
      ],
      "stateMutability": "view",
      "type": "function"
    },
    {
      "inputs": [
        {
          "internalType": "contract IERC20",
          "name": "fromToken",
          "type": "address"
        },
        {
          "internalType": "contract IERC20",
          "name": "destToken",
          "type": "address"
        },
        {
          "internalType": "uint256",
          "name": "amount",
          "type": "uint256"
        },
        {
          "internalType": "uint256",
          "name": "minReturn",
          "type": "uint256"
        },
        {
          "internalType": "uint256[]",
          "name": "distribution",
          "type": "uint256[]"
        },
        {
          "internalType": "uint256",
          "name": "flags",
          "type": "uint256"
        }
      ],
      "name": "exchangeTokens",
      "outputs": [],
      "stateMutability": "payable",
      "type": "function"
    },
    {
      "inputs": [
        {
          "internalType": "contract IERC20",
          "name": "_token",
          "type": "address"
        },
        {
          "internalType": "uint256",
          "name": "_tokenAmount",
          "type": "uint256"
        }
      ],
      "name": "addLiquidity",
      "outputs": [],
      "stateMutability": "payable",
      "type": "function"
    },
    {
      "inputs": [
        {
          "internalType": "contract IERC20",
          "name": "_token",
          "type": "address"
        }
      ],
      "name": "_allowToken",
      "outputs": [],
      "stateMutability": "nonpayable",
      "type": "function"
    },
    {
      "inputs": [],
      "name": "testCall",
      "outputs": [
        {
          "internalType": "uint256",
          "name": "value",
          "type": "uint256"
        }
      ],
      "stateMutability": "payable",
      "type": "function"
    }
  ],
  "bytecode": "0x608060405234801561001057600080fd5b5060405161261e38038061261e8339818101604052604081101561003357600080fd5b810190808051906020019092919080519060200190929190505050336000806101000a81548173ffffffffffffffffffffffffffffffffffffffff021916908373ffffffffffffffffffffffffffffffffffffffff16021790555081600460006101000a81548173ffffffffffffffffffffffffffffffffffffffff021916908373ffffffffffffffffffffffffffffffffffffffff16021790555080600360006101000a81548173ffffffffffffffffffffffffffffffffffffffff021916908373ffffffffffffffffffffffffffffffffffffffff16021790555081600260006101000a81548173ffffffffffffffffffffffffffffffffffffffff021916908373ffffffffffffffffffffffffffffffffffffffff16021790555050506124bc806101626000396000f3fe6080604052600436106100a05760003560e01c8063b2bdfa7b11610064578063b2bdfa7b146102b4578063b7f05836146102f5578063e3d46b1314610313578063e744092e14610429578063f0f4426014610490578063f2fde38b146104e1576100a7565b8063085e2c5b146100ac57806356688700146101975780637adbf973146101e557806381daabc8146102365780638f32d59b14610287576100a7565b366100a757005b600080fd5b3480156100b857600080fd5b50610139600480360360a08110156100cf57600080fd5b81019080803573ffffffffffffffffffffffffffffffffffffffff169060200190929190803573ffffffffffffffffffffffffffffffffffffffff169060200190929190803590602001909291908035906020019092919080359060200190929190505050610532565b6040518083815260200180602001828103825283818151815260200191508051906020019060200280838360005b83811015610182578082015181840152602081019050610167565b50505050905001935050505060405180910390f35b6101e3600480360360408110156101ad57600080fd5b81019080803573ffffffffffffffffffffffffffffffffffffffff169060200190929190803590602001909291905050506106d4565b005b3480156101f157600080fd5b506102346004803603602081101561020857600080fd5b81019080803573ffffffffffffffffffffffffffffffffffffffff1690602001909291905050506108e8565b005b34801561024257600080fd5b506102856004803603602081101561025957600080fd5b81019080803573ffffffffffffffffffffffffffffffffffffffff1690602001909291905050506109e7565b005b34801561029357600080fd5b5061029c610abb565b60405180821515815260200191505060405180910390f35b3480156102c057600080fd5b506102c9610b12565b604051808273ffffffffffffffffffffffffffffffffffffffff16815260200191505060405180910390f35b6102fd610b36565b6040518082815260200191505060405180910390f35b610427600480360360c081101561032957600080fd5b81019080803573ffffffffffffffffffffffffffffffffffffffff169060200190929190803573ffffffffffffffffffffffffffffffffffffffff16906020019092919080359060200190929190803590602001909291908035906020019064010000000081111561039a57600080fd5b8201836020820111156103ac57600080fd5b803590602001918460208302840111640100000000831117156103ce57600080fd5b919080806020026020016040519081016040528093929190818152602001838360200280828437600081840152601f19601f82011690508083019250505050505050919291929080359060200190929190505050610ce0565b005b34801561043557600080fd5b506104786004803603602081101561044c57600080fd5b81019080803573ffffffffffffffffffffffffffffffffffffffff169060200190929190505050611301565b60405180821515815260200191505060405180910390f35b34801561049c57600080fd5b506104df600480360360208110156104b357600080fd5b81019080803573ffffffffffffffffffffffffffffffffffffffff169060200190929190505050611321565b005b3480156104ed57600080fd5b506105306004803603602081101561050457600080fd5b81019080803573ffffffffffffffffffffffffffffffffffffffff1690602001909291905050506113df565b005b6000606073c3037b2a1a9e9268025ff6d45fe7095436446d5273ffffffffffffffffffffffffffffffffffffffff1663085e2c5b88888888886040518663ffffffff1660e01b8152600401808673ffffffffffffffffffffffffffffffffffffffff1681526020018573ffffffffffffffffffffffffffffffffffffffff1681526020018481526020018381526020018281526020019550505050505060006040518083038186803b1580156105e757600080fd5b505afa1580156105fb573d6000803e3d6000fd5b505050506040513d6000823e3d601f19601f82011682018060405250604081101561062557600080fd5b81019080805190602001909291908051604051939291908464010000000082111561064f57600080fd5b8382019150602082018581111561066557600080fd5b825186602082028301116401000000008211171561068257600080fd5b8083526020830192505050908051906020019060200280838360005b838110156106b957808201518184015260208101905061069e565b50505050905001604052505050915091509550959350505050565b60011515600160008473ffffffffffffffffffffffffffffffffffffffff1673ffffffffffffffffffffffffffffffffffffffff16815260200190815260200160002060009054906101000a900460ff1615151461079a576040517f08c379a00000000000000000000000000000000000000000000000000000000081526004018080602001828103825260168152602001807f546f6b656e206973206e6f7420737570706f727465640000000000000000000081525060200191505060405180910390fd5b8173ffffffffffffffffffffffffffffffffffffffff1663095ea7b330836040518363ffffffff1660e01b8152600401808373ffffffffffffffffffffffffffffffffffffffff16815260200182815260200192505050602060405180830381600087803b15801561080b57600080fd5b505af115801561081f573d6000803e3d6000fd5b505050506040513d602081101561083557600080fd5b81019080805190602001909291905050505061089633600360009054906101000a900473ffffffffffffffffffffffffffffffffffffffff16838573ffffffffffffffffffffffffffffffffffffffff1661151a909392919063ffffffff16565b3373ffffffffffffffffffffffffffffffffffffffff167f338b5dea92b406e11ffb4934504fc21da82d56b24fb3a4f40a176da9186a0d47826040518082815260200191505060405180910390a25050565b6108f0610abb565b610962576040517f08c379a00000000000000000000000000000000000000000000000000000000081526004018080602001828103825260168152602001807f596f7520617265206e6f7420746865206f776e65722e0000000000000000000081525060200191505060405180910390fd5b80600460006101000a81548173ffffffffffffffffffffffffffffffffffffffff021916908373ffffffffffffffffffffffffffffffffffffffff16021790555080600260006101000a81548173ffffffffffffffffffffffffffffffffffffffff021916908373ffffffffffffffffffffffffffffffffffffffff16021790555050565b6109ef610abb565b610a61576040517f08c379a00000000000000000000000000000000000000000000000000000000081526004018080602001828103825260168152602001807f596f7520617265206e6f7420746865206f776e65722e0000000000000000000081525060200191505060405180910390fd5b60018060008373ffffffffffffffffffffffffffffffffffffffff1673ffffffffffffffffffffffffffffffffffffffff16815260200190815260200160002060006101000a81548160ff02191690831515021790555050565b60008060009054906101000a900473ffffffffffffffffffffffffffffffffffffffff1673ffffffffffffffffffffffffffffffffffffffff163373ffffffffffffffffffffffffffffffffffffffff1614905090565b60008054906101000a900473ffffffffffffffffffffffffffffffffffffffff1681565b6000806000600260009054906101000a900473ffffffffffffffffffffffffffffffffffffffff1673ffffffffffffffffffffffffffffffffffffffff166040516024016040516020818303038152906040527f3412a15c000000000000000000000000000000000000000000000000000000007bffffffffffffffffffffffffffffffffffffffffffffffffffffffff19166020820180517bffffffffffffffffffffffffffffffffffffffffffffffffffffffff83818316178352505050506040518082805190602001908083835b60208310610c2a5780518252602082019150602081019050602083039250610c07565b6001836020036101000a0380198251168184511680821785525050505050509050019150506000604051808303816000865af19150503d8060008114610c8c576040519150601f19603f3d011682016040523d82523d6000602084013e610c91565b606091505b50915091508115610cdb57600080828060200190516040811015610cb457600080fd5b81019080805190602001909291908051906020019092919050505091509150808201945050505b505090565b8473ffffffffffffffffffffffffffffffffffffffff168673ffffffffffffffffffffffffffffffffffffffff1614158015610d1c5750600084115b610d8e576040517f08c379a000000000000000000000000000000000000000000000000000000000815260040180806020018281038252600e8152602001807f556e61626c6520746f207377617000000000000000000000000000000000000081525060200191505060405180910390fd5b610dad8673ffffffffffffffffffffffffffffffffffffffff166116dd565b15156000341415151514610e0c576040517f08c379a00000000000000000000000000000000000000000000000000000000081526004018080602001828103825260228152602001806123816022913960400191505060405180910390fd5b610e1786868561175f565b15610f5757610e4730858873ffffffffffffffffffffffffffffffffffffffff166118fe9092919063ffffffff16565b610e9633600360009054906101000a900473ffffffffffffffffffffffffffffffffffffffff16868973ffffffffffffffffffffffffffffffffffffffff1661151a909392919063ffffffff16565b610ee5600360009054906101000a900473ffffffffffffffffffffffffffffffffffffffff1633858873ffffffffffffffffffffffffffffffffffffffff1661151a909392919063ffffffff16565b8473ffffffffffffffffffffffffffffffffffffffff168673ffffffffffffffffffffffffffffffffffffffff167fd67ebc225fb5fd7330b434da891f71da6862048a169bd955dc712ddcf75c27528686604051808381526020018281526020019250505060405180910390a36112f9565b6000610f8b610f85308973ffffffffffffffffffffffffffffffffffffffff16611a7b90919063ffffffff16565b34611b55565b90506000610fb8308873ffffffffffffffffffffffffffffffffffffffff16611a7b90919063ffffffff16565b9050610fe3868973ffffffffffffffffffffffffffffffffffffffff16611b6c90919063ffffffff16565b61102273c3037b2a1a9e9268025ff6d45fe7095436446d52878a73ffffffffffffffffffffffffffffffffffffffff166118fe9092919063ffffffff16565b73c3037b2a1a9e9268025ff6d45fe7095436446d5273ffffffffffffffffffffffffffffffffffffffff1663e2a7515e348a8a8a8a8a8a6040518863ffffffff1660e01b8152600401808773ffffffffffffffffffffffffffffffffffffffff1681526020018673ffffffffffffffffffffffffffffffffffffffff16815260200185815260200184815260200180602001838152602001828103825284818151815260200191508051906020019060200280838360005b838110156110f55780820151818401526020810190506110da565b505050509050019750505050505050506020604051808303818588803b15801561111e57600080fd5b505af1158015611132573d6000803e3d6000fd5b50505050506040513d602081101561114957600080fd5b8101908080519060200190929190505050506000611186308a73ffffffffffffffffffffffffffffffffffffffff16611a7b90919063ffffffff16565b905060006111b3308a73ffffffffffffffffffffffffffffffffffffffff16611a7b90919063ffffffff16565b905060006111c18285611b55565b90508781101561121c576040517f08c379a00000000000000000000000000000000000000000000000000000000081526004018080602001828103825260338152602001806123c96033913960400191505060405180910390fd5b61124733828c73ffffffffffffffffffffffffffffffffffffffff16611c229092919063ffffffff16565b5084831115611286576112843361125e8588611b55565b8d73ffffffffffffffffffffffffffffffffffffffff16611c229092919063ffffffff16565b505b8973ffffffffffffffffffffffffffffffffffffffff168b73ffffffffffffffffffffffffffffffffffffffff167fd67ebc225fb5fd7330b434da891f71da6862048a169bd955dc712ddcf75c27528b8b604051808381526020018281526020019250505060405180910390a350505050505b505050505050565b60016020528060005260406000206000915054906101000a900460ff1681565b611329610abb565b61139b576040517f08c379a00000000000000000000000000000000000000000000000000000000081526004018080602001828103825260168152602001807f596f7520617265206e6f7420746865206f776e65722e0000000000000000000081525060200191505060405180910390fd5b80600360006101000a81548173ffffffffffffffffffffffffffffffffffffffff021916908373ffffffffffffffffffffffffffffffffffffffff16021790555050565b6113e7610abb565b611459576040517f08c379a00000000000000000000000000000000000000000000000000000000081526004018080602001828103825260168152602001807f596f7520617265206e6f7420746865206f776e65722e0000000000000000000081525060200191505060405180910390fd5b600073ffffffffffffffffffffffffffffffffffffffff168173ffffffffffffffffffffffffffffffffffffffff16141561149357600080fd5b8073ffffffffffffffffffffffffffffffffffffffff167f8be0079c531659141344cd1fd0a4f28419497f9722a3daafe3b4186f6b6457e060008054906101000a900473ffffffffffffffffffffffffffffffffffffffff16604051808273ffffffffffffffffffffffffffffffffffffffff16815260200191505060405180910390a250565b6000811415611528576116d7565b611531846116dd565b156116a8573373ffffffffffffffffffffffffffffffffffffffff168373ffffffffffffffffffffffffffffffffffffffff161480156115715750803410155b6115c6576040517f08c379a000000000000000000000000000000000000000000000000000000000815260040180806020018281038252602b8152602001806123fc602b913960400191505060405180910390fd5b3073ffffffffffffffffffffffffffffffffffffffff168273ffffffffffffffffffffffffffffffffffffffff1614611641578173ffffffffffffffffffffffffffffffffffffffff166108fc829081150290604051600060405180830381858888f1935050505015801561163f573d6000803e3d6000fd5b505b803411156116a3573373ffffffffffffffffffffffffffffffffffffffff166108fc6116768334611b5590919063ffffffff16565b9081150290604051600060405180830381858888f193505050501580156116a1573d6000803e3d6000fd5b505b6116d6565b6116d58383838773ffffffffffffffffffffffffffffffffffffffff16611cca909392919063ffffffff16565b5b5b50505050565b60008073ffffffffffffffffffffffffffffffffffffffff168273ffffffffffffffffffffffffffffffffffffffff161480611758575073eeeeeeeeeeeeeeeeeeeeeeeeeeeeeeeeeeeeeeee73ffffffffffffffffffffffffffffffffffffffff168273ffffffffffffffffffffffffffffffffffffffff16145b9050919050565b600060011515600160008673ffffffffffffffffffffffffffffffffffffffff1673ffffffffffffffffffffffffffffffffffffffff16815260200190815260200160002060009054906101000a900460ff161515148015611811575060011515600160008573ffffffffffffffffffffffffffffffffffffffff1673ffffffffffffffffffffffffffffffffffffffff16815260200190815260200160002060009054906101000a900460ff161515145b156118f257600360009054906101000a900473ffffffffffffffffffffffffffffffffffffffff1673ffffffffffffffffffffffffffffffffffffffff16632c2332fe846040518263ffffffff1660e01b8152600401808273ffffffffffffffffffffffffffffffffffffffff16815260200191505060206040518083038186803b15801561189f57600080fd5b505afa1580156118b3573d6000803e3d6000fd5b505050506040513d60208110156118c957600080fd5b810190808051906020019092919050505082116118e957600190506118f7565b600090506118f7565b600090505b9392505050565b611907836116dd565b611a75576000811415611945576119408260008573ffffffffffffffffffffffffffffffffffffffff16611d8b9092919063ffffffff16565b611a76565b60008373ffffffffffffffffffffffffffffffffffffffff1663dd62ed3e30856040518363ffffffff1660e01b8152600401808373ffffffffffffffffffffffffffffffffffffffff1681526020018273ffffffffffffffffffffffffffffffffffffffff1681526020019250505060206040518083038186803b1580156119cc57600080fd5b505afa1580156119e0573d6000803e3d6000fd5b505050506040513d60208110156119f657600080fd5b8101908080519060200190929190505050905081811015611a73576000811115611a4757611a468360008673ffffffffffffffffffffffffffffffffffffffff16611d8b9092919063ffffffff16565b5b611a7283838673ffffffffffffffffffffffffffffffffffffffff16611d8b9092919063ffffffff16565b5b505b5b505050565b6000611a86836116dd565b15611aaa578173ffffffffffffffffffffffffffffffffffffffff16319050611b4f565b8273ffffffffffffffffffffffffffffffffffffffff166370a08231836040518263ffffffff1660e01b8152600401808273ffffffffffffffffffffffffffffffffffffffff16815260200191505060206040518083038186803b158015611b1157600080fd5b505afa158015611b25573d6000803e3d6000fd5b505050506040513d6020811015611b3b57600080fd5b810190808051906020019092919050505090505b92915050565b600082821115611b6157fe5b818303905092915050565b6000811415611b7a57611c1e565b611b83826116dd565b15611bef5780341115611bea573373ffffffffffffffffffffffffffffffffffffffff166108fc611bbd8334611b5590919063ffffffff16565b9081150290604051600060405180830381858888f19350505050158015611be8573d6000803e3d6000fd5b505b611c1d565b611c1c3330838573ffffffffffffffffffffffffffffffffffffffff16611cca909392919063ffffffff16565b5b5b5050565b600080821415611c355760019050611cc3565b611c3e846116dd565b15611c93578273ffffffffffffffffffffffffffffffffffffffff166108fc839081150290604051600060405180830381858888f19350505050158015611c89573d6000803e3d6000fd5b5060019050611cc3565b611cbe83838673ffffffffffffffffffffffffffffffffffffffff16611f509092919063ffffffff16565b600190505b9392505050565b611d85846323b872dd60e01b858585604051602401808473ffffffffffffffffffffffffffffffffffffffff1681526020018373ffffffffffffffffffffffffffffffffffffffff1681526020018281526020019350505050604051602081830303815290604052907bffffffffffffffffffffffffffffffffffffffffffffffffffffffff19166020820180517bffffffffffffffffffffffffffffffffffffffffffffffffffffffff8381831617835250505050611ff2565b50505050565b6000811480611e59575060008373ffffffffffffffffffffffffffffffffffffffff1663dd62ed3e30856040518363ffffffff1660e01b8152600401808373ffffffffffffffffffffffffffffffffffffffff1681526020018273ffffffffffffffffffffffffffffffffffffffff1681526020019250505060206040518083038186803b158015611e1c57600080fd5b505afa158015611e30573d6000803e3d6000fd5b505050506040513d6020811015611e4657600080fd5b8101908080519060200190929190505050145b611eae576040517f08c379a00000000000000000000000000000000000000000000000000000000081526004018080602001828103825260368152602001806124516036913960400191505060405180910390fd5b611f4b8363095ea7b360e01b8484604051602401808373ffffffffffffffffffffffffffffffffffffffff16815260200182815260200192505050604051602081830303815290604052907bffffffffffffffffffffffffffffffffffffffffffffffffffffffff19166020820180517bffffffffffffffffffffffffffffffffffffffffffffffffffffffff8381831617835250505050611ff2565b505050565b611fed8363a9059cbb60e01b8484604051602401808373ffffffffffffffffffffffffffffffffffffffff16815260200182815260200192505050604051602081830303815290604052907bffffffffffffffffffffffffffffffffffffffffffffffffffffffff19166020820180517bffffffffffffffffffffffffffffffffffffffffffffffffffffffff8381831617835250505050611ff2565b505050565b6000612054826040518060400160405280602081526020017f5361666545524332303a206c6f772d6c6576656c2063616c6c206661696c65648152508573ffffffffffffffffffffffffffffffffffffffff166120e19092919063ffffffff16565b90506000815111156120dc5780806020019051602081101561207557600080fd5b81019080805190602001909291905050506120db576040517f08c379a000000000000000000000000000000000000000000000000000000000815260040180806020018281038252602a815260200180612427602a913960400191505060405180910390fd5b5b505050565b60606120f084846000856120f9565b90509392505050565b606082471015612154576040517f08c379a00000000000000000000000000000000000000000000000000000000081526004018080602001828103825260268152602001806123a36026913960400191505060405180910390fd5b61215d856122a1565b6121cf576040517f08c379a000000000000000000000000000000000000000000000000000000000815260040180806020018281038252601d8152602001807f416464726573733a2063616c6c20746f206e6f6e2d636f6e747261637400000081525060200191505060405180910390fd5b6000808673ffffffffffffffffffffffffffffffffffffffff1685876040518082805190602001908083835b6020831061221e57805182526020820191506020810190506020830392506121fb565b6001836020036101000a03801982511681845116808217855250505050505090500191505060006040518083038185875af1925050503d8060008114612280576040519150601f19603f3d011682016040523d82523d6000602084013e612285565b606091505b50915091506122958282866122b4565b92505050949350505050565b600080823b905060008111915050919050565b606083156122c457829050612379565b6000835111156122d75782518084602001fd5b816040517f08c379a00000000000000000000000000000000000000000000000000000000081526004018080602001828103825283818151815260200191508051906020019080838360005b8381101561233e578082015181840152602081019050612323565b50505050905090810190601f16801561236b5780820380516001836020036101000a031916815260200191505b509250505060405180910390fd5b939250505056fe6d73672e76616c75652063616e206f6e6c79206265207573656420666f7220657468416464726573733a20696e73756666696369656e742062616c616e636520666f722063616c6c61637475616c2072657475726e20616d6f756e74206973206c657373207468616e206d696e2072657475726e20616d6f756e7457726f6e6720757365616765206f66204554482e756e6976657273616c5472616e7366657246726f6d28295361666545524332303a204552433230206f7065726174696f6e20646964206e6f7420737563636565645361666545524332303a20617070726f76652066726f6d206e6f6e2d7a65726f20746f206e6f6e2d7a65726f20616c6c6f77616e6365a264697066735822122050bec69a5a2d8b07f46d28cef39fd45e071c757bf89584aca967abd91cf3e76664736f6c63430007060033",
  "immutableReferences": {},
  "source": "// SPDX-License-Identifier: MIT\r\npragma solidity >=0.4.22 <0.9.0;\r\n\r\n/**\r\n * getExpectedReturnWithGas is a method on the 1inch protocol that is free to call and will return\r\n * a distribution array. each element in array shows an exchange and represents a fraction of trading volume.\r\n * it will also return the amount the minimum amount tokens that will be received by the caller based on the amount\r\n * that they are selling. it also returns the amount of gas that is being used.\r\n *\r\n * I removed the oracle because i figured we can use the _minReturn from getExpectedReturnWithGas as the conversion\r\n * rate for the two tokens instead of having our own oracle.\r\n *\r\n * the exchangeTokens method will first check if the tokens are allowed in our contract and if we have enough\r\n * tokens in the contract to make the exchange. if we do then the exchange will happen here. if we dont, then\r\n * the 1inch swap protocol will be called to complete the exchange\r\n*/\r\n\r\nimport \"./interfaces/UniversalERC20.sol\";\r\nimport './interfaces/Ownable.sol';\r\nimport \"./interfaces/IOneSplit.sol\";\r\nimport './ExchangeOracle.sol';\r\nimport \"./Bank.sol\";\r\n\r\ncontract Chromium is Ownable{\r\n    using UniversalERC20 for IERC20;\r\n\r\n    mapping(IERC20 => bool) public allowedTokens; // tokens that are allowed to be exchanged\r\n    address oracleAddress;\r\n\r\n    Bank treasury;\r\n    ExchangeOracle oracle;\r\n\r\n    IERC20 private constant ZERO_ADDRESS = IERC20(0x0000000000000000000000000000000000000000); // eth address substitute\r\n    IERC20 private constant ETH_ADDRESS = IERC20(0xEeeeeEeeeEeEeeEeEeEeeEEEeeeeEeeeeeeeEEeE); // eth address substitute\r\n    IOneSplit private constant oneSplitImpl = IOneSplit(0xc3037b2A1a9E9268025FF6d45Fe7095436446D52); // sets 1inch protocol\r\n\r\n    event depositToken(address indexed _from, uint256 _amount);\r\n    event onTransfer(\r\n        address indexed _from,\r\n        address indexed _to,\r\n        uint256 _amount\r\n    );\r\n    event tokensExchanged(\r\n        address indexed _sendingToken,\r\n        uint256 _amountSent,\r\n        address indexed _receivedToken,\r\n        uint256 _amountRecieved\r\n    );\r\n\r\n    /**\r\n     * pass in the oracle contract so that it can pull info from it\r\n     */\r\n    constructor(address _oracle, address payable _treasury) {\r\n        oracle = ExchangeOracle(_oracle);\r\n        treasury = Bank(_treasury);\r\n        oracleAddress = _oracle;\r\n    }\r\n\r\n    /**\r\n    * this sets the treasury, and oracle\r\n    */\r\n\r\n    function setTreasury(address payable _treasury) public onlyOwner {\r\n        treasury = Bank(_treasury);\r\n    }\r\n\r\n    function setOracle(address _oracle) public onlyOwner {\r\n        oracle = ExchangeOracle(_oracle);\r\n        oracleAddress = _oracle;\r\n    }\r\n\r\n    /**\r\n     * @dev Calculate expected returning amount of `destToken`\r\n     * @param fromToken (IERC20) Address of token or `address(0)` for Ether\r\n     * @param destToken (IERC20) Address of token or `address(0)` for Ether\r\n     * @param amount (uint256) Amount for `fromToken`\r\n     * @param parts (uint256) Number of pieces source volume could be splitted,\r\n     * works like granularity, higly affects gas usage. Should be called offchain,\r\n     * but could be called onchain if user swaps not his own funds, but this is still considered as not safe.\r\n     * @param flags (uint256) Flags for enabling and disabling some features, default 0\r\n    */\r\n    function getExpectedReturn(\r\n        IERC20 fromToken,\r\n        IERC20 destToken,\r\n        uint256 amount,\r\n        uint256 parts,\r\n        uint256 flags // See constants in IOneSplit.sol\r\n    )\r\n    public\r\n    view\r\n    returns(\r\n        uint256 returnAmount,\r\n        uint256[] memory distribution\r\n    )\r\n    {\r\n        return oneSplitImpl.getExpectedReturn(\r\n            fromToken,\r\n            destToken,\r\n            amount,\r\n            parts,\r\n            flags\r\n        );\r\n    }\r\n\r\n    /**\r\n     * @dev Swap `amount` of `fromToken` to 'destToken`\r\n     * @param fromToken (IERC20) Address of token or `address(0)` for Ether\r\n     * @param destToken (IERC20) Address of token or `address(0)` for Ether\r\n     * @param amount (uint256) Amount for `fromToken`\r\n     * @param minReturn (uint256) Minimum expected return, else revert\r\n     * @param distribution (uint256[]) Array of weights for volume distribution returned by `getExpectedReturnWithGas`\r\n     * @param flags (uint256) Flags for enabling and disabling some features, default 0\r\n    */\r\n    function exchangeTokens(\r\n        IERC20 fromToken,\r\n        IERC20 destToken,\r\n        uint256 amount,\r\n        uint256 minReturn,\r\n        uint256[] memory distribution,\r\n        uint256 flags\r\n    ) external payable {\r\n        // makes sure tokens aren't the same and amount is greater than 0\r\n        require(fromToken != destToken && amount > 0, \"Unable to swap\");\r\n        // makes sure msg.value is only being used for eth\r\n        require((msg.value != 0) == fromToken.isETH(), \"msg.value can only be used for eth\");\r\n\r\n        if (_exchangeWithChromium(fromToken, destToken, minReturn)) {\r\n            fromToken.universalApprove(address(this), amount);\r\n\r\n            fromToken.universalTransferFrom(msg.sender, address(treasury), amount);\r\n            destToken.universalTransferFrom(address(treasury), msg.sender, minReturn);\r\n\r\n            emit tokensExchanged(address(fromToken), amount, address(destToken), minReturn);\r\n        } else {\r\n            uint fromTokenBalanceBefore = SafeMath.sub(fromToken.universalBalanceOf(address(this)), msg.value);\r\n            uint destTokenBalanceBefore = destToken.universalBalanceOf(address(this));\r\n\r\n            fromToken.universalTransferFromSenderToThis(amount);\r\n            fromToken.universalApprove(address(oneSplitImpl), amount);\r\n\r\n            oneSplitImpl.swap{value:msg.value}(\r\n                fromToken,\r\n                destToken,\r\n                amount,\r\n                minReturn,\r\n                distribution,\r\n                flags\r\n            );\r\n\r\n            uint fromTokenBalanceAfter = fromToken.universalBalanceOf(address(this));\r\n            uint destTokenBalanceAfter = destToken.universalBalanceOf(address(this));\r\n            uint returnAmount = SafeMath.sub(destTokenBalanceAfter, destTokenBalanceBefore);\r\n\r\n            require(returnAmount >= minReturn, \"actual return amount is less than min return amount\");\r\n            destToken.universalTransfer(msg.sender, returnAmount);\r\n\r\n            if (fromTokenBalanceAfter > fromTokenBalanceBefore) {\r\n                fromToken.universalTransfer(msg.sender, SafeMath.sub(fromTokenBalanceAfter, fromTokenBalanceBefore));\r\n            }\r\n            emit tokensExchanged(address(fromToken), amount, address(destToken), minReturn);\r\n        }\r\n    }\r\n\r\n    /**\r\n     * @dev this will accept erc20 tokens to be added to the contracts liquidity pool\r\n     */\r\n    function addLiquidity(IERC20 _token, uint256 _tokenAmount)\r\n    external\r\n    payable\r\n    {\r\n        //Check if token is not supported by bank\r\n        require(allowedTokens[_token] == true, \"Token is not supported\");\r\n\r\n        _token.approve(address(this), _tokenAmount);\r\n        _token.universalTransferFrom(msg.sender, address(treasury), _tokenAmount);\r\n        emit depositToken(msg.sender, _tokenAmount);\r\n    }\r\n\r\n    /**\r\n     * @dev allows for tokens to be added to the exchange\r\n     * this needs to be done before adding any liquidity for the token\r\n     */\r\n    function _allowToken(IERC20 _token) public onlyOwner {\r\n        allowedTokens[_token] = true;\r\n    }\r\n\r\n    /**\r\n     * @dev method determines if chromium is able to make the exchange, if chromium cant make the exchange\r\n     * then it will return false and the 1inch protocol will complete the exchange\r\n     * @param _minReturn is the _minReturn that is returned from \"getExpectedReturnWithGas\"\r\n    */\r\n    function _exchangeWithChromium(IERC20 _fromToken, IERC20 _destToken, uint _minReturn) internal view returns (bool) {\r\n        if (allowedTokens[_fromToken] == true && allowedTokens[_destToken] == true) {\r\n            if (_minReturn <= treasury.totalTokenSupply(address(_destToken))) {\r\n                return true;\r\n            } else {\r\n                return false;\r\n            }\r\n        } else {\r\n            return false;\r\n        }\r\n    }\r\n\r\n    function testCall() public payable returns (uint256 value) {\r\n        (bool result, bytes memory data) =\r\n        oracleAddress.call(abi.encodeWithSignature(\"testConnection()\"));\r\n\r\n        if(result) {\r\n            (uint256 sellTokenValue, uint256 buyTokenValue) =\r\n            abi.decode(data, (uint256, uint256));\r\n            value = sellTokenValue + buyTokenValue;\r\n        }\r\n\r\n        // pulls the price of both tokens from an oracle using call without abi\r\n        // (bool result, bytes memory data) =\r\n        //     oracleAddress.call(\r\n        //         abi.encodeWithSignature(\r\n        //             \"priceOfPair(address,address)\",\r\n        //             _sellToken,\r\n        //             _buyToken\r\n        //         )\r\n        //     );\r\n\r\n        // // Decode bytes data\r\n        // (uint256 sellTokenValue, uint256 buyTokenValue) =\r\n        //     abi.decode(data, (uint256, uint256));\r\n\r\n        // //Calculate tokens bought\r\n        // uint256 buyingAmount =\r\n        //     SafeMath.mul(\r\n        //         _sellAmount,\r\n        //         SafeMath.div(sellTokenValue, buyTokenValue)\r\n        //     );\r\n    }\r\n\r\n    // fallback function\r\n    receive() external payable {}\r\n}\r\n",
  "sourcePath": "D:/TGProject/TungstenGroupProject/contracts/Chromium.sol",
  "compiler": {
    "name": "solc",
    "version": "0.7.6+commit.7338295f.Emscripten.clang"
  },
  "schemaVersion": "3.3.4",
  "updatedAt": "2021-04-28T19:10:11.609Z",
  "devdoc": {
    "kind": "dev",
    "methods": {
      "_allowToken(address)": {
        "details": "allows for tokens to be added to the exchange this needs to be done before adding any liquidity for the token"
      },
      "addLiquidity(address,uint256)": {
        "details": "this will accept erc20 tokens to be added to the contracts liquidity pool"
      },
      "exchangeTokens(address,address,uint256,uint256,uint256[],uint256)": {
        "details": "Swap `amount` of `fromToken` to 'destToken`",
        "params": {
          "amount": "(uint256) Amount for `fromToken`",
          "destToken": "(IERC20) Address of token or `address(0)` for Ether",
          "distribution": "(uint256[]) Array of weights for volume distribution returned by `getExpectedReturnWithGas`",
          "flags": "(uint256) Flags for enabling and disabling some features, default 0",
          "fromToken": "(IERC20) Address of token or `address(0)` for Ether",
          "minReturn": "(uint256) Minimum expected return, else revert"
        }
      },
      "getExpectedReturn(address,address,uint256,uint256,uint256)": {
        "details": "Calculate expected returning amount of `destToken`",
        "params": {
          "amount": "(uint256) Amount for `fromToken`",
          "destToken": "(IERC20) Address of token or `address(0)` for Ether",
          "flags": "(uint256) Flags for enabling and disabling some features, default 0",
          "fromToken": "(IERC20) Address of token or `address(0)` for Ether",
          "parts": "(uint256) Number of pieces source volume could be splitted, works like granularity, higly affects gas usage. Should be called offchain, but could be called onchain if user swaps not his own funds, but this is still considered as not safe."
        }
      }
    },
    "version": 1
  },
  "userdoc": {
    "kind": "user",
    "methods": {
      "constructor": {
        "notice": "pass in the oracle contract so that it can pull info from it"
      },
      "setTreasury(address)": {
        "notice": "this sets the treasury, and oracle"
      }
    },
    "version": 1
  }
}