{
  "contractName": "Chromium",
  "abi": [
    {
      "inputs": [
        {
          "internalType": "address",
          "name": "_oracle",
          "type": "address"
        }
      ],
      "stateMutability": "nonpayable",
      "type": "constructor"
    },
    {
      "anonymous": false,
      "inputs": [
        {
          "indexed": false,
          "internalType": "address",
          "name": "_previousOwner",
          "type": "address"
        },
        {
          "indexed": true,
          "internalType": "address",
          "name": "_newOwner",
          "type": "address"
        }
      ],
      "name": "OwnershipTransferred",
      "type": "event"
    },
    {
      "anonymous": false,
      "inputs": [
        {
          "indexed": false,
          "internalType": "address",
          "name": "account",
          "type": "address"
        },
        {
          "indexed": false,
          "internalType": "address",
          "name": "token",
          "type": "address"
        },
        {
          "indexed": false,
          "internalType": "uint256",
          "name": "amount",
          "type": "uint256"
        }
      ],
      "name": "TokensPurchased",
      "type": "event"
    },
    {
      "anonymous": false,
      "inputs": [
        {
          "indexed": false,
          "internalType": "address",
          "name": "account",
          "type": "address"
        },
        {
          "indexed": false,
          "internalType": "address",
          "name": "token",
          "type": "address"
        },
        {
          "indexed": false,
          "internalType": "uint256",
          "name": "amount",
          "type": "uint256"
        }
      ],
      "name": "TokensSold",
      "type": "event"
    },
    {
      "inputs": [],
      "name": "_owner",
      "outputs": [
        {
          "internalType": "address",
          "name": "",
          "type": "address"
        }
      ],
      "stateMutability": "view",
      "type": "function",
      "constant": true
    },
    {
      "inputs": [],
      "name": "isOwner",
      "outputs": [
        {
          "internalType": "bool",
          "name": "",
          "type": "bool"
        }
      ],
      "stateMutability": "view",
      "type": "function",
      "constant": true
    },
    {
      "inputs": [
        {
          "internalType": "address",
          "name": "_newOwner",
          "type": "address"
        }
      ],
      "name": "transferOwnership",
      "outputs": [],
      "stateMutability": "nonpayable",
      "type": "function"
    },
    {
      "inputs": [
        {
          "internalType": "address",
          "name": "_sellTokenAddress",
          "type": "address"
        },
        {
          "internalType": "uint256",
          "name": "_amountToSell",
          "type": "uint256"
        },
        {
          "internalType": "address",
          "name": "_buyTokenAddress",
          "type": "address"
        },
        {
          "internalType": "uint256",
          "name": "_priceOfSellToken",
          "type": "uint256"
        },
        {
          "internalType": "uint256",
          "name": "_priceOfBuyToken",
          "type": "uint256"
        }
      ],
      "name": "exchangeTokens",
      "outputs": [],
      "stateMutability": "payable",
      "type": "function",
      "payable": true
    },
    {
      "inputs": [],
      "name": "testCall",
      "outputs": [
        {
          "internalType": "uint256",
          "name": "value",
          "type": "uint256"
        }
      ],
      "stateMutability": "payable",
      "type": "function",
      "payable": true
    },
    {
      "inputs": [
        {
          "internalType": "address",
          "name": "_newOracle",
          "type": "address"
        }
      ],
      "name": "updateOracle",
      "outputs": [],
      "stateMutability": "nonpayable",
      "type": "function"
    }
  ],
  "bytecode": "0x608060405234801561001057600080fd5b50604051610ccc380380610ccc8339818101604052602081101561003357600080fd5b8101908080519060200190929190505050336000806101000a81548173ffffffffffffffffffffffffffffffffffffffff021916908373ffffffffffffffffffffffffffffffffffffffff16021790555080600360006101000a81548173ffffffffffffffffffffffffffffffffffffffff021916908373ffffffffffffffffffffffffffffffffffffffff16021790555050610bf7806100d56000396000f3fe6080604052600436106100555760003560e01c80630bf2a4861461005a5780631cb44dfc146100dc5780638f32d59b1461012d578063b2bdfa7b1461015a578063b7f058361461019b578063f2fde38b146101b9575b600080fd5b6100da600480360360a081101561007057600080fd5b81019080803573ffffffffffffffffffffffffffffffffffffffff16906020019092919080359060200190929190803573ffffffffffffffffffffffffffffffffffffffff169060200190929190803590602001909291908035906020019092919050505061020a565b005b3480156100e857600080fd5b5061012b600480360360208110156100ff57600080fd5b81019080803573ffffffffffffffffffffffffffffffffffffffff169060200190929190505050610729565b005b34801561013957600080fd5b506101426107e7565b60405180821515815260200191505060405180910390f35b34801561016657600080fd5b5061016f61083e565b604051808273ffffffffffffffffffffffffffffffffffffffff16815260200191505060405180910390f35b6101a3610862565b6040518082815260200191505060405180910390f35b3480156101c557600080fd5b50610208600480360360208110156101dc57600080fd5b81019080803573ffffffffffffffffffffffffffffffffffffffff169060200190929190505050610a03565b005b600080600360009054906101000a900473ffffffffffffffffffffffffffffffffffffffff1673ffffffffffffffffffffffffffffffffffffffff168786604051602401808373ffffffffffffffffffffffffffffffffffffffff1681526020018273ffffffffffffffffffffffffffffffffffffffff168152602001925050506040516020818303038152906040527f3a7a2a06000000000000000000000000000000000000000000000000000000007bffffffffffffffffffffffffffffffffffffffffffffffffffffffff19166020820180517bffffffffffffffffffffffffffffffffffffffffffffffffffffffff83818316178352505050506040518082805190602001908083835b6020831061033b5780518252602082019150602081019050602083039250610318565b6001836020036101000a0380198251168184511680821785525050505050509050019150506000604051808303816000865af19150503d806000811461039d576040519150601f19603f3d011682016040523d82523d6000602084013e6103a2565b606091505b50915091506000808280602001905160408110156103bf57600080fd5b8101908080519060200190929190805190602001909291905050509150915088600160006101000a81548173ffffffffffffffffffffffffffffffffffffffff021916908373ffffffffffffffffffffffffffffffffffffffff16021790555086600260006101000a81548173ffffffffffffffffffffffffffffffffffffffff021916908373ffffffffffffffffffffffffffffffffffffffff1602179055506000610475896104708989610b3e565b610b57565b905080600460008a73ffffffffffffffffffffffffffffffffffffffff1673ffffffffffffffffffffffffffffffffffffffff1681526020019081526020016000205410156104c357600080fd5b61050c600460008a73ffffffffffffffffffffffffffffffffffffffff1673ffffffffffffffffffffffffffffffffffffffff1681526020019081526020016000205482610b8e565b600460008a73ffffffffffffffffffffffffffffffffffffffff1673ffffffffffffffffffffffffffffffffffffffff16815260200190815260200160002081905550610598600460008c73ffffffffffffffffffffffffffffffffffffffff1673ffffffffffffffffffffffffffffffffffffffff168152602001908152602001600020548a610ba5565b600460008c73ffffffffffffffffffffffffffffffffffffffff1673ffffffffffffffffffffffffffffffffffffffff16815260200190815260200160002081905550600260009054906101000a900473ffffffffffffffffffffffffffffffffffffffff1673ffffffffffffffffffffffffffffffffffffffff1663a9059cbb33836040518363ffffffff1660e01b8152600401808373ffffffffffffffffffffffffffffffffffffffff16815260200182815260200192505050602060405180830381600087803b15801561066e57600080fd5b505af1158015610682573d6000803e3d6000fd5b505050506040513d602081101561069857600080fd5b8101908080519060200190929190505050507ff9b4eb3e43eebbf559e9b96ceff1c786a7edab2938c7f5f80678197c2e0edba5338983604051808473ffffffffffffffffffffffffffffffffffffffff1681526020018373ffffffffffffffffffffffffffffffffffffffff168152602001828152602001935050505060405180910390a150505050505050505050565b6107316107e7565b6107a3576040517f08c379a00000000000000000000000000000000000000000000000000000000081526004018080602001828103825260168152602001807f596f7520617265206e6f7420746865206f776e65722e0000000000000000000081525060200191505060405180910390fd5b80600360006101000a81548173ffffffffffffffffffffffffffffffffffffffff021916908373ffffffffffffffffffffffffffffffffffffffff16021790555050565b60008060009054906101000a900473ffffffffffffffffffffffffffffffffffffffff1673ffffffffffffffffffffffffffffffffffffffff163373ffffffffffffffffffffffffffffffffffffffff1614905090565b60008054906101000a900473ffffffffffffffffffffffffffffffffffffffff1681565b6000806000600360009054906101000a900473ffffffffffffffffffffffffffffffffffffffff1673ffffffffffffffffffffffffffffffffffffffff166040516024016040516020818303038152906040527f3412a15c000000000000000000000000000000000000000000000000000000007bffffffffffffffffffffffffffffffffffffffffffffffffffffffff19166020820180517bffffffffffffffffffffffffffffffffffffffffffffffffffffffff83818316178352505050506040518082805190602001908083835b602083106109565780518252602082019150602081019050602083039250610933565b6001836020036101000a0380198251168184511680821785525050505050509050019150506000604051808303816000865af19150503d80600081146109b8576040519150601f19603f3d011682016040523d82523d6000602084013e6109bd565b606091505b50915091506000808280602001905160408110156109da57600080fd5b810190808051906020019092919080519060200190929190505050915091508194505050505090565b610a0b6107e7565b610a7d576040517f08c379a00000000000000000000000000000000000000000000000000000000081526004018080602001828103825260168152602001807f596f7520617265206e6f7420746865206f776e65722e0000000000000000000081525060200191505060405180910390fd5b600073ffffffffffffffffffffffffffffffffffffffff168173ffffffffffffffffffffffffffffffffffffffff161415610ab757600080fd5b8073ffffffffffffffffffffffffffffffffffffffff167f8be0079c531659141344cd1fd0a4f28419497f9722a3daafe3b4186f6b6457e060008054906101000a900473ffffffffffffffffffffffffffffffffffffffff16604051808273ffffffffffffffffffffffffffffffffffffffff16815260200191505060405180910390a250565b600080828481610b4a57fe5b0490508091505092915050565b600080831415610b6a5760009050610b88565b6000828402905082848281610b7b57fe5b0414610b8357fe5b809150505b92915050565b600082821115610b9a57fe5b818303905092915050565b600080828401905083811015610bb757fe5b809150509291505056fea2646970667358221220e5c0c662b214703045e70a82b5c596e42518dafa3eddbf240e1c965c80883bbc64736f6c63430007060033",
  "immutableReferences": {},
  "source": "// SPDX-License-Identifier: MIT\npragma solidity >=0.4.22 <0.9.0;\n\nimport \"./ERC20.sol\";\nimport \"./SafeMath.sol\";\nimport \"./Ownable.sol\";\n\ncontract Chromium is Ownable {\n    ERC20 sellToken;\n    ERC20 buyToken;\n    address oracle;\n\n    constructor(address _oracle) {\n        oracle = _oracle;\n    }\n\n    mapping(address => uint256) tokenBalance;\n\n    event TokensPurchased(address account, address token, uint256 amount);\n\n    event TokensSold(address account, address token, uint256 amount);\n\n    /**\n     * @dev function that will allow people to exchange tokens\n     * @param _sellTokenAddress the address of the token the user wants to exchange\n     * @param _amountToSell the amount the user wants to exchange\n     * @param _buyTokenAddress the address of the token the user wants to obtain\n     * @param _priceOfSellToken price of the token that is being sold (obtain by api call to etherscan)\n     * @param _priceOfBuyToken price of the token that is being obtained (obtain by api call to etherscan)\n     */\n    function exchangeTokens(\n        address _sellTokenAddress,\n        uint256 _amountToSell,\n        address _buyTokenAddress,\n        uint256 _priceOfSellToken,\n        uint256 _priceOfBuyToken\n    ) public payable {\n        (bool result, bytes memory data) =\n            oracle.call(\n                abi.encodeWithSignature(\n                    \"priceOfPair(address,address)\",\n                    _sellTokenAddress,\n                    _buyTokenAddress\n                )\n            );\n\n        (uint256 sellTokenValue, uint256 buyTokenValue) =\n            abi.decode(data, (uint256, uint256));\n\n        sellToken = ERC20(address(_sellTokenAddress));\n        buyToken = ERC20(address(_buyTokenAddress));\n        uint256 _exchangeRate =\n            SafeMath.mul(\n                _amountToSell,\n                SafeMath.div(_priceOfSellToken, _priceOfBuyToken)\n            );\n\n        // Require that Chromium has enough tokens\n        require(tokenBalance[_buyTokenAddress] >= _exchangeRate);\n\n        tokenBalance[_buyTokenAddress] = SafeMath.sub(\n            tokenBalance[_buyTokenAddress],\n            _exchangeRate\n        );\n        tokenBalance[_sellTokenAddress] = SafeMath.add(\n            tokenBalance[_sellTokenAddress],\n            _amountToSell\n        );\n\n        // Transfer tokens to the user\n        buyToken.transfer(msg.sender, _exchangeRate);\n\n        // Emit an event\n        emit TokensPurchased(msg.sender, _buyTokenAddress, _exchangeRate);\n    }\n\n    function testCall() public payable returns (uint256 value) {\n        (bool result, bytes memory data) =\n            oracle.call(abi.encodeWithSignature(\"testConnection()\"));\n\n        (uint256 sellTokenValue, uint256 buyTokenValue) =\n            abi.decode(data, (uint256, uint256));\n\n        return sellTokenValue;\n    }\n\n    function updateOracle(address _newOracle) public onlyOwner {\n        oracle = _newOracle;\n    }\n}\n",
  "sourcePath": "/Users/christianroque/Desktop/solidity-playground/contracts/Chromium.sol",
  "compiler": {
    "name": "solc",
    "version": "0.7.6+commit.7338295f.Emscripten.clang"
  },
  "schemaVersion": "3.3.4",
  "updatedAt": "2021-04-02T06:06:58.893Z",
  "networkType": "ethereum",
  "devdoc": {
    "kind": "dev",
    "methods": {
      "exchangeTokens(address,uint256,address,uint256,uint256)": {
        "details": "function that will allow people to exchange tokens",
        "params": {
          "_amountToSell": "the amount the user wants to exchange",
          "_buyTokenAddress": "the address of the token the user wants to obtain",
          "_priceOfBuyToken": "price of the token that is being obtained (obtain by api call to etherscan)",
          "_priceOfSellToken": "price of the token that is being sold (obtain by api call to etherscan)",
          "_sellTokenAddress": "the address of the token the user wants to exchange"
        }
      }
    },
    "version": 1
  },
  "userdoc": {
    "kind": "user",
    "methods": {},
    "version": 1
  }
}