{
  "contractName": "Chromium",
  "abi": [
    {
      "inputs": [
        {
          "internalType": "address",
          "name": "_oracle",
          "type": "address"
        },
        {
          "internalType": "address payable",
          "name": "_treasury",
          "type": "address"
        },
        {
          "internalType": "address",
          "name": "_oneAuditImpl",
          "type": "address"
        }
      ],
      "stateMutability": "nonpayable",
      "type": "constructor"
    },
    {
      "anonymous": false,
      "inputs": [
        {
          "indexed": true,
          "internalType": "address",
          "name": "_from",
          "type": "address"
        },
        {
          "indexed": false,
          "internalType": "uint256",
          "name": "_amount",
          "type": "uint256"
        }
      ],
      "name": "depositToken",
      "type": "event"
    },
    {
      "anonymous": false,
      "inputs": [
        {
          "indexed": true,
          "internalType": "address",
          "name": "_from",
          "type": "address"
        },
        {
          "indexed": true,
          "internalType": "address",
          "name": "_to",
          "type": "address"
        },
        {
          "indexed": false,
          "internalType": "uint256",
          "name": "_amount",
          "type": "uint256"
        }
      ],
      "name": "onTransfer",
      "type": "event"
    },
    {
      "anonymous": false,
      "inputs": [
        {
          "indexed": true,
          "internalType": "address",
          "name": "_sendingToken",
          "type": "address"
        },
        {
          "indexed": false,
          "internalType": "uint256",
          "name": "_amountSent",
          "type": "uint256"
        },
        {
          "indexed": true,
          "internalType": "address",
          "name": "_receivedToken",
          "type": "address"
        },
        {
          "indexed": false,
          "internalType": "uint256",
          "name": "_amountRecieved",
          "type": "uint256"
        }
      ],
      "name": "tokensExchanged",
      "type": "event"
    },
    {
      "inputs": [
        {
          "internalType": "contract ERC20",
          "name": "",
          "type": "address"
        }
      ],
      "name": "allowedTokens",
      "outputs": [
        {
          "internalType": "bool",
          "name": "",
          "type": "bool"
        }
      ],
      "stateMutability": "view",
      "type": "function"
    },
    {
      "inputs": [
        {
          "internalType": "contract ERC20",
          "name": "",
          "type": "address"
        }
      ],
      "name": "balancePerToken",
      "outputs": [
        {
          "internalType": "uint256",
          "name": "",
          "type": "uint256"
        }
      ],
      "stateMutability": "view",
      "type": "function"
    },
    {
      "inputs": [],
      "name": "oneSplitImpl",
      "outputs": [
        {
          "internalType": "contract IOneSplit",
          "name": "",
          "type": "address"
        }
      ],
      "stateMutability": "view",
      "type": "function"
    },
    {
      "stateMutability": "payable",
      "type": "receive"
    },
    {
      "inputs": [
        {
          "internalType": "contract ERC20",
          "name": "fromToken",
          "type": "address"
        },
        {
          "internalType": "contract ERC20",
          "name": "destToken",
          "type": "address"
        },
        {
          "internalType": "uint256",
          "name": "amount",
          "type": "uint256"
        },
        {
          "internalType": "uint256",
          "name": "parts",
          "type": "uint256"
        },
        {
          "internalType": "uint256",
          "name": "flags",
          "type": "uint256"
        }
      ],
      "name": "getExpectedReturnWithGas",
      "outputs": [
        {
          "internalType": "uint256",
          "name": "returnAmount",
          "type": "uint256"
        },
        {
          "internalType": "uint256",
          "name": "estimateGasAmount",
          "type": "uint256"
        },
        {
          "internalType": "uint256[]",
          "name": "distribution",
          "type": "uint256[]"
        }
      ],
      "stateMutability": "view",
      "type": "function"
    },
    {
      "inputs": [
        {
          "internalType": "contract ERC20",
          "name": "_sellToken",
          "type": "address"
        },
        {
          "internalType": "contract ERC20",
          "name": "_buyToken",
          "type": "address"
        },
        {
          "internalType": "uint256",
          "name": "_sellAmount",
          "type": "uint256"
        },
        {
          "internalType": "uint256",
          "name": "_minReturn",
          "type": "uint256"
        },
        {
          "internalType": "uint256[]",
          "name": "distribution",
          "type": "uint256[]"
        },
        {
          "internalType": "uint256",
          "name": "flags",
          "type": "uint256"
        }
      ],
      "name": "exchangeTokens",
      "outputs": [
        {
          "internalType": "uint256",
          "name": "_amountReturned",
          "type": "uint256"
        }
      ],
      "stateMutability": "payable",
      "type": "function"
    },
    {
      "inputs": [
        {
          "internalType": "contract ERC20",
          "name": "_token",
          "type": "address"
        },
        {
          "internalType": "uint256",
          "name": "_tokenAmount",
          "type": "uint256"
        }
      ],
      "name": "addLiquidity",
      "outputs": [],
      "stateMutability": "payable",
      "type": "function"
    },
    {
      "inputs": [
        {
          "internalType": "contract ERC20",
          "name": "_token",
          "type": "address"
        }
      ],
      "name": "_allowToken",
      "outputs": [],
      "stateMutability": "nonpayable",
      "type": "function"
    },
    {
      "inputs": [],
      "name": "testCall",
      "outputs": [
        {
          "internalType": "uint256",
          "name": "value",
          "type": "uint256"
        }
      ],
      "stateMutability": "payable",
      "type": "function"
    }
  ],
  "bytecode": "0x608060405234801561001057600080fd5b50604051611afe380380611afe8339818101604052606081101561003357600080fd5b8101908080519060200190929190805190602001909291908051906020019092919050505082600460006101000a81548173ffffffffffffffffffffffffffffffffffffffff021916908373ffffffffffffffffffffffffffffffffffffffff16021790555081600360006101000a81548173ffffffffffffffffffffffffffffffffffffffff021916908373ffffffffffffffffffffffffffffffffffffffff16021790555080600560006101000a81548173ffffffffffffffffffffffffffffffffffffffff021916908373ffffffffffffffffffffffffffffffffffffffff16021790555082600260006101000a81548173ffffffffffffffffffffffffffffffffffffffff021916908373ffffffffffffffffffffffffffffffffffffffff1602179055505050506119908061016e6000396000f3fe60806040526004361061007f5760003560e01c8063b7f058361161004e578063b7f05836146101d0578063d0ba4a1c146101ee578063e3d46b13146102e0578063e744092e1461040a57610086565b8063566887001461008b57806371d3e867146100d957806381daabc81461013e578063867807ca1461018f57610086565b3661008657005b600080fd5b6100d7600480360360408110156100a157600080fd5b81019080803573ffffffffffffffffffffffffffffffffffffffff16906020019092919080359060200190929190505050610471565b005b3480156100e557600080fd5b50610128600480360360208110156100fc57600080fd5b81019080803573ffffffffffffffffffffffffffffffffffffffff1690602001909291905050506106ed565b6040518082815260200191505060405180910390f35b34801561014a57600080fd5b5061018d6004803603602081101561016157600080fd5b81019080803573ffffffffffffffffffffffffffffffffffffffff169060200190929190505050610705565b005b34801561019b57600080fd5b506101a461075f565b604051808273ffffffffffffffffffffffffffffffffffffffff16815260200191505060405180910390f35b6101d8610785565b6040518082815260200191505060405180910390f35b3480156101fa57600080fd5b5061027b600480360360a081101561021157600080fd5b81019080803573ffffffffffffffffffffffffffffffffffffffff169060200190929190803573ffffffffffffffffffffffffffffffffffffffff169060200190929190803590602001909291908035906020019092919080359060200190929190505050610928565b6040518084815260200183815260200180602001828103825283818151815260200191508051906020019060200280838360005b838110156102ca5780820151818401526020810190506102af565b5050505090500194505050505060405180910390f35b6103f4600480360360c08110156102f657600080fd5b81019080803573ffffffffffffffffffffffffffffffffffffffff169060200190929190803573ffffffffffffffffffffffffffffffffffffffff16906020019092919080359060200190929190803590602001909291908035906020019064010000000081111561036757600080fd5b82018360208201111561037957600080fd5b8035906020019184602083028401116401000000008311171561039b57600080fd5b919080806020026020016040519081016040528093929190818152602001838360200280828437600081840152601f19601f82011690508083019250505050505050919291929080359060200190929190505050610aef565b6040518082815260200191505060405180910390f35b34801561041657600080fd5b506104596004803603602081101561042d57600080fd5b81019080803573ffffffffffffffffffffffffffffffffffffffff169060200190929190505050610f94565b60405180821515815260200191505060405180910390f35b60011515600160008473ffffffffffffffffffffffffffffffffffffffff1673ffffffffffffffffffffffffffffffffffffffff16815260200190815260200160002060009054906101000a900460ff16151514610537576040517f08c379a00000000000000000000000000000000000000000000000000000000081526004018080602001828103825260168152602001807f546f6b656e206973206e6f7420737570706f727465640000000000000000000081525060200191505060405180910390fd5b8173ffffffffffffffffffffffffffffffffffffffff1663095ea7b330836040518363ffffffff1660e01b8152600401808373ffffffffffffffffffffffffffffffffffffffff16815260200182815260200192505050602060405180830381600087803b1580156105a857600080fd5b505af11580156105bc573d6000803e3d6000fd5b505050506040513d60208110156105d257600080fd5b81019080805190602001909291905050505061062c6000808473ffffffffffffffffffffffffffffffffffffffff1673ffffffffffffffffffffffffffffffffffffffff1681526020019081526020016000205482610fb4565b6000808473ffffffffffffffffffffffffffffffffffffffff1673ffffffffffffffffffffffffffffffffffffffff1681526020019081526020016000208190555061069b3330838573ffffffffffffffffffffffffffffffffffffffff16610fd0909392919063ffffffff16565b3373ffffffffffffffffffffffffffffffffffffffff167f338b5dea92b406e11ffb4934504fc21da82d56b24fb3a4f40a176da9186a0d47826040518082815260200191505060405180910390a25050565b60006020528060005260406000206000915090505481565b60018060008373ffffffffffffffffffffffffffffffffffffffff1673ffffffffffffffffffffffffffffffffffffffff16815260200190815260200160002060006101000a81548160ff02191690831515021790555050565b600560009054906101000a900473ffffffffffffffffffffffffffffffffffffffff1681565b6000806000600260009054906101000a900473ffffffffffffffffffffffffffffffffffffffff1673ffffffffffffffffffffffffffffffffffffffff166040516024016040516020818303038152906040527f3412a15c000000000000000000000000000000000000000000000000000000007bffffffffffffffffffffffffffffffffffffffffffffffffffffffff19166020820180517bffffffffffffffffffffffffffffffffffffffffffffffffffffffff83818316178352505050506040518082805190602001908083835b602083106108795780518252602082019150602081019050602083039250610856565b6001836020036101000a0380198251168184511680821785525050505050509050019150506000604051808303816000865af19150503d80600081146108db576040519150601f19603f3d011682016040523d82523d6000602084013e6108e0565b606091505b50915091506000808280602001905160408110156108fd57600080fd5b8101908080519060200190929190805190602001909291905050509150915080820194505050505090565b6000806060600560009054906101000a900473ffffffffffffffffffffffffffffffffffffffff1673ffffffffffffffffffffffffffffffffffffffff16638373f265898989898960006040518763ffffffff1660e01b8152600401808773ffffffffffffffffffffffffffffffffffffffff1681526020018673ffffffffffffffffffffffffffffffffffffffff168152602001858152602001848152602001838152602001828152602001965050505050505060006040518083038186803b1580156109f557600080fd5b505afa158015610a09573d6000803e3d6000fd5b505050506040513d6000823e3d601f19601f820116820180604052506060811015610a3357600080fd5b81019080805190602001909291908051906020019092919080516040519392919084640100000000821115610a6757600080fd5b83820191506020820185811115610a7d57600080fd5b8251866020820283011164010000000082111715610a9a57600080fd5b8083526020830192505050908051906020019060200280838360005b83811015610ad1578082015181840152602081019050610ab6565b50505050905001604052505050925092509250955095509592505050565b6000610afc878787611193565b15610dd557600360009054906101000a900473ffffffffffffffffffffffffffffffffffffffff1673ffffffffffffffffffffffffffffffffffffffff16632c2332fe876040518263ffffffff1660e01b8152600401808273ffffffffffffffffffffffffffffffffffffffff16815260200191505060206040518083038186803b158015610b8a57600080fd5b505afa158015610b9e573d6000803e3d6000fd5b505050506040513d6020811015610bb457600080fd5b8101908080519060200190929190505050841115610bd157600080fd5b610c2033600360009054906101000a900473ffffffffffffffffffffffffffffffffffffffff16878a73ffffffffffffffffffffffffffffffffffffffff16610fd0909392919063ffffffff16565b610c686000808973ffffffffffffffffffffffffffffffffffffffff1673ffffffffffffffffffffffffffffffffffffffff1681526020019081526020016000205486610fb4565b6000808973ffffffffffffffffffffffffffffffffffffffff1673ffffffffffffffffffffffffffffffffffffffff16815260200190815260200160002081905550610cd533858873ffffffffffffffffffffffffffffffffffffffff166112ad9092919063ffffffff16565b50610d1e6000808873ffffffffffffffffffffffffffffffffffffffff1673ffffffffffffffffffffffffffffffffffffffff1681526020019081526020016000205485611355565b6000808873ffffffffffffffffffffffffffffffffffffffff1673ffffffffffffffffffffffffffffffffffffffff168152602001908152602001600020819055508573ffffffffffffffffffffffffffffffffffffffff168773ffffffffffffffffffffffffffffffffffffffff167fd67ebc225fb5fd7330b434da891f71da6862048a169bd955dc712ddcf75c27528787604051808381526020018281526020019250505060405180910390a3839050610f8a565b600560009054906101000a900473ffffffffffffffffffffffffffffffffffffffff1673ffffffffffffffffffffffffffffffffffffffff1663e2a7515e8888888888886040518763ffffffff1660e01b8152600401808773ffffffffffffffffffffffffffffffffffffffff1681526020018673ffffffffffffffffffffffffffffffffffffffff16815260200185815260200184815260200180602001838152602001828103825284818151815260200191508051906020019060200280838360005b83811015610eb5578082015181840152602081019050610e9a565b50505050905001975050505050505050602060405180830381600087803b158015610edf57600080fd5b505af1158015610ef3573d6000803e3d6000fd5b505050506040513d6020811015610f0957600080fd5b810190808051906020019092919050505090508573ffffffffffffffffffffffffffffffffffffffff168773ffffffffffffffffffffffffffffffffffffffff167fd67ebc225fb5fd7330b434da891f71da6862048a169bd955dc712ddcf75c27528787604051808381526020018281526020019250505060405180910390a35b9695505050505050565b60016020528060005260406000206000915054906101000a900460ff1681565b600080828401905083811015610fc657fe5b8091505092915050565b6000811415610fde5761118d565b610fe78461136c565b1561115e573373ffffffffffffffffffffffffffffffffffffffff168373ffffffffffffffffffffffffffffffffffffffff161480156110275750803410155b61107c576040517f08c379a000000000000000000000000000000000000000000000000000000000815260040180806020018281038252602b815260200180611906602b913960400191505060405180910390fd5b3073ffffffffffffffffffffffffffffffffffffffff168273ffffffffffffffffffffffffffffffffffffffff16146110f7578173ffffffffffffffffffffffffffffffffffffffff166108fc829081150290604051600060405180830381858888f193505050501580156110f5573d6000803e3d6000fd5b505b80341115611159573373ffffffffffffffffffffffffffffffffffffffff166108fc61112c833461135590919063ffffffff16565b9081150290604051600060405180830381858888f19350505050158015611157573d6000803e3d6000fd5b505b61118c565b61118b8383838773ffffffffffffffffffffffffffffffffffffffff166113ee909392919063ffffffff16565b5b5b50505050565b600060011515600160008673ffffffffffffffffffffffffffffffffffffffff1673ffffffffffffffffffffffffffffffffffffffff16815260200190815260200160002060009054906101000a900460ff161515148015611245575060011515600160008573ffffffffffffffffffffffffffffffffffffffff1673ffffffffffffffffffffffffffffffffffffffff16815260200190815260200160002060009054906101000a900460ff161515145b156112a157816000808573ffffffffffffffffffffffffffffffffffffffff1673ffffffffffffffffffffffffffffffffffffffff168152602001908152602001600020541061129857600190506112a6565b600090506112a6565b600090505b9392505050565b6000808214156112c0576001905061134e565b6112c98461136c565b1561131e578273ffffffffffffffffffffffffffffffffffffffff166108fc839081150290604051600060405180830381858888f19350505050158015611314573d6000803e3d6000fd5b506001905061134e565b61134983838673ffffffffffffffffffffffffffffffffffffffff166114af9092919063ffffffff16565b600190505b9392505050565b60008282111561136157fe5b818303905092915050565b60008073ffffffffffffffffffffffffffffffffffffffff168273ffffffffffffffffffffffffffffffffffffffff1614806113e7575073eeeeeeeeeeeeeeeeeeeeeeeeeeeeeeeeeeeeeeee73ffffffffffffffffffffffffffffffffffffffff168273ffffffffffffffffffffffffffffffffffffffff16145b9050919050565b6114a9846323b872dd60e01b858585604051602401808473ffffffffffffffffffffffffffffffffffffffff1681526020018373ffffffffffffffffffffffffffffffffffffffff1681526020018281526020019350505050604051602081830303815290604052907bffffffffffffffffffffffffffffffffffffffffffffffffffffffff19166020820180517bffffffffffffffffffffffffffffffffffffffffffffffffffffffff8381831617835250505050611551565b50505050565b61154c8363a9059cbb60e01b8484604051602401808373ffffffffffffffffffffffffffffffffffffffff16815260200182815260200192505050604051602081830303815290604052907bffffffffffffffffffffffffffffffffffffffffffffffffffffffff19166020820180517bffffffffffffffffffffffffffffffffffffffffffffffffffffffff8381831617835250505050611551565b505050565b60006115b3826040518060400160405280602081526020017f5361666545524332303a206c6f772d6c6576656c2063616c6c206661696c65648152508573ffffffffffffffffffffffffffffffffffffffff166116409092919063ffffffff16565b905060008151111561163b578080602001905160208110156115d457600080fd5b810190808051906020019092919050505061163a576040517f08c379a000000000000000000000000000000000000000000000000000000000815260040180806020018281038252602a815260200180611931602a913960400191505060405180910390fd5b5b505050565b606061164f8484600085611658565b90509392505050565b6060824710156116b3576040517f08c379a00000000000000000000000000000000000000000000000000000000081526004018080602001828103825260268152602001806118e06026913960400191505060405180910390fd5b6116bc85611800565b61172e576040517f08c379a000000000000000000000000000000000000000000000000000000000815260040180806020018281038252601d8152602001807f416464726573733a2063616c6c20746f206e6f6e2d636f6e747261637400000081525060200191505060405180910390fd5b6000808673ffffffffffffffffffffffffffffffffffffffff1685876040518082805190602001908083835b6020831061177d578051825260208201915060208101905060208303925061175a565b6001836020036101000a03801982511681845116808217855250505050505090500191505060006040518083038185875af1925050503d80600081146117df576040519150601f19603f3d011682016040523d82523d6000602084013e6117e4565b606091505b50915091506117f4828286611813565b92505050949350505050565b600080823b905060008111915050919050565b60608315611823578290506118d8565b6000835111156118365782518084602001fd5b816040517f08c379a00000000000000000000000000000000000000000000000000000000081526004018080602001828103825283818151815260200191508051906020019080838360005b8381101561189d578082015181840152602081019050611882565b50505050905090810190601f1680156118ca5780820380516001836020036101000a031916815260200191505b509250505060405180910390fd5b939250505056fe416464726573733a20696e73756666696369656e742062616c616e636520666f722063616c6c57726f6e6720757365616765206f66204554482e756e6976657273616c5472616e7366657246726f6d28295361666545524332303a204552433230206f7065726174696f6e20646964206e6f742073756363656564a26469706673582212205922e6efffe11ee8b3fa75e64049530edf0af0beea0c71009d79e0a990ee010064736f6c63430007060033",
  "immutableReferences": {},
  "source": "// SPDX-License-Identifier: MIT\npragma solidity >=0.4.22 <0.9.0;\n\n/**\n * getExpectedReturnWithGas is a method on the 1inch protocol that is free to call and will return\n * a distribution array. each element in array shows an exchange and represents a fraction of trading volume.\n * it will also return the amount the minimum amount tokens that will be received by the caller based on the amount\n * that they are selling. it also returns the amount of gas that is being used.\n *\n * I removed the oracle because i figured we can use the _minReturn from getExpectedReturnWithGas as the conversion\n * rate for the two tokens instead of having our own oracle.\n *\n * the exchangeTokens method will first check if the tokens are allowed in our contract and if we have enough\n * tokens in the contract to make the exchange. if we do then the exchange will happen here. if we dont, then\n * the 1inch swap protocol will be called to complete the exchange\n*/\n\nimport \"./interfaces/UniversalERC20.sol\";\nimport \"./interfaces/IOneSplit.sol\";\nimport './ExchangeOracle.sol';\nimport \"./Bank.sol\";\n\ncontract Chromium {\n    using UniversalERC20 for ERC20;\n\n    mapping(ERC20 => uint256) public balancePerToken;\n    mapping(ERC20 => bool) public allowedTokens; // tokens that are allowed to be exchanged\n    address oracleAddress;\n\n    Bank treasury;\n    ExchangeOracle oracle;\n    IOneSplit public oneSplitImpl; // pass in 1inch protocol contract address\n\n    ERC20 private constant ZERO_ADDRESS = ERC20(0x0000000000000000000000000000000000000000); // eth address substitute\n    ERC20 private constant ETH_ADDRESS = ERC20(0xEeeeeEeeeEeEeeEeEeEeeEEEeeeeEeeeeeeeEEeE); // eth address substitute\n\n    event depositToken(address indexed _from, uint256 _amount);\n    event onTransfer(\n        address indexed _from,\n        address indexed _to,\n        uint256 _amount\n    );\n    event tokensExchanged(\n        address indexed _sendingToken,\n        uint256 _amountSent,\n        address indexed _receivedToken,\n        uint256 _amountRecieved\n    );\n\n    /**\n     * pass in the oracle contract so that it can pull info from it\n     * @param _oneAuditImpl the 1inch protol address (0xC586BeF4a0992C495Cf22e1aeEE4E446CECDee0E)\n     */\n    constructor(address _oracle, address payable _treasury, address _oneAuditImpl) {\n        oracle = ExchangeOracle(_oracle);\n        treasury = Bank(_treasury);\n        oneSplitImpl = IOneSplit(_oneAuditImpl);\n        oracleAddress = _oracle;\n    }\n\n    /**\n     * @dev Calculate expected returning amount of `destToken`\n     * @param fromToken (IERC20) Address of token or `address(0)` for Ether\n     * @param destToken (IERC20) Address of token or `address(0)` for Ether\n     * @param amount (uint256) Amount for `fromToken`\n     * @param parts (uint256) Number of pieces source volume could be splitted,\n     * works like granularity, higly affects gas usage. Should be called offchain,\n     * but could be called onchain if user swaps not his own funds, but this is still considered as not safe.\n     * @param flags (uint256) Flags for enabling and disabling some features, default 0\n    */\n    function getExpectedReturnWithGas(\n        ERC20 fromToken,\n        ERC20 destToken,\n        uint256 amount,\n        uint256 parts,\n        uint256 flags // See constants in IOneSplit.sol\n    )\n    public\n    view\n    returns(\n        uint256 returnAmount,\n        uint256 estimateGasAmount,\n        uint256[] memory distribution\n    )\n    {\n        return oneSplitImpl.getExpectedReturnWithGas(\n            fromToken,\n            destToken,\n            amount,\n            parts,\n            flags,\n            0\n        );\n    }\n\n    /**\n     * @dev Swap `_sellAmount` of `_sellToken` to `_buyToken`\n     * @param _sellToken (IERC20) Address of token or `address(0)` for Ether\n     * @param _buyToken (IERC20) Address of token or `address(0)` for Ether\n     * @param _sellAmount (uint256) Amount for `fromToken`\n     * @param _minReturn (uint256) Minimum expected return, else revert\n     * @param distribution (uint256[]) Array of weights for volume distribution returned by `getExpectedReturnWithGas`\n     * @param flags (uint256) Flags for enabling and disabling some features, default 0\n    */\n    function exchangeTokens(\n        ERC20 _sellToken,\n        ERC20 _buyToken,\n        uint256 _sellAmount,\n        uint256 _minReturn,\n        uint256[] memory distribution,\n        uint256 flags\n    ) external payable returns (uint256 _amountReturned) {\n\n        // pulls the price of both tokens from an oracle using call without abi\n        // (bool result, bytes memory data) =\n        //     oracleAddress.call(\n        //         abi.encodeWithSignature(\n        //             \"priceOfPair(address,address)\",\n        //             _sellToken,\n        //             _buyToken\n        //         )\n        //     );\n\n        // // Decode bytes data\n        // (uint256 sellTokenValue, uint256 buyTokenValue) =\n        //     abi.decode(data, (uint256, uint256));\n\n        // //Calculate tokens bought\n        // uint256 buyingAmount =\n        //     SafeMath.mul(\n        //         _sellAmount,\n        //         SafeMath.div(sellTokenValue, buyTokenValue)\n        //     );\n\n        if (_exchangeWithChromium(_sellToken, _buyToken, _sellAmount)) {\n            // checks to see if there are enough tokens in the contract to make the exchange\n            require(_minReturn <= treasury.totalTokenSupply(address(_buyToken)));\n\n            _sellToken.universalTransferFrom(msg.sender, address(treasury), _sellAmount);\n            balancePerToken[_sellToken] = SafeMath.add(balancePerToken[_sellToken], _sellAmount);\n\n            _buyToken.universalTransfer(msg.sender, _minReturn);\n            balancePerToken[_buyToken] = SafeMath.sub(balancePerToken[_buyToken], _minReturn);\n\n            emit tokensExchanged(address(_sellToken), _sellAmount, address(_buyToken), _minReturn);\n            _amountReturned = _minReturn;\n        } else {\n            _amountReturned = oneSplitImpl.swap(_sellToken, _buyToken, _sellAmount, _minReturn, distribution, flags);\n            emit tokensExchanged(address(_sellToken), _sellAmount, address(_buyToken), _minReturn);\n        }\n    }\n\n\n    /**\n     * @dev this will accept erc20 tokens to be added to the contracts liquidity pool\n     */\n    function addLiquidity(ERC20 _token, uint256 _tokenAmount)\n    external\n    payable\n    {\n        //Check if token is not supported by bank\n        require(allowedTokens[_token] == true, \"Token is not supported\");\n        _token.approve(address(this), _tokenAmount);\n\n        balancePerToken[_token] = SafeMath.add(\n            balancePerToken[_token],\n            _tokenAmount\n        );\n\n        _token.universalTransferFrom(msg.sender, address(this), _tokenAmount);\n        emit depositToken(msg.sender, _tokenAmount);\n    }\n\n    /**\n     * @dev allows for tokens to be added to the exchange\n     * this needs to be done before adding any liquidity for the token\n     */\n    function _allowToken(ERC20 _token) public {\n        allowedTokens[_token] = true;\n    }\n\n    /**\n     * @dev method determines if chromium is able to make the exchange, if chromium cant make the exchange\n     * then it will return false and the 1inch protocol will complete the exchange\n     * @param _minReturn is the _minReturn that is returned from \"getExpectedReturnWithGas\"\n    */\n    function _exchangeWithChromium(ERC20 _sellToken, ERC20 _buyToken, uint _minReturn) internal view returns (bool) {\n        if (allowedTokens[_sellToken] == true && allowedTokens[_buyToken] == true) {\n            if (balancePerToken[_buyToken] >= _minReturn) {\n                return true;\n            } else {\n                return false;\n            }\n        } else {\n            return false;\n        }\n    }\n\n    function testCall() public payable returns (uint256 value) {\n        (bool result, bytes memory data) =\n        oracleAddress.call(abi.encodeWithSignature(\"testConnection()\"));\n\n        (uint256 sellTokenValue, uint256 buyTokenValue) =\n        abi.decode(data, (uint256, uint256));\n        return sellTokenValue + buyTokenValue;\n    }\n\n    // fallback function\n    receive() external payable {}\n}\n",
  "sourcePath": "/Users/hugomartinez/WebstormProjects/TungstenGroupProject1/contracts/Chromium.sol",
  "compiler": {
    "name": "solc",
    "version": "0.7.6+commit.7338295f.Emscripten.clang"
  },
  "schemaVersion": "3.3.4",
  "updatedAt": "2021-04-11T22:41:20.816Z",
  "devdoc": {
    "kind": "dev",
    "methods": {
      "_allowToken(address)": {
        "details": "allows for tokens to be added to the exchange this needs to be done before adding any liquidity for the token"
      },
      "addLiquidity(address,uint256)": {
        "details": "this will accept erc20 tokens to be added to the contracts liquidity pool"
      },
      "constructor": {
        "params": {
          "_oneAuditImpl": "the 1inch protol address (0xC586BeF4a0992C495Cf22e1aeEE4E446CECDee0E)"
        }
      },
      "exchangeTokens(address,address,uint256,uint256,uint256[],uint256)": {
        "details": "Swap `_sellAmount` of `_sellToken` to `_buyToken`",
        "params": {
          "_buyToken": "(IERC20) Address of token or `address(0)` for Ether",
          "_minReturn": "(uint256) Minimum expected return, else revert",
          "_sellAmount": "(uint256) Amount for `fromToken`",
          "_sellToken": "(IERC20) Address of token or `address(0)` for Ether",
          "distribution": "(uint256[]) Array of weights for volume distribution returned by `getExpectedReturnWithGas`",
          "flags": "(uint256) Flags for enabling and disabling some features, default 0"
        }
      },
      "getExpectedReturnWithGas(address,address,uint256,uint256,uint256)": {
        "details": "Calculate expected returning amount of `destToken`",
        "params": {
          "amount": "(uint256) Amount for `fromToken`",
          "destToken": "(IERC20) Address of token or `address(0)` for Ether",
          "flags": "(uint256) Flags for enabling and disabling some features, default 0",
          "fromToken": "(IERC20) Address of token or `address(0)` for Ether",
          "parts": "(uint256) Number of pieces source volume could be splitted, works like granularity, higly affects gas usage. Should be called offchain, but could be called onchain if user swaps not his own funds, but this is still considered as not safe."
        }
      }
    },
    "version": 1
  },
  "userdoc": {
    "kind": "user",
    "methods": {
      "constructor": {
        "notice": "pass in the oracle contract so that it can pull info from it"
      }
    },
    "version": 1
  }
}