{
  "contractName": "ChromiumV2",
  "abi": [
    {
      "inputs": [
        {
          "internalType": "address",
          "name": "_cbltToken",
          "type": "address"
        },
        {
          "internalType": "address",
          "name": "_oracle",
          "type": "address"
        },
        {
          "internalType": "uint256",
          "name": "_liquidityCbltPoolAmount",
          "type": "uint256"
        }
      ],
      "stateMutability": "nonpayable",
      "type": "constructor"
    },
    {
      "anonymous": false,
      "inputs": [
        {
          "indexed": true,
          "internalType": "address",
          "name": "_from",
          "type": "address"
        },
        {
          "indexed": false,
          "internalType": "address",
          "name": "_fromToken",
          "type": "address"
        },
        {
          "indexed": false,
          "internalType": "address",
          "name": "_destToken",
          "type": "address"
        },
        {
          "indexed": false,
          "internalType": "uint256",
          "name": "_fromAmount",
          "type": "uint256"
        },
        {
          "indexed": false,
          "internalType": "uint256",
          "name": "_cbltAmount",
          "type": "uint256"
        }
      ],
      "name": "ChromiumTrade",
      "type": "event"
    },
    {
      "anonymous": false,
      "inputs": [
        {
          "indexed": false,
          "internalType": "address",
          "name": "_previousOwner",
          "type": "address"
        },
        {
          "indexed": true,
          "internalType": "address",
          "name": "_newOwner",
          "type": "address"
        }
      ],
      "name": "OwnershipTransferred",
      "type": "event"
    },
    {
      "inputs": [],
      "name": "_owner",
      "outputs": [
        {
          "internalType": "address",
          "name": "",
          "type": "address"
        }
      ],
      "stateMutability": "view",
      "type": "function"
    },
    {
      "inputs": [
        {
          "internalType": "uint256",
          "name": "",
          "type": "uint256"
        }
      ],
      "name": "cbltLiquidity",
      "outputs": [
        {
          "internalType": "uint256",
          "name": "",
          "type": "uint256"
        }
      ],
      "stateMutability": "view",
      "type": "function"
    },
    {
      "inputs": [],
      "name": "isOwner",
      "outputs": [
        {
          "internalType": "bool",
          "name": "",
          "type": "bool"
        }
      ],
      "stateMutability": "view",
      "type": "function"
    },
    {
      "inputs": [
        {
          "internalType": "address",
          "name": "",
          "type": "address"
        }
      ],
      "name": "tokenLiquidity",
      "outputs": [
        {
          "internalType": "uint256",
          "name": "",
          "type": "uint256"
        }
      ],
      "stateMutability": "view",
      "type": "function"
    },
    {
      "inputs": [
        {
          "internalType": "address",
          "name": "_newOwner",
          "type": "address"
        }
      ],
      "name": "transferOwnership",
      "outputs": [],
      "stateMutability": "nonpayable",
      "type": "function"
    },
    {
      "stateMutability": "payable",
      "type": "receive"
    },
    {
      "inputs": [
        {
          "internalType": "address",
          "name": "_cblt",
          "type": "address"
        }
      ],
      "name": "setCbltToken",
      "outputs": [],
      "stateMutability": "nonpayable",
      "type": "function"
    },
    {
      "inputs": [
        {
          "internalType": "address",
          "name": "_oracle",
          "type": "address"
        }
      ],
      "name": "setOracle",
      "outputs": [],
      "stateMutability": "nonpayable",
      "type": "function"
    },
    {
      "inputs": [
        {
          "internalType": "address",
          "name": "_token",
          "type": "address"
        },
        {
          "internalType": "bool",
          "name": "_fromActive",
          "type": "bool"
        },
        {
          "internalType": "bool",
          "name": "_destActive",
          "type": "bool"
        }
      ],
      "name": "addTokenApproval",
      "outputs": [],
      "stateMutability": "nonpayable",
      "type": "function"
    },
    {
      "inputs": [
        {
          "internalType": "uint256",
          "name": "_liquidityLimit",
          "type": "uint256"
        }
      ],
      "name": "changeCbltLiquidityLimit",
      "outputs": [],
      "stateMutability": "nonpayable",
      "type": "function"
    },
    {
      "inputs": [
        {
          "internalType": "uint256",
          "name": "amountIn",
          "type": "uint256"
        },
        {
          "internalType": "address[]",
          "name": "path",
          "type": "address[]"
        }
      ],
      "name": "getExchangeRate",
      "outputs": [
        {
          "internalType": "uint256[]",
          "name": "amounts",
          "type": "uint256[]"
        }
      ],
      "stateMutability": "view",
      "type": "function"
    },
    {
      "inputs": [
        {
          "internalType": "address[]",
          "name": "path",
          "type": "address[]"
        },
        {
          "internalType": "uint256",
          "name": "amount",
          "type": "uint256"
        }
      ],
      "name": "swapTokens",
      "outputs": [
        {
          "internalType": "uint256",
          "name": "",
          "type": "uint256"
        }
      ],
      "stateMutability": "payable",
      "type": "function"
    },
    {
      "inputs": [
        {
          "internalType": "address[]",
          "name": "path",
          "type": "address[]"
        },
        {
          "internalType": "uint256",
          "name": "amount",
          "type": "uint256"
        }
      ],
      "name": "swapCblt",
      "outputs": [
        {
          "internalType": "uint256",
          "name": "",
          "type": "uint256"
        }
      ],
      "stateMutability": "payable",
      "type": "function"
    },
    {
      "inputs": [
        {
          "internalType": "address[]",
          "name": "path",
          "type": "address[]"
        },
        {
          "internalType": "uint256",
          "name": "amount",
          "type": "uint256"
        }
      ],
      "name": "swapForCblt",
      "outputs": [
        {
          "internalType": "uint256",
          "name": "",
          "type": "uint256"
        }
      ],
      "stateMutability": "payable",
      "type": "function"
    },
    {
      "inputs": [
        {
          "internalType": "uint256",
          "name": "_poolNumber",
          "type": "uint256"
        },
        {
          "internalType": "uint256",
          "name": "_amount",
          "type": "uint256"
        }
      ],
      "name": "addCbltToPool",
      "outputs": [],
      "stateMutability": "nonpayable",
      "type": "function"
    },
    {
      "inputs": [
        {
          "internalType": "address",
          "name": "_token",
          "type": "address"
        },
        {
          "internalType": "uint256",
          "name": "_amount",
          "type": "uint256"
        }
      ],
      "name": "addNewTokenToPool",
      "outputs": [],
      "stateMutability": "nonpayable",
      "type": "function"
    },
    {
      "inputs": [
        {
          "internalType": "contract IERC20",
          "name": "_token",
          "type": "address"
        },
        {
          "internalType": "uint256",
          "name": "amount",
          "type": "uint256"
        }
      ],
      "name": "retrieveTokens",
      "outputs": [],
      "stateMutability": "nonpayable",
      "type": "function"
    },
    {
      "inputs": [
        {
          "internalType": "uint256",
          "name": "liquidityPool",
          "type": "uint256"
        },
        {
          "internalType": "uint256",
          "name": "amount",
          "type": "uint256"
        }
      ],
      "name": "retrieveCBLT",
      "outputs": [],
      "stateMutability": "nonpayable",
      "type": "function"
    }
  ],
  "bytecode": "0x608060405234801561001057600080fd5b50604051613d2f380380613d2f8339818101604052606081101561003357600080fd5b81019080805190602001909291908051906020019092919080519060200190929190505050336000806101000a81548173ffffffffffffffffffffffffffffffffffffffff021916908373ffffffffffffffffffffffffffffffffffffffff16021790555082600560006101000a81548173ffffffffffffffffffffffffffffffffffffffff021916908373ffffffffffffffffffffffffffffffffffffffff160217905550604051806040016040528060011515815260200160011515815250600360008573ffffffffffffffffffffffffffffffffffffffff1673ffffffffffffffffffffffffffffffffffffffff16815260200190815260200160002060008201518160000160006101000a81548160ff02191690831515021790555060208201518160000160016101000a81548160ff0219169083151502179055509050506040518060400160405280600115158152602001600115158152506003600073c778417e063141139fce010982780140aa0cd5ab73ffffffffffffffffffffffffffffffffffffffff1673ffffffffffffffffffffffffffffffffffffffff16815260200190815260200160002060008201518160000160006101000a81548160ff02191690831515021790555060208201518160000160016101000a81548160ff02191690831515021790555090505081600660006101000a81548173ffffffffffffffffffffffffffffffffffffffff021916908373ffffffffffffffffffffffffffffffffffffffff16021790555080600481905550505050613aae806102816000396000f3fe6080604052600436106101025760003560e01c80637e5ba18411610095578063b1f5e3bb11610064578063b1f5e3bb14610608578063b2bdfa7b1461069f578063da7d2f90146106e0578063e5561eda1461071b578063f2fde38b1461076057610109565b80637e5ba1841461040e5780638f32d59b146104a557806396674ea4146104d2578063a45d1b4c1461052357610109565b8063384e1a53116100d1578063384e1a5314610286578063537b8748146102cb5780635f575a34146103625780637adbf973146103bd57610109565b80630a3bc28a1461010e5780630b86c2e0146101735780630f7159bd146101c257806334e8c6791461022b57610109565b3661010957005b600080fd5b34801561011a57600080fd5b5061015d6004803603602081101561013157600080fd5b81019080803573ffffffffffffffffffffffffffffffffffffffff1690602001909291905050506107b1565b6040518082815260200191505060405180910390f35b34801561017f57600080fd5b506101ac6004803603602081101561019657600080fd5b81019080803590602001909291905050506107c9565b6040518082815260200191505060405180910390f35b3480156101ce57600080fd5b50610229600480360360608110156101e557600080fd5b81019080803573ffffffffffffffffffffffffffffffffffffffff1690602001909291908035151590602001909291908035151590602001909291905050506107e1565b005b34801561023757600080fd5b506102846004803603604081101561024e57600080fd5b81019080803573ffffffffffffffffffffffffffffffffffffffff169060200190929190803590602001909291905050506108fb565b005b34801561029257600080fd5b506102c9600480360360408110156102a957600080fd5b810190808035906020019092919080359060200190929190505050610b70565b005b61034c600480360360408110156102e157600080fd5b81019080803590602001906401000000008111156102fe57600080fd5b82018360208201111561031057600080fd5b8035906020019184602083028401116401000000008311171561033257600080fd5b909192939192939080359060200190929190505050610cdc565b6040518082815260200191505060405180910390f35b34801561036e57600080fd5b506103bb6004803603604081101561038557600080fd5b81019080803573ffffffffffffffffffffffffffffffffffffffff169060200190929190803590602001909291905050506111ad565b005b3480156103c957600080fd5b5061040c600480360360208110156103e057600080fd5b81019080803573ffffffffffffffffffffffffffffffffffffffff169060200190929190505050611303565b005b61048f6004803603604081101561042457600080fd5b810190808035906020019064010000000081111561044157600080fd5b82018360208201111561045357600080fd5b8035906020019184602083028401116401000000008311171561047557600080fd5b9091929391929390803590602001909291905050506113c1565b6040518082815260200191505060405180910390f35b3480156104b157600080fd5b506104ba611c70565b60405180821515815260200191505060405180910390f35b3480156104de57600080fd5b50610521600480360360208110156104f557600080fd5b81019080803573ffffffffffffffffffffffffffffffffffffffff169060200190929190505050611cc7565b005b34801561052f57600080fd5b506105b16004803603604081101561054657600080fd5b81019080803590602001909291908035906020019064010000000081111561056d57600080fd5b82018360208201111561057f57600080fd5b803590602001918460208302840111640100000000831117156105a157600080fd5b9091929391929390505050611d85565b6040518080602001828103825283818151815260200191508051906020019060200280838360005b838110156105f45780820151818401526020810190506105d9565b505050509050019250505060405180910390f35b6106896004803603604081101561061e57600080fd5b810190808035906020019064010000000081111561063b57600080fd5b82018360208201111561064d57600080fd5b8035906020019184602083028401116401000000008311171561066f57600080fd5b909192939192939080359060200190929190505050612313565b6040518082815260200191505060405180910390f35b3480156106ab57600080fd5b506106b4612d5a565b604051808273ffffffffffffffffffffffffffffffffffffffff16815260200191505060405180910390f35b3480156106ec57600080fd5b506107196004803603602081101561070357600080fd5b8101908080359060200190929190505050612d7e565b005b34801561072757600080fd5b5061075e6004803603604081101561073e57600080fd5b810190808035906020019092919080359060200190929190505050612e02565b005b34801561076c57600080fd5b506107af6004803603602081101561078357600080fd5b81019080803573ffffffffffffffffffffffffffffffffffffffff169060200190929190505050612eff565b005b60016020528060005260406000206000915090505481565b60026020528060005260406000206000915090505481565b6107e9611c70565b61085b576040517f08c379a00000000000000000000000000000000000000000000000000000000081526004018080602001828103825260168152602001807f596f7520617265206e6f7420746865206f776e65722e0000000000000000000081525060200191505060405180910390fd5b60405180604001604052808315158152602001821515815250600360008573ffffffffffffffffffffffffffffffffffffffff1673ffffffffffffffffffffffffffffffffffffffff16815260200190815260200160002060008201518160000160006101000a81548160ff02191690831515021790555060208201518160000160016101000a81548160ff021916908315150217905550905050505050565b610903611c70565b610975576040517f08c379a00000000000000000000000000000000000000000000000000000000081526004018080602001828103825260168152602001807f596f7520617265206e6f7420746865206f776e65722e0000000000000000000081525060200191505060405180910390fd5b8173ffffffffffffffffffffffffffffffffffffffff16600560009054906101000a900473ffffffffffffffffffffffffffffffffffffffff1673ffffffffffffffffffffffffffffffffffffffff161415610a1c576040517f08c379a00000000000000000000000000000000000000000000000000000000081526004018080602001828103825260328152602001806138ba6032913960400191505060405180910390fd5b600160008373ffffffffffffffffffffffffffffffffffffffff1673ffffffffffffffffffffffffffffffffffffffff16815260200190815260200160002054811115610ab4576040517f08c379a0000000000000000000000000000000000000000000000000000000008152600401808060200182810382526029815260200180613a506029913960400191505060405180910390fd5b610adf33828473ffffffffffffffffffffffffffffffffffffffff1661303a9092919063ffffffff16565b50610b29600160008473ffffffffffffffffffffffffffffffffffffffff1673ffffffffffffffffffffffffffffffffffffffff16815260200190815260200160002054826130e2565b600160008473ffffffffffffffffffffffffffffffffffffffff1673ffffffffffffffffffffffffffffffffffffffff168152602001908152602001600020819055505050565b610b78611c70565b610bea576040517f08c379a00000000000000000000000000000000000000000000000000000000081526004018080602001828103825260168152602001807f596f7520617265206e6f7420746865206f776e65722e0000000000000000000081525060200191505060405180910390fd5b6002600083815260200190815260200160002054811115610c56576040517f08c379a000000000000000000000000000000000000000000000000000000000815260040180806020018281038252603281526020018061396c6032913960400191505060405180910390fd5b610ca33382600560009054906101000a900473ffffffffffffffffffffffffffffffffffffffff1673ffffffffffffffffffffffffffffffffffffffff1661303a9092919063ffffffff16565b50610cc16002600084815260200190815260200160002054826130e2565b60026000848152602001908152602001600020819055505050565b6000600560009054906101000a900473ffffffffffffffffffffffffffffffffffffffff1673ffffffffffffffffffffffffffffffffffffffff1684846000818110610d2457fe5b9050602002013573ffffffffffffffffffffffffffffffffffffffff1673ffffffffffffffffffffffffffffffffffffffff1614610dad576040517f08c379a000000000000000000000000000000000000000000000000000000000815260040180806020018281038252602b815260200180613915602b913960400191505060405180910390fd5b6000610dba838686611d85565b905080600181518110610dc957fe5b60200260200101516001600087876001818110610de257fe5b9050602002013573ffffffffffffffffffffffffffffffffffffffff1673ffffffffffffffffffffffffffffffffffffffff1673ffffffffffffffffffffffffffffffffffffffff168152602001908152602001600020541015610eae576040517f08c379a000000000000000000000000000000000000000000000000000000000815260040180806020018281038252601e8152602001807f4e6f7420656e6f75676820746f6b656e7320696e2074726561737572792e000081525060200191505060405180910390fd5b610ef983600560009054906101000a900473ffffffffffffffffffffffffffffffffffffffff1673ffffffffffffffffffffffffffffffffffffffff166130f990919063ffffffff16565b6000610f04846131af565b9050610f236002600083815260200190815260200160002054856131cd565b6002600083815260200190815260200160002081905550610fa23383600181518110610f4b57fe5b602002602001015188886001818110610f6057fe5b9050602002013573ffffffffffffffffffffffffffffffffffffffff1673ffffffffffffffffffffffffffffffffffffffff1661303a9092919063ffffffff16565b506110296001600088886001818110610fb757fe5b9050602002013573ffffffffffffffffffffffffffffffffffffffff1673ffffffffffffffffffffffffffffffffffffffff1673ffffffffffffffffffffffffffffffffffffffff168152602001908152602001600020548360018151811061101c57fe5b60200260200101516130e2565b600160008888600181811061103a57fe5b9050602002013573ffffffffffffffffffffffffffffffffffffffff1673ffffffffffffffffffffffffffffffffffffffff1673ffffffffffffffffffffffffffffffffffffffff168152602001908152602001600020819055503373ffffffffffffffffffffffffffffffffffffffff167f7d23a0ba203196e9d2f85c667f74bcfc7eabb2cc556d4b12a56b782805893f84878760008181106110da57fe5b9050602002013573ffffffffffffffffffffffffffffffffffffffff168888600181811061110457fe5b9050602002013573ffffffffffffffffffffffffffffffffffffffff16878660018151811061112f57fe5b6020026020010151604051808573ffffffffffffffffffffffffffffffffffffffff1681526020018473ffffffffffffffffffffffffffffffffffffffff16815260200183815260200182815260200194505050505060405180910390a28160018151811061119a57fe5b6020026020010151925050509392505050565b6111d6818373ffffffffffffffffffffffffffffffffffffffff166130f990919063ffffffff16565b61121f600160008473ffffffffffffffffffffffffffffffffffffffff1673ffffffffffffffffffffffffffffffffffffffff16815260200190815260200160002054826131cd565b600160008473ffffffffffffffffffffffffffffffffffffffff1673ffffffffffffffffffffffffffffffffffffffff16815260200190815260200160002081905550604051806040016040528060001515815260200160001515815250600360008473ffffffffffffffffffffffffffffffffffffffff1673ffffffffffffffffffffffffffffffffffffffff16815260200190815260200160002060008201518160000160006101000a81548160ff02191690831515021790555060208201518160000160016101000a81548160ff0219169083151502179055509050505050565b61130b611c70565b61137d576040517f08c379a00000000000000000000000000000000000000000000000000000000081526004018080602001828103825260168152602001807f596f7520617265206e6f7420746865206f776e65722e0000000000000000000081525060200191505060405180910390fd5b80600660006101000a81548173ffffffffffffffffffffffffffffffffffffffff021916908373ffffffffffffffffffffffffffffffffffffffff16021790555050565b6000600560009054906101000a900473ffffffffffffffffffffffffffffffffffffffff1673ffffffffffffffffffffffffffffffffffffffff168484600181811061140957fe5b9050602002013573ffffffffffffffffffffffffffffffffffffffff1673ffffffffffffffffffffffffffffffffffffffff1614611492576040517f08c379a000000000000000000000000000000000000000000000000000000000815260040180806020018281038252602b81526020018061388f602b913960400191505060405180910390fd5b600061149f838686611d85565b905060006114c0826001815181106114b357fe5b60200260200101516131af565b905073c778417e063141139fce010982780140aa0cd5ab73ffffffffffffffffffffffffffffffffffffffff16868660008181106114fa57fe5b9050602002013573ffffffffffffffffffffffffffffffffffffffff1673ffffffffffffffffffffffffffffffffffffffff1614156118fd57600034141561158d576040517f08c379a000000000000000000000000000000000000000000000000000000000815260040180806020018281038252602481526020018061399e6024913960400191505060405180910390fd5b8160018151811061159a57fe5b60200260200101516002600083815260200190815260200160002054101561160d576040517f08c379a000000000000000000000000000000000000000000000000000000000815260040180806020018281038252603b815260200180613854603b913960400191505060405180910390fd5b61165f848787600081811061161e57fe5b9050602002013573ffffffffffffffffffffffffffffffffffffffff1673ffffffffffffffffffffffffffffffffffffffff166130f990919063ffffffff16565b6116d1600160008888600081811061167357fe5b9050602002013573ffffffffffffffffffffffffffffffffffffffff1673ffffffffffffffffffffffffffffffffffffffff1673ffffffffffffffffffffffffffffffffffffffff16815260200190815260200160002054856131cd565b60016000888860008181106116e257fe5b9050602002013573ffffffffffffffffffffffffffffffffffffffff1673ffffffffffffffffffffffffffffffffffffffff1673ffffffffffffffffffffffffffffffffffffffff1681526020019081526020016000208190555061176e60026000838152602001908152602001600020548360018151811061176157fe5b60200260200101516130e2565b60026000838152602001908152602001600020819055506117e6338360018151811061179657fe5b6020026020010151600560009054906101000a900473ffffffffffffffffffffffffffffffffffffffff1673ffffffffffffffffffffffffffffffffffffffff1661303a9092919063ffffffff16565b503373ffffffffffffffffffffffffffffffffffffffff167f7d23a0ba203196e9d2f85c667f74bcfc7eabb2cc556d4b12a56b782805893f848787600081811061182c57fe5b9050602002013573ffffffffffffffffffffffffffffffffffffffff168888600181811061185657fe5b9050602002013573ffffffffffffffffffffffffffffffffffffffff16878660018151811061188157fe5b6020026020010151604051808573ffffffffffffffffffffffffffffffffffffffff1681526020018473ffffffffffffffffffffffffffffffffffffffff16815260200183815260200182815260200194505050505060405180910390a2816001815181106118ec57fe5b602002602001015192505050611c69565b8160018151811061190a57fe5b60200260200101516002600083815260200190815260200160002054101561197d576040517f08c379a000000000000000000000000000000000000000000000000000000000815260040180806020018281038252603d8152602001806139ec603d913960400191505060405180910390fd5b6119cf848787600081811061198e57fe5b9050602002013573ffffffffffffffffffffffffffffffffffffffff1673ffffffffffffffffffffffffffffffffffffffff166130f990919063ffffffff16565b611a4160016000888860008181106119e357fe5b9050602002013573ffffffffffffffffffffffffffffffffffffffff1673ffffffffffffffffffffffffffffffffffffffff1673ffffffffffffffffffffffffffffffffffffffff16815260200190815260200160002054856131cd565b6001600088886000818110611a5257fe5b9050602002013573ffffffffffffffffffffffffffffffffffffffff1673ffffffffffffffffffffffffffffffffffffffff1673ffffffffffffffffffffffffffffffffffffffff16815260200190815260200160002081905550611ade600260008381526020019081526020016000205483600181518110611ad157fe5b60200260200101516130e2565b6002600083815260200190815260200160002081905550611b563383600181518110611b0657fe5b6020026020010151600560009054906101000a900473ffffffffffffffffffffffffffffffffffffffff1673ffffffffffffffffffffffffffffffffffffffff1661303a9092919063ffffffff16565b503373ffffffffffffffffffffffffffffffffffffffff167f7d23a0ba203196e9d2f85c667f74bcfc7eabb2cc556d4b12a56b782805893f8487876000818110611b9c57fe5b9050602002013573ffffffffffffffffffffffffffffffffffffffff1688886001818110611bc657fe5b9050602002013573ffffffffffffffffffffffffffffffffffffffff168786600181518110611bf157fe5b6020026020010151604051808573ffffffffffffffffffffffffffffffffffffffff1681526020018473ffffffffffffffffffffffffffffffffffffffff16815260200183815260200182815260200194505050505060405180910390a281600181518110611c5c57fe5b6020026020010151925050505b9392505050565b60008060009054906101000a900473ffffffffffffffffffffffffffffffffffffffff1673ffffffffffffffffffffffffffffffffffffffff163373ffffffffffffffffffffffffffffffffffffffff1614905090565b611ccf611c70565b611d41576040517f08c379a00000000000000000000000000000000000000000000000000000000081526004018080602001828103825260168152602001807f596f7520617265206e6f7420746865206f776e65722e0000000000000000000081525060200191505060405180910390fd5b80600560006101000a81548173ffffffffffffffffffffffffffffffffffffffff021916908373ffffffffffffffffffffffffffffffffffffffff16021790555050565b606060028383905014611e00576040517f08c379a00000000000000000000000000000000000000000000000000000000081526004018080602001828103825260208152602001807f4368726f6d69756d3a3a20696e636f72726563742070617468206c656e67746881525060200191505060405180910390fd5b600115156003600085856000818110611e1557fe5b9050602002013573ffffffffffffffffffffffffffffffffffffffff1673ffffffffffffffffffffffffffffffffffffffff1673ffffffffffffffffffffffffffffffffffffffff16815260200190815260200160002060000160009054906101000a900460ff161515148015611f085750600115156003600085856001818110611e9c57fe5b9050602002013573ffffffffffffffffffffffffffffffffffffffff1673ffffffffffffffffffffffffffffffffffffffff1673ffffffffffffffffffffffffffffffffffffffff16815260200190815260200160002060000160019054906101000a900460ff161515145b611f5d576040517f08c379a000000000000000000000000000000000000000000000000000000000815260040180806020018281038252602c815260200180613940602c913960400191505060405180910390fd5b6000806000600660009054906101000a900473ffffffffffffffffffffffffffffffffffffffff1673ffffffffffffffffffffffffffffffffffffffff16633a7a2a0687876000818110611fad57fe5b9050602002013573ffffffffffffffffffffffffffffffffffffffff1688886001818110611fd757fe5b9050602002013573ffffffffffffffffffffffffffffffffffffffff166040518363ffffffff1660e01b8152600401808373ffffffffffffffffffffffffffffffffffffffff1681526020018273ffffffffffffffffffffffffffffffffffffffff1681526020019250505060606040518083038186803b15801561205b57600080fd5b505afa15801561206f573d6000803e3d6000fd5b505050506040513d606081101561208557600080fd5b810190808051906020019092919080519060200190929190805190602001909291905050509250925092508015612174578585905067ffffffffffffffff811180156120d057600080fd5b506040519080825280602002602001820160405280156120ff5781602001602082028036833780820191505090505b509350868460008151811061211057fe5b60200260200101818152505061213b876121368961213160036103e86131e9565b613202565b6130e2565b965060006121528861214d8686613239565b613202565b9050808560018151811061216257fe5b60200260200101818152505050612309565b6121938761218e8961218960036103e86131e9565b613202565b6130e2565b9650737a250d5630b4cf539739df2c5dacb4c659f2488d73ffffffffffffffffffffffffffffffffffffffff1663d06ca61f8888886040518463ffffffff1660e01b815260040180848152602001806020018281038252848482818152602001925060200280828437600081840152601f19601f82011690508083019250505094505050505060006040518083038186803b15801561223157600080fd5b505afa158015612245573d6000803e3d6000fd5b505050506040513d6000823e3d601f19601f82011682018060405250602081101561226f57600080fd5b810190808051604051939291908464010000000082111561228f57600080fd5b838201915060208201858111156122a557600080fd5b82518660208202830111640100000000821117156122c257600080fd5b8083526020830192505050908051906020019060200280838360005b838110156122f95780820151818401526020810190506122de565b5050505090500160405250505093505b5050509392505050565b6000600560009054906101000a900473ffffffffffffffffffffffffffffffffffffffff1673ffffffffffffffffffffffffffffffffffffffff168484600081811061235b57fe5b9050602002013573ffffffffffffffffffffffffffffffffffffffff1673ffffffffffffffffffffffffffffffffffffffff16141580156124135750600560009054906101000a900473ffffffffffffffffffffffffffffffffffffffff1673ffffffffffffffffffffffffffffffffffffffff16848460018181106123dd57fe5b9050602002013573ffffffffffffffffffffffffffffffffffffffff1673ffffffffffffffffffffffffffffffffffffffff1614155b612468576040517f08c379a0000000000000000000000000000000000000000000000000000000008152600401808060200182810382526027815260200180613a296027913960400191505060405180910390fd5b6000612475838686611d85565b905073c778417e063141139fce010982780140aa0cd5ab73ffffffffffffffffffffffffffffffffffffffff16858560008181106124af57fe5b9050602002013573ffffffffffffffffffffffffffffffffffffffff1673ffffffffffffffffffffffffffffffffffffffff1614156129d4576000341415612542576040517f08c379a000000000000000000000000000000000000000000000000000000000815260040180806020018281038252602481526020018061399e6024913960400191505060405180910390fd5b8060018151811061254f57fe5b6020026020010151600160008787600181811061256857fe5b9050602002013573ffffffffffffffffffffffffffffffffffffffff1673ffffffffffffffffffffffffffffffffffffffff1673ffffffffffffffffffffffffffffffffffffffff168152602001908152602001600020541015612634576040517f08c379a000000000000000000000000000000000000000000000000000000000815260040180806020018281038252601e8152602001807f4e6f7420656e6f75676820746f6b656e7320696e2054726561737572792e000081525060200191505060405180910390fd5b612686838686600081811061264557fe5b9050602002013573ffffffffffffffffffffffffffffffffffffffff1673ffffffffffffffffffffffffffffffffffffffff166130f990919063ffffffff16565b6126f8600160008787600081811061269a57fe5b9050602002013573ffffffffffffffffffffffffffffffffffffffff1673ffffffffffffffffffffffffffffffffffffffff1673ffffffffffffffffffffffffffffffffffffffff16815260200190815260200160002054846131cd565b600160008787600081811061270957fe5b9050602002013573ffffffffffffffffffffffffffffffffffffffff1673ffffffffffffffffffffffffffffffffffffffff1673ffffffffffffffffffffffffffffffffffffffff168152602001908152602001600020819055506127cc338260018151811061277557fe5b60200260200101518787600181811061278a57fe5b9050602002013573ffffffffffffffffffffffffffffffffffffffff1673ffffffffffffffffffffffffffffffffffffffff1661303a9092919063ffffffff16565b5061285360016000878760018181106127e157fe5b9050602002013573ffffffffffffffffffffffffffffffffffffffff1673ffffffffffffffffffffffffffffffffffffffff1673ffffffffffffffffffffffffffffffffffffffff168152602001908152602001600020548260018151811061284657fe5b60200260200101516130e2565b600160008787600181811061286457fe5b9050602002013573ffffffffffffffffffffffffffffffffffffffff1673ffffffffffffffffffffffffffffffffffffffff1673ffffffffffffffffffffffffffffffffffffffff168152602001908152602001600020819055503373ffffffffffffffffffffffffffffffffffffffff167f7d23a0ba203196e9d2f85c667f74bcfc7eabb2cc556d4b12a56b782805893f848686600081811061290457fe5b9050602002013573ffffffffffffffffffffffffffffffffffffffff168787600181811061292e57fe5b9050602002013573ffffffffffffffffffffffffffffffffffffffff16868560018151811061295957fe5b6020026020010151604051808573ffffffffffffffffffffffffffffffffffffffff1681526020018473ffffffffffffffffffffffffffffffffffffffff16815260200183815260200182815260200194505050505060405180910390a2806001815181106129c457fe5b6020026020010151915050612d53565b806001815181106129e157fe5b602002602001015160016000878760018181106129fa57fe5b9050602002013573ffffffffffffffffffffffffffffffffffffffff1673ffffffffffffffffffffffffffffffffffffffff1673ffffffffffffffffffffffffffffffffffffffff168152602001908152602001600020541015612aa9576040517f08c379a00000000000000000000000000000000000000000000000000000000081526004018080602001828103825260298152602001806138ec6029913960400191505060405180910390fd5b612afb8386866000818110612aba57fe5b9050602002013573ffffffffffffffffffffffffffffffffffffffff1673ffffffffffffffffffffffffffffffffffffffff166130f990919063ffffffff16565b612b6d6001600087876000818110612b0f57fe5b9050602002013573ffffffffffffffffffffffffffffffffffffffff1673ffffffffffffffffffffffffffffffffffffffff1673ffffffffffffffffffffffffffffffffffffffff16815260200190815260200160002054846131cd565b6001600087876000818110612b7e57fe5b9050602002013573ffffffffffffffffffffffffffffffffffffffff1673ffffffffffffffffffffffffffffffffffffffff1673ffffffffffffffffffffffffffffffffffffffff16815260200190815260200160002081905550612c413382600181518110612bea57fe5b602002602001015187876001818110612bff57fe5b9050602002013573ffffffffffffffffffffffffffffffffffffffff1673ffffffffffffffffffffffffffffffffffffffff1661303a9092919063ffffffff16565b503373ffffffffffffffffffffffffffffffffffffffff167f7d23a0ba203196e9d2f85c667f74bcfc7eabb2cc556d4b12a56b782805893f8486866000818110612c8757fe5b9050602002013573ffffffffffffffffffffffffffffffffffffffff1687876001818110612cb157fe5b9050602002013573ffffffffffffffffffffffffffffffffffffffff168685600181518110612cdc57fe5b6020026020010151604051808573ffffffffffffffffffffffffffffffffffffffff1681526020018473ffffffffffffffffffffffffffffffffffffffff16815260200183815260200182815260200194505050505060405180910390a280600181518110612d4757fe5b60200260200101519150505b9392505050565b60008054906101000a900473ffffffffffffffffffffffffffffffffffffffff1681565b612d86611c70565b612df8576040517f08c379a00000000000000000000000000000000000000000000000000000000081526004018080602001828103825260168152602001807f596f7520617265206e6f7420746865206f776e65722e0000000000000000000081525060200191505060405180910390fd5b8060048190555050565b612e0a611c70565b612e7c576040517f08c379a00000000000000000000000000000000000000000000000000000000081526004018080602001828103825260168152602001807f596f7520617265206e6f7420746865206f776e65722e0000000000000000000081525060200191505060405180910390fd5b612ec781600560009054906101000a900473ffffffffffffffffffffffffffffffffffffffff1673ffffffffffffffffffffffffffffffffffffffff166130f990919063ffffffff16565b612ee46002600084815260200190815260200160002054826131cd565b60026000848152602001908152602001600020819055505050565b612f07611c70565b612f79576040517f08c379a00000000000000000000000000000000000000000000000000000000081526004018080602001828103825260168152602001807f596f7520617265206e6f7420746865206f776e65722e0000000000000000000081525060200191505060405180910390fd5b600073ffffffffffffffffffffffffffffffffffffffff168173ffffffffffffffffffffffffffffffffffffffff161415612fb357600080fd5b8073ffffffffffffffffffffffffffffffffffffffff167f8be0079c531659141344cd1fd0a4f28419497f9722a3daafe3b4186f6b6457e060008054906101000a900473ffffffffffffffffffffffffffffffffffffffff16604051808273ffffffffffffffffffffffffffffffffffffffff16815260200191505060405180910390a250565b60008082141561304d57600190506130db565b6130568461325c565b156130ab578273ffffffffffffffffffffffffffffffffffffffff166108fc839081150290604051600060405180830381858888f193505050501580156130a1573d6000803e3d6000fd5b50600190506130db565b6130d683838673ffffffffffffffffffffffffffffffffffffffff1661333c9092919063ffffffff16565b600190505b9392505050565b6000828211156130ee57fe5b818303905092915050565b6000811415613107576131ab565b6131108261325c565b1561317c5780341115613177573373ffffffffffffffffffffffffffffffffffffffff166108fc61314a83346130e290919063ffffffff16565b9081150290604051600060405180830381858888f19350505050158015613175573d6000803e3d6000fd5b505b6131aa565b6131a93330838573ffffffffffffffffffffffffffffffffffffffff166133de909392919063ffffffff16565b5b5b5050565b600060045482106131c357600190506131c8565b600290505b919050565b6000808284019050838110156131df57fe5b8091505092915050565b6000808284816131f557fe5b0490508091505092915050565b6000808314156132155760009050613233565b600082840290508284828161322657fe5b041461322e57fe5b809150505b92915050565b60008082670de0b6b3a764000085028161324f57fe5b0490508091505092915050565b600073c02aaa39b223fe8d0a0e5c4f27ead9083c756cc273ffffffffffffffffffffffffffffffffffffffff168273ffffffffffffffffffffffffffffffffffffffff1614806132eb575073eeeeeeeeeeeeeeeeeeeeeeeeeeeeeeeeeeeeeeee73ffffffffffffffffffffffffffffffffffffffff168273ffffffffffffffffffffffffffffffffffffffff16145b80613335575073c778417e063141139fce010982780140aa0cd5ab73ffffffffffffffffffffffffffffffffffffffff168273ffffffffffffffffffffffffffffffffffffffff16145b9050919050565b6133d98363a9059cbb60e01b8484604051602401808373ffffffffffffffffffffffffffffffffffffffff16815260200182815260200192505050604051602081830303815290604052907bffffffffffffffffffffffffffffffffffffffffffffffffffffffff19166020820180517bffffffffffffffffffffffffffffffffffffffffffffffffffffffff838183161783525050505061349f565b505050565b613499846323b872dd60e01b858585604051602401808473ffffffffffffffffffffffffffffffffffffffff1681526020018373ffffffffffffffffffffffffffffffffffffffff1681526020018281526020019350505050604051602081830303815290604052907bffffffffffffffffffffffffffffffffffffffffffffffffffffffff19166020820180517bffffffffffffffffffffffffffffffffffffffffffffffffffffffff838183161783525050505061349f565b50505050565b6000613501826040518060400160405280602081526020017f5361666545524332303a206c6f772d6c6576656c2063616c6c206661696c65648152508573ffffffffffffffffffffffffffffffffffffffff1661358e9092919063ffffffff16565b90506000815111156135895780806020019051602081101561352257600080fd5b8101908080519060200190929190505050613588576040517f08c379a000000000000000000000000000000000000000000000000000000000815260040180806020018281038252602a8152602001806139c2602a913960400191505060405180910390fd5b5b505050565b606061359d84846000856135a6565b90509392505050565b606082471015613601576040517f08c379a000000000000000000000000000000000000000000000000000000000815260040180806020018281038252602681526020018061382e6026913960400191505060405180910390fd5b61360a8561374e565b61367c576040517f08c379a000000000000000000000000000000000000000000000000000000000815260040180806020018281038252601d8152602001807f416464726573733a2063616c6c20746f206e6f6e2d636f6e747261637400000081525060200191505060405180910390fd5b6000808673ffffffffffffffffffffffffffffffffffffffff1685876040518082805190602001908083835b602083106136cb57805182526020820191506020810190506020830392506136a8565b6001836020036101000a03801982511681845116808217855250505050505090500191505060006040518083038185875af1925050503d806000811461372d576040519150601f19603f3d011682016040523d82523d6000602084013e613732565b606091505b5091509150613742828286613761565b92505050949350505050565b600080823b905060008111915050919050565b6060831561377157829050613826565b6000835111156137845782518084602001fd5b816040517f08c379a00000000000000000000000000000000000000000000000000000000081526004018080602001828103825283818151815260200191508051906020019080838360005b838110156137eb5780820151818401526020810190506137d0565b50505050905090810190601f1680156138185780820380516001836020036101000a031916815260200191505b509250505060405180910390fd5b939250505056fe416464726573733a20696e73756666696369656e742062616c616e636520666f722063616c6c4e6f7420656e6f7567682063626c7420746f6b656e7320696e20706f6f6c20666f72203130303020616e6420757020696e2054726561737572792e4368726f6d69756d3a3a2064657374546f6b656e206e6565647320746f2062652063626c74546f6b656e2e4368726f6d69756d3a3a2063616e27742077697468647261772043424c54207769746820746869732066756e6374696f6e2e4368726f6d69756d3a3a204e6f7420656e6f75676820746f6b656e7320696e2054726561737572792e4368726f6d69756d3a3a2066726f6d546f6b656e206e6565647320746f2062652063626c74546f6b656e2e4368726f6d69756d3a3a204f6e6520746f6b656e206973206e6f742061637469766520666f722074726164654368726f6d69756d3a3a206e6f7420656e6f7567682043424c5420696e2074686973206c697175696469747920706f6f6c2e4368726f6d69756d3a3a206d73672e76616c75652063616e206e6f7420657175616c20305361666545524332303a204552433230206f7065726174696f6e20646964206e6f7420737563636565644e6f7420656e6f7567682063626c7420746f6b656e7320696e20706f6f6c20666f72203130303020616e6420646f776e20696e2054726561737572792e43626c742063616e277420626520747261646564207769746820746869732066756e6374696f6e4368726f6d69756d3a3a206e6f7420656e6f75676820746f6b656e7320696e2065786368616e67652ea2646970667358221220bc7904330d6fccd211851028da772ffdd7e944d4dfb881f85fe468b8f0e770b164736f6c63430007060033",
  "immutableReferences": {},
  "source": "// SPDX-License-Identifier: MIT\npragma solidity >=0.4.22 <0.9.0;\n\nimport \"./interfaces/UniversalERC20.sol\";\nimport './interfaces/Ownable.sol';\nimport './interfaces/IUniswap.sol';\nimport \"./ExchangeOracle.sol\";\n\ncontract ChromiumV2 is Ownable {\n    using UniversalERC20 for IERC20;\n\n    struct TokenInfo {\n        bool fromTokenActive;\n        bool destTokenActive;\n    }\n\n    // used to keep track of tokens in contract\n    mapping(address => uint) public tokenLiquidity;\n    mapping(uint => uint) public cbltLiquidity;\n    mapping(address => TokenInfo) tokenApproval;\n\n    uint cbltLiquidityMaxAmount;\n\n    // eth contract address\n    IERC20 private constant ETH_ADDRESS = IERC20(0xc778417E063141139Fce010982780140Aa0cD5Ab);\n    IUniswap private constant uniswap = IUniswap(0x7a250d5630B4cF539739dF2C5dAcb4c659F2488D);\n\n    // initializing objects\n    IERC20 cbltToken;\n    ExchangeOracle oracle;\n\n    // emits when chromium is used\n    event ChromiumTrade(address indexed _from, address _fromToken, address _destToken, uint256 _fromAmount, uint _cbltAmount);\n\n    /**\n     * pass in the oracle contract so that it can pull info from it\n     */\n    constructor(address _cbltToken, address _oracle, uint _liquidityCbltPoolAmount) {\n        cbltToken = IERC20(_cbltToken);\n        tokenApproval[_cbltToken] = TokenInfo(true, true);\n        tokenApproval[address(ETH_ADDRESS)] = TokenInfo(true, true);\n        oracle = ExchangeOracle(_oracle);\n        cbltLiquidityMaxAmount = _liquidityCbltPoolAmount;\n    }\n\n    // sets CBLT token\n    function setCbltToken(address _cblt) external onlyOwner {\n        cbltToken = IERC20(_cblt);\n    }\n\n    function setOracle(address _oracle) external onlyOwner {\n        oracle = ExchangeOracle(_oracle);\n    }\n    function addTokenApproval(\n        address _token,\n        bool _fromActive,\n        bool _destActive\n    )\n    external\n    onlyOwner\n    {\n        tokenApproval[_token] = TokenInfo(_fromActive, _destActive);\n    }\n\n    function changeCbltLiquidityLimit(\n        uint _liquidityLimit\n    )\n    external\n    onlyOwner\n    {\n        cbltLiquidityMaxAmount = _liquidityLimit;\n    }\n\n    /************ chromium functions ************/\n\n    /*\n     * Pools that i created on rinkeby uniswap\n     * eth (0xc778417E063141139Fce010982780140Aa0cD5Ab) / cblt (0xd39E2AD90DbEFaE11da028B19890d0eE45713780)\n     * cblt (0xd39E2AD90DbEFaE11da028B19890d0eE45713780) / ham (0x1e22E4F74DB4BC6745486Ee3D7ADF2584980DCb2)\n     * if you want to test the call, those pairs will work on rinkeby network\n    */\n    function getExchangeRate(\n        uint256 amountIn,\n        address[] calldata path\n    )\n    public\n    view\n    returns (uint[] memory amounts)\n    {\n        require(path.length == 2, \"Chromium:: incorrect path length\");\n        require(tokenApproval[path[0]].fromTokenActive == true &&\n            tokenApproval[path[1]].destTokenActive == true,\n            \"Chromium:: One token is not active for trade\"\n        );\n        (uint sellTokenValue, uint buyTokenValue, bool success) = oracle.priceOfPair(path[0], path[1]);\n        if (success) {\n            amounts = new uint[](path.length);\n            amounts[0] = amountIn;\n            amountIn = SafeMath.sub(amountIn, SafeMath.mul(amountIn, SafeMath.div(3, 1000)));\n            uint256 returnAmount =\n            SafeMath.mul(\n                amountIn,\n                SafeMath.findRate(sellTokenValue, buyTokenValue)\n            );\n            amounts[1] = returnAmount;\n\n        } else {\n            amountIn = SafeMath.sub(amountIn, SafeMath.mul(amountIn, SafeMath.div(3, 1000)));\n            amounts = uniswap.getAmountsOut(amountIn, path);\n        }\n    }\n\n    /**\n     * @dev this function will swap cblt tokens for tokens that are allowed\n    */\n    function swapTokens(\n        address[] calldata path,\n        uint256 amount\n    )\n    external\n    payable\n    returns(uint)\n    {\n        require(path[0] != address(cbltToken) && path[1] != address(cbltToken), \"Cblt can't be traded with this function\");\n        uint[] memory amounts = getExchangeRate(amount, path);\n\n        if (IERC20(path[0]) == ETH_ADDRESS) {\n            require(msg.value != 0, \"Chromium:: msg.value can not equal 0\");\n            require(tokenLiquidity[path[1]] >= amounts[1], \"Not enough tokens in Treasury.\");\n\n            IERC20(path[0]).universalTransferFromSenderToThis(amount);\n            tokenLiquidity[path[0]] = SafeMath.add(tokenLiquidity[path[0]], amount);\n            IERC20(path[1]).universalTransfer(msg.sender, amounts[1]);\n            tokenLiquidity[path[1]] = SafeMath.sub(tokenLiquidity[path[1]], amounts[1]);\n            emit ChromiumTrade(msg.sender,path[0], path[1], amount, amounts[1]);\n            return amounts[1];\n        } else {\n            require(tokenLiquidity[path[1]] >= amounts[1], \"Chromium:: Not enough tokens in Treasury.\");\n\n            IERC20(path[0]).universalTransferFromSenderToThis(amount);\n            tokenLiquidity[path[0]] = SafeMath.add(tokenLiquidity[path[0]], amount);\n            IERC20(path[1]).universalTransfer(msg.sender, amounts[1]);\n            emit ChromiumTrade(msg.sender, path[0], path[1], amount, amounts[1]);\n            return amounts[1];\n        }\n\n    }\n\n    function swapCblt(\n        address[] calldata path,\n        uint256 amount\n    )\n    external\n    payable\n    returns(uint)\n    {\n        require(path[0] == address(cbltToken), \"Chromium:: fromToken needs to be cbltToken.\");\n        uint[] memory amounts = getExchangeRate(amount, path);\n        require(tokenLiquidity[path[1]] >= amounts[1], \"Not enough tokens in treasury.\");\n\n        cbltToken.universalTransferFromSenderToThis(amount);\n        uint temp = getCbltPool(amount);\n        cbltLiquidity[temp] = SafeMath.add(cbltLiquidity[temp], amount);\n\n        IERC20(path[1]).universalTransfer(msg.sender, amounts[1]);\n        tokenLiquidity[path[1]] = SafeMath.sub(tokenLiquidity[path[1]], amounts[1]);\n        emit ChromiumTrade(msg.sender,path[0], path[1], amount, amounts[1]);\n        return amounts[1];\n    }\n\n    function swapForCblt(\n        address[] calldata path,\n        uint256 amount\n    )\n    external\n    payable\n    returns(uint)\n    {\n        require(path[1] == address(cbltToken), \"Chromium:: destToken needs to be cbltToken.\");\n        uint[] memory amounts = getExchangeRate(amount, path);\n        uint temp = getCbltPool(amounts[1]);\n\n        if (IERC20(path[0]) == ETH_ADDRESS) {\n            require(msg.value != 0, \"Chromium:: msg.value can not equal 0\");\n            require(cbltLiquidity[temp] >= amounts[1], \"Not enough cblt tokens in pool for 1000 and up in Treasury.\");\n\n            IERC20(path[0]).universalTransferFromSenderToThis(amount);\n            tokenLiquidity[path[0]] = SafeMath.add(tokenLiquidity[path[0]], amount);\n\n            cbltLiquidity[temp] = SafeMath.sub(cbltLiquidity[temp], amounts[1]);\n            cbltToken.universalTransfer(msg.sender, amounts[1]);\n            emit ChromiumTrade(msg.sender,path[0], path[1], amount, amounts[1]);\n            return amounts[1];\n        } else {\n            require(cbltLiquidity[temp] >= amounts[1], \"Not enough cblt tokens in pool for 1000 and down in Treasury.\");\n\n            IERC20(path[0]).universalTransferFromSenderToThis(amount);\n            tokenLiquidity[path[0]] = SafeMath.add(tokenLiquidity[path[0]], amount);\n\n            cbltLiquidity[temp] = SafeMath.sub(cbltLiquidity[temp], amounts[1]);\n            cbltToken.universalTransfer(msg.sender, amounts[1]);\n            emit ChromiumTrade(msg.sender,path[0], path[1], amount, amounts[1]);\n            return amounts[1];\n        }\n    }\n\n    function addCbltToPool(\n        uint _poolNumber,\n        uint _amount\n    )\n    external\n    onlyOwner\n    {\n        cbltToken.universalTransferFromSenderToThis(_amount);\n        cbltLiquidity[_poolNumber] = SafeMath.add(cbltLiquidity[_poolNumber], _amount);\n    }\n\n    function addNewTokenToPool(\n        address _token,\n        uint _amount\n    )\n    external\n    {\n        IERC20(_token).universalTransferFromSenderToThis(_amount);\n        tokenLiquidity[_token] = SafeMath.add(tokenLiquidity[_token], _amount);\n        tokenApproval[_token] = TokenInfo(false, false);\n    }\n\n    function retrieveTokens(\n        IERC20 _token,\n        uint amount\n    )\n    external\n    onlyOwner\n    {\n        require(cbltToken != _token, \"Chromium:: can't withdraw CBLT with this function.\");\n        require(amount <= tokenLiquidity[address(_token)], \"Chromium:: not enough tokens in exchange.\");\n        _token.universalTransfer(msg.sender, amount);\n        tokenLiquidity[address(_token)] = SafeMath.sub(tokenLiquidity[address(_token)], amount);\n    }\n\n    function retrieveCBLT(\n        uint liquidityPool,\n        uint amount\n    )\n    external\n    onlyOwner\n    {\n        require(amount <=  cbltLiquidity[liquidityPool], \"Chromium:: not enough CBLT in this liquidity pool.\");\n        cbltToken.universalTransfer(msg.sender, amount);\n        cbltLiquidity[liquidityPool] = SafeMath.sub(cbltLiquidity[liquidityPool], amount);\n    }\n\n    function getCbltPool(\n        uint amount\n    )\n    internal\n    view\n    returns (uint)\n    {\n        if(amount >= cbltLiquidityMaxAmount) {\n            return 1;\n        } else {\n            return 2;\n        }\n    }\n\n    // fallback function\n    receive() external payable {}\n}\n",
  "sourcePath": "/Users/christianroque/Desktop/TungstenGroupProject/contracts/ChromiumV2.sol",
  "compiler": {
    "name": "solc",
    "version": "0.7.6+commit.7338295f.Emscripten.clang"
  },
  "schemaVersion": "3.3.4",
  "updatedAt": "2021-06-08T21:32:52.762Z",
  "devdoc": {
    "kind": "dev",
    "methods": {
      "swapTokens(address[],uint256)": {
        "details": "this function will swap cblt tokens for tokens that are allowed"
      }
    },
    "version": 1
  },
  "userdoc": {
    "kind": "user",
    "methods": {
      "constructor": {
        "notice": "pass in the oracle contract so that it can pull info from it"
      }
    },
    "version": 1
  }
}