{
  "contractName": "Chromium",
  "abi": [
    {
      "inputs": [
        {
          "internalType": "address",
          "name": "_oracle",
          "type": "address"
        },
        {
          "internalType": "address payable",
          "name": "_treasury",
          "type": "address"
        }
      ],
      "stateMutability": "nonpayable",
      "type": "constructor"
    },
    {
      "anonymous": false,
      "inputs": [
        {
          "indexed": true,
          "internalType": "address",
          "name": "_from",
          "type": "address"
        },
        {
          "indexed": false,
          "internalType": "uint256",
          "name": "_amount",
          "type": "uint256"
        }
      ],
      "name": "depositToken",
      "type": "event"
    },
    {
      "anonymous": false,
      "inputs": [
        {
          "indexed": true,
          "internalType": "address",
          "name": "_from",
          "type": "address"
        },
        {
          "indexed": true,
          "internalType": "address",
          "name": "_to",
          "type": "address"
        },
        {
          "indexed": false,
          "internalType": "uint256",
          "name": "_amount",
          "type": "uint256"
        }
      ],
      "name": "onTransfer",
      "type": "event"
    },
    {
      "anonymous": false,
      "inputs": [
        {
          "indexed": true,
          "internalType": "address",
          "name": "_sendingToken",
          "type": "address"
        },
        {
          "indexed": false,
          "internalType": "uint256",
          "name": "_amountSent",
          "type": "uint256"
        },
        {
          "indexed": true,
          "internalType": "address",
          "name": "_receivedToken",
          "type": "address"
        },
        {
          "indexed": false,
          "internalType": "uint256",
          "name": "_amountRecieved",
          "type": "uint256"
        }
      ],
      "name": "tokensExchanged",
      "type": "event"
    },
    {
      "inputs": [
        {
          "internalType": "address",
          "name": "",
          "type": "address"
        }
      ],
      "name": "allowedTokens",
      "outputs": [
        {
          "internalType": "bool",
          "name": "",
          "type": "bool"
        }
      ],
      "stateMutability": "view",
      "type": "function"
    },
    {
      "inputs": [
        {
          "internalType": "address",
          "name": "",
          "type": "address"
        }
      ],
      "name": "balancePerToken",
      "outputs": [
        {
          "internalType": "uint256",
          "name": "",
          "type": "uint256"
        }
      ],
      "stateMutability": "view",
      "type": "function"
    },
    {
      "inputs": [],
      "name": "ethSupply",
      "outputs": [
        {
          "internalType": "uint256",
          "name": "",
          "type": "uint256"
        }
      ],
      "stateMutability": "view",
      "type": "function"
    },
    {
      "stateMutability": "payable",
      "type": "receive"
    },
    {
      "inputs": [
        {
          "internalType": "address",
          "name": "_sellToken",
          "type": "address"
        },
        {
          "internalType": "uint256",
          "name": "_sellAmount",
          "type": "uint256"
        },
        {
          "internalType": "address",
          "name": "_buyToken",
          "type": "address"
        }
      ],
      "name": "exchangeTokens",
      "outputs": [],
      "stateMutability": "payable",
      "type": "function"
    },
    {
      "inputs": [
        {
          "internalType": "address",
          "name": "_sellToken",
          "type": "address"
        },
        {
          "internalType": "uint256",
          "name": "_sellAmount",
          "type": "uint256"
        }
      ],
      "name": "exchangeTokenForEth",
      "outputs": [],
      "stateMutability": "payable",
      "type": "function"
    },
    {
      "inputs": [
        {
          "internalType": "address",
          "name": "_buyToken",
          "type": "address"
        }
      ],
      "name": "exchangeEthForToken",
      "outputs": [],
      "stateMutability": "payable",
      "type": "function"
    },
    {
      "inputs": [
        {
          "internalType": "address",
          "name": "_tokenAddress",
          "type": "address"
        },
        {
          "internalType": "uint256",
          "name": "_tokenAmount",
          "type": "uint256"
        }
      ],
      "name": "addLiquidity",
      "outputs": [],
      "stateMutability": "payable",
      "type": "function"
    },
    {
      "inputs": [],
      "name": "addEthLiquidity",
      "outputs": [],
      "stateMutability": "payable",
      "type": "function"
    },
    {
      "inputs": [
        {
          "internalType": "address",
          "name": "_token",
          "type": "address"
        }
      ],
      "name": "allowToken",
      "outputs": [],
      "stateMutability": "nonpayable",
      "type": "function"
    },
    {
      "inputs": [],
      "name": "testCall",
      "outputs": [
        {
          "internalType": "uint256",
          "name": "value",
          "type": "uint256"
        }
      ],
      "stateMutability": "payable",
      "type": "function"
    }
  ],
  "bytecode": "0x608060405234801561001057600080fd5b5060405161196a38038061196a8339818101604052604081101561003357600080fd5b81019080805190602001909291908051906020019092919050505081600660006101000a81548173ffffffffffffffffffffffffffffffffffffffff021916908373ffffffffffffffffffffffffffffffffffffffff16021790555080600760006101000a81548173ffffffffffffffffffffffffffffffffffffffff021916908373ffffffffffffffffffffffffffffffffffffffff16021790555081600360006101000a81548173ffffffffffffffffffffffffffffffffffffffff021916908373ffffffffffffffffffffffffffffffffffffffff1602179055505050611848806101226000396000f3fe6080604052600436106100955760003560e01c8063acdb359511610059578063acdb3595146101d7578063b53472ef1461021b578063b7f058361461026c578063d5026eba1461028a578063e744092e146102f85761009c565b8063130b6388146100a15780634d6a3cfb146100ab57806356688700146100d657806371d3e8671461012457806377d8f4ee146101895761009c565b3661009c57005b600080fd5b6100a961035f565b005b3480156100b757600080fd5b506100c06103c1565b6040518082815260200191505060405180910390f35b610122600480360360408110156100ec57600080fd5b81019080803573ffffffffffffffffffffffffffffffffffffffff169060200190929190803590602001909291905050506103c7565b005b34801561013057600080fd5b506101736004803603602081101561014757600080fd5b81019080803573ffffffffffffffffffffffffffffffffffffffff1690602001909291905050506107de565b6040518082815260200191505060405180910390f35b6101d56004803603604081101561019f57600080fd5b81019080803573ffffffffffffffffffffffffffffffffffffffff169060200190929190803590602001909291905050506107f6565b005b610219600480360360208110156101ed57600080fd5b81019080803573ffffffffffffffffffffffffffffffffffffffff169060200190929190505050610c22565b005b34801561022757600080fd5b5061026a6004803603602081101561023e57600080fd5b81019080803573ffffffffffffffffffffffffffffffffffffffff169060200190929190505050610f15565b005b610274610f6f565b6040518082815260200191505060405180910390f35b6102f6600480360360608110156102a057600080fd5b81019080803573ffffffffffffffffffffffffffffffffffffffff16906020019092919080359060200190929190803573ffffffffffffffffffffffffffffffffffffffff169060200190929190505050611112565b005b34801561030457600080fd5b506103476004803603602081101561031b57600080fd5b81019080803573ffffffffffffffffffffffffffffffffffffffff16906020019092919050505061176f565b60405180821515815260200191505060405180910390f35b61036b6002543461178f565b6002819055503373ffffffffffffffffffffffffffffffffffffffff167f338b5dea92b406e11ffb4934504fc21da82d56b24fb3a4f40a176da9186a0d47346040518082815260200191505060405180910390a2565b60025481565b60011515600160008473ffffffffffffffffffffffffffffffffffffffff1673ffffffffffffffffffffffffffffffffffffffff16815260200190815260200160002060009054906101000a900460ff1615151461048d576040517f08c379a00000000000000000000000000000000000000000000000000000000081526004018080602001828103825260168152602001807f546f6b656e206973206e6f7420737570706f727465640000000000000000000081525060200191505060405180910390fd5b81600560006101000a81548173ffffffffffffffffffffffffffffffffffffffff021916908373ffffffffffffffffffffffffffffffffffffffff160217905550600560009054906101000a900473ffffffffffffffffffffffffffffffffffffffff1673ffffffffffffffffffffffffffffffffffffffff1663095ea7b330836040518363ffffffff1660e01b8152600401808373ffffffffffffffffffffffffffffffffffffffff16815260200182815260200192505050602060405180830381600087803b15801561056157600080fd5b505af1158015610575573d6000803e3d6000fd5b505050506040513d602081101561058b57600080fd5b8101908080519060200190929190505050506105e56000808473ffffffffffffffffffffffffffffffffffffffff1673ffffffffffffffffffffffffffffffffffffffff168152602001908152602001600020548261178f565b6000808473ffffffffffffffffffffffffffffffffffffffff1673ffffffffffffffffffffffffffffffffffffffff1681526020019081526020016000208190555060011515600560009054906101000a900473ffffffffffffffffffffffffffffffffffffffff1673ffffffffffffffffffffffffffffffffffffffff166323b872dd3330856040518463ffffffff1660e01b8152600401808473ffffffffffffffffffffffffffffffffffffffff1681526020018373ffffffffffffffffffffffffffffffffffffffff1681526020018281526020019350505050602060405180830381600087803b1580156106dc57600080fd5b505af11580156106f0573d6000803e3d6000fd5b505050506040513d602081101561070657600080fd5b810190808051906020019092919050505015151461078c576040517f08c379a00000000000000000000000000000000000000000000000000000000081526004018080602001828103825260158152602001807f5472616e73666572206e6f7420636f6d706c657465000000000000000000000081525060200191505060405180910390fd5b3373ffffffffffffffffffffffffffffffffffffffff167f338b5dea92b406e11ffb4934504fc21da82d56b24fb3a4f40a176da9186a0d47826040518082815260200191505060405180910390a25050565b60006020528060005260406000206000915090505481565b60006109928261098d600660009054906101000a900473ffffffffffffffffffffffffffffffffffffffff1673ffffffffffffffffffffffffffffffffffffffff16633ccc0522876040518263ffffffff1660e01b8152600401808273ffffffffffffffffffffffffffffffffffffffff16815260200191505060206040518083038186803b15801561088857600080fd5b505afa15801561089c573d6000803e3d6000fd5b505050506040513d60208110156108b257600080fd5b8101908080519060200190929190505050600660009054906101000a900473ffffffffffffffffffffffffffffffffffffffff1673ffffffffffffffffffffffffffffffffffffffff16633ccc052260006040518263ffffffff1660e01b8152600401808273ffffffffffffffffffffffffffffffffffffffff16815260200191505060206040518083038186803b15801561094d57600080fd5b505afa158015610961573d6000803e3d6000fd5b505050506040513d602081101561097757600080fd5b81019080805190602001909291905050506117ab565b6117c4565b9050600254811115610a0c576040517f08c379a000000000000000000000000000000000000000000000000000000000815260040180806020018281038252601c8152602001807f596f7520646f6e2774206861766520656e6f75676820746f6b656e730000000081525060200191505060405180910390fd5b610a546000808573ffffffffffffffffffffffffffffffffffffffff1673ffffffffffffffffffffffffffffffffffffffff168152602001908152602001600020548361178f565b6000808573ffffffffffffffffffffffffffffffffffffffff1673ffffffffffffffffffffffffffffffffffffffff16815260200190815260200160002081905550610aa2600254826117fb565b60028190555082600560006101000a81548173ffffffffffffffffffffffffffffffffffffffff021916908373ffffffffffffffffffffffffffffffffffffffff160217905550600560009054906101000a900473ffffffffffffffffffffffffffffffffffffffff1673ffffffffffffffffffffffffffffffffffffffff166323b872dd3330856040518463ffffffff1660e01b8152600401808473ffffffffffffffffffffffffffffffffffffffff1681526020018373ffffffffffffffffffffffffffffffffffffffff1681526020018281526020019350505050602060405180830381600087803b158015610b9a57600080fd5b505af1158015610bae573d6000803e3d6000fd5b505050506040513d6020811015610bc457600080fd5b8101908080519060200190929190505050503373ffffffffffffffffffffffffffffffffffffffff166108fc829081150290604051600060405180830381858888f19350505050158015610c1c573d6000803e3d6000fd5b50505050565b6000610cfa34610cf534600660009054906101000a900473ffffffffffffffffffffffffffffffffffffffff1673ffffffffffffffffffffffffffffffffffffffff16633ccc0522876040518263ffffffff1660e01b8152600401808273ffffffffffffffffffffffffffffffffffffffff16815260200191505060206040518083038186803b158015610cb557600080fd5b505afa158015610cc9573d6000803e3d6000fd5b505050506040513d6020811015610cdf57600080fd5b81019080805190602001909291905050506117ab565b6117c4565b90506000808373ffffffffffffffffffffffffffffffffffffffff1673ffffffffffffffffffffffffffffffffffffffff16815260200190815260200160002054811115610d4757600080fd5b610d8f6000808473ffffffffffffffffffffffffffffffffffffffff1673ffffffffffffffffffffffffffffffffffffffff16815260200190815260200160002054826117fb565b6000808473ffffffffffffffffffffffffffffffffffffffff1673ffffffffffffffffffffffffffffffffffffffff16815260200190815260200160002081905550610ddd6002543461178f565b60028190555081600460006101000a81548173ffffffffffffffffffffffffffffffffffffffff021916908373ffffffffffffffffffffffffffffffffffffffff160217905550600460009054906101000a900473ffffffffffffffffffffffffffffffffffffffff1673ffffffffffffffffffffffffffffffffffffffff166323b872dd3033846040518463ffffffff1660e01b8152600401808473ffffffffffffffffffffffffffffffffffffffff1681526020018373ffffffffffffffffffffffffffffffffffffffff1681526020018281526020019350505050602060405180830381600087803b158015610ed557600080fd5b505af1158015610ee9573d6000803e3d6000fd5b505050506040513d6020811015610eff57600080fd5b8101908080519060200190929190505050505050565b60018060008373ffffffffffffffffffffffffffffffffffffffff1673ffffffffffffffffffffffffffffffffffffffff16815260200190815260200160002060006101000a81548160ff02191690831515021790555050565b6000806000600360009054906101000a900473ffffffffffffffffffffffffffffffffffffffff1673ffffffffffffffffffffffffffffffffffffffff166040516024016040516020818303038152906040527f3412a15c000000000000000000000000000000000000000000000000000000007bffffffffffffffffffffffffffffffffffffffffffffffffffffffff19166020820180517bffffffffffffffffffffffffffffffffffffffffffffffffffffffff83818316178352505050506040518082805190602001908083835b602083106110635780518252602082019150602081019050602083039250611040565b6001836020036101000a0380198251168184511680821785525050505050509050019150506000604051808303816000865af19150503d80600081146110c5576040519150601f19603f3d011682016040523d82523d6000602084013e6110ca565b606091505b50915091506000808280602001905160408110156110e757600080fd5b8101908080519060200190929190805190602001909291905050509150915080820194505050505090565b600080600360009054906101000a900473ffffffffffffffffffffffffffffffffffffffff1673ffffffffffffffffffffffffffffffffffffffff168584604051602401808373ffffffffffffffffffffffffffffffffffffffff1681526020018273ffffffffffffffffffffffffffffffffffffffff168152602001925050506040516020818303038152906040527f3a7a2a06000000000000000000000000000000000000000000000000000000007bffffffffffffffffffffffffffffffffffffffffffffffffffffffff19166020820180517bffffffffffffffffffffffffffffffffffffffffffffffffffffffff83818316178352505050506040518082805190602001908083835b602083106112435780518252602082019150602081019050602083039250611220565b6001836020036101000a0380198251168184511680821785525050505050509050019150506000604051808303816000865af19150503d80600081146112a5576040519150601f19603f3d011682016040523d82523d6000602084013e6112aa565b606091505b50915091506000808280602001905160408110156112c757600080fd5b8101908080519060200190929190805190602001909291905050509150915060006112fb876112f685856117ab565b6117c4565b9050600760009054906101000a900473ffffffffffffffffffffffffffffffffffffffff1673ffffffffffffffffffffffffffffffffffffffff16632c2332fe876040518263ffffffff1660e01b8152600401808273ffffffffffffffffffffffffffffffffffffffff16815260200191505060206040518083038186803b15801561138657600080fd5b505afa15801561139a573d6000803e3d6000fd5b505050506040513d60208110156113b057600080fd5b81019080805190602001909291905050508111156113cd57600080fd5b87600560006101000a81548173ffffffffffffffffffffffffffffffffffffffff021916908373ffffffffffffffffffffffffffffffffffffffff160217905550600560009054906101000a900473ffffffffffffffffffffffffffffffffffffffff1673ffffffffffffffffffffffffffffffffffffffff1663095ea7b330896040518363ffffffff1660e01b8152600401808373ffffffffffffffffffffffffffffffffffffffff16815260200182815260200192505050602060405180830381600087803b1580156114a157600080fd5b505af11580156114b5573d6000803e3d6000fd5b505050506040513d60208110156114cb57600080fd5b810190808051906020019092919050505050600560009054906101000a900473ffffffffffffffffffffffffffffffffffffffff1673ffffffffffffffffffffffffffffffffffffffff166323b872dd33308a6040518463ffffffff1660e01b8152600401808473ffffffffffffffffffffffffffffffffffffffff1681526020018373ffffffffffffffffffffffffffffffffffffffff1681526020018281526020019350505050602060405180830381600087803b15801561158e57600080fd5b505af11580156115a2573d6000803e3d6000fd5b505050506040513d60208110156115b857600080fd5b81019080805190602001909291905050505085600460006101000a81548173ffffffffffffffffffffffffffffffffffffffff021916908373ffffffffffffffffffffffffffffffffffffffff160217905550600460009054906101000a900473ffffffffffffffffffffffffffffffffffffffff1673ffffffffffffffffffffffffffffffffffffffff166323b872dd3033846040518463ffffffff1660e01b8152600401808473ffffffffffffffffffffffffffffffffffffffff1681526020018373ffffffffffffffffffffffffffffffffffffffff1681526020018281526020019350505050602060405180830381600087803b1580156116bc57600080fd5b505af11580156116d0573d6000803e3d6000fd5b505050506040513d60208110156116e657600080fd5b8101908080519060200190929190505050508573ffffffffffffffffffffffffffffffffffffffff168873ffffffffffffffffffffffffffffffffffffffff167fd67ebc225fb5fd7330b434da891f71da6862048a169bd955dc712ddcf75c27528984604051808381526020018281526020019250505060405180910390a35050505050505050565b60016020528060005260406000206000915054906101000a900460ff1681565b6000808284019050838110156117a157fe5b8091505092915050565b6000808284816117b757fe5b0490508091505092915050565b6000808314156117d757600090506117f5565b60008284029050828482816117e857fe5b04146117f057fe5b809150505b92915050565b60008282111561180757fe5b81830390509291505056fea2646970667358221220f6751c17ac10456673bc2fcf0121cd0eb49174bb44a7d646b3a3077fa0a9afef64736f6c63430007060033",
  "immutableReferences": {},
  "source": "// SPDX-License-Identifier: MIT\npragma solidity >=0.4.22 <0.9.0;\n\nimport \"./ERC20.sol\";\nimport \"./ExchangeOracle.sol\";\nimport \"./SafeMath.sol\";\nimport \"./Bank.sol\";\n\ncontract Chromium {\n    mapping(address => uint256) public balancePerToken;\n    mapping(address => bool) public allowedTokens; // tokens that are allowed to be exchanged\n    uint256 public ethSupply; // amount of eth in contract\n    address oracleAddress;\n\n    ERC20 buyToken;\n    ERC20 sellToken;\n    ExchangeOracle oracle;\n    Bank treasury;\n\n    event depositToken(address indexed _from, uint256 _amount);\n    event onTransfer(\n        address indexed _from,\n        address indexed _to,\n        uint256 _amount\n    );\n    event tokensExchanged(\n        address indexed _sendingToken,\n        uint256 _amountSent,\n        address indexed _receivedToken,\n        uint256 _amountRecieved\n    );\n\n    /**\n     * pass in the oracle contract so that it can pull info from it\n     */\n    constructor(address _oracle, address payable _treasury) {\n        oracle = ExchangeOracle(_oracle);\n        treasury = Bank(_treasury);\n        oracleAddress = _oracle;\n    }\n\n    /**\n     * @dev function that will exchange erc20 tokens\n     * @param _sellToken the token that the user wants to sell/trade\n     * @param _sellAmount amount of tokens to be sold\n     * @param _buyToken the token that is going to be purchased\n     * you need to enter the rate of each token in the oracle and then function will do the calculations\n     */\n    function exchangeTokens(\n        address _sellToken,\n        uint256 _sellAmount,\n        address _buyToken\n    ) external payable {\n        // pulls the price of both tokens from an oracle using call without abi\n        (bool result, bytes memory data) =\n            oracleAddress.call(\n                abi.encodeWithSignature(\n                    \"priceOfPair(address,address)\",\n                    _sellToken,\n                    _buyToken\n                )\n            );\n        // Decode bytes data\n        (uint256 sellTokenValue, uint256 buyTokenValue) =\n            abi.decode(data, (uint256, uint256));\n\n        //Calculate tokens bought\n        uint256 buyingAmount =\n            SafeMath.mul(\n                _sellAmount,\n                SafeMath.div(sellTokenValue, buyTokenValue)\n            );\n\n        // checks to see if there are enough tokens in the contract to make the exchange\n        require(buyingAmount <= treasury.totalTokenSupply(_buyToken));\n\n        sellToken = ERC20(address(_sellToken));\n        sellToken.approve(address(this), _sellAmount);\n        sellToken.transferFrom(msg.sender, address(this), _sellAmount);\n\n        buyToken = ERC20(address(_buyToken));\n        buyToken.transferFrom(address(this), msg.sender, buyingAmount);\n\n        emit tokensExchanged(_sellToken, _sellAmount, _buyToken, buyingAmount);\n    }\n\n    /**\n     * @dev function that will exchange erc20 tokens for eth\n     * @param _sellToken the token that you want to exchange/sell\n     * @param _sellAmount amount of tokens that will be sold\n     */\n    function exchangeTokenForEth(address _sellToken, uint256 _sellAmount)\n        external\n        payable\n    {\n        uint256 ethAmount =\n            SafeMath.mul(\n                _sellAmount,\n                SafeMath.div(\n                    oracle.getValue(_sellToken),\n                    oracle.getValue(0x0000000000000000000000000000000000000000)\n                )\n            );\n\n        // checks to see if the contract has enough eth\n        require(ethAmount <= ethSupply, \"You don't have enough tokens\");\n        balancePerToken[_sellToken] = SafeMath.add(\n            balancePerToken[_sellToken],\n            _sellAmount\n        );\n        ethSupply = SafeMath.sub(ethSupply, ethAmount);\n\n        sellToken = ERC20(address(_sellToken));\n        sellToken.transferFrom(msg.sender, address(this), _sellAmount);\n\n        // have to wrate msg.sender in payable to make it payable\n        payable(msg.sender).transfer(ethAmount);\n    }\n\n    /**\n     * @dev function that will exchange eth for erc20 tokens\n     * @param _buyToken the token that you want to buy\n     */\n    function exchangeEthForToken(address _buyToken) external payable {\n        uint256 tokenAmount =\n            SafeMath.mul(\n                msg.value,\n                SafeMath.div(msg.value, oracle.getValue(_buyToken))\n            );\n\n        // checks to see if there are enough tokens in contract to make exchange\n        require(tokenAmount <= balancePerToken[_buyToken]);\n        balancePerToken[_buyToken] = SafeMath.sub(\n            balancePerToken[_buyToken],\n            tokenAmount\n        );\n        ethSupply = SafeMath.add(ethSupply, msg.value);\n\n        buyToken = ERC20(address(_buyToken));\n        buyToken.transferFrom(address(this), msg.sender, tokenAmount);\n    }\n\n    /**\n     * @dev this will accept erc20 tokens to be added to the contracts liquidity pool\n     */\n    function addLiquidity(address _tokenAddress, uint256 _tokenAmount)\n        external\n        payable\n    {\n        //Check if token is not supported by bank\n        require(allowedTokens[_tokenAddress] == true, \"Token is not supported\");\n        sellToken = ERC20(address(_tokenAddress));\n        sellToken.approve(address(this), _tokenAmount);\n\n        balancePerToken[_tokenAddress] = SafeMath.add(\n            balancePerToken[_tokenAddress],\n            _tokenAmount\n        );\n\n        require(\n            sellToken.transferFrom(msg.sender, address(this), _tokenAmount) ==\n                true,\n            \"Transfer not complete\"\n        );\n\n        emit depositToken(msg.sender, _tokenAmount);\n    }\n\n    /**\n     * @dev allows for eth to be deposited into liquidity pool\n     */\n    function addEthLiquidity() external payable {\n        ethSupply = SafeMath.add(ethSupply, msg.value);\n\n        emit depositToken(msg.sender, msg.value);\n    }\n\n    /**\n     * @dev allows for tokens to be added to the exchange\n     * this needs to be done before adding any liquidity for the token\n     */\n    function allowToken(address _token) public {\n        allowedTokens[_token] = true;\n    }\n\n    function testCall() public payable returns (uint256 value) {\n        (bool result, bytes memory data) =\n            oracleAddress.call(abi.encodeWithSignature(\"testConnection()\"));\n\n        (uint256 sellTokenValue, uint256 buyTokenValue) =\n            abi.decode(data, (uint256, uint256));\n        return sellTokenValue + buyTokenValue;\n    }\n\n    // fallback function\n    receive() external payable {}\n}\n",
  "sourcePath": "/Users/christianroque/Desktop/solidity-playground/contracts/Chromium.sol",
  "compiler": {
    "name": "solc",
    "version": "0.7.6+commit.7338295f.Emscripten.clang"
  },
  "schemaVersion": "3.3.4",
  "updatedAt": "2021-04-03T05:23:34.336Z",
  "devdoc": {
    "kind": "dev",
    "methods": {
      "addEthLiquidity()": {
        "details": "allows for eth to be deposited into liquidity pool"
      },
      "addLiquidity(address,uint256)": {
        "details": "this will accept erc20 tokens to be added to the contracts liquidity pool"
      },
      "allowToken(address)": {
        "details": "allows for tokens to be added to the exchange this needs to be done before adding any liquidity for the token"
      },
      "exchangeEthForToken(address)": {
        "details": "function that will exchange eth for erc20 tokens",
        "params": {
          "_buyToken": "the token that you want to buy"
        }
      },
      "exchangeTokenForEth(address,uint256)": {
        "details": "function that will exchange erc20 tokens for eth",
        "params": {
          "_sellAmount": "amount of tokens that will be sold",
          "_sellToken": "the token that you want to exchange/sell"
        }
      },
      "exchangeTokens(address,uint256,address)": {
        "details": "function that will exchange erc20 tokens",
        "params": {
          "_buyToken": "the token that is going to be purchased you need to enter the rate of each token in the oracle and then function will do the calculations",
          "_sellAmount": "amount of tokens to be sold",
          "_sellToken": "the token that the user wants to sell/trade"
        }
      }
    },
    "version": 1
  },
  "userdoc": {
    "kind": "user",
    "methods": {
      "constructor": {
        "notice": "pass in the oracle contract so that it can pull info from it"
      }
    },
    "version": 1
  }
}