{
  "contractName": "Chromium",
  "abi": [
    {
      "inputs": [
        {
          "internalType": "address",
          "name": "_oracle",
          "type": "address"
        },
        {
          "internalType": "address payable",
          "name": "_treasury",
          "type": "address"
        }
      ],
      "stateMutability": "nonpayable",
      "type": "constructor"
    },
    {
      "anonymous": false,
      "inputs": [
        {
          "indexed": true,
          "internalType": "address",
          "name": "_from",
          "type": "address"
        },
        {
          "indexed": false,
          "internalType": "uint256",
          "name": "_amount",
          "type": "uint256"
        }
      ],
      "name": "depositToken",
      "type": "event"
    },
    {
      "anonymous": false,
      "inputs": [
        {
          "indexed": true,
          "internalType": "address",
          "name": "_from",
          "type": "address"
        },
        {
          "indexed": true,
          "internalType": "address",
          "name": "_to",
          "type": "address"
        },
        {
          "indexed": false,
          "internalType": "uint256",
          "name": "_amount",
          "type": "uint256"
        }
      ],
      "name": "onTransfer",
      "type": "event"
    },
    {
      "anonymous": false,
      "inputs": [
        {
          "indexed": true,
          "internalType": "address",
          "name": "_sendingToken",
          "type": "address"
        },
        {
          "indexed": false,
          "internalType": "uint256",
          "name": "_amountSent",
          "type": "uint256"
        },
        {
          "indexed": true,
          "internalType": "address",
          "name": "_receivedToken",
          "type": "address"
        },
        {
          "indexed": false,
          "internalType": "uint256",
          "name": "_amountRecieved",
          "type": "uint256"
        }
      ],
      "name": "tokensExchanged",
      "type": "event"
    },
    {
      "inputs": [
        {
          "internalType": "contract IERC20",
          "name": "",
          "type": "address"
        }
      ],
      "name": "allowedTokens",
      "outputs": [
        {
          "internalType": "bool",
          "name": "",
          "type": "bool"
        }
      ],
      "stateMutability": "view",
      "type": "function"
    },
    {
      "inputs": [
        {
          "internalType": "contract IERC20",
          "name": "",
          "type": "address"
        }
      ],
      "name": "balancePerToken",
      "outputs": [
        {
          "internalType": "uint256",
          "name": "",
          "type": "uint256"
        }
      ],
      "stateMutability": "view",
      "type": "function"
    },
    {
      "inputs": [],
      "name": "oneSplitImpl",
      "outputs": [
        {
          "internalType": "contract IOneSplit",
          "name": "",
          "type": "address"
        }
      ],
      "stateMutability": "view",
      "type": "function"
    },
    {
      "stateMutability": "payable",
      "type": "receive"
    },
    {
      "inputs": [
        {
          "internalType": "contract IOneSplit",
          "name": "_oneAuditImpl",
          "type": "address"
        }
      ],
      "name": "setOneProtocol",
      "outputs": [],
      "stateMutability": "nonpayable",
      "type": "function"
    },
    {
      "inputs": [
        {
          "internalType": "contract IERC20",
          "name": "fromToken",
          "type": "address"
        },
        {
          "internalType": "contract IERC20",
          "name": "destToken",
          "type": "address"
        },
        {
          "internalType": "uint256",
          "name": "amount",
          "type": "uint256"
        },
        {
          "internalType": "uint256",
          "name": "parts",
          "type": "uint256"
        },
        {
          "internalType": "uint256",
          "name": "flags",
          "type": "uint256"
        }
      ],
      "name": "getExpectedReturnWithGas",
      "outputs": [
        {
          "internalType": "uint256",
          "name": "returnAmount",
          "type": "uint256"
        },
        {
          "internalType": "uint256",
          "name": "estimateGasAmount",
          "type": "uint256"
        },
        {
          "internalType": "uint256[]",
          "name": "distribution",
          "type": "uint256[]"
        }
      ],
      "stateMutability": "view",
      "type": "function"
    },
    {
      "inputs": [
        {
          "internalType": "contract IERC20",
          "name": "_sellToken",
          "type": "address"
        },
        {
          "internalType": "contract IERC20",
          "name": "_buyToken",
          "type": "address"
        },
        {
          "internalType": "uint256",
          "name": "_sellAmount",
          "type": "uint256"
        },
        {
          "internalType": "uint256",
          "name": "_minReturn",
          "type": "uint256"
        },
        {
          "internalType": "uint256[]",
          "name": "distribution",
          "type": "uint256[]"
        },
        {
          "internalType": "uint256",
          "name": "flags",
          "type": "uint256"
        }
      ],
      "name": "exchangeTokens",
      "outputs": [
        {
          "internalType": "uint256",
          "name": "_amountReturned",
          "type": "uint256"
        }
      ],
      "stateMutability": "payable",
      "type": "function"
    },
    {
      "inputs": [
        {
          "internalType": "contract IERC20",
          "name": "_token",
          "type": "address"
        },
        {
          "internalType": "uint256",
          "name": "_tokenAmount",
          "type": "uint256"
        }
      ],
      "name": "addLiquidity",
      "outputs": [],
      "stateMutability": "payable",
      "type": "function"
    },
    {
      "inputs": [
        {
          "internalType": "contract IERC20",
          "name": "_token",
          "type": "address"
        }
      ],
      "name": "_allowToken",
      "outputs": [],
      "stateMutability": "nonpayable",
      "type": "function"
    },
    {
      "inputs": [],
      "name": "testCall",
      "outputs": [
        {
          "internalType": "uint256",
          "name": "value",
          "type": "uint256"
        }
      ],
      "stateMutability": "payable",
      "type": "function"
    }
  ],
  "bytecode": "0x608060405234801561001057600080fd5b50604051611b52380380611b528339818101604052604081101561003357600080fd5b81019080805190602001909291908051906020019092919050505081600460006101000a81548173ffffffffffffffffffffffffffffffffffffffff021916908373ffffffffffffffffffffffffffffffffffffffff16021790555080600360006101000a81548173ffffffffffffffffffffffffffffffffffffffff021916908373ffffffffffffffffffffffffffffffffffffffff16021790555081600260006101000a81548173ffffffffffffffffffffffffffffffffffffffff021916908373ffffffffffffffffffffffffffffffffffffffff1602179055505050611a30806101226000396000f3fe60806040526004361061008a5760003560e01c8063867807ca11610059578063867807ca146101eb578063b7f058361461022c578063d0ba4a1c1461024a578063e3d46b131461033c578063e744092e1461046657610091565b806356688700146100965780636e2daae1146100e457806371d3e8671461013557806381daabc81461019a57610091565b3661009157005b600080fd5b6100e2600480360360408110156100ac57600080fd5b81019080803573ffffffffffffffffffffffffffffffffffffffff169060200190929190803590602001909291905050506104cd565b005b3480156100f057600080fd5b506101336004803603602081101561010757600080fd5b81019080803573ffffffffffffffffffffffffffffffffffffffff169060200190929190505050610749565b005b34801561014157600080fd5b506101846004803603602081101561015857600080fd5b81019080803573ffffffffffffffffffffffffffffffffffffffff16906020019092919050505061078d565b6040518082815260200191505060405180910390f35b3480156101a657600080fd5b506101e9600480360360208110156101bd57600080fd5b81019080803573ffffffffffffffffffffffffffffffffffffffff1690602001909291905050506107a5565b005b3480156101f757600080fd5b506102006107ff565b604051808273ffffffffffffffffffffffffffffffffffffffff16815260200191505060405180910390f35b610234610825565b6040518082815260200191505060405180910390f35b34801561025657600080fd5b506102d7600480360360a081101561026d57600080fd5b81019080803573ffffffffffffffffffffffffffffffffffffffff169060200190929190803573ffffffffffffffffffffffffffffffffffffffff1690602001909291908035906020019092919080359060200190929190803590602001909291905050506109c8565b6040518084815260200183815260200180602001828103825283818151815260200191508051906020019060200280838360005b8381101561032657808201518184015260208101905061030b565b5050505090500194505050505060405180910390f35b610450600480360360c081101561035257600080fd5b81019080803573ffffffffffffffffffffffffffffffffffffffff169060200190929190803573ffffffffffffffffffffffffffffffffffffffff1690602001909291908035906020019092919080359060200190929190803590602001906401000000008111156103c357600080fd5b8201836020820111156103d557600080fd5b803590602001918460208302840111640100000000831117156103f757600080fd5b919080806020026020016040519081016040528093929190818152602001838360200280828437600081840152601f19601f82011690508083019250505050505050919291929080359060200190929190505050610b8f565b6040518082815260200191505060405180910390f35b34801561047257600080fd5b506104b56004803603602081101561048957600080fd5b81019080803573ffffffffffffffffffffffffffffffffffffffff169060200190929190505050611034565b60405180821515815260200191505060405180910390f35b60011515600160008473ffffffffffffffffffffffffffffffffffffffff1673ffffffffffffffffffffffffffffffffffffffff16815260200190815260200160002060009054906101000a900460ff16151514610593576040517f08c379a00000000000000000000000000000000000000000000000000000000081526004018080602001828103825260168152602001807f546f6b656e206973206e6f7420737570706f727465640000000000000000000081525060200191505060405180910390fd5b8173ffffffffffffffffffffffffffffffffffffffff1663095ea7b330836040518363ffffffff1660e01b8152600401808373ffffffffffffffffffffffffffffffffffffffff16815260200182815260200192505050602060405180830381600087803b15801561060457600080fd5b505af1158015610618573d6000803e3d6000fd5b505050506040513d602081101561062e57600080fd5b8101908080519060200190929190505050506106886000808473ffffffffffffffffffffffffffffffffffffffff1673ffffffffffffffffffffffffffffffffffffffff1681526020019081526020016000205482611054565b6000808473ffffffffffffffffffffffffffffffffffffffff1673ffffffffffffffffffffffffffffffffffffffff168152602001908152602001600020819055506106f73330838573ffffffffffffffffffffffffffffffffffffffff16611070909392919063ffffffff16565b3373ffffffffffffffffffffffffffffffffffffffff167f338b5dea92b406e11ffb4934504fc21da82d56b24fb3a4f40a176da9186a0d47826040518082815260200191505060405180910390a25050565b80600560006101000a81548173ffffffffffffffffffffffffffffffffffffffff021916908373ffffffffffffffffffffffffffffffffffffffff16021790555050565b60006020528060005260406000206000915090505481565b60018060008373ffffffffffffffffffffffffffffffffffffffff1673ffffffffffffffffffffffffffffffffffffffff16815260200190815260200160002060006101000a81548160ff02191690831515021790555050565b600560009054906101000a900473ffffffffffffffffffffffffffffffffffffffff1681565b6000806000600260009054906101000a900473ffffffffffffffffffffffffffffffffffffffff1673ffffffffffffffffffffffffffffffffffffffff166040516024016040516020818303038152906040527f3412a15c000000000000000000000000000000000000000000000000000000007bffffffffffffffffffffffffffffffffffffffffffffffffffffffff19166020820180517bffffffffffffffffffffffffffffffffffffffffffffffffffffffff83818316178352505050506040518082805190602001908083835b6020831061091957805182526020820191506020810190506020830392506108f6565b6001836020036101000a0380198251168184511680821785525050505050509050019150506000604051808303816000865af19150503d806000811461097b576040519150601f19603f3d011682016040523d82523d6000602084013e610980565b606091505b509150915060008082806020019051604081101561099d57600080fd5b8101908080519060200190929190805190602001909291905050509150915080820194505050505090565b6000806060600560009054906101000a900473ffffffffffffffffffffffffffffffffffffffff1673ffffffffffffffffffffffffffffffffffffffff16638373f265898989898960006040518763ffffffff1660e01b8152600401808773ffffffffffffffffffffffffffffffffffffffff1681526020018673ffffffffffffffffffffffffffffffffffffffff168152602001858152602001848152602001838152602001828152602001965050505050505060006040518083038186803b158015610a9557600080fd5b505afa158015610aa9573d6000803e3d6000fd5b505050506040513d6000823e3d601f19601f820116820180604052506060811015610ad357600080fd5b81019080805190602001909291908051906020019092919080516040519392919084640100000000821115610b0757600080fd5b83820191506020820185811115610b1d57600080fd5b8251866020820283011164010000000082111715610b3a57600080fd5b8083526020830192505050908051906020019060200280838360005b83811015610b71578082015181840152602081019050610b56565b50505050905001604052505050925092509250955095509592505050565b6000610b9c878787611233565b15610e7557600360009054906101000a900473ffffffffffffffffffffffffffffffffffffffff1673ffffffffffffffffffffffffffffffffffffffff16632c2332fe876040518263ffffffff1660e01b8152600401808273ffffffffffffffffffffffffffffffffffffffff16815260200191505060206040518083038186803b158015610c2a57600080fd5b505afa158015610c3e573d6000803e3d6000fd5b505050506040513d6020811015610c5457600080fd5b8101908080519060200190929190505050841115610c7157600080fd5b610cc033600360009054906101000a900473ffffffffffffffffffffffffffffffffffffffff16878a73ffffffffffffffffffffffffffffffffffffffff16611070909392919063ffffffff16565b610d086000808973ffffffffffffffffffffffffffffffffffffffff1673ffffffffffffffffffffffffffffffffffffffff1681526020019081526020016000205486611054565b6000808973ffffffffffffffffffffffffffffffffffffffff1673ffffffffffffffffffffffffffffffffffffffff16815260200190815260200160002081905550610d7533858873ffffffffffffffffffffffffffffffffffffffff1661134d9092919063ffffffff16565b50610dbe6000808873ffffffffffffffffffffffffffffffffffffffff1673ffffffffffffffffffffffffffffffffffffffff16815260200190815260200160002054856113f5565b6000808873ffffffffffffffffffffffffffffffffffffffff1673ffffffffffffffffffffffffffffffffffffffff168152602001908152602001600020819055508573ffffffffffffffffffffffffffffffffffffffff168773ffffffffffffffffffffffffffffffffffffffff167fd67ebc225fb5fd7330b434da891f71da6862048a169bd955dc712ddcf75c27528787604051808381526020018281526020019250505060405180910390a383905061102a565b600560009054906101000a900473ffffffffffffffffffffffffffffffffffffffff1673ffffffffffffffffffffffffffffffffffffffff1663e2a7515e8888888888886040518763ffffffff1660e01b8152600401808773ffffffffffffffffffffffffffffffffffffffff1681526020018673ffffffffffffffffffffffffffffffffffffffff16815260200185815260200184815260200180602001838152602001828103825284818151815260200191508051906020019060200280838360005b83811015610f55578082015181840152602081019050610f3a565b50505050905001975050505050505050602060405180830381600087803b158015610f7f57600080fd5b505af1158015610f93573d6000803e3d6000fd5b505050506040513d6020811015610fa957600080fd5b810190808051906020019092919050505090508573ffffffffffffffffffffffffffffffffffffffff168773ffffffffffffffffffffffffffffffffffffffff167fd67ebc225fb5fd7330b434da891f71da6862048a169bd955dc712ddcf75c27528787604051808381526020018281526020019250505060405180910390a35b9695505050505050565b60016020528060005260406000206000915054906101000a900460ff1681565b60008082840190508381101561106657fe5b8091505092915050565b600081141561107e5761122d565b6110878461140c565b156111fe573373ffffffffffffffffffffffffffffffffffffffff168373ffffffffffffffffffffffffffffffffffffffff161480156110c75750803410155b61111c576040517f08c379a000000000000000000000000000000000000000000000000000000000815260040180806020018281038252602b8152602001806119a6602b913960400191505060405180910390fd5b3073ffffffffffffffffffffffffffffffffffffffff168273ffffffffffffffffffffffffffffffffffffffff1614611197578173ffffffffffffffffffffffffffffffffffffffff166108fc829081150290604051600060405180830381858888f19350505050158015611195573d6000803e3d6000fd5b505b803411156111f9573373ffffffffffffffffffffffffffffffffffffffff166108fc6111cc83346113f590919063ffffffff16565b9081150290604051600060405180830381858888f193505050501580156111f7573d6000803e3d6000fd5b505b61122c565b61122b8383838773ffffffffffffffffffffffffffffffffffffffff1661148e909392919063ffffffff16565b5b5b50505050565b600060011515600160008673ffffffffffffffffffffffffffffffffffffffff1673ffffffffffffffffffffffffffffffffffffffff16815260200190815260200160002060009054906101000a900460ff1615151480156112e5575060011515600160008573ffffffffffffffffffffffffffffffffffffffff1673ffffffffffffffffffffffffffffffffffffffff16815260200190815260200160002060009054906101000a900460ff161515145b1561134157816000808573ffffffffffffffffffffffffffffffffffffffff1673ffffffffffffffffffffffffffffffffffffffff16815260200190815260200160002054106113385760019050611346565b60009050611346565b600090505b9392505050565b60008082141561136057600190506113ee565b6113698461140c565b156113be578273ffffffffffffffffffffffffffffffffffffffff166108fc839081150290604051600060405180830381858888f193505050501580156113b4573d6000803e3d6000fd5b50600190506113ee565b6113e983838673ffffffffffffffffffffffffffffffffffffffff1661154f9092919063ffffffff16565b600190505b9392505050565b60008282111561140157fe5b818303905092915050565b60008073ffffffffffffffffffffffffffffffffffffffff168273ffffffffffffffffffffffffffffffffffffffff161480611487575073eeeeeeeeeeeeeeeeeeeeeeeeeeeeeeeeeeeeeeee73ffffffffffffffffffffffffffffffffffffffff168273ffffffffffffffffffffffffffffffffffffffff16145b9050919050565b611549846323b872dd60e01b858585604051602401808473ffffffffffffffffffffffffffffffffffffffff1681526020018373ffffffffffffffffffffffffffffffffffffffff1681526020018281526020019350505050604051602081830303815290604052907bffffffffffffffffffffffffffffffffffffffffffffffffffffffff19166020820180517bffffffffffffffffffffffffffffffffffffffffffffffffffffffff83818316178352505050506115f1565b50505050565b6115ec8363a9059cbb60e01b8484604051602401808373ffffffffffffffffffffffffffffffffffffffff16815260200182815260200192505050604051602081830303815290604052907bffffffffffffffffffffffffffffffffffffffffffffffffffffffff19166020820180517bffffffffffffffffffffffffffffffffffffffffffffffffffffffff83818316178352505050506115f1565b505050565b6000611653826040518060400160405280602081526020017f5361666545524332303a206c6f772d6c6576656c2063616c6c206661696c65648152508573ffffffffffffffffffffffffffffffffffffffff166116e09092919063ffffffff16565b90506000815111156116db5780806020019051602081101561167457600080fd5b81019080805190602001909291905050506116da576040517f08c379a000000000000000000000000000000000000000000000000000000000815260040180806020018281038252602a8152602001806119d1602a913960400191505060405180910390fd5b5b505050565b60606116ef84846000856116f8565b90509392505050565b606082471015611753576040517f08c379a00000000000000000000000000000000000000000000000000000000081526004018080602001828103825260268152602001806119806026913960400191505060405180910390fd5b61175c856118a0565b6117ce576040517f08c379a000000000000000000000000000000000000000000000000000000000815260040180806020018281038252601d8152602001807f416464726573733a2063616c6c20746f206e6f6e2d636f6e747261637400000081525060200191505060405180910390fd5b6000808673ffffffffffffffffffffffffffffffffffffffff1685876040518082805190602001908083835b6020831061181d57805182526020820191506020810190506020830392506117fa565b6001836020036101000a03801982511681845116808217855250505050505090500191505060006040518083038185875af1925050503d806000811461187f576040519150601f19603f3d011682016040523d82523d6000602084013e611884565b606091505b50915091506118948282866118b3565b92505050949350505050565b600080823b905060008111915050919050565b606083156118c357829050611978565b6000835111156118d65782518084602001fd5b816040517f08c379a00000000000000000000000000000000000000000000000000000000081526004018080602001828103825283818151815260200191508051906020019080838360005b8381101561193d578082015181840152602081019050611922565b50505050905090810190601f16801561196a5780820380516001836020036101000a031916815260200191505b509250505060405180910390fd5b939250505056fe416464726573733a20696e73756666696369656e742062616c616e636520666f722063616c6c57726f6e6720757365616765206f66204554482e756e6976657273616c5472616e7366657246726f6d28295361666545524332303a204552433230206f7065726174696f6e20646964206e6f742073756363656564a264697066735822122013837e606eab24c5e96056086c36f76b6245046b027e82fdf0847072d510859464736f6c63430007060033",
  "immutableReferences": {},
  "source": "// SPDX-License-Identifier: MIT\npragma solidity >=0.4.22 <0.9.0;\n\n/**\n * getExpectedReturnWithGas is a method on the 1inch protocol that is free to call and will return\n * a distribution array. each element in array shows an exchange and represents a fraction of trading volume.\n * it will also return the amount the minimum amount tokens that will be received by the caller based on the amount\n * that they are selling. it also returns the amount of gas that is being used.\n *\n * I removed the oracle because i figured we can use the _minReturn from getExpectedReturnWithGas as the conversion\n * rate for the two tokens instead of having our own oracle.\n *\n * the exchangeTokens method will first check if the tokens are allowed in our contract and if we have enough\n * tokens in the contract to make the exchange. if we do then the exchange will happen here. if we dont, then\n * the 1inch swap protocol will be called to complete the exchange\n*/\n\nimport \"./interfaces/UniversalERC20.sol\";\nimport \"./interfaces/IOneSplit.sol\";\nimport './ExchangeOracle.sol';\nimport \"./Bank.sol\";\n\ncontract Chromium {\n    using UniversalERC20 for IERC20;\n\n    mapping(IERC20 => uint256) public balancePerToken;\n    mapping(IERC20 => bool) public allowedTokens; // tokens that are allowed to be exchanged\n    address oracleAddress;\n\n    Bank treasury;\n    ExchangeOracle oracle;\n    IOneSplit public oneSplitImpl; // pass in 1inch protocol contract address\n\n    IERC20 private constant ZERO_ADDRESS = IERC20(0x0000000000000000000000000000000000000000); // eth address substitute\n    IERC20 private constant ETH_ADDRESS = IERC20(0xEeeeeEeeeEeEeeEeEeEeeEEEeeeeEeeeeeeeEEeE); // eth address substitute\n\n    event depositToken(address indexed _from, uint256 _amount);\n    event onTransfer(\n        address indexed _from,\n        address indexed _to,\n        uint256 _amount\n    );\n    event tokensExchanged(\n        address indexed _sendingToken,\n        uint256 _amountSent,\n        address indexed _receivedToken,\n        uint256 _amountRecieved\n    );\n\n    /**\n     * pass in the oracle contract so that it can pull info from it\n     */\n    constructor(address _oracle, address payable _treasury) {\n        oracle = ExchangeOracle(_oracle);\n        treasury = Bank(_treasury);\n        oracleAddress = _oracle;\n    }\n\n    /**\n    * this sets the 1inch protocol\n    * @param _oneAuditImpl the 1inch protol address (0xC586BeF4a0992C495Cf22e1aeEE4E446CECDee0E)\n    */\n    function setOneProtocol(IOneSplit _oneAuditImpl) public {\n        oneSplitImpl = _oneAuditImpl;\n    }\n\n    /**\n     * @dev Calculate expected returning amount of `destToken`\n     * @param fromToken (IERC20) Address of token or `address(0)` for Ether\n     * @param destToken (IERC20) Address of token or `address(0)` for Ether\n     * @param amount (uint256) Amount for `fromToken`\n     * @param parts (uint256) Number of pieces source volume could be splitted,\n     * works like granularity, higly affects gas usage. Should be called offchain,\n     * but could be called onchain if user swaps not his own funds, but this is still considered as not safe.\n     * @param flags (uint256) Flags for enabling and disabling some features, default 0\n    */\n    function getExpectedReturnWithGas(\n        IERC20 fromToken,\n        IERC20 destToken,\n        uint256 amount,\n        uint256 parts,\n        uint256 flags // See constants in IOneSplit.sol\n    )\n    public\n    view\n    returns(\n        uint256 returnAmount,\n        uint256 estimateGasAmount,\n        uint256[] memory distribution\n    )\n    {\n        return oneSplitImpl.getExpectedReturnWithGas(\n            fromToken,\n            destToken,\n            amount,\n            parts,\n            flags,\n            0\n        );\n    }\n\n    /**\n     * @dev Swap `_sellAmount` of `_sellToken` to `_buyToken`\n     * @param _sellToken (IERC20) Address of token or `address(0)` for Ether\n     * @param _buyToken (IERC20) Address of token or `address(0)` for Ether\n     * @param _sellAmount (uint256) Amount for `fromToken`\n     * @param _minReturn (uint256) Minimum expected return, else revert\n     * @param distribution (uint256[]) Array of weights for volume distribution returned by `getExpectedReturnWithGas`\n     * @param flags (uint256) Flags for enabling and disabling some features, default 0\n    */\n    function exchangeTokens(\n        IERC20 _sellToken,\n        IERC20 _buyToken,\n        uint256 _sellAmount,\n        uint256 _minReturn,\n        uint256[] memory distribution,\n        uint256 flags\n    ) external payable returns (uint256 _amountReturned) {\n\n        // pulls the price of both tokens from an oracle using call without abi\n        // (bool result, bytes memory data) =\n        //     oracleAddress.call(\n        //         abi.encodeWithSignature(\n        //             \"priceOfPair(address,address)\",\n        //             _sellToken,\n        //             _buyToken\n        //         )\n        //     );\n\n        // // Decode bytes data\n        // (uint256 sellTokenValue, uint256 buyTokenValue) =\n        //     abi.decode(data, (uint256, uint256));\n\n        // //Calculate tokens bought\n        // uint256 buyingAmount =\n        //     SafeMath.mul(\n        //         _sellAmount,\n        //         SafeMath.div(sellTokenValue, buyTokenValue)\n        //     );\n\n        if (_exchangeWithChromium(_sellToken, _buyToken, _sellAmount)) {\n            // checks to see if there are enough tokens in the contract to make the exchange\n            require(_minReturn <= treasury.totalTokenSupply(address(_buyToken)));\n\n            _sellToken.universalTransferFrom(msg.sender, address(treasury), _sellAmount);\n            balancePerToken[_sellToken] = SafeMath.add(balancePerToken[_sellToken], _sellAmount);\n\n            _buyToken.universalTransfer(msg.sender, _minReturn);\n            balancePerToken[_buyToken] = SafeMath.sub(balancePerToken[_buyToken], _minReturn);\n\n            emit tokensExchanged(address(_sellToken), _sellAmount, address(_buyToken), _minReturn);\n            _amountReturned = _minReturn;\n        } else {\n            _amountReturned = oneSplitImpl.swap(_sellToken, _buyToken, _sellAmount, _minReturn, distribution, flags);\n            emit tokensExchanged(address(_sellToken), _sellAmount, address(_buyToken), _minReturn);\n        }\n    }\n\n\n    /**\n     * @dev this will accept erc20 tokens to be added to the contracts liquidity pool\n     */\n    function addLiquidity(IERC20 _token, uint256 _tokenAmount)\n    external\n    payable\n    {\n        //Check if token is not supported by bank\n        require(allowedTokens[_token] == true, \"Token is not supported\");\n        _token.approve(address(this), _tokenAmount);\n\n        balancePerToken[_token] = SafeMath.add(\n            balancePerToken[_token],\n            _tokenAmount\n        );\n\n        _token.universalTransferFrom(msg.sender, address(this), _tokenAmount);\n        emit depositToken(msg.sender, _tokenAmount);\n    }\n\n    /**\n     * @dev allows for tokens to be added to the exchange\n     * this needs to be done before adding any liquidity for the token\n     */\n    function _allowToken(IERC20 _token) public {\n        allowedTokens[_token] = true;\n    }\n\n    /**\n     * @dev method determines if chromium is able to make the exchange, if chromium cant make the exchange\n     * then it will return false and the 1inch protocol will complete the exchange\n     * @param _minReturn is the _minReturn that is returned from \"getExpectedReturnWithGas\"\n    */\n    function _exchangeWithChromium(IERC20 _sellToken, IERC20 _buyToken, uint _minReturn) internal view returns (bool) {\n        if (allowedTokens[_sellToken] == true && allowedTokens[_buyToken] == true) {\n            if (balancePerToken[_buyToken] >= _minReturn) {\n                return true;\n            } else {\n                return false;\n            }\n        } else {\n            return false;\n        }\n    }\n\n    function testCall() public payable returns (uint256 value) {\n        (bool result, bytes memory data) =\n        oracleAddress.call(abi.encodeWithSignature(\"testConnection()\"));\n\n        (uint256 sellTokenValue, uint256 buyTokenValue) =\n        abi.decode(data, (uint256, uint256));\n        return sellTokenValue + buyTokenValue;\n    }\n\n    // fallback function\n    receive() external payable {}\n}\n",
  "sourcePath": "/Users/hugomartinez/WebstormProjects/TungstenGroupProject1/contracts/Chromium.sol",
  "compiler": {
    "name": "solc",
    "version": "0.7.6+commit.7338295f.Emscripten.clang"
  },
  "schemaVersion": "3.3.4",
  "updatedAt": "2021-04-12T16:38:58.003Z",
  "devdoc": {
    "kind": "dev",
    "methods": {
      "_allowToken(address)": {
        "details": "allows for tokens to be added to the exchange this needs to be done before adding any liquidity for the token"
      },
      "addLiquidity(address,uint256)": {
        "details": "this will accept erc20 tokens to be added to the contracts liquidity pool"
      },
      "exchangeTokens(address,address,uint256,uint256,uint256[],uint256)": {
        "details": "Swap `_sellAmount` of `_sellToken` to `_buyToken`",
        "params": {
          "_buyToken": "(IERC20) Address of token or `address(0)` for Ether",
          "_minReturn": "(uint256) Minimum expected return, else revert",
          "_sellAmount": "(uint256) Amount for `fromToken`",
          "_sellToken": "(IERC20) Address of token or `address(0)` for Ether",
          "distribution": "(uint256[]) Array of weights for volume distribution returned by `getExpectedReturnWithGas`",
          "flags": "(uint256) Flags for enabling and disabling some features, default 0"
        }
      },
      "getExpectedReturnWithGas(address,address,uint256,uint256,uint256)": {
        "details": "Calculate expected returning amount of `destToken`",
        "params": {
          "amount": "(uint256) Amount for `fromToken`",
          "destToken": "(IERC20) Address of token or `address(0)` for Ether",
          "flags": "(uint256) Flags for enabling and disabling some features, default 0",
          "fromToken": "(IERC20) Address of token or `address(0)` for Ether",
          "parts": "(uint256) Number of pieces source volume could be splitted, works like granularity, higly affects gas usage. Should be called offchain, but could be called onchain if user swaps not his own funds, but this is still considered as not safe."
        }
      },
      "setOneProtocol(address)": {
        "params": {
          "_oneAuditImpl": "the 1inch protol address (0xC586BeF4a0992C495Cf22e1aeEE4E446CECDee0E)"
        }
      }
    },
    "version": 1
  },
  "userdoc": {
    "kind": "user",
    "methods": {
      "constructor": {
        "notice": "pass in the oracle contract so that it can pull info from it"
      },
      "setOneProtocol(address)": {
        "notice": "this sets the 1inch protocol"
      }
    },
    "version": 1
  }
}