{
  "contractName": "ChromiumV2",
  "abi": [
    {
      "inputs": [
        {
          "internalType": "address",
          "name": "_oracleAddress",
          "type": "address"
        }
      ],
      "stateMutability": "nonpayable",
      "type": "constructor"
    },
    {
      "anonymous": false,
      "inputs": [
        {
          "indexed": false,
          "internalType": "address",
          "name": "",
          "type": "address"
        },
        {
          "indexed": false,
          "internalType": "uint256",
          "name": "",
          "type": "uint256"
        }
      ],
      "name": "Received",
      "type": "event"
    },
    {
      "anonymous": false,
      "inputs": [
        {
          "indexed": true,
          "internalType": "address",
          "name": "from",
          "type": "address"
        },
        {
          "indexed": true,
          "internalType": "address",
          "name": "to",
          "type": "address"
        },
        {
          "indexed": false,
          "internalType": "uint256",
          "name": "value",
          "type": "uint256"
        }
      ],
      "name": "Transfer",
      "type": "event"
    },
    {
      "inputs": [],
      "name": "WithdrawContract",
      "outputs": [
        {
          "internalType": "address",
          "name": "",
          "type": "address"
        }
      ],
      "stateMutability": "view",
      "type": "function"
    },
    {
      "inputs": [],
      "name": "buyStatus",
      "outputs": [
        {
          "internalType": "bool",
          "name": "",
          "type": "bool"
        }
      ],
      "stateMutability": "view",
      "type": "function"
    },
    {
      "inputs": [],
      "name": "chromiumStatus",
      "outputs": [
        {
          "internalType": "bool",
          "name": "",
          "type": "bool"
        }
      ],
      "stateMutability": "view",
      "type": "function"
    },
    {
      "inputs": [],
      "name": "contractBalance",
      "outputs": [
        {
          "internalType": "uint256",
          "name": "",
          "type": "uint256"
        }
      ],
      "stateMutability": "view",
      "type": "function"
    },
    {
      "inputs": [],
      "name": "feeThreshold",
      "outputs": [
        {
          "internalType": "uint256",
          "name": "",
          "type": "uint256"
        }
      ],
      "stateMutability": "view",
      "type": "function"
    },
    {
      "inputs": [],
      "name": "flatFee",
      "outputs": [
        {
          "internalType": "uint256",
          "name": "",
          "type": "uint256"
        }
      ],
      "stateMutability": "view",
      "type": "function"
    },
    {
      "inputs": [],
      "name": "highTokenPool",
      "outputs": [
        {
          "internalType": "uint256",
          "name": "",
          "type": "uint256"
        }
      ],
      "stateMutability": "view",
      "type": "function"
    },
    {
      "inputs": [],
      "name": "lowTokenPool",
      "outputs": [
        {
          "internalType": "uint256",
          "name": "",
          "type": "uint256"
        }
      ],
      "stateMutability": "view",
      "type": "function"
    },
    {
      "inputs": [],
      "name": "migrationExchange",
      "outputs": [
        {
          "internalType": "address",
          "name": "",
          "type": "address"
        }
      ],
      "stateMutability": "view",
      "type": "function"
    },
    {
      "inputs": [],
      "name": "oracle",
      "outputs": [
        {
          "internalType": "contract ExchangeOracle",
          "name": "",
          "type": "address"
        }
      ],
      "stateMutability": "view",
      "type": "function"
    },
    {
      "inputs": [],
      "name": "percentFee",
      "outputs": [
        {
          "internalType": "uint256",
          "name": "",
          "type": "uint256"
        }
      ],
      "stateMutability": "view",
      "type": "function"
    },
    {
      "inputs": [],
      "name": "poolThreshold",
      "outputs": [
        {
          "internalType": "uint256",
          "name": "",
          "type": "uint256"
        }
      ],
      "stateMutability": "view",
      "type": "function"
    },
    {
      "inputs": [],
      "name": "token",
      "outputs": [
        {
          "internalType": "contract IERC20",
          "name": "",
          "type": "address"
        }
      ],
      "stateMutability": "view",
      "type": "function"
    },
    {
      "inputs": [],
      "name": "totalFeeBalance",
      "outputs": [
        {
          "internalType": "uint256",
          "name": "",
          "type": "uint256"
        }
      ],
      "stateMutability": "view",
      "type": "function"
    },
    {
      "stateMutability": "payable",
      "type": "receive"
    },
    {
      "inputs": [],
      "name": "setToken",
      "outputs": [],
      "stateMutability": "nonpayable",
      "type": "function"
    },
    {
      "inputs": [],
      "name": "getContractBalance",
      "outputs": [
        {
          "internalType": "uint256",
          "name": "",
          "type": "uint256"
        }
      ],
      "stateMutability": "view",
      "type": "function"
    },
    {
      "inputs": [],
      "name": "setOracle",
      "outputs": [],
      "stateMutability": "nonpayable",
      "type": "function"
    },
    {
      "inputs": [],
      "name": "setChromiumStatus",
      "outputs": [],
      "stateMutability": "nonpayable",
      "type": "function"
    },
    {
      "inputs": [],
      "name": "setBuyStatus",
      "outputs": [],
      "stateMutability": "nonpayable",
      "type": "function"
    },
    {
      "inputs": [
        {
          "internalType": "uint256",
          "name": "_poolNum",
          "type": "uint256"
        }
      ],
      "name": "getPoolBalance",
      "outputs": [
        {
          "internalType": "uint256",
          "name": "",
          "type": "uint256"
        }
      ],
      "stateMutability": "view",
      "type": "function"
    },
    {
      "inputs": [],
      "name": "setThreshold",
      "outputs": [],
      "stateMutability": "nonpayable",
      "type": "function"
    },
    {
      "inputs": [
        {
          "internalType": "uint256",
          "name": "_poolType",
          "type": "uint256"
        },
        {
          "internalType": "uint256",
          "name": "_amount",
          "type": "uint256"
        }
      ],
      "name": "fundTokenPool",
      "outputs": [],
      "stateMutability": "nonpayable",
      "type": "function"
    },
    {
      "inputs": [
        {
          "internalType": "uint256",
          "name": "_amount",
          "type": "uint256"
        }
      ],
      "name": "expectedBuyReturn",
      "outputs": [
        {
          "internalType": "uint256",
          "name": "",
          "type": "uint256"
        },
        {
          "internalType": "uint256",
          "name": "",
          "type": "uint256"
        },
        {
          "internalType": "uint256",
          "name": "",
          "type": "uint256"
        }
      ],
      "stateMutability": "view",
      "type": "function"
    },
    {
      "inputs": [
        {
          "internalType": "uint256",
          "name": "_amount",
          "type": "uint256"
        }
      ],
      "name": "expectedSellReturn",
      "outputs": [
        {
          "internalType": "uint256",
          "name": "",
          "type": "uint256"
        },
        {
          "internalType": "uint256",
          "name": "",
          "type": "uint256"
        }
      ],
      "stateMutability": "view",
      "type": "function"
    },
    {
      "inputs": [
        {
          "internalType": "uint256",
          "name": "_amount",
          "type": "uint256"
        }
      ],
      "name": "calculateFee",
      "outputs": [
        {
          "internalType": "uint256",
          "name": "",
          "type": "uint256"
        },
        {
          "internalType": "uint256",
          "name": "",
          "type": "uint256"
        }
      ],
      "stateMutability": "view",
      "type": "function"
    },
    {
      "inputs": [],
      "name": "buyCBLT",
      "outputs": [],
      "stateMutability": "payable",
      "type": "function"
    },
    {
      "inputs": [
        {
          "internalType": "uint256",
          "name": "_amount",
          "type": "uint256"
        }
      ],
      "name": "sellCBLT",
      "outputs": [],
      "stateMutability": "payable",
      "type": "function"
    },
    {
      "inputs": [],
      "name": "setContract",
      "outputs": [],
      "stateMutability": "nonpayable",
      "type": "function"
    },
    {
      "inputs": [],
      "name": "getTotalBalance",
      "outputs": [
        {
          "internalType": "uint256",
          "name": "",
          "type": "uint256"
        }
      ],
      "stateMutability": "view",
      "type": "function"
    },
    {
      "inputs": [
        {
          "internalType": "uint256",
          "name": "_amount",
          "type": "uint256"
        }
      ],
      "name": "withdrawFees",
      "outputs": [],
      "stateMutability": "payable",
      "type": "function"
    },
    {
      "inputs": [],
      "name": "newFlatFee",
      "outputs": [],
      "stateMutability": "nonpayable",
      "type": "function"
    },
    {
      "inputs": [],
      "name": "newPercentFee",
      "outputs": [],
      "stateMutability": "nonpayable",
      "type": "function"
    },
    {
      "inputs": [],
      "name": "setExchangeAddress",
      "outputs": [],
      "stateMutability": "nonpayable",
      "type": "function"
    },
    {
      "inputs": [],
      "name": "assetsMigration",
      "outputs": [],
      "stateMutability": "payable",
      "type": "function"
    }
  ],
  "bytecode": "0x608060405234801561001057600080fd5b506040516128753803806128758339818101604052602081101561003357600080fd5b810190808051906020019092919050505073433c6e3d2def6e1fb414cf9448724efb0399b6986000806101000a81548173ffffffffffffffffffffffffffffffffffffffff021916908373ffffffffffffffffffffffffffffffffffffffff16021790555080600160006101000a81548173ffffffffffffffffffffffffffffffffffffffff021916908373ffffffffffffffffffffffffffffffffffffffff1602179055506001600360006101000a81548160ff0219169083151502179055506001600360016101000a81548160ff021916908315150217905550674563918244f4000060088190555061271060048190555060036009819055506003600a819055505061272e806101476000396000f3fe6080604052600436106101fd5760003560e01c80638db5d0821161010d578063d9eb5947116100a0578063ed1375d51161006f578063ed1375d514610790578063ed9cf58c146107df578063f2ba53c6146107f6578063f8201b151461080d578063fc0c546a146108175761026b565b8063d9eb5947146106cb578063e2ffadb9146106f6578063e653088314610723578063ed129f681461073a5761026b565b806399a5d747116100dc57806399a5d747146106295780639ccc35551461067f578063c60e487014610696578063cb4e162b146106a05761026b565b80638db5d082146105785780638dcb71ef146105a3578063925bc6e7146105ba5780639834331b146105fb5761026b565b80634c1a4115116101905780636f9fb98a1161015f5780636f9fb98a1461048557806377ba0517146104b05780637af71aa6146104f55780637dc0d1d01461050c5780638b7afe2e1461054d5761026b565b80634c1a4115146103b85780635b89c489146103e35780635e318e07146103fa5780636d9ab702146104285761026b565b806314d0a61c116101cc57806314d0a61c146103085780631f0fa1c5146103495780633415650e146103745780634c04f63e146103a15761026b565b806304051223146102705780630c5ce3ae1461028757806310666788146102b257806312b58349146102dd5761026b565b3661026b5761020e60025434610858565b6002819055507f88a5966d370b9919b20f3e2c13ff65706f196a4e32cc2c12bf57088f885258743334604051808373ffffffffffffffffffffffffffffffffffffffff1681526020018281526020019250505060405180910390a1005b600080fd5b34801561027c57600080fd5b50610285610874565b005b34801561029357600080fd5b5061029c61097f565b6040518082815260200191505060405180910390f35b3480156102be57600080fd5b506102c7610985565b6040518082815260200191505060405180910390f35b3480156102e957600080fd5b506102f261098b565b6040518082815260200191505060405180910390f35b34801561031457600080fd5b5061031d610995565b604051808273ffffffffffffffffffffffffffffffffffffffff16815260200191505060405180910390f35b34801561035557600080fd5b5061035e6109bb565b6040518082815260200191505060405180910390f35b34801561038057600080fd5b506103896109c1565b60405180821515815260200191505060405180910390f35b3480156103ad57600080fd5b506103b66109d4565b005b3480156103c457600080fd5b506103cd610acc565b6040518082815260200191505060405180910390f35b3480156103ef57600080fd5b506103f8610ad2565b005b6104266004803603602081101561041057600080fd5b8101908080359060200190929190505050610c04565b005b34801561043457600080fd5b506104616004803603602081101561044b57600080fd5b8101908080359060200190929190505050610d61565b60405180848152602001838152602001828152602001935050505060405180910390f35b34801561049157600080fd5b5061049a610e94565b6040518082815260200191505060405180910390f35b3480156104bc57600080fd5b506104f3600480360360408110156104d357600080fd5b810190808035906020019092919080359060200190929190505050610e9e565b005b34801561050157600080fd5b5061050a610f71565b005b34801561051857600080fd5b5061052161107c565b604051808273ffffffffffffffffffffffffffffffffffffffff16815260200191505060405180910390f35b34801561055957600080fd5b506105626110a2565b6040518082815260200191505060405180910390f35b34801561058457600080fd5b5061058d6110a8565b6040518082815260200191505060405180910390f35b3480156105af57600080fd5b506105b86110ae565b005b3480156105c657600080fd5b506105cf6111a6565b604051808273ffffffffffffffffffffffffffffffffffffffff16815260200191505060405180910390f35b6106276004803603602081101561061157600080fd5b81019080803590602001909291905050506111cc565b005b34801561063557600080fd5b506106626004803603602081101561064c57600080fd5b81019080803590602001909291905050506112f2565b604051808381526020018281526020019250505060405180910390f35b34801561068b57600080fd5b5061069461140c565b005b61069e61153e565b005b3480156106ac57600080fd5b506106b5611780565b6040518082815260200191505060405180910390f35b3480156106d757600080fd5b506106e0611786565b6040518082815260200191505060405180910390f35b34801561070257600080fd5b5061070b61178c565b60405180821515815260200191505060405180910390f35b34801561072f57600080fd5b5061073861179f565b005b34801561074657600080fd5b506107736004803603602081101561075d57600080fd5b8101908080359060200190929190505050611897565b604051808381526020018281526020019250505060405180910390f35b34801561079c57600080fd5b506107c9600480360360208110156107b357600080fd5b81019080803590602001909291905050506119ad565b6040518082815260200191505060405180910390f35b3480156107eb57600080fd5b506107f46119cd565b005b34801561080257600080fd5b5061080b611afe565b005b610815611c30565b005b34801561082357600080fd5b5061082c611db5565b604051808273ffffffffffffffffffffffffffffffffffffffff16815260200191505060405180910390f35b60008082840190508381101561086a57fe5b8091505092915050565b6000600160009054906101000a900473ffffffffffffffffffffffffffffffffffffffff1673ffffffffffffffffffffffffffffffffffffffff16637a62f51e60326040518263ffffffff1660e01b815260040180828152602001806020018281038252600c8152602001807f736574427579537461747573000000000000000000000000000000000000000081525060200192505050602060405180830381600087803b15801561092557600080fd5b505af1158015610939573d6000803e3d6000fd5b505050506040513d602081101561094f57600080fd5b8101908080519060200190929190505050905080600360016101000a81548160ff02191690831515021790555050565b600b5481565b60065481565b6000600b54905090565b600760009054906101000a900473ffffffffffffffffffffffffffffffffffffffff1681565b60055481565b600360019054906101000a900460ff1681565b6000600160009054906101000a900473ffffffffffffffffffffffffffffffffffffffff1673ffffffffffffffffffffffffffffffffffffffff1663b610e77460326040518263ffffffff1660e01b815260040180828152602001806020018281038252600c8152602001807f7365745468726573686f6c64000000000000000000000000000000000000000081525060200192505050602060405180830381600087803b158015610a8557600080fd5b505af1158015610a99573d6000803e3d6000fd5b505050506040513d6020811015610aaf57600080fd5b810190808051906020019092919050505090508060048190555050565b600a5481565b6000600160009054906101000a900473ffffffffffffffffffffffffffffffffffffffff1673ffffffffffffffffffffffffffffffffffffffff166345d4671f60326040518263ffffffff1660e01b81526004018082815260200180602001828103825260098152602001807f7365744f7261636c65000000000000000000000000000000000000000000000081525060200192505050602060405180830381600087803b158015610b8357600080fd5b505af1158015610b97573d6000803e3d6000fd5b505050506040513d6020811015610bad57600080fd5b8101908080519060200190929190505050905080600160006101000a81548173ffffffffffffffffffffffffffffffffffffffff021916908373ffffffffffffffffffffffffffffffffffffffff16021790555050565b600760009054906101000a900473ffffffffffffffffffffffffffffffffffffffff1673ffffffffffffffffffffffffffffffffffffffff163373ffffffffffffffffffffffffffffffffffffffff1614610caa576040517f08c379a000000000000000000000000000000000000000000000000000000000815260040180806020018281038252602f81526020018061260a602f913960400191505060405180910390fd5b600b54811115610d05576040517f08c379a00000000000000000000000000000000000000000000000000000000081526004018080602001828103825260278152602001806125bd6027913960400191505060405180910390fd5b610d11600b5482611dd9565b600b819055503373ffffffffffffffffffffffffffffffffffffffff166108fc829081150290604051600060405180830381858888f19350505050158015610d5d573d6000803e3d6000fd5b5050565b600080600080600160009054906101000a900473ffffffffffffffffffffffffffffffffffffffff1673ffffffffffffffffffffffffffffffffffffffff1663f3167c0560008054906101000a900473ffffffffffffffffffffffffffffffffffffffff166040518263ffffffff1660e01b8152600401808273ffffffffffffffffffffffffffffffffffffffff16815260200191505060206040518083038186803b158015610e1057600080fd5b505afa158015610e24573d6000803e3d6000fd5b505050506040513d6020811015610e3a57600080fd5b810190808051906020019092919050505090506000806000610e5b886112f2565b8092508194505050610e7e670de0b6b3a7640000610e798587611df0565b611e09565b9150818382965096509650505050509193909250565b6000600254905090565b6001821415610f0757610ef08160008054906101000a900473ffffffffffffffffffffffffffffffffffffffff1673ffffffffffffffffffffffffffffffffffffffff16611e4090919063ffffffff16565b610efc60055482610858565b600581905550610f6d565b6002821415610f6c57610f598160008054906101000a900473ffffffffffffffffffffffffffffffffffffffff1673ffffffffffffffffffffffffffffffffffffffff16611e4090919063ffffffff16565b610f6560065482610858565b6006819055505b5b5050565b6000600160009054906101000a900473ffffffffffffffffffffffffffffffffffffffff1673ffffffffffffffffffffffffffffffffffffffff16637a62f51e60326040518263ffffffff1660e01b81526004018082815260200180602001828103825260118152602001807f7365744368726f6d69756d53746174757300000000000000000000000000000081525060200192505050602060405180830381600087803b15801561102257600080fd5b505af1158015611036573d6000803e3d6000fd5b505050506040513d602081101561104c57600080fd5b8101908080519060200190929190505050905080600360006101000a81548160ff02191690831515021790555050565b600160009054906101000a900473ffffffffffffffffffffffffffffffffffffffff1681565b60025481565b60045481565b6000600160009054906101000a900473ffffffffffffffffffffffffffffffffffffffff1673ffffffffffffffffffffffffffffffffffffffff1663b610e77460326040518263ffffffff1660e01b815260040180828152602001806020018281038252600a8152602001807f6e6577466c61744665650000000000000000000000000000000000000000000081525060200192505050602060405180830381600087803b15801561115f57600080fd5b505af1158015611173573d6000803e3d6000fd5b505050506040513d602081101561118957600080fd5b810190808051906020019092919050505090508060098190555050565b600c60009054906101000a900473ffffffffffffffffffffffffffffffffffffffff1681565b6000806111d883611897565b8092508193505050600254821061123a576040517f08c379a00000000000000000000000000000000000000000000000000000000081526004018080602001828103825260368152602001806125876036913960400191505060405180910390fd5b611246600b5482610858565b600b819055506112a661126184670de0b6b3a7640000611e09565b60008054906101000a900473ffffffffffffffffffffffffffffffffffffffff1673ffffffffffffffffffffffffffffffffffffffff16611e4090919063ffffffff16565b3373ffffffffffffffffffffffffffffffffffffffff166108fc839081150290604051600060405180830381858888f193505050501580156112ec573d6000803e3d6000fd5b50505050565b6000806000806008548511156113245761131185600a546103e8611ef6565b905061131d8582611dd9565b91506113ff565b6000600160009054906101000a900473ffffffffffffffffffffffffffffffffffffffff1673ffffffffffffffffffffffffffffffffffffffff1663858b033d6040518163ffffffff1660e01b815260040160206040518083038186803b15801561138e57600080fd5b505afa1580156113a2573d6000803e3d6000fd5b505050506040513d60208110156113b857600080fd5b8101908080519060200190929190505050905060006113e068056bc75e2d6310000083611df0565b90506113ee81600954611e09565b92506113fa8784611dd9565b935050505b8181935093505050915091565b6000600160009054906101000a900473ffffffffffffffffffffffffffffffffffffffff1673ffffffffffffffffffffffffffffffffffffffff166345d4671f60326040518263ffffffff1660e01b815260040180828152602001806020018281038252600b8152602001807f736574436f6e747261637400000000000000000000000000000000000000000081525060200192505050602060405180830381600087803b1580156114bd57600080fd5b505af11580156114d1573d6000803e3d6000fd5b505050506040513d60208110156114e757600080fd5b8101908080519060200190929190505050905080600760006101000a81548173ffffffffffffffffffffffffffffffffffffffff021916908373ffffffffffffffffffffffffffffffffffffffff16021790555050565b66354a6ba7a1800034101561159e576040517f08c379a000000000000000000000000000000000000000000000000000000000815260040180806020018281038252602c81526020018061266d602c913960400191505060405180910390fd5b60011515600360009054906101000a900460ff1615151461160a576040517f08c379a00000000000000000000000000000000000000000000000000000000081526004018080602001828103825260368152602001806126c36036913960400191505060405180910390fd5b600080600061161834610d61565b809350819450829550505050600454831061169e576005548310611687576040517f08c379a00000000000000000000000000000000000000000000000000000000081526004018080602001828103825260348152602001806126396034913960400191505060405180910390fd5b61169360055484611dd9565b60058190555061170b565b60065483106116f8576040517f08c379a00000000000000000000000000000000000000000000000000000000081526004018080602001828103825260348152602001806126396034913960400191505060405180910390fd5b61170460065484611dd9565b6006819055505b611717600b5482610858565b600b8190555061172960025483610858565b60028190555061177a338460008054906101000a900473ffffffffffffffffffffffffffffffffffffffff1673ffffffffffffffffffffffffffffffffffffffff16611f0d9092919063ffffffff16565b50505050565b60085481565b60095481565b600360009054906101000a900460ff1681565b6000600160009054906101000a900473ffffffffffffffffffffffffffffffffffffffff1673ffffffffffffffffffffffffffffffffffffffff1663b610e77460326040518263ffffffff1660e01b815260040180828152602001806020018281038252600d8152602001807f6e657750657263656e744665650000000000000000000000000000000000000081525060200192505050602060405180830381600087803b15801561185057600080fd5b505af1158015611864573d6000803e3d6000fd5b505050506040513d602081101561187a57600080fd5b8101908080519060200190929190505050905080600a8190555050565b6000806000806000600160009054906101000a900473ffffffffffffffffffffffffffffffffffffffff1673ffffffffffffffffffffffffffffffffffffffff1663f3167c0560008054906101000a900473ffffffffffffffffffffffffffffffffffffffff166040518263ffffffff1660e01b8152600401808273ffffffffffffffffffffffffffffffffffffffff16815260200191505060206040518083038186803b15801561194857600080fd5b505afa15801561195c573d6000803e3d6000fd5b505050506040513d602081101561197257600080fd5b810190808051906020019092919050505092506119976119928785611e09565b6112f2565b8092508193505050818194509450505050915091565b600060018214156119c25760055490506119c8565b60065490505b919050565b6000600160009054906101000a900473ffffffffffffffffffffffffffffffffffffffff1673ffffffffffffffffffffffffffffffffffffffff166345d4671f60326040518263ffffffff1660e01b81526004018082815260200180602001828103825260088152602001807f736574546f6b656e00000000000000000000000000000000000000000000000081525060200192505050602060405180830381600087803b158015611a7e57600080fd5b505af1158015611a92573d6000803e3d6000fd5b505050506040513d6020811015611aa857600080fd5b81019080805190602001909291905050509050806000806101000a81548173ffffffffffffffffffffffffffffffffffffffff021916908373ffffffffffffffffffffffffffffffffffffffff16021790555050565b6000600160009054906101000a900473ffffffffffffffffffffffffffffffffffffffff1673ffffffffffffffffffffffffffffffffffffffff166345d4671f60326040518263ffffffff1660e01b81526004018082815260200180602001828103825260128152602001807f73657445786368616e676541646472657373000000000000000000000000000081525060200192505050602060405180830381600087803b158015611baf57600080fd5b505af1158015611bc3573d6000803e3d6000fd5b505050506040513d6020811015611bd957600080fd5b8101908080519060200190929190505050905080600c60006101000a81548173ffffffffffffffffffffffffffffffffffffffff021916908373ffffffffffffffffffffffffffffffffffffffff16021790555050565b60008060009054906101000a900473ffffffffffffffffffffffffffffffffffffffff1673ffffffffffffffffffffffffffffffffffffffff166370a08231306040518263ffffffff1660e01b8152600401808273ffffffffffffffffffffffffffffffffffffffff16815260200191505060206040518083038186803b158015611cba57600080fd5b505afa158015611cce573d6000803e3d6000fd5b505050506040513d6020811015611ce457600080fd5b810190808051906020019092919050505090506000479050611d69600c60009054906101000a900473ffffffffffffffffffffffffffffffffffffffff168360008054906101000a900473ffffffffffffffffffffffffffffffffffffffff1673ffffffffffffffffffffffffffffffffffffffff16611f0d9092919063ffffffff16565b503373ffffffffffffffffffffffffffffffffffffffff166108fc829081150290604051600060405180830381858888f19350505050158015611db0573d6000803e3d6000fd5b505050565b60008054906101000a900473ffffffffffffffffffffffffffffffffffffffff1681565b600082821115611de557fe5b818303905092915050565b600080828481611dfc57fe5b0490508091505092915050565b600080831415611e1c5760009050611e3a565b6000828402905082848281611e2d57fe5b0414611e3557fe5b809150505b92915050565b6000811415611e4e57611ef2565b611e5782611fb5565b15611ec35780341115611ebe573373ffffffffffffffffffffffffffffffffffffffff166108fc611e918334611dd990919063ffffffff16565b9081150290604051600060405180830381858888f19350505050158015611ebc573d6000803e3d6000fd5b505b611ef1565b611ef03330838573ffffffffffffffffffffffffffffffffffffffff16612095909392919063ffffffff16565b5b5b5050565b60008183850281611f0357fe5b0490509392505050565b600080821415611f205760019050611fae565b611f2984611fb5565b15611f7e578273ffffffffffffffffffffffffffffffffffffffff166108fc839081150290604051600060405180830381858888f19350505050158015611f74573d6000803e3d6000fd5b5060019050611fae565b611fa983838673ffffffffffffffffffffffffffffffffffffffff166121569092919063ffffffff16565b600190505b9392505050565b600073c02aaa39b223fe8d0a0e5c4f27ead9083c756cc273ffffffffffffffffffffffffffffffffffffffff168273ffffffffffffffffffffffffffffffffffffffff161480612044575073eeeeeeeeeeeeeeeeeeeeeeeeeeeeeeeeeeeeeeee73ffffffffffffffffffffffffffffffffffffffff168273ffffffffffffffffffffffffffffffffffffffff16145b8061208e575073c778417e063141139fce010982780140aa0cd5ab73ffffffffffffffffffffffffffffffffffffffff168273ffffffffffffffffffffffffffffffffffffffff16145b9050919050565b612150846323b872dd60e01b858585604051602401808473ffffffffffffffffffffffffffffffffffffffff1681526020018373ffffffffffffffffffffffffffffffffffffffff1681526020018281526020019350505050604051602081830303815290604052907bffffffffffffffffffffffffffffffffffffffffffffffffffffffff19166020820180517bffffffffffffffffffffffffffffffffffffffffffffffffffffffff83818316178352505050506121f8565b50505050565b6121f38363a9059cbb60e01b8484604051602401808373ffffffffffffffffffffffffffffffffffffffff16815260200182815260200192505050604051602081830303815290604052907bffffffffffffffffffffffffffffffffffffffffffffffffffffffff19166020820180517bffffffffffffffffffffffffffffffffffffffffffffffffffffffff83818316178352505050506121f8565b505050565b600061225a826040518060400160405280602081526020017f5361666545524332303a206c6f772d6c6576656c2063616c6c206661696c65648152508573ffffffffffffffffffffffffffffffffffffffff166122e79092919063ffffffff16565b90506000815111156122e25780806020019051602081101561227b57600080fd5b81019080805190602001909291905050506122e1576040517f08c379a000000000000000000000000000000000000000000000000000000000815260040180806020018281038252602a815260200180612699602a913960400191505060405180910390fd5b5b505050565b60606122f684846000856122ff565b90509392505050565b60608247101561235a576040517f08c379a00000000000000000000000000000000000000000000000000000000081526004018080602001828103825260268152602001806125e46026913960400191505060405180910390fd5b612363856124a7565b6123d5576040517f08c379a000000000000000000000000000000000000000000000000000000000815260040180806020018281038252601d8152602001807f416464726573733a2063616c6c20746f206e6f6e2d636f6e747261637400000081525060200191505060405180910390fd5b6000808673ffffffffffffffffffffffffffffffffffffffff1685876040518082805190602001908083835b602083106124245780518252602082019150602081019050602083039250612401565b6001836020036101000a03801982511681845116808217855250505050505090500191505060006040518083038185875af1925050503d8060008114612486576040519150601f19603f3d011682016040523d82523d6000602084013e61248b565b606091505b509150915061249b8282866124ba565b92505050949350505050565b600080823b905060008111915050919050565b606083156124ca5782905061257f565b6000835111156124dd5782518084602001fd5b816040517f08c379a00000000000000000000000000000000000000000000000000000000081526004018080602001828103825283818151815260200191508051906020019080838360005b83811015612544578082015181840152602081019050612529565b50505050905090810190601f1680156125715780820380516001836020036101000a031916815260200191505b509250505060405180910390fd5b939250505056fe4578706563746564204554482072657475726e20697320686967686572207468616e20636f6e747261637427732062616c616e63652e547265617375727920646f65736e277420686176652073756666696369656e742066756e64732e416464726573733a20696e73756666696369656e742062616c616e636520666f722063616c6c5468697320616464726573732063616e27742077697468647261772066756e64732066726f6d207472656173757279506f6f6c2069732063757272656e746c79206465706c6574656420666f72207468697320616d6f756e742070726f6d697365642e4572726f722c206465706f736974206d75737420626520686967686572207468616e20302e303135204554485361666545524332303a204552433230206f7065726174696f6e20646964206e6f74207375636365656445786368616e67652069732063757272656e746c79206f66666c696e652c20706c656173652074727920616761696e206c617465722ea2646970667358221220c964c85cb01cd87dd890550bcd45f03a35338fcc008946712dedae773fbbac9464736f6c63430007060033",
  "immutableReferences": {},
  "source": "// SPDX-License-Identifier: MIT\npragma solidity >=0.4.22 <0.9.0;\n\nimport \"./interfaces/UniversalERC20.sol\";\nimport \"./interfaces/Ownable.sol\";\nimport \"./interfaces/IUniswap.sol\";\nimport \"./ExchangeOracle.sol\";\n\ncontract ChromiumV2 {\n    using UniversalERC20 for IERC20;\n\n    event Received(address, uint256);\n    event Transfer(address indexed from, address indexed to, uint256 value);\n\n    // ********************************** CONTRACT CONTROL *********************************\n\n    /**\n     * @dev ERC20 type for CBLT token.\n     */\n    IERC20 public token;\n\n    /**\n     * @dev Cobalt oracle contract.\n     */\n    ExchangeOracle public oracle;\n\n    /**\n     * @dev total contract balance in ETH.\n     */\n    uint256 public contractBalance;\n\n    /**\n     * @dev Exchange status. True - On / False - Off\n     */\n    bool public chromiumStatus;\n\n    /**\n     * @dev Bool enables the sellCBLT function. True - On / False - Off\n     */\n    bool public buyStatus;\n\n    /**\n     * @dev Setter function changes the address of CBLT token.\n     */\n    function setToken() public {\n        // only devs\n        address newToken = oracle.addressChange(50, \"setToken\");\n        token = IERC20(newToken);\n    }\n\n    /**\n     * @dev\n     */\n    function getContractBalance() public view returns (uint256) {\n        return contractBalance;\n    }\n\n    /**\n     * @dev\n     */\n    function setOracle() public {\n        // only devs\n        address newOracle = oracle.addressChange(50, \"setOracle\");\n        oracle = ExchangeOracle(newOracle);\n    }\n\n    /**\n     * @dev\n     */\n    function setChromiumStatus() public {\n        // only devs\n        bool status = oracle.boolChange(50, \"setChromiumStatus\");\n        chromiumStatus = status;\n    }\n\n    /**\n     * @dev\n     */\n    function setBuyStatus() public {\n        // only devs\n        bool status = oracle.boolChange(50, \"setBuyStatus\");\n        buyStatus = status;\n    }\n\n    /**\n     * @dev\n     */\n    constructor(address _oracleAddress) {\n        token = IERC20(address(0x433C6E3D2def6E1fb414cf9448724EFB0399b698));\n        oracle = ExchangeOracle(_oracleAddress);\n        chromiumStatus = true;\n        buyStatus = true;\n        feeThreshold = 5e18;\n        poolThreshold = 10000;\n        flatFee = 3;\n        percentFee = 3;\n    }\n\n    /**\n     * @dev\n     */\n    receive() external payable {\n        contractBalance = SafeMath.add(contractBalance, msg.value);\n        emit Received(msg.sender, msg.value);\n    }\n\n    // ************************************ EXCHANGE ******************************************\n\n    /**\n     * @dev\n     */\n    uint256 public poolThreshold;\n\n    /**\n     * @dev\n     */\n    uint256 public highTokenPool;\n\n    /**\n     * @dev\n     */\n    uint256 public lowTokenPool;\n\n    /**\n     * @dev\n     */\n    function getPoolBalance(uint256 _poolNum) public view returns (uint256) {\n        if (_poolNum == 1) {\n            return highTokenPool;\n        } else {\n            return lowTokenPool;\n        }\n    }\n\n    /**\n     * @dev\n     */\n    function setThreshold() public {\n        // only devs\n        uint256 newLimit = oracle.numberChange(50, \"setThreshold\");\n        poolThreshold = newLimit;\n    }\n\n    function fundTokenPool(uint256 _poolType, uint256 _amount) public {\n        // only devs\n        if (_poolType == 1) {\n            IERC20(token).universalTransferFromSenderToThis(_amount);\n            highTokenPool = SafeMath.add(highTokenPool, _amount);\n        } else if (_poolType == 2) {\n            IERC20(token).universalTransferFromSenderToThis(_amount);\n            lowTokenPool = SafeMath.add(lowTokenPool, _amount);\n        }\n    }\n\n    /**\n     * @dev\n     */\n    modifier validBuy() {\n        require(\n            msg.value >= 15e15,\n            \"Error, deposit must be higher than 0.015 ETH\"\n        );\n        require(\n            chromiumStatus == true,\n            \"Exchange is currently offline, please try again later.\"\n        );\n        _;\n    }\n\n    /**\n     * @dev\n     */\n    modifier validSell() {\n        require(\n            chromiumStatus == true,\n            \"Exchange is currently offline, please try again later.\"\n        );\n        require(buyStatus == true, \"Buying feature is currently offline\");\n\n        _;\n    }\n\n    /**\n     * @dev\n     */\n    function expectedBuyReturn(uint256 _amount)\n        public\n        view\n        returns (\n            uint256,\n            uint256,\n            uint256\n        )\n    {\n        uint256 priceOfToken = oracle.priceOfToken(address(token));\n        uint256 balance;\n        uint256 tokenExpectedReturn;\n        uint256 fee;\n\n        (balance, fee) = calculateFee(_amount);\n        tokenExpectedReturn = SafeMath.mul(\n            1e18,\n            SafeMath.div(balance, priceOfToken)\n        );\n        return (tokenExpectedReturn, balance, fee);\n    }\n\n    /**\n     * @dev\n     */\n    function expectedSellReturn(uint256 _amount)\n        public\n        view\n        returns (uint256, uint256)\n    {\n        uint256 priceOfToken;\n        uint256 balance;\n        uint256 fee;\n\n        priceOfToken = oracle.priceOfToken(address(token));\n        (balance, fee) = calculateFee(SafeMath.mul(_amount, priceOfToken));\n        return (balance, fee);\n    }\n\n    /**\n     * @dev\n     */\n    function calculateFee(uint256 _amount)\n        public\n        view\n        returns (uint256, uint256)\n    {\n        uint256 newBalance;\n        uint256 fee;\n\n        if (_amount > feeThreshold) {\n            fee = SafeMath.multiply(_amount, percentFee, 1000);\n            newBalance = SafeMath.sub(_amount, fee);\n        } else {\n            uint256 ETHprice = oracle.priceOfETH();\n            uint256 ETHinUSD = SafeMath.div(100000000000000000000, ETHprice);\n            fee = SafeMath.mul(ETHinUSD, flatFee);\n            newBalance = SafeMath.sub(_amount, fee);\n        }\n\n        return (newBalance, fee);\n    }\n\n    /**\n     * @dev\n     */\n    function buyCBLT() public payable validBuy {\n        uint256 tokensOwed;\n        uint256 newBalance;\n        uint256 fee;\n\n        (tokensOwed, newBalance, fee) = expectedBuyReturn(msg.value);\n\n        if (tokensOwed >= poolThreshold) {\n            require(\n                tokensOwed < highTokenPool,\n                \"Pool is currently depleted for this amount promised.\"\n            );\n            highTokenPool = SafeMath.sub(highTokenPool, tokensOwed);\n        } else {\n            require(\n                tokensOwed < lowTokenPool,\n                \"Pool is currently depleted for this amount promised.\"\n            );\n            lowTokenPool = SafeMath.sub(lowTokenPool, tokensOwed);\n        }\n\n        totalFeeBalance = SafeMath.add(totalFeeBalance, fee);\n        contractBalance = SafeMath.add(contractBalance, newBalance);\n        IERC20(token).universalTransfer(msg.sender, tokensOwed);\n    }\n\n    /**\n     * @dev\n     */\n    function sellCBLT(uint256 _amount) public payable {\n        uint256 newBalance;\n        uint256 fee;\n\n        (newBalance, fee) = expectedSellReturn(_amount);\n        require(\n            newBalance < contractBalance,\n            \"Expected ETH return is higher than contract's balance.\"\n        );\n        totalFeeBalance = SafeMath.add(totalFeeBalance, fee);\n\n        IERC20(token).universalTransferFromSenderToThis(\n            SafeMath.mul(_amount, 1e18)\n        );\n        payable(msg.sender).transfer(newBalance);\n    }\n\n    //**************************************** FEE *****************************************\n\n    /**\n     * @dev\n     */\n    address public WithdrawContract;\n\n    /**\n     * @dev\n     */\n    uint256 public feeThreshold;\n\n    /**\n     * @dev Variable for staking flat fee.\n     */\n    uint256 public flatFee;\n\n    /**\n     * @dev Variable for staking flat fee.\n     */\n    uint256 public percentFee;\n\n    /**\n     * @dev Saving running fee total\n     */\n    uint256 public totalFeeBalance;\n\n    /**\n     * @dev\n     */\n    function setContract() public {\n        address treasuryAddress = oracle.addressChange(50, \"setContract\");\n        WithdrawContract = treasuryAddress;\n    }\n\n    /**\n     * @dev\n     */\n    function getTotalBalance() public view returns (uint256) {\n        return totalFeeBalance;\n    }\n\n    /**\n     * @dev transfers funds to an approved contract\n     */\n    function withdrawFees(uint256 _amount) public payable onlyTreasury {\n        require(\n            _amount <= totalFeeBalance,\n            \"Treasury doesn't have sufficient funds.\"\n        );\n        totalFeeBalance = SafeMath.sub(totalFeeBalance, _amount);\n        payable(msg.sender).transfer(_amount);\n    }\n\n    /**\n     * @dev Setter for staking flat fee.\n     * @notice This action can only be perform under dev vote.\n     */\n    function newFlatFee() public {\n        uint256 newFee = oracle.numberChange(50, \"newFlatFee\");\n        flatFee = newFee;\n    }\n\n    /**\n     * @dev\n     */\n    function newPercentFee() public {\n        uint256 newFee = oracle.numberChange(50, \"newPercentFee\");\n        percentFee = newFee;\n    }\n\n    modifier onlyTreasury {\n        require(\n            msg.sender == WithdrawContract,\n            \"This address can't withdraw funds from treasury\"\n        );\n        _;\n    }\n\n    //*********************************** Exchange Migration *************************************\n\n    /**\n     * @dev\n     */\n    address public migrationExchange;\n\n    /**\n     * @dev\n     */\n    function setExchangeAddress() public {\n        // Only devs\n        address newExchange = oracle.addressChange(50, \"setExchangeAddress\");\n        migrationExchange = newExchange;\n    }\n\n    /**\n     * @dev\n     */\n    function assetsMigration() public payable {\n        uint256 totalTokenBalance = token.balanceOf(address(this));\n        uint256 totalETHBalance = address(this).balance;\n\n        IERC20(token).universalTransfer(migrationExchange, totalTokenBalance);\n        payable(msg.sender).transfer(totalETHBalance);\n    }\n}\n",
  "sourcePath": "/Users/christianroque/Desktop/TungstenGroupProject/contracts/ChromiumV2.sol",
  "compiler": {
    "name": "solc",
    "version": "0.7.6+commit.7338295f.Emscripten.clang"
  },
  "schemaVersion": "3.3.4",
  "updatedAt": "2021-06-29T04:54:50.870Z",
  "devdoc": {
    "kind": "dev",
    "methods": {
      "newFlatFee()": {
        "details": "Setter for staking flat fee."
      },
      "setToken()": {
        "details": "Setter function changes the address of CBLT token."
      },
      "withdrawFees(uint256)": {
        "details": "transfers funds to an approved contract"
      }
    },
    "stateVariables": {
      "buyStatus": {
        "details": "Bool enables the sellCBLT function. True - On / False - Off"
      },
      "chromiumStatus": {
        "details": "Exchange status. True - On / False - Off"
      },
      "contractBalance": {
        "details": "total contract balance in ETH."
      },
      "flatFee": {
        "details": "Variable for staking flat fee."
      },
      "oracle": {
        "details": "Cobalt oracle contract."
      },
      "percentFee": {
        "details": "Variable for staking flat fee."
      },
      "token": {
        "details": "ERC20 type for CBLT token."
      },
      "totalFeeBalance": {
        "details": "Saving running fee total"
      }
    },
    "version": 1
  },
  "userdoc": {
    "kind": "user",
    "methods": {
      "newFlatFee()": {
        "notice": "This action can only be perform under dev vote."
      }
    },
    "version": 1
  }
}