{
  "contractName": "ChromiumV2",
  "abi": [
    {
      "anonymous": false,
      "inputs": [
        {
          "indexed": false,
          "internalType": "address",
          "name": "",
          "type": "address"
        },
        {
          "indexed": false,
          "internalType": "uint256",
          "name": "",
          "type": "uint256"
        }
      ],
      "name": "Received",
      "type": "event"
    },
    {
      "anonymous": false,
      "inputs": [
        {
          "indexed": true,
          "internalType": "address",
          "name": "from",
          "type": "address"
        },
        {
          "indexed": true,
          "internalType": "address",
          "name": "to",
          "type": "address"
        },
        {
          "indexed": false,
          "internalType": "uint256",
          "name": "value",
          "type": "uint256"
        }
      ],
      "name": "Transfer",
      "type": "event"
    },
    {
      "inputs": [],
      "name": "totalFeeBalance",
      "outputs": [
        {
          "internalType": "uint256",
          "name": "",
          "type": "uint256"
        }
      ],
      "stateMutability": "view",
      "type": "function"
    },
    {
      "stateMutability": "payable",
      "type": "receive"
    },
    {
      "inputs": [
        {
          "internalType": "address",
          "name": "_newToken",
          "type": "address"
        }
      ],
      "name": "setToken",
      "outputs": [],
      "stateMutability": "nonpayable",
      "type": "function"
    },
    {
      "inputs": [
        {
          "internalType": "address",
          "name": "_newOracle",
          "type": "address"
        }
      ],
      "name": "setOracle",
      "outputs": [],
      "stateMutability": "nonpayable",
      "type": "function"
    },
    {
      "inputs": [
        {
          "internalType": "uint256",
          "name": "_newLimit",
          "type": "uint256"
        }
      ],
      "name": "setThreshHold",
      "outputs": [],
      "stateMutability": "nonpayable",
      "type": "function"
    },
    {
      "inputs": [
        {
          "internalType": "uint256",
          "name": "_poolType",
          "type": "uint256"
        },
        {
          "internalType": "uint256",
          "name": "_amount",
          "type": "uint256"
        }
      ],
      "name": "fundTokenPool",
      "outputs": [],
      "stateMutability": "nonpayable",
      "type": "function"
    },
    {
      "inputs": [
        {
          "internalType": "uint256",
          "name": "_amount",
          "type": "uint256"
        }
      ],
      "name": "sellCBLT",
      "outputs": [],
      "stateMutability": "payable",
      "type": "function"
    },
    {
      "inputs": [],
      "name": "buyCBLT",
      "outputs": [],
      "stateMutability": "payable",
      "type": "function"
    },
    {
      "inputs": [
        {
          "internalType": "address",
          "name": "_treasuryAddress",
          "type": "address"
        }
      ],
      "name": "setContract",
      "outputs": [],
      "stateMutability": "nonpayable",
      "type": "function"
    },
    {
      "inputs": [],
      "name": "getTotalBalance",
      "outputs": [
        {
          "internalType": "uint256",
          "name": "",
          "type": "uint256"
        }
      ],
      "stateMutability": "view",
      "type": "function"
    },
    {
      "inputs": [
        {
          "internalType": "uint256",
          "name": "_amount",
          "type": "uint256"
        }
      ],
      "name": "withdrawFees",
      "outputs": [],
      "stateMutability": "payable",
      "type": "function"
    },
    {
      "inputs": [
        {
          "internalType": "uint256",
          "name": "_newFee",
          "type": "uint256"
        }
      ],
      "name": "newFee",
      "outputs": [],
      "stateMutability": "nonpayable",
      "type": "function"
    }
  ],
  "bytecode": "0x6080604052600160025534801561001557600080fd5b506116d1806100256000396000f3fe6080604052600436106100a05760003560e01c806377ba05171161006457806377ba0517146102275780637adbf9731461026c578063877be93d146102bd5780639834331b146102f8578063ba1ad43814610326578063c60e487014610361576100fc565b80630c5ce3ae1461010157806312b583491461012c578063144fa6d7146101575780635e318e07146101a857806375f890ab146101d6576100fc565b366100fc577f88a5966d370b9919b20f3e2c13ff65706f196a4e32cc2c12bf57088f885258743334604051808373ffffffffffffffffffffffffffffffffffffffff1681526020018281526020019250505060405180910390a1005b600080fd5b34801561010d57600080fd5b5061011661036b565b6040518082815260200191505060405180910390f35b34801561013857600080fd5b50610141610371565b6040518082815260200191505060405180910390f35b34801561016357600080fd5b506101a66004803603602081101561017a57600080fd5b81019080803573ffffffffffffffffffffffffffffffffffffffff16906020019092919050505061037b565b005b6101d4600480360360208110156101be57600080fd5b81019080803590602001909291905050506103be565b005b3480156101e257600080fd5b50610225600480360360208110156101f957600080fd5b81019080803573ffffffffffffffffffffffffffffffffffffffff16906020019092919050505061051b565b005b34801561023357600080fd5b5061026a6004803603604081101561024a57600080fd5b81019080803590602001909291908035906020019092919050505061055f565b005b34801561027857600080fd5b506102bb6004803603602081101561028f57600080fd5b81019080803573ffffffffffffffffffffffffffffffffffffffff169060200190929190505050610632565b005b3480156102c957600080fd5b506102f6600480360360208110156102e057600080fd5b8101908080359060200190929190505050610676565b005b6103246004803603602081101561030e57600080fd5b8101908080359060200190929190505050610680565b005b34801561033257600080fd5b5061035f6004803603602081101561034957600080fd5b81019080803590602001909291905050506109f7565b005b610369610a01565b005b60065481565b6000600654905090565b806000806101000a81548173ffffffffffffffffffffffffffffffffffffffff021916908373ffffffffffffffffffffffffffffffffffffffff16021790555050565b600560009054906101000a900473ffffffffffffffffffffffffffffffffffffffff1673ffffffffffffffffffffffffffffffffffffffff163373ffffffffffffffffffffffffffffffffffffffff1614610464576040517f08c379a000000000000000000000000000000000000000000000000000000000815260040180806020018281038252602f815260200180611617602f913960400191505060405180910390fd5b6006548111156104bf576040517f08c379a00000000000000000000000000000000000000000000000000000000081526004018080602001828103825260278152602001806115a56027913960400191505060405180910390fd5b6104cb60065482610ddb565b6006819055503373ffffffffffffffffffffffffffffffffffffffff166108fc829081150290604051600060405180830381858888f19350505050158015610517573d6000803e3d6000fd5b5050565b80600560006101000a81548173ffffffffffffffffffffffffffffffffffffffff021916908373ffffffffffffffffffffffffffffffffffffffff16021790555050565b60018214156105c8576105b18160008054906101000a900473ffffffffffffffffffffffffffffffffffffffff1673ffffffffffffffffffffffffffffffffffffffff16610df290919063ffffffff16565b6105bd60035482610ea8565b60038190555061062e565b600282141561062d5761061a8160008054906101000a900473ffffffffffffffffffffffffffffffffffffffff1673ffffffffffffffffffffffffffffffffffffffff16610df290919063ffffffff16565b61062660045482610ea8565b6004819055505b5b5050565b80600160006101000a81548173ffffffffffffffffffffffffffffffffffffffff021916908373ffffffffffffffffffffffffffffffffffffffff16021790555050565b8060028190555050565b6000806000600160009054906101000a900473ffffffffffffffffffffffffffffffffffffffff1673ffffffffffffffffffffffffffffffffffffffff1663f3167c0560008054906101000a900473ffffffffffffffffffffffffffffffffffffffff166040518263ffffffff1660e01b8152600401808273ffffffffffffffffffffffffffffffffffffffff16815260200191505060206040518083038186803b15801561072e57600080fd5b505afa158015610742573d6000803e3d6000fd5b505050506040513d602081101561075857600080fd5b81019080805190602001909291905050509050600084116107c4576040517f08c379a00000000000000000000000000000000000000000000000000000000081526004018080602001828103825260258152602001806115f26025913960400191505060405180910390fd5b600254841115610860576107d88482610ec4565b92506108238460008054906101000a900473ffffffffffffffffffffffffffffffffffffffff1673ffffffffffffffffffffffffffffffffffffffff16610df290919063ffffffff16565b61083a846108358660036103e8610efb565b610ddb565b91506108556006546108508660036103e8610efb565b610ea8565b6006819055506109aa565b61086a8482610ec4565b92506108b58460008054906101000a900473ffffffffffffffffffffffffffffffffffffffff1673ffffffffffffffffffffffffffffffffffffffff16610df290919063ffffffff16565b6000600160009054906101000a900473ffffffffffffffffffffffffffffffffffffffff1673ffffffffffffffffffffffffffffffffffffffff1663858b033d6040518163ffffffff1660e01b815260040160206040518083038186803b15801561091f57600080fd5b505afa158015610933573d6000803e3d6000fd5b505050506040513d602081101561094957600080fd5b81019080805190602001909291905050509050600061097168056bc75e2d6310000083610f12565b90506109888661098383600754610ec4565b610ddb565b93506109a160065461099c83600754610ec4565b610ea8565b60068190555050505b3373ffffffffffffffffffffffffffffffffffffffff166108fc839081150290604051600060405180830381858888f193505050501580156109f0573d6000803e3d6000fd5b5050505050565b8060078190555050565b600080600160009054906101000a900473ffffffffffffffffffffffffffffffffffffffff1673ffffffffffffffffffffffffffffffffffffffff1663f3167c0560008054906101000a900473ffffffffffffffffffffffffffffffffffffffff166040518263ffffffff1660e01b8152600401808273ffffffffffffffffffffffffffffffffffffffff16815260200191505060206040518083038186803b158015610aad57600080fd5b505afa158015610ac1573d6000803e3d6000fd5b505050506040513d6020811015610ad757600080fd5b810190808051906020019092919050505090506000813411610b44576040517f08c379a000000000000000000000000000000000000000000000000000000000815260040180806020018281038252602c815260200180611646602c913960400191505060405180910390fd5b674563918244f40000341115610c1457610b6b34610b663460036103e8610efb565b610ddb565b9050610b778183610f12565b92506003548310610bf0576040517f08c379a000000000000000000000000000000000000000000000000000000000815260040180806020018281038252601e8152602001807f4e6f7420656e6f75676820746f6b656e7320696e207468697320706f6f6c000081525060200191505060405180910390fd5b610c09600654610c048360036103e8610efb565b610ea8565b600681905550610d8a565b6000600160009054906101000a900473ffffffffffffffffffffffffffffffffffffffff1673ffffffffffffffffffffffffffffffffffffffff1663858b033d6040518163ffffffff1660e01b815260040160206040518083038186803b158015610c7e57600080fd5b505afa158015610c92573d6000803e3d6000fd5b505050506040513d6020811015610ca857600080fd5b810190808051906020019092919050505090506000610cd068056bc75e2d6310000083610f12565b9050610ce734610ce283600754610ec4565b610ddb565b9250610cf38385610f12565b94506004548510610d6c576040517f08c379a000000000000000000000000000000000000000000000000000000000815260040180806020018281038252601e8152602001807f4e6f7420656e6f75676820746f6b656e7320696e207468697320706f6f6c000081525060200191505060405180910390fd5b610d8134610d7c83600754610ec4565b610ddb565b60068190555050505b610dd5338460008054906101000a900473ffffffffffffffffffffffffffffffffffffffff1673ffffffffffffffffffffffffffffffffffffffff16610f2b9092919063ffffffff16565b50505050565b600082821115610de757fe5b818303905092915050565b6000811415610e0057610ea4565b610e0982610fd3565b15610e755780341115610e70573373ffffffffffffffffffffffffffffffffffffffff166108fc610e438334610ddb90919063ffffffff16565b9081150290604051600060405180830381858888f19350505050158015610e6e573d6000803e3d6000fd5b505b610ea3565b610ea23330838573ffffffffffffffffffffffffffffffffffffffff166110b3909392919063ffffffff16565b5b5b5050565b600080828401905083811015610eba57fe5b8091505092915050565b600080831415610ed75760009050610ef5565b6000828402905082848281610ee857fe5b0414610ef057fe5b809150505b92915050565b60008183850281610f0857fe5b0490509392505050565b600080828481610f1e57fe5b0490508091505092915050565b600080821415610f3e5760019050610fcc565b610f4784610fd3565b15610f9c578273ffffffffffffffffffffffffffffffffffffffff166108fc839081150290604051600060405180830381858888f19350505050158015610f92573d6000803e3d6000fd5b5060019050610fcc565b610fc783838673ffffffffffffffffffffffffffffffffffffffff166111749092919063ffffffff16565b600190505b9392505050565b600073c02aaa39b223fe8d0a0e5c4f27ead9083c756cc273ffffffffffffffffffffffffffffffffffffffff168273ffffffffffffffffffffffffffffffffffffffff161480611062575073eeeeeeeeeeeeeeeeeeeeeeeeeeeeeeeeeeeeeeee73ffffffffffffffffffffffffffffffffffffffff168273ffffffffffffffffffffffffffffffffffffffff16145b806110ac575073c778417e063141139fce010982780140aa0cd5ab73ffffffffffffffffffffffffffffffffffffffff168273ffffffffffffffffffffffffffffffffffffffff16145b9050919050565b61116e846323b872dd60e01b858585604051602401808473ffffffffffffffffffffffffffffffffffffffff1681526020018373ffffffffffffffffffffffffffffffffffffffff1681526020018281526020019350505050604051602081830303815290604052907bffffffffffffffffffffffffffffffffffffffffffffffffffffffff19166020820180517bffffffffffffffffffffffffffffffffffffffffffffffffffffffff8381831617835250505050611216565b50505050565b6112118363a9059cbb60e01b8484604051602401808373ffffffffffffffffffffffffffffffffffffffff16815260200182815260200192505050604051602081830303815290604052907bffffffffffffffffffffffffffffffffffffffffffffffffffffffff19166020820180517bffffffffffffffffffffffffffffffffffffffffffffffffffffffff8381831617835250505050611216565b505050565b6000611278826040518060400160405280602081526020017f5361666545524332303a206c6f772d6c6576656c2063616c6c206661696c65648152508573ffffffffffffffffffffffffffffffffffffffff166113059092919063ffffffff16565b90506000815111156113005780806020019051602081101561129957600080fd5b81019080805190602001909291905050506112ff576040517f08c379a000000000000000000000000000000000000000000000000000000000815260040180806020018281038252602a815260200180611672602a913960400191505060405180910390fd5b5b505050565b6060611314848460008561131d565b90509392505050565b606082471015611378576040517f08c379a00000000000000000000000000000000000000000000000000000000081526004018080602001828103825260268152602001806115cc6026913960400191505060405180910390fd5b611381856114c5565b6113f3576040517f08c379a000000000000000000000000000000000000000000000000000000000815260040180806020018281038252601d8152602001807f416464726573733a2063616c6c20746f206e6f6e2d636f6e747261637400000081525060200191505060405180910390fd5b6000808673ffffffffffffffffffffffffffffffffffffffff1685876040518082805190602001908083835b60208310611442578051825260208201915060208101905060208303925061141f565b6001836020036101000a03801982511681845116808217855250505050505090500191505060006040518083038185875af1925050503d80600081146114a4576040519150601f19603f3d011682016040523d82523d6000602084013e6114a9565b606091505b50915091506114b98282866114d8565b92505050949350505050565b600080823b905060008111915050919050565b606083156114e85782905061159d565b6000835111156114fb5782518084602001fd5b816040517f08c379a00000000000000000000000000000000000000000000000000000000081526004018080602001828103825283818151815260200191508051906020019080838360005b83811015611562578082015181840152602081019050611547565b50505050905090810190601f16801561158f5780820380516001836020036101000a031916815260200191505b509250505060405180910390fd5b939250505056fe547265617375727920646f65736e277420686176652073756666696369656e742066756e64732e416464726573733a20696e73756666696369656e742062616c616e636520666f722063616c6c596f75206e65656420746f2073656c6c206174206c6561737420736f6d6520746f6b656e735468697320616464726573732063616e27742077697468647261772066756e64732066726f6d2074726561737572794572726f722c206465706f736974206d75737420626520686967686572207468616e20302e303135204554485361666545524332303a204552433230206f7065726174696f6e20646964206e6f742073756363656564a26469706673582212208e7c363a4210f5b4ef36baaad0870c63159cf7843f41f7b9044a4190ca65be5a64736f6c63430007060033",
  "immutableReferences": {},
  "source": "// SPDX-License-Identifier: MIT\npragma solidity >=0.4.22 <0.9.0;\n\nimport \"./interfaces/UniversalERC20.sol\";\nimport \"./interfaces/Ownable.sol\";\nimport \"./interfaces/IUniswap.sol\";\nimport \"./ExchangeOracle.sol\";\n\ncontract ChromiumV2 {\n    using UniversalERC20 for IERC20;\n\n    event Received(address, uint256);\n    event Transfer(address indexed from, address indexed to, uint256 value);\n\n    IERC20 token;\n\n    function setToken(address _newToken) public {\n        // only devs\n        token = IERC20(_newToken);\n    }\n\n    ExchangeOracle oracle;\n\n    function setOracle(address _newOracle) public {\n        // only devs\n        oracle = ExchangeOracle(_newOracle);\n    }\n\n    uint256 poolTreshhold = 1;\n\n    function setThreshHold(uint256 _newLimit) public {\n        // only devs\n        poolTreshhold = _newLimit;\n    }\n\n    uint256 highTokenPool;\n    uint256 lowTokenPool;\n\n    function fundTokenPool(uint256 _poolType, uint256 _amount) public {\n        // only devs\n        if (_poolType == 1) {\n            IERC20(token).universalTransferFromSenderToThis(_amount);\n            highTokenPool = SafeMath.add(highTokenPool, _amount);\n        } else if (_poolType == 2) {\n            IERC20(token).universalTransferFromSenderToThis(_amount);\n            lowTokenPool = SafeMath.add(lowTokenPool, _amount);\n        }\n    }\n\n    function sellCBLT(uint256 _amount) public payable {\n        uint256 netAmount;\n        uint256 owedToUser;\n        uint256 priceOfToken = oracle.priceOfToken(address(token));\n\n        require(_amount > 0, \"You need to sell at least some tokens\");\n\n        if (_amount > poolTreshhold) {\n            netAmount = SafeMath.mul(_amount, priceOfToken);\n            IERC20(token).universalTransferFromSenderToThis(_amount);\n\n            owedToUser = SafeMath.sub(\n                _amount,\n                SafeMath.multiply(_amount, 3, 1000)\n            );\n\n            totalFeeBalance = SafeMath.add(\n                totalFeeBalance,\n                SafeMath.multiply(_amount, 3, 1000)\n            );\n        } else {\n            netAmount = SafeMath.mul(_amount, priceOfToken);\n            IERC20(token).universalTransferFromSenderToThis(_amount);\n\n            uint256 ETHprice = oracle.priceOfETH();\n            uint256 ETHinUSD = SafeMath.div(100000000000000000000, ETHprice);\n\n            owedToUser = SafeMath.sub(_amount, SafeMath.mul(ETHinUSD, fee));\n\n            totalFeeBalance = SafeMath.add(\n                totalFeeBalance,\n                SafeMath.mul(ETHinUSD, fee)\n            );\n        }\n\n        payable(msg.sender).transfer(owedToUser);\n    }\n\n    function buyCBLT() public payable {\n        uint256 tokensOwed;\n        uint256 priceOfToken = oracle.priceOfToken(address(token));\n        uint256 newBalance;\n\n        require(\n            msg.value > priceOfToken,\n            \"Error, deposit must be higher than 0.015 ETH\"\n        );\n\n        if (msg.value > 5e18) {\n            newBalance = SafeMath.sub(\n                msg.value,\n                SafeMath.multiply(msg.value, 3, 1000)\n            );\n\n            tokensOwed = SafeMath.div(newBalance, priceOfToken);\n            require(\n                tokensOwed < highTokenPool,\n                \"Not enough tokens in this pool\"\n            );\n\n            totalFeeBalance = SafeMath.add(\n                totalFeeBalance,\n                SafeMath.multiply(newBalance, 3, 1000)\n            );\n        } else {\n            uint256 ETHprice = oracle.priceOfETH();\n            uint256 ETHinUSD = SafeMath.div(100000000000000000000, ETHprice);\n\n            newBalance = SafeMath.sub(msg.value, SafeMath.mul(ETHinUSD, fee));\n\n            tokensOwed = SafeMath.div(newBalance, priceOfToken);\n\n            require(\n                tokensOwed < lowTokenPool,\n                \"Not enough tokens in this pool\"\n            );\n\n            totalFeeBalance = SafeMath.sub(\n                msg.value,\n                SafeMath.mul(ETHinUSD, fee)\n            );\n        }\n        IERC20(token).universalTransfer(msg.sender, tokensOwed);\n    }\n\n    // Fallback method for receiving ETH payments\n    receive() external payable {\n        emit Received(msg.sender, msg.value);\n    }\n\n    //*********************************** FEE *************************************\n\n    /**\n     * @dev\n     */\n    address WithdrawContract;\n\n    /**\n     * @dev\n     */\n    function setContract(address _treasuryAddress) public {\n        WithdrawContract = _treasuryAddress;\n    }\n\n    /**\n     * @dev Saving running fee total\n     */\n    uint256 public totalFeeBalance;\n\n    /**\n     * @dev\n     */\n    function getTotalBalance() public view returns (uint256) {\n        return totalFeeBalance;\n    }\n\n    /**\n     * @dev transfers funds to an approved contract\n     */\n    function withdrawFees(uint256 _amount) public payable onlyTreasury {\n        require(\n            _amount <= totalFeeBalance,\n            \"Treasury doesn't have sufficient funds.\"\n        );\n        totalFeeBalance = SafeMath.sub(totalFeeBalance, _amount);\n        payable(msg.sender).transfer(_amount);\n    }\n\n    /**\n     * @dev Variable for staking flat fee.\n     */\n    uint256 fee;\n\n    /**\n     * @dev Setter for staking flat fee.\n     * @param _newFee new uint fee value.\n     * @notice This action can only be perform under dev vote.\n     */\n    function newFee(uint256 _newFee) public {\n        fee = _newFee;\n    }\n\n    modifier onlyTreasury {\n        require(\n            msg.sender == WithdrawContract,\n            \"This address can't withdraw funds from treasury\"\n        );\n        _;\n    }\n}\n\n// TO DO:\n// - Add in the Donate Functions\n// - Figure out threshold amount\n// - Make sure oracle connection goes through and price/amounts convert correctly\n\n// ===================================================== OLD CODE =====================================================\n\n//pragma solidity >=0.4.22 <0.9.0;\n//\n//import \"./interfaces/UniversalERC20.sol\";\n//import \"./interfaces/Ownable.sol\";\n//import \"./interfaces/IUniswap.sol\";\n//import \"./ExchangeOracle.sol\";\n//\n//contract ChromiumV2 is Ownable {\n// using UniversalERC20 for IERC20;\n// // used to keep track of tokens in contract\n// mapping(uint256 => uint256) public cbltLiquidity;\n// uint256 cbltLiquidityMaxAmount;\n// // eth contract address\n// IERC20 private constant ETH_ADDRESS =\n//     IERC20(0xEeeeeEeeeEeEeeEeEeEeeEEEeeeeEeeeeeeeEEeE);\n// IUniswap private constant uniswap =\n//     IUniswap(0x7a250d5630B4cF539739dF2C5dAcb4c659F2488D);\n// // initializing objects\n// IERC20 cbltToken;\n// ExchangeOracle oracle;\n// // emits when chromium is used\n// event ChromiumTrade(\n//     address indexed _from,\n//     address _fromToken,\n//     address _destToken,\n//     uint256 _fromAmount,\n//     uint256 _cbltAmount\n// );\n// /**\n//  * pass in the oracle contract so that it can pull info from it\n//  */\n// constructor(\n//     address _cbltToken,\n//     address _oracle,\n//     uint256 _liquidityCbltPoolAmount\n// ) {\n//     cbltToken = IERC20(_cbltToken);\n//     oracle = ExchangeOracle(_oracle);\n//     cbltLiquidityMaxAmount = _liquidityCbltPoolAmount;\n// }\n// // sets CBLT token  // only devs\n// function setCbltToken(address _cblt) external {\n//     cbltToken = IERC20(_cblt);\n// }\n// // only devs\n// function setOracle(address _oracle) external {\n//     oracle = ExchangeOracle(_oracle);\n// }\n// // only devs\n// function changeCbltLiquidityLimit(uint256 _liquidityLimit) external {\n//     cbltLiquidityMaxAmount = _liquidityLimit;\n// }\n// /************ chromium functions ************/\n// function getExchangeRate() public view returns (uint256) {\n//     (uint256 sellTokenValue, uint256 buyTokenValue, bool success) =\n//         oracle.priceOfPair(path[0], path[1]);\n//     if (success) {\n//         amounts = new uint256[](path.length);\n//         amounts[0] = amountIn;\n//         amountIn = SafeMath.sub(\n//             amountIn,\n//             SafeMath.mul(amountIn, SafeMath.div(3, 1000))\n//         );\n//         uint256 returnAmount =\n//             SafeMath.mul(\n//                 amountIn,\n//                 SafeMath.findRate(sellTokenValue, buyTokenValue)\n//             );\n//         amounts[1] = returnAmount;\n//     } else {\n//         amountIn = SafeMath.sub(\n//             amountIn,\n//             SafeMath.mul(amountIn, SafeMath.div(3, 1000))\n//         );\n//         amounts = uniswap.getAmountsOut(amountIn, path);\n//     }\n// }\n// /**\n//  * @dev this function will swap cblt tokens for tokens that are allowed\n//  */\n// function swapTokens(address[] calldata path, uint256 amount)\n//     external\n//     payable\n//     returns (uint256)\n// {\n//     require(\n//         path[0] != address(cbltToken) && path[1] != address(cbltToken),\n//         \"Cblt can't be traded with this function\"\n//     );\n//     uint256[] memory amounts = getExchangeRate(amount, path);\n//     if (IERC20(path[0]) == ETH_ADDRESS) {\n//         require(msg.value != 0, \"Chromium:: msg.value can not equal 0\");\n//         require(\n//             tokenLiquidity[path[1]] >= amounts[1],\n//             \"Not enough tokens in Treasury.\"\n//         );\n//         IERC20(path[0]).universalTransferFromSenderToThis(amount);\n//         tokenLiquidity[path[0]] = SafeMath.add(\n//             tokenLiquidity[path[0]],\n//             amount\n//         );\n//         IERC20(path[1]).universalTransfer(msg.sender, amounts[1]);\n//         tokenLiquidity[path[1]] = SafeMath.sub(\n//             tokenLiquidity[path[1]],\n//             amounts[1]\n//         );\n//         emit ChromiumTrade(\n//             msg.sender,\n//             path[0],\n//             path[1],\n//             amount,\n//             amounts[1]\n//         );\n//         return amounts[1];\n//     } else {\n//         require(\n//             tokenLiquidity[path[1]] >= amounts[1],\n//             \"Chromium:: Not enough tokens in Treasury.\"\n//         );\n//         IERC20(path[0]).universalTransferFromSenderToThis(amount);\n//         tokenLiquidity[path[0]] = SafeMath.add(\n//             tokenLiquidity[path[0]],\n//             amount\n//         );\n//         IERC20(path[1]).universalTransfer(msg.sender, amounts[1]);\n//         emit ChromiumTrade(\n//             msg.sender,\n//             path[0],\n//             path[1],\n//             amount,\n//             amounts[1]\n//         );\n//         return amounts[1];\n//     }\n// }\n// function swapCblt(address[] calldata path, uint256 amount)\n//     external\n//     payable\n//     returns (uint256)\n// {\n//     require(\n//         path[0] == address(cbltToken),\n//         \"Chromium:: fromToken needs to be cbltToken.\"\n//     );\n//     uint256[] memory amounts = getExchangeRate(amount, path);\n//     require(\n//         tokenLiquidity[path[1]] >= amounts[1],\n//         \"Not enough tokens in treasury.\"\n//     );\n//     cbltToken.universalTransferFromSenderToThis(amount);\n//     uint256 temp = getCbltPool(amount);\n//     cbltLiquidity[temp] = SafeMath.add(cbltLiquidity[temp], amount);\n//     IERC20(path[1]).universalTransfer(msg.sender, amounts[1]);\n//     tokenLiquidity[path[1]] = SafeMath.sub(\n//         tokenLiquidity[path[1]],\n//         amounts[1]\n//     );\n//     emit ChromiumTrade(msg.sender, path[0], path[1], amount, amounts[1]);\n//     return amounts[1];\n// }\n// function swapForCblt(address[] calldata path, uint256 amount)\n//     external\n//     payable\n//     returns (uint256)\n// {\n//     require(\n//         path[1] == address(cbltToken),\n//         \"Chromium:: destToken needs to be cbltToken.\"\n//     );\n//     uint256[] memory amounts = getExchangeRate(amount, path);\n//     uint256 temp = getCbltPool(amounts[1]);\n//     if (IERC20(path[0]) == ETH_ADDRESS) {\n//         require(msg.value != 0, \"Chromium:: msg.value can not equal 0\");\n//         require(\n//             cbltLiquidity[temp] >= amounts[1],\n//             \"Not enough cblt tokens in pool for 1000 and up in Treasury.\"\n//         );\n//         IERC20(path[0]).universalTransferFromSenderToThis(amount);\n//         tokenLiquidity[path[0]] = SafeMath.add(\n//             tokenLiquidity[path[0]],\n//             amount\n//         );\n//         cbltLiquidity[temp] = SafeMath.sub(cbltLiquidity[temp], amounts[1]);\n//         cbltToken.universalTransfer(msg.sender, amounts[1]);\n//         emit ChromiumTrade(\n//             msg.sender,\n//             path[0],\n//             path[1],\n//             amount,\n//             amounts[1]\n//         );\n//         return amounts[1];\n//     } else {\n//         require(\n//             cbltLiquidity[temp] >= amounts[1],\n//             \"Not enough cblt tokens in pool for 1000 and down in Treasury.\"\n//         );\n//         IERC20(path[0]).universalTransferFromSenderToThis(amount);\n//         tokenLiquidity[path[0]] = SafeMath.add(\n//             tokenLiquidity[path[0]],\n//             amount\n//         );\n//         cbltLiquidity[temp] = SafeMath.sub(cbltLiquidity[temp], amounts[1]);\n//         cbltToken.universalTransfer(msg.sender, amounts[1]);\n//         emit ChromiumTrade(\n//             msg.sender,\n//             path[0],\n//             path[1],\n//             amount,\n//             amounts[1]\n//         );\n//         return amounts[1];\n//     }\n// }\n// function addCbltToPool(uint256 _poolNumber, uint256 _amount)\n//     external\n//     onlyOwner\n// {\n//     cbltToken.universalTransferFromSenderToThis(_amount);\n//     cbltLiquidity[_poolNumber] = SafeMath.add(\n//         cbltLiquidity[_poolNumber],\n//         _amount\n//     );\n// }\n// function addNewTokenToPool(address _token, uint256 _amount) external {\n//     IERC20(_token).universalTransferFromSenderToThis(_amount);\n//     tokenLiquidity[_token] = SafeMath.add(tokenLiquidity[_token], _amount);\n//     tokenApproval[_token] = TokenInfo(false, false);\n// }\n// function retrieveTokens(IERC20 _token, uint256 amount) external onlyOwner {\n//     require(\n//         cbltToken != _token,\n//         \"Chromium:: can't withdraw CBLT with this function.\"\n//     );\n//     require(\n//         amount <= tokenLiquidity[address(_token)],\n//         \"Chromium:: not enough tokens in exchange.\"\n//     );\n//     _token.universalTransfer(msg.sender, amount);\n//     tokenLiquidity[address(_token)] = SafeMath.sub(\n//         tokenLiquidity[address(_token)],\n//         amount\n//     );\n// }\n// function retrieveCBLT(uint256 liquidityPool, uint256 amount)\n//     external\n//     onlyOwner\n// {\n//     require(\n//         amount <= cbltLiquidity[liquidityPool],\n//         \"Chromium:: not enough CBLT in this liquidity pool.\"\n//     );\n//     cbltToken.universalTransfer(msg.sender, amount);\n//     cbltLiquidity[liquidityPool] = SafeMath.sub(\n//         cbltLiquidity[liquidityPool],\n//         amount\n//     );\n// }\n// function getCbltPool(uint256 amount) internal view returns (uint256) {\n//     if (amount >= cbltLiquidityMaxAmount) {\n//         return 1;\n//     } else {\n//         return 2;\n//     }\n// }\n// // fallback function\n// receive() external payable {}\n//}\n//\n",
  "sourcePath": "/Users/christianroque/Desktop/TungstenGroupProject/contracts/ChromiumV2.sol",
  "compiler": {
    "name": "solc",
    "version": "0.7.6+commit.7338295f.Emscripten.clang"
  },
  "schemaVersion": "3.3.4",
  "updatedAt": "2021-06-17T17:09:23.983Z",
  "devdoc": {
    "kind": "dev",
    "methods": {
      "newFee(uint256)": {
        "details": "Setter for staking flat fee.",
        "params": {
          "_newFee": "new uint fee value."
        }
      },
      "withdrawFees(uint256)": {
        "details": "transfers funds to an approved contract"
      }
    },
    "stateVariables": {
      "fee": {
        "details": "Variable for staking flat fee."
      },
      "totalFeeBalance": {
        "details": "Saving running fee total"
      }
    },
    "version": 1
  },
  "userdoc": {
    "kind": "user",
    "methods": {
      "newFee(uint256)": {
        "notice": "This action can only be perform under dev vote."
      }
    },
    "version": 1
  }
}