{
  "contractName": "ChromiumV2",
  "abi": [
    {
      "inputs": [
        {
          "internalType": "address",
          "name": "_oracleAddress",
          "type": "address"
        }
      ],
      "stateMutability": "nonpayable",
      "type": "constructor"
    },
    {
      "anonymous": false,
      "inputs": [
        {
          "indexed": false,
          "internalType": "address",
          "name": "",
          "type": "address"
        },
        {
          "indexed": false,
          "internalType": "uint256",
          "name": "",
          "type": "uint256"
        }
      ],
      "name": "Received",
      "type": "event"
    },
    {
      "anonymous": false,
      "inputs": [
        {
          "indexed": true,
          "internalType": "address",
          "name": "from",
          "type": "address"
        },
        {
          "indexed": true,
          "internalType": "address",
          "name": "to",
          "type": "address"
        },
        {
          "indexed": false,
          "internalType": "uint256",
          "name": "value",
          "type": "uint256"
        }
      ],
      "name": "Transfer",
      "type": "event"
    },
    {
      "inputs": [],
      "name": "WithdrawContract",
      "outputs": [
        {
          "internalType": "address",
          "name": "",
          "type": "address"
        }
      ],
      "stateMutability": "view",
      "type": "function"
    },
    {
      "inputs": [],
      "name": "buyStatus",
      "outputs": [
        {
          "internalType": "bool",
          "name": "",
          "type": "bool"
        }
      ],
      "stateMutability": "view",
      "type": "function"
    },
    {
      "inputs": [],
      "name": "chromiumStatus",
      "outputs": [
        {
          "internalType": "bool",
          "name": "",
          "type": "bool"
        }
      ],
      "stateMutability": "view",
      "type": "function"
    },
    {
      "inputs": [],
      "name": "contractBalance",
      "outputs": [
        {
          "internalType": "uint256",
          "name": "",
          "type": "uint256"
        }
      ],
      "stateMutability": "view",
      "type": "function"
    },
    {
      "inputs": [],
      "name": "feeThreshold",
      "outputs": [
        {
          "internalType": "uint256",
          "name": "",
          "type": "uint256"
        }
      ],
      "stateMutability": "view",
      "type": "function"
    },
    {
      "inputs": [],
      "name": "flatFee",
      "outputs": [
        {
          "internalType": "uint256",
          "name": "",
          "type": "uint256"
        }
      ],
      "stateMutability": "view",
      "type": "function"
    },
    {
      "inputs": [],
      "name": "highTokenPool",
      "outputs": [
        {
          "internalType": "uint256",
          "name": "",
          "type": "uint256"
        }
      ],
      "stateMutability": "view",
      "type": "function"
    },
    {
      "inputs": [],
      "name": "lowTokenPool",
      "outputs": [
        {
          "internalType": "uint256",
          "name": "",
          "type": "uint256"
        }
      ],
      "stateMutability": "view",
      "type": "function"
    },
    {
      "inputs": [],
      "name": "migrationExchange",
      "outputs": [
        {
          "internalType": "address",
          "name": "",
          "type": "address"
        }
      ],
      "stateMutability": "view",
      "type": "function"
    },
    {
      "inputs": [],
      "name": "oracle",
      "outputs": [
        {
          "internalType": "contract ExchangeOracle",
          "name": "",
          "type": "address"
        }
      ],
      "stateMutability": "view",
      "type": "function"
    },
    {
      "inputs": [],
      "name": "percentFee",
      "outputs": [
        {
          "internalType": "uint256",
          "name": "",
          "type": "uint256"
        }
      ],
      "stateMutability": "view",
      "type": "function"
    },
    {
      "inputs": [],
      "name": "poolThreshold",
      "outputs": [
        {
          "internalType": "uint256",
          "name": "",
          "type": "uint256"
        }
      ],
      "stateMutability": "view",
      "type": "function"
    },
    {
      "inputs": [],
      "name": "token",
      "outputs": [
        {
          "internalType": "contract IERC20",
          "name": "",
          "type": "address"
        }
      ],
      "stateMutability": "view",
      "type": "function"
    },
    {
      "inputs": [],
      "name": "totalFeeBalance",
      "outputs": [
        {
          "internalType": "uint256",
          "name": "",
          "type": "uint256"
        }
      ],
      "stateMutability": "view",
      "type": "function"
    },
    {
      "stateMutability": "payable",
      "type": "receive"
    },
    {
      "inputs": [
        {
          "internalType": "address",
          "name": "_newToken",
          "type": "address"
        }
      ],
      "name": "setToken",
      "outputs": [],
      "stateMutability": "nonpayable",
      "type": "function"
    },
    {
      "inputs": [],
      "name": "getContractBalance",
      "outputs": [
        {
          "internalType": "uint256",
          "name": "",
          "type": "uint256"
        }
      ],
      "stateMutability": "view",
      "type": "function"
    },
    {
      "inputs": [
        {
          "internalType": "address",
          "name": "_newOracle",
          "type": "address"
        }
      ],
      "name": "setOracle",
      "outputs": [],
      "stateMutability": "nonpayable",
      "type": "function"
    },
    {
      "inputs": [
        {
          "internalType": "bool",
          "name": "_status",
          "type": "bool"
        }
      ],
      "name": "setChromiumStatus",
      "outputs": [],
      "stateMutability": "nonpayable",
      "type": "function"
    },
    {
      "inputs": [
        {
          "internalType": "bool",
          "name": "_status",
          "type": "bool"
        }
      ],
      "name": "setBuyStatus",
      "outputs": [],
      "stateMutability": "nonpayable",
      "type": "function"
    },
    {
      "inputs": [
        {
          "internalType": "uint256",
          "name": "_poolNum",
          "type": "uint256"
        }
      ],
      "name": "getPoolBalance",
      "outputs": [
        {
          "internalType": "uint256",
          "name": "",
          "type": "uint256"
        }
      ],
      "stateMutability": "view",
      "type": "function"
    },
    {
      "inputs": [
        {
          "internalType": "uint256",
          "name": "_newLimit",
          "type": "uint256"
        }
      ],
      "name": "setThreshold",
      "outputs": [],
      "stateMutability": "nonpayable",
      "type": "function"
    },
    {
      "inputs": [
        {
          "internalType": "uint256",
          "name": "_poolType",
          "type": "uint256"
        },
        {
          "internalType": "uint256",
          "name": "_amount",
          "type": "uint256"
        }
      ],
      "name": "fundTokenPool",
      "outputs": [],
      "stateMutability": "nonpayable",
      "type": "function"
    },
    {
      "inputs": [
        {
          "internalType": "uint256",
          "name": "_amount",
          "type": "uint256"
        }
      ],
      "name": "expectedBuyReturn",
      "outputs": [
        {
          "internalType": "uint256",
          "name": "",
          "type": "uint256"
        },
        {
          "internalType": "uint256",
          "name": "",
          "type": "uint256"
        },
        {
          "internalType": "uint256",
          "name": "",
          "type": "uint256"
        }
      ],
      "stateMutability": "view",
      "type": "function"
    },
    {
      "inputs": [
        {
          "internalType": "uint256",
          "name": "_amount",
          "type": "uint256"
        }
      ],
      "name": "expectedSellReturn",
      "outputs": [
        {
          "internalType": "uint256",
          "name": "",
          "type": "uint256"
        },
        {
          "internalType": "uint256",
          "name": "",
          "type": "uint256"
        }
      ],
      "stateMutability": "view",
      "type": "function"
    },
    {
      "inputs": [
        {
          "internalType": "uint256",
          "name": "_amount",
          "type": "uint256"
        }
      ],
      "name": "calculateFee",
      "outputs": [
        {
          "internalType": "uint256",
          "name": "",
          "type": "uint256"
        },
        {
          "internalType": "uint256",
          "name": "",
          "type": "uint256"
        }
      ],
      "stateMutability": "view",
      "type": "function"
    },
    {
      "inputs": [],
      "name": "buyCBLT",
      "outputs": [],
      "stateMutability": "payable",
      "type": "function"
    },
    {
      "inputs": [
        {
          "internalType": "uint256",
          "name": "_amount",
          "type": "uint256"
        }
      ],
      "name": "sellCBLT",
      "outputs": [],
      "stateMutability": "payable",
      "type": "function"
    },
    {
      "inputs": [
        {
          "internalType": "address",
          "name": "_treasuryAddress",
          "type": "address"
        }
      ],
      "name": "setContract",
      "outputs": [],
      "stateMutability": "nonpayable",
      "type": "function"
    },
    {
      "inputs": [],
      "name": "getTotalBalance",
      "outputs": [
        {
          "internalType": "uint256",
          "name": "",
          "type": "uint256"
        }
      ],
      "stateMutability": "view",
      "type": "function"
    },
    {
      "inputs": [
        {
          "internalType": "uint256",
          "name": "_amount",
          "type": "uint256"
        }
      ],
      "name": "withdrawFees",
      "outputs": [],
      "stateMutability": "payable",
      "type": "function"
    },
    {
      "inputs": [
        {
          "internalType": "uint256",
          "name": "_newFee",
          "type": "uint256"
        }
      ],
      "name": "newFlatFee",
      "outputs": [],
      "stateMutability": "nonpayable",
      "type": "function"
    },
    {
      "inputs": [],
      "name": "newPercentFee",
      "outputs": [],
      "stateMutability": "nonpayable",
      "type": "function"
    },
    {
      "inputs": [
        {
          "internalType": "address",
          "name": "_newExchange",
          "type": "address"
        }
      ],
      "name": "setExchangeAddress",
      "outputs": [],
      "stateMutability": "nonpayable",
      "type": "function"
    },
    {
      "inputs": [],
      "name": "assetsMigration",
      "outputs": [],
      "stateMutability": "payable",
      "type": "function"
    }
  ],
  "bytecode": "0x608060405234801561001057600080fd5b5060405161218b38038061218b8339818101604052602081101561003357600080fd5b810190808051906020019092919050505073433c6e3d2def6e1fb414cf9448724efb0399b6986000806101000a81548173ffffffffffffffffffffffffffffffffffffffff021916908373ffffffffffffffffffffffffffffffffffffffff16021790555080600160006101000a81548173ffffffffffffffffffffffffffffffffffffffff021916908373ffffffffffffffffffffffffffffffffffffffff1602179055506001600360006101000a81548160ff0219169083151502179055506000600360016101000a81548160ff021916908315150217905550674563918244f4000060088190555061271060048190555060036009819055506003600a8190555050612044806101476000396000f3fe6080604052600436106101fd5760003560e01c80638b7afe2e1161010d578063cb4e162b116100a0578063e65308831161006f578063e6530883146108cd578063ed129f68146108e4578063ed1375d51461093a578063f8201b1514610989578063fc0c546a146109935761026b565b8063cb4e162b146107f9578063d082ea8c14610824578063d9eb594714610875578063e2ffadb9146108a05761026b565b80639834331b116100dc5780639834331b1461072e57806399a5d7471461075c578063a2886bae146107b2578063c60e4870146107ef5761026b565b80638b7afe2e1461065c5780638db5d08214610687578063925bc6e7146106b2578063960bfe04146106f35761026b565b80634c1a4115116101905780636f9fb98a1161015f5780636f9fb98a1461050957806375f890ab1461053457806377ba0517146105855780637adbf973146105ca5780637dc0d1d01461061b5761026b565b80634c1a4115146104185780635a0f5fe8146104435780635e318e071461047e5780636d9ab702146104ac5761026b565b8063144fa6d7116101cc578063144fa6d71461032e57806314d0a61c1461037f5780631f0fa1c5146103c05780633415650e146103eb5761026b565b80630c5ce3ae146102705780630d02e05c1461029b57806310666788146102d857806312b58349146103035761026b565b3661026b5761020e600254346109d4565b6002819055507f88a5966d370b9919b20f3e2c13ff65706f196a4e32cc2c12bf57088f885258743334604051808373ffffffffffffffffffffffffffffffffffffffff1681526020018281526020019250505060405180910390a1005b600080fd5b34801561027c57600080fd5b506102856109f0565b6040518082815260200191505060405180910390f35b3480156102a757600080fd5b506102d6600480360360208110156102be57600080fd5b810190808035151590602001909291905050506109f6565b005b3480156102e457600080fd5b506102ed610a13565b6040518082815260200191505060405180910390f35b34801561030f57600080fd5b50610318610a19565b6040518082815260200191505060405180910390f35b34801561033a57600080fd5b5061037d6004803603602081101561035157600080fd5b81019080803573ffffffffffffffffffffffffffffffffffffffff169060200190929190505050610a23565b005b34801561038b57600080fd5b50610394610a66565b604051808273ffffffffffffffffffffffffffffffffffffffff16815260200191505060405180910390f35b3480156103cc57600080fd5b506103d5610a8c565b6040518082815260200191505060405180910390f35b3480156103f757600080fd5b50610400610a92565b60405180821515815260200191505060405180910390f35b34801561042457600080fd5b5061042d610aa5565b6040518082815260200191505060405180910390f35b34801561044f57600080fd5b5061047c6004803603602081101561046657600080fd5b8101908080359060200190929190505050610aab565b005b6104aa6004803603602081101561049457600080fd5b8101908080359060200190929190505050610ab5565b005b3480156104b857600080fd5b506104e5600480360360208110156104cf57600080fd5b8101908080359060200190929190505050610c12565b60405180848152602001838152602001828152602001935050505060405180910390f35b34801561051557600080fd5b5061051e610d45565b6040518082815260200191505060405180910390f35b34801561054057600080fd5b506105836004803603602081101561055757600080fd5b81019080803573ffffffffffffffffffffffffffffffffffffffff169060200190929190505050610d4f565b005b34801561059157600080fd5b506105c8600480360360408110156105a857600080fd5b810190808035906020019092919080359060200190929190505050610d93565b005b3480156105d657600080fd5b50610619600480360360208110156105ed57600080fd5b81019080803573ffffffffffffffffffffffffffffffffffffffff169060200190929190505050610e66565b005b34801561062757600080fd5b50610630610eaa565b604051808273ffffffffffffffffffffffffffffffffffffffff16815260200191505060405180910390f35b34801561066857600080fd5b50610671610ed0565b6040518082815260200191505060405180910390f35b34801561069357600080fd5b5061069c610ed6565b6040518082815260200191505060405180910390f35b3480156106be57600080fd5b506106c7610edc565b604051808273ffffffffffffffffffffffffffffffffffffffff16815260200191505060405180910390f35b3480156106ff57600080fd5b5061072c6004803603602081101561071657600080fd5b8101908080359060200190929190505050610f02565b005b61075a6004803603602081101561074457600080fd5b8101908080359060200190929190505050610f0c565b005b34801561076857600080fd5b506107956004803603602081101561077f57600080fd5b8101908080359060200190929190505050611021565b604051808381526020018281526020019250505060405180910390f35b3480156107be57600080fd5b506107ed600480360360208110156107d557600080fd5b8101908080351515906020019092919050505061113b565b005b6107f7611158565b005b34801561080557600080fd5b5061080e61139a565b6040518082815260200191505060405180910390f35b34801561083057600080fd5b506108736004803603602081101561084757600080fd5b81019080803573ffffffffffffffffffffffffffffffffffffffff1690602001909291905050506113a0565b005b34801561088157600080fd5b5061088a6113e4565b6040518082815260200191505060405180910390f35b3480156108ac57600080fd5b506108b56113ea565b60405180821515815260200191505060405180910390f35b3480156108d957600080fd5b506108e26113fd565b005b3480156108f057600080fd5b5061091d6004803603602081101561090757600080fd5b81019080803590602001909291905050506113ff565b604051808381526020018281526020019250505060405180910390f35b34801561094657600080fd5b506109736004803603602081101561095d57600080fd5b8101908080359060200190929190505050611526565b6040518082815260200191505060405180910390f35b610991611546565b005b34801561099f57600080fd5b506109a86116cb565b604051808273ffffffffffffffffffffffffffffffffffffffff16815260200191505060405180910390f35b6000808284019050838110156109e657fe5b8091505092915050565b600b5481565b80600360016101000a81548160ff02191690831515021790555050565b60065481565b6000600b54905090565b806000806101000a81548173ffffffffffffffffffffffffffffffffffffffff021916908373ffffffffffffffffffffffffffffffffffffffff16021790555050565b600760009054906101000a900473ffffffffffffffffffffffffffffffffffffffff1681565b60055481565b600360019054906101000a900460ff1681565b600a5481565b8060098190555050565b600760009054906101000a900473ffffffffffffffffffffffffffffffffffffffff1673ffffffffffffffffffffffffffffffffffffffff163373ffffffffffffffffffffffffffffffffffffffff1614610b5b576040517f08c379a000000000000000000000000000000000000000000000000000000000815260040180806020018281038252602f815260200180611f20602f913960400191505060405180910390fd5b600b54811115610bb6576040517f08c379a0000000000000000000000000000000000000000000000000000000008152600401808060200182810382526027815260200180611ed36027913960400191505060405180910390fd5b610bc2600b54826116ef565b600b819055503373ffffffffffffffffffffffffffffffffffffffff166108fc829081150290604051600060405180830381858888f19350505050158015610c0e573d6000803e3d6000fd5b5050565b600080600080600160009054906101000a900473ffffffffffffffffffffffffffffffffffffffff1673ffffffffffffffffffffffffffffffffffffffff1663f3167c0560008054906101000a900473ffffffffffffffffffffffffffffffffffffffff166040518263ffffffff1660e01b8152600401808273ffffffffffffffffffffffffffffffffffffffff16815260200191505060206040518083038186803b158015610cc157600080fd5b505afa158015610cd5573d6000803e3d6000fd5b505050506040513d6020811015610ceb57600080fd5b810190808051906020019092919050505090506000806000610d0c88611021565b8092508194505050610d2f670de0b6b3a7640000610d2a8587611706565b61171f565b9150818382965096509650505050509193909250565b6000600254905090565b80600760006101000a81548173ffffffffffffffffffffffffffffffffffffffff021916908373ffffffffffffffffffffffffffffffffffffffff16021790555050565b6001821415610dfc57610de58160008054906101000a900473ffffffffffffffffffffffffffffffffffffffff1673ffffffffffffffffffffffffffffffffffffffff1661175690919063ffffffff16565b610df1600554826109d4565b600581905550610e62565b6002821415610e6157610e4e8160008054906101000a900473ffffffffffffffffffffffffffffffffffffffff1673ffffffffffffffffffffffffffffffffffffffff1661175690919063ffffffff16565b610e5a600654826109d4565b6006819055505b5b5050565b80600160006101000a81548173ffffffffffffffffffffffffffffffffffffffff021916908373ffffffffffffffffffffffffffffffffffffffff16021790555050565b600160009054906101000a900473ffffffffffffffffffffffffffffffffffffffff1681565b60025481565b60045481565b600c60009054906101000a900473ffffffffffffffffffffffffffffffffffffffff1681565b8060048190555050565b600080610f18836113ff565b80925081935050506002548210610f7a576040517f08c379a0000000000000000000000000000000000000000000000000000000008152600401808060200182810382526036815260200180611e9d6036913960400191505060405180910390fd5b610f86600b54826109d4565b600b81905550610fd58360008054906101000a900473ffffffffffffffffffffffffffffffffffffffff1673ffffffffffffffffffffffffffffffffffffffff1661175690919063ffffffff16565b3373ffffffffffffffffffffffffffffffffffffffff166108fc839081150290604051600060405180830381858888f1935050505015801561101b573d6000803e3d6000fd5b50505050565b6000806000806008548511156110535761104085600a546103e861180c565b905061104c85826116ef565b915061112e565b6000600160009054906101000a900473ffffffffffffffffffffffffffffffffffffffff1673ffffffffffffffffffffffffffffffffffffffff1663858b033d6040518163ffffffff1660e01b815260040160206040518083038186803b1580156110bd57600080fd5b505afa1580156110d1573d6000803e3d6000fd5b505050506040513d60208110156110e757600080fd5b81019080805190602001909291905050509050600061110f68056bc75e2d6310000083611706565b905061111d8160095461171f565b925061112987846116ef565b935050505b8181935093505050915091565b80600360006101000a81548160ff02191690831515021790555050565b670214e8348c4f000034116111b8576040517f08c379a000000000000000000000000000000000000000000000000000000000815260040180806020018281038252602c815260200180611f83602c913960400191505060405180910390fd5b60011515600360009054906101000a900460ff16151514611224576040517f08c379a0000000000000000000000000000000000000000000000000000000008152600401808060200182810382526036815260200180611fd96036913960400191505060405180910390fd5b600080600061123234610c12565b80935081945082955050505060045483106112b85760055483106112a1576040517f08c379a0000000000000000000000000000000000000000000000000000000008152600401808060200182810382526034815260200180611f4f6034913960400191505060405180910390fd5b6112ad600554846116ef565b600581905550611325565b6006548310611312576040517f08c379a0000000000000000000000000000000000000000000000000000000008152600401808060200182810382526034815260200180611f4f6034913960400191505060405180910390fd5b61131e600654846116ef565b6006819055505b611331600b54826109d4565b600b81905550611343600254836109d4565b600281905550611394338460008054906101000a900473ffffffffffffffffffffffffffffffffffffffff1673ffffffffffffffffffffffffffffffffffffffff166118239092919063ffffffff16565b50505050565b60085481565b80600c60006101000a81548173ffffffffffffffffffffffffffffffffffffffff021916908373ffffffffffffffffffffffffffffffffffffffff16021790555050565b60095481565b600360009054906101000a900460ff1681565b565b6000806000806000600160009054906101000a900473ffffffffffffffffffffffffffffffffffffffff1673ffffffffffffffffffffffffffffffffffffffff1663f3167c0560008054906101000a900473ffffffffffffffffffffffffffffffffffffffff166040518263ffffffff1660e01b8152600401808273ffffffffffffffffffffffffffffffffffffffff16815260200191505060206040518083038186803b1580156114b057600080fd5b505afa1580156114c4573d6000803e3d6000fd5b505050506040513d60208110156114da57600080fd5b8101908080519060200190929190505050925061151061150b6114fd888661171f565b670de0b6b3a7640000611706565b611021565b8092508193505050818194509450505050915091565b6000600182141561153b576005549050611541565b60065490505b919050565b60008060009054906101000a900473ffffffffffffffffffffffffffffffffffffffff1673ffffffffffffffffffffffffffffffffffffffff166370a08231306040518263ffffffff1660e01b8152600401808273ffffffffffffffffffffffffffffffffffffffff16815260200191505060206040518083038186803b1580156115d057600080fd5b505afa1580156115e4573d6000803e3d6000fd5b505050506040513d60208110156115fa57600080fd5b81019080805190602001909291905050509050600047905061167f600c60009054906101000a900473ffffffffffffffffffffffffffffffffffffffff168360008054906101000a900473ffffffffffffffffffffffffffffffffffffffff1673ffffffffffffffffffffffffffffffffffffffff166118239092919063ffffffff16565b503373ffffffffffffffffffffffffffffffffffffffff166108fc829081150290604051600060405180830381858888f193505050501580156116c6573d6000803e3d6000fd5b505050565b60008054906101000a900473ffffffffffffffffffffffffffffffffffffffff1681565b6000828211156116fb57fe5b818303905092915050565b60008082848161171257fe5b0490508091505092915050565b6000808314156117325760009050611750565b600082840290508284828161174357fe5b041461174b57fe5b809150505b92915050565b600081141561176457611808565b61176d826118cb565b156117d957803411156117d4573373ffffffffffffffffffffffffffffffffffffffff166108fc6117a783346116ef90919063ffffffff16565b9081150290604051600060405180830381858888f193505050501580156117d2573d6000803e3d6000fd5b505b611807565b6118063330838573ffffffffffffffffffffffffffffffffffffffff166119ab909392919063ffffffff16565b5b5b5050565b6000818385028161181957fe5b0490509392505050565b60008082141561183657600190506118c4565b61183f846118cb565b15611894578273ffffffffffffffffffffffffffffffffffffffff166108fc839081150290604051600060405180830381858888f1935050505015801561188a573d6000803e3d6000fd5b50600190506118c4565b6118bf83838673ffffffffffffffffffffffffffffffffffffffff16611a6c9092919063ffffffff16565b600190505b9392505050565b600073c02aaa39b223fe8d0a0e5c4f27ead9083c756cc273ffffffffffffffffffffffffffffffffffffffff168273ffffffffffffffffffffffffffffffffffffffff16148061195a575073eeeeeeeeeeeeeeeeeeeeeeeeeeeeeeeeeeeeeeee73ffffffffffffffffffffffffffffffffffffffff168273ffffffffffffffffffffffffffffffffffffffff16145b806119a4575073c778417e063141139fce010982780140aa0cd5ab73ffffffffffffffffffffffffffffffffffffffff168273ffffffffffffffffffffffffffffffffffffffff16145b9050919050565b611a66846323b872dd60e01b858585604051602401808473ffffffffffffffffffffffffffffffffffffffff1681526020018373ffffffffffffffffffffffffffffffffffffffff1681526020018281526020019350505050604051602081830303815290604052907bffffffffffffffffffffffffffffffffffffffffffffffffffffffff19166020820180517bffffffffffffffffffffffffffffffffffffffffffffffffffffffff8381831617835250505050611b0e565b50505050565b611b098363a9059cbb60e01b8484604051602401808373ffffffffffffffffffffffffffffffffffffffff16815260200182815260200192505050604051602081830303815290604052907bffffffffffffffffffffffffffffffffffffffffffffffffffffffff19166020820180517bffffffffffffffffffffffffffffffffffffffffffffffffffffffff8381831617835250505050611b0e565b505050565b6000611b70826040518060400160405280602081526020017f5361666545524332303a206c6f772d6c6576656c2063616c6c206661696c65648152508573ffffffffffffffffffffffffffffffffffffffff16611bfd9092919063ffffffff16565b9050600081511115611bf857808060200190516020811015611b9157600080fd5b8101908080519060200190929190505050611bf7576040517f08c379a000000000000000000000000000000000000000000000000000000000815260040180806020018281038252602a815260200180611faf602a913960400191505060405180910390fd5b5b505050565b6060611c0c8484600085611c15565b90509392505050565b606082471015611c70576040517f08c379a0000000000000000000000000000000000000000000000000000000008152600401808060200182810382526026815260200180611efa6026913960400191505060405180910390fd5b611c7985611dbd565b611ceb576040517f08c379a000000000000000000000000000000000000000000000000000000000815260040180806020018281038252601d8152602001807f416464726573733a2063616c6c20746f206e6f6e2d636f6e747261637400000081525060200191505060405180910390fd5b6000808673ffffffffffffffffffffffffffffffffffffffff1685876040518082805190602001908083835b60208310611d3a5780518252602082019150602081019050602083039250611d17565b6001836020036101000a03801982511681845116808217855250505050505090500191505060006040518083038185875af1925050503d8060008114611d9c576040519150601f19603f3d011682016040523d82523d6000602084013e611da1565b606091505b5091509150611db1828286611dd0565b92505050949350505050565b600080823b905060008111915050919050565b60608315611de057829050611e95565b600083511115611df35782518084602001fd5b816040517f08c379a00000000000000000000000000000000000000000000000000000000081526004018080602001828103825283818151815260200191508051906020019080838360005b83811015611e5a578082015181840152602081019050611e3f565b50505050905090810190601f168015611e875780820380516001836020036101000a031916815260200191505b509250505060405180910390fd5b939250505056fe4578706563746564204554482072657475726e20697320686967686572207468616e20636f6e747261637427732062616c616e63652e547265617375727920646f65736e277420686176652073756666696369656e742066756e64732e416464726573733a20696e73756666696369656e742062616c616e636520666f722063616c6c5468697320616464726573732063616e27742077697468647261772066756e64732066726f6d207472656173757279506f6f6c2069732063757272656e746c79206465706c6574656420666f72207468697320616d6f756e742070726f6d697365642e4572726f722c206465706f736974206d75737420626520686967686572207468616e20302e303135204554485361666545524332303a204552433230206f7065726174696f6e20646964206e6f74207375636365656445786368616e67652069732063757272656e746c79206f66666c696e652c20706c656173652074727920616761696e206c617465722ea26469706673582212204f44a0e78586a898a3dd1e2bb314a10e926c38f97b46e402fc79e83af2401df764736f6c63430007060033",
  "immutableReferences": {},
  "source": "// SPDX-License-Identifier: MIT\npragma solidity >=0.4.22 <0.9.0;\n\nimport \"./interfaces/UniversalERC20.sol\";\nimport \"./interfaces/Ownable.sol\";\nimport \"./interfaces/IUniswap.sol\";\nimport \"./ExchangeOracle.sol\";\n\ncontract ChromiumV2 {\n    using UniversalERC20 for IERC20;\n\n    event Received(address, uint256);\n    event Transfer(address indexed from, address indexed to, uint256 value);\n\n    // ********************************** CONTRACT CONTROL *********************************\n\n    /**\n     * @dev ERC20 type for CBLT token.\n     */\n    IERC20 public token;\n\n    /**\n     * @dev Cobalt oracle contract.\n     */\n    ExchangeOracle public oracle;\n\n    /**\n     * @dev total contract balance in ETH.\n     */\n    uint256 public contractBalance;\n\n    /**\n     * @dev Exchange status. True - On / False - Off\n     */\n    bool public chromiumStatus;\n\n    /**\n     * @dev Bool enables the sellCBLT function. True - On / False - Off\n     */\n    bool public buyStatus;\n\n    /**\n     * @dev Setter function changes the address of CBLT token.\n     */\n    function setToken(address _newToken) public {\n        // only devs\n        token = IERC20(_newToken);\n    }\n\n    /**\n     * @dev\n     */\n    function getContractBalance() public view returns (uint256) {\n        return contractBalance;\n    }\n\n    /**\n     * @dev\n     */\n    function setOracle(address _newOracle) public {\n        // only devs\n        oracle = ExchangeOracle(_newOracle);\n    }\n\n    /**\n     * @dev\n     */\n    function setChromiumStatus(bool _status) public {\n        // only devs\n        chromiumStatus = _status;\n    }\n\n    /**\n     * @dev\n     */\n    function setBuyStatus(bool _status) public {\n        buyStatus = _status;\n    }\n\n    /**\n     * @dev\n     */\n    constructor(address _oracleAddress) {\n        token = IERC20(address(0x433C6E3D2def6E1fb414cf9448724EFB0399b698));\n        oracle = ExchangeOracle(_oracleAddress);\n        chromiumStatus = true;\n        buyStatus = false;\n        feeThreshold = 5e18;\n        poolThreshold = 10000;\n        flatFee = 3;\n        percentFee = 3;\n    }\n\n    /**\n     * @dev\n     */\n    receive() external payable {\n        contractBalance = SafeMath.add(contractBalance, msg.value);\n        emit Received(msg.sender, msg.value);\n    }\n\n    // ************************************ EXCHANGE ******************************************\n\n    /**\n     * @dev\n     */\n    uint256 public poolThreshold;\n\n    /**\n     * @dev\n     */\n    uint256 public highTokenPool;\n\n    /**\n     * @dev\n     */\n    uint256 public lowTokenPool;\n\n    /**\n     * @dev\n     */\n    function getPoolBalance(uint256 _poolNum) public view returns (uint256) {\n        if (_poolNum == 1) {\n            return highTokenPool;\n        } else {\n            return lowTokenPool;\n        }\n    }\n\n    /**\n     * @dev\n     */\n    function setThreshold(uint256 _newLimit) public {\n        // only devs\n        poolThreshold = _newLimit;\n    }\n\n    function fundTokenPool(uint256 _poolType, uint256 _amount) public {\n        // only devs\n        if (_poolType == 1) {\n            IERC20(token).universalTransferFromSenderToThis(_amount);\n            highTokenPool = SafeMath.add(highTokenPool, _amount);\n        } else if (_poolType == 2) {\n            IERC20(token).universalTransferFromSenderToThis(_amount);\n            lowTokenPool = SafeMath.add(lowTokenPool, _amount);\n        }\n    }\n\n    /**\n     * @dev\n     */\n    modifier validBuy() {\n        require(\n            msg.value > 15e16,\n            \"Error, deposit must be higher than 0.015 ETH\"\n        );\n        require(\n            chromiumStatus == true,\n            \"Exchange is currently offline, please try again later.\"\n        );\n        _;\n    }\n\n    /**\n     * @dev\n     */\n    modifier validSell() {\n        require(\n            chromiumStatus == true,\n            \"Exchange is currently offline, please try again later.\"\n        );\n        require(buyStatus == true, \"Buying feature is currently offline\");\n\n        _;\n    }\n\n    /**\n     * @dev\n     */\n    function expectedBuyReturn(uint256 _amount)\n        public\n        view\n        returns (\n            uint256,\n            uint256,\n            uint256\n        )\n    {\n        uint256 priceOfToken = oracle.priceOfToken(address(token));\n        uint256 balance;\n        uint256 tokenExpectedReturn;\n        uint256 fee;\n\n        (balance, fee) = calculateFee(_amount);\n        tokenExpectedReturn = SafeMath.mul(\n            1e18,\n            SafeMath.div(balance, priceOfToken)\n        );\n        return (tokenExpectedReturn, balance, fee);\n    }\n\n    /**\n     * @dev\n     */\n    function expectedSellReturn(uint256 _amount)\n        public\n        view\n        returns (uint256, uint256)\n    {\n        uint256 priceOfToken;\n        uint256 balance;\n        uint256 fee;\n\n        priceOfToken = oracle.priceOfToken(address(token));\n        (balance, fee) = calculateFee(\n            SafeMath.div(SafeMath.mul(_amount, priceOfToken), 1e18)\n        );\n        return (balance, fee);\n    }\n\n    /**\n     * @dev\n     */\n    function calculateFee(uint256 _amount)\n        public\n        view\n        returns (uint256, uint256)\n    {\n        uint256 newBalance;\n        uint256 fee;\n\n        if (_amount > feeThreshold) {\n            fee = SafeMath.multiply(_amount, percentFee, 1000);\n            newBalance = SafeMath.sub(_amount, fee);\n        } else {\n            uint256 ETHprice = oracle.priceOfETH();\n            uint256 ETHinUSD = SafeMath.div(100000000000000000000, ETHprice);\n            fee = SafeMath.mul(ETHinUSD, flatFee);\n            newBalance = SafeMath.sub(_amount, fee);\n        }\n\n        return (newBalance, fee);\n    }\n\n    /**\n     * @dev\n     */\n    function buyCBLT() public payable validBuy {\n        uint256 tokensOwed;\n        uint256 newBalance;\n        uint256 fee;\n\n        (tokensOwed, newBalance, fee) = expectedBuyReturn(msg.value);\n\n        if (tokensOwed >= poolThreshold) {\n            require(\n                tokensOwed < highTokenPool,\n                \"Pool is currently depleted for this amount promised.\"\n            );\n            highTokenPool = SafeMath.sub(highTokenPool, tokensOwed);\n        } else {\n            require(\n                tokensOwed < lowTokenPool,\n                \"Pool is currently depleted for this amount promised.\"\n            );\n            lowTokenPool = SafeMath.sub(lowTokenPool, tokensOwed);\n        }\n\n        totalFeeBalance = SafeMath.add(totalFeeBalance, fee);\n        contractBalance = SafeMath.add(contractBalance, newBalance);\n        IERC20(token).universalTransfer(msg.sender, tokensOwed);\n    }\n\n    /**\n     * @dev\n     */\n    function sellCBLT(uint256 _amount) public payable {\n        uint256 newBalance;\n        uint256 fee;\n\n        (newBalance, fee) = expectedSellReturn(_amount);\n        require(\n            newBalance < contractBalance,\n            \"Expected ETH return is higher than contract's balance.\"\n        );\n        totalFeeBalance = SafeMath.add(totalFeeBalance, fee);\n\n        IERC20(token).universalTransferFromSenderToThis(_amount);\n        payable(msg.sender).transfer(newBalance);\n    }\n\n    //**************************************** FEE *****************************************\n\n    /**\n     * @dev\n     */\n    address public WithdrawContract;\n\n    /**\n     * @dev\n     */\n    uint256 public feeThreshold;\n\n    /**\n     * @dev Variable for staking flat fee.\n     */\n    uint256 public flatFee;\n\n    /**\n     * @dev Variable for staking flat fee.\n     */\n    uint256 public percentFee;\n\n    /**\n     * @dev Saving running fee total\n     */\n    uint256 public totalFeeBalance;\n\n    /**\n     * @dev\n     */\n    function setContract(address _treasuryAddress) public {\n        WithdrawContract = _treasuryAddress;\n    }\n\n    /**\n     * @dev\n     */\n    function getTotalBalance() public view returns (uint256) {\n        return totalFeeBalance;\n    }\n\n    /**\n     * @dev transfers funds to an approved contract\n     */\n    function withdrawFees(uint256 _amount) public payable onlyTreasury {\n        require(\n            _amount <= totalFeeBalance,\n            \"Treasury doesn't have sufficient funds.\"\n        );\n        totalFeeBalance = SafeMath.sub(totalFeeBalance, _amount);\n        payable(msg.sender).transfer(_amount);\n    }\n\n    /**\n     * @dev Setter for staking flat fee.\n     * @param _newFee new uint fee value.\n     * @notice This action can only be perform under dev vote.\n     */\n    function newFlatFee(uint256 _newFee) public {\n        flatFee = _newFee;\n    }\n\n    /**\n     * @dev\n     */\n    function newPercentFee() public {}\n\n    modifier onlyTreasury {\n        require(\n            msg.sender == WithdrawContract,\n            \"This address can't withdraw funds from treasury\"\n        );\n        _;\n    }\n\n    //*********************************** Exchange Migration *************************************\n\n    /**\n     * @dev\n     */\n    address public migrationExchange;\n\n    /**\n     * @dev\n     */\n    function setExchangeAddress(address _newExchange) public {\n        // Only devs\n        migrationExchange = _newExchange;\n    }\n\n    /**\n     * @dev\n     */\n    function assetsMigration() public payable {\n        uint256 totalTokenBalance = token.balanceOf(address(this));\n        uint256 totalETHBalance = address(this).balance;\n\n        IERC20(token).universalTransfer(migrationExchange, totalTokenBalance);\n        payable(msg.sender).transfer(totalETHBalance);\n    }\n}\n",
  "sourcePath": "/Users/christianroque/Desktop/TungstenGroupProject/contracts/ChromiumV2.sol",
  "compiler": {
    "name": "solc",
    "version": "0.7.6+commit.7338295f.Emscripten.clang"
  },
  "schemaVersion": "3.3.4",
  "updatedAt": "2021-06-19T17:47:19.389Z",
  "devdoc": {
    "kind": "dev",
    "methods": {
      "newFlatFee(uint256)": {
        "details": "Setter for staking flat fee.",
        "params": {
          "_newFee": "new uint fee value."
        }
      },
      "setToken(address)": {
        "details": "Setter function changes the address of CBLT token."
      },
      "withdrawFees(uint256)": {
        "details": "transfers funds to an approved contract"
      }
    },
    "stateVariables": {
      "buyStatus": {
        "details": "Bool enables the sellCBLT function. True - On / False - Off"
      },
      "chromiumStatus": {
        "details": "Exchange status. True - On / False - Off"
      },
      "contractBalance": {
        "details": "total contract balance in ETH."
      },
      "flatFee": {
        "details": "Variable for staking flat fee."
      },
      "oracle": {
        "details": "Cobalt oracle contract."
      },
      "percentFee": {
        "details": "Variable for staking flat fee."
      },
      "token": {
        "details": "ERC20 type for CBLT token."
      },
      "totalFeeBalance": {
        "details": "Saving running fee total"
      }
    },
    "version": 1
  },
  "userdoc": {
    "kind": "user",
    "methods": {
      "newFlatFee(uint256)": {
        "notice": "This action can only be perform under dev vote."
      }
    },
    "version": 1
  }
}