{
  "contractName": "ChromiumV2",
  "abi": [
    {
      "inputs": [
        {
          "internalType": "address",
          "name": "_oracleAddress",
          "type": "address"
        },
        {
          "internalType": "address",
          "name": "_tokenAddress",
          "type": "address"
        }
      ],
      "stateMutability": "nonpayable",
      "type": "constructor"
    },
    {
      "anonymous": false,
      "inputs": [
        {
          "indexed": false,
          "internalType": "address",
          "name": "",
          "type": "address"
        },
        {
          "indexed": false,
          "internalType": "uint256",
          "name": "",
          "type": "uint256"
        }
      ],
      "name": "Received",
      "type": "event"
    },
    {
      "anonymous": false,
      "inputs": [
        {
          "indexed": true,
          "internalType": "address",
          "name": "from",
          "type": "address"
        },
        {
          "indexed": true,
          "internalType": "address",
          "name": "to",
          "type": "address"
        },
        {
          "indexed": false,
          "internalType": "uint256",
          "name": "value",
          "type": "uint256"
        }
      ],
      "name": "Transfer",
      "type": "event"
    },
    {
      "stateMutability": "payable",
      "type": "receive"
    },
    {
      "inputs": [
        {
          "internalType": "address",
          "name": "_newToken",
          "type": "address"
        }
      ],
      "name": "setToken",
      "outputs": [],
      "stateMutability": "nonpayable",
      "type": "function"
    },
    {
      "inputs": [],
      "name": "getContractBalance",
      "outputs": [
        {
          "internalType": "uint256",
          "name": "",
          "type": "uint256"
        }
      ],
      "stateMutability": "view",
      "type": "function"
    },
    {
      "inputs": [
        {
          "internalType": "address",
          "name": "_newOracle",
          "type": "address"
        }
      ],
      "name": "setOracle",
      "outputs": [],
      "stateMutability": "nonpayable",
      "type": "function"
    },
    {
      "inputs": [
        {
          "internalType": "bool",
          "name": "_status",
          "type": "bool"
        }
      ],
      "name": "setChromiumStatus",
      "outputs": [],
      "stateMutability": "nonpayable",
      "type": "function"
    },
    {
      "inputs": [
        {
          "internalType": "bool",
          "name": "_status",
          "type": "bool"
        }
      ],
      "name": "setBuyStatus",
      "outputs": [],
      "stateMutability": "nonpayable",
      "type": "function"
    },
    {
      "inputs": [
        {
          "internalType": "uint256",
          "name": "_newLimit",
          "type": "uint256"
        }
      ],
      "name": "setThreshHold",
      "outputs": [],
      "stateMutability": "nonpayable",
      "type": "function"
    },
    {
      "inputs": [
        {
          "internalType": "uint256",
          "name": "_poolType",
          "type": "uint256"
        },
        {
          "internalType": "uint256",
          "name": "_amount",
          "type": "uint256"
        }
      ],
      "name": "fundTokenPool",
      "outputs": [],
      "stateMutability": "nonpayable",
      "type": "function"
    },
    {
      "inputs": [
        {
          "internalType": "uint256",
          "name": "_amount",
          "type": "uint256"
        }
      ],
      "name": "expectedBuyReturn",
      "outputs": [
        {
          "internalType": "uint256",
          "name": "",
          "type": "uint256"
        },
        {
          "internalType": "uint256",
          "name": "",
          "type": "uint256"
        }
      ],
      "stateMutability": "view",
      "type": "function"
    },
    {
      "inputs": [
        {
          "internalType": "uint256",
          "name": "_amount",
          "type": "uint256"
        }
      ],
      "name": "calculateFee",
      "outputs": [
        {
          "internalType": "uint256",
          "name": "",
          "type": "uint256"
        }
      ],
      "stateMutability": "view",
      "type": "function"
    },
    {
      "inputs": [
        {
          "internalType": "uint256",
          "name": "_amount",
          "type": "uint256"
        }
      ],
      "name": "expectedSellReturn",
      "outputs": [
        {
          "internalType": "uint256",
          "name": "",
          "type": "uint256"
        }
      ],
      "stateMutability": "view",
      "type": "function"
    },
    {
      "inputs": [],
      "name": "buyCBLT",
      "outputs": [],
      "stateMutability": "payable",
      "type": "function"
    },
    {
      "inputs": [
        {
          "internalType": "uint256",
          "name": "_amount",
          "type": "uint256"
        }
      ],
      "name": "sellCBLT",
      "outputs": [],
      "stateMutability": "payable",
      "type": "function"
    },
    {
      "inputs": [
        {
          "internalType": "address",
          "name": "_treasuryAddress",
          "type": "address"
        }
      ],
      "name": "setContract",
      "outputs": [],
      "stateMutability": "nonpayable",
      "type": "function"
    },
    {
      "inputs": [],
      "name": "getTotalBalance",
      "outputs": [
        {
          "internalType": "uint256",
          "name": "",
          "type": "uint256"
        }
      ],
      "stateMutability": "view",
      "type": "function"
    },
    {
      "inputs": [
        {
          "internalType": "uint256",
          "name": "_amount",
          "type": "uint256"
        }
      ],
      "name": "withdrawFees",
      "outputs": [],
      "stateMutability": "payable",
      "type": "function"
    },
    {
      "inputs": [
        {
          "internalType": "uint256",
          "name": "_newFee",
          "type": "uint256"
        }
      ],
      "name": "newFee",
      "outputs": [],
      "stateMutability": "nonpayable",
      "type": "function"
    },
    {
      "inputs": [
        {
          "internalType": "address",
          "name": "_newExchange",
          "type": "address"
        }
      ],
      "name": "setExchangeAddress",
      "outputs": [],
      "stateMutability": "nonpayable",
      "type": "function"
    },
    {
      "inputs": [],
      "name": "assetsMigration",
      "outputs": [],
      "stateMutability": "payable",
      "type": "function"
    }
  ],
  "bytecode": "0x608060405261271060035534801561001657600080fd5b506040516119cd3803806119cd8339818101604052604081101561003957600080fd5b810190808051906020019092919080519060200190929190505050806000806101000a81548173ffffffffffffffffffffffffffffffffffffffff021916908373ffffffffffffffffffffffffffffffffffffffff16021790555081600260006101000a81548173ffffffffffffffffffffffffffffffffffffffff021916908373ffffffffffffffffffffffffffffffffffffffff16021790555050506118e7806100e66000396000f3fe60806040526004361061010d5760003560e01c8063877be93d11610095578063ba1ad43811610064578063ba1ad438146104b2578063c60e4870146104ed578063d082ea8c146104f7578063ed129f6814610548578063f8201b151461059757610169565b8063877be93d146103bd5780639834331b146103f857806399a5d74714610426578063a2886bae1461047557610169565b80636d9ab702116100dc5780636d9ab702146102555780636f9fb98a146102ab57806375f890ab146102d657806377ba0517146103275780637adbf9731461036c57610169565b80630d02e05c1461016e57806312b58349146101ab578063144fa6d7146101d65780635e318e071461022757610169565b36610169577f88a5966d370b9919b20f3e2c13ff65706f196a4e32cc2c12bf57088f885258743334604051808373ffffffffffffffffffffffffffffffffffffffff1681526020018281526020019250505060405180910390a1005b600080fd5b34801561017a57600080fd5b506101a96004803603602081101561019157600080fd5b810190808035151590602001909291905050506105a1565b005b3480156101b757600080fd5b506101c06105be565b6040518082815260200191505060405180910390f35b3480156101e257600080fd5b50610225600480360360208110156101f957600080fd5b81019080803573ffffffffffffffffffffffffffffffffffffffff1690602001909291905050506105c8565b005b6102536004803603602081101561023d57600080fd5b810190808035906020019092919050505061060b565b005b34801561026157600080fd5b5061028e6004803603602081101561027857600080fd5b8101908080359060200190929190505050610768565b604051808381526020018281526020019250505060405180910390f35b3480156102b757600080fd5b506102c061087b565b6040518082815260200191505060405180910390f35b3480156102e257600080fd5b50610325600480360360208110156102f957600080fd5b81019080803573ffffffffffffffffffffffffffffffffffffffff169060200190929190505050610885565b005b34801561033357600080fd5b5061036a6004803603604081101561034a57600080fd5b8101908080359060200190929190803590602001909291905050506108c9565b005b34801561037857600080fd5b506103bb6004803603602081101561038f57600080fd5b81019080803573ffffffffffffffffffffffffffffffffffffffff16906020019092919050505061099c565b005b3480156103c957600080fd5b506103f6600480360360208110156103e057600080fd5b81019080803590602001909291905050506109e0565b005b6104246004803603602081101561040e57600080fd5b81019080803590602001909291905050506109ea565b005b34801561043257600080fd5b5061045f6004803603602081101561044957600080fd5b8101908080359060200190929190505050610a9b565b6040518082815260200191505060405180910390f35b34801561048157600080fd5b506104b06004803603602081101561049857600080fd5b81019080803515159060200190929190505050610ba7565b005b3480156104be57600080fd5b506104eb600480360360208110156104d557600080fd5b8101908080359060200190929190505050610bc4565b005b6104f5610bce565b005b34801561050357600080fd5b506105466004803603602081101561051a57600080fd5b81019080803573ffffffffffffffffffffffffffffffffffffffff169060200190929190505050610d0e565b005b34801561055457600080fd5b506105816004803603602081101561056b57600080fd5b8101908080359060200190929190505050610d52565b6040518082815260200191505060405180910390f35b61059f610e5b565b005b80600260156101000a81548160ff02191690831515021790555050565b6000600954905090565b806000806101000a81548173ffffffffffffffffffffffffffffffffffffffff021916908373ffffffffffffffffffffffffffffffffffffffff16021790555050565b600660009054906101000a900473ffffffffffffffffffffffffffffffffffffffff1673ffffffffffffffffffffffffffffffffffffffff163373ffffffffffffffffffffffffffffffffffffffff16146106b1576040517f08c379a000000000000000000000000000000000000000000000000000000000815260040180806020018281038252602f8152602001806117f7602f913960400191505060405180910390fd5b60095481111561070c576040517f08c379a00000000000000000000000000000000000000000000000000000000081526004018080602001828103825260278152602001806117aa6027913960400191505060405180910390fd5b61071860095482610fe0565b6009819055503373ffffffffffffffffffffffffffffffffffffffff166108fc829081150290604051600060405180830381858888f19350505050158015610764573d6000803e3d6000fd5b5050565b6000806000600260009054906101000a900473ffffffffffffffffffffffffffffffffffffffff1673ffffffffffffffffffffffffffffffffffffffff1663f3167c0560008054906101000a900473ffffffffffffffffffffffffffffffffffffffff166040518263ffffffff1660e01b8152600401808273ffffffffffffffffffffffffffffffffffffffff16815260200191505060206040518083038186803b15801561081657600080fd5b505afa15801561082a573d6000803e3d6000fd5b505050506040513d602081101561084057600080fd5b8101908080519060200190929190505050905060008061085f86610a9b565b915061086b8284610ff7565b9050808294509450505050915091565b6000600154905090565b80600660006101000a81548173ffffffffffffffffffffffffffffffffffffffff021916908373ffffffffffffffffffffffffffffffffffffffff16021790555050565b60018214156109325761091b8160008054906101000a900473ffffffffffffffffffffffffffffffffffffffff1673ffffffffffffffffffffffffffffffffffffffff1661101090919063ffffffff16565b610927600454826110c6565b600481905550610998565b6002821415610997576109848160008054906101000a900473ffffffffffffffffffffffffffffffffffffffff1673ffffffffffffffffffffffffffffffffffffffff1661101090919063ffffffff16565b610990600554826110c6565b6005819055505b5b5050565b80600260006101000a81548173ffffffffffffffffffffffffffffffffffffffff021916908373ffffffffffffffffffffffffffffffffffffffff16021790555050565b8060038190555050565b6000610a358260008054906101000a900473ffffffffffffffffffffffffffffffffffffffff1673ffffffffffffffffffffffffffffffffffffffff1661101090919063ffffffff16565b610a3e82610d52565b9050610a4a3482610fe0565b6009819055503373ffffffffffffffffffffffffffffffffffffffff166108fc829081150290604051600060405180830381858888f19350505050158015610a96573d6000803e3d6000fd5b505050565b600080600754831115610ac657610abf83610aba8560036103e86110e2565b610fe0565b9050610b9e565b6000600260009054906101000a900473ffffffffffffffffffffffffffffffffffffffff1673ffffffffffffffffffffffffffffffffffffffff1663858b033d6040518163ffffffff1660e01b815260040160206040518083038186803b158015610b3057600080fd5b505afa158015610b44573d6000803e3d6000fd5b505050506040513d6020811015610b5a57600080fd5b810190808051906020019092919050505090506000610b8268056bc75e2d6310000083610ff7565b9050610b9985610b94836008546110f9565b610fe0565b925050505b80915050919050565b80600260146101000a81548160ff02191690831515021790555050565b8060088190555050565b670214e8348c4f00003411610c2e576040517f08c379a000000000000000000000000000000000000000000000000000000000815260040180806020018281038252602c815260200180611826602c913960400191505060405180910390fd5b60011515600260149054906101000a900460ff16151514610c9a576040517f08c379a000000000000000000000000000000000000000000000000000000000815260040180806020018281038252603681526020018061187c6036913960400191505060405180910390fd5b600080610ca634610768565b8092508193505050610cb83482610fe0565b600981905550610d09338360008054906101000a900473ffffffffffffffffffffffffffffffffffffffff1673ffffffffffffffffffffffffffffffffffffffff166111309092919063ffffffff16565b505050565b80600a60006101000a81548173ffffffffffffffffffffffffffffffffffffffff021916908373ffffffffffffffffffffffffffffffffffffffff16021790555050565b6000806000600260009054906101000a900473ffffffffffffffffffffffffffffffffffffffff1673ffffffffffffffffffffffffffffffffffffffff1663f3167c0560008054906101000a900473ffffffffffffffffffffffffffffffffffffffff166040518263ffffffff1660e01b8152600401808273ffffffffffffffffffffffffffffffffffffffff16815260200191505060206040518083038186803b158015610e0057600080fd5b505afa158015610e14573d6000803e3d6000fd5b505050506040513d6020811015610e2a57600080fd5b81019080805190602001909291905050509150610e4f610e4a85846110f9565b610a9b565b90508092505050919050565b60008060009054906101000a900473ffffffffffffffffffffffffffffffffffffffff1673ffffffffffffffffffffffffffffffffffffffff166370a08231306040518263ffffffff1660e01b8152600401808273ffffffffffffffffffffffffffffffffffffffff16815260200191505060206040518083038186803b158015610ee557600080fd5b505afa158015610ef9573d6000803e3d6000fd5b505050506040513d6020811015610f0f57600080fd5b810190808051906020019092919050505090506000479050610f94600a60009054906101000a900473ffffffffffffffffffffffffffffffffffffffff168360008054906101000a900473ffffffffffffffffffffffffffffffffffffffff1673ffffffffffffffffffffffffffffffffffffffff166111309092919063ffffffff16565b503373ffffffffffffffffffffffffffffffffffffffff166108fc829081150290604051600060405180830381858888f19350505050158015610fdb573d6000803e3d6000fd5b505050565b600082821115610fec57fe5b818303905092915050565b60008082848161100357fe5b0490508091505092915050565b600081141561101e576110c2565b611027826111d8565b15611093578034111561108e573373ffffffffffffffffffffffffffffffffffffffff166108fc6110618334610fe090919063ffffffff16565b9081150290604051600060405180830381858888f1935050505015801561108c573d6000803e3d6000fd5b505b6110c1565b6110c03330838573ffffffffffffffffffffffffffffffffffffffff166112b8909392919063ffffffff16565b5b5b5050565b6000808284019050838110156110d857fe5b8091505092915050565b600081838502816110ef57fe5b0490509392505050565b60008083141561110c576000905061112a565b600082840290508284828161111d57fe5b041461112557fe5b809150505b92915050565b60008082141561114357600190506111d1565b61114c846111d8565b156111a1578273ffffffffffffffffffffffffffffffffffffffff166108fc839081150290604051600060405180830381858888f19350505050158015611197573d6000803e3d6000fd5b50600190506111d1565b6111cc83838673ffffffffffffffffffffffffffffffffffffffff166113799092919063ffffffff16565b600190505b9392505050565b600073c02aaa39b223fe8d0a0e5c4f27ead9083c756cc273ffffffffffffffffffffffffffffffffffffffff168273ffffffffffffffffffffffffffffffffffffffff161480611267575073eeeeeeeeeeeeeeeeeeeeeeeeeeeeeeeeeeeeeeee73ffffffffffffffffffffffffffffffffffffffff168273ffffffffffffffffffffffffffffffffffffffff16145b806112b1575073c778417e063141139fce010982780140aa0cd5ab73ffffffffffffffffffffffffffffffffffffffff168273ffffffffffffffffffffffffffffffffffffffff16145b9050919050565b611373846323b872dd60e01b858585604051602401808473ffffffffffffffffffffffffffffffffffffffff1681526020018373ffffffffffffffffffffffffffffffffffffffff1681526020018281526020019350505050604051602081830303815290604052907bffffffffffffffffffffffffffffffffffffffffffffffffffffffff19166020820180517bffffffffffffffffffffffffffffffffffffffffffffffffffffffff838183161783525050505061141b565b50505050565b6114168363a9059cbb60e01b8484604051602401808373ffffffffffffffffffffffffffffffffffffffff16815260200182815260200192505050604051602081830303815290604052907bffffffffffffffffffffffffffffffffffffffffffffffffffffffff19166020820180517bffffffffffffffffffffffffffffffffffffffffffffffffffffffff838183161783525050505061141b565b505050565b600061147d826040518060400160405280602081526020017f5361666545524332303a206c6f772d6c6576656c2063616c6c206661696c65648152508573ffffffffffffffffffffffffffffffffffffffff1661150a9092919063ffffffff16565b90506000815111156115055780806020019051602081101561149e57600080fd5b8101908080519060200190929190505050611504576040517f08c379a000000000000000000000000000000000000000000000000000000000815260040180806020018281038252602a815260200180611852602a913960400191505060405180910390fd5b5b505050565b60606115198484600085611522565b90509392505050565b60608247101561157d576040517f08c379a00000000000000000000000000000000000000000000000000000000081526004018080602001828103825260268152602001806117d16026913960400191505060405180910390fd5b611586856116ca565b6115f8576040517f08c379a000000000000000000000000000000000000000000000000000000000815260040180806020018281038252601d8152602001807f416464726573733a2063616c6c20746f206e6f6e2d636f6e747261637400000081525060200191505060405180910390fd5b6000808673ffffffffffffffffffffffffffffffffffffffff1685876040518082805190602001908083835b602083106116475780518252602082019150602081019050602083039250611624565b6001836020036101000a03801982511681845116808217855250505050505090500191505060006040518083038185875af1925050503d80600081146116a9576040519150601f19603f3d011682016040523d82523d6000602084013e6116ae565b606091505b50915091506116be8282866116dd565b92505050949350505050565b600080823b905060008111915050919050565b606083156116ed578290506117a2565b6000835111156117005782518084602001fd5b816040517f08c379a00000000000000000000000000000000000000000000000000000000081526004018080602001828103825283818151815260200191508051906020019080838360005b8381101561176757808201518184015260208101905061174c565b50505050905090810190601f1680156117945780820380516001836020036101000a031916815260200191505b509250505060405180910390fd5b939250505056fe547265617375727920646f65736e277420686176652073756666696369656e742066756e64732e416464726573733a20696e73756666696369656e742062616c616e636520666f722063616c6c5468697320616464726573732063616e27742077697468647261772066756e64732066726f6d2074726561737572794572726f722c206465706f736974206d75737420626520686967686572207468616e20302e303135204554485361666545524332303a204552433230206f7065726174696f6e20646964206e6f74207375636365656445786368616e67652069732063757272656e746c79206f66666c696e652c20706c656173652074727920616761696e206c617465722ea2646970667358221220ac960f81f06cf0b850f0ef8003ebb865f683060c389114e7c0425c23f6beec9364736f6c63430007060033",
  "immutableReferences": {},
  "source": "// SPDX-License-Identifier: MIT\npragma solidity >=0.4.22 <0.9.0;\n\nimport \"./interfaces/UniversalERC20.sol\";\nimport \"./interfaces/Ownable.sol\";\nimport \"./interfaces/IUniswap.sol\";\nimport \"./ExchangeOracle.sol\";\n\ncontract ChromiumV2 {\n    using UniversalERC20 for IERC20;\n\n    event Received(address, uint256);\n    event Transfer(address indexed from, address indexed to, uint256 value);\n\n    // ********************************** CONTRACT CONTROL *********************************\n\n    IERC20 token;\n\n    function setToken(address _newToken) public {\n        // only devs\n        token = IERC20(_newToken);\n    }\n\n    uint256 contractBalance;\n\n    function getContractBalance() public view returns (uint256) {\n        return contractBalance;\n    }\n\n    ExchangeOracle oracle;\n\n    function setOracle(address _newOracle) public {\n        // only devs\n        oracle = ExchangeOracle(_newOracle);\n    }\n\n    bool chromiumStatus;\n\n    function setChromiumStatus(bool _status) public {\n        // only devs\n        chromiumStatus = _status;\n    }\n\n    bool buyStatus;\n\n    function setBuyStatus(bool _status) public {\n        buyStatus = _status;\n    }\n\n    constructor(address _oracleAddress, address _tokenAddress) {\n        token = IERC20(_tokenAddress);\n        oracle = ExchangeOracle(_oracleAddress);\n    }\n\n    receive() external payable {\n        emit Received(msg.sender, msg.value);\n    }\n\n    // ************************************ EXCHANGE ******************************************\n\n    /**\n     * @dev\n     */\n    uint256 poolTreshhold = 10000;\n\n    /**\n     * @dev\n     */\n    uint256 highTokenPool;\n    uint256 lowTokenPool;\n\n    /**\n     * @dev\n     */\n    function setThreshHold(uint256 _newLimit) public {\n        // only devs\n        poolTreshhold = _newLimit;\n    }\n\n    function fundTokenPool(uint256 _poolType, uint256 _amount) public {\n        // only devs\n        if (_poolType == 1) {\n            IERC20(token).universalTransferFromSenderToThis(_amount);\n            highTokenPool = SafeMath.add(highTokenPool, _amount);\n        } else if (_poolType == 2) {\n            IERC20(token).universalTransferFromSenderToThis(_amount);\n            lowTokenPool = SafeMath.add(lowTokenPool, _amount);\n        }\n    }\n\n    /**\n     * @dev\n     */\n    modifier validBuy() {\n        require(\n            msg.value > 15e16,\n            \"Error, deposit must be higher than 0.015 ETH\"\n        );\n        require(\n            chromiumStatus == true,\n            \"Exchange is currently offline, please try again later.\"\n        );\n        _;\n    }\n\n    /**\n     * @dev\n     */\n    modifier validSell() {\n        require(\n            chromiumStatus == true,\n            \"Exchange is currently offline, please try again later.\"\n        );\n        require(buyStatus == true, \"Buying feature is currently offline\");\n\n        _;\n    }\n\n    /**\n     * @dev\n     */\n    function expectedBuyReturn(uint256 _amount)\n        public\n        view\n        returns (uint256, uint256)\n    {\n        uint256 priceOfToken = oracle.priceOfToken(address(token));\n        uint256 balance;\n        uint256 tokenExpectedReturn;\n\n        balance = calculateFee(_amount);\n        tokenExpectedReturn = SafeMath.div(balance, priceOfToken);\n        return (tokenExpectedReturn, balance);\n    }\n\n    /**\n     * @dev\n     */\n    function calculateFee(uint256 _amount) public view returns (uint256) {\n        uint256 newBalance;\n        if (_amount > feeTier) {\n            newBalance = SafeMath.sub(\n                _amount,\n                SafeMath.multiply(_amount, 3, 1000)\n            );\n        } else {\n            uint256 ETHprice = oracle.priceOfETH();\n            uint256 ETHinUSD = SafeMath.div(100000000000000000000, ETHprice);\n            newBalance = SafeMath.sub(_amount, SafeMath.mul(ETHinUSD, fee));\n        }\n        return newBalance;\n    }\n\n    /**\n     * @dev\n     */\n    function expectedSellReturn(uint256 _amount) public view returns (uint256) {\n        uint256 priceOfToken;\n        uint256 balance;\n\n        priceOfToken = oracle.priceOfToken(address(token));\n        balance = calculateFee(SafeMath.mul(_amount, priceOfToken));\n        return balance;\n    }\n\n    /**\n     * @dev\n     */\n    function buyCBLT() public payable validBuy {\n        uint256 tokensOwed;\n        uint256 newBalance;\n\n        (tokensOwed, newBalance) = expectedBuyReturn(msg.value);\n        totalFeeBalance = SafeMath.sub(msg.value, newBalance);\n        IERC20(token).universalTransfer(msg.sender, tokensOwed);\n    }\n\n    /**\n     * @dev\n     */\n    function sellCBLT(uint256 _amount) public payable {\n        uint256 newBalance;\n\n        IERC20(token).universalTransferFromSenderToThis(_amount);\n        newBalance = expectedSellReturn(_amount);\n        totalFeeBalance = SafeMath.sub(msg.value, newBalance);\n        payable(msg.sender).transfer(newBalance);\n    }\n\n    //**************************************** FEE *****************************************\n\n    /**\n     * @dev\n     */\n    address WithdrawContract;\n\n    /**\n     * @dev\n     */\n    uint256 feeTier;\n\n    /**\n     * @dev Variable for staking flat fee.\n     */\n    uint256 fee;\n\n    /**\n     * @dev Saving running fee total\n     */\n    uint256 totalFeeBalance;\n\n    /**\n     * @dev\n     */\n    function setContract(address _treasuryAddress) public {\n        WithdrawContract = _treasuryAddress;\n    }\n\n    /**\n     * @dev\n     */\n    function getTotalBalance() public view returns (uint256) {\n        return totalFeeBalance;\n    }\n\n    /**\n     * @dev transfers funds to an approved contract\n     */\n    function withdrawFees(uint256 _amount) public payable onlyTreasury {\n        require(\n            _amount <= totalFeeBalance,\n            \"Treasury doesn't have sufficient funds.\"\n        );\n        totalFeeBalance = SafeMath.sub(totalFeeBalance, _amount);\n        payable(msg.sender).transfer(_amount);\n    }\n\n    /**\n     * @dev Setter for staking flat fee.\n     * @param _newFee new uint fee value.\n     * @notice This action can only be perform under dev vote.\n     */\n    function newFee(uint256 _newFee) public {\n        fee = _newFee;\n    }\n\n    modifier onlyTreasury {\n        require(\n            msg.sender == WithdrawContract,\n            \"This address can't withdraw funds from treasury\"\n        );\n        _;\n    }\n\n    //*********************************** Exchange Migration *************************************\n\n    /**\n     * @dev\n     */\n    address migrationExchange;\n\n    /**\n     * @dev\n     */\n    function setExchangeAddress(address _newExchange) public {\n        // Only devs\n        migrationExchange = _newExchange;\n    }\n\n    /**\n     * @dev\n     */\n    function assetsMigration() public payable {\n        uint256 totalTokenBalance = token.balanceOf(address(this));\n        uint256 totalETHBalance = address(this).balance;\n\n        IERC20(token).universalTransfer(migrationExchange, totalTokenBalance);\n        payable(msg.sender).transfer(totalETHBalance);\n    }\n}\n",
  "sourcePath": "/Users/christianroque/Desktop/TungstenGroupProject/contracts/ChromiumV2.sol",
  "compiler": {
    "name": "solc",
    "version": "0.7.6+commit.7338295f.Emscripten.clang"
  },
  "schemaVersion": "3.3.4",
  "updatedAt": "2021-06-18T02:19:23.513Z",
  "devdoc": {
    "kind": "dev",
    "methods": {
      "newFee(uint256)": {
        "details": "Setter for staking flat fee.",
        "params": {
          "_newFee": "new uint fee value."
        }
      },
      "withdrawFees(uint256)": {
        "details": "transfers funds to an approved contract"
      }
    },
    "stateVariables": {
      "fee": {
        "details": "Variable for staking flat fee."
      },
      "totalFeeBalance": {
        "details": "Saving running fee total"
      }
    },
    "version": 1
  },
  "userdoc": {
    "kind": "user",
    "methods": {
      "newFee(uint256)": {
        "notice": "This action can only be perform under dev vote."
      }
    },
    "version": 1
  }
}