{
  "contractName": "Chromium",
  "abi": [
    {
      "inputs": [
        {
          "internalType": "address",
          "name": "_oracle",
          "type": "address"
        },
        {
          "internalType": "address",
          "name": "_cbltToken",
          "type": "address"
        }
      ],
      "stateMutability": "nonpayable",
      "type": "constructor"
    },
    {
      "anonymous": false,
      "inputs": [
        {
          "indexed": false,
          "internalType": "address",
          "name": "_previousOwner",
          "type": "address"
        },
        {
          "indexed": true,
          "internalType": "address",
          "name": "_newOwner",
          "type": "address"
        }
      ],
      "name": "OwnershipTransferred",
      "type": "event"
    },
    {
      "anonymous": false,
      "inputs": [
        {
          "indexed": true,
          "internalType": "address",
          "name": "_from",
          "type": "address"
        },
        {
          "indexed": false,
          "internalType": "uint256",
          "name": "_amount",
          "type": "uint256"
        }
      ],
      "name": "depositToken",
      "type": "event"
    },
    {
      "anonymous": false,
      "inputs": [
        {
          "indexed": true,
          "internalType": "address",
          "name": "_from",
          "type": "address"
        },
        {
          "indexed": true,
          "internalType": "address",
          "name": "_to",
          "type": "address"
        },
        {
          "indexed": false,
          "internalType": "uint256",
          "name": "_amount",
          "type": "uint256"
        }
      ],
      "name": "onTransfer",
      "type": "event"
    },
    {
      "anonymous": false,
      "inputs": [
        {
          "indexed": true,
          "internalType": "address",
          "name": "_sendingToken",
          "type": "address"
        },
        {
          "indexed": false,
          "internalType": "uint256",
          "name": "_amountSent",
          "type": "uint256"
        },
        {
          "indexed": true,
          "internalType": "address",
          "name": "_receivedToken",
          "type": "address"
        },
        {
          "indexed": false,
          "internalType": "uint256",
          "name": "_amountRecieved",
          "type": "uint256"
        }
      ],
      "name": "tokensExchanged",
      "type": "event"
    },
    {
      "inputs": [],
      "name": "_owner",
      "outputs": [
        {
          "internalType": "address",
          "name": "",
          "type": "address"
        }
      ],
      "stateMutability": "view",
      "type": "function"
    },
    {
      "inputs": [],
      "name": "amountOfCblt",
      "outputs": [
        {
          "internalType": "uint256",
          "name": "",
          "type": "uint256"
        }
      ],
      "stateMutability": "view",
      "type": "function"
    },
    {
      "inputs": [],
      "name": "isOwner",
      "outputs": [
        {
          "internalType": "bool",
          "name": "",
          "type": "bool"
        }
      ],
      "stateMutability": "view",
      "type": "function"
    },
    {
      "inputs": [
        {
          "internalType": "contract IERC20",
          "name": "",
          "type": "address"
        }
      ],
      "name": "liquidityAmount",
      "outputs": [
        {
          "internalType": "uint256",
          "name": "",
          "type": "uint256"
        }
      ],
      "stateMutability": "view",
      "type": "function"
    },
    {
      "inputs": [
        {
          "internalType": "address",
          "name": "_newOwner",
          "type": "address"
        }
      ],
      "name": "transferOwnership",
      "outputs": [],
      "stateMutability": "nonpayable",
      "type": "function"
    },
    {
      "stateMutability": "payable",
      "type": "receive"
    },
    {
      "inputs": [
        {
          "internalType": "address",
          "name": "_oracle",
          "type": "address"
        }
      ],
      "name": "setOracle",
      "outputs": [],
      "stateMutability": "nonpayable",
      "type": "function"
    },
    {
      "inputs": [
        {
          "internalType": "address",
          "name": "_cblt",
          "type": "address"
        }
      ],
      "name": "setCbltToken",
      "outputs": [],
      "stateMutability": "nonpayable",
      "type": "function"
    },
    {
      "inputs": [
        {
          "internalType": "contract IERC20",
          "name": "fromToken",
          "type": "address"
        },
        {
          "internalType": "contract IERC20",
          "name": "cbltToken",
          "type": "address"
        },
        {
          "internalType": "uint256",
          "name": "amount",
          "type": "uint256"
        }
      ],
      "name": "getCbltExchangeRate",
      "outputs": [
        {
          "internalType": "uint256",
          "name": "returnAmount",
          "type": "uint256"
        }
      ],
      "stateMutability": "view",
      "type": "function"
    },
    {
      "inputs": [
        {
          "internalType": "contract IERC20",
          "name": "fromToken",
          "type": "address"
        },
        {
          "internalType": "contract IERC20",
          "name": "cbltToken",
          "type": "address"
        },
        {
          "internalType": "uint256",
          "name": "amount",
          "type": "uint256"
        },
        {
          "internalType": "uint256",
          "name": "minReturn",
          "type": "uint256"
        }
      ],
      "name": "swapForCblt",
      "outputs": [],
      "stateMutability": "payable",
      "type": "function"
    },
    {
      "inputs": [
        {
          "internalType": "contract IERC20",
          "name": "fromToken",
          "type": "address"
        },
        {
          "internalType": "contract IERC20",
          "name": "destToken",
          "type": "address"
        },
        {
          "internalType": "uint256",
          "name": "amount",
          "type": "uint256"
        },
        {
          "internalType": "uint256",
          "name": "minReturn",
          "type": "uint256"
        },
        {
          "internalType": "uint256[]",
          "name": "distribution",
          "type": "uint256[]"
        },
        {
          "internalType": "uint256",
          "name": "flags",
          "type": "uint256"
        }
      ],
      "name": "swap",
      "outputs": [
        {
          "internalType": "uint256",
          "name": "returnAmount",
          "type": "uint256"
        }
      ],
      "stateMutability": "payable",
      "type": "function"
    },
    {
      "inputs": [],
      "name": "testCall",
      "outputs": [
        {
          "internalType": "uint256",
          "name": "value",
          "type": "uint256"
        }
      ],
      "stateMutability": "view",
      "type": "function"
    }
  ],
  "bytecode": "0x608060405234801561001057600080fd5b50604051611e83380380611e838339818101604052604081101561003357600080fd5b810190808051906020019092919080519060200190929190505050336000806101000a81548173ffffffffffffffffffffffffffffffffffffffff021916908373ffffffffffffffffffffffffffffffffffffffff16021790555081600460006101000a81548173ffffffffffffffffffffffffffffffffffffffff021916908373ffffffffffffffffffffffffffffffffffffffff16021790555081600360006101000a81548173ffffffffffffffffffffffffffffffffffffffff021916908373ffffffffffffffffffffffffffffffffffffffff16021790555080600560006101000a81548173ffffffffffffffffffffffffffffffffffffffff021916908373ffffffffffffffffffffffffffffffffffffffff1602179055505050611d21806101626000396000f3fe60806040526004361061009f5760003560e01c806396674ea41161006457806396674ea41461023157806399195a3714610282578063b2bdfa7b14610311578063b7f0583614610352578063e2a7515e1461037d578063f2fde38b146104a7576100a6565b806235ddfe146100ab57806335e344f2146100d6578063676e539d1461013b5780637adbf973146101b35780638f32d59b14610204576100a6565b366100a657005b600080fd5b3480156100b757600080fd5b506100c06104f8565b6040518082815260200191505060405180910390f35b3480156100e257600080fd5b50610125600480360360208110156100f957600080fd5b81019080803573ffffffffffffffffffffffffffffffffffffffff1690602001909291905050506104fe565b6040518082815260200191505060405180910390f35b6101b16004803603608081101561015157600080fd5b81019080803573ffffffffffffffffffffffffffffffffffffffff169060200190929190803573ffffffffffffffffffffffffffffffffffffffff1690602001909291908035906020019092919080359060200190929190505050610516565b005b3480156101bf57600080fd5b50610202600480360360208110156101d657600080fd5b81019080803573ffffffffffffffffffffffffffffffffffffffff169060200190929190505050610621565b005b34801561021057600080fd5b50610219610720565b60405180821515815260200191505060405180910390f35b34801561023d57600080fd5b506102806004803603602081101561025457600080fd5b81019080803573ffffffffffffffffffffffffffffffffffffffff169060200190929190505050610777565b005b34801561028e57600080fd5b506102fb600480360360608110156102a557600080fd5b81019080803573ffffffffffffffffffffffffffffffffffffffff169060200190929190803573ffffffffffffffffffffffffffffffffffffffff16906020019092919080359060200190929190505050610835565b6040518082815260200191505060405180910390f35b34801561031d57600080fd5b50610326610959565b604051808273ffffffffffffffffffffffffffffffffffffffff16815260200191505060405180910390f35b34801561035e57600080fd5b5061036761097d565b6040518082815260200191505060405180910390f35b610491600480360360c081101561039357600080fd5b81019080803573ffffffffffffffffffffffffffffffffffffffff169060200190929190803573ffffffffffffffffffffffffffffffffffffffff16906020019092919080359060200190929190803590602001909291908035906020019064010000000081111561040457600080fd5b82018360208201111561041657600080fd5b8035906020019184602083028401116401000000008311171561043857600080fd5b919080806020026020016040519081016040528093929190818152602001838360200280828437600081840152601f19601f82011690508083019250505050505050919291929080359060200190929190505050610a3c565b6040518082815260200191505060405180910390f35b3480156104b357600080fd5b506104f6600480360360208110156104ca57600080fd5b81019080803573ffffffffffffffffffffffffffffffffffffffff169060200190929190505050610f12565b005b60025481565b60016020528060005260406000206000915090505481565b61051f8361104d565b61052857600080fd5b80610552308573ffffffffffffffffffffffffffffffffffffffff166110b890919063ffffffff16565b10156105c6576040517f08c379a000000000000000000000000000000000000000000000000000000000815260040180806020018281038252601e8152602001807f4e6f7420656e6f75676820746f6b656e7320696e2054726561737572792e000081525060200191505060405180910390fd5b6105ef828573ffffffffffffffffffffffffffffffffffffffff1661119290919063ffffffff16565b61061a33828573ffffffffffffffffffffffffffffffffffffffff166112489092919063ffffffff16565b5050505050565b610629610720565b61069b576040517f08c379a00000000000000000000000000000000000000000000000000000000081526004018080602001828103825260168152602001807f596f7520617265206e6f7420746865206f776e65722e0000000000000000000081525060200191505060405180910390fd5b80600460006101000a81548173ffffffffffffffffffffffffffffffffffffffff021916908373ffffffffffffffffffffffffffffffffffffffff16021790555080600360006101000a81548173ffffffffffffffffffffffffffffffffffffffff021916908373ffffffffffffffffffffffffffffffffffffffff16021790555050565b60008060009054906101000a900473ffffffffffffffffffffffffffffffffffffffff1673ffffffffffffffffffffffffffffffffffffffff163373ffffffffffffffffffffffffffffffffffffffff1614905090565b61077f610720565b6107f1576040517f08c379a00000000000000000000000000000000000000000000000000000000081526004018080602001828103825260168152602001807f596f7520617265206e6f7420746865206f776e65722e0000000000000000000081525060200191505060405180910390fd5b80600560006101000a81548173ffffffffffffffffffffffffffffffffffffffff021916908373ffffffffffffffffffffffffffffffffffffffff16021790555050565b60006108408361104d565b61084957600080fd5b600080600460009054906101000a900473ffffffffffffffffffffffffffffffffffffffff1673ffffffffffffffffffffffffffffffffffffffff16633a7a2a0687876040518363ffffffff1660e01b8152600401808373ffffffffffffffffffffffffffffffffffffffff1681526020018273ffffffffffffffffffffffffffffffffffffffff16815260200192505050604080518083038186803b1580156108f257600080fd5b505afa158015610906573d6000803e3d6000fd5b505050506040513d604081101561091c57600080fd5b8101908080519060200190929190805190602001909291905050509150915061094e8461094984846112f0565b61130d565b925050509392505050565b60008054906101000a900473ffffffffffffffffffffffffffffffffffffffff1681565b6000806000600460009054906101000a900473ffffffffffffffffffffffffffffffffffffffff1673ffffffffffffffffffffffffffffffffffffffff16633412a15c6040518163ffffffff1660e01b8152600401604080518083038186803b1580156109e957600080fd5b505afa1580156109fd573d6000803e3d6000fd5b505050506040513d6040811015610a1357600080fd5b810190808051906020019092919080519060200190929190505050915091508082019250505090565b60008573ffffffffffffffffffffffffffffffffffffffff168773ffffffffffffffffffffffffffffffffffffffff1614158015610a7a5750600085115b610aec576040517f08c379a000000000000000000000000000000000000000000000000000000000815260040180806020018281038252600e8152602001807f556e61626c6520746f207377617000000000000000000000000000000000000081525060200191505060405180910390fd5b610b0b8773ffffffffffffffffffffffffffffffffffffffff16611344565b15156000341415151514610b6a576040517f08c379a0000000000000000000000000000000000000000000000000000000008152600401808060200182810382526022815260200180611c116022913960400191505060405180910390fd5b6000610b9e610b98308a73ffffffffffffffffffffffffffffffffffffffff166110b890919063ffffffff16565b346113c6565b90506000610bcb308973ffffffffffffffffffffffffffffffffffffffff166110b890919063ffffffff16565b9050610bf6878a73ffffffffffffffffffffffffffffffffffffffff1661119290919063ffffffff16565b610c3573c3037b2a1a9e9268025ff6d45fe7095436446d52888b73ffffffffffffffffffffffffffffffffffffffff166113dd9092919063ffffffff16565b73c3037b2a1a9e9268025ff6d45fe7095436446d5273ffffffffffffffffffffffffffffffffffffffff1663e2a7515e348b8b8b8b8b8b6040518863ffffffff1660e01b8152600401808773ffffffffffffffffffffffffffffffffffffffff1681526020018673ffffffffffffffffffffffffffffffffffffffff16815260200185815260200184815260200180602001838152602001828103825284818151815260200191508051906020019060200280838360005b83811015610d08578082015181840152602081019050610ced565b505050509050019750505050505050506020604051808303818588803b158015610d3157600080fd5b505af1158015610d45573d6000803e3d6000fd5b50505050506040513d6020811015610d5c57600080fd5b8101908080519060200190929190505050506000610d99308b73ffffffffffffffffffffffffffffffffffffffff166110b890919063ffffffff16565b90506000610dc6308b73ffffffffffffffffffffffffffffffffffffffff166110b890919063ffffffff16565b9050610dd281846113c6565b945087851015610e2d576040517f08c379a0000000000000000000000000000000000000000000000000000000008152600401808060200182810382526033815260200180611c596033913960400191505060405180910390fd5b610e5833868c73ffffffffffffffffffffffffffffffffffffffff166112489092919063ffffffff16565b5083821115610e9757610e9533610e6f84876113c6565b8d73ffffffffffffffffffffffffffffffffffffffff166112489092919063ffffffff16565b505b8973ffffffffffffffffffffffffffffffffffffffff168b73ffffffffffffffffffffffffffffffffffffffff167fd67ebc225fb5fd7330b434da891f71da6862048a169bd955dc712ddcf75c27528b8b604051808381526020018281526020019250505060405180910390a3505050509695505050505050565b610f1a610720565b610f8c576040517f08c379a00000000000000000000000000000000000000000000000000000000081526004018080602001828103825260168152602001807f596f7520617265206e6f7420746865206f776e65722e0000000000000000000081525060200191505060405180910390fd5b600073ffffffffffffffffffffffffffffffffffffffff168173ffffffffffffffffffffffffffffffffffffffff161415610fc657600080fd5b8073ffffffffffffffffffffffffffffffffffffffff167f8be0079c531659141344cd1fd0a4f28419497f9722a3daafe3b4186f6b6457e060008054906101000a900473ffffffffffffffffffffffffffffffffffffffff16604051808273ffffffffffffffffffffffffffffffffffffffff16815260200191505060405180910390a250565b6000600560009054906101000a900473ffffffffffffffffffffffffffffffffffffffff1673ffffffffffffffffffffffffffffffffffffffff168273ffffffffffffffffffffffffffffffffffffffff1614156110ae57600190506110b3565b600090505b919050565b60006110c383611344565b156110e7578173ffffffffffffffffffffffffffffffffffffffff1631905061118c565b8273ffffffffffffffffffffffffffffffffffffffff166370a08231836040518263ffffffff1660e01b8152600401808273ffffffffffffffffffffffffffffffffffffffff16815260200191505060206040518083038186803b15801561114e57600080fd5b505afa158015611162573d6000803e3d6000fd5b505050506040513d602081101561117857600080fd5b810190808051906020019092919050505090505b92915050565b60008114156111a057611244565b6111a982611344565b156112155780341115611210573373ffffffffffffffffffffffffffffffffffffffff166108fc6111e383346113c690919063ffffffff16565b9081150290604051600060405180830381858888f1935050505015801561120e573d6000803e3d6000fd5b505b611243565b6112423330838573ffffffffffffffffffffffffffffffffffffffff1661155a909392919063ffffffff16565b5b5b5050565b60008082141561125b57600190506112e9565b61126484611344565b156112b9578273ffffffffffffffffffffffffffffffffffffffff166108fc839081150290604051600060405180830381858888f193505050501580156112af573d6000803e3d6000fd5b50600190506112e9565b6112e483838673ffffffffffffffffffffffffffffffffffffffff1661161b9092919063ffffffff16565b600190505b9392505050565b600080826103e885028161130057fe5b0490508091505092915050565b600080831415611320576000905061133e565b600082840290508284828161133157fe5b041461133957fe5b809150505b92915050565b60008073ffffffffffffffffffffffffffffffffffffffff168273ffffffffffffffffffffffffffffffffffffffff1614806113bf575073eeeeeeeeeeeeeeeeeeeeeeeeeeeeeeeeeeeeeeee73ffffffffffffffffffffffffffffffffffffffff168273ffffffffffffffffffffffffffffffffffffffff16145b9050919050565b6000828211156113d257fe5b818303905092915050565b6113e683611344565b6115545760008114156114245761141f8260008573ffffffffffffffffffffffffffffffffffffffff166116bd9092919063ffffffff16565b611555565b60008373ffffffffffffffffffffffffffffffffffffffff1663dd62ed3e30856040518363ffffffff1660e01b8152600401808373ffffffffffffffffffffffffffffffffffffffff1681526020018273ffffffffffffffffffffffffffffffffffffffff1681526020019250505060206040518083038186803b1580156114ab57600080fd5b505afa1580156114bf573d6000803e3d6000fd5b505050506040513d60208110156114d557600080fd5b8101908080519060200190929190505050905081811015611552576000811115611526576115258360008673ffffffffffffffffffffffffffffffffffffffff166116bd9092919063ffffffff16565b5b61155183838673ffffffffffffffffffffffffffffffffffffffff166116bd9092919063ffffffff16565b5b505b5b505050565b611615846323b872dd60e01b858585604051602401808473ffffffffffffffffffffffffffffffffffffffff1681526020018373ffffffffffffffffffffffffffffffffffffffff1681526020018281526020019350505050604051602081830303815290604052907bffffffffffffffffffffffffffffffffffffffffffffffffffffffff19166020820180517bffffffffffffffffffffffffffffffffffffffffffffffffffffffff8381831617835250505050611882565b50505050565b6116b88363a9059cbb60e01b8484604051602401808373ffffffffffffffffffffffffffffffffffffffff16815260200182815260200192505050604051602081830303815290604052907bffffffffffffffffffffffffffffffffffffffffffffffffffffffff19166020820180517bffffffffffffffffffffffffffffffffffffffffffffffffffffffff8381831617835250505050611882565b505050565b600081148061178b575060008373ffffffffffffffffffffffffffffffffffffffff1663dd62ed3e30856040518363ffffffff1660e01b8152600401808373ffffffffffffffffffffffffffffffffffffffff1681526020018273ffffffffffffffffffffffffffffffffffffffff1681526020019250505060206040518083038186803b15801561174e57600080fd5b505afa158015611762573d6000803e3d6000fd5b505050506040513d602081101561177857600080fd5b8101908080519060200190929190505050145b6117e0576040517f08c379a0000000000000000000000000000000000000000000000000000000008152600401808060200182810382526036815260200180611cb66036913960400191505060405180910390fd5b61187d8363095ea7b360e01b8484604051602401808373ffffffffffffffffffffffffffffffffffffffff16815260200182815260200192505050604051602081830303815290604052907bffffffffffffffffffffffffffffffffffffffffffffffffffffffff19166020820180517bffffffffffffffffffffffffffffffffffffffffffffffffffffffff8381831617835250505050611882565b505050565b60006118e4826040518060400160405280602081526020017f5361666545524332303a206c6f772d6c6576656c2063616c6c206661696c65648152508573ffffffffffffffffffffffffffffffffffffffff166119719092919063ffffffff16565b905060008151111561196c5780806020019051602081101561190557600080fd5b810190808051906020019092919050505061196b576040517f08c379a000000000000000000000000000000000000000000000000000000000815260040180806020018281038252602a815260200180611c8c602a913960400191505060405180910390fd5b5b505050565b60606119808484600085611989565b90509392505050565b6060824710156119e4576040517f08c379a0000000000000000000000000000000000000000000000000000000008152600401808060200182810382526026815260200180611c336026913960400191505060405180910390fd5b6119ed85611b31565b611a5f576040517f08c379a000000000000000000000000000000000000000000000000000000000815260040180806020018281038252601d8152602001807f416464726573733a2063616c6c20746f206e6f6e2d636f6e747261637400000081525060200191505060405180910390fd5b6000808673ffffffffffffffffffffffffffffffffffffffff1685876040518082805190602001908083835b60208310611aae5780518252602082019150602081019050602083039250611a8b565b6001836020036101000a03801982511681845116808217855250505050505090500191505060006040518083038185875af1925050503d8060008114611b10576040519150601f19603f3d011682016040523d82523d6000602084013e611b15565b606091505b5091509150611b25828286611b44565b92505050949350505050565b600080823b905060008111915050919050565b60608315611b5457829050611c09565b600083511115611b675782518084602001fd5b816040517f08c379a00000000000000000000000000000000000000000000000000000000081526004018080602001828103825283818151815260200191508051906020019080838360005b83811015611bce578082015181840152602081019050611bb3565b50505050905090810190601f168015611bfb5780820380516001836020036101000a031916815260200191505b509250505060405180910390fd5b939250505056fe6d73672e76616c75652063616e206f6e6c79206265207573656420666f7220657468416464726573733a20696e73756666696369656e742062616c616e636520666f722063616c6c61637475616c2072657475726e20616d6f756e74206973206c657373207468616e206d696e2072657475726e20616d6f756e745361666545524332303a204552433230206f7065726174696f6e20646964206e6f7420737563636565645361666545524332303a20617070726f76652066726f6d206e6f6e2d7a65726f20746f206e6f6e2d7a65726f20616c6c6f77616e6365a26469706673582212204e8d3f42eca54cf9d3f154f109f757cb49007f4489e91b2c9ac923b563fb115f64736f6c63430007060033",
  "immutableReferences": {},
  "source": "// SPDX-License-Identifier: MIT\npragma solidity >=0.4.22 <0.9.0;\n\n/**\n * getExpectedReturnWithGas is a method on the 1inch protocol that is free to call and will return\n * a distribution array. each element in array shows an exchange and represents a fraction of trading volume.\n * it will also return the amount the minimum amount tokens that will be received by the caller based on the amount\n * that they are selling. it also returns the amount of gas that is being used.\n *\n * I removed the oracle because i figured we can use the _minReturn from getExpectedReturnWithGas as the conversion\n * rate for the two tokens instead of having our own oracle.\n *\n * the exchangeTokens method will first check if the tokens are allowed in our contract and if we have enough\n * tokens in the contract to make the exchange. if we do then the exchange will happen here. if we dont, then\n * the 1inch swap protocol will be called to complete the exchange\n */\n\nimport \"./interfaces/UniversalERC20.sol\";\nimport \"./interfaces/Ownable.sol\";\nimport \"./interfaces/IOneSplit.sol\";\nimport \"./ExchangeOracle.sol\";\n\ncontract Chromium is Ownable {\n    using UniversalERC20 for IERC20;\n\n    mapping(IERC20 => uint256) public liquidityAmount;\n    uint256 public amountOfCblt;\n    address oracleAddress;\n\n    ExchangeOracle oracle;\n    IERC20 cblt_token;\n\n    IERC20 private constant ZERO_ADDRESS =\n        IERC20(0x0000000000000000000000000000000000000000); // eth address substitute\n    IERC20 private constant ETH_ADDRESS =\n        IERC20(0xEeeeeEeeeEeEeeEeEeEeeEEEeeeeEeeeeeeeEEeE); // eth address substitute\n    IOneSplit private constant oneSplitImpl =\n        IOneSplit(0xc3037b2A1a9E9268025FF6d45Fe7095436446D52); // sets 1inch protocol\n\n    event depositToken(address indexed _from, uint256 _amount);\n    event onTransfer(\n        address indexed _from,\n        address indexed _to,\n        uint256 _amount\n    );\n    event tokensExchanged(\n        address indexed _sendingToken,\n        uint256 _amountSent,\n        address indexed _receivedToken,\n        uint256 _amountRecieved\n    );\n\n    /**\n     * pass in the oracle contract so that it can pull info from it\n     */\n    constructor(address _oracle, address _cbltToken) {\n        oracle = ExchangeOracle(_oracle);\n        oracleAddress = _oracle;\n        cblt_token = IERC20(_cbltToken);\n    }\n\n    /** this sets the treasury, and oracle */\n    function setOracle(address _oracle) public onlyOwner {\n        oracle = ExchangeOracle(_oracle);\n        oracleAddress = _oracle;\n    }\n\n    function setCbltToken(address _cblt) public onlyOwner {\n        cblt_token = IERC20(_cblt);\n    }\n\n    /************ chromium functions ************/\n    /**\n     * @dev this function will get the exchagne rate for the token being exchanged for cblt token\n     * it will call on the oracle to make the calculation. the returnAmount is going to be a factor\n     * of three larger than the actual amount which means the returnAmount will need to be divided by\n     * 1000 to get the correct amount that will be swapped\n     */\n    function getCbltExchangeRate(\n        IERC20 fromToken,\n        IERC20 cbltToken,\n        uint256 amount\n    ) public view returns (uint256 returnAmount) {\n        require(_checkTokensAllowed(cbltToken));\n        (uint256 sellTokenValue, uint256 buyTokenValue) =\n            oracle.priceOfPair(address(fromToken), address(cbltToken));\n        returnAmount = SafeMath.mul(\n            amount,\n            SafeMath.findRate(sellTokenValue, buyTokenValue)\n        );\n    }\n\n    /**\n     * @dev this function will swap cblt tokens for tokens that are allowed in the bank\n     * it calls on a function inside of the bank to do the exchange since no tokens are going\n     * to be held in the exchange\n     */\n    function swapForCblt(\n        IERC20 fromToken,\n        IERC20 cbltToken,\n        uint256 amount,\n        uint256 minReturn\n    ) external payable {\n        require(_checkTokensAllowed(cbltToken));\n        require(\n            cbltToken.universalBalanceOf(address(this)) >= minReturn,\n            \"Not enough tokens in Treasury.\"\n        );\n\n        fromToken.universalTransferFromSenderToThis(amount);\n\n        cbltToken.universalTransfer(msg.sender, minReturn);\n    }\n\n    /**\n     * @dev Swap `amount` of `fromToken` to 'destToken`\n     * @param fromToken (IERC20) Address of token or `address(0)` for Ether\n     * @param destToken (IERC20) Address of token or `address(0)` for Ether\n     * @param amount (uint256) Amount for `fromToken`\n     * @param minReturn (uint256) Minimum expected return, returned by getExpectedReturn\n     * @param distribution (uint256[]) Array of weights for volume distribution returned by `getExpectedReturn`\n     * @param flags (uint256) Flags for enabling and disabling some features, default 0\n     */\n    function swap(\n        IERC20 fromToken,\n        IERC20 destToken,\n        uint256 amount,\n        uint256 minReturn,\n        uint256[] memory distribution,\n        uint256 flags\n    ) external payable returns (uint256 returnAmount) {\n        // makes sure tokens aren't the same and amount is greater than 0\n        require(fromToken != destToken && amount > 0, \"Unable to swap\");\n        // makes sure msg.value is only being used for eth\n        require(\n            (msg.value != 0) == fromToken.isETH(),\n            \"msg.value can only be used for eth\"\n        );\n\n        uint256 fromTokenBalanceBefore =\n            SafeMath.sub(\n                fromToken.universalBalanceOf(address(this)),\n                msg.value\n            );\n        uint256 destTokenBalanceBefore =\n            destToken.universalBalanceOf(address(this));\n\n        fromToken.universalTransferFromSenderToThis(amount);\n        fromToken.universalApprove(address(oneSplitImpl), amount);\n\n        oneSplitImpl.swap{value: msg.value}(\n            fromToken,\n            destToken,\n            amount,\n            minReturn,\n            distribution,\n            flags\n        );\n\n        uint256 fromTokenBalanceAfter =\n            fromToken.universalBalanceOf(address(this));\n        uint256 destTokenBalanceAfter =\n            destToken.universalBalanceOf(address(this));\n        returnAmount = SafeMath.sub(\n            destTokenBalanceAfter,\n            destTokenBalanceBefore\n        );\n\n        require(\n            returnAmount >= minReturn,\n            \"actual return amount is less than min return amount\"\n        );\n        destToken.universalTransfer(msg.sender, returnAmount);\n\n        if (fromTokenBalanceAfter > fromTokenBalanceBefore) {\n            fromToken.universalTransfer(\n                msg.sender,\n                SafeMath.sub(fromTokenBalanceAfter, fromTokenBalanceBefore)\n            );\n        }\n\n        emit tokensExchanged(\n            address(fromToken),\n            amount,\n            address(destToken),\n            minReturn\n        );\n    }\n\n    /**\n     * @dev this function will check to see if the both tokens are correct when wanting\n     * to make the exchange with chromium\n     */\n    function _checkTokensAllowed(IERC20 cbltToken)\n        internal\n        view\n        returns (bool)\n    {\n        if (cbltToken == cblt_token) {\n            return true;\n        } else {\n            return false;\n        }\n    }\n\n    function testCall() public view returns (uint256 value) {\n        (uint256 sellTokenValue, uint256 buyTokenValue) =\n            oracle.testConnection();\n        value = sellTokenValue + buyTokenValue;\n    }\n\n    // fallback function\n    receive() external payable {}\n}\n",
  "sourcePath": "/Users/christianroque/Desktop/TungstenGroupProject/contracts/Chromium.sol",
  "compiler": {
    "name": "solc",
    "version": "0.7.6+commit.7338295f.Emscripten.clang"
  },
  "schemaVersion": "3.3.4",
  "updatedAt": "2021-05-18T03:37:43.571Z",
  "devdoc": {
    "kind": "dev",
    "methods": {
      "getCbltExchangeRate(address,address,uint256)": {
        "details": "this function will get the exchagne rate for the token being exchanged for cblt token it will call on the oracle to make the calculation. the returnAmount is going to be a factor of three larger than the actual amount which means the returnAmount will need to be divided by 1000 to get the correct amount that will be swapped"
      },
      "swap(address,address,uint256,uint256,uint256[],uint256)": {
        "details": "Swap `amount` of `fromToken` to 'destToken`",
        "params": {
          "amount": "(uint256) Amount for `fromToken`",
          "destToken": "(IERC20) Address of token or `address(0)` for Ether",
          "distribution": "(uint256[]) Array of weights for volume distribution returned by `getExpectedReturn`",
          "flags": "(uint256) Flags for enabling and disabling some features, default 0",
          "fromToken": "(IERC20) Address of token or `address(0)` for Ether",
          "minReturn": "(uint256) Minimum expected return, returned by getExpectedReturn"
        }
      },
      "swapForCblt(address,address,uint256,uint256)": {
        "details": "this function will swap cblt tokens for tokens that are allowed in the bank it calls on a function inside of the bank to do the exchange since no tokens are going to be held in the exchange"
      }
    },
    "version": 1
  },
  "userdoc": {
    "kind": "user",
    "methods": {
      "constructor": {
        "notice": "pass in the oracle contract so that it can pull info from it"
      },
      "setOracle(address)": {
        "notice": "this sets the treasury, and oracle "
      }
    },
    "version": 1
  }
}