{
  "contractName": "ChromiumV2",
  "abi": [
    {
      "anonymous": false,
      "inputs": [
        {
          "indexed": false,
          "internalType": "address",
          "name": "_previousOwner",
          "type": "address"
        },
        {
          "indexed": true,
          "internalType": "address",
          "name": "_newOwner",
          "type": "address"
        }
      ],
      "name": "OwnershipTransferred",
      "type": "event"
    },
    {
      "inputs": [],
      "name": "_owner",
      "outputs": [
        {
          "internalType": "address",
          "name": "",
          "type": "address"
        }
      ],
      "stateMutability": "view",
      "type": "function"
    },
    {
      "inputs": [],
      "name": "isOwner",
      "outputs": [
        {
          "internalType": "bool",
          "name": "",
          "type": "bool"
        }
      ],
      "stateMutability": "view",
      "type": "function"
    },
    {
      "inputs": [
        {
          "internalType": "address",
          "name": "_newOwner",
          "type": "address"
        }
      ],
      "name": "transferOwnership",
      "outputs": [],
      "stateMutability": "nonpayable",
      "type": "function"
    }
  ],
  "bytecode": "0x608060405234801561001057600080fd5b50336000806101000a81548173ffffffffffffffffffffffffffffffffffffffff021916908373ffffffffffffffffffffffffffffffffffffffff1602179055506102ca806100606000396000f3fe608060405234801561001057600080fd5b50600436106100415760003560e01c80638f32d59b14610046578063b2bdfa7b14610066578063f2fde38b1461009a575b600080fd5b61004e6100de565b60405180821515815260200191505060405180910390f35b61006e610135565b604051808273ffffffffffffffffffffffffffffffffffffffff16815260200191505060405180910390f35b6100dc600480360360208110156100b057600080fd5b81019080803573ffffffffffffffffffffffffffffffffffffffff169060200190929190505050610159565b005b60008060009054906101000a900473ffffffffffffffffffffffffffffffffffffffff1673ffffffffffffffffffffffffffffffffffffffff163373ffffffffffffffffffffffffffffffffffffffff1614905090565b60008054906101000a900473ffffffffffffffffffffffffffffffffffffffff1681565b6101616100de565b6101d3576040517f08c379a00000000000000000000000000000000000000000000000000000000081526004018080602001828103825260168152602001807f596f7520617265206e6f7420746865206f776e65722e0000000000000000000081525060200191505060405180910390fd5b600073ffffffffffffffffffffffffffffffffffffffff168173ffffffffffffffffffffffffffffffffffffffff16141561020d57600080fd5b8073ffffffffffffffffffffffffffffffffffffffff167f8be0079c531659141344cd1fd0a4f28419497f9722a3daafe3b4186f6b6457e060008054906101000a900473ffffffffffffffffffffffffffffffffffffffff16604051808273ffffffffffffffffffffffffffffffffffffffff16815260200191505060405180910390a25056fea2646970667358221220f15fbffad10f429e67bf327b1ba25b7590846c994a0cde2cf8a5ddb0c9e0c5ab64736f6c63430007060033",
  "immutableReferences": {},
  "source": "// SPDX-License-Identifier: MIT\npragma solidity >=0.4.22 <0.9.0;\n\nimport \"./interfaces/UniversalERC20.sol\";\nimport \"./interfaces/Ownable.sol\";\nimport \"./interfaces/IUniswap.sol\";\nimport \"./ExchangeOracle.sol\";\n\ncontract ChromiumV2 is Ownable {\n    // using UniversalERC20 for IERC20;\n    // // used to keep track of tokens in contract\n    // mapping(uint256 => uint256) public cbltLiquidity;\n    // uint256 cbltLiquidityMaxAmount;\n    // // eth contract address\n    // IERC20 private constant ETH_ADDRESS =\n    //     IERC20(0xEeeeeEeeeEeEeeEeEeEeeEEEeeeeEeeeeeeeEEeE);\n    // IUniswap private constant uniswap =\n    //     IUniswap(0x7a250d5630B4cF539739dF2C5dAcb4c659F2488D);\n    // // initializing objects\n    // IERC20 cbltToken;\n    // ExchangeOracle oracle;\n    // // emits when chromium is used\n    // event ChromiumTrade(\n    //     address indexed _from,\n    //     address _fromToken,\n    //     address _destToken,\n    //     uint256 _fromAmount,\n    //     uint256 _cbltAmount\n    // );\n    // /**\n    //  * pass in the oracle contract so that it can pull info from it\n    //  */\n    // constructor(\n    //     address _cbltToken,\n    //     address _oracle,\n    //     uint256 _liquidityCbltPoolAmount\n    // ) {\n    //     cbltToken = IERC20(_cbltToken);\n    //     oracle = ExchangeOracle(_oracle);\n    //     cbltLiquidityMaxAmount = _liquidityCbltPoolAmount;\n    // }\n    // // sets CBLT token  // only devs\n    // function setCbltToken(address _cblt) external {\n    //     cbltToken = IERC20(_cblt);\n    // }\n    // // only devs\n    // function setOracle(address _oracle) external {\n    //     oracle = ExchangeOracle(_oracle);\n    // }\n    // // only devs\n    // function changeCbltLiquidityLimit(uint256 _liquidityLimit) external {\n    //     cbltLiquidityMaxAmount = _liquidityLimit;\n    // }\n    // /************ chromium functions ************/\n    // function getExchangeRate() public view returns (uint256) {\n    //     (uint256 sellTokenValue, uint256 buyTokenValue, bool success) =\n    //         oracle.priceOfPair(path[0], path[1]);\n    //     if (success) {\n    //         amounts = new uint256[](path.length);\n    //         amounts[0] = amountIn;\n    //         amountIn = SafeMath.sub(\n    //             amountIn,\n    //             SafeMath.mul(amountIn, SafeMath.div(3, 1000))\n    //         );\n    //         uint256 returnAmount =\n    //             SafeMath.mul(\n    //                 amountIn,\n    //                 SafeMath.findRate(sellTokenValue, buyTokenValue)\n    //             );\n    //         amounts[1] = returnAmount;\n    //     } else {\n    //         amountIn = SafeMath.sub(\n    //             amountIn,\n    //             SafeMath.mul(amountIn, SafeMath.div(3, 1000))\n    //         );\n    //         amounts = uniswap.getAmountsOut(amountIn, path);\n    //     }\n    // }\n    // /**\n    //  * @dev this function will swap cblt tokens for tokens that are allowed\n    //  */\n    // function swapTokens(address[] calldata path, uint256 amount)\n    //     external\n    //     payable\n    //     returns (uint256)\n    // {\n    //     require(\n    //         path[0] != address(cbltToken) && path[1] != address(cbltToken),\n    //         \"Cblt can't be traded with this function\"\n    //     );\n    //     uint256[] memory amounts = getExchangeRate(amount, path);\n    //     if (IERC20(path[0]) == ETH_ADDRESS) {\n    //         require(msg.value != 0, \"Chromium:: msg.value can not equal 0\");\n    //         require(\n    //             tokenLiquidity[path[1]] >= amounts[1],\n    //             \"Not enough tokens in Treasury.\"\n    //         );\n    //         IERC20(path[0]).universalTransferFromSenderToThis(amount);\n    //         tokenLiquidity[path[0]] = SafeMath.add(\n    //             tokenLiquidity[path[0]],\n    //             amount\n    //         );\n    //         IERC20(path[1]).universalTransfer(msg.sender, amounts[1]);\n    //         tokenLiquidity[path[1]] = SafeMath.sub(\n    //             tokenLiquidity[path[1]],\n    //             amounts[1]\n    //         );\n    //         emit ChromiumTrade(\n    //             msg.sender,\n    //             path[0],\n    //             path[1],\n    //             amount,\n    //             amounts[1]\n    //         );\n    //         return amounts[1];\n    //     } else {\n    //         require(\n    //             tokenLiquidity[path[1]] >= amounts[1],\n    //             \"Chromium:: Not enough tokens in Treasury.\"\n    //         );\n    //         IERC20(path[0]).universalTransferFromSenderToThis(amount);\n    //         tokenLiquidity[path[0]] = SafeMath.add(\n    //             tokenLiquidity[path[0]],\n    //             amount\n    //         );\n    //         IERC20(path[1]).universalTransfer(msg.sender, amounts[1]);\n    //         emit ChromiumTrade(\n    //             msg.sender,\n    //             path[0],\n    //             path[1],\n    //             amount,\n    //             amounts[1]\n    //         );\n    //         return amounts[1];\n    //     }\n    // }\n    // function swapCblt(address[] calldata path, uint256 amount)\n    //     external\n    //     payable\n    //     returns (uint256)\n    // {\n    //     require(\n    //         path[0] == address(cbltToken),\n    //         \"Chromium:: fromToken needs to be cbltToken.\"\n    //     );\n    //     uint256[] memory amounts = getExchangeRate(amount, path);\n    //     require(\n    //         tokenLiquidity[path[1]] >= amounts[1],\n    //         \"Not enough tokens in treasury.\"\n    //     );\n    //     cbltToken.universalTransferFromSenderToThis(amount);\n    //     uint256 temp = getCbltPool(amount);\n    //     cbltLiquidity[temp] = SafeMath.add(cbltLiquidity[temp], amount);\n    //     IERC20(path[1]).universalTransfer(msg.sender, amounts[1]);\n    //     tokenLiquidity[path[1]] = SafeMath.sub(\n    //         tokenLiquidity[path[1]],\n    //         amounts[1]\n    //     );\n    //     emit ChromiumTrade(msg.sender, path[0], path[1], amount, amounts[1]);\n    //     return amounts[1];\n    // }\n    // function swapForCblt(address[] calldata path, uint256 amount)\n    //     external\n    //     payable\n    //     returns (uint256)\n    // {\n    //     require(\n    //         path[1] == address(cbltToken),\n    //         \"Chromium:: destToken needs to be cbltToken.\"\n    //     );\n    //     uint256[] memory amounts = getExchangeRate(amount, path);\n    //     uint256 temp = getCbltPool(amounts[1]);\n    //     if (IERC20(path[0]) == ETH_ADDRESS) {\n    //         require(msg.value != 0, \"Chromium:: msg.value can not equal 0\");\n    //         require(\n    //             cbltLiquidity[temp] >= amounts[1],\n    //             \"Not enough cblt tokens in pool for 1000 and up in Treasury.\"\n    //         );\n    //         IERC20(path[0]).universalTransferFromSenderToThis(amount);\n    //         tokenLiquidity[path[0]] = SafeMath.add(\n    //             tokenLiquidity[path[0]],\n    //             amount\n    //         );\n    //         cbltLiquidity[temp] = SafeMath.sub(cbltLiquidity[temp], amounts[1]);\n    //         cbltToken.universalTransfer(msg.sender, amounts[1]);\n    //         emit ChromiumTrade(\n    //             msg.sender,\n    //             path[0],\n    //             path[1],\n    //             amount,\n    //             amounts[1]\n    //         );\n    //         return amounts[1];\n    //     } else {\n    //         require(\n    //             cbltLiquidity[temp] >= amounts[1],\n    //             \"Not enough cblt tokens in pool for 1000 and down in Treasury.\"\n    //         );\n    //         IERC20(path[0]).universalTransferFromSenderToThis(amount);\n    //         tokenLiquidity[path[0]] = SafeMath.add(\n    //             tokenLiquidity[path[0]],\n    //             amount\n    //         );\n    //         cbltLiquidity[temp] = SafeMath.sub(cbltLiquidity[temp], amounts[1]);\n    //         cbltToken.universalTransfer(msg.sender, amounts[1]);\n    //         emit ChromiumTrade(\n    //             msg.sender,\n    //             path[0],\n    //             path[1],\n    //             amount,\n    //             amounts[1]\n    //         );\n    //         return amounts[1];\n    //     }\n    // }\n    // function addCbltToPool(uint256 _poolNumber, uint256 _amount)\n    //     external\n    //     onlyOwner\n    // {\n    //     cbltToken.universalTransferFromSenderToThis(_amount);\n    //     cbltLiquidity[_poolNumber] = SafeMath.add(\n    //         cbltLiquidity[_poolNumber],\n    //         _amount\n    //     );\n    // }\n    // function addNewTokenToPool(address _token, uint256 _amount) external {\n    //     IERC20(_token).universalTransferFromSenderToThis(_amount);\n    //     tokenLiquidity[_token] = SafeMath.add(tokenLiquidity[_token], _amount);\n    //     tokenApproval[_token] = TokenInfo(false, false);\n    // }\n    // function retrieveTokens(IERC20 _token, uint256 amount) external onlyOwner {\n    //     require(\n    //         cbltToken != _token,\n    //         \"Chromium:: can't withdraw CBLT with this function.\"\n    //     );\n    //     require(\n    //         amount <= tokenLiquidity[address(_token)],\n    //         \"Chromium:: not enough tokens in exchange.\"\n    //     );\n    //     _token.universalTransfer(msg.sender, amount);\n    //     tokenLiquidity[address(_token)] = SafeMath.sub(\n    //         tokenLiquidity[address(_token)],\n    //         amount\n    //     );\n    // }\n    // function retrieveCBLT(uint256 liquidityPool, uint256 amount)\n    //     external\n    //     onlyOwner\n    // {\n    //     require(\n    //         amount <= cbltLiquidity[liquidityPool],\n    //         \"Chromium:: not enough CBLT in this liquidity pool.\"\n    //     );\n    //     cbltToken.universalTransfer(msg.sender, amount);\n    //     cbltLiquidity[liquidityPool] = SafeMath.sub(\n    //         cbltLiquidity[liquidityPool],\n    //         amount\n    //     );\n    // }\n    // function getCbltPool(uint256 amount) internal view returns (uint256) {\n    //     if (amount >= cbltLiquidityMaxAmount) {\n    //         return 1;\n    //     } else {\n    //         return 2;\n    //     }\n    // }\n    // // fallback function\n    // receive() external payable {}\n}\n",
  "sourcePath": "/Users/christianroque/Desktop/TungstenGroupProject/contracts/ChromiumV2.sol",
  "compiler": {
    "name": "solc",
    "version": "0.7.6+commit.7338295f.Emscripten.clang"
  },
  "schemaVersion": "3.3.4",
  "updatedAt": "2021-06-13T16:48:46.509Z",
  "devdoc": {
    "kind": "dev",
    "methods": {},
    "version": 1
  },
  "userdoc": {
    "kind": "user",
    "methods": {},
    "version": 1
  }
}