{
  "contractName": "Chromium",
  "abi": [
    {
      "inputs": [
        {
          "internalType": "address",
          "name": "_oracle",
          "type": "address"
        },
        {
          "internalType": "address payable",
          "name": "_treasury",
          "type": "address"
        },
        {
          "internalType": "address",
          "name": "_cbltAddress",
          "type": "address"
        }
      ],
      "stateMutability": "nonpayable",
      "type": "constructor"
    },
    {
      "anonymous": false,
      "inputs": [
        {
          "indexed": false,
          "internalType": "address",
          "name": "_previousOwner",
          "type": "address"
        },
        {
          "indexed": true,
          "internalType": "address",
          "name": "_newOwner",
          "type": "address"
        }
      ],
      "name": "OwnershipTransferred",
      "type": "event"
    },
    {
      "anonymous": false,
      "inputs": [
        {
          "indexed": true,
          "internalType": "address",
          "name": "_from",
          "type": "address"
        },
        {
          "indexed": false,
          "internalType": "uint256",
          "name": "_amount",
          "type": "uint256"
        }
      ],
      "name": "depositToken",
      "type": "event"
    },
    {
      "anonymous": false,
      "inputs": [
        {
          "indexed": true,
          "internalType": "address",
          "name": "_from",
          "type": "address"
        },
        {
          "indexed": true,
          "internalType": "address",
          "name": "_to",
          "type": "address"
        },
        {
          "indexed": false,
          "internalType": "uint256",
          "name": "_amount",
          "type": "uint256"
        }
      ],
      "name": "onTransfer",
      "type": "event"
    },
    {
      "anonymous": false,
      "inputs": [
        {
          "indexed": true,
          "internalType": "address",
          "name": "_sendingToken",
          "type": "address"
        },
        {
          "indexed": false,
          "internalType": "uint256",
          "name": "_amountSent",
          "type": "uint256"
        },
        {
          "indexed": true,
          "internalType": "address",
          "name": "_receivedToken",
          "type": "address"
        },
        {
          "indexed": false,
          "internalType": "uint256",
          "name": "_amountRecieved",
          "type": "uint256"
        }
      ],
      "name": "tokensExchanged",
      "type": "event"
    },
    {
      "inputs": [],
      "name": "_owner",
      "outputs": [
        {
          "internalType": "address",
          "name": "",
          "type": "address"
        }
      ],
      "stateMutability": "view",
      "type": "function"
    },
    {
      "inputs": [],
      "name": "isOwner",
      "outputs": [
        {
          "internalType": "bool",
          "name": "",
          "type": "bool"
        }
      ],
      "stateMutability": "view",
      "type": "function"
    },
    {
      "inputs": [
        {
          "internalType": "contract IERC20",
          "name": "",
          "type": "address"
        }
      ],
      "name": "liquidityAmount",
      "outputs": [
        {
          "internalType": "uint256",
          "name": "",
          "type": "uint256"
        }
      ],
      "stateMutability": "view",
      "type": "function"
    },
    {
      "inputs": [
        {
          "internalType": "address",
          "name": "_newOwner",
          "type": "address"
        }
      ],
      "name": "transferOwnership",
      "outputs": [],
      "stateMutability": "nonpayable",
      "type": "function"
    },
    {
      "stateMutability": "payable",
      "type": "receive"
    },
    {
      "inputs": [
        {
          "internalType": "address payable",
          "name": "_treasury",
          "type": "address"
        }
      ],
      "name": "setTreasury",
      "outputs": [],
      "stateMutability": "nonpayable",
      "type": "function"
    },
    {
      "inputs": [
        {
          "internalType": "address",
          "name": "_oracle",
          "type": "address"
        }
      ],
      "name": "setOracle",
      "outputs": [],
      "stateMutability": "nonpayable",
      "type": "function"
    },
    {
      "inputs": [
        {
          "internalType": "address",
          "name": "_cblt",
          "type": "address"
        }
      ],
      "name": "setCbltToken",
      "outputs": [],
      "stateMutability": "nonpayable",
      "type": "function"
    },
    {
      "inputs": [
        {
          "internalType": "contract IERC20",
          "name": "_cblt",
          "type": "address"
        },
        {
          "internalType": "uint256",
          "name": "_amount",
          "type": "uint256"
        }
      ],
      "name": "depositCbltToTreasury",
      "outputs": [],
      "stateMutability": "payable",
      "type": "function"
    },
    {
      "inputs": [
        {
          "internalType": "contract IERC20",
          "name": "fromToken",
          "type": "address"
        },
        {
          "internalType": "contract IERC20",
          "name": "destToken",
          "type": "address"
        },
        {
          "internalType": "uint256",
          "name": "amount",
          "type": "uint256"
        }
      ],
      "name": "getCbltExchangeRate",
      "outputs": [
        {
          "internalType": "uint256",
          "name": "returnAmount",
          "type": "uint256"
        }
      ],
      "stateMutability": "view",
      "type": "function"
    },
    {
      "inputs": [
        {
          "internalType": "contract IERC20",
          "name": "fromToken",
          "type": "address"
        },
        {
          "internalType": "contract IERC20",
          "name": "destToken",
          "type": "address"
        },
        {
          "internalType": "uint256",
          "name": "amount",
          "type": "uint256"
        },
        {
          "internalType": "uint256",
          "name": "minReturn",
          "type": "uint256"
        }
      ],
      "name": "swapForCblt",
      "outputs": [],
      "stateMutability": "payable",
      "type": "function"
    },
    {
      "inputs": [
        {
          "internalType": "contract IERC20",
          "name": "fromToken",
          "type": "address"
        },
        {
          "internalType": "contract IERC20",
          "name": "destToken",
          "type": "address"
        },
        {
          "internalType": "uint256",
          "name": "amount",
          "type": "uint256"
        },
        {
          "internalType": "uint256",
          "name": "parts",
          "type": "uint256"
        },
        {
          "internalType": "uint256",
          "name": "flags",
          "type": "uint256"
        }
      ],
      "name": "getExpectedReturn",
      "outputs": [
        {
          "internalType": "uint256",
          "name": "returnAmount",
          "type": "uint256"
        },
        {
          "internalType": "uint256[]",
          "name": "distribution",
          "type": "uint256[]"
        }
      ],
      "stateMutability": "view",
      "type": "function"
    },
    {
      "inputs": [
        {
          "internalType": "contract IERC20",
          "name": "fromToken",
          "type": "address"
        },
        {
          "internalType": "contract IERC20",
          "name": "destToken",
          "type": "address"
        },
        {
          "internalType": "uint256",
          "name": "amount",
          "type": "uint256"
        },
        {
          "internalType": "uint256",
          "name": "minReturn",
          "type": "uint256"
        },
        {
          "internalType": "uint256[]",
          "name": "distribution",
          "type": "uint256[]"
        },
        {
          "internalType": "uint256",
          "name": "flags",
          "type": "uint256"
        }
      ],
      "name": "swap",
      "outputs": [
        {
          "internalType": "uint256",
          "name": "returnAmount",
          "type": "uint256"
        }
      ],
      "stateMutability": "payable",
      "type": "function"
    },
    {
      "inputs": [],
      "name": "testCall",
      "outputs": [
        {
          "internalType": "uint256",
          "name": "value",
          "type": "uint256"
        }
      ],
      "stateMutability": "view",
      "type": "function"
    }
  ],
  "bytecode": "0x608060405234801561001057600080fd5b506040516125623803806125628339818101604052606081101561003357600080fd5b81019080805190602001909291908051906020019092919080519060200190929190505050336000806101000a81548173ffffffffffffffffffffffffffffffffffffffff021916908373ffffffffffffffffffffffffffffffffffffffff16021790555082600560006101000a81548173ffffffffffffffffffffffffffffffffffffffff021916908373ffffffffffffffffffffffffffffffffffffffff16021790555081600460006101000a81548173ffffffffffffffffffffffffffffffffffffffff021916908373ffffffffffffffffffffffffffffffffffffffff16021790555082600360006101000a81548173ffffffffffffffffffffffffffffffffffffffff021916908373ffffffffffffffffffffffffffffffffffffffff16021790555080600660006101000a81548173ffffffffffffffffffffffffffffffffffffffff021916908373ffffffffffffffffffffffffffffffffffffffff1602179055505050506123b4806101ae6000396000f3fe6080604052600436106100c65760003560e01c806399195a371161007f578063cbd465c911610059578063cbd465c914610464578063e2a7515e146104b2578063f0f44260146105dc578063f2fde38b1461062d576100cd565b806399195a3714610369578063b2bdfa7b146103f8578063b7f0583614610439576100cd565b8063085e2c5b146100d257806335e344f2146101bd578063676e539d146102225780637adbf9731461029a5780638f32d59b146102eb57806396674ea414610318576100cd565b366100cd57005b600080fd5b3480156100de57600080fd5b5061015f600480360360a08110156100f557600080fd5b81019080803573ffffffffffffffffffffffffffffffffffffffff169060200190929190803573ffffffffffffffffffffffffffffffffffffffff16906020019092919080359060200190929190803590602001909291908035906020019092919050505061067e565b6040518083815260200180602001828103825283818151815260200191508051906020019060200280838360005b838110156101a857808201518184015260208101905061018d565b50505050905001935050505060405180910390f35b3480156101c957600080fd5b5061020c600480360360208110156101e057600080fd5b81019080803573ffffffffffffffffffffffffffffffffffffffff169060200190929190505050610820565b6040518082815260200191505060405180910390f35b6102986004803603608081101561023857600080fd5b81019080803573ffffffffffffffffffffffffffffffffffffffff169060200190929190803573ffffffffffffffffffffffffffffffffffffffff1690602001909291908035906020019092919080359060200190929190505050610838565b005b3480156102a657600080fd5b506102e9600480360360208110156102bd57600080fd5b81019080803573ffffffffffffffffffffffffffffffffffffffff169060200190929190505050610acd565b005b3480156102f757600080fd5b50610300610bcc565b60405180821515815260200191505060405180910390f35b34801561032457600080fd5b506103676004803603602081101561033b57600080fd5b81019080803573ffffffffffffffffffffffffffffffffffffffff169060200190929190505050610c23565b005b34801561037557600080fd5b506103e26004803603606081101561038c57600080fd5b81019080803573ffffffffffffffffffffffffffffffffffffffff169060200190929190803573ffffffffffffffffffffffffffffffffffffffff16906020019092919080359060200190929190505050610ce1565b6040518082815260200191505060405180910390f35b34801561040457600080fd5b5061040d610e06565b604051808273ffffffffffffffffffffffffffffffffffffffff16815260200191505060405180910390f35b34801561044557600080fd5b5061044e610e2a565b6040518082815260200191505060405180910390f35b6104b06004803603604081101561047a57600080fd5b81019080803573ffffffffffffffffffffffffffffffffffffffff16906020019092919080359060200190929190505050610ee9565b005b6105c6600480360360c08110156104c857600080fd5b81019080803573ffffffffffffffffffffffffffffffffffffffff169060200190929190803573ffffffffffffffffffffffffffffffffffffffff16906020019092919080359060200190929190803590602001909291908035906020019064010000000081111561053957600080fd5b82018360208201111561054b57600080fd5b8035906020019184602083028401116401000000008311171561056d57600080fd5b919080806020026020016040519081016040528093929190818152602001838360200280828437600081840152601f19601f82011690508083019250505050505050919291929080359060200190929190505050610f28565b6040518082815260200191505060405180910390f35b3480156105e857600080fd5b5061062b600480360360208110156105ff57600080fd5b81019080803573ffffffffffffffffffffffffffffffffffffffff1690602001909291905050506113fe565b005b34801561063957600080fd5b5061067c6004803603602081101561065057600080fd5b81019080803573ffffffffffffffffffffffffffffffffffffffff1690602001909291905050506114bc565b005b6000606073c3037b2a1a9e9268025ff6d45fe7095436446d5273ffffffffffffffffffffffffffffffffffffffff1663085e2c5b88888888886040518663ffffffff1660e01b8152600401808673ffffffffffffffffffffffffffffffffffffffff1681526020018573ffffffffffffffffffffffffffffffffffffffff1681526020018481526020018381526020018281526020019550505050505060006040518083038186803b15801561073357600080fd5b505afa158015610747573d6000803e3d6000fd5b505050506040513d6000823e3d601f19601f82011682018060405250604081101561077157600080fd5b81019080805190602001909291908051604051939291908464010000000082111561079b57600080fd5b838201915060208201858111156107b157600080fd5b82518660208202830111640100000000821117156107ce57600080fd5b8083526020830192505050908051906020019060200280838360005b838110156108055780820151818401526020810190506107ea565b50505050905001604052505050915091509550959350505050565b60016020528060005260406000206000915090505481565b61084284846115f7565b61084b57600080fd5b8060025410156108c3576040517f08c379a000000000000000000000000000000000000000000000000000000000815260040180806020018281038252601e8152602001807f4e6f7420656e6f75676820746f6b656e7320696e2054726561737572792e000081525060200191505060405180910390fd5b6108ec828573ffffffffffffffffffffffffffffffffffffffff1661172f90919063ffffffff16565b610935600160008673ffffffffffffffffffffffffffffffffffffffff1673ffffffffffffffffffffffffffffffffffffffff16815260200190815260200160002054836117e5565b600160008673ffffffffffffffffffffffffffffffffffffffff1673ffffffffffffffffffffffffffffffffffffffff168152602001908152602001600020819055506109c5600460009054906101000a900473ffffffffffffffffffffffffffffffffffffffff16838673ffffffffffffffffffffffffffffffffffffffff166118019092919063ffffffff16565b600460009054906101000a900473ffffffffffffffffffffffffffffffffffffffff1673ffffffffffffffffffffffffffffffffffffffff166332e700c23486863387876040518763ffffffff1660e01b8152600401808673ffffffffffffffffffffffffffffffffffffffff1681526020018573ffffffffffffffffffffffffffffffffffffffff1681526020018473ffffffffffffffffffffffffffffffffffffffff168152602001838152602001828152602001955050505050506000604051808303818588803b158015610a9c57600080fd5b505af1158015610ab0573d6000803e3d6000fd5b5050505050610ac16002548261197e565b60028190555050505050565b610ad5610bcc565b610b47576040517f08c379a00000000000000000000000000000000000000000000000000000000081526004018080602001828103825260168152602001807f596f7520617265206e6f7420746865206f776e65722e0000000000000000000081525060200191505060405180910390fd5b80600560006101000a81548173ffffffffffffffffffffffffffffffffffffffff021916908373ffffffffffffffffffffffffffffffffffffffff16021790555080600360006101000a81548173ffffffffffffffffffffffffffffffffffffffff021916908373ffffffffffffffffffffffffffffffffffffffff16021790555050565b60008060009054906101000a900473ffffffffffffffffffffffffffffffffffffffff1673ffffffffffffffffffffffffffffffffffffffff163373ffffffffffffffffffffffffffffffffffffffff1614905090565b610c2b610bcc565b610c9d576040517f08c379a00000000000000000000000000000000000000000000000000000000081526004018080602001828103825260168152602001807f596f7520617265206e6f7420746865206f776e65722e0000000000000000000081525060200191505060405180910390fd5b80600660006101000a81548173ffffffffffffffffffffffffffffffffffffffff021916908373ffffffffffffffffffffffffffffffffffffffff16021790555050565b6000610ced84846115f7565b610cf657600080fd5b600080600560009054906101000a900473ffffffffffffffffffffffffffffffffffffffff1673ffffffffffffffffffffffffffffffffffffffff16633a7a2a0687876040518363ffffffff1660e01b8152600401808373ffffffffffffffffffffffffffffffffffffffff1681526020018273ffffffffffffffffffffffffffffffffffffffff16815260200192505050604080518083038186803b158015610d9f57600080fd5b505afa158015610db3573d6000803e3d6000fd5b505050506040513d6040811015610dc957600080fd5b81019080805190602001909291908051906020019092919050505091509150610dfb84610df68484611995565b6119b2565b925050509392505050565b60008054906101000a900473ffffffffffffffffffffffffffffffffffffffff1681565b6000806000600560009054906101000a900473ffffffffffffffffffffffffffffffffffffffff1673ffffffffffffffffffffffffffffffffffffffff16633412a15c6040518163ffffffff1660e01b8152600401604080518083038186803b158015610e9657600080fd5b505afa158015610eaa573d6000803e3d6000fd5b505050506040513d6040811015610ec057600080fd5b810190808051906020019092919080519060200190929190505050915091508082019250505090565b610f12818373ffffffffffffffffffffffffffffffffffffffff1661172f90919063ffffffff16565b610f1e600254826117e5565b6002819055505050565b60008573ffffffffffffffffffffffffffffffffffffffff168773ffffffffffffffffffffffffffffffffffffffff1614158015610f665750600085115b610fd8576040517f08c379a000000000000000000000000000000000000000000000000000000000815260040180806020018281038252600e8152602001807f556e61626c6520746f207377617000000000000000000000000000000000000081525060200191505060405180910390fd5b610ff78773ffffffffffffffffffffffffffffffffffffffff166119e9565b15156000341415151514611056576040517f08c379a00000000000000000000000000000000000000000000000000000000081526004018080602001828103825260228152602001806122a46022913960400191505060405180910390fd5b600061108a611084308a73ffffffffffffffffffffffffffffffffffffffff16611a6b90919063ffffffff16565b3461197e565b905060006110b7308973ffffffffffffffffffffffffffffffffffffffff16611a6b90919063ffffffff16565b90506110e2878a73ffffffffffffffffffffffffffffffffffffffff1661172f90919063ffffffff16565b61112173c3037b2a1a9e9268025ff6d45fe7095436446d52888b73ffffffffffffffffffffffffffffffffffffffff166118019092919063ffffffff16565b73c3037b2a1a9e9268025ff6d45fe7095436446d5273ffffffffffffffffffffffffffffffffffffffff1663e2a7515e348b8b8b8b8b8b6040518863ffffffff1660e01b8152600401808773ffffffffffffffffffffffffffffffffffffffff1681526020018673ffffffffffffffffffffffffffffffffffffffff16815260200185815260200184815260200180602001838152602001828103825284818151815260200191508051906020019060200280838360005b838110156111f45780820151818401526020810190506111d9565b505050509050019750505050505050506020604051808303818588803b15801561121d57600080fd5b505af1158015611231573d6000803e3d6000fd5b50505050506040513d602081101561124857600080fd5b8101908080519060200190929190505050506000611285308b73ffffffffffffffffffffffffffffffffffffffff16611a6b90919063ffffffff16565b905060006112b2308b73ffffffffffffffffffffffffffffffffffffffff16611a6b90919063ffffffff16565b90506112be818461197e565b945087851015611319576040517f08c379a00000000000000000000000000000000000000000000000000000000081526004018080602001828103825260338152602001806122ec6033913960400191505060405180910390fd5b61134433868c73ffffffffffffffffffffffffffffffffffffffff16611b459092919063ffffffff16565b5083821115611383576113813361135b848761197e565b8d73ffffffffffffffffffffffffffffffffffffffff16611b459092919063ffffffff16565b505b8973ffffffffffffffffffffffffffffffffffffffff168b73ffffffffffffffffffffffffffffffffffffffff167fd67ebc225fb5fd7330b434da891f71da6862048a169bd955dc712ddcf75c27528b8b604051808381526020018281526020019250505060405180910390a3505050509695505050505050565b611406610bcc565b611478576040517f08c379a00000000000000000000000000000000000000000000000000000000081526004018080602001828103825260168152602001807f596f7520617265206e6f7420746865206f776e65722e0000000000000000000081525060200191505060405180910390fd5b80600460006101000a81548173ffffffffffffffffffffffffffffffffffffffff021916908373ffffffffffffffffffffffffffffffffffffffff16021790555050565b6114c4610bcc565b611536576040517f08c379a00000000000000000000000000000000000000000000000000000000081526004018080602001828103825260168152602001807f596f7520617265206e6f7420746865206f776e65722e0000000000000000000081525060200191505060405180910390fd5b600073ffffffffffffffffffffffffffffffffffffffff168173ffffffffffffffffffffffffffffffffffffffff16141561157057600080fd5b8073ffffffffffffffffffffffffffffffffffffffff167f8be0079c531659141344cd1fd0a4f28419497f9722a3daafe3b4186f6b6457e060008054906101000a900473ffffffffffffffffffffffffffffffffffffffff16604051808273ffffffffffffffffffffffffffffffffffffffff16815260200191505060405180910390a250565b6000600460009054906101000a900473ffffffffffffffffffffffffffffffffffffffff1673ffffffffffffffffffffffffffffffffffffffff1663f9eaee0d846040518263ffffffff1660e01b8152600401808273ffffffffffffffffffffffffffffffffffffffff16815260200191505060206040518083038186803b15801561168257600080fd5b505afa158015611696573d6000803e3d6000fd5b505050506040513d60208110156116ac57600080fd5b810190808051906020019092919050505080156117165750600660009054906101000a900473ffffffffffffffffffffffffffffffffffffffff1673ffffffffffffffffffffffffffffffffffffffff168273ffffffffffffffffffffffffffffffffffffffff16145b156117245760019050611729565b600090505b92915050565b600081141561173d576117e1565b611746826119e9565b156117b257803411156117ad573373ffffffffffffffffffffffffffffffffffffffff166108fc611780833461197e90919063ffffffff16565b9081150290604051600060405180830381858888f193505050501580156117ab573d6000803e3d6000fd5b505b6117e0565b6117df3330838573ffffffffffffffffffffffffffffffffffffffff16611bed909392919063ffffffff16565b5b5b5050565b6000808284019050838110156117f757fe5b8091505092915050565b61180a836119e9565b611978576000811415611848576118438260008573ffffffffffffffffffffffffffffffffffffffff16611cae9092919063ffffffff16565b611979565b60008373ffffffffffffffffffffffffffffffffffffffff1663dd62ed3e30856040518363ffffffff1660e01b8152600401808373ffffffffffffffffffffffffffffffffffffffff1681526020018273ffffffffffffffffffffffffffffffffffffffff1681526020019250505060206040518083038186803b1580156118cf57600080fd5b505afa1580156118e3573d6000803e3d6000fd5b505050506040513d60208110156118f957600080fd5b810190808051906020019092919050505090508181101561197657600081111561194a576119498360008673ffffffffffffffffffffffffffffffffffffffff16611cae9092919063ffffffff16565b5b61197583838673ffffffffffffffffffffffffffffffffffffffff16611cae9092919063ffffffff16565b5b505b5b505050565b60008282111561198a57fe5b818303905092915050565b600080826103e88502816119a557fe5b0490508091505092915050565b6000808314156119c557600090506119e3565b60008284029050828482816119d657fe5b04146119de57fe5b809150505b92915050565b60008073ffffffffffffffffffffffffffffffffffffffff168273ffffffffffffffffffffffffffffffffffffffff161480611a64575073eeeeeeeeeeeeeeeeeeeeeeeeeeeeeeeeeeeeeeee73ffffffffffffffffffffffffffffffffffffffff168273ffffffffffffffffffffffffffffffffffffffff16145b9050919050565b6000611a76836119e9565b15611a9a578173ffffffffffffffffffffffffffffffffffffffff16319050611b3f565b8273ffffffffffffffffffffffffffffffffffffffff166370a08231836040518263ffffffff1660e01b8152600401808273ffffffffffffffffffffffffffffffffffffffff16815260200191505060206040518083038186803b158015611b0157600080fd5b505afa158015611b15573d6000803e3d6000fd5b505050506040513d6020811015611b2b57600080fd5b810190808051906020019092919050505090505b92915050565b600080821415611b585760019050611be6565b611b61846119e9565b15611bb6578273ffffffffffffffffffffffffffffffffffffffff166108fc839081150290604051600060405180830381858888f19350505050158015611bac573d6000803e3d6000fd5b5060019050611be6565b611be183838673ffffffffffffffffffffffffffffffffffffffff16611e739092919063ffffffff16565b600190505b9392505050565b611ca8846323b872dd60e01b858585604051602401808473ffffffffffffffffffffffffffffffffffffffff1681526020018373ffffffffffffffffffffffffffffffffffffffff1681526020018281526020019350505050604051602081830303815290604052907bffffffffffffffffffffffffffffffffffffffffffffffffffffffff19166020820180517bffffffffffffffffffffffffffffffffffffffffffffffffffffffff8381831617835250505050611f15565b50505050565b6000811480611d7c575060008373ffffffffffffffffffffffffffffffffffffffff1663dd62ed3e30856040518363ffffffff1660e01b8152600401808373ffffffffffffffffffffffffffffffffffffffff1681526020018273ffffffffffffffffffffffffffffffffffffffff1681526020019250505060206040518083038186803b158015611d3f57600080fd5b505afa158015611d53573d6000803e3d6000fd5b505050506040513d6020811015611d6957600080fd5b8101908080519060200190929190505050145b611dd1576040517f08c379a00000000000000000000000000000000000000000000000000000000081526004018080602001828103825260368152602001806123496036913960400191505060405180910390fd5b611e6e8363095ea7b360e01b8484604051602401808373ffffffffffffffffffffffffffffffffffffffff16815260200182815260200192505050604051602081830303815290604052907bffffffffffffffffffffffffffffffffffffffffffffffffffffffff19166020820180517bffffffffffffffffffffffffffffffffffffffffffffffffffffffff8381831617835250505050611f15565b505050565b611f108363a9059cbb60e01b8484604051602401808373ffffffffffffffffffffffffffffffffffffffff16815260200182815260200192505050604051602081830303815290604052907bffffffffffffffffffffffffffffffffffffffffffffffffffffffff19166020820180517bffffffffffffffffffffffffffffffffffffffffffffffffffffffff8381831617835250505050611f15565b505050565b6000611f77826040518060400160405280602081526020017f5361666545524332303a206c6f772d6c6576656c2063616c6c206661696c65648152508573ffffffffffffffffffffffffffffffffffffffff166120049092919063ffffffff16565b9050600081511115611fff57808060200190516020811015611f9857600080fd5b8101908080519060200190929190505050611ffe576040517f08c379a000000000000000000000000000000000000000000000000000000000815260040180806020018281038252602a81526020018061231f602a913960400191505060405180910390fd5b5b505050565b6060612013848460008561201c565b90509392505050565b606082471015612077576040517f08c379a00000000000000000000000000000000000000000000000000000000081526004018080602001828103825260268152602001806122c66026913960400191505060405180910390fd5b612080856121c4565b6120f2576040517f08c379a000000000000000000000000000000000000000000000000000000000815260040180806020018281038252601d8152602001807f416464726573733a2063616c6c20746f206e6f6e2d636f6e747261637400000081525060200191505060405180910390fd5b6000808673ffffffffffffffffffffffffffffffffffffffff1685876040518082805190602001908083835b60208310612141578051825260208201915060208101905060208303925061211e565b6001836020036101000a03801982511681845116808217855250505050505090500191505060006040518083038185875af1925050503d80600081146121a3576040519150601f19603f3d011682016040523d82523d6000602084013e6121a8565b606091505b50915091506121b88282866121d7565b92505050949350505050565b600080823b905060008111915050919050565b606083156121e75782905061229c565b6000835111156121fa5782518084602001fd5b816040517f08c379a00000000000000000000000000000000000000000000000000000000081526004018080602001828103825283818151815260200191508051906020019080838360005b83811015612261578082015181840152602081019050612246565b50505050905090810190601f16801561228e5780820380516001836020036101000a031916815260200191505b509250505060405180910390fd5b939250505056fe6d73672e76616c75652063616e206f6e6c79206265207573656420666f7220657468416464726573733a20696e73756666696369656e742062616c616e636520666f722063616c6c61637475616c2072657475726e20616d6f756e74206973206c657373207468616e206d696e2072657475726e20616d6f756e745361666545524332303a204552433230206f7065726174696f6e20646964206e6f7420737563636565645361666545524332303a20617070726f76652066726f6d206e6f6e2d7a65726f20746f206e6f6e2d7a65726f20616c6c6f77616e6365a2646970667358221220e68e9ef532a0a50092a5ef4e658a0c9296ae1e7c8d8a38fa130c1875e890ec5364736f6c63430007060033",
  "immutableReferences": {},
  "source": "// SPDX-License-Identifier: MIT\npragma solidity >=0.4.22 <0.9.0;\n\n/**\n * getExpectedReturnWithGas is a method on the 1inch protocol that is free to call and will return\n * a distribution array. each element in array shows an exchange and represents a fraction of trading volume.\n * it will also return the amount the minimum amount tokens that will be received by the caller based on the amount\n * that they are selling. it also returns the amount of gas that is being used.\n *\n * I removed the oracle because i figured we can use the _minReturn from getExpectedReturnWithGas as the conversion\n * rate for the two tokens instead of having our own oracle.\n *\n * the exchangeTokens method will first check if the tokens are allowed in our contract and if we have enough\n * tokens in the contract to make the exchange. if we do then the exchange will happen here. if we dont, then\n * the 1inch swap protocol will be called to complete the exchange\n */\n\nimport \"./interfaces/UniversalERC20.sol\";\nimport \"./interfaces/Ownable.sol\";\nimport \"./interfaces/IOneSplit.sol\";\nimport \"./ExchangeOracle.sol\";\nimport \"./Bank.sol\";\n\ncontract Chromium is Ownable {\n    using UniversalERC20 for IERC20;\n\n    mapping(IERC20 => uint256) public liquidityAmount;\n    uint256 amountOfCblt;\n\n    address oracleAddress;\n\n    Bank treasury;\n    ExchangeOracle oracle;\n    IERC20 cblt_token;\n\n    IERC20 private constant ZERO_ADDRESS =\n        IERC20(0x0000000000000000000000000000000000000000); // eth address substitute\n    IERC20 private constant ETH_ADDRESS =\n        IERC20(0xEeeeeEeeeEeEeeEeEeEeeEEEeeeeEeeeeeeeEEeE); // eth address substitute\n    IOneSplit private constant oneSplitImpl =\n        IOneSplit(0xc3037b2A1a9E9268025FF6d45Fe7095436446D52); // sets 1inch protocol\n\n    event depositToken(address indexed _from, uint256 _amount);\n    event onTransfer(\n        address indexed _from,\n        address indexed _to,\n        uint256 _amount\n    );\n    event tokensExchanged(\n        address indexed _sendingToken,\n        uint256 _amountSent,\n        address indexed _receivedToken,\n        uint256 _amountRecieved\n    );\n\n    /**\n     * pass in the oracle contract so that it can pull info from it\n     */\n    constructor(\n        address _oracle,\n        address payable _treasury,\n        address _cbltAddress\n    ) {\n        oracle = ExchangeOracle(_oracle);\n        treasury = Bank(_treasury);\n        oracleAddress = _oracle;\n        cblt_token = IERC20(_cbltAddress);\n    }\n\n    /** this sets the treasury, and oracle */\n\n    function setTreasury(address payable _treasury) public onlyOwner {\n        treasury = Bank(_treasury);\n    }\n\n    function setOracle(address _oracle) public onlyOwner {\n        oracle = ExchangeOracle(_oracle);\n        oracleAddress = _oracle;\n    }\n\n    function setCbltToken(address _cblt) public onlyOwner {\n        cblt_token = IERC20(_cblt);\n    }\n\n    /**\n     * @dev this function should be called to deposit the cblt tokens that are initial sent\n     * to chromium to use\n     */\n    function depositCbltToTreasury(IERC20 _cblt, uint256 _amount)\n        external\n        payable\n    {\n        _cblt.universalTransferFromSenderToThis(_amount);\n        amountOfCblt = SafeMath.add(amountOfCblt, _amount);\n\n        // treasury.depositTokens{value: msg.value}(address(_cblt), _amount);\n    }\n\n    /************ chromium functions ************/\n    /**\n     * @dev this function will get the exchagne rate for the token being exchanged for cblt token\n     * it will call on the oracle to make the calculation. the returnAmount is going to be a factor\n     * of three larger than the actual amount which means the returnAmount will need to be divided by\n     * 1000 to get the correct amount that will be swapped\n     */\n    function getCbltExchangeRate(\n        IERC20 fromToken,\n        IERC20 destToken,\n        uint256 amount\n    ) public view returns (uint256 returnAmount) {\n        require(_checkTokensAllowed(fromToken, destToken));\n        (uint256 sellTokenValue, uint256 buyTokenValue) =\n            oracle.priceOfPair(address(fromToken), address(destToken));\n        returnAmount = SafeMath.mul(\n            amount,\n            SafeMath.findRate(sellTokenValue, buyTokenValue)\n        );\n    }\n\n    /**\n     * @dev this function will swap cblt tokens for tokens that are allowed in the bank\n     * it calls on a function inside of the bank to do the exchange since no tokens are going\n     * to be held in the exchange\n     */\n    function swapForCblt(\n        IERC20 fromToken,\n        IERC20 destToken,\n        uint256 amount,\n        uint256 minReturn\n    ) external payable {\n        require(_checkTokensAllowed(fromToken, destToken));\n        require(amountOfCblt >= minReturn, \"Not enough tokens in Treasury.\");\n\n        fromToken.universalTransferFromSenderToThis(amount);\n        liquidityAmount[fromToken] = SafeMath.add(\n            liquidityAmount[fromToken],\n            amount\n        );\n\n        fromToken.universalApprove(address(treasury), amount);\n        treasury.withdrawCbltForExchange{value: msg.value}(\n            fromToken,\n            destToken,\n            msg.sender,\n            amount,\n            minReturn\n        );\n\n        amountOfCblt = SafeMath.sub(amountOfCblt, minReturn);\n    }\n\n    /************ 1inch Protocol functions ************/\n    /**\n     * @dev Calculate expected returning amount of `destToken`\n     * @param fromToken (IERC20) Address of token or `address(0)` for Ether\n     * @param destToken (IERC20) Address of token or `address(0)` for Ether\n     * @param amount (uint256) Amount for `fromToken`\n     * @param parts (uint256) Number of pieces source volume could be splitted,\n     * works like granularity, higly affects gas usage. Should be called offchain,\n     * but could be called onchain if user swaps not his own funds, but this is still considered as not safe.\n     * @param flags (uint256) Flags for enabling and disabling some features, default 0\n     */\n    function getExpectedReturn(\n        IERC20 fromToken,\n        IERC20 destToken,\n        uint256 amount,\n        uint256 parts,\n        uint256 flags // See constants in IOneSplit.sol\n    )\n        public\n        view\n        returns (uint256 returnAmount, uint256[] memory distribution)\n    {\n        return\n            oneSplitImpl.getExpectedReturn(\n                fromToken,\n                destToken,\n                amount,\n                parts,\n                flags\n            );\n    }\n\n    /**\n     * @dev Swap `amount` of `fromToken` to 'destToken`\n     * @param fromToken (IERC20) Address of token or `address(0)` for Ether\n     * @param destToken (IERC20) Address of token or `address(0)` for Ether\n     * @param amount (uint256) Amount for `fromToken`\n     * @param minReturn (uint256) Minimum expected return, returned by getExpectedReturn\n     * @param distribution (uint256[]) Array of weights for volume distribution returned by `getExpectedReturn`\n     * @param flags (uint256) Flags for enabling and disabling some features, default 0\n     */\n    function swap(\n        IERC20 fromToken,\n        IERC20 destToken,\n        uint256 amount,\n        uint256 minReturn,\n        uint256[] memory distribution,\n        uint256 flags\n    ) external payable returns (uint256 returnAmount) {\n        // makes sure tokens aren't the same and amount is greater than 0\n        require(fromToken != destToken && amount > 0, \"Unable to swap\");\n        // makes sure msg.value is only being used for eth\n        require(\n            (msg.value != 0) == fromToken.isETH(),\n            \"msg.value can only be used for eth\"\n        );\n\n        uint256 fromTokenBalanceBefore =\n            SafeMath.sub(\n                fromToken.universalBalanceOf(address(this)),\n                msg.value\n            );\n        uint256 destTokenBalanceBefore =\n            destToken.universalBalanceOf(address(this));\n\n        fromToken.universalTransferFromSenderToThis(amount);\n        fromToken.universalApprove(address(oneSplitImpl), amount);\n\n        oneSplitImpl.swap{value: msg.value}(\n            fromToken,\n            destToken,\n            amount,\n            minReturn,\n            distribution,\n            flags\n        );\n\n        uint256 fromTokenBalanceAfter =\n            fromToken.universalBalanceOf(address(this));\n        uint256 destTokenBalanceAfter =\n            destToken.universalBalanceOf(address(this));\n        returnAmount = SafeMath.sub(\n            destTokenBalanceAfter,\n            destTokenBalanceBefore\n        );\n\n        require(\n            returnAmount >= minReturn,\n            \"actual return amount is less than min return amount\"\n        );\n        destToken.universalTransfer(msg.sender, returnAmount);\n\n        if (fromTokenBalanceAfter > fromTokenBalanceBefore) {\n            fromToken.universalTransfer(\n                msg.sender,\n                SafeMath.sub(fromTokenBalanceAfter, fromTokenBalanceBefore)\n            );\n        }\n\n        emit tokensExchanged(\n            address(fromToken),\n            amount,\n            address(destToken),\n            minReturn\n        );\n    }\n\n    /**\n     * @dev this function will check to see if the both tokens are correct when wanting\n     * to make the exchange with chromium\n     */\n    function _checkTokensAllowed(IERC20 fromToken, IERC20 destToken)\n        internal\n        view\n        returns (bool)\n    {\n        if (\n            treasury.isTokenAllowed(address(fromToken)) &&\n            destToken == cblt_token\n        ) {\n            return true;\n        } else {\n            return false;\n        }\n    }\n\n    function testCall() public view returns (uint256 value) {\n        (uint256 sellTokenValue, uint256 buyTokenValue) =\n            oracle.testConnection();\n        value = sellTokenValue + buyTokenValue;\n    }\n\n    // fallback function\n    receive() external payable {}\n}\n",
  "sourcePath": "/Users/christianroque/Desktop/solidity-playground/contracts/Chromium.sol",
  "compiler": {
    "name": "solc",
    "version": "0.7.6+commit.7338295f.Emscripten.clang"
  },
  "schemaVersion": "3.3.4",
  "updatedAt": "2021-05-05T23:01:17.814Z",
  "devdoc": {
    "kind": "dev",
    "methods": {
      "depositCbltToTreasury(address,uint256)": {
        "details": "this function should be called to deposit the cblt tokens that are initial sent to chromium to use"
      },
      "getCbltExchangeRate(address,address,uint256)": {
        "details": "this function will get the exchagne rate for the token being exchanged for cblt token it will call on the oracle to make the calculation. the returnAmount is going to be a factor of three larger than the actual amount which means the returnAmount will need to be divided by 1000 to get the correct amount that will be swapped"
      },
      "getExpectedReturn(address,address,uint256,uint256,uint256)": {
        "details": "Calculate expected returning amount of `destToken`",
        "params": {
          "amount": "(uint256) Amount for `fromToken`",
          "destToken": "(IERC20) Address of token or `address(0)` for Ether",
          "flags": "(uint256) Flags for enabling and disabling some features, default 0",
          "fromToken": "(IERC20) Address of token or `address(0)` for Ether",
          "parts": "(uint256) Number of pieces source volume could be splitted, works like granularity, higly affects gas usage. Should be called offchain, but could be called onchain if user swaps not his own funds, but this is still considered as not safe."
        }
      },
      "swap(address,address,uint256,uint256,uint256[],uint256)": {
        "details": "Swap `amount` of `fromToken` to 'destToken`",
        "params": {
          "amount": "(uint256) Amount for `fromToken`",
          "destToken": "(IERC20) Address of token or `address(0)` for Ether",
          "distribution": "(uint256[]) Array of weights for volume distribution returned by `getExpectedReturn`",
          "flags": "(uint256) Flags for enabling and disabling some features, default 0",
          "fromToken": "(IERC20) Address of token or `address(0)` for Ether",
          "minReturn": "(uint256) Minimum expected return, returned by getExpectedReturn"
        }
      },
      "swapForCblt(address,address,uint256,uint256)": {
        "details": "this function will swap cblt tokens for tokens that are allowed in the bank it calls on a function inside of the bank to do the exchange since no tokens are going to be held in the exchange"
      }
    },
    "version": 1
  },
  "userdoc": {
    "kind": "user",
    "methods": {
      "constructor": {
        "notice": "pass in the oracle contract so that it can pull info from it"
      },
      "setTreasury(address)": {
        "notice": "this sets the treasury, and oracle "
      }
    },
    "version": 1
  }
}