{
  "contractName": "Chromium",
  "abi": [
    {
      "anonymous": false,
      "inputs": [
        {
          "indexed": false,
          "internalType": "address",
          "name": "account",
          "type": "address"
        },
        {
          "indexed": false,
          "internalType": "address",
          "name": "token",
          "type": "address"
        },
        {
          "indexed": false,
          "internalType": "uint256",
          "name": "amount",
          "type": "uint256"
        }
      ],
      "name": "TokensPurchased",
      "type": "event"
    },
    {
      "anonymous": false,
      "inputs": [
        {
          "indexed": false,
          "internalType": "address",
          "name": "account",
          "type": "address"
        },
        {
          "indexed": false,
          "internalType": "address",
          "name": "token",
          "type": "address"
        },
        {
          "indexed": false,
          "internalType": "uint256",
          "name": "amount",
          "type": "uint256"
        }
      ],
      "name": "TokensSold",
      "type": "event"
    },
    {
      "inputs": [
        {
          "internalType": "address",
          "name": "_sellTokenAddress",
          "type": "address"
        },
        {
          "internalType": "uint256",
          "name": "_amountToSell",
          "type": "uint256"
        },
        {
          "internalType": "address",
          "name": "_buyTokenAddress",
          "type": "address"
        },
        {
          "internalType": "uint256",
          "name": "_priceOfSellToken",
          "type": "uint256"
        },
        {
          "internalType": "uint256",
          "name": "_priceOfBuyToken",
          "type": "uint256"
        }
      ],
      "name": "exchangeTokens",
      "outputs": [],
      "stateMutability": "payable",
      "type": "function"
    }
  ],
  "bytecode": "0x608060405234801561001057600080fd5b506104a4806100206000396000f3fe60806040526004361061001e5760003560e01c80630bf2a48614610023575b600080fd5b6100a3600480360360a081101561003957600080fd5b81019080803573ffffffffffffffffffffffffffffffffffffffff16906020019092919080359060200190929190803573ffffffffffffffffffffffffffffffffffffffff16906020019092919080359060200190929190803590602001909291905050506100a5565b005b846000806101000a81548173ffffffffffffffffffffffffffffffffffffffff021916908373ffffffffffffffffffffffffffffffffffffffff16021790555082600160006101000a81548173ffffffffffffffffffffffffffffffffffffffff021916908373ffffffffffffffffffffffffffffffffffffffff160217905550600061013b8561013685856103eb565b610404565b905080600260008673ffffffffffffffffffffffffffffffffffffffff1673ffffffffffffffffffffffffffffffffffffffff16815260200190815260200160002054101561018957600080fd5b6101d2600260008673ffffffffffffffffffffffffffffffffffffffff1673ffffffffffffffffffffffffffffffffffffffff168152602001908152602001600020548261043b565b600260008673ffffffffffffffffffffffffffffffffffffffff1673ffffffffffffffffffffffffffffffffffffffff1681526020019081526020016000208190555061025e600260008873ffffffffffffffffffffffffffffffffffffffff1673ffffffffffffffffffffffffffffffffffffffff1681526020019081526020016000205486610452565b600260008873ffffffffffffffffffffffffffffffffffffffff1673ffffffffffffffffffffffffffffffffffffffff16815260200190815260200160002081905550600160009054906101000a900473ffffffffffffffffffffffffffffffffffffffff1673ffffffffffffffffffffffffffffffffffffffff1663a9059cbb33836040518363ffffffff1660e01b8152600401808373ffffffffffffffffffffffffffffffffffffffff16815260200182815260200192505050602060405180830381600087803b15801561033457600080fd5b505af1158015610348573d6000803e3d6000fd5b505050506040513d602081101561035e57600080fd5b8101908080519060200190929190505050507ff9b4eb3e43eebbf559e9b96ceff1c786a7edab2938c7f5f80678197c2e0edba5338583604051808473ffffffffffffffffffffffffffffffffffffffff1681526020018373ffffffffffffffffffffffffffffffffffffffff168152602001828152602001935050505060405180910390a1505050505050565b6000808284816103f757fe5b0490508091505092915050565b6000808314156104175760009050610435565b600082840290508284828161042857fe5b041461043057fe5b809150505b92915050565b60008282111561044757fe5b818303905092915050565b60008082840190508381101561046457fe5b809150509291505056fea2646970667358221220aac3d87cfc9135a0ffba7a79deb19012888879f8d4ffbd0a0b7534ec32dc96e264736f6c63430007060033",
  "immutableReferences": {},
  "source": "// SPDX-License-Identifier: MIT\npragma solidity >=0.4.22 <0.9.0;\n\nimport './ERC20.sol';\nimport './SafeMath.sol';\n\ncontract Chromium {\n\n    ERC20 sellToken;\n    ERC20 buyToken;\n\n    mapping(address => uint256) tokenBalance;\n\n    event TokensPurchased(\n        address account,\n        address token,\n        uint amount\n    );\n\n    event TokensSold(\n        address account,\n        address token,\n        uint amount\n    );\n\n    /**\n    * @dev function that will allow people to exchange tokens\n    * @param _sellTokenAddress the address of the token the user wants to exchange\n    * @param _amountToSell the amount the user wants to exchange\n    * @param _buyTokenAddress the address of the token the user wants to obtain\n    * @param _priceOfSellToken price of the token that is being sold (obtain by api call to etherscan)\n    * @param _priceOfBuyToken price of the token that is being obtained (obtain by api call to etherscan)\n    */\n    function exchangeTokens(address _sellTokenAddress, uint256 _amountToSell, address _buyTokenAddress, uint256 _priceOfSellToken, uint256 _priceOfBuyToken) public payable {\n\n        sellToken = ERC20(address(_sellTokenAddress));\n        buyToken = ERC20(address(_buyTokenAddress));\n        uint256 _exchangeRate = SafeMath.mul(_amountToSell, SafeMath.div(_priceOfSellToken, _priceOfBuyToken));\n\n        // Require that Chromium has enough tokens\n        require(tokenBalance[_buyTokenAddress] >= _exchangeRate);\n\n        tokenBalance[_buyTokenAddress] = SafeMath.sub(tokenBalance[_buyTokenAddress], _exchangeRate);\n        tokenBalance[_sellTokenAddress] = SafeMath.add(tokenBalance[_sellTokenAddress], _amountToSell);\n\n        // Transfer tokens to the user\n        buyToken.transfer(msg.sender, _exchangeRate);\n\n        // Emit an event\n        emit TokensPurchased(msg.sender, _buyTokenAddress, _exchangeRate);\n    }\n\n}\n",
  "sourcePath": "/Users/christianroque/Desktop/solidity-playground/contracts/Chromium.sol",
  "compiler": {
    "name": "solc",
    "version": "0.7.6+commit.7338295f.Emscripten.clang"
  },
  "schemaVersion": "3.3.4",
  "updatedAt": "2021-03-31T23:29:07.378Z",
  "devdoc": {
    "kind": "dev",
    "methods": {
      "exchangeTokens(address,uint256,address,uint256,uint256)": {
        "details": "function that will allow people to exchange tokens",
        "params": {
          "_amountToSell": "the amount the user wants to exchange",
          "_buyTokenAddress": "the address of the token the user wants to obtain",
          "_priceOfBuyToken": "price of the token that is being obtained (obtain by api call to etherscan)",
          "_priceOfSellToken": "price of the token that is being sold (obtain by api call to etherscan)",
          "_sellTokenAddress": "the address of the token the user wants to exchange"
        }
      }
    },
    "version": 1
  },
  "userdoc": {
    "kind": "user",
    "methods": {},
    "version": 1
  }
}