{
  "contractName": "Chromium",
  "abi": [
    {
      "inputs": [
        {
          "internalType": "address",
          "name": "_oracle",
          "type": "address"
        },
        {
          "internalType": "address",
          "name": "_cblt_token",
          "type": "address"
        }
      ],
      "stateMutability": "nonpayable",
      "type": "constructor"
    },
    {
      "anonymous": false,
      "inputs": [
        {
          "indexed": true,
          "internalType": "address",
          "name": "_from",
          "type": "address"
        },
        {
          "indexed": false,
          "internalType": "address",
          "name": "_fromToken",
          "type": "address"
        },
        {
          "indexed": false,
          "internalType": "uint256",
          "name": "_fromAmount",
          "type": "uint256"
        },
        {
          "indexed": false,
          "internalType": "uint256",
          "name": "_cbltAmount",
          "type": "uint256"
        }
      ],
      "name": "ChromiumTrade",
      "type": "event"
    },
    {
      "anonymous": false,
      "inputs": [
        {
          "indexed": false,
          "internalType": "address",
          "name": "_previousOwner",
          "type": "address"
        },
        {
          "indexed": true,
          "internalType": "address",
          "name": "_newOwner",
          "type": "address"
        }
      ],
      "name": "OwnershipTransferred",
      "type": "event"
    },
    {
      "inputs": [],
      "name": "_owner",
      "outputs": [
        {
          "internalType": "address",
          "name": "",
          "type": "address"
        }
      ],
      "stateMutability": "view",
      "type": "function"
    },
    {
      "inputs": [],
      "name": "isOwner",
      "outputs": [
        {
          "internalType": "bool",
          "name": "",
          "type": "bool"
        }
      ],
      "stateMutability": "view",
      "type": "function"
    },
    {
      "inputs": [
        {
          "internalType": "contract IERC20",
          "name": "",
          "type": "address"
        }
      ],
      "name": "liquidityAmount",
      "outputs": [
        {
          "internalType": "uint256",
          "name": "",
          "type": "uint256"
        }
      ],
      "stateMutability": "view",
      "type": "function"
    },
    {
      "inputs": [
        {
          "internalType": "address",
          "name": "_newOwner",
          "type": "address"
        }
      ],
      "name": "transferOwnership",
      "outputs": [],
      "stateMutability": "nonpayable",
      "type": "function"
    },
    {
      "stateMutability": "payable",
      "type": "receive"
    },
    {
      "inputs": [
        {
          "internalType": "address",
          "name": "_oracle",
          "type": "address"
        }
      ],
      "name": "setOracle",
      "outputs": [],
      "stateMutability": "nonpayable",
      "type": "function"
    },
    {
      "inputs": [
        {
          "internalType": "address",
          "name": "_cblt",
          "type": "address"
        }
      ],
      "name": "setCbltToken",
      "outputs": [],
      "stateMutability": "nonpayable",
      "type": "function"
    },
    {
      "inputs": [
        {
          "internalType": "contract IERC20",
          "name": "fromToken",
          "type": "address"
        },
        {
          "internalType": "contract IERC20",
          "name": "destToken",
          "type": "address"
        },
        {
          "internalType": "uint256",
          "name": "amount",
          "type": "uint256"
        }
      ],
      "name": "getCbltExchangeRate",
      "outputs": [
        {
          "internalType": "uint256",
          "name": "returnAmount",
          "type": "uint256"
        }
      ],
      "stateMutability": "view",
      "type": "function"
    },
    {
      "inputs": [
        {
          "internalType": "contract IERC20",
          "name": "fromToken",
          "type": "address"
        },
        {
          "internalType": "uint256",
          "name": "amount",
          "type": "uint256"
        }
      ],
      "name": "swapForCblt",
      "outputs": [],
      "stateMutability": "payable",
      "type": "function"
    },
    {
      "inputs": [
        {
          "internalType": "contract IERC20",
          "name": "destToken",
          "type": "address"
        },
        {
          "internalType": "uint256",
          "name": "amountOfCblt",
          "type": "uint256"
        }
      ],
      "name": "swapCbltForToken",
      "outputs": [],
      "stateMutability": "payable",
      "type": "function"
    }
  ],
  "bytecode": "0x608060405234801561001057600080fd5b5060405161223d38038061223d8339818101604052604081101561003357600080fd5b810190808051906020019092919080519060200190929190505050336000806101000a81548173ffffffffffffffffffffffffffffffffffffffff021916908373ffffffffffffffffffffffffffffffffffffffff16021790555081600260006101000a81548173ffffffffffffffffffffffffffffffffffffffff021916908373ffffffffffffffffffffffffffffffffffffffff16021790555080600360006101000a81548173ffffffffffffffffffffffffffffffffffffffff021916908373ffffffffffffffffffffffffffffffffffffffff160217905550505061211c806101216000396000f3fe60806040526004361061008a5760003560e01c806396674ea41161005957806396674ea4146101c757806399195a3714610218578063a5b0f822146102a7578063b2bdfa7b146102f5578063f2fde38b1461033657610091565b806335e344f2146100965780637153bb33146100fb5780637adbf973146101495780638f32d59b1461019a57610091565b3661009157005b600080fd5b3480156100a257600080fd5b506100e5600480360360208110156100b957600080fd5b81019080803573ffffffffffffffffffffffffffffffffffffffff169060200190929190505050610387565b6040518082815260200191505060405180910390f35b6101476004803603604081101561011157600080fd5b81019080803573ffffffffffffffffffffffffffffffffffffffff1690602001909291908035906020019092919050505061039f565b005b34801561015557600080fd5b506101986004803603602081101561016c57600080fd5b81019080803573ffffffffffffffffffffffffffffffffffffffff1690602001909291905050506109de565b005b3480156101a657600080fd5b506101af610a9c565b60405180821515815260200191505060405180910390f35b3480156101d357600080fd5b50610216600480360360208110156101ea57600080fd5b81019080803573ffffffffffffffffffffffffffffffffffffffff169060200190929190505050610af3565b005b34801561022457600080fd5b506102916004803603606081101561023b57600080fd5b81019080803573ffffffffffffffffffffffffffffffffffffffff169060200190929190803573ffffffffffffffffffffffffffffffffffffffff16906020019092919080359060200190929190505050610bb1565b6040518082815260200191505060405180910390f35b6102f3600480360360408110156102bd57600080fd5b81019080803573ffffffffffffffffffffffffffffffffffffffff16906020019092919080359060200190929190505050610cc3565b005b34801561030157600080fd5b5061030a611555565b604051808273ffffffffffffffffffffffffffffffffffffffff16815260200191505060405180910390f35b34801561034257600080fd5b506103856004803603602081101561035957600080fd5b81019080803573ffffffffffffffffffffffffffffffffffffffff169060200190929190505050611579565b005b60016020528060005260406000206000915090505481565b6103ee333083600360009054906101000a900473ffffffffffffffffffffffffffffffffffffffff1673ffffffffffffffffffffffffffffffffffffffff166116b4909392919063ffffffff16565b73eeeeeeeeeeeeeeeeeeeeeeeeeeeeeeeeeeeeeeee73ffffffffffffffffffffffffffffffffffffffff168273ffffffffffffffffffffffffffffffffffffffff16141561070657600080600260009054906101000a900473ffffffffffffffffffffffffffffffffffffffff1673ffffffffffffffffffffffffffffffffffffffff16633a7a2a06600360009054906101000a900473ffffffffffffffffffffffffffffffffffffffff16866040518363ffffffff1660e01b8152600401808373ffffffffffffffffffffffffffffffffffffffff1681526020018273ffffffffffffffffffffffffffffffffffffffff16815260200192505050604080518083038186803b15801561050157600080fd5b505afa158015610515573d6000803e3d6000fd5b505050506040513d604081101561052b57600080fd5b81019080805190602001909291908051906020019092919050505091509150600061055f8461055a8585611877565b611895565b90506000610580670de0b6b3a764000061057b610b1b86611895565b6118cc565b905061058c82826118e5565b915061059b82620f42406118cc565b9150816105c7308873ffffffffffffffffffffffffffffffffffffffff166118fc90919063ffffffff16565b101561063b576040517f08c379a000000000000000000000000000000000000000000000000000000000815260040180806020018281038252601e8152602001807f4e6f7420656e6f75676820746f6b656e7320696e2054726561737572792e000081525060200191505060405180910390fd5b61066633838873ffffffffffffffffffffffffffffffffffffffff166119d69092919063ffffffff16565b503373ffffffffffffffffffffffffffffffffffffffff167f63fc95e096498c7428d8d3556c37f0fd23bedca19255a08cf4918b338d39b968600360009054906101000a900473ffffffffffffffffffffffffffffffffffffffff168785604051808473ffffffffffffffffffffffffffffffffffffffff168152602001838152602001828152602001935050505060405180910390a2505050506109da565b600080600260009054906101000a900473ffffffffffffffffffffffffffffffffffffffff1673ffffffffffffffffffffffffffffffffffffffff16633a7a2a06600360009054906101000a900473ffffffffffffffffffffffffffffffffffffffff16866040518363ffffffff1660e01b8152600401808373ffffffffffffffffffffffffffffffffffffffff1681526020018273ffffffffffffffffffffffffffffffffffffffff16815260200192505050604080518083038186803b1580156107d157600080fd5b505afa1580156107e5573d6000803e3d6000fd5b505050506040513d60408110156107fb57600080fd5b81019080805190602001909291908051906020019092919050505091509150600061082f8461082a8585611877565b611895565b90506000610858670de0b6b3a7640000610853670de0b6b3a7640000610b1b611895565b6118cc565b905061086482826118e5565b915061087382620f42406118cc565b91508161089f308873ffffffffffffffffffffffffffffffffffffffff166118fc90919063ffffffff16565b1015610913576040517f08c379a000000000000000000000000000000000000000000000000000000000815260040180806020018281038252601e8152602001807f4e6f7420656e6f75676820746f6b656e7320696e2054726561737572792e000081525060200191505060405180910390fd5b61093e33838873ffffffffffffffffffffffffffffffffffffffff166119d69092919063ffffffff16565b503373ffffffffffffffffffffffffffffffffffffffff167f63fc95e096498c7428d8d3556c37f0fd23bedca19255a08cf4918b338d39b968600360009054906101000a900473ffffffffffffffffffffffffffffffffffffffff168785604051808473ffffffffffffffffffffffffffffffffffffffff168152602001838152602001828152602001935050505060405180910390a2505050505b5050565b6109e6610a9c565b610a58576040517f08c379a00000000000000000000000000000000000000000000000000000000081526004018080602001828103825260168152602001807f596f7520617265206e6f7420746865206f776e65722e0000000000000000000081525060200191505060405180910390fd5b80600260006101000a81548173ffffffffffffffffffffffffffffffffffffffff021916908373ffffffffffffffffffffffffffffffffffffffff16021790555050565b60008060009054906101000a900473ffffffffffffffffffffffffffffffffffffffff1673ffffffffffffffffffffffffffffffffffffffff163373ffffffffffffffffffffffffffffffffffffffff1614905090565b610afb610a9c565b610b6d576040517f08c379a00000000000000000000000000000000000000000000000000000000081526004018080602001828103825260168152602001807f596f7520617265206e6f7420746865206f776e65722e0000000000000000000081525060200191505060405180910390fd5b80600360006101000a81548173ffffffffffffffffffffffffffffffffffffffff021916908373ffffffffffffffffffffffffffffffffffffffff16021790555050565b6000806000600260009054906101000a900473ffffffffffffffffffffffffffffffffffffffff1673ffffffffffffffffffffffffffffffffffffffff16633a7a2a0687876040518363ffffffff1660e01b8152600401808373ffffffffffffffffffffffffffffffffffffffff1681526020018273ffffffffffffffffffffffffffffffffffffffff16815260200192505050604080518083038186803b158015610c5c57600080fd5b505afa158015610c70573d6000803e3d6000fd5b505050506040513d6040811015610c8657600080fd5b81019080805190602001909291908051906020019092919050505091509150610cb884610cb38484611877565b611895565b925050509392505050565b610cf03330838573ffffffffffffffffffffffffffffffffffffffff166116b4909392919063ffffffff16565b73eeeeeeeeeeeeeeeeeeeeeeeeeeeeeeeeeeeeeeee73ffffffffffffffffffffffffffffffffffffffff168273ffffffffffffffffffffffffffffffffffffffff161415611142576000610d4e670de0b6b3a7640000610b1b6118cc565b9050610d5a82826118e5565b9150600080600260009054906101000a900473ffffffffffffffffffffffffffffffffffffffff1673ffffffffffffffffffffffffffffffffffffffff16633a7a2a0686600360009054906101000a900473ffffffffffffffffffffffffffffffffffffffff166040518363ffffffff1660e01b8152600401808373ffffffffffffffffffffffffffffffffffffffff1681526020018273ffffffffffffffffffffffffffffffffffffffff16815260200192505050604080518083038186803b158015610e2757600080fd5b505afa158015610e3b573d6000803e3d6000fd5b505050506040513d6040811015610e5157600080fd5b810190808051906020019092919080519060200190929190505050915091506000610e8585610e808585611877565b611895565b9050610e9481620f42406118cc565b905080610ee230600360009054906101000a900473ffffffffffffffffffffffffffffffffffffffff1673ffffffffffffffffffffffffffffffffffffffff166118fc90919063ffffffff16565b1015610f56576040517f08c379a000000000000000000000000000000000000000000000000000000000815260040180806020018281038252601e8152602001807f4e6f7420656e6f75676820746f6b656e7320696e2054726561737572792e000081525060200191505060405180910390fd5b610fa33382600360009054906101000a900473ffffffffffffffffffffffffffffffffffffffff1673ffffffffffffffffffffffffffffffffffffffff166119d69092919063ffffffff16565b50610fed600460008873ffffffffffffffffffffffffffffffffffffffff1673ffffffffffffffffffffffffffffffffffffffff1681526020019081526020016000205485611a7e565b600460008873ffffffffffffffffffffffffffffffffffffffff1673ffffffffffffffffffffffffffffffffffffffff16815260200190815260200160002081905550611082600160008873ffffffffffffffffffffffffffffffffffffffff1673ffffffffffffffffffffffffffffffffffffffff1681526020019081526020016000205461107d8787611a7e565b611a7e565b600160008873ffffffffffffffffffffffffffffffffffffffff1673ffffffffffffffffffffffffffffffffffffffff168152602001908152602001600020819055503373ffffffffffffffffffffffffffffffffffffffff167f63fc95e096498c7428d8d3556c37f0fd23bedca19255a08cf4918b338d39b968878784604051808473ffffffffffffffffffffffffffffffffffffffff168152602001838152602001828152602001935050505060405180910390a250505050611551565b600080600260009054906101000a900473ffffffffffffffffffffffffffffffffffffffff1673ffffffffffffffffffffffffffffffffffffffff16633a7a2a0685600360009054906101000a900473ffffffffffffffffffffffffffffffffffffffff166040518363ffffffff1660e01b8152600401808373ffffffffffffffffffffffffffffffffffffffff1681526020018273ffffffffffffffffffffffffffffffffffffffff16815260200192505050604080518083038186803b15801561120d57600080fd5b505afa158015611221573d6000803e3d6000fd5b505050506040513d604081101561123757600080fd5b810190808051906020019092919080519060200190929190505050915091506000611275670de0b6b3a7640000611270610b1b86611895565b6118cc565b905061128184826118e5565b93506000611298856112938686611877565b611895565b90506112a781620f42406118cc565b9050806112f530600360009054906101000a900473ffffffffffffffffffffffffffffffffffffffff1673ffffffffffffffffffffffffffffffffffffffff166118fc90919063ffffffff16565b1015611369576040517f08c379a000000000000000000000000000000000000000000000000000000000815260040180806020018281038252601e8152602001807f4e6f7420656e6f75676820746f6b656e7320696e2054726561737572792e000081525060200191505060405180910390fd5b6113b63382600360009054906101000a900473ffffffffffffffffffffffffffffffffffffffff1673ffffffffffffffffffffffffffffffffffffffff166119d69092919063ffffffff16565b50611400600460008873ffffffffffffffffffffffffffffffffffffffff1673ffffffffffffffffffffffffffffffffffffffff1681526020019081526020016000205483611a7e565b600460008873ffffffffffffffffffffffffffffffffffffffff1673ffffffffffffffffffffffffffffffffffffffff16815260200190815260200160002081905550611495600160008873ffffffffffffffffffffffffffffffffffffffff1673ffffffffffffffffffffffffffffffffffffffff168152602001908152602001600020546114908785611a7e565b611a7e565b600160008873ffffffffffffffffffffffffffffffffffffffff1673ffffffffffffffffffffffffffffffffffffffff168152602001908152602001600020819055503373ffffffffffffffffffffffffffffffffffffffff167f63fc95e096498c7428d8d3556c37f0fd23bedca19255a08cf4918b338d39b968878784604051808473ffffffffffffffffffffffffffffffffffffffff168152602001838152602001828152602001935050505060405180910390a2505050505b5050565b60008054906101000a900473ffffffffffffffffffffffffffffffffffffffff1681565b611581610a9c565b6115f3576040517f08c379a00000000000000000000000000000000000000000000000000000000081526004018080602001828103825260168152602001807f596f7520617265206e6f7420746865206f776e65722e0000000000000000000081525060200191505060405180910390fd5b600073ffffffffffffffffffffffffffffffffffffffff168173ffffffffffffffffffffffffffffffffffffffff16141561162d57600080fd5b8073ffffffffffffffffffffffffffffffffffffffff167f8be0079c531659141344cd1fd0a4f28419497f9722a3daafe3b4186f6b6457e060008054906101000a900473ffffffffffffffffffffffffffffffffffffffff16604051808273ffffffffffffffffffffffffffffffffffffffff16815260200191505060405180910390a250565b60008114156116c257611871565b6116cb84611a9a565b15611842573373ffffffffffffffffffffffffffffffffffffffff168373ffffffffffffffffffffffffffffffffffffffff1614801561170b5750803410155b611760576040517f08c379a000000000000000000000000000000000000000000000000000000000815260040180806020018281038252602b815260200180612092602b913960400191505060405180910390fd5b3073ffffffffffffffffffffffffffffffffffffffff168273ffffffffffffffffffffffffffffffffffffffff16146117db578173ffffffffffffffffffffffffffffffffffffffff166108fc829081150290604051600060405180830381858888f193505050501580156117d9573d6000803e3d6000fd5b505b8034111561183d573373ffffffffffffffffffffffffffffffffffffffff166108fc61181083346118e590919063ffffffff16565b9081150290604051600060405180830381858888f1935050505015801561183b573d6000803e3d6000fd5b505b611870565b61186f8383838773ffffffffffffffffffffffffffffffffffffffff16611b7a909392919063ffffffff16565b5b5b50505050565b60008082620f424085028161188857fe5b0490508091505092915050565b6000808314156118a857600090506118c6565b60008284029050828482816118b957fe5b04146118c157fe5b809150505b92915050565b6000808284816118d857fe5b0490508091505092915050565b6000828211156118f157fe5b818303905092915050565b600061190783611a9a565b1561192b578173ffffffffffffffffffffffffffffffffffffffff163190506119d0565b8273ffffffffffffffffffffffffffffffffffffffff166370a08231836040518263ffffffff1660e01b8152600401808273ffffffffffffffffffffffffffffffffffffffff16815260200191505060206040518083038186803b15801561199257600080fd5b505afa1580156119a6573d6000803e3d6000fd5b505050506040513d60208110156119bc57600080fd5b810190808051906020019092919050505090505b92915050565b6000808214156119e95760019050611a77565b6119f284611a9a565b15611a47578273ffffffffffffffffffffffffffffffffffffffff166108fc839081150290604051600060405180830381858888f19350505050158015611a3d573d6000803e3d6000fd5b5060019050611a77565b611a7283838673ffffffffffffffffffffffffffffffffffffffff16611c3b9092919063ffffffff16565b600190505b9392505050565b600080828401905083811015611a9057fe5b8091505092915050565b600073c02aaa39b223fe8d0a0e5c4f27ead9083c756cc273ffffffffffffffffffffffffffffffffffffffff168273ffffffffffffffffffffffffffffffffffffffff161480611b29575073eeeeeeeeeeeeeeeeeeeeeeeeeeeeeeeeeeeeeeee73ffffffffffffffffffffffffffffffffffffffff168273ffffffffffffffffffffffffffffffffffffffff16145b80611b73575073c778417e063141139fce010982780140aa0cd5ab73ffffffffffffffffffffffffffffffffffffffff168273ffffffffffffffffffffffffffffffffffffffff16145b9050919050565b611c35846323b872dd60e01b858585604051602401808473ffffffffffffffffffffffffffffffffffffffff1681526020018373ffffffffffffffffffffffffffffffffffffffff1681526020018281526020019350505050604051602081830303815290604052907bffffffffffffffffffffffffffffffffffffffffffffffffffffffff19166020820180517bffffffffffffffffffffffffffffffffffffffffffffffffffffffff8381831617835250505050611cdd565b50505050565b611cd88363a9059cbb60e01b8484604051602401808373ffffffffffffffffffffffffffffffffffffffff16815260200182815260200192505050604051602081830303815290604052907bffffffffffffffffffffffffffffffffffffffffffffffffffffffff19166020820180517bffffffffffffffffffffffffffffffffffffffffffffffffffffffff8381831617835250505050611cdd565b505050565b6000611d3f826040518060400160405280602081526020017f5361666545524332303a206c6f772d6c6576656c2063616c6c206661696c65648152508573ffffffffffffffffffffffffffffffffffffffff16611dcc9092919063ffffffff16565b9050600081511115611dc757808060200190516020811015611d6057600080fd5b8101908080519060200190929190505050611dc6576040517f08c379a000000000000000000000000000000000000000000000000000000000815260040180806020018281038252602a8152602001806120bd602a913960400191505060405180910390fd5b5b505050565b6060611ddb8484600085611de4565b90509392505050565b606082471015611e3f576040517f08c379a000000000000000000000000000000000000000000000000000000000815260040180806020018281038252602681526020018061206c6026913960400191505060405180910390fd5b611e4885611f8c565b611eba576040517f08c379a000000000000000000000000000000000000000000000000000000000815260040180806020018281038252601d8152602001807f416464726573733a2063616c6c20746f206e6f6e2d636f6e747261637400000081525060200191505060405180910390fd5b6000808673ffffffffffffffffffffffffffffffffffffffff1685876040518082805190602001908083835b60208310611f095780518252602082019150602081019050602083039250611ee6565b6001836020036101000a03801982511681845116808217855250505050505090500191505060006040518083038185875af1925050503d8060008114611f6b576040519150601f19603f3d011682016040523d82523d6000602084013e611f70565b606091505b5091509150611f80828286611f9f565b92505050949350505050565b600080823b905060008111915050919050565b60608315611faf57829050612064565b600083511115611fc25782518084602001fd5b816040517f08c379a00000000000000000000000000000000000000000000000000000000081526004018080602001828103825283818151815260200191508051906020019080838360005b8381101561202957808201518184015260208101905061200e565b50505050905090810190601f1680156120565780820380516001836020036101000a031916815260200191505b509250505060405180910390fd5b939250505056fe416464726573733a20696e73756666696369656e742062616c616e636520666f722063616c6c57726f6e6720757365616765206f66204554482e756e6976657273616c5472616e7366657246726f6d28295361666545524332303a204552433230206f7065726174696f6e20646964206e6f742073756363656564a264697066735822122002ddaa008de3d7c19b8b4dbc6da100f2bebba99a1af745aba978511cc4766ac364736f6c63430007060033",
  "immutableReferences": {},
  "source": "// SPDX-License-Identifier: MIT\npragma solidity >=0.4.22 <0.9.0;\n\nimport \"./interfaces/UniversalERC20.sol\";\nimport './interfaces/Ownable.sol';\nimport './ExchangeOracle.sol';\nimport './interfaces/IUniswap.sol';\n\ncontract Chromium is Ownable {\n    using UniversalERC20 for IERC20;\n\n    // used to keep track of tokens in contract\n    mapping(IERC20 => uint) public liquidityAmount;\n\n    // weth address that i am using for eth\n    IERC20 private constant ETH_ADDRESS = IERC20(0xEeeeeEeeeEeEeeEeEeEeeEEEeeeeEeeeeeeeEEeE);\n    // IERC20 private constant cbltToken = IERC20(0x433C6E3D2def6E1fb414cf9448724EFB0399b698);\n\n    // initializing objects\n    ExchangeOracle oracle;\n    IERC20 cbltToken;\n\n    mapping(IERC20 => uint) feeTotal;\n\n    // emits when chromium is used\n    event ChromiumTrade(address indexed _from, address _fromToken, uint256 _fromAmount, uint _cbltAmount);\n\n    /**\n     * pass in the oracle contract so that it can pull info from it\n     */\n    constructor(address _oracle, address _cblt_token) {\n        oracle = ExchangeOracle(_oracle);\n        cbltToken = IERC20(_cblt_token);\n    }\n\n    /** this sets the treasury, and oracle */\n    function setOracle(address _oracle) external onlyOwner {\n        oracle = ExchangeOracle(_oracle);\n    }\n\n    // sets CBLT token\n    function setCbltToken(address _cblt) external onlyOwner {\n        cbltToken = IERC20(_cblt);\n    }\n\n    /************ chromium functions ************/\n    /*\n     * @dev this function will get the exchagne rate for the token being exchanged for cblt token\n     * it will call on the oracle to make the calculation. the returnAmount is going to be\n     * three times larger than the actual amount (so that we can get decimals) which means the returnAmount\n     * will need to be divided by 100000 by the frontend to get the correct amount that will be swapped\n    */\n    function getCbltExchangeRate(\n        IERC20 fromToken,\n        IERC20 destToken,\n        uint256 amount\n    )\n    public\n    view\n    returns (uint returnAmount)\n    {\n        (uint256 sellTokenValue, uint256 buyTokenValue) = oracle.priceOfPair(address(fromToken), address(destToken));\n        returnAmount = SafeMath.mul(amount,\n            SafeMath.findRate(sellTokenValue, buyTokenValue)\n        );\n    }\n\n    /**\n     * @dev this function will swap cblt tokens for tokens that are allowed\n    */\n    function swapForCblt(\n        IERC20 fromToken,\n        uint256 amount\n    )\n    external\n    payable\n    {\n        fromToken.universalTransferFrom(msg.sender, address(this), amount);\n\n        if (fromToken == ETH_ADDRESS) {\n            uint256 usdFee =\n            SafeMath.div(\n                1000000000000000000,\n                2843\n            );\n            amount = SafeMath.sub(amount, usdFee);\n\n            (uint256 sellTokenValue, uint256 buyTokenValue) = oracle.priceOfPair(address(fromToken), address(cbltToken));\n            uint returnAmount = SafeMath.mul(amount,\n                SafeMath.findRate(sellTokenValue, buyTokenValue)\n            );\n\n            returnAmount = SafeMath.div(returnAmount, 1000000);\n            require(cbltToken.universalBalanceOf(address(this)) >= returnAmount, \"Not enough tokens in Treasury.\");\n\n            cbltToken.universalTransfer(msg.sender, returnAmount);\n            feeTotal[fromToken] = SafeMath.add(feeTotal[fromToken], usdFee);\n            liquidityAmount[fromToken] = SafeMath.add(liquidityAmount[fromToken], SafeMath.add(amount, usdFee));\n            emit ChromiumTrade(msg.sender, address(fromToken), amount, returnAmount);\n        } else {\n\n            (uint256 sellTokenValue, uint256 buyTokenValue) = oracle.priceOfPair(address(fromToken), address(cbltToken));\n\n            uint256 usdFee =\n            SafeMath.div(\n                1000000000000000000,\n                SafeMath.mul(2843, sellTokenValue)\n            );\n            amount = SafeMath.sub(amount, usdFee);\n\n            uint returnAmount = SafeMath.mul(amount,\n                SafeMath.findRate(sellTokenValue, buyTokenValue)\n            );\n\n            returnAmount = SafeMath.div(returnAmount, 1000000);\n            require(cbltToken.universalBalanceOf(address(this)) >= returnAmount, \"Not enough tokens in Treasury.\");\n\n            cbltToken.universalTransfer(msg.sender, returnAmount);\n            feeTotal[fromToken] = SafeMath.add(feeTotal[fromToken], usdFee);\n            liquidityAmount[fromToken] = SafeMath.add(liquidityAmount[fromToken], SafeMath.add(amount, usdFee));\n            emit ChromiumTrade(msg.sender, address(fromToken), amount, returnAmount);\n        }\n\n    }\n\n    function swapCbltForToken(\n        IERC20 destToken,\n        uint amountOfCblt\n    )\n    external\n    payable\n    {\n        cbltToken.universalTransferFrom(msg.sender, address(this), amountOfCblt);\n\n        if (destToken == ETH_ADDRESS) {\n            (uint256 sellTokenValue, uint256 buyTokenValue) = oracle.priceOfPair(address(cbltToken), address(destToken));\n            uint returnAmount = SafeMath.mul(amountOfCblt,\n                SafeMath.findRate(sellTokenValue, buyTokenValue)\n            );\n\n            uint256 usdFee =\n            SafeMath.div(\n                1000000000000000000,\n                SafeMath.mul(2843, buyTokenValue)\n            );\n\n            returnAmount = SafeMath.sub(returnAmount, usdFee);\n            returnAmount = SafeMath.div(returnAmount, 1000000);\n            require(destToken.universalBalanceOf(address(this)) >= returnAmount, \"Not enough tokens in Treasury.\");\n\n            destToken.universalTransfer(msg.sender, returnAmount);\n            emit ChromiumTrade(msg.sender, address(cbltToken), amountOfCblt, returnAmount);\n        } else {\n\n            (uint256 sellTokenValue, uint256 buyTokenValue) = oracle.priceOfPair(address(cbltToken), address(destToken));\n            uint returnAmount = SafeMath.mul(amountOfCblt,\n                SafeMath.findRate(sellTokenValue, buyTokenValue)\n            );\n\n            uint256 usdFee =\n            SafeMath.div(\n                1000000000000000000,\n                SafeMath.mul(1000000000000000000, 2843)\n            );\n\n            returnAmount = SafeMath.sub(returnAmount, usdFee);\n            returnAmount = SafeMath.div(returnAmount, 1000000);\n\n            require(destToken.universalBalanceOf(address(this)) >= returnAmount, \"Not enough tokens in Treasury.\");\n            destToken.universalTransfer(msg.sender, returnAmount);\n\n            emit ChromiumTrade(msg.sender, address(cbltToken), amountOfCblt, returnAmount);\n        }\n    }\n\n    // fallback function\n    receive() external payable {}\n}\n",
  "sourcePath": "/Users/christianroque/Desktop/TungstenGroupProject/contracts/Chromium.sol",
  "compiler": {
    "name": "solc",
    "version": "0.7.6+commit.7338295f.Emscripten.clang"
  },
  "schemaVersion": "3.3.4",
  "updatedAt": "2021-05-21T18:40:02.285Z",
  "devdoc": {
    "kind": "dev",
    "methods": {
      "swapForCblt(address,uint256)": {
        "details": "this function will swap cblt tokens for tokens that are allowed"
      }
    },
    "version": 1
  },
  "userdoc": {
    "kind": "user",
    "methods": {
      "constructor": {
        "notice": "pass in the oracle contract so that it can pull info from it"
      },
      "setOracle(address)": {
        "notice": "this sets the treasury, and oracle "
      }
    },
    "version": 1
  }
}