{
  "contractName": "Escrow",
  "abi": [
    {
      "inputs": [
        {
          "internalType": "address payable",
          "name": "_creator",
          "type": "address"
        },
        {
          "internalType": "address payable",
          "name": "_payee",
          "type": "address"
        },
        {
          "internalType": "address",
          "name": "_mediator",
          "type": "address"
        },
        {
          "internalType": "string",
          "name": "_escrowDetails",
          "type": "string"
        },
        {
          "internalType": "uint256",
          "name": "_priceInWei",
          "type": "uint256"
        }
      ],
      "stateMutability": "payable",
      "type": "constructor"
    },
    {
      "anonymous": false,
      "inputs": [
        {
          "indexed": false,
          "internalType": "enum Escrow.State",
          "name": "_state",
          "type": "uint8"
        }
      ],
      "name": "JobState",
      "type": "event"
    },
    {
      "anonymous": false,
      "inputs": [
        {
          "indexed": false,
          "internalType": "address",
          "name": "_previousOwner",
          "type": "address"
        },
        {
          "indexed": true,
          "internalType": "address",
          "name": "_newOwner",
          "type": "address"
        }
      ],
      "name": "OwnershipTransferred",
      "type": "event"
    },
    {
      "anonymous": false,
      "inputs": [
        {
          "indexed": false,
          "internalType": "address",
          "name": "to",
          "type": "address"
        },
        {
          "indexed": false,
          "internalType": "uint256",
          "name": "amount",
          "type": "uint256"
        }
      ],
      "name": "PaymentSent",
      "type": "event"
    },
    {
      "inputs": [],
      "name": "_owner",
      "outputs": [
        {
          "internalType": "address",
          "name": "",
          "type": "address"
        }
      ],
      "stateMutability": "view",
      "type": "function"
    },
    {
      "inputs": [],
      "name": "isOwner",
      "outputs": [
        {
          "internalType": "bool",
          "name": "",
          "type": "bool"
        }
      ],
      "stateMutability": "view",
      "type": "function"
    },
    {
      "inputs": [],
      "name": "state",
      "outputs": [
        {
          "internalType": "enum Escrow.State",
          "name": "",
          "type": "uint8"
        }
      ],
      "stateMutability": "view",
      "type": "function"
    },
    {
      "inputs": [
        {
          "internalType": "address",
          "name": "_newOwner",
          "type": "address"
        }
      ],
      "name": "transferOwnership",
      "outputs": [],
      "stateMutability": "nonpayable",
      "type": "function"
    },
    {
      "inputs": [
        {
          "internalType": "bool",
          "name": "_completed",
          "type": "bool"
        }
      ],
      "name": "completeJob",
      "outputs": [],
      "stateMutability": "nonpayable",
      "type": "function"
    },
    {
      "inputs": [
        {
          "internalType": "bool",
          "name": "_satisfied",
          "type": "bool"
        }
      ],
      "name": "confirmJobCompletion",
      "outputs": [],
      "stateMutability": "nonpayable",
      "type": "function"
    },
    {
      "inputs": [
        {
          "internalType": "enum Escrow.State",
          "name": "_setState",
          "type": "uint8"
        }
      ],
      "name": "resolveDispute",
      "outputs": [],
      "stateMutability": "nonpayable",
      "type": "function"
    }
  ],
  "bytecode": "0x6080604052604051620017a1380380620017a1833981810160405260a08110156200002957600080fd5b81019080805190602001909291908051906020019092919080519060200190929190805160405193929190846401000000008211156200006857600080fd5b838201915060208201858111156200007f57600080fd5b82518660018202830111640100000000821117156200009d57600080fd5b8083526020830192505050908051906020019080838360005b83811015620000d3578082015181840152602081019050620000b6565b50505050905090810190601f168015620001015780820380516001836020036101000a031916815260200191505b5060405260200180519060200190929190505050336000806101000a81548173ffffffffffffffffffffffffffffffffffffffff021916908373ffffffffffffffffffffffffffffffffffffffff1602179055508373ffffffffffffffffffffffffffffffffffffffff163373ffffffffffffffffffffffffffffffffffffffff161415620001dc576040517f08c379a000000000000000000000000000000000000000000000000000000000815260040180806020018281038252602d81526020018062001752602d913960400191505060405180910390fd5b600034141562000254576040517f08c379a00000000000000000000000000000000000000000000000000000000081526004018080602001828103825260198152602001807f6d73672e76616c75652063616e206e6f7420657175616c20300000000000000081525060200191505060405180910390fd5b348114620002ae576040517f08c379a00000000000000000000000000000000000000000000000000000000081526004018080602001828103825260228152602001806200177f6022913960400191505060405180910390fd5b84600160006101000a81548173ffffffffffffffffffffffffffffffffffffffff021916908373ffffffffffffffffffffffffffffffffffffffff16021790555083600260006101000a81548173ffffffffffffffffffffffffffffffffffffffff021916908373ffffffffffffffffffffffffffffffffffffffff16021790555082600360006101000a81548173ffffffffffffffffffffffffffffffffffffffff021916908373ffffffffffffffffffffffffffffffffffffffff1602179055508160049080519060200190620003899291906200041a565b5080600581905550346006819055506000600760006101000a81548160ff02191690836004811115620003b857fe5b02179055507f575af034eab5aa94c68e0d6631c233469ef570f60ba3c1787f0cc1e31f361429600760009054906101000a900460ff1660405180826004811115620003ff57fe5b815260200191505060405180910390a15050505050620004d0565b828054600181600116156101000203166002900490600052602060002090601f0160209004810192826200045257600085556200049e565b82601f106200046d57805160ff19168380011785556200049e565b828001600101855582156200049e579182015b828111156200049d57825182559160200191906001019062000480565b5b509050620004ad9190620004b1565b5090565b5b80821115620004cc576000816000905550600101620004b2565b5090565b61127280620004e06000396000f3fe608060405234801561001057600080fd5b506004361061007d5760003560e01c8063b03be06f1161005b578063b03be06f14610103578063b2bdfa7b14610133578063c19d93fb14610167578063f2fde38b146101905761007d565b80637c5ddb5514610082578063881f227c146100b25780638f32d59b146100e3575b600080fd5b6100b06004803603602081101561009857600080fd5b810190808035151590602001909291905050506101d4565b005b6100e1600480360360208110156100c857600080fd5b81019080803560ff169060200190929190505050610396565b005b6100eb6105c9565b60405180821515815260200191505060405180910390f35b6101316004803603602081101561011957600080fd5b81019080803515159060200190929190505050610620565b005b61013b6107da565b604051808273ffffffffffffffffffffffffffffffffffffffff16815260200191505060405180910390f35b61016f6107fe565b6040518082600481111561017f57fe5b815260200191505060405180910390f35b6101d2600480360360208110156101a657600080fd5b81019080803573ffffffffffffffffffffffffffffffffffffffff169060200190929190505050610811565b005b3373ffffffffffffffffffffffffffffffffffffffff16600160009054906101000a905050506001600481111561020757fe5b600760009054906101000a900460ff16600481111561022257fe5b14610295576040517f08c379a000000000000000000000000000000000000000000000000000000000815260040180806020018281038252601d8152602001807f4a6f62206973206e6f742061742074686973207374617465207965742e00000081525060200191505060405180910390fd5b801561031d576102a361094c565b6002600760006101000a81548160ff021916908360048111156102c257fe5b02179055507f575af034eab5aa94c68e0d6631c233469ef570f60ba3c1787f0cc1e31f361429600760009054906101000a900460ff166040518082600481111561030857fe5b815260200191505060405180910390a1610393565b6003600760006101000a81548160ff0219169083600481111561033c57fe5b02179055507f575af034eab5aa94c68e0d6631c233469ef570f60ba3c1787f0cc1e31f361429600760009054906101000a900460ff166040518082600481111561038257fe5b815260200191505060405180910390a15b50565b3373ffffffffffffffffffffffffffffffffffffffff16600360009054906101000a90505050600360048111156103c957fe5b600760009054906101000a900460ff1660048111156103e457fe5b14610457576040517f08c379a000000000000000000000000000000000000000000000000000000000815260040180806020018281038252601b8152602001807f54686973206a6f62206973206e6f7420696e20646973707574652e000000000081525060200191505060405180910390fd5b6002600481111561046457fe5b81600481111561047057fe5b14156104d45761047e61094c565b7f575af034eab5aa94c68e0d6631c233469ef570f60ba3c1787f0cc1e31f361429600760009054906101000a900460ff16604051808260048111156104bf57fe5b815260200191505060405180910390a16105c6565b6004808111156104e057fe5b8160048111156104ec57fe5b1415610550576104fa610ac0565b7f575af034eab5aa94c68e0d6631c233469ef570f60ba3c1787f0cc1e31f361429600760009054906101000a900460ff166040518082600481111561053b57fe5b815260200191505060405180910390a16105c5565b80600760006101000a81548160ff0219169083600481111561056e57fe5b02179055507f575af034eab5aa94c68e0d6631c233469ef570f60ba3c1787f0cc1e31f361429600760009054906101000a900460ff16604051808260048111156105b457fe5b815260200191505060405180910390a15b5b50565b60008060009054906101000a900473ffffffffffffffffffffffffffffffffffffffff1673ffffffffffffffffffffffffffffffffffffffff163373ffffffffffffffffffffffffffffffffffffffff1614905090565b3373ffffffffffffffffffffffffffffffffffffffff16600260009054906101000a905050506000600481111561065357fe5b600760009054906101000a900460ff16600481111561066e57fe5b146106e1576040517f08c379a000000000000000000000000000000000000000000000000000000000815260040180806020018281038252601d8152602001807f4a6f62206973206e6f742061742074686973207374617465207965742e00000081525060200191505060405180910390fd5b8015610761576001600760006101000a81548160ff0219169083600481111561070657fe5b02179055507f575af034eab5aa94c68e0d6631c233469ef570f60ba3c1787f0cc1e31f361429600760009054906101000a900460ff166040518082600481111561074c57fe5b815260200191505060405180910390a16107d7565b6003600760006101000a81548160ff0219169083600481111561078057fe5b02179055507f575af034eab5aa94c68e0d6631c233469ef570f60ba3c1787f0cc1e31f361429600760009054906101000a900460ff16604051808260048111156107c657fe5b815260200191505060405180910390a15b50565b60008054906101000a900473ffffffffffffffffffffffffffffffffffffffff1681565b600760009054906101000a900460ff1681565b6108196105c9565b61088b576040517f08c379a00000000000000000000000000000000000000000000000000000000081526004018080602001828103825260168152602001807f596f7520617265206e6f7420746865206f776e65722e0000000000000000000081525060200191505060405180910390fd5b600073ffffffffffffffffffffffffffffffffffffffff168173ffffffffffffffffffffffffffffffffffffffff1614156108c557600080fd5b8073ffffffffffffffffffffffffffffffffffffffff167f8be0079c531659141344cd1fd0a4f28419497f9722a3daafe3b4186f6b6457e060008054906101000a900473ffffffffffffffffffffffffffffffffffffffff16604051808273ffffffffffffffffffffffffffffffffffffffff16815260200191505060405180910390a250565b6109af600260009054906101000a900473ffffffffffffffffffffffffffffffffffffffff1660065473eeeeeeeeeeeeeeeeeeeeeeeeeeeeeeeeeeeeeeee73ffffffffffffffffffffffffffffffffffffffff16610c349092919063ffffffff16565b610a21576040517f08c379a00000000000000000000000000000000000000000000000000000000081526004018080602001828103825260198152602001807f5472616e73666572206469646e277420636f6d706c6574652e0000000000000081525060200191505060405180910390fd5b6002600760006101000a81548160ff02191690836004811115610a4057fe5b02179055507f47db2abce6d5fbcd80ffd9b4ba74dcde804a746ef732bc7f8a70fabfc912c590600260009054906101000a900473ffffffffffffffffffffffffffffffffffffffff16600654604051808373ffffffffffffffffffffffffffffffffffffffff1681526020018281526020019250505060405180910390a1565b610b23600160009054906101000a900473ffffffffffffffffffffffffffffffffffffffff1660065473eeeeeeeeeeeeeeeeeeeeeeeeeeeeeeeeeeeeeeee73ffffffffffffffffffffffffffffffffffffffff16610c349092919063ffffffff16565b610b95576040517f08c379a00000000000000000000000000000000000000000000000000000000081526004018080602001828103825260188152602001807f5472616e73666572206469646e277420636f6d706c657465000000000000000081525060200191505060405180910390fd5b6004600760006101000a81548160ff02191690836004811115610bb457fe5b02179055507f47db2abce6d5fbcd80ffd9b4ba74dcde804a746ef732bc7f8a70fabfc912c590600160009054906101000a900473ffffffffffffffffffffffffffffffffffffffff16600654604051808373ffffffffffffffffffffffffffffffffffffffff1681526020018281526020019250505060405180910390a1565b600080821415610c475760019050610cd5565b610c5084610cdc565b15610ca5578273ffffffffffffffffffffffffffffffffffffffff166108fc839081150290604051600060405180830381858888f19350505050158015610c9b573d6000803e3d6000fd5b5060019050610cd5565b610cd083838673ffffffffffffffffffffffffffffffffffffffff16610dbc9092919063ffffffff16565b600190505b9392505050565b600073c02aaa39b223fe8d0a0e5c4f27ead9083c756cc273ffffffffffffffffffffffffffffffffffffffff168273ffffffffffffffffffffffffffffffffffffffff161480610d6b575073eeeeeeeeeeeeeeeeeeeeeeeeeeeeeeeeeeeeeeee73ffffffffffffffffffffffffffffffffffffffff168273ffffffffffffffffffffffffffffffffffffffff16145b80610db5575073c778417e063141139fce010982780140aa0cd5ab73ffffffffffffffffffffffffffffffffffffffff168273ffffffffffffffffffffffffffffffffffffffff16145b9050919050565b610e598363a9059cbb60e01b8484604051602401808373ffffffffffffffffffffffffffffffffffffffff16815260200182815260200192505050604051602081830303815290604052907bffffffffffffffffffffffffffffffffffffffffffffffffffffffff19166020820180517bffffffffffffffffffffffffffffffffffffffffffffffffffffffff8381831617835250505050610e5e565b505050565b6000610ec0826040518060400160405280602081526020017f5361666545524332303a206c6f772d6c6576656c2063616c6c206661696c65648152508573ffffffffffffffffffffffffffffffffffffffff16610f4d9092919063ffffffff16565b9050600081511115610f4857808060200190516020811015610ee157600080fd5b8101908080519060200190929190505050610f47576040517f08c379a000000000000000000000000000000000000000000000000000000000815260040180806020018281038252602a815260200180611213602a913960400191505060405180910390fd5b5b505050565b6060610f5c8484600085610f65565b90509392505050565b606082471015610fc0576040517f08c379a00000000000000000000000000000000000000000000000000000000081526004018080602001828103825260268152602001806111ed6026913960400191505060405180910390fd5b610fc98561110d565b61103b576040517f08c379a000000000000000000000000000000000000000000000000000000000815260040180806020018281038252601d8152602001807f416464726573733a2063616c6c20746f206e6f6e2d636f6e747261637400000081525060200191505060405180910390fd5b6000808673ffffffffffffffffffffffffffffffffffffffff1685876040518082805190602001908083835b6020831061108a5780518252602082019150602081019050602083039250611067565b6001836020036101000a03801982511681845116808217855250505050505090500191505060006040518083038185875af1925050503d80600081146110ec576040519150601f19603f3d011682016040523d82523d6000602084013e6110f1565b606091505b5091509150611101828286611120565b92505050949350505050565b600080823b905060008111915050919050565b60608315611130578290506111e5565b6000835111156111435782518084602001fd5b816040517f08c379a00000000000000000000000000000000000000000000000000000000081526004018080602001828103825283818151815260200191508051906020019080838360005b838110156111aa57808201518184015260208101905061118f565b50505050905090810190601f1680156111d75780820380516001836020036101000a031916815260200191505b509250505060405180910390fd5b939250505056fe416464726573733a20696e73756666696369656e742062616c616e636520666f722063616c6c5361666545524332303a204552433230206f7065726174696f6e20646964206e6f742073756363656564a26469706673582212205a212d80771d37d2526c566503a3b9c3fff9fb0e4c541000e262685ad7c8532d64736f6c63430007060033596f752063616e27742068617665207468652073616d652061646472657373206173207468652070617965652e416d6f756e74206465706f7369746564206d75737420657175616c2070726963652e",
  "immutableReferences": {},
  "source": "// SPDX-License-Identifier: MIT\npragma solidity >=0.4.22 <0.9.0;\n\nimport './interfaces/SafeMath.sol';\nimport './interfaces/Ownable.sol';\nimport './interfaces/UniversalERC20.sol';\n\ncontract Escrow is Ownable {\n    using UniversalERC20 for IERC20;\n\n    modifier onlyEscrowCreator {\n        escrowCreator == msg.sender;\n        _;\n    }\n\n    modifier onlyPayee {\n        payee == msg.sender;\n        _;\n    }\n\n    modifier onlyMediator {\n        mediator == msg.sender;\n        _;\n    }\n\n    /**\n     * @dev these are all the states that the job can be in.\n     * ESCROW_CREATED_PAYMENT_DEPOSITED is when the job was created and eth deposited into contract\n     * JOB_COMPLETED is when the payee confirms that the job has been JOB_COMPLETED\n     * PAYMENT_SENT_PAYEE is when the creator confirms job is done and eth is sent to payee\n     * DISPUTE is when creator and payee don't agree\n     * PAYMENT_SENT_BACK can only be set if the job was in dispute and we think that he needs his money\n     * back because the payee didn't do something correctly\n    */\n    enum State {ESCROW_CREATED_PAYMENT_DEPOSITED, JOB_COMPLETED, PAYMENT_SENT_PAYEE, DISPUTE, PAYMENT_SENT_CREATOR}\n\n    address payable escrowCreator;\n    address payable payee;\n    address mediator;\n    string escrowDetails;\n    uint priceInWei;\n    uint paidWei;\n    State public state;\n\n    // default eth address the contract is going to use\n    IERC20 private constant ETH_ADDRESS = IERC20(0xEeeeeEeeeEeEeeEeEeEeeEEEeeeeEeeeeeeeEEeE);\n\n    // emits everytime the job state changes\n    event JobState(State _state);\n\n    // emits whenever a payment has been sent to someone\n    event PaymentSent(address to, uint amount);\n\n\n    /**\n     * @dev this function will create the job and accept the deposit from the creator.\n     * @param _payee is the person that is going to be paid once job is _completed\n     * @param _escrowDetails a description of what the job is\n     * @param _priceInWei the price that is going to be deposited and paid to the payee\n    */\n    constructor(\n        address payable _creator,\n        address payable _payee,\n        address _mediator,\n        string memory _escrowDetails,\n        uint _priceInWei) payable\n    {\n        require(msg.sender != _payee, \"You can't have the same address as the payee.\");\n        require(msg.value != 0, \"msg.value can not equal 0\");\n        require(_priceInWei == msg.value, \"Amount deposited must equal price.\");\n\n        escrowCreator = _creator;\n        payee = _payee;\n        mediator = _mediator;\n        escrowDetails = _escrowDetails;\n        priceInWei = _priceInWei;\n        paidWei = msg.value;\n        state = State.ESCROW_CREATED_PAYMENT_DEPOSITED;\n\n        emit JobState(state);\n    }\n\n\n    /**\n     * @dev this function will allow the payee to let the creator know they have completed the job.\n     * @param _completed this will be true if he completed the task and false if he wants to dispute it\n    */\n    function completeJob(bool _completed)\n    external\n    onlyPayee\n    {\n        require(state == State.ESCROW_CREATED_PAYMENT_DEPOSITED, \"Job is not at this state yet.\");\n\n        if (_completed) {\n            state = State.JOB_COMPLETED;\n            emit JobState(state);\n        } else {\n            state = State.DISPUTE;\n            emit JobState(state);\n        }\n\n    }\n\n    /**\n     * @dev this function will allow the creator to confirm that the job is complete and then will pay the payee\n     * @param _satisfied this will be true if he is _satisfied and then the funds will be sent to the payee\n     * and it will be false if he wants to dispute it.\n    */\n    function confirmJobCompletion(bool _satisfied)\n    external\n    onlyEscrowCreator\n    {\n        require(state == State.JOB_COMPLETED, \"Job is not at this state yet.\");\n\n        if(_satisfied) {\n            sendFundsToPayee();\n            state = State.PAYMENT_SENT_PAYEE;\n            emit JobState(state);\n        } else {\n            state = State.DISPUTE;\n            emit JobState(state);\n        }\n\n    }\n\n    /**\n     * @dev this function will resolve any dispute that occurs. The owner of the contract will be\n     * able to talk to both parties and come up with a decision on who is correct.\n     * @param _setState is the state that the mediator wants to put the job to\n    */\n    function resolveDispute(State _setState) external onlyMediator {\n        require(state == State.DISPUTE, \"This job is not in dispute.\");\n\n        if(_setState == State.PAYMENT_SENT_PAYEE) {\n            sendFundsToPayee();\n            emit JobState(state);\n\n        } else if (_setState == State.PAYMENT_SENT_CREATOR) {\n            sendFundsToCreator();\n            emit JobState(state);\n        } else {\n            state = _setState;\n            emit JobState(state);\n        }\n    }\n\n    /**\n     * @dev this function will send funds back to the creator, can only be called\n     * inside of another function\n    */\n    function sendFundsToCreator() private {\n        require(ETH_ADDRESS.universalTransfer(escrowCreator, paidWei), \"Transfer didn't complete\");\n        state = State.PAYMENT_SENT_CREATOR;\n        emit PaymentSent(escrowCreator, paidWei);\n    }\n\n    /**\n     * @dev this function will send the funds to the payee\n    */\n    function sendFundsToPayee() private {\n        require(ETH_ADDRESS.universalTransfer(payee, paidWei), \"Transfer didn't complete.\");\n        state = State.PAYMENT_SENT_PAYEE;\n        emit PaymentSent(payee, paidWei);\n    }\n\n}\n",
  "sourcePath": "/Users/christianroque/Desktop/TungstenGroupProject/contracts/Escrow.sol",
  "compiler": {
    "name": "solc",
    "version": "0.7.6+commit.7338295f.Emscripten.clang"
  },
  "schemaVersion": "3.3.4",
  "updatedAt": "2021-05-19T01:49:10.673Z",
  "devdoc": {
    "kind": "dev",
    "methods": {
      "completeJob(bool)": {
        "details": "this function will allow the payee to let the creator know they have completed the job.",
        "params": {
          "_completed": "this will be true if he completed the task and false if he wants to dispute it"
        }
      },
      "confirmJobCompletion(bool)": {
        "details": "this function will allow the creator to confirm that the job is complete and then will pay the payee",
        "params": {
          "_satisfied": "this will be true if he is _satisfied and then the funds will be sent to the payee and it will be false if he wants to dispute it."
        }
      },
      "constructor": {
        "details": "this function will create the job and accept the deposit from the creator.",
        "params": {
          "_escrowDetails": "a description of what the job is",
          "_payee": "is the person that is going to be paid once job is _completed",
          "_priceInWei": "the price that is going to be deposited and paid to the payee"
        }
      },
      "resolveDispute(uint8)": {
        "details": "this function will resolve any dispute that occurs. The owner of the contract will be able to talk to both parties and come up with a decision on who is correct.",
        "params": {
          "_setState": "is the state that the mediator wants to put the job to"
        }
      }
    },
    "version": 1
  },
  "userdoc": {
    "kind": "user",
    "methods": {},
    "version": 1
  }
}