{
  "contractName": "EscrowManager",
  "abi": [
    {
      "inputs": [],
      "stateMutability": "nonpayable",
      "type": "constructor"
    },
    {
      "anonymous": false,
      "inputs": [
        {
          "indexed": false,
          "internalType": "address",
          "name": "escrow",
          "type": "address"
        },
        {
          "indexed": false,
          "internalType": "address",
          "name": "creator",
          "type": "address"
        },
        {
          "indexed": false,
          "internalType": "address",
          "name": "payee",
          "type": "address"
        },
        {
          "indexed": false,
          "internalType": "uint256",
          "name": "createAt",
          "type": "uint256"
        },
        {
          "indexed": false,
          "internalType": "uint256",
          "name": "amount",
          "type": "uint256"
        }
      ],
      "name": "CreatedEscrow",
      "type": "event"
    },
    {
      "stateMutability": "payable",
      "type": "receive"
    },
    {
      "inputs": [
        {
          "internalType": "address",
          "name": "_user",
          "type": "address"
        }
      ],
      "name": "getEscrows",
      "outputs": [
        {
          "internalType": "contract Escrow[]",
          "name": "",
          "type": "address[]"
        }
      ],
      "stateMutability": "view",
      "type": "function"
    },
    {
      "inputs": [
        {
          "internalType": "address payable",
          "name": "_payee",
          "type": "address"
        },
        {
          "internalType": "string",
          "name": "_escrowDetails",
          "type": "string"
        },
        {
          "internalType": "uint256",
          "name": "_priceInWei",
          "type": "uint256"
        }
      ],
      "name": "newEscrowContract",
      "outputs": [
        {
          "internalType": "contract Escrow",
          "name": "escrow",
          "type": "address"
        }
      ],
      "stateMutability": "payable",
      "type": "function"
    }
  ],
  "bytecode": "0x608060405234801561001057600080fd5b5033600160006101000a81548173ffffffffffffffffffffffffffffffffffffffff021916908373ffffffffffffffffffffffffffffffffffffffff160217905550611de7806100616000396000f3fe60806040526004361061002d5760003560e01c806380a490ca1461003c5780638c5b6ecd1461014b57610037565b3661003757600080fd5b600080fd5b61011f6004803603606081101561005257600080fd5b81019080803573ffffffffffffffffffffffffffffffffffffffff1690602001909291908035906020019064010000000081111561008f57600080fd5b8201836020820111156100a157600080fd5b803590602001918460018302840111640100000000831117156100c357600080fd5b91908080601f016020809104026020016040519081016040528093929190818152602001838380828437600081840152601f19601f820116905080830192505050505050509192919290803590602001909291905050506101f1565b604051808273ffffffffffffffffffffffffffffffffffffffff16815260200191505060405180910390f35b34801561015757600080fd5b5061019a6004803603602081101561016e57600080fd5b81019080803573ffffffffffffffffffffffffffffffffffffffff169060200190929190505050610537565b6040518080602001828103825283818151815260200191508051906020019060200280838360005b838110156101dd5780820151818401526020810190506101c2565b505050509050019250505060405180910390f35b60003384600160009054906101000a900473ffffffffffffffffffffffffffffffffffffffff16858560405161022690610603565b808673ffffffffffffffffffffffffffffffffffffffff1681526020018573ffffffffffffffffffffffffffffffffffffffff1681526020018473ffffffffffffffffffffffffffffffffffffffff16815260200180602001838152602001828103825284818151815260200191508051906020019080838360005b838110156102bd5780820151818401526020810190506102a2565b50505050905090810190601f1680156102ea5780820380516001836020036101000a031916815260200191505b509650505050505050604051809103906000f08015801561030f573d6000803e3d6000fd5b5090506000803373ffffffffffffffffffffffffffffffffffffffff1673ffffffffffffffffffffffffffffffffffffffff168152602001908152602001600020819080600181540180825580915050600190039060005260206000200160009091909190916101000a81548173ffffffffffffffffffffffffffffffffffffffff021916908373ffffffffffffffffffffffffffffffffffffffff1602179055506000808573ffffffffffffffffffffffffffffffffffffffff1673ffffffffffffffffffffffffffffffffffffffff168152602001908152602001600020819080600181540180825580915050600190039060005260206000200160009091909190916101000a81548173ffffffffffffffffffffffffffffffffffffffff021916908373ffffffffffffffffffffffffffffffffffffffff1602179055508073ffffffffffffffffffffffffffffffffffffffff166108fc349081150290604051600060405180830381858888f19350505050158015610496573d6000803e3d6000fd5b507f13e427dbbef78785f7474948dbc61935d005a5c03bfbe8b94c90cadd6ebdb0af8133864286604051808673ffffffffffffffffffffffffffffffffffffffff1681526020018573ffffffffffffffffffffffffffffffffffffffff1681526020018473ffffffffffffffffffffffffffffffffffffffff1681526020018381526020018281526020019550505050505060405180910390a19392505050565b60606000808373ffffffffffffffffffffffffffffffffffffffff1673ffffffffffffffffffffffffffffffffffffffff1681526020019081526020016000208054806020026020016040519081016040528092919081815260200182805480156105f757602002820191906000526020600020905b8160009054906101000a900473ffffffffffffffffffffffffffffffffffffffff1673ffffffffffffffffffffffffffffffffffffffff16815260200190600101908083116105ad575b50505050509050919050565b6117a1806106118339019056fe6080604052604051620017a1380380620017a1833981810160405260a08110156200002957600080fd5b81019080805190602001909291908051906020019092919080519060200190929190805160405193929190846401000000008211156200006857600080fd5b838201915060208201858111156200007f57600080fd5b82518660018202830111640100000000821117156200009d57600080fd5b8083526020830192505050908051906020019080838360005b83811015620000d3578082015181840152602081019050620000b6565b50505050905090810190601f168015620001015780820380516001836020036101000a031916815260200191505b5060405260200180519060200190929190505050336000806101000a81548173ffffffffffffffffffffffffffffffffffffffff021916908373ffffffffffffffffffffffffffffffffffffffff1602179055508373ffffffffffffffffffffffffffffffffffffffff163373ffffffffffffffffffffffffffffffffffffffff161415620001dc576040517f08c379a000000000000000000000000000000000000000000000000000000000815260040180806020018281038252602d81526020018062001752602d913960400191505060405180910390fd5b600034141562000254576040517f08c379a00000000000000000000000000000000000000000000000000000000081526004018080602001828103825260198152602001807f6d73672e76616c75652063616e206e6f7420657175616c20300000000000000081525060200191505060405180910390fd5b348114620002ae576040517f08c379a00000000000000000000000000000000000000000000000000000000081526004018080602001828103825260228152602001806200177f6022913960400191505060405180910390fd5b84600160006101000a81548173ffffffffffffffffffffffffffffffffffffffff021916908373ffffffffffffffffffffffffffffffffffffffff16021790555083600260006101000a81548173ffffffffffffffffffffffffffffffffffffffff021916908373ffffffffffffffffffffffffffffffffffffffff16021790555082600360006101000a81548173ffffffffffffffffffffffffffffffffffffffff021916908373ffffffffffffffffffffffffffffffffffffffff1602179055508160049080519060200190620003899291906200041a565b5080600581905550346006819055506000600760006101000a81548160ff02191690836004811115620003b857fe5b02179055507f575af034eab5aa94c68e0d6631c233469ef570f60ba3c1787f0cc1e31f361429600760009054906101000a900460ff1660405180826004811115620003ff57fe5b815260200191505060405180910390a15050505050620004d0565b828054600181600116156101000203166002900490600052602060002090601f0160209004810192826200045257600085556200049e565b82601f106200046d57805160ff19168380011785556200049e565b828001600101855582156200049e579182015b828111156200049d57825182559160200191906001019062000480565b5b509050620004ad9190620004b1565b5090565b5b80821115620004cc576000816000905550600101620004b2565b5090565b61127280620004e06000396000f3fe608060405234801561001057600080fd5b506004361061007d5760003560e01c8063b03be06f1161005b578063b03be06f14610103578063b2bdfa7b14610133578063c19d93fb14610167578063f2fde38b146101905761007d565b80637c5ddb5514610082578063881f227c146100b25780638f32d59b146100e3575b600080fd5b6100b06004803603602081101561009857600080fd5b810190808035151590602001909291905050506101d4565b005b6100e1600480360360208110156100c857600080fd5b81019080803560ff169060200190929190505050610396565b005b6100eb6105c9565b60405180821515815260200191505060405180910390f35b6101316004803603602081101561011957600080fd5b81019080803515159060200190929190505050610620565b005b61013b6107da565b604051808273ffffffffffffffffffffffffffffffffffffffff16815260200191505060405180910390f35b61016f6107fe565b6040518082600481111561017f57fe5b815260200191505060405180910390f35b6101d2600480360360208110156101a657600080fd5b81019080803573ffffffffffffffffffffffffffffffffffffffff169060200190929190505050610811565b005b3373ffffffffffffffffffffffffffffffffffffffff16600160009054906101000a905050506001600481111561020757fe5b600760009054906101000a900460ff16600481111561022257fe5b14610295576040517f08c379a000000000000000000000000000000000000000000000000000000000815260040180806020018281038252601d8152602001807f4a6f62206973206e6f742061742074686973207374617465207965742e00000081525060200191505060405180910390fd5b801561031d576102a361094c565b6002600760006101000a81548160ff021916908360048111156102c257fe5b02179055507f575af034eab5aa94c68e0d6631c233469ef570f60ba3c1787f0cc1e31f361429600760009054906101000a900460ff166040518082600481111561030857fe5b815260200191505060405180910390a1610393565b6003600760006101000a81548160ff0219169083600481111561033c57fe5b02179055507f575af034eab5aa94c68e0d6631c233469ef570f60ba3c1787f0cc1e31f361429600760009054906101000a900460ff166040518082600481111561038257fe5b815260200191505060405180910390a15b50565b3373ffffffffffffffffffffffffffffffffffffffff16600360009054906101000a90505050600360048111156103c957fe5b600760009054906101000a900460ff1660048111156103e457fe5b14610457576040517f08c379a000000000000000000000000000000000000000000000000000000000815260040180806020018281038252601b8152602001807f54686973206a6f62206973206e6f7420696e20646973707574652e000000000081525060200191505060405180910390fd5b6002600481111561046457fe5b81600481111561047057fe5b14156104d45761047e61094c565b7f575af034eab5aa94c68e0d6631c233469ef570f60ba3c1787f0cc1e31f361429600760009054906101000a900460ff16604051808260048111156104bf57fe5b815260200191505060405180910390a16105c6565b6004808111156104e057fe5b8160048111156104ec57fe5b1415610550576104fa610ac0565b7f575af034eab5aa94c68e0d6631c233469ef570f60ba3c1787f0cc1e31f361429600760009054906101000a900460ff166040518082600481111561053b57fe5b815260200191505060405180910390a16105c5565b80600760006101000a81548160ff0219169083600481111561056e57fe5b02179055507f575af034eab5aa94c68e0d6631c233469ef570f60ba3c1787f0cc1e31f361429600760009054906101000a900460ff16604051808260048111156105b457fe5b815260200191505060405180910390a15b5b50565b60008060009054906101000a900473ffffffffffffffffffffffffffffffffffffffff1673ffffffffffffffffffffffffffffffffffffffff163373ffffffffffffffffffffffffffffffffffffffff1614905090565b3373ffffffffffffffffffffffffffffffffffffffff16600260009054906101000a905050506000600481111561065357fe5b600760009054906101000a900460ff16600481111561066e57fe5b146106e1576040517f08c379a000000000000000000000000000000000000000000000000000000000815260040180806020018281038252601d8152602001807f4a6f62206973206e6f742061742074686973207374617465207965742e00000081525060200191505060405180910390fd5b8015610761576001600760006101000a81548160ff0219169083600481111561070657fe5b02179055507f575af034eab5aa94c68e0d6631c233469ef570f60ba3c1787f0cc1e31f361429600760009054906101000a900460ff166040518082600481111561074c57fe5b815260200191505060405180910390a16107d7565b6003600760006101000a81548160ff0219169083600481111561078057fe5b02179055507f575af034eab5aa94c68e0d6631c233469ef570f60ba3c1787f0cc1e31f361429600760009054906101000a900460ff16604051808260048111156107c657fe5b815260200191505060405180910390a15b50565b60008054906101000a900473ffffffffffffffffffffffffffffffffffffffff1681565b600760009054906101000a900460ff1681565b6108196105c9565b61088b576040517f08c379a00000000000000000000000000000000000000000000000000000000081526004018080602001828103825260168152602001807f596f7520617265206e6f7420746865206f776e65722e0000000000000000000081525060200191505060405180910390fd5b600073ffffffffffffffffffffffffffffffffffffffff168173ffffffffffffffffffffffffffffffffffffffff1614156108c557600080fd5b8073ffffffffffffffffffffffffffffffffffffffff167f8be0079c531659141344cd1fd0a4f28419497f9722a3daafe3b4186f6b6457e060008054906101000a900473ffffffffffffffffffffffffffffffffffffffff16604051808273ffffffffffffffffffffffffffffffffffffffff16815260200191505060405180910390a250565b6109af600260009054906101000a900473ffffffffffffffffffffffffffffffffffffffff1660065473eeeeeeeeeeeeeeeeeeeeeeeeeeeeeeeeeeeeeeee73ffffffffffffffffffffffffffffffffffffffff16610c349092919063ffffffff16565b610a21576040517f08c379a00000000000000000000000000000000000000000000000000000000081526004018080602001828103825260198152602001807f5472616e73666572206469646e277420636f6d706c6574652e0000000000000081525060200191505060405180910390fd5b6002600760006101000a81548160ff02191690836004811115610a4057fe5b02179055507f47db2abce6d5fbcd80ffd9b4ba74dcde804a746ef732bc7f8a70fabfc912c590600260009054906101000a900473ffffffffffffffffffffffffffffffffffffffff16600654604051808373ffffffffffffffffffffffffffffffffffffffff1681526020018281526020019250505060405180910390a1565b610b23600160009054906101000a900473ffffffffffffffffffffffffffffffffffffffff1660065473eeeeeeeeeeeeeeeeeeeeeeeeeeeeeeeeeeeeeeee73ffffffffffffffffffffffffffffffffffffffff16610c349092919063ffffffff16565b610b95576040517f08c379a00000000000000000000000000000000000000000000000000000000081526004018080602001828103825260188152602001807f5472616e73666572206469646e277420636f6d706c657465000000000000000081525060200191505060405180910390fd5b6004600760006101000a81548160ff02191690836004811115610bb457fe5b02179055507f47db2abce6d5fbcd80ffd9b4ba74dcde804a746ef732bc7f8a70fabfc912c590600160009054906101000a900473ffffffffffffffffffffffffffffffffffffffff16600654604051808373ffffffffffffffffffffffffffffffffffffffff1681526020018281526020019250505060405180910390a1565b600080821415610c475760019050610cd5565b610c5084610cdc565b15610ca5578273ffffffffffffffffffffffffffffffffffffffff166108fc839081150290604051600060405180830381858888f19350505050158015610c9b573d6000803e3d6000fd5b5060019050610cd5565b610cd083838673ffffffffffffffffffffffffffffffffffffffff16610dbc9092919063ffffffff16565b600190505b9392505050565b600073c02aaa39b223fe8d0a0e5c4f27ead9083c756cc273ffffffffffffffffffffffffffffffffffffffff168273ffffffffffffffffffffffffffffffffffffffff161480610d6b575073eeeeeeeeeeeeeeeeeeeeeeeeeeeeeeeeeeeeeeee73ffffffffffffffffffffffffffffffffffffffff168273ffffffffffffffffffffffffffffffffffffffff16145b80610db5575073c778417e063141139fce010982780140aa0cd5ab73ffffffffffffffffffffffffffffffffffffffff168273ffffffffffffffffffffffffffffffffffffffff16145b9050919050565b610e598363a9059cbb60e01b8484604051602401808373ffffffffffffffffffffffffffffffffffffffff16815260200182815260200192505050604051602081830303815290604052907bffffffffffffffffffffffffffffffffffffffffffffffffffffffff19166020820180517bffffffffffffffffffffffffffffffffffffffffffffffffffffffff8381831617835250505050610e5e565b505050565b6000610ec0826040518060400160405280602081526020017f5361666545524332303a206c6f772d6c6576656c2063616c6c206661696c65648152508573ffffffffffffffffffffffffffffffffffffffff16610f4d9092919063ffffffff16565b9050600081511115610f4857808060200190516020811015610ee157600080fd5b8101908080519060200190929190505050610f47576040517f08c379a000000000000000000000000000000000000000000000000000000000815260040180806020018281038252602a815260200180611213602a913960400191505060405180910390fd5b5b505050565b6060610f5c8484600085610f65565b90509392505050565b606082471015610fc0576040517f08c379a00000000000000000000000000000000000000000000000000000000081526004018080602001828103825260268152602001806111ed6026913960400191505060405180910390fd5b610fc98561110d565b61103b576040517f08c379a000000000000000000000000000000000000000000000000000000000815260040180806020018281038252601d8152602001807f416464726573733a2063616c6c20746f206e6f6e2d636f6e747261637400000081525060200191505060405180910390fd5b6000808673ffffffffffffffffffffffffffffffffffffffff1685876040518082805190602001908083835b6020831061108a5780518252602082019150602081019050602083039250611067565b6001836020036101000a03801982511681845116808217855250505050505090500191505060006040518083038185875af1925050503d80600081146110ec576040519150601f19603f3d011682016040523d82523d6000602084013e6110f1565b606091505b5091509150611101828286611120565b92505050949350505050565b600080823b905060008111915050919050565b60608315611130578290506111e5565b6000835111156111435782518084602001fd5b816040517f08c379a00000000000000000000000000000000000000000000000000000000081526004018080602001828103825283818151815260200191508051906020019080838360005b838110156111aa57808201518184015260208101905061118f565b50505050905090810190601f1680156111d75780820380516001836020036101000a031916815260200191505b509250505060405180910390fd5b939250505056fe416464726573733a20696e73756666696369656e742062616c616e636520666f722063616c6c5361666545524332303a204552433230206f7065726174696f6e20646964206e6f742073756363656564a2646970667358221220ccf9cc15f89c3d474e787fe063512ec640545def2027eeda16b4b4d9d680793e64736f6c63430007060033596f752063616e27742068617665207468652073616d652061646472657373206173207468652070617965652e416d6f756e74206465706f7369746564206d75737420657175616c2070726963652ea264697066735822122043416bbf29664c9dff80daa68cfff6f3eba33873b319535fbfd167299b43955e64736f6c63430007060033",
  "immutableReferences": {},
  "source": "// SPDX-License-Identifier: MIT\npragma solidity >=0.4.22 <0.9.0;\n\nimport \"./Escrow.sol\";\n\ncontract EscrowManager {\n    event CreatedEscrow(\n        address escrow,\n        address creator,\n        address payee,\n        uint256 createAt,\n        uint256 amount\n    );\n\n    mapping(address => Escrow[]) escrows;\n    address mediator;\n\n    constructor() {\n        mediator = msg.sender;\n    }\n\n    function getEscrows(address _user) external view returns (Escrow[] memory) {\n        return escrows[_user];\n    }\n\n    function newEscrowContract(\n        address payable _payee,\n        string memory _escrowDetails,\n        uint256 _priceInWei\n    ) external payable returns (Escrow escrow) {\n        escrow = new Escrow(\n            payable(msg.sender),\n            _payee,\n            mediator,\n            _escrowDetails,\n            _priceInWei\n        );\n\n        escrows[msg.sender].push(escrow);\n        escrows[_payee].push(escrow);\n\n        payable(address(escrow)).transfer(msg.value);\n\n        CreatedEscrow(\n            address(escrow),\n            msg.sender,\n            _payee,\n            block.timestamp,\n            _priceInWei\n        );\n    }\n\n    receive() external payable {\n        revert();\n    }\n}\n",
  "sourcePath": "/Users/christianroque/Desktop/TungstenGroupProject/contracts/EscrowManager.sol",
  "compiler": {
    "name": "solc",
    "version": "0.7.6+commit.7338295f.Emscripten.clang"
  },
  "schemaVersion": "3.3.4",
  "updatedAt": "2021-06-16T19:55:15.785Z",
  "devdoc": {
    "kind": "dev",
    "methods": {},
    "version": 1
  },
  "userdoc": {
    "kind": "user",
    "methods": {},
    "version": 1
  }
}