{
  "contractName": "EscrowManager",
  "abi": [
    {
      "anonymous": false,
      "inputs": [
        {
          "indexed": false,
          "internalType": "uint256",
          "name": "_jobIndex",
          "type": "uint256"
        },
        {
          "indexed": false,
          "internalType": "uint256",
          "name": "_state",
          "type": "uint256"
        }
      ],
      "name": "JobDispute",
      "type": "event"
    },
    {
      "anonymous": false,
      "inputs": [
        {
          "indexed": false,
          "internalType": "uint256",
          "name": "_jobIndex",
          "type": "uint256"
        },
        {
          "indexed": false,
          "internalType": "uint256",
          "name": "_state",
          "type": "uint256"
        }
      ],
      "name": "JobState",
      "type": "event"
    },
    {
      "anonymous": false,
      "inputs": [
        {
          "indexed": false,
          "internalType": "address",
          "name": "_previousOwner",
          "type": "address"
        },
        {
          "indexed": true,
          "internalType": "address",
          "name": "_newOwner",
          "type": "address"
        }
      ],
      "name": "OwnershipTransferred",
      "type": "event"
    },
    {
      "inputs": [],
      "name": "_owner",
      "outputs": [
        {
          "internalType": "address",
          "name": "",
          "type": "address"
        }
      ],
      "stateMutability": "view",
      "type": "function"
    },
    {
      "inputs": [
        {
          "internalType": "uint256",
          "name": "",
          "type": "uint256"
        }
      ],
      "name": "escrows",
      "outputs": [
        {
          "internalType": "address payable",
          "name": "escrowCreator",
          "type": "address"
        },
        {
          "internalType": "address payable",
          "name": "payee",
          "type": "address"
        },
        {
          "internalType": "string",
          "name": "escrowDetails",
          "type": "string"
        },
        {
          "internalType": "uint256",
          "name": "priceInWei",
          "type": "uint256"
        },
        {
          "internalType": "uint256",
          "name": "paidWei",
          "type": "uint256"
        },
        {
          "internalType": "bool",
          "name": "jobCompletion",
          "type": "bool"
        },
        {
          "internalType": "bool",
          "name": "confirmJobCompletion",
          "type": "bool"
        },
        {
          "internalType": "enum EscrowManager.State",
          "name": "state",
          "type": "uint8"
        }
      ],
      "stateMutability": "view",
      "type": "function"
    },
    {
      "inputs": [],
      "name": "fees",
      "outputs": [
        {
          "internalType": "uint256",
          "name": "",
          "type": "uint256"
        }
      ],
      "stateMutability": "view",
      "type": "function"
    },
    {
      "inputs": [],
      "name": "isOwner",
      "outputs": [
        {
          "internalType": "bool",
          "name": "",
          "type": "bool"
        }
      ],
      "stateMutability": "view",
      "type": "function"
    },
    {
      "inputs": [
        {
          "internalType": "uint256",
          "name": "",
          "type": "uint256"
        },
        {
          "internalType": "address",
          "name": "",
          "type": "address"
        }
      ],
      "name": "transactions",
      "outputs": [
        {
          "internalType": "uint256",
          "name": "",
          "type": "uint256"
        }
      ],
      "stateMutability": "view",
      "type": "function"
    },
    {
      "inputs": [
        {
          "internalType": "address",
          "name": "_newOwner",
          "type": "address"
        }
      ],
      "name": "transferOwnership",
      "outputs": [],
      "stateMutability": "nonpayable",
      "type": "function"
    },
    {
      "inputs": [
        {
          "internalType": "address payable",
          "name": "_payee",
          "type": "address"
        },
        {
          "internalType": "string",
          "name": "_escrowDetails",
          "type": "string"
        },
        {
          "internalType": "uint256",
          "name": "_priceInWei",
          "type": "uint256"
        }
      ],
      "name": "createItemAndDepositFunds",
      "outputs": [],
      "stateMutability": "payable",
      "type": "function"
    },
    {
      "inputs": [
        {
          "internalType": "uint256",
          "name": "_index",
          "type": "uint256"
        },
        {
          "internalType": "bool",
          "name": "_completed",
          "type": "bool"
        }
      ],
      "name": "jobCompletion",
      "outputs": [],
      "stateMutability": "nonpayable",
      "type": "function"
    },
    {
      "inputs": [
        {
          "internalType": "uint256",
          "name": "_index",
          "type": "uint256"
        },
        {
          "internalType": "bool",
          "name": "_satisfied",
          "type": "bool"
        }
      ],
      "name": "confirmJobCompletion",
      "outputs": [],
      "stateMutability": "nonpayable",
      "type": "function"
    },
    {
      "inputs": [
        {
          "internalType": "uint256",
          "name": "_index",
          "type": "uint256"
        },
        {
          "internalType": "enum EscrowManager.State",
          "name": "_setState",
          "type": "uint8"
        }
      ],
      "name": "resolveDispute",
      "outputs": [],
      "stateMutability": "nonpayable",
      "type": "function"
    },
    {
      "inputs": [
        {
          "internalType": "address payable",
          "name": "_treasury",
          "type": "address"
        }
      ],
      "name": "setTreasury",
      "outputs": [],
      "stateMutability": "nonpayable",
      "type": "function"
    },
    {
      "inputs": [],
      "name": "depositFees",
      "outputs": [],
      "stateMutability": "nonpayable",
      "type": "function"
    }
  ],
  "bytecode": "0x608060405234801561001057600080fd5b50336000806101000a81548173ffffffffffffffffffffffffffffffffffffffff021916908373ffffffffffffffffffffffffffffffffffffffff1602179055506121cc806100606000396000f3fe6080604052600436106100a75760003560e01c80639af1d35a116100645780639af1d35a146103ab578063b1632a4a146103d6578063b2bdfa7b1461041d578063e55e42111461045e578063f0f44260146104a6578063f2fde38b146104f7576100a7565b8063012f52ee146100ac57806326741e7d146101cc578063397290bc146101e357806361e99db31461022a57806374cbc3501461030f5780638f32d59b1461037e575b600080fd5b3480156100b857600080fd5b506100e5600480360360208110156100cf57600080fd5b8101908080359060200190929190505050610548565b604051808973ffffffffffffffffffffffffffffffffffffffff1681526020018873ffffffffffffffffffffffffffffffffffffffff168152602001806020018781526020018681526020018515158152602001841515815260200183600481111561014d57fe5b8152602001828103825288818151815260200191508051906020019080838360005b8381101561018a57808201518184015260208101905061016f565b50505050905090810190601f1680156101b75780820380516001836020036101000a031916815260200191505b50995050505050505050505060405180910390f35b3480156101d857600080fd5b506101e161068f565b005b3480156101ef57600080fd5b506102286004803603604081101561020657600080fd5b810190808035906020019092919080351515906020019092919050505061070b565b005b61030d6004803603606081101561024057600080fd5b81019080803573ffffffffffffffffffffffffffffffffffffffff1690602001909291908035906020019064010000000081111561027d57600080fd5b82018360208201111561028f57600080fd5b803590602001918460018302840111640100000000831117156102b157600080fd5b91908080601f016020809104026020016040519081016040528093929190818152602001838380828437600081840152601f19601f820116905080830192505050505050509192919290803590602001909291905050506109cd565b005b34801561031b57600080fd5b506103686004803603604081101561033257600080fd5b8101908080359060200190929190803573ffffffffffffffffffffffffffffffffffffffff169060200190929190505050610dda565b6040518082815260200191505060405180910390f35b34801561038a57600080fd5b50610393610dff565b60405180821515815260200191505060405180910390f35b3480156103b757600080fd5b506103c0610e56565b6040518082815260200191505060405180910390f35b3480156103e257600080fd5b5061041b600480360360408110156103f957600080fd5b8101908080359060200190929190803515159060200190929190505050610e5c565b005b34801561042957600080fd5b5061043261114d565b604051808273ffffffffffffffffffffffffffffffffffffffff16815260200191505060405180910390f35b34801561046a57600080fd5b506104a46004803603604081101561048157600080fd5b8101908080359060200190929190803560ff169060200190929190505050611171565b005b3480156104b257600080fd5b506104f5600480360360208110156104c957600080fd5b81019080803573ffffffffffffffffffffffffffffffffffffffff169060200190929190505050611477565b005b34801561050357600080fd5b506105466004803603602081101561051a57600080fd5b81019080803573ffffffffffffffffffffffffffffffffffffffff169060200190929190505050611535565b005b60046020528060005260406000206000915090508060000160009054906101000a900473ffffffffffffffffffffffffffffffffffffffff16908060010160009054906101000a900473ffffffffffffffffffffffffffffffffffffffff1690806002018054600181600116156101000203166002900480601f0160208091040260200160405190810160405280929190818152602001828054600181600116156101000203166002900480156106405780601f1061061557610100808354040283529160200191610640565b820191906000526020600020905b81548152906001019060200180831161062357829003601f168201915b5050505050908060030154908060040154908060050160009054906101000a900460ff16908060050160019054906101000a900460ff16908060050160029054906101000a900460ff16905088565b610697610dff565b610709576040517f08c379a00000000000000000000000000000000000000000000000000000000081526004018080602001828103825260168152602001807f596f7520617265206e6f7420746865206f776e65722e0000000000000000000081525060200191505060405180910390fd5b565b3373ffffffffffffffffffffffffffffffffffffffff166004600084815260200190815260200160002060000160009054906101000a900473ffffffffffffffffffffffffffffffffffffffff1673ffffffffffffffffffffffffffffffffffffffff16146107c5576040517f08c379a00000000000000000000000000000000000000000000000000000000081526004018080602001828103825260308152602001806121676030913960400191505060405180910390fd5b600160048111156107d257fe5b6004600084815260200190815260200160002060050160029054906101000a900460ff16600481111561080157fe5b14610874576040517f08c379a000000000000000000000000000000000000000000000000000000000815260040180806020018281038252601d8152602001807f4a6f62206973206e6f742061742074686973207374617465207965742e00000081525060200191505060405180910390fd5b806004600084815260200190815260200160002060050160016101000a81548160ff0219169083151502179055508015610923576108b182611670565b7fd50602aa5358a80ed3810ab51898243bed23e34defc61dc2251f4a01e9093e9c826004600085815260200190815260200160002060050160029054906101000a900460ff16600481111561090257fe5b604051808381526020018281526020019250505060405180910390a16109c9565b60036004600084815260200190815260200160002060050160026101000a81548160ff0219169083600481111561095657fe5b02179055507f7fc6da4225ad8907f4847fc5bd9629f7db9ec7541925fa8f8bef47bc15e3641e826004600085815260200190815260200160002060050160029054906101000a900460ff1660048111156109ac57fe5b604051808381526020018281526020019250505060405180910390a15b5050565b8273ffffffffffffffffffffffffffffffffffffffff163373ffffffffffffffffffffffffffffffffffffffff161415610a52576040517f08c379a000000000000000000000000000000000000000000000000000000000815260040180806020018281038252602d81526020018061209e602d913960400191505060405180910390fd5b6000341415610ac9576040517f08c379a00000000000000000000000000000000000000000000000000000000081526004018080602001828103825260198152602001807f6d73672e76616c75652063616e206e6f7420657175616c20300000000000000081525060200191505060405180910390fd5b348114610b21576040517f08c379a000000000000000000000000000000000000000000000000000000000815260040180806020018281038252602281526020018061211b6022913960400191505060405180910390fd5b3360046000600254815260200190815260200160002060000160006101000a81548173ffffffffffffffffffffffffffffffffffffffff021916908373ffffffffffffffffffffffffffffffffffffffff1602179055508260046000600254815260200190815260200160002060010160006101000a81548173ffffffffffffffffffffffffffffffffffffffff021916908373ffffffffffffffffffffffffffffffffffffffff160217905550816004600060025481526020019081526020016000206002019080519060200190610bfb929190611ff2565b5080600460006002548152602001908152602001600020600301819055506004600060025481526020019081526020016000206004015460056000600254815260200190815260200160002060003373ffffffffffffffffffffffffffffffffffffffff1673ffffffffffffffffffffffffffffffffffffffff168152602001908152602001600020819055506000600560006002548152602001908152602001600020600060046000600254815260200190815260200160002060010160009054906101000a900473ffffffffffffffffffffffffffffffffffffffff1673ffffffffffffffffffffffffffffffffffffffff1673ffffffffffffffffffffffffffffffffffffffff16815260200190815260200160002081905550600060046000600254815260200190815260200160002060050160026101000a81548160ff02191690836004811115610d4d57fe5b02179055507fd50602aa5358a80ed3810ab51898243bed23e34defc61dc2251f4a01e9093e9c60025460046000600254815260200190815260200160002060050160029054906101000a900460ff166004811115610da757fe5b604051808381526020018281526020019250505060405180910390a1600260008154809291906001019190505550505050565b6005602052816000526040600020602052806000526040600020600091509150505481565b60008060009054906101000a900473ffffffffffffffffffffffffffffffffffffffff1673ffffffffffffffffffffffffffffffffffffffff163373ffffffffffffffffffffffffffffffffffffffff1614905090565b60035481565b3373ffffffffffffffffffffffffffffffffffffffff166004600084815260200190815260200160002060010160009054906101000a900473ffffffffffffffffffffffffffffffffffffffff1673ffffffffffffffffffffffffffffffffffffffff1614610f16576040517f08c379a000000000000000000000000000000000000000000000000000000000815260040180806020018281038252602a8152602001806120f1602a913960400191505060405180910390fd5b60006004811115610f2357fe5b6004600084815260200190815260200160002060050160029054906101000a900460ff166004811115610f5257fe5b14610fc5576040517f08c379a000000000000000000000000000000000000000000000000000000000815260040180806020018281038252601d8152602001807f4a6f62206973206e6f742061742074686973207374617465207965742e00000081525060200191505060405180910390fd5b806004600084815260200190815260200160002060050160006101000a81548160ff02191690831515021790555080156110a35760016004600084815260200190815260200160002060050160026101000a81548160ff0219169083600481111561102c57fe5b02179055507fd50602aa5358a80ed3810ab51898243bed23e34defc61dc2251f4a01e9093e9c826004600085815260200190815260200160002060050160029054906101000a900460ff16600481111561108257fe5b604051808381526020018281526020019250505060405180910390a1611149565b60036004600084815260200190815260200160002060050160026101000a81548160ff021916908360048111156110d657fe5b02179055507f7fc6da4225ad8907f4847fc5bd9629f7db9ec7541925fa8f8bef47bc15e3641e826004600085815260200190815260200160002060050160029054906101000a900460ff16600481111561112c57fe5b604051808381526020018281526020019250505060405180910390a15b5050565b60008054906101000a900473ffffffffffffffffffffffffffffffffffffffff1681565b611179610dff565b6111eb576040517f08c379a00000000000000000000000000000000000000000000000000000000081526004018080602001828103825260168152602001807f596f7520617265206e6f7420746865206f776e65722e0000000000000000000081525060200191505060405180910390fd5b600360048111156111f857fe5b6004600084815260200190815260200160002060050160029054906101000a900460ff16600481111561122757fe5b1461129a576040517f08c379a000000000000000000000000000000000000000000000000000000000815260040180806020018281038252601b8152602001807f54686973206a6f62206973206e6f7420696e20646973707574652e000000000081525060200191505060405180910390fd5b600260048111156112a757fe5b8160048111156112b357fe5b1415611334576112c282611670565b7fd50602aa5358a80ed3810ab51898243bed23e34defc61dc2251f4a01e9093e9c826004600085815260200190815260200160002060050160029054906101000a900460ff16600481111561131357fe5b604051808381526020018281526020019250505060405180910390a1611473565b60048081111561134057fe5b81600481111561134c57fe5b14156113cd5761135b826118d5565b7fd50602aa5358a80ed3810ab51898243bed23e34defc61dc2251f4a01e9093e9c826004600085815260200190815260200160002060050160029054906101000a900460ff1660048111156113ac57fe5b604051808381526020018281526020019250505060405180910390a1611472565b806004600084815260200190815260200160002060050160026101000a81548160ff021916908360048111156113ff57fe5b02179055507fd50602aa5358a80ed3810ab51898243bed23e34defc61dc2251f4a01e9093e9c826004600085815260200190815260200160002060050160029054906101000a900460ff16600481111561145557fe5b604051808381526020018281526020019250505060405180910390a15b5b5050565b61147f610dff565b6114f1576040517f08c379a00000000000000000000000000000000000000000000000000000000081526004018080602001828103825260168152602001807f596f7520617265206e6f7420746865206f776e65722e0000000000000000000081525060200191505060405180910390fd5b80600160006101000a81548173ffffffffffffffffffffffffffffffffffffffff021916908373ffffffffffffffffffffffffffffffffffffffff16021790555050565b61153d610dff565b6115af576040517f08c379a00000000000000000000000000000000000000000000000000000000081526004018080602001828103825260168152602001807f596f7520617265206e6f7420746865206f776e65722e0000000000000000000081525060200191505060405180910390fd5b600073ffffffffffffffffffffffffffffffffffffffff168173ffffffffffffffffffffffffffffffffffffffff1614156115e957600080fd5b8073ffffffffffffffffffffffffffffffffffffffff167f8be0079c531659141344cd1fd0a4f28419497f9722a3daafe3b4186f6b6457e060008054906101000a900473ffffffffffffffffffffffffffffffffffffffff16604051808273ffffffffffffffffffffffffffffffffffffffff16815260200191505060405180910390a250565b6116fb6004600083815260200190815260200160002060010160009054906101000a900473ffffffffffffffffffffffffffffffffffffffff16600460008481526020019081526020016000206004015473eeeeeeeeeeeeeeeeeeeeeeeeeeeeeeeeeeeeeeee73ffffffffffffffffffffffffffffffffffffffff16611a989092919063ffffffff16565b61176d576040517f08c379a00000000000000000000000000000000000000000000000000000000081526004018080602001828103825260198152602001807f5472616e73666572206469646e277420636f6d706c6574652e0000000000000081525060200191505060405180910390fd5b60006005600083815260200190815260200160002060006004600085815260200190815260200160002060000160009054906101000a900473ffffffffffffffffffffffffffffffffffffffff1673ffffffffffffffffffffffffffffffffffffffff1673ffffffffffffffffffffffffffffffffffffffff1681526020019081526020016000208190555060046000828152602001908152602001600020600401546005600083815260200190815260200160002060006004600085815260200190815260200160002060010160009054906101000a900473ffffffffffffffffffffffffffffffffffffffff1673ffffffffffffffffffffffffffffffffffffffff1673ffffffffffffffffffffffffffffffffffffffff1681526020019081526020016000208190555060026004600083815260200190815260200160002060050160026101000a81548160ff021916908360048111156118cd57fe5b021790555050565b6119606004600083815260200190815260200160002060000160009054906101000a900473ffffffffffffffffffffffffffffffffffffffff16600460008481526020019081526020016000206004015473eeeeeeeeeeeeeeeeeeeeeeeeeeeeeeeeeeeeeeee73ffffffffffffffffffffffffffffffffffffffff16611a989092919063ffffffff16565b6119d2576040517f08c379a00000000000000000000000000000000000000000000000000000000081526004018080602001828103825260188152602001807f5472616e73666572206469646e277420636f6d706c657465000000000000000081525060200191505060405180910390fd5b60006005600083815260200190815260200160002060006004600085815260200190815260200160002060000160009054906101000a900473ffffffffffffffffffffffffffffffffffffffff1673ffffffffffffffffffffffffffffffffffffffff1673ffffffffffffffffffffffffffffffffffffffff16815260200190815260200160002081905550600480600083815260200190815260200160002060050160026101000a81548160ff02191690836004811115611a9057fe5b021790555050565b600080821415611aab5760019050611b39565b611ab484611b40565b15611b09578273ffffffffffffffffffffffffffffffffffffffff166108fc839081150290604051600060405180830381858888f19350505050158015611aff573d6000803e3d6000fd5b5060019050611b39565b611b3483838673ffffffffffffffffffffffffffffffffffffffff16611bc29092919063ffffffff16565b600190505b9392505050565b60008073ffffffffffffffffffffffffffffffffffffffff168273ffffffffffffffffffffffffffffffffffffffff161480611bbb575073eeeeeeeeeeeeeeeeeeeeeeeeeeeeeeeeeeeeeeee73ffffffffffffffffffffffffffffffffffffffff168273ffffffffffffffffffffffffffffffffffffffff16145b9050919050565b611c5f8363a9059cbb60e01b8484604051602401808373ffffffffffffffffffffffffffffffffffffffff16815260200182815260200192505050604051602081830303815290604052907bffffffffffffffffffffffffffffffffffffffffffffffffffffffff19166020820180517bffffffffffffffffffffffffffffffffffffffffffffffffffffffff8381831617835250505050611c64565b505050565b6000611cc6826040518060400160405280602081526020017f5361666545524332303a206c6f772d6c6576656c2063616c6c206661696c65648152508573ffffffffffffffffffffffffffffffffffffffff16611d539092919063ffffffff16565b9050600081511115611d4e57808060200190516020811015611ce757600080fd5b8101908080519060200190929190505050611d4d576040517f08c379a000000000000000000000000000000000000000000000000000000000815260040180806020018281038252602a81526020018061213d602a913960400191505060405180910390fd5b5b505050565b6060611d628484600085611d6b565b90509392505050565b606082471015611dc6576040517f08c379a00000000000000000000000000000000000000000000000000000000081526004018080602001828103825260268152602001806120cb6026913960400191505060405180910390fd5b611dcf85611f13565b611e41576040517f08c379a000000000000000000000000000000000000000000000000000000000815260040180806020018281038252601d8152602001807f416464726573733a2063616c6c20746f206e6f6e2d636f6e747261637400000081525060200191505060405180910390fd5b6000808673ffffffffffffffffffffffffffffffffffffffff1685876040518082805190602001908083835b60208310611e905780518252602082019150602081019050602083039250611e6d565b6001836020036101000a03801982511681845116808217855250505050505090500191505060006040518083038185875af1925050503d8060008114611ef2576040519150601f19603f3d011682016040523d82523d6000602084013e611ef7565b606091505b5091509150611f07828286611f26565b92505050949350505050565b600080823b905060008111915050919050565b60608315611f3657829050611feb565b600083511115611f495782518084602001fd5b816040517f08c379a00000000000000000000000000000000000000000000000000000000081526004018080602001828103825283818151815260200191508051906020019080838360005b83811015611fb0578082015181840152602081019050611f95565b50505050905090810190601f168015611fdd5780820380516001836020036101000a031916815260200191505b509250505060405180910390fd5b9392505050565b828054600181600116156101000203166002900490600052602060002090601f016020900481019282612028576000855561206f565b82601f1061204157805160ff191683800117855561206f565b8280016001018555821561206f579182015b8281111561206e578251825591602001919060010190612053565b5b50905061207c9190612080565b5090565b5b80821115612099576000816000905550600101612081565b509056fe596f752063616e27742068617665207468652073616d652061646472657373206173207468652070617965652e416464726573733a20696e73756666696369656e742062616c616e636520666f722063616c6c4f6e6c792074686520706179656520697320616c6c6f77656420746f20636f6d706c657465206a6f622e416d6f756e74206465706f7369746564206d75737420657175616c2070726963652e5361666545524332303a204552433230206f7065726174696f6e20646964206e6f7420737563636565644f6e6c7920746865206a6f622063726561746f722063616e20636f6e6669726d206a6f6220636f6d706c6574696f6e2ea264697066735822122062a01da1350535cf62d5aac82ecc74f974dda8a3d0a686a98d45c4071588087864736f6c63430007060033",
  "immutableReferences": {},
  "source": "// SPDX-License-Identifier: MIT\r\npragma solidity >=0.4.22 <0.9.0;\r\n\r\nimport \"./interfaces/SafeMath.sol\";\r\nimport \"./interfaces/Ownable.sol\";\r\nimport \"./interfaces/UniversalERC20.sol\";\r\nimport \"./Bank.sol\";\r\n\r\ncontract EscrowManager is Ownable {\r\n    using UniversalERC20 for IERC20;\r\n\r\n    /**\r\n     * @dev these are all the states that the job can be in.\r\n     * ESCROW_CREATED_PAYMENT_DEPOSITED is when the job was created and eth deposited into contract\r\n     * JOB_COMPLETED is when the payee confirms that the job has been JOB_COMPLETED\r\n     * PAYMENT_SENT_PAYEE is when the creator confirms job is done and eth is sent to payee\r\n     * DISPUTE is when creator and payee don't agree\r\n     * PAYMENT_SENT_BACK can only be set if the job was in dispute and we think that he needs his money\r\n     * back because the payee didn't do something correctly\r\n     */\r\n    enum State {\r\n        ESCROW_CREATED_PAYMENT_DEPOSITED,\r\n        JOB_COMPLETED,\r\n        PAYMENT_SENT_PAYEE,\r\n        DISPUTE,\r\n        PAYMENT_SENT_CREATOR\r\n    }\r\n\r\n    // the details of the job\r\n    struct EscrowInfo {\r\n        address payable escrowCreator;\r\n        address payable payee;\r\n        string escrowDetails;\r\n        uint256 priceInWei;\r\n        uint256 paidWei;\r\n        bool jobCompletion;\r\n        bool confirmJobCompletion;\r\n        EscrowManager.State state;\r\n    }\r\n\r\n    // default eth address the contract is going to use\r\n    IERC20 private constant ETH_ADDRESS =\r\n        IERC20(0xEeeeeEeeeEeEeeEeEeEeeEEEeeeeEeeeeeeeEEeE);\r\n\r\n    // creates an instance of the bank\r\n    Bank treasury;\r\n\r\n    // used to index each job, each job that is created will increment this by 1\r\n    uint256 index;\r\n\r\n    // used to hold the amount of fees collected (0.5% for each job)\r\n    uint256 public fees;\r\n\r\n    // mapping of the index to the job details\r\n    mapping(uint256 => EscrowInfo) public escrows;\r\n\r\n    /**\r\n     * mapping of each transactions for each index/job.\r\n     * mainly used to keep track of where the money is. if both are at 0,\r\n     * then the funds were returned to creator after dispute.\r\n     */\r\n    mapping(uint256 => mapping(address => uint256)) public transactions;\r\n\r\n    // emits everytime the job state changes\r\n    event JobState(uint256 _jobIndex, uint256 _state);\r\n\r\n    // emits if there is a dispute and has to be mediated\r\n    event JobDispute(uint256 _jobIndex, uint256 _state);\r\n\r\n    /**\r\n     * @dev this function will create the job and accept the deposit from the creator.\r\n     * @param _payee is the person that is going to be paid once job is _completed\r\n     * @param _escrowDetails a description of what the job is\r\n     * @param _priceInWei the price that is going to be deposited and paid to the payee\r\n     */\r\n    function createItemAndDepositFunds(\r\n        address payable _payee,\r\n        string memory _escrowDetails,\r\n        uint256 _priceInWei\r\n    ) external payable {\r\n        require(\r\n            msg.sender != _payee,\r\n            \"You can't have the same address as the payee.\"\r\n        );\r\n        require(msg.value != 0, \"msg.value can not equal 0\");\r\n        require(_priceInWei == msg.value, \"Amount deposited must equal price.\");\r\n\r\n        escrows[index].escrowCreator = payable(msg.sender);\r\n        escrows[index].payee = _payee;\r\n        escrows[index].escrowDetails = _escrowDetails;\r\n        escrows[index].priceInWei = _priceInWei;\r\n        //  NEEDS TO CHANGE // COMMENTED OUT FOR AT MOMENT\r\n        // escrows[index].paidWei = SafeMath.sub(\r\n        //     msg.value,\r\n        //     SafeMath.findFee(msg.value)\r\n        // );\r\n\r\n        // fees = SafeMath.add(fees, SafeMath.findFee(msg.value));\r\n        transactions[index][msg.sender] = escrows[index].paidWei;\r\n        transactions[index][escrows[index].payee] = 0;\r\n        escrows[index].state = State.ESCROW_CREATED_PAYMENT_DEPOSITED;\r\n\r\n        emit JobState(index, uint256(escrows[index].state));\r\n        index++;\r\n    }\r\n\r\n    /**\r\n     * @dev this function will allow the payee to let the creator know they have completed the job.\r\n     * @param _index is the job index\r\n     * @param _completed this will be true if he completed the task and false if he wants to dispute it\r\n     */\r\n    function jobCompletion(uint256 _index, bool _completed) public {\r\n        require(\r\n            escrows[_index].payee == msg.sender,\r\n            \"Only the payee is allowed to complete job.\"\r\n        );\r\n        require(\r\n            escrows[_index].state == State.ESCROW_CREATED_PAYMENT_DEPOSITED,\r\n            \"Job is not at this state yet.\"\r\n        );\r\n\r\n        escrows[_index].jobCompletion = _completed;\r\n\r\n        if (_completed) {\r\n            escrows[_index].state = State.JOB_COMPLETED;\r\n            emit JobState(_index, uint256(escrows[_index].state));\r\n        } else {\r\n            escrows[_index].state = State.DISPUTE;\r\n            emit JobDispute(_index, uint256(escrows[_index].state));\r\n        }\r\n    }\r\n\r\n    /**\r\n     * @dev this function will allow the creator to confirm that the job is complete and then will pay the payee\r\n     * @param _index is the index of the job\r\n     * @param _satisfied this will be true if he is _satisfied and then the funds will be sent to the payee\r\n     * and it will be false if he wants to dispute it.\r\n     */\r\n    function confirmJobCompletion(uint256 _index, bool _satisfied) external {\r\n        require(\r\n            escrows[_index].escrowCreator == msg.sender,\r\n            \"Only the job creator can confirm job completion.\"\r\n        );\r\n        require(\r\n            escrows[_index].state == State.JOB_COMPLETED,\r\n            \"Job is not at this state yet.\"\r\n        );\r\n\r\n        escrows[_index].confirmJobCompletion = _satisfied;\r\n\r\n        if (_satisfied) {\r\n            sendFundsToPayee(_index);\r\n            emit JobState(_index, uint256(escrows[_index].state));\r\n        } else {\r\n            escrows[_index].state = State.DISPUTE;\r\n            emit JobDispute(_index, uint256(escrows[_index].state));\r\n        }\r\n    }\r\n\r\n    /**\r\n     * @dev this function will resolve any dispute that occurs. The owner of the contract will be\r\n     * able to talk to both parties and come up with a decision on who is correct.\r\n     * @param _index this is the index of the job\r\n     * @param _setState is the state that the mediator wants to put the job to\r\n     */\r\n    function resolveDispute(uint256 _index, State _setState)\r\n        external\r\n        onlyOwner\r\n    {\r\n        require(\r\n            escrows[_index].state == State.DISPUTE,\r\n            \"This job is not in dispute.\"\r\n        );\r\n\r\n        if (_setState == State.PAYMENT_SENT_PAYEE) {\r\n            sendFundsToPayee(_index);\r\n            emit JobState(_index, uint256(escrows[_index].state));\r\n        } else if (_setState == State.PAYMENT_SENT_CREATOR) {\r\n            sendFundsToCreator(_index);\r\n            emit JobState(_index, uint256(escrows[_index].state));\r\n        } else {\r\n            escrows[_index].state = _setState;\r\n            emit JobState(_index, uint256(escrows[_index].state));\r\n        }\r\n    }\r\n\r\n    /**\r\n     * @dev this function will set the treasury\r\n     */\r\n    function setTreasury(address payable _treasury) external onlyOwner {\r\n        treasury = Bank(_treasury);\r\n    }\r\n\r\n    /**\r\n     * @dev this function will send funds back to the creator, can only be called\r\n     * inside of another function\r\n     * @param _index is the index of the job\r\n     */\r\n    function sendFundsToCreator(uint256 _index) private {\r\n        require(\r\n            ETH_ADDRESS.universalTransfer(\r\n                escrows[_index].escrowCreator,\r\n                escrows[_index].paidWei\r\n            ),\r\n            \"Transfer didn't complete\"\r\n        );\r\n        transactions[_index][escrows[_index].escrowCreator] = 0;\r\n        escrows[_index].state = State.PAYMENT_SENT_CREATOR;\r\n    }\r\n\r\n    /**\r\n     * @dev this function will send the funds to the payee\r\n     * @param _index is the index of the jobs\r\n     */\r\n    function sendFundsToPayee(uint256 _index) private {\r\n        require(\r\n            ETH_ADDRESS.universalTransfer(\r\n                escrows[_index].payee,\r\n                escrows[_index].paidWei\r\n            ),\r\n            \"Transfer didn't complete.\"\r\n        );\r\n        transactions[_index][escrows[_index].escrowCreator] = 0;\r\n        transactions[_index][escrows[_index].payee] = escrows[_index].paidWei;\r\n        escrows[_index].state = State.PAYMENT_SENT_PAYEE;\r\n    }\r\n\r\n    /**\r\n     * @dev this function will deposit the fees into the treasury\r\n     */\r\n\r\n    // GIVING ME AN ERROR -- NEEDS TO CHANGE\r\n    function depositFees() external onlyOwner {\r\n        // treasury.depositTokens(address(ETH_ADDRESS), fees);\r\n    }\r\n}\r\n",
  "sourcePath": "D:/TGProject/TungstenGroupProject/contracts/EscrowManager.sol",
  "compiler": {
    "name": "solc",
    "version": "0.7.6+commit.7338295f.Emscripten.clang"
  },
  "schemaVersion": "3.3.4",
  "updatedAt": "2021-05-06T11:57:53.720Z",
  "devdoc": {
    "kind": "dev",
    "methods": {
      "confirmJobCompletion(uint256,bool)": {
        "details": "this function will allow the creator to confirm that the job is complete and then will pay the payee",
        "params": {
          "_index": "is the index of the job",
          "_satisfied": "this will be true if he is _satisfied and then the funds will be sent to the payee and it will be false if he wants to dispute it."
        }
      },
      "createItemAndDepositFunds(address,string,uint256)": {
        "details": "this function will create the job and accept the deposit from the creator.",
        "params": {
          "_escrowDetails": "a description of what the job is",
          "_payee": "is the person that is going to be paid once job is _completed",
          "_priceInWei": "the price that is going to be deposited and paid to the payee"
        }
      },
      "depositFees()": {
        "details": "this function will deposit the fees into the treasury"
      },
      "jobCompletion(uint256,bool)": {
        "details": "this function will allow the payee to let the creator know they have completed the job.",
        "params": {
          "_completed": "this will be true if he completed the task and false if he wants to dispute it",
          "_index": "is the job index"
        }
      },
      "resolveDispute(uint256,uint8)": {
        "details": "this function will resolve any dispute that occurs. The owner of the contract will be able to talk to both parties and come up with a decision on who is correct.",
        "params": {
          "_index": "this is the index of the job",
          "_setState": "is the state that the mediator wants to put the job to"
        }
      },
      "setTreasury(address)": {
        "details": "this function will set the treasury"
      }
    },
    "version": 1
  },
  "userdoc": {
    "kind": "user",
    "methods": {
      "transactions(uint256,address)": {
        "notice": "mapping of each transactions for each index/job. mainly used to keep track of where the money is. if both are at 0, then the funds were returned to creator after dispute."
      }
    },
    "version": 1
  }
}