{
  "contractName": "ExchangeOracle",
  "abi": [
    {
      "inputs": [],
      "stateMutability": "nonpayable",
      "type": "constructor"
    },
    {
      "anonymous": false,
      "inputs": [
        {
          "indexed": false,
          "internalType": "address",
          "name": "_previousOwner",
          "type": "address"
        },
        {
          "indexed": true,
          "internalType": "address",
          "name": "_newOwner",
          "type": "address"
        }
      ],
      "name": "OwnershipTransferred",
      "type": "event"
    },
    {
      "inputs": [],
      "name": "USDpriceETH",
      "outputs": [
        {
          "internalType": "uint256",
          "name": "",
          "type": "uint256"
        }
      ],
      "stateMutability": "view",
      "type": "function"
    },
    {
      "inputs": [],
      "name": "_owner",
      "outputs": [
        {
          "internalType": "address",
          "name": "",
          "type": "address"
        }
      ],
      "stateMutability": "view",
      "type": "function"
    },
    {
      "inputs": [
        {
          "internalType": "uint256",
          "name": "",
          "type": "uint256"
        }
      ],
      "name": "devArray",
      "outputs": [
        {
          "internalType": "address",
          "name": "",
          "type": "address"
        }
      ],
      "stateMutability": "view",
      "type": "function"
    },
    {
      "inputs": [
        {
          "internalType": "address",
          "name": "",
          "type": "address"
        }
      ],
      "name": "devBook",
      "outputs": [
        {
          "internalType": "bool",
          "name": "active",
          "type": "bool"
        },
        {
          "internalType": "bool",
          "name": "vote",
          "type": "bool"
        }
      ],
      "stateMutability": "view",
      "type": "function"
    },
    {
      "inputs": [],
      "name": "isOwner",
      "outputs": [
        {
          "internalType": "bool",
          "name": "",
          "type": "bool"
        }
      ],
      "stateMutability": "view",
      "type": "function"
    },
    {
      "inputs": [
        {
          "internalType": "address",
          "name": "_newOwner",
          "type": "address"
        }
      ],
      "name": "transferOwnership",
      "outputs": [],
      "stateMutability": "nonpayable",
      "type": "function"
    },
    {
      "inputs": [
        {
          "internalType": "uint256",
          "name": "_percentage",
          "type": "uint256"
        },
        {
          "internalType": "string",
          "name": "_callingFunctionChange",
          "type": "string"
        }
      ],
      "name": "clearedAction",
      "outputs": [],
      "stateMutability": "nonpayable",
      "type": "function"
    },
    {
      "inputs": [],
      "name": "acceptDev",
      "outputs": [],
      "stateMutability": "nonpayable",
      "type": "function"
    },
    {
      "inputs": [],
      "name": "deleteDev",
      "outputs": [],
      "stateMutability": "nonpayable",
      "type": "function"
    },
    {
      "inputs": [],
      "name": "acceptContract",
      "outputs": [],
      "stateMutability": "nonpayable",
      "type": "function"
    },
    {
      "inputs": [],
      "name": "deleteContract",
      "outputs": [],
      "stateMutability": "nonpayable",
      "type": "function"
    },
    {
      "inputs": [],
      "name": "vote",
      "outputs": [],
      "stateMutability": "nonpayable",
      "type": "function"
    },
    {
      "inputs": [
        {
          "internalType": "bool",
          "name": "_bool",
          "type": "bool"
        },
        {
          "internalType": "string",
          "name": "_proposedChange",
          "type": "string"
        }
      ],
      "name": "proposeBoolChange",
      "outputs": [],
      "stateMutability": "nonpayable",
      "type": "function"
    },
    {
      "inputs": [
        {
          "internalType": "uint256",
          "name": "_percent",
          "type": "uint256"
        },
        {
          "internalType": "string",
          "name": "_proposedChange",
          "type": "string"
        }
      ],
      "name": "boolChange",
      "outputs": [
        {
          "internalType": "bool",
          "name": "",
          "type": "bool"
        }
      ],
      "stateMutability": "nonpayable",
      "type": "function"
    },
    {
      "inputs": [
        {
          "internalType": "uint256",
          "name": "_num",
          "type": "uint256"
        },
        {
          "internalType": "string",
          "name": "_proposedChange",
          "type": "string"
        }
      ],
      "name": "proposeNumberChange",
      "outputs": [],
      "stateMutability": "nonpayable",
      "type": "function"
    },
    {
      "inputs": [
        {
          "internalType": "uint256",
          "name": "_percent",
          "type": "uint256"
        },
        {
          "internalType": "string",
          "name": "_proposedChange",
          "type": "string"
        }
      ],
      "name": "numberChange",
      "outputs": [
        {
          "internalType": "uint256",
          "name": "",
          "type": "uint256"
        }
      ],
      "stateMutability": "nonpayable",
      "type": "function"
    },
    {
      "inputs": [
        {
          "internalType": "address",
          "name": "_address",
          "type": "address"
        },
        {
          "internalType": "string",
          "name": "_proposedChange",
          "type": "string"
        }
      ],
      "name": "proposeAddressChange",
      "outputs": [],
      "stateMutability": "nonpayable",
      "type": "function"
    },
    {
      "inputs": [
        {
          "internalType": "uint256",
          "name": "_percent",
          "type": "uint256"
        },
        {
          "internalType": "string",
          "name": "_proposedChange",
          "type": "string"
        }
      ],
      "name": "addressChange",
      "outputs": [
        {
          "internalType": "address",
          "name": "",
          "type": "address"
        }
      ],
      "stateMutability": "nonpayable",
      "type": "function"
    },
    {
      "inputs": [
        {
          "internalType": "uint256",
          "name": "_amountTier",
          "type": "uint256"
        },
        {
          "internalType": "uint256",
          "name": "_timeTier",
          "type": "uint256"
        },
        {
          "internalType": "uint256",
          "name": "_interest",
          "type": "uint256"
        },
        {
          "internalType": "uint256",
          "name": "_amountStakersLeft",
          "type": "uint256"
        },
        {
          "internalType": "uint256",
          "name": "_tierDuration",
          "type": "uint256"
        },
        {
          "internalType": "string",
          "name": "_proposedChange",
          "type": "string"
        }
      ],
      "name": "proposeTierChange",
      "outputs": [],
      "stateMutability": "nonpayable",
      "type": "function"
    },
    {
      "inputs": [
        {
          "internalType": "uint256",
          "name": "_percent",
          "type": "uint256"
        },
        {
          "internalType": "string",
          "name": "_proposedChange",
          "type": "string"
        }
      ],
      "name": "tierChange",
      "outputs": [
        {
          "internalType": "uint256",
          "name": "",
          "type": "uint256"
        },
        {
          "internalType": "uint256",
          "name": "",
          "type": "uint256"
        },
        {
          "internalType": "uint256",
          "name": "",
          "type": "uint256"
        },
        {
          "internalType": "uint256",
          "name": "",
          "type": "uint256"
        },
        {
          "internalType": "uint256",
          "name": "",
          "type": "uint256"
        }
      ],
      "stateMutability": "nonpayable",
      "type": "function"
    },
    {
      "inputs": [
        {
          "internalType": "uint256",
          "name": "_value",
          "type": "uint256"
        },
        {
          "internalType": "bool",
          "name": "_status",
          "type": "bool"
        },
        {
          "internalType": "address",
          "name": "_tokenAddress",
          "type": "address"
        },
        {
          "internalType": "string",
          "name": "_proposedChange",
          "type": "string"
        }
      ],
      "name": "proposeTokenChange",
      "outputs": [],
      "stateMutability": "nonpayable",
      "type": "function"
    },
    {
      "inputs": [],
      "name": "tokenChange",
      "outputs": [],
      "stateMutability": "nonpayable",
      "type": "function"
    },
    {
      "inputs": [],
      "name": "priceChangeETH",
      "outputs": [],
      "stateMutability": "nonpayable",
      "type": "function"
    },
    {
      "inputs": [],
      "name": "externalOracleChange",
      "outputs": [],
      "stateMutability": "nonpayable",
      "type": "function"
    },
    {
      "inputs": [
        {
          "internalType": "address",
          "name": "_sellTokenAddress",
          "type": "address"
        },
        {
          "internalType": "address",
          "name": "_buyTokenAddress",
          "type": "address"
        }
      ],
      "name": "priceOfPair",
      "outputs": [
        {
          "internalType": "uint256",
          "name": "",
          "type": "uint256"
        },
        {
          "internalType": "uint256",
          "name": "",
          "type": "uint256"
        }
      ],
      "stateMutability": "view",
      "type": "function"
    },
    {
      "inputs": [],
      "name": "priceOfETH",
      "outputs": [
        {
          "internalType": "uint256",
          "name": "",
          "type": "uint256"
        }
      ],
      "stateMutability": "view",
      "type": "function"
    },
    {
      "inputs": [
        {
          "internalType": "address",
          "name": "_tokenAddress",
          "type": "address"
        }
      ],
      "name": "priceOfToken",
      "outputs": [
        {
          "internalType": "uint256",
          "name": "",
          "type": "uint256"
        }
      ],
      "stateMutability": "view",
      "type": "function"
    }
  ],
  "bytecode": "0x60806040523480156200001157600080fd5b50336000806101000a81548173ffffffffffffffffffffffffffffffffffffffff021916908373ffffffffffffffffffffffffffffffffffffffff1602179055506040518060400160405280670de0b6b3a7640000815260200160011515815250600e600073eeeeeeeeeeeeeeeeeeeeeeeeeeeeeeeeeeeeeeee73ffffffffffffffffffffffffffffffffffffffff1673ffffffffffffffffffffffffffffffffffffffff1681526020019081526020016000206000820151816000015560208201518160010160006101000a81548160ff0219169083151502179055509050506040518060400160405280653034062c5000815260200160011515815250600e600073c778417e063141139fce010982780140aa0cd5ab73ffffffffffffffffffffffffffffffffffffffff1673ffffffffffffffffffffffffffffffffffffffff1681526020019081526020016000206000820151816000015560208201518160010160006101000a81548160ff0219169083151502179055509050506040518060400160405280653034062c5000815260200160011515815250600e600073433c6e3d2def6e1fb414cf9448724efb0399b69873ffffffffffffffffffffffffffffffffffffffff1673ffffffffffffffffffffffffffffffffffffffff1681526020019081526020016000206000820151816000015560208201518160010160006101000a81548160ff0219169083151502179055509050506040518060400160405280735b38da6a701c568545dcfcb03fcb875f56beddc473ffffffffffffffffffffffffffffffffffffffff1673ffffffffffffffffffffffffffffffffffffffff16815260200173ab8483f64d9c6d1ecf9b849ae677dd3315835cb273ffffffffffffffffffffffffffffffffffffffff1673ffffffffffffffffffffffffffffffffffffffff168152506002906002620002d5929190620003c2565b506001806000735b38da6a701c568545dcfcb03fcb875f56beddc473ffffffffffffffffffffffffffffffffffffffff1673ffffffffffffffffffffffffffffffffffffffff16815260200190815260200160002060000160006101000a81548160ff021916908315150217905550600180600073ab8483f64d9c6d1ecf9b849ae677dd3315835cb273ffffffffffffffffffffffffffffffffffffffff1673ffffffffffffffffffffffffffffffffffffffff16815260200190815260200160002060000160006101000a81548160ff02191690831515021790555062030d40600d8190555062000470565b8280548282559060005260206000209081019282156200043e579160200282015b828111156200043d5782518260006101000a81548173ffffffffffffffffffffffffffffffffffffffff021916908373ffffffffffffffffffffffffffffffffffffffff16021790555091602001919060010190620003e3565b5b5090506200044d919062000451565b5090565b5b808211156200046c57600081600090555060010162000452565b5090565b6132bb80620004806000396000f3fe608060405234801561001057600080fd5b50600436106101a95760003560e01c8063632a9a52116100f9578063b610e77411610097578063d26850e111610071578063d26850e114610c08578063dd118d6614610c12578063f2fde38b14610c6a578063f3167c0514610cae576101a9565b8063b610e77414610ac2578063b738f88314610b9b578063c997afc214610ba5576101a9565b8063858b033d116100d3578063858b033d14610a325780638f32d59b14610a505780639506c89614610a70578063b2bdfa7b14610a8e576101a9565b8063632a9a52146109435780637a62f51e1461094d5780637e046fa814610a28576101a9565b8063388df741116101665780635522d3c2116101405780635522d3c2146108605780635a58cd4c1461086a578063619d26711461087457806361b47ee51461087e576101a9565b8063388df741146106015780633a7a2a06146106f257806345d4671f14610771576101a9565b80630caa47c1146101ae5780630db349bc14610275578063151ee3af146103625780631f61a3ef14610457578063239df3891461046157806335885ac814610526575b600080fd5b610273600480360360408110156101c457600080fd5b81019080803515159060200190929190803590602001906401000000008111156101ed57600080fd5b8201836020820111156101ff57600080fd5b8035906020019184600183028401116401000000008311171561022157600080fd5b91908080601f016020809104026020016040519081016040528093929190818152602001838380828437600081840152601f19601f820116905080830192505050505050509192919290505050610d06565b005b610360600480360360c081101561028b57600080fd5b810190808035906020019092919080359060200190929190803590602001909291908035906020019092919080359060200190929190803590602001906401000000008111156102da57600080fd5b8201836020820111156102ec57600080fd5b8035906020019184600183028401116401000000008311171561030e57600080fd5b91908080601f016020809104026020016040519081016040528093929190818152602001838380828437600081840152601f19601f820116905080830192505050505050509192919290505050610ef9565b005b6104256004803603604081101561037857600080fd5b81019080803590602001909291908035906020019064010000000081111561039f57600080fd5b8201836020820111156103b157600080fd5b803590602001918460018302840111640100000000831117156103d357600080fd5b91908080601f016020809104026020016040519081016040528093929190818152602001838380828437600081840152601f19601f820116905080830192505050505050509192919290505050610feb565b604051808681526020018581526020018481526020018381526020018281526020019550505050505060405180910390f35b61045f6110cb565b005b6105246004803603604081101561047757600080fd5b81019080803590602001909291908035906020019064010000000081111561049e57600080fd5b8201836020820111156104b057600080fd5b803590602001918460018302840111640100000000831117156104d257600080fd5b91908080601f016020809104026020016040519081016040528093929190818152602001838380828437600081840152601f19601f82011690508083019250505050505050919291929050505061127e565b005b6105ff6004803603604081101561053c57600080fd5b81019080803573ffffffffffffffffffffffffffffffffffffffff1690602001909291908035906020019064010000000081111561057957600080fd5b82018360208201111561058b57600080fd5b803590602001918460018302840111640100000000831117156105ad57600080fd5b91908080601f016020809104026020016040519081016040528093929190818152602001838380828437600081840152601f19601f82011690508083019250505050505050919291929050505061145e565b005b6106f06004803603608081101561061757600080fd5b8101908080359060200190929190803515159060200190929190803573ffffffffffffffffffffffffffffffffffffffff1690602001909291908035906020019064010000000081111561066a57600080fd5b82018360208201111561067c57600080fd5b8035906020019184600183028401116401000000008311171561069e57600080fd5b91908080601f016020809104026020016040519081016040528093929190818152602001838380828437600081840152601f19601f820116905080830192505050505050509192919290505050611678565b005b6107546004803603604081101561070857600080fd5b81019080803573ffffffffffffffffffffffffffffffffffffffff169060200190929190803573ffffffffffffffffffffffffffffffffffffffff1690602001909291905050506118b5565b604051808381526020018281526020019250505060405180910390f35b6108346004803603604081101561078757600080fd5b8101908080359060200190929190803590602001906401000000008111156107ae57600080fd5b8201836020820111156107c057600080fd5b803590602001918460018302840111640100000000831117156107e257600080fd5b91908080601f016020809104026020016040519081016040528093929190818152602001838380828437600081840152601f19601f820116905080830192505050505050509192919290505050611b96565b604051808273ffffffffffffffffffffffffffffffffffffffff16815260200191505060405180910390f35b610868611c78565b005b610872611e7e565b005b61087c612048565b005b6109416004803603604081101561089457600080fd5b8101908080359060200190929190803590602001906401000000008111156108bb57600080fd5b8201836020820111156108cd57600080fd5b803590602001918460018302840111640100000000831117156108ef57600080fd5b91908080601f016020809104026020016040519081016040528093929190818152602001838380828437600081840152601f19601f820116905080830192505050505050509192919290505050612212565b005b61094b6125cf565b005b610a106004803603604081101561096357600080fd5b81019080803590602001909291908035906020019064010000000081111561098a57600080fd5b82018360208201111561099c57600080fd5b803590602001918460018302840111640100000000831117156109be57600080fd5b91908080601f016020809104026020016040519081016040528093929190818152602001838380828437600081840152601f19601f820116905080830192505050505050509192919290505050612739565b60405180821515815260200191505060405180910390f35b610a30612808565b005b610a3a612a1a565b6040518082815260200191505060405180910390f35b610a58612a24565b60405180821515815260200191505060405180910390f35b610a78612a7b565b6040518082815260200191505060405180910390f35b610a96612a81565b604051808273ffffffffffffffffffffffffffffffffffffffff16815260200191505060405180910390f35b610b8560048036036040811015610ad857600080fd5b810190808035906020019092919080359060200190640100000000811115610aff57600080fd5b820183602082011115610b1157600080fd5b80359060200191846001830284011164010000000083111715610b3357600080fd5b91908080601f016020809104026020016040519081016040528093929190818152602001838380828437600081840152601f19601f820116905080830192505050505050509192919290505050612aa5565b6040518082815260200191505060405180910390f35b610ba3612b67565b005b610be760048036036020811015610bbb57600080fd5b81019080803573ffffffffffffffffffffffffffffffffffffffff169060200190929190505050612d17565b60405180831515815260200182151581526020019250505060405180910390f35b610c10612d55565b005b610c3e60048036036020811015610c2857600080fd5b8101908080359060200190929190505050612eae565b604051808273ffffffffffffffffffffffffffffffffffffffff16815260200191505060405180910390f35b610cac60048036036020811015610c8057600080fd5b81019080803573ffffffffffffffffffffffffffffffffffffffff169060200190929190505050612eed565b005b610cf060048036036020811015610cc457600080fd5b81019080803573ffffffffffffffffffffffffffffffffffffffff169060200190929190505050613028565b6040518082815260200191505060405180910390f35b600080600090505b600280549050811015610d985760028181548110610d2857fe5b9060005260206000200160009054906101000a900473ffffffffffffffffffffffffffffffffffffffff1673ffffffffffffffffffffffffffffffffffffffff163373ffffffffffffffffffffffffffffffffffffffff161415610d8b57600191505b8080600101915050610d0e565b506001151581151514610e13576040517f08c379a00000000000000000000000000000000000000000000000000000000081526004018080602001828103825260188152602001807f43616c6c6572206e6565647320746f206265206120646576000000000000000081525060200191505060405180910390fd5b60005b600280549050811015610ec25760006001600060028481548110610e3657fe5b9060005260206000200160009054906101000a900473ffffffffffffffffffffffffffffffffffffffff1673ffffffffffffffffffffffffffffffffffffffff1673ffffffffffffffffffffffffffffffffffffffff16815260200190815260200160002060000160016101000a81548160ff0219169083151502179055508080600101915050610e16565b5082600c60006101000a81548160ff0219169083151502179055508160059080519060200190610ef39291906131ac565b50505050565b60005b600280549050811015610fa85760006001600060028481548110610f1c57fe5b9060005260206000200160009054906101000a900473ffffffffffffffffffffffffffffffffffffffff1673ffffffffffffffffffffffffffffffffffffffff1673ffffffffffffffffffffffffffffffffffffffff16815260200190815260200160002060000160016101000a81548160ff0219169083151502179055508080600101915050610efc565b508560068190555084600781905550836008819055508260098190555081600a819055508060059080519060200190610fe29291906131ac565b50505050505050565b60008060008060008060011515600360003373ffffffffffffffffffffffffffffffffffffffff1673ffffffffffffffffffffffffffffffffffffffff16815260200190815260200160002060009054906101000a900460ff1615151461109d576040517f08c379a000000000000000000000000000000000000000000000000000000000815260040180806020018281038252602e815260200180613258602e913960400191505060405180910390fd5b6110a78888612212565b600654600754600854600954600a5495509550955095509550509295509295909350565b600080600090505b60028054905081101561115d57600281815481106110ed57fe5b9060005260206000200160009054906101000a900473ffffffffffffffffffffffffffffffffffffffff1673ffffffffffffffffffffffffffffffffffffffff163373ffffffffffffffffffffffffffffffffffffffff16141561115057600191505b80806001019150506110d3565b5060011515811515146111d8576040517f08c379a00000000000000000000000000000000000000000000000000000000081526004018080602001828103825260188152602001807f43616c6c6572206e6565647320746f206265206120646576000000000000000081525060200191505060405180910390fd5b61121860326040518060400160405280600981526020017f7570646174654554480000000000000000000000000000000000000000000000815250612212565b600460009054906101000a900473ffffffffffffffffffffffffffffffffffffffff16600c60016101000a81548173ffffffffffffffffffffffffffffffffffffffff021916908373ffffffffffffffffffffffffffffffffffffffff16021790555050565b600080600090505b60028054905081101561131057600281815481106112a057fe5b9060005260206000200160009054906101000a900473ffffffffffffffffffffffffffffffffffffffff1673ffffffffffffffffffffffffffffffffffffffff163373ffffffffffffffffffffffffffffffffffffffff16141561130357600191505b8080600101915050611286565b50600115158115151461138b576040517f08c379a00000000000000000000000000000000000000000000000000000000081526004018080602001828103825260188152602001807f43616c6c6572206e6565647320746f206265206120646576000000000000000081525060200191505060405180910390fd5b60005b60028054905081101561143a57600060016000600284815481106113ae57fe5b9060005260206000200160009054906101000a900473ffffffffffffffffffffffffffffffffffffffff1673ffffffffffffffffffffffffffffffffffffffff1673ffffffffffffffffffffffffffffffffffffffff16815260200190815260200160002060000160016101000a81548160ff021916908315150217905550808060010191505061138e565b508260068190555081600590805190602001906114589291906131ac565b50505050565b600080600090505b6002805490508110156114f0576002818154811061148057fe5b9060005260206000200160009054906101000a900473ffffffffffffffffffffffffffffffffffffffff1673ffffffffffffffffffffffffffffffffffffffff163373ffffffffffffffffffffffffffffffffffffffff1614156114e357600191505b8080600101915050611466565b50600115158115151461156b576040517f08c379a00000000000000000000000000000000000000000000000000000000081526004018080602001828103825260188152602001807f43616c6c6572206e6565647320746f206265206120646576000000000000000081525060200191505060405180910390fd5b60005b60028054905081101561161a576000600160006002848154811061158e57fe5b9060005260206000200160009054906101000a900473ffffffffffffffffffffffffffffffffffffffff1673ffffffffffffffffffffffffffffffffffffffff1673ffffffffffffffffffffffffffffffffffffffff16815260200190815260200160002060000160016101000a81548160ff021916908315150217905550808060010191505061156e565b5082600460006101000a81548173ffffffffffffffffffffffffffffffffffffffff021916908373ffffffffffffffffffffffffffffffffffffffff16021790555081600590805190602001906116729291906131ac565b50505050565b600080600090505b60028054905081101561170a576002818154811061169a57fe5b9060005260206000200160009054906101000a900473ffffffffffffffffffffffffffffffffffffffff1673ffffffffffffffffffffffffffffffffffffffff163373ffffffffffffffffffffffffffffffffffffffff1614156116fd57600191505b8080600101915050611680565b506001151581151514611785576040517f08c379a00000000000000000000000000000000000000000000000000000000081526004018080602001828103825260188152602001807f43616c6c6572206e6565647320746f206265206120646576000000000000000081525060200191505060405180910390fd5b60005b60028054905081101561183457600060016000600284815481106117a857fe5b9060005260206000200160009054906101000a900473ffffffffffffffffffffffffffffffffffffffff1673ffffffffffffffffffffffffffffffffffffffff1673ffffffffffffffffffffffffffffffffffffffff16815260200190815260200160002060000160016101000a81548160ff0219169083151502179055508080600101915050611788565b508460068190555083600c60006101000a81548160ff02191690831515021790555082600460006101000a81548173ffffffffffffffffffffffffffffffffffffffff021916908373ffffffffffffffffffffffffffffffffffffffff16021790555081600590805190602001906118ad9291906131ac565b505050505050565b600080600080600e60008773ffffffffffffffffffffffffffffffffffffffff1673ffffffffffffffffffffffffffffffffffffffff16815260200190815260200160002060010160009054906101000a900460ff161561195a57600e60008773ffffffffffffffffffffffffffffffffffffffff1673ffffffffffffffffffffffffffffffffffffffff168152602001908152602001600020600001549150611a21565b600c60019054906101000a900473ffffffffffffffffffffffffffffffffffffffff1673ffffffffffffffffffffffffffffffffffffffff1663729f20c7876040518263ffffffff1660e01b8152600401808273ffffffffffffffffffffffffffffffffffffffff16815260200191505060206040518083038186803b1580156119e357600080fd5b505afa1580156119f7573d6000803e3d6000fd5b505050506040513d6020811015611a0d57600080fd5b810190808051906020019092919050505091505b600e60008673ffffffffffffffffffffffffffffffffffffffff1673ffffffffffffffffffffffffffffffffffffffff16815260200190815260200160002060010160009054906101000a900460ff1615611ac057600e60008673ffffffffffffffffffffffffffffffffffffffff1673ffffffffffffffffffffffffffffffffffffffff168152602001908152602001600020600001549050611b87565b600c60019054906101000a900473ffffffffffffffffffffffffffffffffffffffff1673ffffffffffffffffffffffffffffffffffffffff1663729f20c7866040518263ffffffff1660e01b8152600401808273ffffffffffffffffffffffffffffffffffffffff16815260200191505060206040518083038186803b158015611b4957600080fd5b505afa158015611b5d573d6000803e3d6000fd5b505050506040513d6020811015611b7357600080fd5b810190808051906020019092919050505090505b81819350935050509250929050565b60008060011515600360003373ffffffffffffffffffffffffffffffffffffffff1673ffffffffffffffffffffffffffffffffffffffff16815260200190815260200160002060009054906101000a900460ff16151514611c42576040517f08c379a000000000000000000000000000000000000000000000000000000000815260040180806020018281038252602e815260200180613258602e913960400191505060405180910390fd5b611c4c8484612212565b600460009054906101000a900473ffffffffffffffffffffffffffffffffffffffff1691505092915050565b600080600090505b600280549050811015611d0a5760028181548110611c9a57fe5b9060005260206000200160009054906101000a900473ffffffffffffffffffffffffffffffffffffffff1673ffffffffffffffffffffffffffffffffffffffff163373ffffffffffffffffffffffffffffffffffffffff161415611cfd57600191505b8080600101915050611c80565b506001151581151514611d85576040517f08c379a00000000000000000000000000000000000000000000000000000000081526004018080602001828103825260188152602001807f43616c6c6572206e6565647320746f206265206120646576000000000000000081525060200191505060405180910390fd5b611dc560326040518060400160405280600b81526020017f757064617465546f6b656e000000000000000000000000000000000000000000815250612212565b60405180604001604052806006548152602001600c60009054906101000a900460ff161515815250600e6000600460009054906101000a900473ffffffffffffffffffffffffffffffffffffffff1673ffffffffffffffffffffffffffffffffffffffff1673ffffffffffffffffffffffffffffffffffffffff1681526020019081526020016000206000820151816000015560208201518160010160006101000a81548160ff02191690831515021790555090505050565b600080600090505b600280549050811015611f105760028181548110611ea057fe5b9060005260206000200160009054906101000a900473ffffffffffffffffffffffffffffffffffffffff1673ffffffffffffffffffffffffffffffffffffffff163373ffffffffffffffffffffffffffffffffffffffff161415611f0357600191505b8080600101915050611e86565b506001151581151514611f8b576040517f08c379a00000000000000000000000000000000000000000000000000000000081526004018080602001828103825260188152602001807f43616c6c6572206e6565647320746f206265206120646576000000000000000081525060200191505060405180910390fd5b611fcb60506040518060400160405280600e81526020017f64656c657465436f6e7472616374000000000000000000000000000000000000815250612212565b600060036000600460009054906101000a900473ffffffffffffffffffffffffffffffffffffffff1673ffffffffffffffffffffffffffffffffffffffff1673ffffffffffffffffffffffffffffffffffffffff16815260200190815260200160002060006101000a81548160ff02191690831515021790555050565b600080600090505b6002805490508110156120da576002818154811061206a57fe5b9060005260206000200160009054906101000a900473ffffffffffffffffffffffffffffffffffffffff1673ffffffffffffffffffffffffffffffffffffffff163373ffffffffffffffffffffffffffffffffffffffff1614156120cd57600191505b8080600101915050612050565b506001151581151514612155576040517f08c379a00000000000000000000000000000000000000000000000000000000081526004018080602001828103825260188152602001807f43616c6c6572206e6565647320746f206265206120646576000000000000000081525060200191505060405180910390fd5b61219560506040518060400160405280600e81526020017f616363657074436f6e7472616374000000000000000000000000000000000000815250612212565b600160036000600460009054906101000a900473ffffffffffffffffffffffffffffffffffffffff1673ffffffffffffffffffffffffffffffffffffffff1673ffffffffffffffffffffffffffffffffffffffff16815260200190815260200160002060006101000a81548160ff02191690831515021790555050565b600080600080600090505b6002805490508110156124055760011515600160006002848154811061223f57fe5b9060005260206000200160009054906101000a900473ffffffffffffffffffffffffffffffffffffffff1673ffffffffffffffffffffffffffffffffffffffff1673ffffffffffffffffffffffffffffffffffffffff16815260200190815260200160002060000160019054906101000a900460ff16151514801561234e57506001151560016000600284815481106122d457fe5b9060005260206000200160009054906101000a900473ffffffffffffffffffffffffffffffffffffffff1673ffffffffffffffffffffffffffffffffffffffff1673ffffffffffffffffffffffffffffffffffffffff16815260200190815260200160002060000160009054906101000a900460ff161515145b1561235c5783806001019450505b60011515600160006002848154811061237157fe5b9060005260206000200160009054906101000a900473ffffffffffffffffffffffffffffffffffffffff1673ffffffffffffffffffffffffffffffffffffffff1673ffffffffffffffffffffffffffffffffffffffff16815260200190815260200160002060000160009054906101000a900460ff16151514156123f85782806001019350505b808060010191505061221d565b5061241283606484613195565b90508481101561242157600080fd5b836040516020018082805190602001908083835b602083106124585780518252602082019150602081019050602083039250612435565b6001836020036101000a03801982511681845116808217855250505050505090500191505060405160208183030381529060405280519060200120600560405160200180828054600181600116156101000203166002900480156124f35780601f106124d15761010080835404028352918201916124f3565b820191906000526020600020905b8154815290600101906020018083116124df575b5050915050604051602081830303815290604052805190602001201461251857600080fd5b60005b6002805490508110156125c7576000600160006002848154811061253b57fe5b9060005260206000200160009054906101000a900473ffffffffffffffffffffffffffffffffffffffff1673ffffffffffffffffffffffffffffffffffffffff1673ffffffffffffffffffffffffffffffffffffffff16815260200190815260200160002060000160016101000a81548160ff021916908315150217905550808060010191505061251b565b505050505050565b600080600090505b60028054905081101561266157600281815481106125f157fe5b9060005260206000200160009054906101000a900473ffffffffffffffffffffffffffffffffffffffff1673ffffffffffffffffffffffffffffffffffffffff163373ffffffffffffffffffffffffffffffffffffffff16141561265457600191505b80806001019150506125d7565b5060011515811515146126dc576040517f08c379a00000000000000000000000000000000000000000000000000000000081526004018080602001828103825260188152602001807f43616c6c6572206e6565647320746f206265206120646576000000000000000081525060200191505060405180910390fd5b60018060003373ffffffffffffffffffffffffffffffffffffffff1673ffffffffffffffffffffffffffffffffffffffff16815260200190815260200160002060000160016101000a81548160ff02191690831515021790555050565b60008060011515600360003373ffffffffffffffffffffffffffffffffffffffff1673ffffffffffffffffffffffffffffffffffffffff16815260200190815260200160002060009054906101000a900460ff161515146127e5576040517f08c379a000000000000000000000000000000000000000000000000000000000815260040180806020018281038252602e815260200180613258602e913960400191505060405180910390fd5b6127ef8484612212565b600c60009054906101000a900460ff1691505092915050565b600080600090505b60028054905081101561289a576002818154811061282a57fe5b9060005260206000200160009054906101000a900473ffffffffffffffffffffffffffffffffffffffff1673ffffffffffffffffffffffffffffffffffffffff163373ffffffffffffffffffffffffffffffffffffffff16141561288d57600191505b8080600101915050612810565b506001151581151514612915576040517f08c379a00000000000000000000000000000000000000000000000000000000081526004018080602001828103825260188152602001807f43616c6c6572206e6565647320746f206265206120646576000000000000000081525060200191505060405180910390fd5b600061295760506040518060400160405280600981526020017f6163636570744465760000000000000000000000000000000000000000000000815250611b96565b90506002819080600181540180825580915050600190039060005260206000200160009091909190916101000a81548173ffffffffffffffffffffffffffffffffffffffff021916908373ffffffffffffffffffffffffffffffffffffffff16021790555060018060008373ffffffffffffffffffffffffffffffffffffffff1673ffffffffffffffffffffffffffffffffffffffff16815260200190815260200160002060000160006101000a81548160ff0219169083151502179055505050565b6000600d54905090565b60008060009054906101000a900473ffffffffffffffffffffffffffffffffffffffff1673ffffffffffffffffffffffffffffffffffffffff163373ffffffffffffffffffffffffffffffffffffffff1614905090565b600d5481565b60008054906101000a900473ffffffffffffffffffffffffffffffffffffffff1681565b60008060011515600360003373ffffffffffffffffffffffffffffffffffffffff1673ffffffffffffffffffffffffffffffffffffffff16815260200190815260200160002060009054906101000a900460ff16151514612b51576040517f08c379a000000000000000000000000000000000000000000000000000000000815260040180806020018281038252602e815260200180613258602e913960400191505060405180910390fd5b612b5b8484612212565b60065491505092915050565b600080600090505b600280549050811015612bf95760028181548110612b8957fe5b9060005260206000200160009054906101000a900473ffffffffffffffffffffffffffffffffffffffff1673ffffffffffffffffffffffffffffffffffffffff163373ffffffffffffffffffffffffffffffffffffffff161415612bec57600191505b8080600101915050612b6f565b506001151581151514612c74576040517f08c379a00000000000000000000000000000000000000000000000000000000081526004018080602001828103825260188152602001807f43616c6c6572206e6565647320746f206265206120646576000000000000000081525060200191505060405180910390fd5b6000612cb660506040518060400160405280600981526020017f64656c6574654465760000000000000000000000000000000000000000000000815250611b96565b90506000600160008373ffffffffffffffffffffffffffffffffffffffff1673ffffffffffffffffffffffffffffffffffffffff16815260200190815260200160002060000160006101000a81548160ff0219169083151502179055505050565b60016020528060005260406000206000915090508060000160009054906101000a900460ff16908060000160019054906101000a900460ff16905082565b600080600090505b600280549050811015612de75760028181548110612d7757fe5b9060005260206000200160009054906101000a900473ffffffffffffffffffffffffffffffffffffffff1673ffffffffffffffffffffffffffffffffffffffff163373ffffffffffffffffffffffffffffffffffffffff161415612dda57600191505b8080600101915050612d5d565b506001151581151514612e62576040517f08c379a00000000000000000000000000000000000000000000000000000000081526004018080602001828103825260188152602001807f43616c6c6572206e6565647320746f206265206120646576000000000000000081525060200191505060405180910390fd5b612ea260326040518060400160405280600981526020017f7570646174654554480000000000000000000000000000000000000000000000815250612212565b600654600d8190555050565b60028181548110612ebe57600080fd5b906000526020600020016000915054906101000a900473ffffffffffffffffffffffffffffffffffffffff1681565b612ef5612a24565b612f67576040517f08c379a00000000000000000000000000000000000000000000000000000000081526004018080602001828103825260168152602001807f596f7520617265206e6f7420746865206f776e65722e0000000000000000000081525060200191505060405180910390fd5b600073ffffffffffffffffffffffffffffffffffffffff168173ffffffffffffffffffffffffffffffffffffffff161415612fa157600080fd5b8073ffffffffffffffffffffffffffffffffffffffff167f8be0079c531659141344cd1fd0a4f28419497f9722a3daafe3b4186f6b6457e060008054906101000a900473ffffffffffffffffffffffffffffffffffffffff16604051808273ffffffffffffffffffffffffffffffffffffffff16815260200191505060405180910390a250565b6000600e60008373ffffffffffffffffffffffffffffffffffffffff1673ffffffffffffffffffffffffffffffffffffffff16815260200190815260200160002060010160009054906101000a900460ff16156130c957600e60008373ffffffffffffffffffffffffffffffffffffffff1673ffffffffffffffffffffffffffffffffffffffff168152602001908152602001600020600001549050613190565b600c60019054906101000a900473ffffffffffffffffffffffffffffffffffffffff1673ffffffffffffffffffffffffffffffffffffffff1663729f20c7836040518263ffffffff1660e01b8152600401808273ffffffffffffffffffffffffffffffffffffffff16815260200191505060206040518083038186803b15801561315257600080fd5b505afa158015613166573d6000803e3d6000fd5b505050506040513d602081101561317c57600080fd5b810190808051906020019092919050505090505b919050565b600081838502816131a257fe5b0490509392505050565b828054600181600116156101000203166002900490600052602060002090601f0160209004810192826131e25760008555613229565b82601f106131fb57805160ff1916838001178555613229565b82800160010185558215613229579182015b8281111561322857825182559160200191906001019061320d565b5b509050613236919061323a565b5090565b5b8082111561325357600081600090555060010161323b565b509056fe5468697320636f6e74726163742063616e7420696e746572616374207769746820746865206465762070616e656ca2646970667358221220efe7b589ae4491411754cd767145592134f631ad58d215572a57add30aefbebe64736f6c63430007060033",
  "immutableReferences": {},
  "source": "// SPDX-License-Identifier: MIT\npragma solidity >=0.4.22 <0.9.0;\n\nimport \"./interfaces/Ownable.sol\";\nimport \"./interfaces/SafeMath.sol\";\nimport \"./ExternalOracle.sol\";\n\ncontract ExchangeOracle is Ownable {\n    // **************************************** DEV VOTE ***************************************\n    /**\n     * @dev Struct saves information on dev's current vote and status. False denotes that dev\n     * wont be included in total tally for votes and vote wont count towards any change\n     * @notice Activating a dev's status can only occur under dev vote\n     */\n    struct Dev {\n        bool active;\n        bool vote;\n    }\n    /**\n     * @dev Mapping key value address (developer) returns Dev struct information for dev\n     */\n    mapping(address => Dev) public devBook;\n\n    /**\n     * @dev Array used to access the address of all developers on Cobalt\n     */\n    address[] public devArray;\n\n    /**\n     * @dev Mapping key value address (Contract address) returns a bool on contract entry\n     * status. True - valid entry, False - not permitted.\n     */\n    mapping(address => bool) contractSupported;\n\n    /**\n     * @dev List all variables proposed for changes.\n     */\n    address addressProposed;\n    string proposedChange;\n    uint256 intProposed;\n    uint256 intProposed2;\n    uint256 intProposed3;\n    uint256 intProposed4;\n    uint256 intProposed5;\n    uint256 intProposed6;\n    bool boolProposed;\n\n    /**\n     * @dev Modifier limits the entry of contracts interacting with the dev panel.\n     */\n    modifier validEntry {\n        bool cleared;\n        require(\n            contractSupported[msg.sender] == true,\n            \"This contract cant interact with the dev panel\"\n        );\n        _;\n    }\n\n    /**\n     * @dev Modifier limits the entry of user addresses interacting with the dev panel.\n     */\n    modifier onlyDev {\n        bool cleared;\n\n        for (uint256 i = 0; i < devArray.length; i++) {\n            if (msg.sender == devArray[i]) {\n                cleared = true;\n            }\n        }\n\n        require(cleared == true, \"Caller needs to be a dev\");\n        _;\n    }\n\n    /**\n     * @dev Function takes a set percentage and string set by the contract making the call\n     * with information on percentage needed for change to occur and string of the calling\n     * function. Reverts if percentage is not met or calling function was does not coincide\n     * with the one agreed for the change.\n     * @param _percentage percent needed for change to be approved.\n     * @param _callingFunctionChange string of asking for clearance\n     * @notice On successful run, function also resets all dev votes to false\n     */\n    function clearedAction(\n        uint256 _percentage,\n        string memory _callingFunctionChange\n    ) public {\n        uint256 votes;\n        uint256 totalVotes;\n        uint256 votePercentage;\n\n        for (uint256 i = 0; i < devArray.length; i++) {\n            if (\n                devBook[devArray[i]].vote == true &&\n                devBook[devArray[i]].active == true\n            ) {\n                votes++;\n            }\n            if (devBook[devArray[i]].active == true) {\n                totalVotes++;\n            }\n        }\n\n        votePercentage = SafeMath.multiply(votes, 100, totalVotes);\n        require(votePercentage >= _percentage);\n        require(\n            keccak256(abi.encodePacked(proposedChange)) ==\n                keccak256(abi.encodePacked(_callingFunctionChange))\n        );\n\n        for (uint256 i = 0; i < devArray.length; i++) {\n            devBook[devArray[i]].vote = false;\n        }\n    }\n\n    /**\n     * @dev Function accepts a proposed address for a new dev addition. This dev gets added\n     * to the dev array as well as turned as active as default.\n     */\n    function acceptDev() public onlyDev {\n        address newDev = addressChange(80, \"acceptDev\");\n        devArray.push(newDev);\n        devBook[newDev].active = true;\n    }\n\n    /**\n     * @dev Function deactivates the active status for a developer.\n     */\n    function deleteDev() public onlyDev {\n        address status = addressChange(80, \"deleteDev\");\n        devBook[status].active = false;\n    }\n\n    /**\n     * @dev Function activates a new contract address as entry point.\n     */\n    function acceptContract() public onlyDev {\n        clearedAction(80, \"acceptContract\");\n        contractSupported[addressProposed] = true;\n    }\n\n    /**\n     * @dev Function deactivates an existing contract address as entry point.\n     */\n    function deleteContract() public onlyDev {\n        clearedAction(80, \"deleteContract\");\n        contractSupported[addressProposed] = false;\n    }\n\n    /**\n     * @dev Function stores the dev's vote for the current proposed change.\n     * @notice We dont limit vote to only active devs as their votes dont get added\n     * to the total tally during clearedAction function.\n     */\n    function vote() public onlyDev {\n        devBook[msg.sender].vote = true;\n    }\n\n    /**\n     * @dev Resets all the dev contract votes to false and takes a parameter bool as\n     * the new proposed change. The string of the function accepting this change must also\n     * be parsed in.\n     * @param _bool proposed change on function output\n     * @param _proposedChange string cointaining information on permitted function accessing\n     * the boolChange function.\n     */\n    function proposeBoolChange(bool _bool, string memory _proposedChange)\n        public\n        onlyDev\n    {\n        for (uint256 i = 0; i < devArray.length; i++) {\n            devBook[devArray[i]].vote = false;\n        }\n        boolProposed = _bool;\n        proposedChange = _proposedChange;\n    }\n\n    /**\n     * @dev Function outputs the current bool proposed as function output to a valid\n     * entry contract. The contract will also specify its own name to limit changes\n     * on other functions and increase security.\n     * @param _percent percent needed for change to be approved.\n     * @param _proposedChange string of the calling function.\n     * @return new bool value proposed\n     */\n    function boolChange(uint256 _percent, string memory _proposedChange)\n        public\n        validEntry\n        returns (bool)\n    {\n        clearedAction(_percent, _proposedChange);\n\n        return (boolProposed);\n    }\n\n    /**\n     * @dev Resets all the dev contract votes to false and takes a parameter uint as\n     * the new proposed change. The string of the function accepting this change must also\n     * be parsed in.\n     * @param _num proposed change on function output\n     * @param _proposedChange string cointaining information on permitted function accessing\n     * the numChange function.\n     */\n    function proposeNumberChange(uint256 _num, string memory _proposedChange)\n        public\n        onlyDev\n    {\n        for (uint256 i = 0; i < devArray.length; i++) {\n            devBook[devArray[i]].vote = false;\n        }\n        intProposed = _num;\n        proposedChange = _proposedChange;\n    }\n\n    /**\n     * @dev Function outputs the current uint proposed as function output to a valid\n     * entry contract. The contract will also specify its own name to limit changes\n     * on other functions and increase security.\n     * @param _percent percent needed for change to be approved.\n     * @param _proposedChange string of the calling function.\n     * @return new uint value proposed\n     */\n    function numberChange(uint256 _percent, string memory _proposedChange)\n        public\n        validEntry\n        returns (uint256)\n    {\n        clearedAction(_percent, _proposedChange);\n\n        return (intProposed);\n    }\n\n    /**\n     * @dev Resets all the dev contract votes to false and takes a parameter address as\n     * the new proposed change. The string of the function accepting this change must also\n     * be parsed in.\n     * @param _address proposed change on function output\n     * @param _proposedChange string cointaining information on permitted function accessing\n     * the addressChange function.\n     */\n    function proposeAddressChange(\n        address _address,\n        string memory _proposedChange\n    ) public onlyDev {\n        for (uint256 i = 0; i < devArray.length; i++) {\n            devBook[devArray[i]].vote = false;\n        }\n\n        addressProposed = _address;\n        proposedChange = _proposedChange;\n    }\n\n    /**\n     * @dev Function outputs the current address proposed as function output to a valid\n     * entry contract. The contract will also specify its own name to limit changes\n     * on other functions and increase security.\n     * @param _percent percent needed for change to be approved.\n     * @param _proposedChange string of the calling function.\n     * @return new address value proposed\n     */\n    function addressChange(uint256 _percent, string memory _proposedChange)\n        public\n        validEntry\n        returns (address)\n    {\n        clearedAction(_percent, _proposedChange);\n\n        return addressProposed;\n    }\n\n    /**\n     * @dev Resets all the dev contract votes to false and takes multiple params as\n     * the new tier proposed. The string of the function accepting this change must also\n     * be parsed in.\n     */\n    function proposeTierChange(\n        uint256 _amountTier,\n        uint256 _timeTier,\n        uint256 _interest,\n        uint256 _amountStakersLeft,\n        uint256 _tierDuration,\n        string memory _proposedChange\n    ) public {\n        for (uint256 i = 0; i < devArray.length; i++) {\n            devBook[devArray[i]].vote = false;\n        }\n        intProposed = _amountTier;\n        intProposed2 = _timeTier;\n        intProposed3 = _interest;\n        intProposed4 = _amountStakersLeft;\n        intProposed5 = _tierDuration;\n\n        proposedChange = _proposedChange;\n    }\n\n    /**\n     * @dev Function outputs the current selection proposed as function output to a valid\n     * entry contract. The contract will also specify its own name to limit changes\n     * on other functions and increase security.\n     */\n    function tierChange(uint256 _percent, string memory _proposedChange)\n        public\n        validEntry\n        returns (\n            uint256,\n            uint256,\n            uint256,\n            uint256,\n            uint256\n        )\n    {\n        clearedAction(_percent, _proposedChange);\n\n        return (\n            intProposed,\n            intProposed2,\n            intProposed3,\n            intProposed4,\n            intProposed5\n        );\n    }\n\n    /**\n     * @dev Resets all the dev contract votes to false and takes a parameter value, status and\n     * address of the token. The string of the function accepting this change must also\n     * be parsed in.\n     * @param  _value new proposed value for token\n     * @param  _status new status of token support\n     * @param  _tokenAddress address of token being updated\n     * @param _proposedChange string cointaining information on permitted function accessing\n     * the boolChange function.\n     */\n    function proposeTokenChange(\n        uint256 _value,\n        bool _status,\n        address _tokenAddress,\n        string memory _proposedChange\n    ) public onlyDev {\n        for (uint256 i = 0; i < devArray.length; i++) {\n            devBook[devArray[i]].vote = false;\n        }\n        intProposed = _value;\n        boolProposed = _status;\n        addressProposed = _tokenAddress;\n        proposedChange = _proposedChange;\n    }\n\n    /**\n     * @dev Function takes proposed variable values to update token information.\n     */\n    function tokenChange() public onlyDev {\n        clearedAction(50, \"updateToken\");\n        tokenData[addressProposed] = Token(intProposed, boolProposed);\n    }\n\n    /**\n     * @dev Function takes a proposed uint value to update ethereum current price in USD.\n     */\n    function priceChangeETH() public onlyDev {\n        clearedAction(50, \"updateETH\");\n        USDpriceETH = intProposed;\n    }\n\n    /**\n     * @dev Function takes a proposed address value to update the external oracle.\n     */\n    function externalOracleChange() public onlyDev {\n        clearedAction(50, \"updateETH\");\n        oracle = ExternalOracle(addressProposed);\n    }\n\n    constructor() {\n        tokenData[0xEeeeeEeeeEeEeeEeEeEeeEEEeeeeEeeeeeeeEEeE] = Token(\n            1000000000000000000,\n            true\n        );\n        // rinkeby weth address to work with uniswap\n        tokenData[0xc778417E063141139Fce010982780140Aa0cD5Ab] = Token(\n            53000000000000,\n            true\n        );\n        tokenData[0x433C6E3D2def6E1fb414cf9448724EFB0399b698] = Token(\n            53000000000000,\n            true\n        );\n        devArray = [\n            0x5B38Da6a701c568545dCfcB03FcB875f56beddC4,\n            0xAb8483F64d9C6d1EcF9b849Ae677dD3315835cb2\n        ];\n        devBook[0x5B38Da6a701c568545dCfcB03FcB875f56beddC4].active = true;\n        devBook[0xAb8483F64d9C6d1EcF9b849Ae677dD3315835cb2].active = true;\n        USDpriceETH = 200000;\n    }\n\n    // ******************************** Token Data **********************************\n    /**\n     * @dev Struct saves information token data. Value field contains data on token\n     * value relative to ethereum. Active field displays current support for token.\n     * @notice Unsupported tokens use an external oracle to output relative value of eth\n     * from other sources.\n     */\n    struct Token {\n        uint256 value;\n        bool active;\n    }\n\n    /**\n     * @dev External oracle instance to provides information on token relative value using\n     * other platforms.\n     */\n    ExternalOracle oracle;\n\n    /**\n     * @dev uint saves the value of Ethereum in USD.\n     * @notice Decimals were shifted to the right for more accurate readings on current\n     * prices of Ethereum in USD.\n     */\n    uint256 public USDpriceETH;\n\n    /**\n     * @dev Mapping key value of address (token address) returns the struct with pertaining information\n     * on token support and value.\n     */\n    mapping(address => Token) tokenData; // Token information accessed by token address\n\n    /**\n     * @dev Function returns relative price of two tokens.\n     * @notice Fuction checks for token support, if token is not supported,\n     * the contract will delegate the task to the outer oracle to pull\n     * prices from other sources.\n     * @param _sellTokenAddress address of queried selling token\n     * @param _buyTokenAddress address of queried token being bought\n     * @return relative value of token being sold, relative value of token\n     * being bought.\n     */\n    function priceOfPair(address _sellTokenAddress, address _buyTokenAddress)\n        public\n        view\n        returns (uint256, uint256)\n    {\n        uint256 sellTokenPrice;\n        uint256 buyTokenPrice;\n\n        if (tokenData[_sellTokenAddress].active) {\n            sellTokenPrice = tokenData[_sellTokenAddress].value;\n        } else {\n            sellTokenPrice = oracle.getRelativePrice(_sellTokenAddress);\n        }\n\n        if (tokenData[_buyTokenAddress].active) {\n            buyTokenPrice = tokenData[_buyTokenAddress].value;\n        } else {\n            buyTokenPrice = oracle.getRelativePrice(_buyTokenAddress);\n        }\n\n        return (sellTokenPrice, buyTokenPrice);\n    }\n\n    /**\n     * @dev Function returns the price of Ethereum in USD\n     * @return price of ETH in USD\n     */\n    function priceOfETH() public view returns (uint256) {\n        return (USDpriceETH);\n    }\n\n    /**\n     * @dev Function returns the value of the queried token.\n     * @param _tokenAddress of token query\n     * @notice Fuction checks for token support, if token is not supported,\n     * the contract will delegate the task to the outer oracle to pull\n     * prices from other sources.\n     */\n    function priceOfToken(address _tokenAddress) public view returns (uint256) {\n        if (tokenData[_tokenAddress].active) {\n            return tokenData[_tokenAddress].value;\n        } else {\n            return oracle.getRelativePrice(_tokenAddress);\n        }\n    }\n}\n",
  "sourcePath": "/Users/christianroque/Desktop/TungstenGroupProject/contracts/ExchangeOracle.sol",
  "compiler": {
    "name": "solc",
    "version": "0.7.6+commit.7338295f.Emscripten.clang"
  },
  "schemaVersion": "3.3.4",
  "updatedAt": "2021-06-29T04:54:50.887Z",
  "devdoc": {
    "kind": "dev",
    "methods": {
      "acceptContract()": {
        "details": "Function activates a new contract address as entry point."
      },
      "acceptDev()": {
        "details": "Function accepts a proposed address for a new dev addition. This dev gets added to the dev array as well as turned as active as default."
      },
      "addressChange(uint256,string)": {
        "details": "Function outputs the current address proposed as function output to a valid entry contract. The contract will also specify its own name to limit changes on other functions and increase security.",
        "params": {
          "_percent": "percent needed for change to be approved.",
          "_proposedChange": "string of the calling function."
        },
        "returns": {
          "_0": "new address value proposed"
        }
      },
      "boolChange(uint256,string)": {
        "details": "Function outputs the current bool proposed as function output to a valid entry contract. The contract will also specify its own name to limit changes on other functions and increase security.",
        "params": {
          "_percent": "percent needed for change to be approved.",
          "_proposedChange": "string of the calling function."
        },
        "returns": {
          "_0": "new bool value proposed"
        }
      },
      "clearedAction(uint256,string)": {
        "details": "Function takes a set percentage and string set by the contract making the call with information on percentage needed for change to occur and string of the calling function. Reverts if percentage is not met or calling function was does not coincide with the one agreed for the change.",
        "params": {
          "_callingFunctionChange": "string of asking for clearance",
          "_percentage": "percent needed for change to be approved."
        }
      },
      "deleteContract()": {
        "details": "Function deactivates an existing contract address as entry point."
      },
      "deleteDev()": {
        "details": "Function deactivates the active status for a developer."
      },
      "externalOracleChange()": {
        "details": "Function takes a proposed address value to update the external oracle."
      },
      "numberChange(uint256,string)": {
        "details": "Function outputs the current uint proposed as function output to a valid entry contract. The contract will also specify its own name to limit changes on other functions and increase security.",
        "params": {
          "_percent": "percent needed for change to be approved.",
          "_proposedChange": "string of the calling function."
        },
        "returns": {
          "_0": "new uint value proposed"
        }
      },
      "priceChangeETH()": {
        "details": "Function takes a proposed uint value to update ethereum current price in USD."
      },
      "priceOfETH()": {
        "details": "Function returns the price of Ethereum in USD",
        "returns": {
          "_0": "price of ETH in USD"
        }
      },
      "priceOfPair(address,address)": {
        "details": "Function returns relative price of two tokens.",
        "params": {
          "_buyTokenAddress": "address of queried token being bought",
          "_sellTokenAddress": "address of queried selling token"
        },
        "returns": {
          "_0": "relative value of token being sold, relative value of token being bought."
        }
      },
      "priceOfToken(address)": {
        "details": "Function returns the value of the queried token.",
        "params": {
          "_tokenAddress": "of token query"
        }
      },
      "proposeAddressChange(address,string)": {
        "details": "Resets all the dev contract votes to false and takes a parameter address as the new proposed change. The string of the function accepting this change must also be parsed in.",
        "params": {
          "_address": "proposed change on function output",
          "_proposedChange": "string cointaining information on permitted function accessing the addressChange function."
        }
      },
      "proposeBoolChange(bool,string)": {
        "details": "Resets all the dev contract votes to false and takes a parameter bool as the new proposed change. The string of the function accepting this change must also be parsed in.",
        "params": {
          "_bool": "proposed change on function output",
          "_proposedChange": "string cointaining information on permitted function accessing the boolChange function."
        }
      },
      "proposeNumberChange(uint256,string)": {
        "details": "Resets all the dev contract votes to false and takes a parameter uint as the new proposed change. The string of the function accepting this change must also be parsed in.",
        "params": {
          "_num": "proposed change on function output",
          "_proposedChange": "string cointaining information on permitted function accessing the numChange function."
        }
      },
      "proposeTierChange(uint256,uint256,uint256,uint256,uint256,string)": {
        "details": "Resets all the dev contract votes to false and takes multiple params as the new tier proposed. The string of the function accepting this change must also be parsed in."
      },
      "proposeTokenChange(uint256,bool,address,string)": {
        "details": "Resets all the dev contract votes to false and takes a parameter value, status and address of the token. The string of the function accepting this change must also be parsed in.",
        "params": {
          "_proposedChange": "string cointaining information on permitted function accessing the boolChange function.",
          "_status": "new status of token support",
          "_tokenAddress": "address of token being updated",
          "_value": "new proposed value for token"
        }
      },
      "tierChange(uint256,string)": {
        "details": "Function outputs the current selection proposed as function output to a valid entry contract. The contract will also specify its own name to limit changes on other functions and increase security."
      },
      "tokenChange()": {
        "details": "Function takes proposed variable values to update token information."
      },
      "vote()": {
        "details": "Function stores the dev's vote for the current proposed change."
      }
    },
    "stateVariables": {
      "USDpriceETH": {
        "details": "uint saves the value of Ethereum in USD."
      },
      "addressProposed": {
        "details": "List all variables proposed for changes."
      },
      "contractSupported": {
        "details": "Mapping key value address (Contract address) returns a bool on contract entry status. True - valid entry, False - not permitted."
      },
      "devArray": {
        "details": "Array used to access the address of all developers on Cobalt"
      },
      "devBook": {
        "details": "Mapping key value address (developer) returns Dev struct information for dev"
      },
      "oracle": {
        "details": "External oracle instance to provides information on token relative value using other platforms."
      },
      "tokenData": {
        "details": "Mapping key value of address (token address) returns the struct with pertaining information on token support and value."
      }
    },
    "version": 1
  },
  "userdoc": {
    "kind": "user",
    "methods": {
      "USDpriceETH()": {
        "notice": "Decimals were shifted to the right for more accurate readings on current prices of Ethereum in USD."
      },
      "clearedAction(uint256,string)": {
        "notice": "On successful run, function also resets all dev votes to false"
      },
      "priceOfPair(address,address)": {
        "notice": "Fuction checks for token support, if token is not supported, the contract will delegate the task to the outer oracle to pull prices from other sources."
      },
      "priceOfToken(address)": {
        "notice": "Fuction checks for token support, if token is not supported, the contract will delegate the task to the outer oracle to pull prices from other sources."
      },
      "vote()": {
        "notice": "We dont limit vote to only active devs as their votes dont get added to the total tally during clearedAction function."
      }
    },
    "version": 1
  }
}