{
  "contractName": "ExchangeOracle",
  "abi": [
    {
      "inputs": [],
      "stateMutability": "nonpayable",
      "type": "constructor"
    },
    {
      "anonymous": false,
      "inputs": [
        {
          "indexed": false,
          "internalType": "address",
          "name": "_previousOwner",
          "type": "address"
        },
        {
          "indexed": true,
          "internalType": "address",
          "name": "_newOwner",
          "type": "address"
        }
      ],
      "name": "OwnershipTransferred",
      "type": "event"
    },
    {
      "anonymous": false,
      "inputs": [
        {
          "indexed": false,
          "internalType": "address",
          "name": "token",
          "type": "address"
        }
      ],
      "name": "deletedToken",
      "type": "event"
    },
    {
      "anonymous": false,
      "inputs": [
        {
          "indexed": false,
          "internalType": "uint256",
          "name": "_value",
          "type": "uint256"
        }
      ],
      "name": "tokenUpdatedData",
      "type": "event"
    },
    {
      "inputs": [],
      "name": "_owner",
      "outputs": [
        {
          "internalType": "address",
          "name": "",
          "type": "address"
        }
      ],
      "stateMutability": "view",
      "type": "function"
    },
    {
      "inputs": [],
      "name": "isOwner",
      "outputs": [
        {
          "internalType": "bool",
          "name": "",
          "type": "bool"
        }
      ],
      "stateMutability": "view",
      "type": "function"
    },
    {
      "inputs": [
        {
          "internalType": "address",
          "name": "_newOwner",
          "type": "address"
        }
      ],
      "name": "transferOwnership",
      "outputs": [],
      "stateMutability": "nonpayable",
      "type": "function"
    },
    {
      "inputs": [
        {
          "internalType": "uint256",
          "name": "_percentage",
          "type": "uint256"
        },
        {
          "internalType": "string",
          "name": "_callingFunctionChange",
          "type": "string"
        }
      ],
      "name": "clearedAction",
      "outputs": [],
      "stateMutability": "view",
      "type": "function"
    },
    {
      "inputs": [],
      "name": "acceptDev",
      "outputs": [],
      "stateMutability": "nonpayable",
      "type": "function"
    },
    {
      "inputs": [],
      "name": "deleteDev",
      "outputs": [],
      "stateMutability": "nonpayable",
      "type": "function"
    },
    {
      "inputs": [],
      "name": "vote",
      "outputs": [],
      "stateMutability": "nonpayable",
      "type": "function"
    },
    {
      "inputs": [
        {
          "internalType": "bool",
          "name": "_bool",
          "type": "bool"
        },
        {
          "internalType": "string",
          "name": "_proposedChange",
          "type": "string"
        }
      ],
      "name": "proposeBoolChange",
      "outputs": [],
      "stateMutability": "nonpayable",
      "type": "function"
    },
    {
      "inputs": [
        {
          "internalType": "uint256",
          "name": "_percent",
          "type": "uint256"
        },
        {
          "internalType": "string",
          "name": "_proposedChange",
          "type": "string"
        }
      ],
      "name": "boolChange",
      "outputs": [
        {
          "internalType": "bool",
          "name": "",
          "type": "bool"
        }
      ],
      "stateMutability": "nonpayable",
      "type": "function"
    },
    {
      "inputs": [
        {
          "internalType": "uint256",
          "name": "_num",
          "type": "uint256"
        },
        {
          "internalType": "string",
          "name": "_proposedChange",
          "type": "string"
        }
      ],
      "name": "proposeNumberChange",
      "outputs": [],
      "stateMutability": "nonpayable",
      "type": "function"
    },
    {
      "inputs": [
        {
          "internalType": "uint256",
          "name": "_percent",
          "type": "uint256"
        },
        {
          "internalType": "string",
          "name": "_proposedChange",
          "type": "string"
        }
      ],
      "name": "numberChange",
      "outputs": [
        {
          "internalType": "uint256",
          "name": "",
          "type": "uint256"
        }
      ],
      "stateMutability": "nonpayable",
      "type": "function"
    },
    {
      "inputs": [
        {
          "internalType": "address",
          "name": "_address",
          "type": "address"
        },
        {
          "internalType": "string",
          "name": "_proposedChange",
          "type": "string"
        }
      ],
      "name": "proposeAddressChange",
      "outputs": [],
      "stateMutability": "nonpayable",
      "type": "function"
    },
    {
      "inputs": [
        {
          "internalType": "uint256",
          "name": "_percent",
          "type": "uint256"
        },
        {
          "internalType": "string",
          "name": "_proposedChange",
          "type": "string"
        }
      ],
      "name": "addressChange",
      "outputs": [
        {
          "internalType": "address",
          "name": "",
          "type": "address"
        }
      ],
      "stateMutability": "nonpayable",
      "type": "function"
    },
    {
      "inputs": [
        {
          "internalType": "uint256",
          "name": "_amountTier",
          "type": "uint256"
        },
        {
          "internalType": "uint256",
          "name": "_timeTier",
          "type": "uint256"
        },
        {
          "internalType": "uint256",
          "name": "_interest",
          "type": "uint256"
        },
        {
          "internalType": "uint256",
          "name": "_amountStakersLeft",
          "type": "uint256"
        },
        {
          "internalType": "uint256",
          "name": "_tierDuration",
          "type": "uint256"
        },
        {
          "internalType": "string",
          "name": "_proposedChange",
          "type": "string"
        }
      ],
      "name": "proposeTierChange",
      "outputs": [],
      "stateMutability": "nonpayable",
      "type": "function"
    },
    {
      "inputs": [
        {
          "internalType": "uint256",
          "name": "_percent",
          "type": "uint256"
        },
        {
          "internalType": "string",
          "name": "_proposedChange",
          "type": "string"
        }
      ],
      "name": "tierChange",
      "outputs": [
        {
          "internalType": "uint256",
          "name": "",
          "type": "uint256"
        },
        {
          "internalType": "uint256",
          "name": "",
          "type": "uint256"
        },
        {
          "internalType": "uint256",
          "name": "",
          "type": "uint256"
        },
        {
          "internalType": "uint256",
          "name": "",
          "type": "uint256"
        },
        {
          "internalType": "uint256",
          "name": "",
          "type": "uint256"
        }
      ],
      "stateMutability": "nonpayable",
      "type": "function"
    },
    {
      "inputs": [
        {
          "internalType": "address",
          "name": "_tokenAddress",
          "type": "address"
        },
        {
          "internalType": "uint256",
          "name": "_value",
          "type": "uint256"
        },
        {
          "internalType": "bool",
          "name": "_status",
          "type": "bool"
        }
      ],
      "name": "updateToken",
      "outputs": [],
      "stateMutability": "nonpayable",
      "type": "function"
    },
    {
      "inputs": [
        {
          "internalType": "address",
          "name": "_sellTokenAddress",
          "type": "address"
        },
        {
          "internalType": "address",
          "name": "_buyTokenAddress",
          "type": "address"
        }
      ],
      "name": "priceOfPair",
      "outputs": [
        {
          "internalType": "uint256",
          "name": "sellTokenPrice",
          "type": "uint256"
        },
        {
          "internalType": "uint256",
          "name": "buyTokenPrice",
          "type": "uint256"
        },
        {
          "internalType": "bool",
          "name": "success",
          "type": "bool"
        }
      ],
      "stateMutability": "view",
      "type": "function"
    },
    {
      "inputs": [
        {
          "internalType": "address",
          "name": "_cbltToken",
          "type": "address"
        }
      ],
      "name": "priceOfETHandCBLT",
      "outputs": [
        {
          "internalType": "uint256",
          "name": "",
          "type": "uint256"
        },
        {
          "internalType": "uint256",
          "name": "",
          "type": "uint256"
        }
      ],
      "stateMutability": "view",
      "type": "function"
    },
    {
      "inputs": [],
      "name": "priceOfETH",
      "outputs": [
        {
          "internalType": "uint256",
          "name": "",
          "type": "uint256"
        }
      ],
      "stateMutability": "view",
      "type": "function"
    },
    {
      "inputs": [
        {
          "internalType": "address",
          "name": "_tokenAddress",
          "type": "address"
        }
      ],
      "name": "priceOfToken",
      "outputs": [
        {
          "internalType": "uint256",
          "name": "",
          "type": "uint256"
        }
      ],
      "stateMutability": "view",
      "type": "function"
    },
    {
      "inputs": [],
      "name": "testConnection",
      "outputs": [
        {
          "internalType": "uint256",
          "name": "sellTokenPrice",
          "type": "uint256"
        },
        {
          "internalType": "uint256",
          "name": "buyTokenPrice",
          "type": "uint256"
        }
      ],
      "stateMutability": "pure",
      "type": "function"
    }
  ],
  "bytecode": "0x608060405262030d4060015534801561001757600080fd5b50336000806101000a81548173ffffffffffffffffffffffffffffffffffffffff021916908373ffffffffffffffffffffffffffffffffffffffff1602179055506040518060400160405280670de0b6b3a76400008152602001600115158152506002600073eeeeeeeeeeeeeeeeeeeeeeeeeeeeeeeeeeeeeeee73ffffffffffffffffffffffffffffffffffffffff1673ffffffffffffffffffffffffffffffffffffffff1681526020019081526020016000206000820151816000015560208201518160010160006101000a81548160ff0219169083151502179055509050506040518060400160405280653034062c50008152602001600115158152506002600073c778417e063141139fce010982780140aa0cd5ab73ffffffffffffffffffffffffffffffffffffffff1673ffffffffffffffffffffffffffffffffffffffff1681526020019081526020016000206000820151816000015560208201518160010160006101000a81548160ff0219169083151502179055509050506040518060400160405280653034062c50008152602001600115158152506002600073433c6e3d2def6e1fb414cf9448724efb0399b69873ffffffffffffffffffffffffffffffffffffffff1673ffffffffffffffffffffffffffffffffffffffff1681526020019081526020016000206000820151816000015560208201518160010160006101000a81548160ff0219169083151502179055509050506127e4806102436000396000f3fe608060405234801561001057600080fd5b50600436106101375760003560e01c8063632a9a52116100b8578063b2bdfa7b1161007c578063b2bdfa7b14610972578063b610e774146109a6578063b738f88314610a7f578063cedfbff214610a89578063f2fde38b14610ae3578063f3167c0514610b2757610137565b8063632a9a52146108455780637a62f51e1461084f5780637e046fa81461092a578063858b033d146109345780638f32d59b1461095257610137565b806335885ac8116100ff57806335885ac8146104cf5780633a7a2a06146105aa578063452666971461063257806345d4671f1461069157806361b47ee51461078057610137565b80630caa47c11461013c5780630db349bc14610203578063151ee3af146102f0578063239df389146103e55780633412a15c146104aa575b600080fd5b6102016004803603604081101561015257600080fd5b810190808035151590602001909291908035906020019064010000000081111561017b57600080fd5b82018360208201111561018d57600080fd5b803590602001918460018302840111640100000000831117156101af57600080fd5b91908080601f016020809104026020016040519081016040528093929190818152602001838380828437600081840152601f19601f820116905080830192505050505050509192919290505050610b7f565b005b6102ee600480360360c081101561021957600080fd5b8101908080359060200190929190803590602001909291908035906020019092919080359060200190929190803590602001909291908035906020019064010000000081111561026857600080fd5b82018360208201111561027a57600080fd5b8035906020019184600183028401116401000000008311171561029c57600080fd5b91908080601f016020809104026020016040519081016040528093929190818152602001838380828437600081840152601f19601f820116905080830192505050505050509192919290505050610d72565b005b6103b36004803603604081101561030657600080fd5b81019080803590602001909291908035906020019064010000000081111561032d57600080fd5b82018360208201111561033f57600080fd5b8035906020019184600183028401116401000000008311171561036157600080fd5b91908080601f016020809104026020016040519081016040528093929190818152602001838380828437600081840152601f19601f820116905080830192505050505050509192919290505050610e64565b604051808681526020018581526020018481526020018381526020018281526020019550505050505060405180910390f35b6104a8600480360360408110156103fb57600080fd5b81019080803590602001909291908035906020019064010000000081111561042257600080fd5b82018360208201111561043457600080fd5b8035906020019184600183028401116401000000008311171561045657600080fd5b91908080601f016020809104026020016040519081016040528093929190818152602001838380828437600081840152601f19601f820116905080830192505050505050509192919290505050611036565b005b6104b2611216565b604051808381526020018281526020019250505060405180910390f35b6105a8600480360360408110156104e557600080fd5b81019080803573ffffffffffffffffffffffffffffffffffffffff1690602001909291908035906020019064010000000081111561052257600080fd5b82018360208201111561053457600080fd5b8035906020019184600183028401116401000000008311171561055657600080fd5b91908080601f016020809104026020016040519081016040528093929190818152602001838380828437600081840152601f19601f820116905080830192505050505050509192919290505050611224565b005b61060c600480360360408110156105c057600080fd5b81019080803573ffffffffffffffffffffffffffffffffffffffff169060200190929190803573ffffffffffffffffffffffffffffffffffffffff16906020019092919050505061143e565b604051808481526020018381526020018215158152602001935050505060405180910390f35b6106746004803603602081101561064857600080fd5b81019080803573ffffffffffffffffffffffffffffffffffffffff16906020019092919050505061153e565b604051808381526020018281526020019250505060405180910390f35b610754600480360360408110156106a757600080fd5b8101908080359060200190929190803590602001906401000000008111156106ce57600080fd5b8201836020820111156106e057600080fd5b8035906020019184600183028401116401000000008311171561070257600080fd5b91908080601f016020809104026020016040519081016040528093929190818152602001838380828437600081840152601f19601f820116905080830192505050505050509192919290505050611590565b604051808273ffffffffffffffffffffffffffffffffffffffff16815260200191505060405180910390f35b6108436004803603604081101561079657600080fd5b8101908080359060200190929190803590602001906401000000008111156107bd57600080fd5b8201836020820111156107cf57600080fd5b803590602001918460018302840111640100000000831117156107f157600080fd5b91908080601f016020809104026020016040519081016040528093929190818152602001838380828437600081840152601f19601f820116905080830192505050505050509192919290505050611764565b005b61084d611a68565b005b6109126004803603604081101561086557600080fd5b81019080803590602001909291908035906020019064010000000081111561088c57600080fd5b82018360208201111561089e57600080fd5b803590602001918460018302840111640100000000831117156108c057600080fd5b91908080601f016020809104026020016040519081016040528093929190818152602001838380828437600081840152601f19601f820116905080830192505050505050509192919290505050611bd3565b60405180821515815260200191505060405180910390f35b610932611db1565b005b61093c611fc4565b6040518082815260200191505060405180910390f35b61095a611fce565b60405180821515815260200191505060405180910390f35b61097a612025565b604051808273ffffffffffffffffffffffffffffffffffffffff16815260200191505060405180910390f35b610a69600480360360408110156109bc57600080fd5b8101908080359060200190929190803590602001906401000000008111156109e357600080fd5b8201836020820111156109f557600080fd5b80359060200191846001830284011164010000000083111715610a1757600080fd5b91908080601f016020809104026020016040519081016040528093929190818152602001838380828437600081840152601f19601f820116905080830192505050505050509192919290505050612049565b6040518082815260200191505060405180910390f35b610a876121fd565b005b610ae160048036036060811015610a9f57600080fd5b81019080803573ffffffffffffffffffffffffffffffffffffffff169060200190929190803590602001909291908035151590602001909291905050506123ad565b005b610b2560048036036020811015610af957600080fd5b81019080803573ffffffffffffffffffffffffffffffffffffffff16906020019092919050505061246c565b005b610b6960048036036020811015610b3d57600080fd5b81019080803573ffffffffffffffffffffffffffffffffffffffff1690602001909291905050506125a7565b6040518082815260200191505060405180910390f35b600080600090505b600480549050811015610c115760048181548110610ba157fe5b9060005260206000200160009054906101000a900473ffffffffffffffffffffffffffffffffffffffff1673ffffffffffffffffffffffffffffffffffffffff163373ffffffffffffffffffffffffffffffffffffffff161415610c0457600191505b8080600101915050610b87565b506001151581151514610c8c576040517f08c379a00000000000000000000000000000000000000000000000000000000081526004018080602001828103825260188152602001807f43616c6c6572206e6565647320746f206265206120646576000000000000000081525060200191505060405180910390fd5b60005b600480549050811015610d3b5760006003600060048481548110610caf57fe5b9060005260206000200160009054906101000a900473ffffffffffffffffffffffffffffffffffffffff1673ffffffffffffffffffffffffffffffffffffffff1673ffffffffffffffffffffffffffffffffffffffff16815260200190815260200160002060000160016101000a81548160ff0219169083151502179055508080600101915050610c8f565b5082600e60006101000a81548160ff0219169083151502179055508160079080519060200190610d6c9291906126d5565b50505050565b60005b600480549050811015610e215760006003600060048481548110610d9557fe5b9060005260206000200160009054906101000a900473ffffffffffffffffffffffffffffffffffffffff1673ffffffffffffffffffffffffffffffffffffffff1673ffffffffffffffffffffffffffffffffffffffff16815260200190815260200160002060000160016101000a81548160ff0219169083151502179055508080600101915050610d75565b50856008819055508460098190555083600a8190555082600b8190555081600c819055508060079080519060200190610e5b9291906126d5565b50505050505050565b60008060008060008060005b600580549050811015610efa5760058181548110610e8a57fe5b9060005260206000200160009054906101000a900473ffffffffffffffffffffffffffffffffffffffff1673ffffffffffffffffffffffffffffffffffffffff163373ffffffffffffffffffffffffffffffffffffffff161415610eed57600191505b8080600101915050610e70565b506001151581151514610f58576040517f08c379a000000000000000000000000000000000000000000000000000000000815260040180806020018281038252602e815260200180612781602e913960400191505060405180910390fd5b610f628888611764565b60005b6004805490508110156110115760006003600060048481548110610f8557fe5b9060005260206000200160009054906101000a900473ffffffffffffffffffffffffffffffffffffffff1673ffffffffffffffffffffffffffffffffffffffff1673ffffffffffffffffffffffffffffffffffffffff16815260200190815260200160002060000160016101000a81548160ff0219169083151502179055508080600101915050610f65565b50600854600954600a54600b54600c5495509550955095509550509295509295909350565b600080600090505b6004805490508110156110c8576004818154811061105857fe5b9060005260206000200160009054906101000a900473ffffffffffffffffffffffffffffffffffffffff1673ffffffffffffffffffffffffffffffffffffffff163373ffffffffffffffffffffffffffffffffffffffff1614156110bb57600191505b808060010191505061103e565b506001151581151514611143576040517f08c379a00000000000000000000000000000000000000000000000000000000081526004018080602001828103825260188152602001807f43616c6c6572206e6565647320746f206265206120646576000000000000000081525060200191505060405180910390fd5b60005b6004805490508110156111f2576000600360006004848154811061116657fe5b9060005260206000200160009054906101000a900473ffffffffffffffffffffffffffffffffffffffff1673ffffffffffffffffffffffffffffffffffffffff1673ffffffffffffffffffffffffffffffffffffffff16815260200190815260200160002060000160016101000a81548160ff0219169083151502179055508080600101915050611146565b508260088190555081600790805190602001906112109291906126d5565b50505050565b600080600180915091509091565b600080600090505b6004805490508110156112b6576004818154811061124657fe5b9060005260206000200160009054906101000a900473ffffffffffffffffffffffffffffffffffffffff1673ffffffffffffffffffffffffffffffffffffffff163373ffffffffffffffffffffffffffffffffffffffff1614156112a957600191505b808060010191505061122c565b506001151581151514611331576040517f08c379a00000000000000000000000000000000000000000000000000000000081526004018080602001828103825260188152602001807f43616c6c6572206e6565647320746f206265206120646576000000000000000081525060200191505060405180910390fd5b60005b6004805490508110156113e0576000600360006004848154811061135457fe5b9060005260206000200160009054906101000a900473ffffffffffffffffffffffffffffffffffffffff1673ffffffffffffffffffffffffffffffffffffffff1673ffffffffffffffffffffffffffffffffffffffff16815260200190815260200160002060000160016101000a81548160ff0219169083151502179055508080600101915050611334565b5082600660006101000a81548173ffffffffffffffffffffffffffffffffffffffff021916908373ffffffffffffffffffffffffffffffffffffffff16021790555081600790805190602001906114389291906126d5565b50505050565b6000806000600260008673ffffffffffffffffffffffffffffffffffffffff1673ffffffffffffffffffffffffffffffffffffffff16815260200190815260200160002060010160009054906101000a900460ff161561152b57600260008673ffffffffffffffffffffffffffffffffffffffff1673ffffffffffffffffffffffffffffffffffffffff16815260200190815260200160002060000154600260008673ffffffffffffffffffffffffffffffffffffffff1673ffffffffffffffffffffffffffffffffffffffff168152602001908152602001600020600001546001925092509250611537565b60008060009250925092505b9250925092565b600080600260008473ffffffffffffffffffffffffffffffffffffffff1673ffffffffffffffffffffffffffffffffffffffff1681526020019081526020016000206000015460015491509150915091565b60008060005b60058054905081101561162057600581815481106115b057fe5b9060005260206000200160009054906101000a900473ffffffffffffffffffffffffffffffffffffffff1673ffffffffffffffffffffffffffffffffffffffff163373ffffffffffffffffffffffffffffffffffffffff16141561161357600191505b8080600101915050611596565b50600115158115151461167e576040517f08c379a000000000000000000000000000000000000000000000000000000000815260040180806020018281038252602e815260200180612781602e913960400191505060405180910390fd5b6116888484611764565b60005b60048054905081101561173757600060036000600484815481106116ab57fe5b9060005260206000200160009054906101000a900473ffffffffffffffffffffffffffffffffffffffff1673ffffffffffffffffffffffffffffffffffffffff1673ffffffffffffffffffffffffffffffffffffffff16815260200190815260200160002060000160016101000a81548160ff021916908315150217905550808060010191505061168b565b50600660009054906101000a900473ffffffffffffffffffffffffffffffffffffffff1691505092915050565b60008060005b6004805490508110156119525760011515600360006004848154811061178c57fe5b9060005260206000200160009054906101000a900473ffffffffffffffffffffffffffffffffffffffff1673ffffffffffffffffffffffffffffffffffffffff1673ffffffffffffffffffffffffffffffffffffffff16815260200190815260200160002060000160019054906101000a900460ff16151514801561189b575060011515600360006004848154811061182157fe5b9060005260206000200160009054906101000a900473ffffffffffffffffffffffffffffffffffffffff1673ffffffffffffffffffffffffffffffffffffffff1673ffffffffffffffffffffffffffffffffffffffff16815260200190815260200160002060000160009054906101000a900460ff161515145b156118a95782806001019350505b6001151560036000600484815481106118be57fe5b9060005260206000200160009054906101000a900473ffffffffffffffffffffffffffffffffffffffff1673ffffffffffffffffffffffffffffffffffffffff1673ffffffffffffffffffffffffffffffffffffffff16815260200190815260200160002060000160009054906101000a900460ff16151514156119455781806001019250505b808060010191505061176a565b5083611960838360646126be565b101561196b57600080fd5b826040516020018082805190602001908083835b602083106119a2578051825260208201915060208101905060208303925061197f565b6001836020036101000a0380198251168184511680821785525050505050509050019150506040516020818303038152906040528051906020012060076040516020018082805460018160011615610100020316600290048015611a3d5780601f10611a1b576101008083540402835291820191611a3d565b820191906000526020600020905b815481529060010190602001808311611a29575b50509150506040516020818303038152906040528051906020012014611a6257600080fd5b50505050565b600080600090505b600480549050811015611afa5760048181548110611a8a57fe5b9060005260206000200160009054906101000a900473ffffffffffffffffffffffffffffffffffffffff1673ffffffffffffffffffffffffffffffffffffffff163373ffffffffffffffffffffffffffffffffffffffff161415611aed57600191505b8080600101915050611a70565b506001151581151514611b75576040517f08c379a00000000000000000000000000000000000000000000000000000000081526004018080602001828103825260188152602001807f43616c6c6572206e6565647320746f206265206120646576000000000000000081525060200191505060405180910390fd5b6001600360003373ffffffffffffffffffffffffffffffffffffffff1673ffffffffffffffffffffffffffffffffffffffff16815260200190815260200160002060000160016101000a81548160ff02191690831515021790555050565b60008060005b600480549050811015611c635760048181548110611bf357fe5b9060005260206000200160009054906101000a900473ffffffffffffffffffffffffffffffffffffffff1673ffffffffffffffffffffffffffffffffffffffff163373ffffffffffffffffffffffffffffffffffffffff161415611c5657600191505b8080600101915050611bd9565b506001151581151514611cde576040517f08c379a00000000000000000000000000000000000000000000000000000000081526004018080602001828103825260188152602001807f43616c6c6572206e6565647320746f206265206120646576000000000000000081525060200191505060405180910390fd5b611ce88484611764565b60005b600480549050811015611d975760006003600060048481548110611d0b57fe5b9060005260206000200160009054906101000a900473ffffffffffffffffffffffffffffffffffffffff1673ffffffffffffffffffffffffffffffffffffffff1673ffffffffffffffffffffffffffffffffffffffff16815260200190815260200160002060000160016101000a81548160ff0219169083151502179055508080600101915050611ceb565b50600e60009054906101000a900460ff1691505092915050565b600080600090505b600480549050811015611e435760048181548110611dd357fe5b9060005260206000200160009054906101000a900473ffffffffffffffffffffffffffffffffffffffff1673ffffffffffffffffffffffffffffffffffffffff163373ffffffffffffffffffffffffffffffffffffffff161415611e3657600191505b8080600101915050611db9565b506001151581151514611ebe576040517f08c379a00000000000000000000000000000000000000000000000000000000081526004018080602001828103825260188152602001807f43616c6c6572206e6565647320746f206265206120646576000000000000000081525060200191505060405180910390fd5b6000611f0060506040518060400160405280600981526020017f6163636570744465760000000000000000000000000000000000000000000000815250611590565b90506004819080600181540180825580915050600190039060005260206000200160009091909190916101000a81548173ffffffffffffffffffffffffffffffffffffffff021916908373ffffffffffffffffffffffffffffffffffffffff1602179055506001600360008373ffffffffffffffffffffffffffffffffffffffff1673ffffffffffffffffffffffffffffffffffffffff16815260200190815260200160002060000160006101000a81548160ff0219169083151502179055505050565b6000600154905090565b60008060009054906101000a900473ffffffffffffffffffffffffffffffffffffffff1673ffffffffffffffffffffffffffffffffffffffff163373ffffffffffffffffffffffffffffffffffffffff1614905090565b60008054906101000a900473ffffffffffffffffffffffffffffffffffffffff1681565b60008060005b6005805490508110156120d9576005818154811061206957fe5b9060005260206000200160009054906101000a900473ffffffffffffffffffffffffffffffffffffffff1673ffffffffffffffffffffffffffffffffffffffff163373ffffffffffffffffffffffffffffffffffffffff1614156120cc57600191505b808060010191505061204f565b506001151581151514612137576040517f08c379a000000000000000000000000000000000000000000000000000000000815260040180806020018281038252602e815260200180612781602e913960400191505060405180910390fd5b6121418484611764565b60005b6004805490508110156121f0576000600360006004848154811061216457fe5b9060005260206000200160009054906101000a900473ffffffffffffffffffffffffffffffffffffffff1673ffffffffffffffffffffffffffffffffffffffff1673ffffffffffffffffffffffffffffffffffffffff16815260200190815260200160002060000160016101000a81548160ff0219169083151502179055508080600101915050612144565b5060085491505092915050565b600080600090505b60048054905081101561228f576004818154811061221f57fe5b9060005260206000200160009054906101000a900473ffffffffffffffffffffffffffffffffffffffff1673ffffffffffffffffffffffffffffffffffffffff163373ffffffffffffffffffffffffffffffffffffffff16141561228257600191505b8080600101915050612205565b50600115158115151461230a576040517f08c379a00000000000000000000000000000000000000000000000000000000081526004018080602001828103825260188152602001807f43616c6c6572206e6565647320746f206265206120646576000000000000000081525060200191505060405180910390fd5b600061234c60506040518060400160405280600981526020017f64656c6574654465760000000000000000000000000000000000000000000000815250611590565b90506000600360008373ffffffffffffffffffffffffffffffffffffffff1673ffffffffffffffffffffffffffffffffffffffff16815260200190815260200160002060000160006101000a81548160ff0219169083151502179055505050565b6040518060400160405280838152602001821515815250600260008573ffffffffffffffffffffffffffffffffffffffff1673ffffffffffffffffffffffffffffffffffffffff1681526020019081526020016000206000820151816000015560208201518160010160006101000a81548160ff0219169083151502179055509050507f446324d57c59cfe99d81fb0032c63caba7529a3261e4ff21ca8155c0575e6df8826040518082815260200191505060405180910390a1505050565b612474611fce565b6124e6576040517f08c379a00000000000000000000000000000000000000000000000000000000081526004018080602001828103825260168152602001807f596f7520617265206e6f7420746865206f776e65722e0000000000000000000081525060200191505060405180910390fd5b600073ffffffffffffffffffffffffffffffffffffffff168173ffffffffffffffffffffffffffffffffffffffff16141561252057600080fd5b8073ffffffffffffffffffffffffffffffffffffffff167f8be0079c531659141344cd1fd0a4f28419497f9722a3daafe3b4186f6b6457e060008054906101000a900473ffffffffffffffffffffffffffffffffffffffff16604051808273ffffffffffffffffffffffffffffffffffffffff16815260200191505060405180910390a250565b60008160011515600260008373ffffffffffffffffffffffffffffffffffffffff1673ffffffffffffffffffffffffffffffffffffffff16815260200190815260200160002060010160009054906101000a900460ff16151514612673576040517f08c379a000000000000000000000000000000000000000000000000000000000815260040180806020018281038252601e8152602001807f546f6b656e206e6f742063757272656e746c7920737570706f727465642e000081525060200191505060405180910390fd5b600260008473ffffffffffffffffffffffffffffffffffffffff1673ffffffffffffffffffffffffffffffffffffffff16815260200190815260200160002060000154915050919050565b600081838502816126cb57fe5b0490509392505050565b828054600181600116156101000203166002900490600052602060002090601f01602090048101928261270b5760008555612752565b82601f1061272457805160ff1916838001178555612752565b82800160010185558215612752579182015b82811115612751578251825591602001919060010190612736565b5b50905061275f9190612763565b5090565b5b8082111561277c576000816000905550600101612764565b509056fe5468697320636f6e74726163742063616e7420696e746572616374207769746820746865206465762070616e656ca2646970667358221220067b6270dbb301dadff4cec41c3ac6bb8fbecfc5c6f63f3944ccedff427f4bfd64736f6c63430007060033",
  "immutableReferences": {},
  "source": "// SPDX-License-Identifier: MIT\npragma solidity >=0.4.22 <0.9.0;\n\nimport \"./interfaces/Ownable.sol\";\nimport \"./interfaces/SafeMath.sol\";\n\ncontract ExchangeOracle is Ownable {\n    uint256 USDpriceETH = 200000;\n    mapping(address => Token) tokenData; // Token information accessed by token address\n\n    // **************************************** DEV VOTE ************************************************\n\n    struct Dev {\n        bool active;\n        bool vote;\n    }\n\n    mapping(address => Dev) devBook;\n    address[] devArray;\n\n    address[] contractSupported;\n\n    address addressProposed;\n    string proposedChange;\n    uint256 intProposed;\n    uint256 intProposed2;\n    uint256 intProposed3;\n    uint256 intProposed4;\n    uint256 intProposed5;\n    uint256 intProposed6;\n    bool boolProposed;\n\n    modifier validEntry {\n        bool cleared;\n\n        for (uint256 i = 0; i < contractSupported.length; i++) {\n            if (msg.sender == contractSupported[i]) {\n                cleared = true;\n            }\n        }\n\n        require(\n            cleared == true,\n            \"This contract cant interact with the dev panel\"\n        );\n        _;\n    }\n\n    modifier onlyDev {\n        bool cleared;\n\n        for (uint256 i = 0; i < devArray.length; i++) {\n            if (msg.sender == devArray[i]) {\n                cleared = true;\n            }\n        }\n\n        require(cleared == true, \"Caller needs to be a dev\");\n        _;\n    }\n\n    function clearedAction(\n        uint256 _percentage,\n        string memory _callingFunctionChange\n    ) public view {\n        uint256 votes;\n        uint256 totalVotes;\n\n        for (uint256 i = 0; i < devArray.length; i++) {\n            if (\n                devBook[devArray[i]].vote == true &&\n                devBook[devArray[i]].active == true\n            ) {\n                votes++;\n            }\n            if (devBook[devArray[i]].active == true) {\n                totalVotes++;\n            }\n        }\n\n        require(SafeMath.multiply(votes, totalVotes, 100) >= _percentage);\n        require(\n            keccak256(abi.encodePacked(proposedChange)) ==\n                keccak256(abi.encodePacked(_callingFunctionChange))\n        );\n    }\n\n    function acceptDev() public onlyDev {\n        address newDev = addressChange(80, \"acceptDev\");\n        devArray.push(newDev);\n        devBook[newDev].active = true;\n    }\n\n    function deleteDev() public onlyDev {\n        address status = addressChange(80, \"deleteDev\");\n        devBook[status].active = false;\n    }\n\n    function vote() public onlyDev {\n        devBook[msg.sender].vote = true;\n    }\n\n    function proposeBoolChange(bool _bool, string memory _proposedChange)\n        public\n        onlyDev\n    {\n        for (uint256 i = 0; i < devArray.length; i++) {\n            devBook[devArray[i]].vote = false;\n        }\n        boolProposed = _bool;\n        proposedChange = _proposedChange;\n    }\n\n    function boolChange(uint256 _percent, string memory _proposedChange)\n        public\n        onlyDev\n        returns (bool)\n    {\n        clearedAction(_percent, _proposedChange);\n\n        for (uint256 i = 0; i < devArray.length; i++) {\n            devBook[devArray[i]].vote = false;\n        }\n        return (boolProposed);\n    }\n\n    function proposeNumberChange(uint256 _num, string memory _proposedChange)\n        public\n        onlyDev\n    {\n        for (uint256 i = 0; i < devArray.length; i++) {\n            devBook[devArray[i]].vote = false;\n        }\n        intProposed = _num;\n        proposedChange = _proposedChange;\n    }\n\n    function numberChange(uint256 _percent, string memory _proposedChange)\n        public\n        validEntry\n        returns (uint256)\n    {\n        clearedAction(_percent, _proposedChange);\n\n        for (uint256 i = 0; i < devArray.length; i++) {\n            devBook[devArray[i]].vote = false;\n        }\n        return (intProposed);\n    }\n\n    function proposeAddressChange(\n        address _address,\n        string memory _proposedChange\n    ) public onlyDev {\n        for (uint256 i = 0; i < devArray.length; i++) {\n            devBook[devArray[i]].vote = false;\n        }\n\n        addressProposed = _address;\n        proposedChange = _proposedChange;\n    }\n\n    function addressChange(uint256 _percent, string memory _proposedChange)\n        public\n        validEntry\n        returns (address)\n    {\n        clearedAction(_percent, _proposedChange);\n\n        for (uint256 i = 0; i < devArray.length; i++) {\n            devBook[devArray[i]].vote = false;\n        }\n\n        return addressProposed;\n    }\n\n    function proposeTierChange(\n        uint256 _amountTier,\n        uint256 _timeTier,\n        uint256 _interest,\n        uint256 _amountStakersLeft,\n        uint256 _tierDuration,\n        string memory _proposedChange\n    ) public {\n        for (uint256 i = 0; i < devArray.length; i++) {\n            devBook[devArray[i]].vote = false;\n        }\n        intProposed = _amountTier;\n        intProposed2 = _timeTier;\n        intProposed3 = _interest;\n        intProposed4 = _amountStakersLeft;\n        intProposed5 = _tierDuration;\n\n        proposedChange = _proposedChange;\n    }\n\n    function tierChange(uint256 _percent, string memory _proposedChange)\n        public\n        validEntry\n        returns (\n            uint256,\n            uint256,\n            uint256,\n            uint256,\n            uint256\n        )\n    {\n        clearedAction(_percent, _proposedChange);\n\n        for (uint256 i = 0; i < devArray.length; i++) {\n            devBook[devArray[i]].vote = false;\n        }\n        return (\n            intProposed,\n            intProposed2,\n            intProposed3,\n            intProposed4,\n            intProposed5\n        );\n    }\n\n    // ******************************** Token Data **********************************\n    struct Token {\n        uint256 value;\n        bool active;\n    }\n\n    modifier activeToken(address _tokenAddress) {\n        require(\n            tokenData[_tokenAddress].active == true,\n            \"Token not currently supported.\"\n        );\n        _;\n    }\n\n    // Events\n    event deletedToken(address token);\n\n    event tokenUpdatedData(uint256 _value);\n\n    constructor() {\n        tokenData[0xEeeeeEeeeEeEeeEeEeEeeEEEeeeeEeeeeeeeEEeE] = Token(\n            1000000000000000000,\n            true\n        );\n        // rinkeby weth address to work with uniswap\n        tokenData[0xc778417E063141139Fce010982780140Aa0cD5Ab] = Token(\n            53000000000000,\n            true\n        );\n        tokenData[0x433C6E3D2def6E1fb414cf9448724EFB0399b698] = Token(\n            53000000000000,\n            true\n        );\n    }\n\n    function updateToken(\n        address _tokenAddress,\n        uint256 _value,\n        bool _status\n    ) public {\n        tokenData[_tokenAddress] = Token(_value, _status);\n        emit tokenUpdatedData(_value);\n    }\n\n    function priceOfPair(address _sellTokenAddress, address _buyTokenAddress)\n        public\n        view\n        returns (\n            uint256 sellTokenPrice,\n            uint256 buyTokenPrice,\n            bool success\n        )\n    {\n        if (tokenData[_sellTokenAddress].active) {\n            return (\n                tokenData[_sellTokenAddress].value,\n                tokenData[_buyTokenAddress].value,\n                true\n            );\n        } else {\n            return (0, 0, false);\n        }\n    }\n\n    function priceOfETHandCBLT(address _cbltToken)\n        public\n        view\n        returns (uint256, uint256)\n    {\n        return (tokenData[_cbltToken].value, USDpriceETH);\n    }\n\n    function priceOfETH() public view returns (uint256) {\n        return (USDpriceETH);\n    }\n\n    function priceOfToken(address _tokenAddress)\n        public\n        view\n        activeToken(_tokenAddress)\n        returns (uint256)\n    {\n        return (tokenData[_tokenAddress].value);\n    }\n\n    function testConnection()\n        public\n        pure\n        returns (uint256 sellTokenPrice, uint256 buyTokenPrice)\n    {\n        return (1, 1);\n    }\n}\n",
  "sourcePath": "/Users/christianroque/Desktop/TungstenGroupProject/contracts/ExchangeOracle.sol",
  "compiler": {
    "name": "solc",
    "version": "0.7.6+commit.7338295f.Emscripten.clang"
  },
  "schemaVersion": "3.3.4",
  "updatedAt": "2021-06-27T03:23:03.684Z",
  "devdoc": {
    "kind": "dev",
    "methods": {},
    "version": 1
  },
  "userdoc": {
    "kind": "user",
    "methods": {},
    "version": 1
  }
}