{
  "contractName": "ExchangeOracle",
  "abi": [
    {
      "inputs": [],
      "stateMutability": "nonpayable",
      "type": "constructor"
    },
    {
      "anonymous": false,
      "inputs": [
        {
          "indexed": false,
          "internalType": "address",
          "name": "_previousOwner",
          "type": "address"
        },
        {
          "indexed": true,
          "internalType": "address",
          "name": "_newOwner",
          "type": "address"
        }
      ],
      "name": "OwnershipTransferred",
      "type": "event"
    },
    {
      "anonymous": false,
      "inputs": [
        {
          "indexed": false,
          "internalType": "address",
          "name": "token",
          "type": "address"
        }
      ],
      "name": "deletedToken",
      "type": "event"
    },
    {
      "anonymous": false,
      "inputs": [
        {
          "indexed": false,
          "internalType": "string",
          "name": "_name",
          "type": "string"
        },
        {
          "indexed": false,
          "internalType": "string",
          "name": "_symbol",
          "type": "string"
        },
        {
          "indexed": false,
          "internalType": "string",
          "name": "_img",
          "type": "string"
        },
        {
          "indexed": false,
          "internalType": "uint256",
          "name": "_value",
          "type": "uint256"
        }
      ],
      "name": "tokenUpdatedData",
      "type": "event"
    },
    {
      "inputs": [],
      "name": "_owner",
      "outputs": [
        {
          "internalType": "address",
          "name": "",
          "type": "address"
        }
      ],
      "stateMutability": "view",
      "type": "function"
    },
    {
      "inputs": [],
      "name": "isOwner",
      "outputs": [
        {
          "internalType": "bool",
          "name": "",
          "type": "bool"
        }
      ],
      "stateMutability": "view",
      "type": "function"
    },
    {
      "inputs": [
        {
          "internalType": "address",
          "name": "_newOwner",
          "type": "address"
        }
      ],
      "name": "transferOwnership",
      "outputs": [],
      "stateMutability": "nonpayable",
      "type": "function"
    },
    {
      "inputs": [
        {
          "internalType": "address",
          "name": "_tokenAddress",
          "type": "address"
        },
        {
          "internalType": "string",
          "name": "_name",
          "type": "string"
        },
        {
          "internalType": "string",
          "name": "_symbol",
          "type": "string"
        },
        {
          "internalType": "string",
          "name": "_img",
          "type": "string"
        },
        {
          "internalType": "uint256",
          "name": "_value",
          "type": "uint256"
        },
        {
          "internalType": "bool",
          "name": "_active",
          "type": "bool"
        }
      ],
      "name": "updateToken",
      "outputs": [],
      "stateMutability": "nonpayable",
      "type": "function"
    },
    {
      "inputs": [
        {
          "internalType": "address",
          "name": "_sellTokenAddress",
          "type": "address"
        },
        {
          "internalType": "address",
          "name": "_buyTokenAddress",
          "type": "address"
        }
      ],
      "name": "priceOfPair",
      "outputs": [
        {
          "internalType": "uint256",
          "name": "sellTokenPrice",
          "type": "uint256"
        },
        {
          "internalType": "uint256",
          "name": "buyTokenPrice",
          "type": "uint256"
        }
      ],
      "stateMutability": "view",
      "type": "function"
    },
    {
      "inputs": [],
      "name": "testConnection",
      "outputs": [
        {
          "internalType": "uint256",
          "name": "sellTokenPrice",
          "type": "uint256"
        },
        {
          "internalType": "uint256",
          "name": "buyTokenPrice",
          "type": "uint256"
        }
      ],
      "stateMutability": "pure",
      "type": "function"
    },
    {
      "inputs": [
        {
          "internalType": "address",
          "name": "_tokenAddress",
          "type": "address"
        }
      ],
      "name": "getValue",
      "outputs": [
        {
          "internalType": "uint256",
          "name": "",
          "type": "uint256"
        }
      ],
      "stateMutability": "view",
      "type": "function"
    }
  ],
  "bytecode": "0x608060405234801561001057600080fd5b50336000806101000a81548173ffffffffffffffffffffffffffffffffffffffff021916908373ffffffffffffffffffffffffffffffffffffffff1602179055506040518060a001604052806040518060400160405280600881526020017f457468657265756d00000000000000000000000000000000000000000000000081525081526020016040518060400160405280600381526020017f455448000000000000000000000000000000000000000000000000000000000081525081526020016040518060400160405280600381526020017f75726c0000000000000000000000000000000000000000000000000000000000815250815260200165246139ca80008152602001600115158152506001600073eeeeeeeeeeeeeeeeeeeeeeeeeeeeeeeeeeeeeeee73ffffffffffffffffffffffffffffffffffffffff1673ffffffffffffffffffffffffffffffffffffffff168152602001908152602001600020600082015181600001908051906020019061018f9291906101fc565b5060208201518160010190805190602001906101ac9291906101fc565b5060408201518160020190805190602001906101c99291906101fc565b506060820151816003015560808201518160040160006101000a81548160ff0219169083151502179055509050506102a7565b828054600181600116156101000203166002900490600052602060002090601f0160209004810192826102325760008555610279565b82601f1061024b57805160ff1916838001178555610279565b82800160010185558215610279579182015b8281111561027857825182559160200191906001019061025d565b5b509050610286919061028a565b5090565b5b808211156102a357600081600090555060010161028b565b5090565b610b21806102b66000396000f3fe608060405234801561001057600080fd5b506004361061007d5760003560e01c80638f32d59b1161005b5780638f32d59b1461017e578063b2bdfa7b1461019e578063c83ee991146101d2578063f2fde38b146103f15761007d565b80633412a15c146100825780633a7a2a06146100a75780633ccc052214610126575b600080fd5b61008a610435565b604051808381526020018281526020019250505060405180910390f35b610109600480360360408110156100bd57600080fd5b81019080803573ffffffffffffffffffffffffffffffffffffffff169060200190929190803573ffffffffffffffffffffffffffffffffffffffff169060200190929190505050610444565b604051808381526020018281526020019250505060405180910390f35b6101686004803603602081101561013c57600080fd5b81019080803573ffffffffffffffffffffffffffffffffffffffff169060200190929190505050610552565b6040518082815260200191505060405180910390f35b61018661059e565b60405180821515815260200191505060405180910390f35b6101a66105f5565b604051808273ffffffffffffffffffffffffffffffffffffffff16815260200191505060405180910390f35b6103ef600480360360c08110156101e857600080fd5b81019080803573ffffffffffffffffffffffffffffffffffffffff1690602001909291908035906020019064010000000081111561022557600080fd5b82018360208201111561023757600080fd5b8035906020019184600183028401116401000000008311171561025957600080fd5b91908080601f016020809104026020016040519081016040528093929190818152602001838380828437600081840152601f19601f820116905080830192505050505050509192919290803590602001906401000000008111156102bc57600080fd5b8201836020820111156102ce57600080fd5b803590602001918460018302840111640100000000831117156102f057600080fd5b91908080601f016020809104026020016040519081016040528093929190818152602001838380828437600081840152601f19601f8201169050808301925050505050505091929192908035906020019064010000000081111561035357600080fd5b82018360208201111561036557600080fd5b8035906020019184600183028401116401000000008311171561038757600080fd5b91908080601f016020809104026020016040519081016040528093929190818152602001838380828437600081840152601f19601f82011690508083019250505050505050919291929080359060200190929190803515159060200190929190505050610619565b005b6104336004803603602081101561040757600080fd5b81019080803573ffffffffffffffffffffffffffffffffffffffff169060200190929190505050610905565b005b60008060026003915091509091565b60008061044f61059e565b6104c1576040517f08c379a00000000000000000000000000000000000000000000000000000000081526004018080602001828103825260168152602001807f596f7520617265206e6f7420746865206f776e65722e0000000000000000000081525060200191505060405180910390fd5b600160008573ffffffffffffffffffffffffffffffffffffffff1673ffffffffffffffffffffffffffffffffffffffff16815260200190815260200160002060030154600160008573ffffffffffffffffffffffffffffffffffffffff1673ffffffffffffffffffffffffffffffffffffffff16815260200190815260200160002060030154915091509250929050565b6000600160008373ffffffffffffffffffffffffffffffffffffffff1673ffffffffffffffffffffffffffffffffffffffff168152602001908152602001600020600301549050919050565b60008060009054906101000a900473ffffffffffffffffffffffffffffffffffffffff1673ffffffffffffffffffffffffffffffffffffffff163373ffffffffffffffffffffffffffffffffffffffff1614905090565b60008054906101000a900473ffffffffffffffffffffffffffffffffffffffff1681565b61062161059e565b610693576040517f08c379a00000000000000000000000000000000000000000000000000000000081526004018080602001828103825260168152602001807f596f7520617265206e6f7420746865206f776e65722e0000000000000000000081525060200191505060405180910390fd5b6040518060a00160405280868152602001858152602001848152602001838152602001821515815250600160008873ffffffffffffffffffffffffffffffffffffffff1673ffffffffffffffffffffffffffffffffffffffff1681526020019081526020016000206000820151816000019080519060200190610717929190610a40565b506020820151816001019080519060200190610734929190610a40565b506040820151816002019080519060200190610751929190610a40565b506060820151816003015560808201518160040160006101000a81548160ff0219169083151502179055509050507ff45f9f364120210971db62446463c081df09098408e3d99521ebea67351d51c18585858560405180806020018060200180602001858152602001848103845288818151815260200191508051906020019080838360005b838110156107f25780820151818401526020810190506107d7565b50505050905090810190601f16801561081f5780820380516001836020036101000a031916815260200191505b50848103835287818151815260200191508051906020019080838360005b8381101561085857808201518184015260208101905061083d565b50505050905090810190601f1680156108855780820380516001836020036101000a031916815260200191505b50848103825286818151815260200191508051906020019080838360005b838110156108be5780820151818401526020810190506108a3565b50505050905090810190601f1680156108eb5780820380516001836020036101000a031916815260200191505b5097505050505050505060405180910390a1505050505050565b61090d61059e565b61097f576040517f08c379a00000000000000000000000000000000000000000000000000000000081526004018080602001828103825260168152602001807f596f7520617265206e6f7420746865206f776e65722e0000000000000000000081525060200191505060405180910390fd5b600073ffffffffffffffffffffffffffffffffffffffff168173ffffffffffffffffffffffffffffffffffffffff1614156109b957600080fd5b8073ffffffffffffffffffffffffffffffffffffffff167f8be0079c531659141344cd1fd0a4f28419497f9722a3daafe3b4186f6b6457e060008054906101000a900473ffffffffffffffffffffffffffffffffffffffff16604051808273ffffffffffffffffffffffffffffffffffffffff16815260200191505060405180910390a250565b828054600181600116156101000203166002900490600052602060002090601f016020900481019282610a765760008555610abd565b82601f10610a8f57805160ff1916838001178555610abd565b82800160010185558215610abd579182015b82811115610abc578251825591602001919060010190610aa1565b5b509050610aca9190610ace565b5090565b5b80821115610ae7576000816000905550600101610acf565b509056fea2646970667358221220d1addbd7f7a48008c6841c8a8dd79d2dead88fffb71056f9ebda6fd26ebc792a64736f6c63430007060033",
  "immutableReferences": {},
  "source": "// SPDX-License-Identifier: MIT\npragma solidity >=0.4.22 <0.9.0;\n\nimport \"./interfaces/Ownable.sol\";\n\ncontract ExchangeOracle is Ownable {\n    mapping(address => Token) tokenData; // Token information accessed by token address\n\n    // Struct saving token data\n    struct Token {\n        string name;\n        string symbol;\n        string img;\n        uint256 value;\n        bool active;\n    }\n\n    // Events\n    event deletedToken(address token);\n\n    event tokenUpdatedData(\n        string _name,\n        string _symbol,\n        string _img,\n        uint256 _value\n    );\n\n    constructor() {\n        tokenData[0xEeeeeEeeeEeEeeEeEeEeeEEEeeeeEeeeeeeeEEeE] = Token(\n            \"Ethereum\",\n            \"ETH\",\n            \"url\",\n            40000000000000,\n            true\n        );\n    }\n\n    function updateToken(\n        address _tokenAddress,\n        string memory _name,\n        string memory _symbol,\n        string memory _img,\n        uint256 _value,\n        bool _active\n    ) public onlyOwner {\n        // Update token data\n        tokenData[_tokenAddress] = Token(_name, _symbol, _img, _value, _active);\n        // Emit event with new token information\n        emit tokenUpdatedData(_name, _symbol, _img, _value);\n    }\n\n    function priceOfPair(address _sellTokenAddress, address _buyTokenAddress)\n        public\n        view\n        onlyOwner\n        returns (uint256 sellTokenPrice, uint256 buyTokenPrice)\n    {\n        return (\n            tokenData[_sellTokenAddress].value,\n            tokenData[_buyTokenAddress].value\n        );\n    }\n\n    function testConnection()\n        public\n        pure\n        returns (uint256 sellTokenPrice, uint256 buyTokenPrice)\n    {\n        return (2, 3);\n    }\n\n    function getValue(address _tokenAddress) public view returns (uint256) {\n        return tokenData[_tokenAddress].value;\n    }\n}\n",
  "sourcePath": "/Users/christianroque/Desktop/solidity-playground/contracts/ExchangeOracle.sol",
  "compiler": {
    "name": "solc",
    "version": "0.7.6+commit.7338295f.Emscripten.clang"
  },
  "schemaVersion": "3.3.4",
  "updatedAt": "2021-04-28T03:14:33.411Z",
  "devdoc": {
    "kind": "dev",
    "methods": {},
    "version": 1
  },
  "userdoc": {
    "kind": "user",
    "methods": {},
    "version": 1
  }
}