{
  "contractName": "ExchangeOracle",
  "abi": [
    {
      "inputs": [],
      "stateMutability": "nonpayable",
      "type": "constructor"
    },
    {
      "anonymous": false,
      "inputs": [
        {
          "indexed": false,
          "internalType": "address",
          "name": "_previousOwner",
          "type": "address"
        },
        {
          "indexed": true,
          "internalType": "address",
          "name": "_newOwner",
          "type": "address"
        }
      ],
      "name": "OwnershipTransferred",
      "type": "event"
    },
    {
      "anonymous": false,
      "inputs": [
        {
          "indexed": false,
          "internalType": "address",
          "name": "token",
          "type": "address"
        }
      ],
      "name": "deletedToken",
      "type": "event"
    },
    {
      "anonymous": false,
      "inputs": [
        {
          "indexed": false,
          "internalType": "uint256",
          "name": "_value",
          "type": "uint256"
        }
      ],
      "name": "tokenUpdatedData",
      "type": "event"
    },
    {
      "inputs": [],
      "name": "_owner",
      "outputs": [
        {
          "internalType": "address",
          "name": "",
          "type": "address"
        }
      ],
      "stateMutability": "view",
      "type": "function",
      "constant": true
    },
    {
      "inputs": [],
      "name": "isOwner",
      "outputs": [
        {
          "internalType": "bool",
          "name": "",
          "type": "bool"
        }
      ],
      "stateMutability": "view",
      "type": "function",
      "constant": true
    },
    {
      "inputs": [
        {
          "internalType": "address",
          "name": "_newOwner",
          "type": "address"
        }
      ],
      "name": "transferOwnership",
      "outputs": [],
      "stateMutability": "nonpayable",
      "type": "function"
    },
    {
      "inputs": [
        {
          "internalType": "address",
          "name": "_tokenAddress",
          "type": "address"
        },
        {
          "internalType": "uint256",
          "name": "_value",
          "type": "uint256"
        },
        {
          "internalType": "bool",
          "name": "_status",
          "type": "bool"
        }
      ],
      "name": "updateToken",
      "outputs": [],
      "stateMutability": "nonpayable",
      "type": "function"
    },
    {
      "inputs": [
        {
          "internalType": "address",
          "name": "_sellTokenAddress",
          "type": "address"
        },
        {
          "internalType": "address",
          "name": "_buyTokenAddress",
          "type": "address"
        }
      ],
      "name": "priceOfPair",
      "outputs": [
        {
          "internalType": "uint256",
          "name": "sellTokenPrice",
          "type": "uint256"
        },
        {
          "internalType": "uint256",
          "name": "buyTokenPrice",
          "type": "uint256"
        },
        {
          "internalType": "bool",
          "name": "success",
          "type": "bool"
        }
      ],
      "stateMutability": "view",
      "type": "function",
      "constant": true
    },
    {
      "inputs": [
        {
          "internalType": "address",
          "name": "_cbltToken",
          "type": "address"
        }
      ],
      "name": "priceOfETHandCBLT",
      "outputs": [
        {
          "internalType": "uint256",
          "name": "",
          "type": "uint256"
        },
        {
          "internalType": "uint256",
          "name": "",
          "type": "uint256"
        }
      ],
      "stateMutability": "view",
      "type": "function",
      "constant": true
    },
    {
      "inputs": [],
      "name": "priceOfETH",
      "outputs": [
        {
          "internalType": "uint256",
          "name": "",
          "type": "uint256"
        }
      ],
      "stateMutability": "view",
      "type": "function",
      "constant": true
    },
    {
      "inputs": [
        {
          "internalType": "address",
          "name": "_tokenAddress",
          "type": "address"
        }
      ],
      "name": "priceOfToken",
      "outputs": [
        {
          "internalType": "uint256",
          "name": "",
          "type": "uint256"
        }
      ],
      "stateMutability": "view",
      "type": "function",
      "constant": true
    },
    {
      "inputs": [],
      "name": "testConnection",
      "outputs": [
        {
          "internalType": "uint256",
          "name": "sellTokenPrice",
          "type": "uint256"
        },
        {
          "internalType": "uint256",
          "name": "buyTokenPrice",
          "type": "uint256"
        }
      ],
      "stateMutability": "pure",
      "type": "function",
      "constant": true
    }
  ],
  "bytecode": "0x608060405262061a8060015534801561001757600080fd5b50336000806101000a81548173ffffffffffffffffffffffffffffffffffffffff021916908373ffffffffffffffffffffffffffffffffffffffff1602179055506040518060400160405280670de0b6b3a76400008152602001600115158152506002600073eeeeeeeeeeeeeeeeeeeeeeeeeeeeeeeeeeeeeeee73ffffffffffffffffffffffffffffffffffffffff1673ffffffffffffffffffffffffffffffffffffffff1681526020019081526020016000206000820151816000015560208201518160010160006101000a81548160ff0219169083151502179055509050506040518060400160405280670de0b6b3a76400008152602001600115158152506002600073c778417e063141139fce010982780140aa0cd5ab73ffffffffffffffffffffffffffffffffffffffff1673ffffffffffffffffffffffffffffffffffffffff1681526020019081526020016000206000820151816000015560208201518160010160006101000a81548160ff02191690831515021790555090505060405180604001604052806501d1a94a20008152602001600115158152506002600073433c6e3d2def6e1fb414cf9448724efb0399b69873ffffffffffffffffffffffffffffffffffffffff1673ffffffffffffffffffffffffffffffffffffffff1681526020019081526020016000206000820151816000015560208201518160010160006101000a81548160ff021916908315150217905550905050610838806102456000396000f3fe608060405234801561001057600080fd5b50600436106100935760003560e01c80638f32d59b116100665780638f32d59b146101c2578063b2bdfa7b146101e2578063cedfbff214610216578063f2fde38b14610270578063f3167c05146102b457610093565b80633412a15c146100985780633a7a2a06146100bd5780634526669714610145578063858b033d146101a4575b600080fd5b6100a061030c565b604051808381526020018281526020019250505060405180910390f35b61011f600480360360408110156100d357600080fd5b81019080803573ffffffffffffffffffffffffffffffffffffffff169060200190929190803573ffffffffffffffffffffffffffffffffffffffff16906020019092919050505061031a565b604051808481526020018381526020018215158152602001935050505060405180910390f35b6101876004803603602081101561015b57600080fd5b81019080803573ffffffffffffffffffffffffffffffffffffffff16906020019092919050505061041a565b604051808381526020018281526020019250505060405180910390f35b6101ac61046c565b6040518082815260200191505060405180910390f35b6101ca610476565b60405180821515815260200191505060405180910390f35b6101ea6104cd565b604051808273ffffffffffffffffffffffffffffffffffffffff16815260200191505060405180910390f35b61026e6004803603606081101561022c57600080fd5b81019080803573ffffffffffffffffffffffffffffffffffffffff169060200190929190803590602001909291908035151590602001909291905050506104f1565b005b6102b26004803603602081101561028657600080fd5b81019080803573ffffffffffffffffffffffffffffffffffffffff1690602001909291905050506105b0565b005b6102f6600480360360208110156102ca57600080fd5b81019080803573ffffffffffffffffffffffffffffffffffffffff1690602001909291905050506106eb565b6040518082815260200191505060405180910390f35b600080600180915091509091565b6000806000600260008673ffffffffffffffffffffffffffffffffffffffff1673ffffffffffffffffffffffffffffffffffffffff16815260200190815260200160002060010160009054906101000a900460ff161561040757600260008673ffffffffffffffffffffffffffffffffffffffff1673ffffffffffffffffffffffffffffffffffffffff16815260200190815260200160002060000154600260008673ffffffffffffffffffffffffffffffffffffffff1673ffffffffffffffffffffffffffffffffffffffff168152602001908152602001600020600001546001925092509250610413565b60008060009250925092505b9250925092565b600080600260008473ffffffffffffffffffffffffffffffffffffffff1673ffffffffffffffffffffffffffffffffffffffff1681526020019081526020016000206000015460015491509150915091565b6000600154905090565b60008060009054906101000a900473ffffffffffffffffffffffffffffffffffffffff1673ffffffffffffffffffffffffffffffffffffffff163373ffffffffffffffffffffffffffffffffffffffff1614905090565b60008054906101000a900473ffffffffffffffffffffffffffffffffffffffff1681565b6040518060400160405280838152602001821515815250600260008573ffffffffffffffffffffffffffffffffffffffff1673ffffffffffffffffffffffffffffffffffffffff1681526020019081526020016000206000820151816000015560208201518160010160006101000a81548160ff0219169083151502179055509050507f446324d57c59cfe99d81fb0032c63caba7529a3261e4ff21ca8155c0575e6df8826040518082815260200191505060405180910390a1505050565b6105b8610476565b61062a576040517f08c379a00000000000000000000000000000000000000000000000000000000081526004018080602001828103825260168152602001807f596f7520617265206e6f7420746865206f776e65722e0000000000000000000081525060200191505060405180910390fd5b600073ffffffffffffffffffffffffffffffffffffffff168173ffffffffffffffffffffffffffffffffffffffff16141561066457600080fd5b8073ffffffffffffffffffffffffffffffffffffffff167f8be0079c531659141344cd1fd0a4f28419497f9722a3daafe3b4186f6b6457e060008054906101000a900473ffffffffffffffffffffffffffffffffffffffff16604051808273ffffffffffffffffffffffffffffffffffffffff16815260200191505060405180910390a250565b60008160011515600260008373ffffffffffffffffffffffffffffffffffffffff1673ffffffffffffffffffffffffffffffffffffffff16815260200190815260200160002060010160009054906101000a900460ff161515146107b7576040517f08c379a000000000000000000000000000000000000000000000000000000000815260040180806020018281038252601e8152602001807f546f6b656e206e6f742063757272656e746c7920737570706f727465642e000081525060200191505060405180910390fd5b600260008473ffffffffffffffffffffffffffffffffffffffff1673ffffffffffffffffffffffffffffffffffffffff1681526020019081526020016000206000015491505091905056fea264697066735822122046bf1bfdb2bf00bbf854dee8d90d9cd9a0428da3a8846a22577d22471952b8cc64736f6c63430007060033",
  "immutableReferences": {},
  "source": "// SPDX-License-Identifier: MIT\npragma solidity >=0.4.22 <0.9.0;\n\nimport \"./interfaces/Ownable.sol\";\n\ncontract ExchangeOracle is Ownable {\n    uint256 USDpriceETH = 400000;\n    mapping(address => Token) tokenData; // Token information accessed by token address\n\n    // Struct saving token data\n    struct Token {\n        uint256 value;\n        bool active;\n    }\n\n    modifier activeToken(address _tokenAddress) {\n        require(\n            tokenData[_tokenAddress].active == true,\n            \"Token not currently supported.\"\n        );\n        _;\n    }\n\n    // Events\n    event deletedToken(address token);\n\n    event tokenUpdatedData(uint256 _value);\n\n    constructor() {\n        tokenData[0xEeeeeEeeeEeEeeEeEeEeeEEEeeeeEeeeeeeeEEeE] = Token(\n            1000000000000000000,\n            true\n        );\n        // rinkeby weth address to work with uniswap\n        tokenData[0xc778417E063141139Fce010982780140Aa0cD5Ab] = Token(\n            1000000000000000000,\n            true\n        );\n        tokenData[0x433C6E3D2def6E1fb414cf9448724EFB0399b698] = Token(\n            2000000000000,\n            true\n        );\n    }\n\n    function updateToken(\n        address _tokenAddress,\n        uint256 _value,\n        bool _status\n    ) public {\n        // Update token data\n        tokenData[_tokenAddress] = Token(_value, _status);\n        // Emit event with new token information\n        emit tokenUpdatedData(_value);\n    }\n\n    function priceOfPair(address _sellTokenAddress, address _buyTokenAddress)\n        public\n        view\n        returns (\n            uint256 sellTokenPrice,\n            uint256 buyTokenPrice,\n            bool success\n        )\n    {\n        if (tokenData[_sellTokenAddress].active) {\n            return (\n                tokenData[_sellTokenAddress].value,\n                tokenData[_buyTokenAddress].value,\n                true\n            );\n        } else {\n            return (0, 0, false);\n        }\n    }\n\n    function priceOfETHandCBLT(address _cbltToken)\n        public\n        view\n        returns (uint256, uint256)\n    {\n        return (tokenData[_cbltToken].value, USDpriceETH);\n    }\n\n    function priceOfETH() public view returns (uint256) {\n        return (USDpriceETH);\n    }\n\n    function priceOfToken(address _tokenAddress)\n        public\n        view\n        activeToken(_tokenAddress)\n        returns (uint256)\n    {\n        return (tokenData[_tokenAddress].value);\n    }\n\n    function testConnection()\n        public\n        pure\n        returns (uint256 sellTokenPrice, uint256 buyTokenPrice)\n    {\n        return (1, 1);\n    }\n}\n",
  "sourcePath": "/Users/christianroque/Desktop/TungstenGroupProject/contracts/ExchangeOracle.sol",
  "compiler": {
    "name": "solc",
    "version": "0.7.6+commit.7338295f.Emscripten.clang"
  },
  "schemaVersion": "3.3.4",
  "updatedAt": "2021-06-10T00:00:36.697Z",
  "networkType": "ethereum",
  "devdoc": {
    "kind": "dev",
    "methods": {},
    "version": 1
  },
  "userdoc": {
    "kind": "user",
    "methods": {},
    "version": 1
  }
}