{
  "contractName": "ExchangeOracle",
  "abi": [
    {
      "inputs": [],
      "stateMutability": "nonpayable",
      "type": "constructor"
    },
    {
      "anonymous": false,
      "inputs": [
        {
          "indexed": false,
          "internalType": "address",
          "name": "_previousOwner",
          "type": "address"
        },
        {
          "indexed": true,
          "internalType": "address",
          "name": "_newOwner",
          "type": "address"
        }
      ],
      "name": "OwnershipTransferred",
      "type": "event"
    },
    {
      "anonymous": false,
      "inputs": [
        {
          "indexed": false,
          "internalType": "address",
          "name": "token",
          "type": "address"
        }
      ],
      "name": "deletedToken",
      "type": "event"
    },
    {
      "anonymous": false,
      "inputs": [
        {
          "indexed": false,
          "internalType": "uint256",
          "name": "_value",
          "type": "uint256"
        }
      ],
      "name": "tokenUpdatedData",
      "type": "event"
    },
    {
      "inputs": [],
      "name": "_owner",
      "outputs": [
        {
          "internalType": "address",
          "name": "",
          "type": "address"
        }
      ],
      "stateMutability": "view",
      "type": "function"
    },
    {
      "inputs": [],
      "name": "isOwner",
      "outputs": [
        {
          "internalType": "bool",
          "name": "",
          "type": "bool"
        }
      ],
      "stateMutability": "view",
      "type": "function"
    },
    {
      "inputs": [
        {
          "internalType": "address",
          "name": "_newOwner",
          "type": "address"
        }
      ],
      "name": "transferOwnership",
      "outputs": [],
      "stateMutability": "nonpayable",
      "type": "function"
    },
    {
      "inputs": [
        {
          "internalType": "address",
          "name": "_tokenAddress",
          "type": "address"
        },
        {
          "internalType": "uint256",
          "name": "_value",
          "type": "uint256"
        },
        {
          "internalType": "bool",
          "name": "_active",
          "type": "bool"
        }
      ],
      "name": "updateToken",
      "outputs": [],
      "stateMutability": "nonpayable",
      "type": "function"
    },
    {
      "inputs": [
        {
          "internalType": "address",
          "name": "_sellTokenAddress",
          "type": "address"
        },
        {
          "internalType": "address",
          "name": "_buyTokenAddress",
          "type": "address"
        }
      ],
      "name": "priceOfPair",
      "outputs": [
        {
          "internalType": "uint256",
          "name": "sellTokenPrice",
          "type": "uint256"
        },
        {
          "internalType": "uint256",
          "name": "buyTokenPrice",
          "type": "uint256"
        }
      ],
      "stateMutability": "view",
      "type": "function"
    },
    {
      "inputs": [],
      "name": "testConnection",
      "outputs": [
        {
          "internalType": "uint256",
          "name": "sellTokenPrice",
          "type": "uint256"
        },
        {
          "internalType": "uint256",
          "name": "buyTokenPrice",
          "type": "uint256"
        }
      ],
      "stateMutability": "pure",
      "type": "function"
    },
    {
      "inputs": [
        {
          "internalType": "address",
          "name": "_sellTokenAddress",
          "type": "address"
        },
        {
          "internalType": "address",
          "name": "_buyTokenAddress",
          "type": "address"
        }
      ],
      "name": "priceOfPairWithETH",
      "outputs": [
        {
          "internalType": "uint256",
          "name": "",
          "type": "uint256"
        },
        {
          "internalType": "uint256",
          "name": "",
          "type": "uint256"
        },
        {
          "internalType": "uint256",
          "name": "",
          "type": "uint256"
        }
      ],
      "stateMutability": "view",
      "type": "function"
    },
    {
      "inputs": [
        {
          "internalType": "address",
          "name": "_cbltToken",
          "type": "address"
        }
      ],
      "name": "priceOfETHandCBLT",
      "outputs": [
        {
          "internalType": "uint256",
          "name": "",
          "type": "uint256"
        },
        {
          "internalType": "uint256",
          "name": "",
          "type": "uint256"
        }
      ],
      "stateMutability": "view",
      "type": "function"
    },
    {
      "inputs": [],
      "name": "priceOfETH",
      "outputs": [
        {
          "internalType": "uint256",
          "name": "",
          "type": "uint256"
        }
      ],
      "stateMutability": "view",
      "type": "function"
    }
  ],
  "bytecode": "0x608060405262061a8060015534801561001757600080fd5b50336000806101000a81548173ffffffffffffffffffffffffffffffffffffffff021916908373ffffffffffffffffffffffffffffffffffffffff1602179055506040518060400160405280670de0b6b3a76400008152602001600115158152506002600073eeeeeeeeeeeeeeeeeeeeeeeeeeeeeeeeeeeeeeee73ffffffffffffffffffffffffffffffffffffffff1673ffffffffffffffffffffffffffffffffffffffff1681526020019081526020016000206000820151816000015560208201518160010160006101000a81548160ff02191690831515021790555090505060405180604001604052806501d1a94a20008152602001600115158152506002600073433c6e3d2def6e1fb414cf9448724efb0399b69873ffffffffffffffffffffffffffffffffffffffff1673ffffffffffffffffffffffffffffffffffffffff1681526020019081526020016000206000820151816000015560208201518160010160006101000a81548160ff021916908315150217905550905050610775806101a56000396000f3fe608060405234801561001057600080fd5b50600436106100935760003560e01c8063858b033d11610066578063858b033d146102215780638f32d59b1461023f578063b2bdfa7b1461025f578063cedfbff214610293578063f2fde38b146102ed57610093565b806322c9850c146100985780633412a15c1461011e5780633a7a2a061461014357806345266697146101c2575b600080fd5b6100fa600480360360408110156100ae57600080fd5b81019080803573ffffffffffffffffffffffffffffffffffffffff169060200190929190803573ffffffffffffffffffffffffffffffffffffffff169060200190929190505050610331565b60405180848152602001838152602001828152602001935050505060405180910390f35b6101266103cc565b604051808381526020018281526020019250505060405180910390f35b6101a56004803603604081101561015957600080fd5b81019080803573ffffffffffffffffffffffffffffffffffffffff169060200190929190803573ffffffffffffffffffffffffffffffffffffffff1690602001909291905050506103da565b604051808381526020018281526020019250505060405180910390f35b610204600480360360208110156101d857600080fd5b81019080803573ffffffffffffffffffffffffffffffffffffffff16906020019092919050505061046e565b604051808381526020018281526020019250505060405180910390f35b6102296104c0565b6040518082815260200191505060405180910390f35b6102476104ca565b60405180821515815260200191505060405180910390f35b610267610521565b604051808273ffffffffffffffffffffffffffffffffffffffff16815260200191505060405180910390f35b6102eb600480360360608110156102a957600080fd5b81019080803573ffffffffffffffffffffffffffffffffffffffff16906020019092919080359060200190929190803515159060200190929190505050610545565b005b61032f6004803603602081101561030357600080fd5b81019080803573ffffffffffffffffffffffffffffffffffffffff169060200190929190505050610604565b005b6000806000600260008673ffffffffffffffffffffffffffffffffffffffff1673ffffffffffffffffffffffffffffffffffffffff16815260200190815260200160002060000154600260008673ffffffffffffffffffffffffffffffffffffffff1673ffffffffffffffffffffffffffffffffffffffff168152602001908152602001600020600001546001549250925092509250925092565b600080600180915091509091565b600080600260008573ffffffffffffffffffffffffffffffffffffffff1673ffffffffffffffffffffffffffffffffffffffff16815260200190815260200160002060000154600260008573ffffffffffffffffffffffffffffffffffffffff1673ffffffffffffffffffffffffffffffffffffffff16815260200190815260200160002060000154915091509250929050565b600080600154600260008573ffffffffffffffffffffffffffffffffffffffff1673ffffffffffffffffffffffffffffffffffffffff1681526020019081526020016000206000015491509150915091565b6000600154905090565b60008060009054906101000a900473ffffffffffffffffffffffffffffffffffffffff1673ffffffffffffffffffffffffffffffffffffffff163373ffffffffffffffffffffffffffffffffffffffff1614905090565b60008054906101000a900473ffffffffffffffffffffffffffffffffffffffff1681565b6040518060400160405280838152602001821515815250600260008573ffffffffffffffffffffffffffffffffffffffff1673ffffffffffffffffffffffffffffffffffffffff1681526020019081526020016000206000820151816000015560208201518160010160006101000a81548160ff0219169083151502179055509050507f446324d57c59cfe99d81fb0032c63caba7529a3261e4ff21ca8155c0575e6df8826040518082815260200191505060405180910390a1505050565b61060c6104ca565b61067e576040517f08c379a00000000000000000000000000000000000000000000000000000000081526004018080602001828103825260168152602001807f596f7520617265206e6f7420746865206f776e65722e0000000000000000000081525060200191505060405180910390fd5b600073ffffffffffffffffffffffffffffffffffffffff168173ffffffffffffffffffffffffffffffffffffffff1614156106b857600080fd5b8073ffffffffffffffffffffffffffffffffffffffff167f8be0079c531659141344cd1fd0a4f28419497f9722a3daafe3b4186f6b6457e060008054906101000a900473ffffffffffffffffffffffffffffffffffffffff16604051808273ffffffffffffffffffffffffffffffffffffffff16815260200191505060405180910390a25056fea26469706673582212205f4105e71690d14386a98b517f8f3468dc54c34886e4ac167791a1acec7f72b364736f6c63430007060033",
  "immutableReferences": {},
  "source": "// SPDX-License-Identifier: MIT\npragma solidity >=0.4.22 <0.9.0;\n\nimport \"./interfaces/Ownable.sol\";\n\ncontract ExchangeOracle is Ownable {\n    uint256 USDpriceETH = 400000;\n    mapping(address => Token) tokenData; // Token information accessed by token address\n\n    // Struct saving token data\n    struct Token {\n        uint256 value;\n        bool active;\n    }\n\n    // Events\n    event deletedToken(address token);\n\n    event tokenUpdatedData(uint256 _value);\n\n    constructor() {\n        tokenData[0xEeeeeEeeeEeEeeEeEeEeeEEEeeeeEeeeeeeeEEeE] = Token(\n            1000000000000000000,\n            true\n        );\n        tokenData[0x433C6E3D2def6E1fb414cf9448724EFB0399b698] = Token(\n            2000000000000,\n            true\n        );\n    }\n\n    function updateToken(\n        address _tokenAddress,\n        uint256 _value,\n        bool _active\n    ) public {\n        // Update token data\n        tokenData[_tokenAddress] = Token(_value, _active);\n        // Emit event with new token information\n        emit tokenUpdatedData(_value);\n    }\n\n    function priceOfPair(address _sellTokenAddress, address _buyTokenAddress)\n        public\n        view\n        returns (uint256 sellTokenPrice, uint256 buyTokenPrice)\n    {\n        return (\n            tokenData[_sellTokenAddress].value,\n            tokenData[_buyTokenAddress].value\n        );\n    }\n\n    function testConnection()\n        public\n        pure\n        returns (uint256 sellTokenPrice, uint256 buyTokenPrice)\n    {\n        return (1, 1);\n    }\n\n    function priceOfPairWithETH(\n        address _sellTokenAddress,\n        address _buyTokenAddress\n    )\n        public\n        view\n        returns (\n            uint256,\n            uint256,\n            uint256\n        )\n    {\n        return (\n            tokenData[_sellTokenAddress].value,\n            tokenData[_buyTokenAddress].value,\n            USDpriceETH\n        );\n    }\n\n    function priceOfETHandCBLT(address _cbltToken)\n        public\n        view\n        returns (uint256, uint256)\n    {\n        return (USDpriceETH, tokenData[_cbltToken].value);\n    }\n\n    function priceOfETH() public view returns (uint256) {\n        return (USDpriceETH);\n    }\n}\n",
  "sourcePath": "/Users/christianroque/Desktop/TungstenGroupProject/contracts/ExchangeOracle.sol",
  "compiler": {
    "name": "solc",
    "version": "0.7.6+commit.7338295f.Emscripten.clang"
  },
  "schemaVersion": "3.3.4",
  "updatedAt": "2021-05-27T06:45:30.413Z",
  "devdoc": {
    "kind": "dev",
    "methods": {},
    "version": 1
  },
  "userdoc": {
    "kind": "user",
    "methods": {},
    "version": 1
  }
}