{
  "contractName": "ExternalOracle",
  "abi": [
    {
      "inputs": [
        {
          "internalType": "address",
          "name": "_tokenAddress",
          "type": "address"
        }
      ],
      "name": "getRelativePrice",
      "outputs": [
        {
          "internalType": "uint256",
          "name": "",
          "type": "uint256"
        }
      ],
      "stateMutability": "view",
      "type": "function"
    }
  ],
  "bytecode": "0x608060405234801561001057600080fd5b5060bf8061001f6000396000f3fe6080604052348015600f57600080fd5b506004361060285760003560e01c8063729f20c714602d575b600080fd5b606c60048036036020811015604157600080fd5b81019080803573ffffffffffffffffffffffffffffffffffffffff1690602001909291905050506082565b6040518082815260200191505060405180910390f35b600091905056fea26469706673582212200cd2afdfddd145c8874bea5644291f4f59af0376c0abd2194af48620c9cb376464736f6c63430007060033",
  "immutableReferences": {},
  "source": "// SPDX-License-Identifier: MIT\npragma solidity >=0.4.22 <0.9.0;\n\nimport \"./interfaces/Ownable.sol\";\nimport \"./interfaces/SafeMath.sol\";\n\ncontract ExternalOracle {\n    function getRelativePrice(address _tokenAddress)\n        public\n        view\n        returns (uint256)\n    {}\n}\n",
  "sourcePath": "/Users/christianroque/Desktop/TungstenGroupProject/contracts/ExternalOracle.sol",
  "compiler": {
    "name": "solc",
    "version": "0.7.6+commit.7338295f.Emscripten.clang"
  },
  "schemaVersion": "3.3.4",
  "updatedAt": "2021-06-29T04:54:50.895Z",
  "devdoc": {
    "kind": "dev",
    "methods": {},
    "version": 1
  },
  "userdoc": {
    "kind": "user",
    "methods": {},
    "version": 1
  }
}