{
  "contractName": "HAM",
  "abi": [
    {
      "inputs": [],
      "stateMutability": "nonpayable",
      "type": "constructor"
    },
    {
      "anonymous": false,
      "inputs": [
        {
          "indexed": true,
          "internalType": "address",
          "name": "_tokenOwner",
          "type": "address"
        },
        {
          "indexed": true,
          "internalType": "address",
          "name": "_spender",
          "type": "address"
        },
        {
          "indexed": false,
          "internalType": "uint256",
          "name": "_amount",
          "type": "uint256"
        }
      ],
      "name": "Approval",
      "type": "event"
    },
    {
      "anonymous": false,
      "inputs": [
        {
          "indexed": false,
          "internalType": "address",
          "name": "borrower",
          "type": "address"
        },
        {
          "indexed": false,
          "internalType": "uint256",
          "name": "amount",
          "type": "uint256"
        },
        {
          "indexed": false,
          "internalType": "uint256",
          "name": "timestamp",
          "type": "uint256"
        }
      ],
      "name": "Borrowed",
      "type": "event"
    },
    {
      "anonymous": false,
      "inputs": [
        {
          "indexed": true,
          "internalType": "address",
          "name": "_from",
          "type": "address"
        },
        {
          "indexed": true,
          "internalType": "address",
          "name": "_to",
          "type": "address"
        },
        {
          "indexed": false,
          "internalType": "uint256",
          "name": "_amount",
          "type": "uint256"
        }
      ],
      "name": "Transfer",
      "type": "event"
    },
    {
      "inputs": [],
      "name": "_totalSupply",
      "outputs": [
        {
          "internalType": "uint256",
          "name": "",
          "type": "uint256"
        }
      ],
      "stateMutability": "view",
      "type": "function"
    },
    {
      "inputs": [],
      "name": "decimals",
      "outputs": [
        {
          "internalType": "uint8",
          "name": "",
          "type": "uint8"
        }
      ],
      "stateMutability": "view",
      "type": "function"
    },
    {
      "inputs": [],
      "name": "name",
      "outputs": [
        {
          "internalType": "string",
          "name": "",
          "type": "string"
        }
      ],
      "stateMutability": "view",
      "type": "function"
    },
    {
      "inputs": [],
      "name": "symbol",
      "outputs": [
        {
          "internalType": "string",
          "name": "",
          "type": "string"
        }
      ],
      "stateMutability": "view",
      "type": "function"
    },
    {
      "inputs": [],
      "name": "totalSupply",
      "outputs": [
        {
          "internalType": "uint256",
          "name": "",
          "type": "uint256"
        }
      ],
      "stateMutability": "view",
      "type": "function"
    },
    {
      "inputs": [
        {
          "internalType": "address",
          "name": "_tokenOwner",
          "type": "address"
        }
      ],
      "name": "balanceOf",
      "outputs": [
        {
          "internalType": "uint256",
          "name": "",
          "type": "uint256"
        }
      ],
      "stateMutability": "view",
      "type": "function"
    },
    {
      "inputs": [
        {
          "internalType": "address",
          "name": "_tokenOwner",
          "type": "address"
        },
        {
          "internalType": "address",
          "name": "_spender",
          "type": "address"
        }
      ],
      "name": "allowance",
      "outputs": [
        {
          "internalType": "uint256",
          "name": "",
          "type": "uint256"
        }
      ],
      "stateMutability": "view",
      "type": "function"
    },
    {
      "inputs": [
        {
          "internalType": "address payable",
          "name": "_to",
          "type": "address"
        },
        {
          "internalType": "uint256",
          "name": "_amount",
          "type": "uint256"
        }
      ],
      "name": "transfer",
      "outputs": [
        {
          "internalType": "bool",
          "name": "",
          "type": "bool"
        }
      ],
      "stateMutability": "nonpayable",
      "type": "function"
    },
    {
      "inputs": [
        {
          "internalType": "address",
          "name": "_spender",
          "type": "address"
        },
        {
          "internalType": "uint256",
          "name": "_amount",
          "type": "uint256"
        }
      ],
      "name": "approve",
      "outputs": [
        {
          "internalType": "bool",
          "name": "",
          "type": "bool"
        }
      ],
      "stateMutability": "nonpayable",
      "type": "function"
    },
    {
      "inputs": [
        {
          "internalType": "address",
          "name": "_from",
          "type": "address"
        },
        {
          "internalType": "address",
          "name": "_to",
          "type": "address"
        },
        {
          "internalType": "uint256",
          "name": "_amount",
          "type": "uint256"
        }
      ],
      "name": "transferFrom",
      "outputs": [
        {
          "internalType": "bool",
          "name": "",
          "type": "bool"
        }
      ],
      "stateMutability": "nonpayable",
      "type": "function"
    },
    {
      "inputs": [
        {
          "internalType": "address",
          "name": "_borrower",
          "type": "address"
        },
        {
          "internalType": "uint256",
          "name": "_amount",
          "type": "uint256"
        }
      ],
      "name": "borrow",
      "outputs": [],
      "stateMutability": "payable",
      "type": "function"
    },
    {
      "inputs": [
        {
          "internalType": "address",
          "name": "_donator",
          "type": "address"
        },
        {
          "internalType": "uint256",
          "name": "_amount",
          "type": "uint256"
        }
      ],
      "name": "donate",
      "outputs": [],
      "stateMutability": "payable",
      "type": "function"
    }
  ],
  "bytecode": "0x60806040526040518060400160405280600881526020017f48414d546f6b656e000000000000000000000000000000000000000000000000815250600090805190602001906200005192919062000126565b506040518060400160405280600381526020017f48414d0000000000000000000000000000000000000000000000000000000000815250600190805190602001906200009f92919062000126565b506012600260006101000a81548160ff021916908360ff160217905550348015620000c957600080fd5b5068056bc75e2d63100000600381905550600354600460003373ffffffffffffffffffffffffffffffffffffffff1673ffffffffffffffffffffffffffffffffffffffff16815260200190815260200160002081905550620001dc565b828054600181600116156101000203166002900490600052602060002090601f0160209004810192826200015e5760008555620001aa565b82601f106200017957805160ff1916838001178555620001aa565b82800160010185558215620001aa579182015b82811115620001a95782518255916020019190600101906200018c565b5b509050620001b99190620001bd565b5090565b5b80821115620001d8576000816000905550600101620001be565b5090565b610ec380620001ec6000396000f3fe6080604052600436106100a75760003560e01c80634b8a3529116100645780634b8a3529146102c257806370a082311461031057806395d89b4114610375578063a9059cbb14610405578063dd62ed3e14610476578063e69d849d146104fb576100a7565b806306fdde03146100ac578063095ea7b31461013c57806318160ddd146101ad57806323b872dd146101d8578063313ce567146102695780633eaaf86b14610297575b600080fd5b3480156100b857600080fd5b506100c1610549565b6040518080602001828103825283818151815260200191508051906020019080838360005b838110156101015780820151818401526020810190506100e6565b50505050905090810190601f16801561012e5780820380516001836020036101000a031916815260200191505b509250505060405180910390f35b34801561014857600080fd5b506101956004803603604081101561015f57600080fd5b81019080803573ffffffffffffffffffffffffffffffffffffffff169060200190929190803590602001909291905050506105e7565b60405180821515815260200191505060405180910390f35b3480156101b957600080fd5b506101c26106d9565b6040518082815260200191505060405180910390f35b3480156101e457600080fd5b50610251600480360360608110156101fb57600080fd5b81019080803573ffffffffffffffffffffffffffffffffffffffff169060200190929190803573ffffffffffffffffffffffffffffffffffffffff169060200190929190803590602001909291905050506106e3565b60405180821515815260200191505060405180910390f35b34801561027557600080fd5b5061027e6108e8565b604051808260ff16815260200191505060405180910390f35b3480156102a357600080fd5b506102ac6108fb565b6040518082815260200191505060405180910390f35b61030e600480360360408110156102d857600080fd5b81019080803573ffffffffffffffffffffffffffffffffffffffff16906020019092919080359060200190929190505050610901565b005b34801561031c57600080fd5b5061035f6004803603602081101561033357600080fd5b81019080803573ffffffffffffffffffffffffffffffffffffffff169060200190929190505050610a45565b6040518082815260200191505060405180910390f35b34801561038157600080fd5b5061038a610a8e565b6040518080602001828103825283818151815260200191508051906020019080838360005b838110156103ca5780820151818401526020810190506103af565b50505050905090810190601f1680156103f75780820380516001836020036101000a031916815260200191505b509250505060405180910390f35b34801561041157600080fd5b5061045e6004803603604081101561042857600080fd5b81019080803573ffffffffffffffffffffffffffffffffffffffff16906020019092919080359060200190929190505050610b2c565b60405180821515815260200191505060405180910390f35b34801561048257600080fd5b506104e56004803603604081101561049957600080fd5b81019080803573ffffffffffffffffffffffffffffffffffffffff169060200190929190803573ffffffffffffffffffffffffffffffffffffffff169060200190929190505050610cea565b6040518082815260200191505060405180910390f35b6105476004803603604081101561051157600080fd5b81019080803573ffffffffffffffffffffffffffffffffffffffff16906020019092919080359060200190929190505050610d71565b005b60008054600181600116156101000203166002900480601f0160208091040260200160405190810160405280929190818152602001828054600181600116156101000203166002900480156105df5780601f106105b4576101008083540402835291602001916105df565b820191906000526020600020905b8154815290600101906020018083116105c257829003601f168201915b505050505081565b600081600560003373ffffffffffffffffffffffffffffffffffffffff1673ffffffffffffffffffffffffffffffffffffffff16815260200190815260200160002060008573ffffffffffffffffffffffffffffffffffffffff1673ffffffffffffffffffffffffffffffffffffffff168152602001908152602001600020819055508273ffffffffffffffffffffffffffffffffffffffff163373ffffffffffffffffffffffffffffffffffffffff167f8c5be1e5ebec7d5bd14f71427d1e84f3dd0314c0f7b2291e5b200ac8c7c3b925846040518082815260200191505060405180910390a36001905092915050565b6000600354905090565b600080600460008673ffffffffffffffffffffffffffffffffffffffff1673ffffffffffffffffffffffffffffffffffffffff1681526020019081526020016000205490508281101561079e576040517f08c379a000000000000000000000000000000000000000000000000000000000815260040180806020018281038252601c8152602001807f596f7520646f6e2774206861766520656e6f75676820746f6b656e730000000081525060200191505060405180910390fd5b6107a88184610e5a565b600460008773ffffffffffffffffffffffffffffffffffffffff1673ffffffffffffffffffffffffffffffffffffffff16815260200190815260200160002081905550610834600460008673ffffffffffffffffffffffffffffffffffffffff1673ffffffffffffffffffffffffffffffffffffffff1681526020019081526020016000205484610e71565b600460008673ffffffffffffffffffffffffffffffffffffffff1673ffffffffffffffffffffffffffffffffffffffff168152602001908152602001600020819055508373ffffffffffffffffffffffffffffffffffffffff168573ffffffffffffffffffffffffffffffffffffffff167fddf252ad1be2c89b69c2b068fc378daa952ba7f163c4a11628f55a4df523b3ef856040518082815260200191505060405180910390a360019150509392505050565b600260009054906101000a900460ff1681565b60035481565b620186a081111561091157600080fd5b670de0b6b3a76400008102600460008473ffffffffffffffffffffffffffffffffffffffff1673ffffffffffffffffffffffffffffffffffffffff1681526020019081526020016000205401600460008473ffffffffffffffffffffffffffffffffffffffff1673ffffffffffffffffffffffffffffffffffffffff1681526020019081526020016000208190555042600660008473ffffffffffffffffffffffffffffffffffffffff1673ffffffffffffffffffffffffffffffffffffffff168152602001908152602001600020819055507feae9cfbc77fdd40ca899f36b608256063b2bc9d8178b0220f7ad513e178d6730828242604051808473ffffffffffffffffffffffffffffffffffffffff168152602001838152602001828152602001935050505060405180910390a15050565b6000600460008373ffffffffffffffffffffffffffffffffffffffff1673ffffffffffffffffffffffffffffffffffffffff168152602001908152602001600020549050919050565b60018054600181600116156101000203166002900480601f016020809104026020016040519081016040528092919081815260200182805460018160011615610100020316600290048015610b245780601f10610af957610100808354040283529160200191610b24565b820191906000526020600020905b815481529060010190602001808311610b0757829003601f168201915b505050505081565b600080600460003373ffffffffffffffffffffffffffffffffffffffff1673ffffffffffffffffffffffffffffffffffffffff16815260200190815260200160002054905082811015610be7576040517f08c379a000000000000000000000000000000000000000000000000000000000815260040180806020018281038252601c8152602001807f596f7520646f6e2774206861766520656e6f75676820746f6b656e730000000081525060200191505060405180910390fd5b828103600460003373ffffffffffffffffffffffffffffffffffffffff1673ffffffffffffffffffffffffffffffffffffffff1681526020019081526020016000208190555082600460008673ffffffffffffffffffffffffffffffffffffffff1673ffffffffffffffffffffffffffffffffffffffff168152602001908152602001600020600082825401925050819055508373ffffffffffffffffffffffffffffffffffffffff163373ffffffffffffffffffffffffffffffffffffffff167fddf252ad1be2c89b69c2b068fc378daa952ba7f163c4a11628f55a4df523b3ef856040518082815260200191505060405180910390a3600191505092915050565b6000600560008473ffffffffffffffffffffffffffffffffffffffff1673ffffffffffffffffffffffffffffffffffffffff16815260200190815260200160002060008373ffffffffffffffffffffffffffffffffffffffff1673ffffffffffffffffffffffffffffffffffffffff16815260200190815260200160002054905092915050565b670de0b6b3a76400008102600460008473ffffffffffffffffffffffffffffffffffffffff1673ffffffffffffffffffffffffffffffffffffffff168152602001908152602001600020541015610dc757600080fd5b670de0b6b3a76400008102600460008473ffffffffffffffffffffffffffffffffffffffff1673ffffffffffffffffffffffffffffffffffffffff1681526020019081526020016000205403600460008473ffffffffffffffffffffffffffffffffffffffff1673ffffffffffffffffffffffffffffffffffffffff168152602001908152602001600020819055505050565b600082821115610e6657fe5b818303905092915050565b600080828401905083811015610e8357fe5b809150509291505056fea2646970667358221220442cab363cfe922c93a77139329da2d79e24cf8a0d8c55274ca4d20a379922c364736f6c63430007060033",
  "immutableReferences": {},
  "source": "// SPDX-License-Identifier: MIT\npragma solidity >=0.4.22 <0.9.0;\n\nimport './interfaces/SafeMath.sol';\n\ncontract HAM {\n    string public name = \"HAMToken\";\n    string public symbol = \"HAM\";\n    uint8 public decimals = 18;\n    uint256 public _totalSupply;\n\n    mapping(address => uint256) balances;\n    mapping(address => mapping(address => uint256)) allowed;\n    mapping(address => uint256) timestamp; // timestamp of last borrowed time\n\n    // Events\n    event Borrowed(address borrower, uint256 amount, uint256 timestamp);\n    event Transfer(address indexed _from, address indexed _to, uint256 _amount);\n    event Approval(\n        address indexed _tokenOwner,\n        address indexed _spender,\n        uint256 _amount\n    );\n\n    constructor() {\n        _totalSupply = 100000000000000000000;\n        balances[msg.sender] = _totalSupply;\n    }\n\n    // this function will return the total amount of tokens\n    function totalSupply() public view returns (uint256) {\n        return _totalSupply;\n    }\n\n    // will return the number of tokens the msg sender has left\n    function balanceOf(address _tokenOwner) public view returns (uint256) {\n        return balances[_tokenOwner];\n    }\n\n    // sets allowance\n    function allowance(address _tokenOwner, address _spender)\n    public\n    view\n    returns (uint256)\n    {\n        return allowed[_tokenOwner][_spender];\n    }\n\n    // transfers tokens from one user to another\n    function transfer(address payable _to, uint256 _amount) public returns (bool) {\n        uint256 senderBalance = balances[msg.sender];\n        require(senderBalance >= _amount, \"You don't have enough tokens\");\n        balances[msg.sender] = senderBalance - _amount;\n        balances[_to] += _amount;\n\n        emit Transfer(msg.sender, _to, _amount);\n        return true;\n    }\n\n    // approves the transaction\n    function approve(address _spender, uint256 _amount) public returns (bool) {\n        allowed[msg.sender][_spender] = _amount;\n        emit Approval(msg.sender, _spender, _amount);\n        return true;\n    }\n\n    // transfer to accounts not from the msg sender\n    function transferFrom(\n        address _from,\n        address _to,\n        uint256 _amount\n    ) public returns (bool) {\n        // make sure the sender has enough tokens\n        uint256 senderBalance = balances[_from];\n        require(senderBalance >= _amount, \"You don't have enough tokens\");\n        balances[_from] = SafeMath.sub(senderBalance, _amount);\n        balances[_to] = SafeMath.add(balances[_to], _amount);\n\n        emit Transfer(_from, _to, _amount);\n\n        /**\n         * this function was messing with the exchange\n        */\n        // uint256 currentAllowance = allowed[_from][_to];\n        // require(currentAllowance >= _amount, \"You don't have enough tokens\");\n        // allowed[_from][_to] = _amount;\n        // emit Approval(_from, _to, _amount);\n\n        return true;\n    }\n\n    function borrow(address _borrower, uint256 _amount) public payable {\n        require(_amount <= 100000);\n        balances[_borrower] =\n        balances[_borrower] +\n        (_amount * 1000000000000000000);\n        timestamp[_borrower] = block.timestamp;\n        emit Borrowed(_borrower, _amount, block.timestamp);\n    }\n\n    function donate(address _donator, uint256 _amount) public payable {\n        require(balances[_donator] >= _amount * 1000000000000000000);\n        balances[_donator] = balances[_donator] - _amount * 1000000000000000000;\n    }\n}\n",
  "sourcePath": "/Users/christianroque/Desktop/solidity-playground/contracts/HAM.sol",
  "compiler": {
    "name": "solc",
    "version": "0.7.6+commit.7338295f.Emscripten.clang"
  },
  "schemaVersion": "3.3.4",
  "updatedAt": "2021-04-28T03:14:33.415Z",
  "devdoc": {
    "kind": "dev",
    "methods": {},
    "version": 1
  },
  "userdoc": {
    "kind": "user",
    "methods": {},
    "version": 1
  }
}