{
  "contractName": "Lottery",
  "abi": [
    {
      "inputs": [],
      "name": "lotteryStatus",
      "outputs": [
        {
          "internalType": "bool",
          "name": "",
          "type": "bool"
        }
      ],
      "stateMutability": "view",
      "type": "function"
    },
    {
      "inputs": [
        {
          "internalType": "address",
          "name": "_newAPI",
          "type": "address"
        }
      ],
      "name": "setAPI",
      "outputs": [],
      "stateMutability": "nonpayable",
      "type": "function"
    },
    {
      "inputs": [
        {
          "internalType": "bool",
          "name": "_status",
          "type": "bool"
        }
      ],
      "name": "setLottery",
      "outputs": [],
      "stateMutability": "nonpayable",
      "type": "function"
    },
    {
      "inputs": [
        {
          "internalType": "uint256",
          "name": "_lotteryTicket",
          "type": "uint256"
        }
      ],
      "name": "getLotteryParticipants",
      "outputs": [
        {
          "internalType": "address[]",
          "name": "",
          "type": "address[]"
        }
      ],
      "stateMutability": "view",
      "type": "function"
    },
    {
      "inputs": [
        {
          "internalType": "uint256",
          "name": "_lotteryTicket",
          "type": "uint256"
        }
      ],
      "name": "getLotteryWinners",
      "outputs": [
        {
          "internalType": "address[]",
          "name": "",
          "type": "address[]"
        }
      ],
      "stateMutability": "view",
      "type": "function"
    },
    {
      "inputs": [
        {
          "internalType": "uint256",
          "name": "_numParticipants",
          "type": "uint256"
        },
        {
          "internalType": "uint256",
          "name": "_numWinners",
          "type": "uint256"
        },
        {
          "internalType": "uint256",
          "name": "_feePrice",
          "type": "uint256"
        },
        {
          "internalType": "uint256",
          "name": "_dateLimit",
          "type": "uint256"
        },
        {
          "internalType": "uint256",
          "name": "_lotteryType",
          "type": "uint256"
        }
      ],
      "name": "createTicket",
      "outputs": [],
      "stateMutability": "nonpayable",
      "type": "function"
    },
    {
      "inputs": [
        {
          "internalType": "uint256",
          "name": "_lotteryTicket",
          "type": "uint256"
        }
      ],
      "name": "buyStakingTicket",
      "outputs": [],
      "stateMutability": "payable",
      "type": "function"
    },
    {
      "inputs": [
        {
          "internalType": "uint256",
          "name": "_lotteryTicket",
          "type": "uint256"
        }
      ],
      "name": "buyLotteryTicket",
      "outputs": [],
      "stateMutability": "payable",
      "type": "function"
    },
    {
      "inputs": [
        {
          "internalType": "uint256[]",
          "name": "_winnerIndex",
          "type": "uint256[]"
        },
        {
          "internalType": "uint256",
          "name": "_lotteryTicket",
          "type": "uint256"
        }
      ],
      "name": "setLotteryWinners",
      "outputs": [],
      "stateMutability": "nonpayable",
      "type": "function"
    },
    {
      "inputs": [],
      "name": "withdrawFunds",
      "outputs": [],
      "stateMutability": "payable",
      "type": "function"
    }
  ],
  "bytecode": "0x608060405234801561001057600080fd5b50610c03806100206000396000f3fe6080604052600436106100915760003560e01c80636cbaa5c6116100595780636cbaa5c614610250578063c949459b1461027e578063cc042897146102ac578063e930fbd31461037b578063e9b29a9d146103b857610091565b80630d683dd91461009657806315d0772c146100c357806324600fc31461012657806361cd6f581461013057806368fb2eba146101c0575b600080fd5b3480156100a257600080fd5b506100ab610409565b60405180821515815260200191505060405180910390f35b3480156100cf57600080fd5b50610124600480360360a08110156100e657600080fd5b81019080803590602001909291908035906020019092919080359060200190929190803590602001909291908035906020019092919050505061041c565b005b61012e610578565b005b34801561013c57600080fd5b506101696004803603602081101561015357600080fd5b810190808035906020019092919050505061057a565b6040518080602001828103825283818151815260200191508051906020019060200280838360005b838110156101ac578082015181840152602081019050610191565b505050509050019250505060405180910390f35b3480156101cc57600080fd5b506101f9600480360360208110156101e357600080fd5b810190808035906020019092919050505061061e565b6040518080602001828103825283818151815260200191508051906020019060200280838360005b8381101561023c578082015181840152602081019050610221565b505050509050019250505060405180910390f35b61027c6004803603602081101561026657600080fd5b81019080803590602001909291905050506106c2565b005b6102aa6004803603602081101561029457600080fd5b81019080803590602001909291905050506106c5565b005b3480156102b857600080fd5b50610379600480360360408110156102cf57600080fd5b81019080803590602001906401000000008111156102ec57600080fd5b8201836020820111156102fe57600080fd5b8035906020019184602083028401116401000000008311171561032057600080fd5b919080806020026020016040519081016040528093929190818152602001838360200280828437600081840152601f19601f820116905080830192505050505050509192919290803590602001909291905050506108d6565b005b34801561038757600080fd5b506103b66004803603602081101561039e57600080fd5b81019080803515159060200190929190505050610a65565b005b3480156103c457600080fd5b50610407600480360360208110156103db57600080fd5b81019080803573ffffffffffffffffffffffffffffffffffffffff169060200190929190505050610a82565b005b600060149054906101000a900460ff1681565b6040518060c001604052808667ffffffffffffffff8111801561043e57600080fd5b5060405190808252806020026020018201604052801561046d5781602001602082028036833780820191505090505b5081526020018567ffffffffffffffff8111801561048a57600080fd5b506040519080825280602002602001820160405280156104b95781602001602082028036833780820191505090505b5081526020018281526020016104cf4285610ac5565b8152602001848152602001600015158152506003600060025481526020019081526020016000206000820151816000019080519060200190610512929190610ae1565b50602082015181600101908051906020019061052f929190610ae1565b5060408201518160020155606082015181600301556080820151816004015560a08201518160050160006101000a81548160ff0219169083151502179055509050505050505050565b565b60606003600083815260200190815260200160002060010180548060200260200160405190810160405280929190818152602001828054801561061257602002820191906000526020600020905b8160009054906101000a900473ffffffffffffffffffffffffffffffffffffffff1673ffffffffffffffffffffffffffffffffffffffff16815260200190600101908083116105c8575b50505050509050919050565b6060600360008381526020019081526020016000206000018054806020026020016040519081016040528092919081815260200182805480156106b657602002820191906000526020600020905b8160009054906101000a900473ffffffffffffffffffffffffffffffffffffffff1673ffffffffffffffffffffffffffffffffffffffff168152602001906001019080831161066c575b50505050509050919050565b50565b8060011515600060149054906101000a900460ff1615151461074f576040517f08c379a000000000000000000000000000000000000000000000000000000000815260040180806020018281038252601c8152602001807f4c6f74746572792069732063757272656e746c79206f66666c696e650000000081525060200191505060405180910390fd5b426003600083815260200190815260200160002060030154106107da576040517f08c379a00000000000000000000000000000000000000000000000000000000081526004018080602001828103825260158152602001807f5469636b657420646f6573206e6f74206578697374000000000000000000000081525060200191505060405180910390fd5b6003600082815260200190815260200160002060040154341015610849576040517f08c379a0000000000000000000000000000000000000000000000000000000008152600401808060200182810382526024815260200180610baa6024913960400191505060405180910390fd5b60036000838152602001908152602001600020600001339080600181540180825580915050600190039060005260206000200160009091909190916101000a81548173ffffffffffffffffffffffffffffffffffffffff021916908373ffffffffffffffffffffffffffffffffffffffff1602179055506108cc60015434610ac5565b6001819055505050565b600015156003600083815260200190815260200160002060050160009054906101000a900460ff16151514610956576040517f08c379a0000000000000000000000000000000000000000000000000000000008152600401808060200182810382526021815260200180610b896021913960400191505060405180910390fd5b60005b8251811015610a31576003600083815260200190815260200160002060010160036000848152602001908152602001600020600001828154811061099957fe5b9060005260206000200160009054906101000a900473ffffffffffffffffffffffffffffffffffffffff169080600181540180825580915050600190039060005260206000200160009091909190916101000a81548173ffffffffffffffffffffffffffffffffffffffff021916908373ffffffffffffffffffffffffffffffffffffffff1602179055508080600101915050610959565b5060016003600083815260200190815260200160002060050160006101000a81548160ff0219169083151502179055505050565b80600060146101000a81548160ff02191690831515021790555050565b806000806101000a81548173ffffffffffffffffffffffffffffffffffffffff021916908373ffffffffffffffffffffffffffffffffffffffff16021790555050565b600080828401905083811015610ad757fe5b8091505092915050565b828054828255906000526020600020908101928215610b5a579160200282015b82811115610b595782518260006101000a81548173ffffffffffffffffffffffffffffffffffffffff021916908373ffffffffffffffffffffffffffffffffffffffff16021790555091602001919060010190610b01565b5b509050610b679190610b6b565b5090565b5b80821115610b84576000816000905550600101610b6c565b509056fe57696e6e657273206861766520616c7265616479206265656e207069636b65642e56616c75652073656e74206973206c657373207468616e207469636b6574207072696365a264697066735822122023fd711e91e7e576c238f9fa6e1b66cfe414fdf9a0804376d290b652641a34a164736f6c63430007060033",
  "immutableReferences": {},
  "source": "// SPDX-License-Identifier: MIT\npragma solidity >=0.4.22 <0.9.0;\n\nimport \"./interfaces/Ownable.sol\";\nimport \"./interfaces/IERC20.sol\";\nimport \"./interfaces/SafeMath.sol\";\nimport \"./interfaces/UniversalERC20.sol\";\nimport \"./ExchangeOracle.sol\";\nimport \"./NFTLoan.sol\";\n\ncontract Lottery {\n    address private API;\n\n    bool public lotteryStatus;\n\n    uint256 totalFeeBalance;\n\n    function setAPI(address _newAPI) public {\n        API = _newAPI;\n    } // Only dev contract // Deployed on Binance\n\n    function setLottery(bool _status) public {\n        lotteryStatus = _status;\n    } // Only dev contract // Deployed on Binance\n\n    // ****************************** Lottery - Staking ******************************\n\n    uint256 lotteryTicketCap;\n\n    struct Lotteryticket {\n        address[] participants;\n        address[] winners;\n        uint256 lotteryType;\n        uint256 dateLimit;\n        uint256 fee;\n        bool pickedWinners;\n    }\n\n    mapping(uint256 => Lotteryticket) lotteryBook;\n\n    function getLotteryParticipants(uint256 _lotteryTicket)\n        public\n        view\n        returns (address[] memory)\n    {\n        return lotteryBook[_lotteryTicket].participants;\n    }\n\n    function getLotteryWinners(uint256 _lotteryTicket)\n        public\n        view\n        returns (address[] memory)\n    {\n        return lotteryBook[_lotteryTicket].winners;\n    }\n\n    modifier validEntry(uint256 _lotteryTicket) {\n        require(lotteryStatus == true, \"Lottery is currently offline\");\n        require(\n            lotteryBook[_lotteryTicket].dateLimit < block.timestamp,\n            \"Ticket does not exist\"\n        );\n\n        require(\n            msg.value >= lotteryBook[_lotteryTicket].fee,\n            \"Value sent is less than ticket price\"\n        );\n        _;\n    }\n\n    function createTicket(\n        uint256 _numParticipants,\n        uint256 _numWinners,\n        uint256 _feePrice,\n        uint256 _dateLimit,\n        uint256 _lotteryType\n    ) public {\n        lotteryBook[lotteryTicketCap] = Lotteryticket(\n            new address[](_numParticipants),\n            new address[](_numWinners),\n            _lotteryType,\n            SafeMath.add(block.timestamp, _dateLimit),\n            _feePrice,\n            false\n        );\n    } // Only dev contract // Deployed on Binance\n\n    function buyStakingTicket(uint256 _lotteryTicket)\n        public\n        payable\n        validEntry(_lotteryTicket)\n    {\n        lotteryBook[_lotteryTicket].participants.push(msg.sender);\n        totalFeeBalance = SafeMath.add(totalFeeBalance, msg.value);\n    }\n\n    function buyLotteryTicket(uint256 _lotteryTicket) public payable {}\n\n    function setLotteryWinners(\n        uint256[] memory _winnerIndex,\n        uint256 _lotteryTicket\n    ) public {\n        require(\n            lotteryBook[_lotteryTicket].pickedWinners == false,\n            \"Winners have already been picked.\"\n        );\n        for (uint256 i = 0; i < _winnerIndex.length; i++) {\n            lotteryBook[_lotteryTicket].winners.push(\n                lotteryBook[_lotteryTicket].participants[i]\n            );\n        }\n        lotteryBook[_lotteryTicket].pickedWinners = true;\n    } // Only dev contract // Deployed on Binance\n\n    // ************************** Contract fee withdraw *************************\n\n    function withdrawFunds() public payable {}\n}\n",
  "sourcePath": "/Users/christianroque/Desktop/TungstenGroupProject/contracts/Lottery.sol",
  "compiler": {
    "name": "solc",
    "version": "0.7.6+commit.7338295f.Emscripten.clang"
  },
  "schemaVersion": "3.3.4",
  "updatedAt": "2021-06-24T21:59:20.065Z",
  "devdoc": {
    "kind": "dev",
    "methods": {},
    "version": 1
  },
  "userdoc": {
    "kind": "user",
    "methods": {},
    "version": 1
  }
}