{
  "contractName": "NFTLoan",
  "abi": [
    {
      "anonymous": false,
      "inputs": [
        {
          "indexed": true,
          "internalType": "address",
          "name": "_from",
          "type": "address"
        },
        {
          "indexed": true,
          "internalType": "address",
          "name": "_to",
          "type": "address"
        },
        {
          "indexed": true,
          "internalType": "uint256",
          "name": "_tokenId",
          "type": "uint256"
        }
      ],
      "name": "Transfer",
      "type": "event"
    },
    {
      "inputs": [
        {
          "internalType": "address",
          "name": "_owner",
          "type": "address"
        }
      ],
      "name": "balanceOf",
      "outputs": [
        {
          "internalType": "uint256",
          "name": "",
          "type": "uint256"
        }
      ],
      "stateMutability": "view",
      "type": "function"
    },
    {
      "inputs": [
        {
          "internalType": "uint256",
          "name": "_tokenId",
          "type": "uint256"
        }
      ],
      "name": "ownerOf",
      "outputs": [
        {
          "internalType": "address",
          "name": "_owner",
          "type": "address"
        }
      ],
      "stateMutability": "view",
      "type": "function"
    },
    {
      "inputs": [],
      "name": "name",
      "outputs": [
        {
          "internalType": "string",
          "name": "_name",
          "type": "string"
        }
      ],
      "stateMutability": "view",
      "type": "function"
    },
    {
      "inputs": [
        {
          "internalType": "address",
          "name": "_to",
          "type": "address"
        },
        {
          "internalType": "uint256",
          "name": "_tokenId",
          "type": "uint256"
        },
        {
          "internalType": "string",
          "name": "_uri",
          "type": "string"
        }
      ],
      "name": "mint",
      "outputs": [],
      "stateMutability": "nonpayable",
      "type": "function"
    },
    {
      "inputs": [
        {
          "internalType": "address",
          "name": "_from",
          "type": "address"
        },
        {
          "internalType": "address",
          "name": "_to",
          "type": "address"
        },
        {
          "internalType": "uint256",
          "name": "_tokenId",
          "type": "uint256"
        }
      ],
      "name": "safeTransferFrom",
      "outputs": [],
      "stateMutability": "nonpayable",
      "type": "function"
    }
  ],
  "bytecode": "0x608060405234801561001057600080fd5b50610c16806100206000396000f3fe608060405234801561001057600080fd5b50600436106100575760003560e01c806306fdde031461005c57806342842e0e146100df5780636352211e1461014d57806370a08231146101a5578063d3fc9864146101fd575b600080fd5b6100646102e2565b6040518080602001828103825283818151815260200191508051906020019080838360005b838110156100a4578082015181840152602081019050610089565b50505050905090810190601f1680156100d15780820380516001836020036101000a031916815260200191505b509250505060405180910390f35b61014b600480360360608110156100f557600080fd5b81019080803573ffffffffffffffffffffffffffffffffffffffff169060200190929190803573ffffffffffffffffffffffffffffffffffffffff16906020019092919080359060200190929190505050610384565b005b6101796004803603602081101561016357600080fd5b8101908080359060200190929190505050610394565b604051808273ffffffffffffffffffffffffffffffffffffffff16815260200191505060405180910390f35b6101e7600480360360208110156101bb57600080fd5b81019080803573ffffffffffffffffffffffffffffffffffffffff16906020019092919050505061040b565b6040518082815260200191505060405180910390f35b6102e06004803603606081101561021357600080fd5b81019080803573ffffffffffffffffffffffffffffffffffffffff169060200190929190803590602001909291908035906020019064010000000081111561025a57600080fd5b82018360208201111561026c57600080fd5b8035906020019184600183028401116401000000008311171561028e57600080fd5b91908080601f016020809104026020016040519081016040528093929190818152602001838380828437600081840152601f19601f820116905080830192505050505050509192919290505050610456565b005b606060008054600181600116156101000203166002900480601f01602080910402602001604051908101604052809291908181526020018280546001816001161561010002031660029004801561037a5780601f1061034f5761010080835404028352916020019161037a565b820191906000526020600020905b81548152906001019060200180831161035d57829003601f168201915b5050505050905090565b61038f83838361046f565b505050565b60006001600083815260200190815260200160002060009054906101000a900473ffffffffffffffffffffffffffffffffffffffff169050600073ffffffffffffffffffffffffffffffffffffffff168173ffffffffffffffffffffffffffffffffffffffff16141561040657600080fd5b919050565b60008073ffffffffffffffffffffffffffffffffffffffff168273ffffffffffffffffffffffffffffffffffffffff16141561044657600080fd5b61044f8261060b565b9050919050565b6104608383610654565b61046a8282610764565b505050565b8060006001600083815260200190815260200160002060009054906101000a900473ffffffffffffffffffffffffffffffffffffffff1690503373ffffffffffffffffffffffffffffffffffffffff168173ffffffffffffffffffffffffffffffffffffffff16146104e057600080fd5b82600073ffffffffffffffffffffffffffffffffffffffff166001600083815260200190815260200160002060009054906101000a900473ffffffffffffffffffffffffffffffffffffffff1673ffffffffffffffffffffffffffffffffffffffff16141561054e57600080fd5b60006001600086815260200190815260200160002060009054906101000a900473ffffffffffffffffffffffffffffffffffffffff1690508673ffffffffffffffffffffffffffffffffffffffff168173ffffffffffffffffffffffffffffffffffffffff16146105be57600080fd5b600073ffffffffffffffffffffffffffffffffffffffff168673ffffffffffffffffffffffffffffffffffffffff1614156105f857600080fd5b6106028686610816565b50505050505050565b6000600260008373ffffffffffffffffffffffffffffffffffffffff1673ffffffffffffffffffffffffffffffffffffffff168152602001908152602001600020549050919050565b600073ffffffffffffffffffffffffffffffffffffffff168273ffffffffffffffffffffffffffffffffffffffff16141561068e57600080fd5b600073ffffffffffffffffffffffffffffffffffffffff166001600083815260200190815260200160002060009054906101000a900473ffffffffffffffffffffffffffffffffffffffff1673ffffffffffffffffffffffffffffffffffffffff16146106fa57600080fd5b61070482826108c2565b808273ffffffffffffffffffffffffffffffffffffffff16600073ffffffffffffffffffffffffffffffffffffffff167fddf252ad1be2c89b69c2b068fc378daa952ba7f163c4a11628f55a4df523b3ef60405160405180910390a45050565b81600073ffffffffffffffffffffffffffffffffffffffff166001600083815260200190815260200160002060009054906101000a900473ffffffffffffffffffffffffffffffffffffffff1673ffffffffffffffffffffffffffffffffffffffff1614156107d257600080fd5b816003600085815260200190815260200160002090805190602001906107f9929190610b35565b508160009080519060200190610810929190610b35565b50505050565b60006001600083815260200190815260200160002060009054906101000a900473ffffffffffffffffffffffffffffffffffffffff1690506108588183610a0a565b61086283836108c2565b818373ffffffffffffffffffffffffffffffffffffffff168273ffffffffffffffffffffffffffffffffffffffff167fddf252ad1be2c89b69c2b068fc378daa952ba7f163c4a11628f55a4df523b3ef60405160405180910390a4505050565b600073ffffffffffffffffffffffffffffffffffffffff166001600083815260200190815260200160002060009054906101000a900473ffffffffffffffffffffffffffffffffffffffff1673ffffffffffffffffffffffffffffffffffffffff161461092e57600080fd5b816001600083815260200190815260200160002060006101000a81548173ffffffffffffffffffffffffffffffffffffffff021916908373ffffffffffffffffffffffffffffffffffffffff1602179055506001600260008473ffffffffffffffffffffffffffffffffffffffff1673ffffffffffffffffffffffffffffffffffffffff1681526020019081526020016000205401600260008473ffffffffffffffffffffffffffffffffffffffff1673ffffffffffffffffffffffffffffffffffffffff168152602001908152602001600020819055505050565b8173ffffffffffffffffffffffffffffffffffffffff166001600083815260200190815260200160002060009054906101000a900473ffffffffffffffffffffffffffffffffffffffff1673ffffffffffffffffffffffffffffffffffffffff1614610a7557600080fd5b6001600260008473ffffffffffffffffffffffffffffffffffffffff1673ffffffffffffffffffffffffffffffffffffffff1681526020019081526020016000205403600260008473ffffffffffffffffffffffffffffffffffffffff1673ffffffffffffffffffffffffffffffffffffffff168152602001908152602001600020819055506001600082815260200190815260200160002060006101000a81549073ffffffffffffffffffffffffffffffffffffffff02191690555050565b828054600181600116156101000203166002900490600052602060002090601f016020900481019282610b6b5760008555610bb2565b82601f10610b8457805160ff1916838001178555610bb2565b82800160010185558215610bb2579182015b82811115610bb1578251825591602001919060010190610b96565b5b509050610bbf9190610bc3565b5090565b5b80821115610bdc576000816000905550600101610bc4565b509056fea26469706673582212206f75bb8bef51474ce25496f432cd53933cf41e62bf86b12c24731cd571badca164736f6c63430007060033",
  "immutableReferences": {},
  "source": "pragma solidity >=0.6.0 <0.8.0;\n\ncontract NFTLoan {\n    \n    event Transfer(address indexed _from, address indexed _to, uint256 indexed _tokenId);\n    \n    string internal nftName;\n    \n    // Attaches the NFT id to a particular address\n    mapping (uint256 => address) internal ownerId;\n    \n    // Creates a counter for how many NFTokens an account has\n    mapping (address => uint256) private ownerToNFTokenCount;\n    \n    // Attaches the NFT id to a string for the name\n    mapping (uint256 => string) internal idToUri;\n    \n    \n    function _mint(address _to, uint256 _tokenId) internal virtual {\n        \n        require(_to != address(0)); \n        require(ownerId[_tokenId] == address(0)); \n\n        _addNFToken(_to, _tokenId);\n\n        emit Transfer(address(0), _to, _tokenId);\n    }\n  \n    function _addNFToken(address _to, uint256 _tokenId) internal virtual {\n        require(ownerId[_tokenId] == address(0));\n\n        ownerId[_tokenId] = _to;\n        ownerToNFTokenCount[_to] = ownerToNFTokenCount[_to] + 1;\n    }\n    \n    function _removeNFToken(address _from, uint256 _tokenId) internal virtual {\n        require(ownerId[_tokenId] == _from); \n        ownerToNFTokenCount[_from] = ownerToNFTokenCount[_from] - 1;\n        delete ownerId[_tokenId];\n    }\n  \n    //testing\n    function balanceOf(address _owner) external view returns (uint256) {\n        require(_owner != address(0)); \n        return _getOwnerNFTCount(_owner);\n    }\n  \n    function _getOwnerNFTCount(address _owner) internal virtual view returns (uint256) {\n        return ownerToNFTokenCount[_owner];\n    }\n  \n    //testing\n    function ownerOf(uint256 _tokenId) external view returns (address _owner) {\n        _owner = ownerId[_tokenId];\n        require(_owner != address(0)); \n    }\n    \n    function _setTokenUri(uint256 _tokenId, string memory _uri) internal validNFToken(_tokenId){\n        idToUri[_tokenId] = _uri;\n        nftName = _uri;\n    }\n  \n    modifier validNFToken(uint256 _tokenId) {\n        require(ownerId[_tokenId] != address(0));\n        _;\n    }\n    \n    //testing\n    function name() external view returns (string memory _name) {\n        _name = nftName;\n    }\n    \n    function _safeTransferFrom(address _from, address _to, uint256 _tokenId) private canTransfer(_tokenId) validNFToken(_tokenId) {\n        address tokenOwner = ownerId[_tokenId];\n        require(tokenOwner == _from);\n        require(_to != address(0));\n\n        _transfer(_to, _tokenId);\n    }\n    \n    modifier canTransfer(uint256 _tokenId) {\n        address tokenOwner = ownerId[_tokenId];\n        require(tokenOwner == msg.sender);\n        _;\n    }\n    \n    function _transfer(address _to, uint256 _tokenId) internal {\n        address from = ownerId[_tokenId];\n        _removeNFToken(from, _tokenId);\n        _addNFToken(_to, _tokenId);\n\n        emit Transfer(from, _to, _tokenId);\n    }\n    \n    function mint(address _to, uint256 _tokenId, string memory _uri) public {\n        _mint(_to, _tokenId);\n        _setTokenUri(_tokenId, _uri);\n    }\n    \n    function safeTransferFrom(address _from, address _to, uint256 _tokenId) external {\n        _safeTransferFrom(_from, _to, _tokenId);\n    }\n    \n}\n",
  "sourcePath": "/Users/christianroque/Desktop/solidity-playground/contracts/NFTLoan.sol",
  "compiler": {
    "name": "solc",
    "version": "0.7.6+commit.7338295f.Emscripten.clang"
  },
  "schemaVersion": "3.3.4",
  "updatedAt": "2021-05-06T19:52:33.079Z",
  "devdoc": {
    "kind": "dev",
    "methods": {},
    "version": 1
  },
  "userdoc": {
    "kind": "user",
    "methods": {},
    "version": 1
  }
}