{
  "contractName": "NFTLoan",
  "abi": [
    {
      "inputs": [
        {
          "internalType": "uint256",
          "name": "",
          "type": "uint256"
        }
      ],
      "name": "defaults",
      "outputs": [
        {
          "internalType": "string",
          "name": "",
          "type": "string"
        }
      ],
      "stateMutability": "view",
      "type": "function"
    },
    {
      "inputs": [
        {
          "internalType": "uint256",
          "name": "",
          "type": "uint256"
        }
      ],
      "name": "loan",
      "outputs": [
        {
          "internalType": "address",
          "name": "",
          "type": "address"
        }
      ],
      "stateMutability": "view",
      "type": "function"
    },
    {
      "inputs": [
        {
          "internalType": "uint256",
          "name": "loanId",
          "type": "uint256"
        }
      ],
      "name": "addingLoan",
      "outputs": [
        {
          "internalType": "uint256",
          "name": "",
          "type": "uint256"
        }
      ],
      "stateMutability": "nonpayable",
      "type": "function"
    },
    {
      "inputs": [],
      "name": "getLoan",
      "outputs": [
        {
          "internalType": "address[16]",
          "name": "",
          "type": "address[16]"
        }
      ],
      "stateMutability": "view",
      "type": "function"
    },
    {
      "inputs": [
        {
          "internalType": "string",
          "name": "_loan",
          "type": "string"
        }
      ],
      "name": "mint",
      "outputs": [],
      "stateMutability": "nonpayable",
      "type": "function"
    }
  ],
  "bytecode": "0x608060405234801561001057600080fd5b50610807806100206000396000f3fe608060405234801561001057600080fd5b50600436106100575760003560e01c8063365a53061461005c5780634859b3f4146100b4578063c7ea21fe146100fa578063d85d3d271461013c578063ff868f29146101f7575b600080fd5b6100886004803603602081101561007257600080fd5b810190808035906020019092919050505061029e565b604051808273ffffffffffffffffffffffffffffffffffffffff16815260200191505060405180910390f35b6100bc6102d4565b6040518082601060200280838360005b838110156100e75780820151818401526020810190506100cc565b5050505090500191505060405180910390f35b6101266004803603602081101561011057600080fd5b8101908080359060200190929190505050610355565b6040518082815260200191505060405180910390f35b6101f56004803603602081101561015257600080fd5b810190808035906020019064010000000081111561016f57600080fd5b82018360208201111561018157600080fd5b803590602001918460018302840111640100000000831117156101a357600080fd5b91908080601f016020809104026020016040519081016040528093929190818152602001838380828437600081840152601f19601f8201169050808301925050505050505091929192905050506103c6565b005b6102236004803603602081101561020d57600080fd5b8101908080359060200190929190505050610523565b6040518080602001828103825283818151815260200191508051906020019080838360005b83811015610263578082015181840152602081019050610248565b50505050905090810190601f1680156102905780820380516001836020036101000a031916815260200191505b509250505060405180910390f35b600081601081106102ae57600080fd5b016000915054906101000a900473ffffffffffffffffffffffffffffffffffffffff1681565b6102dc610703565b600060108060200260405190810160405280929190826010801561034b576020028201915b8160009054906101000a900473ffffffffffffffffffffffffffffffffffffffff1673ffffffffffffffffffffffffffffffffffffffff1681526020019060010190808311610301575b5050505050905090565b60008082101580156103685750600f8211155b61037157600080fd5b336000836010811061037f57fe5b0160006101000a81548173ffffffffffffffffffffffffffffffffffffffff021916908373ffffffffffffffffffffffffffffffffffffffff160217905550819050919050565b6015816040518082805190602001908083835b602083106103fc57805182526020820191506020810190506020830392506103d9565b6001836020036101000a038019825116818451168082178552505050505050905001915050908152602001604051809103902060009054906101000a900460ff161561044757600080fd5b601481908060018154018082558091505060019003906000526020600020016000909190919091509080519060200190610482929190610726565b5060016014805490500360128190555061049e336012546105df565b60016015826040518082805190602001908083835b602083106104d657805182526020820191506020810190506020830392506104b3565b6001836020036101000a038019825116818451168082178552505050505050905001915050908152602001604051809103902060006101000a81548160ff02191690831515021790555050565b6014818154811061053357600080fd5b906000526020600020016000915090508054600181600116156101000203166002900480601f0160208091040260200160405190810160405280929190818152602001828054600181600116156101000203166002900480156105d75780601f106105ac576101008083540402835291602001916105d7565b820191906000526020600020905b8154815290600101906020018083116105ba57829003601f168201915b505050505081565b6105e982826105f6565b6105f2816106ba565b5050565b601660008373ffffffffffffffffffffffffffffffffffffffff1673ffffffffffffffffffffffffffffffffffffffff168152602001908152602001600020805490506017600083815260200190815260200160002081905550601660008373ffffffffffffffffffffffffffffffffffffffff1673ffffffffffffffffffffffffffffffffffffffff1681526020019081526020016000208190806001815401808255809150506001900390600052602060002001600090919091909150555050565b6018805490506019600083815260200190815260200160002081905550601881908060018154018082558091505060019003906000526020600020016000909190919091505550565b604051806102000160405280601090602082028036833780820191505090505090565b828054600181600116156101000203166002900490600052602060002090601f01602090048101928261075c57600085556107a3565b82601f1061077557805160ff19168380011785556107a3565b828001600101855582156107a3579182015b828111156107a2578251825591602001919060010190610787565b5b5090506107b091906107b4565b5090565b5b808211156107cd5760008160009055506001016107b5565b509056fea264697066735822122085ec1e59bdf3bc654058e1c6dba3feb087f768bab0801e1b3999458d60d3848764736f6c63430007060033",
  "immutableReferences": {},
  "source": "// SPDX-License-Identifier: MIT\r\n\r\n/*\r\nname\r\nsymbol\r\nRisk Factor\r\n# of Collateral\r\nPast & Current Loans:\r\nLoan Amount\r\nAmount Remaining\r\nInterest Rate\r\nPayment Details\r\nTime Period on Payments\r\nType of currency\r\nUSD Value\r\nTotal number of payments/loans\r\nTotal Interest\r\n# of Voters - Payout Amount\r\nAny failed loans\r\n\r\nAsk: Do we need to make info public when loan is missed? Isnt it better to just show the voters all the info upfront? What kind of info should we show at the start vs make public?\r\n*/\r\npragma solidity >=0.6.0 <0.8.0;\r\n\r\nimport \"./interfaces/SafeMath.sol\";\r\n\r\ncontract NFTLoan {\r\n    address[16] public loan;\r\n    uint256 item;\r\n    uint256 price;\r\n    uint256 _id;\r\n    bytes32 status;\r\n    string[] public defaults;\r\n\r\n    mapping(string => bool) _loanExists;\r\n    mapping(address => uint256[]) private _ownedTokens;\r\n    mapping(uint256 => uint256) private _ownedTokensIndex;\r\n    uint256[] private _allTokens;\r\n    mapping(uint256 => uint256) private _allTokensIndex;\r\n\r\n    //  Adding Loan\r\n    function addingLoan(uint256 loanId) public returns (uint256) {\r\n        require(loanId >= 0 && loanId <= 15);\r\n\r\n        loan[loanId] = msg.sender;\r\n\r\n        return loanId;\r\n    }\r\n\r\n    // Retrieving the loan\r\n    function getLoan() public view returns (address[16] memory) {\r\n        return loan;\r\n    }\r\n\r\n    function _transferFrom(\r\n        address from,\r\n        address to,\r\n        uint256 tokenId\r\n    ) internal {\r\n        _removeTokenFromOwnerEnumeration(from, tokenId);\r\n\r\n        _addTokenToOwnerEnumeration(to, tokenId);\r\n    }\r\n\r\n    function _removeTokenFromOwnerEnumeration(address from, uint256 tokenId)\r\n        private\r\n    {\r\n        // To prevent a gap in from's tokens array, we store the last token in the index of the token to delete, and\r\n        // then delete the last slot (swap and pop).\r\n\r\n        uint256 lastTokenIndex = _ownedTokens[from].length - 1;\r\n\r\n        uint256 tokenIndex = _ownedTokensIndex[tokenId];\r\n\r\n        // When the token to delete is the last token, the swap operation is unnecessary\r\n        if (tokenIndex != lastTokenIndex) {\r\n            uint256 lastTokenId = _ownedTokens[from][lastTokenIndex];\r\n\r\n            _ownedTokens[from][tokenIndex] = lastTokenId; // Move the last token to the slot of the to-delete token\r\n            _ownedTokensIndex[lastTokenId] = tokenIndex; // Update the moved token's index\r\n        }\r\n    }\r\n\r\n    function _addTokenToOwnerEnumeration(address to, uint256 tokenId) private {\r\n        _ownedTokensIndex[tokenId] = _ownedTokens[to].length;\r\n        _ownedTokens[to].push(tokenId);\r\n    }\r\n\r\n    function _addTokenToAllTokensEnumeration(uint256 tokenId) private {\r\n        _allTokensIndex[tokenId] = _allTokens.length;\r\n        _allTokens.push(tokenId);\r\n    }\r\n\r\n    function _mint(address to, uint256 tokenId) private {\r\n        _addTokenToOwnerEnumeration(to, tokenId);\r\n\r\n        _addTokenToAllTokensEnumeration(tokenId);\r\n    }\r\n\r\n    // Mint Loan\r\n    function mint(string memory _loan) public {\r\n        require(!_loanExists[_loan]);\r\n        defaults.push(_loan);\r\n        _id = defaults.length -1;\r\n        _mint(msg.sender, _id);\r\n        _loanExists[_loan] = true;\r\n    }\r\n}\r\n",
  "sourcePath": "D:/TGProject/TungstenGroupProject/contracts/NFTLoan.sol",
  "compiler": {
    "name": "solc",
    "version": "0.7.6+commit.7338295f.Emscripten.clang"
  },
  "schemaVersion": "3.3.4",
  "updatedAt": "2021-05-06T11:57:53.760Z",
  "devdoc": {
    "kind": "dev",
    "methods": {},
    "version": 1
  },
  "userdoc": {
    "kind": "user",
    "methods": {},
    "version": 1
  }
}