{
  "contractName": "NFTLoan",
  "abi": [
    {
      "anonymous": false,
      "inputs": [
        {
          "indexed": true,
          "internalType": "address",
          "name": "_from",
          "type": "address"
        },
        {
          "indexed": true,
          "internalType": "address",
          "name": "_to",
          "type": "address"
        },
        {
          "indexed": true,
          "internalType": "uint256",
          "name": "_tokenId",
          "type": "uint256"
        }
      ],
      "name": "Transfer",
      "type": "event"
    },
    {
      "inputs": [
        {
          "internalType": "uint256",
          "name": "",
          "type": "uint256"
        }
      ],
      "name": "idToUri",
      "outputs": [
        {
          "internalType": "string",
          "name": "",
          "type": "string"
        }
      ],
      "stateMutability": "view",
      "type": "function"
    },
    {
      "inputs": [
        {
          "internalType": "address",
          "name": "_owner",
          "type": "address"
        }
      ],
      "name": "balanceOf",
      "outputs": [
        {
          "internalType": "uint256",
          "name": "",
          "type": "uint256"
        }
      ],
      "stateMutability": "view",
      "type": "function"
    },
    {
      "inputs": [
        {
          "internalType": "uint256",
          "name": "_tokenId",
          "type": "uint256"
        }
      ],
      "name": "ownerOf",
      "outputs": [
        {
          "internalType": "address",
          "name": "_owner",
          "type": "address"
        }
      ],
      "stateMutability": "view",
      "type": "function"
    },
    {
      "inputs": [],
      "name": "name",
      "outputs": [
        {
          "internalType": "string",
          "name": "_name",
          "type": "string"
        }
      ],
      "stateMutability": "view",
      "type": "function"
    },
    {
      "inputs": [
        {
          "internalType": "address",
          "name": "_to",
          "type": "address"
        },
        {
          "internalType": "uint256",
          "name": "_tokenId",
          "type": "uint256"
        },
        {
          "internalType": "uint256",
          "name": "_nonceId",
          "type": "uint256"
        },
        {
          "internalType": "string",
          "name": "_uri",
          "type": "string"
        }
      ],
      "name": "mintBorrower",
      "outputs": [],
      "stateMutability": "nonpayable",
      "type": "function"
    },
    {
      "inputs": [
        {
          "internalType": "address",
          "name": "_to",
          "type": "address"
        },
        {
          "internalType": "uint256",
          "name": "_tokenId",
          "type": "uint256"
        },
        {
          "internalType": "string",
          "name": "_uri",
          "type": "string"
        }
      ],
      "name": "mintVoter",
      "outputs": [],
      "stateMutability": "nonpayable",
      "type": "function"
    },
    {
      "inputs": [
        {
          "internalType": "address",
          "name": "_from",
          "type": "address"
        },
        {
          "internalType": "address",
          "name": "_to",
          "type": "address"
        },
        {
          "internalType": "uint256",
          "name": "_tokenId",
          "type": "uint256"
        }
      ],
      "name": "safeTransferFrom",
      "outputs": [],
      "stateMutability": "nonpayable",
      "type": "function"
    }
  ],
  "bytecode": "0x608060405234801561001057600080fd5b5061108d806100206000396000f3fe608060405234801561001057600080fd5b506004361061007d5760003560e01c80636352211e1161005b5780636352211e1461026257806370a08231146102ba57806386895f8b14610312578063e6fb9e94146103f75761007d565b806306fdde03146100825780632cd016c41461010557806342842e0e146101f4575b600080fd5b61008a61049e565b6040518080602001828103825283818151815260200191508051906020019080838360005b838110156100ca5780820151818401526020810190506100af565b50505050905090810190601f1680156100f75780820380516001836020036101000a031916815260200191505b509250505060405180910390f35b6101f26004803603608081101561011b57600080fd5b81019080803573ffffffffffffffffffffffffffffffffffffffff16906020019092919080359060200190929190803590602001909291908035906020019064010000000081111561016c57600080fd5b82018360208201111561017e57600080fd5b803590602001918460018302840111640100000000831117156101a057600080fd5b91908080601f016020809104026020016040519081016040528093929190818152602001838380828437600081840152601f19601f820116905080830192505050505050509192919290505050610540565b005b6102606004803603606081101561020a57600080fd5b81019080803573ffffffffffffffffffffffffffffffffffffffff169060200190929190803573ffffffffffffffffffffffffffffffffffffffff1690602001909291908035906020019092919050505061057b565b005b61028e6004803603602081101561027857600080fd5b810190808035906020019092919050505061058b565b604051808273ffffffffffffffffffffffffffffffffffffffff16815260200191505060405180910390f35b6102fc600480360360208110156102d057600080fd5b81019080803573ffffffffffffffffffffffffffffffffffffffff169060200190929190505050610602565b6040518082815260200191505060405180910390f35b6103f56004803603606081101561032857600080fd5b81019080803573ffffffffffffffffffffffffffffffffffffffff169060200190929190803590602001909291908035906020019064010000000081111561036f57600080fd5b82018360208201111561038157600080fd5b803590602001918460018302840111640100000000831117156103a357600080fd5b91908080601f016020809104026020016040519081016040528093929190818152602001838380828437600081840152601f19601f82011690508083019250505050505050919291929050505061064d565b005b6104236004803603602081101561040d57600080fd5b8101908080359060200190929190505050610666565b6040518080602001828103825283818151815260200191508051906020019080838360005b83811015610463578082015181840152602081019050610448565b50505050905090810190601f1680156104905780820380516001836020036101000a031916815260200191505b509250505060405180910390f35b606060008054600181600116156101000203166002900480601f0160208091040260200160405190810160405280929190818152602001828054600181600116156101000203166002900480156105365780601f1061050b57610100808354040283529160200191610536565b820191906000526020600020905b81548152906001019060200180831161051957829003601f168201915b5050505050905090565b8060009080519060200190610556929190610fac565b506105618484610716565b61056b8483610825565b6105758382610934565b50505050565b6105868383836109e6565b505050565b60006001600083815260200190815260200160002060009054906101000a900473ffffffffffffffffffffffffffffffffffffffff169050600073ffffffffffffffffffffffffffffffffffffffff168173ffffffffffffffffffffffffffffffffffffffff1614156105fd57600080fd5b919050565b60008073ffffffffffffffffffffffffffffffffffffffff168273ffffffffffffffffffffffffffffffffffffffff16141561063d57600080fd5b61064682610b82565b9050919050565b6106578282610934565b6106618383610716565b505050565b60046020528060005260406000206000915090508054600181600116156101000203166002900480601f01602080910402602001604051908101604052809291908181526020018280546001816001161561010002031660029004801561070e5780601f106106e35761010080835404028352916020019161070e565b820191906000526020600020905b8154815290600101906020018083116106f157829003601f168201915b505050505081565b600073ffffffffffffffffffffffffffffffffffffffff168273ffffffffffffffffffffffffffffffffffffffff16141561075057600080fd5b600073ffffffffffffffffffffffffffffffffffffffff166001600083815260200190815260200160002060009054906101000a900473ffffffffffffffffffffffffffffffffffffffff1673ffffffffffffffffffffffffffffffffffffffff16146107bc57600080fd5b6107c68282610bcb565b808273ffffffffffffffffffffffffffffffffffffffff163073ffffffffffffffffffffffffffffffffffffffff167fddf252ad1be2c89b69c2b068fc378daa952ba7f163c4a11628f55a4df523b3ef60405160405180910390a45050565b600073ffffffffffffffffffffffffffffffffffffffff168273ffffffffffffffffffffffffffffffffffffffff16141561085f57600080fd5b600073ffffffffffffffffffffffffffffffffffffffff166002600083815260200190815260200160002060009054906101000a900473ffffffffffffffffffffffffffffffffffffffff1673ffffffffffffffffffffffffffffffffffffffff16146108cb57600080fd5b6108d58282610d13565b808273ffffffffffffffffffffffffffffffffffffffff163073ffffffffffffffffffffffffffffffffffffffff167fddf252ad1be2c89b69c2b068fc378daa952ba7f163c4a11628f55a4df523b3ef60405160405180910390a45050565b81600073ffffffffffffffffffffffffffffffffffffffff166001600083815260200190815260200160002060009054906101000a900473ffffffffffffffffffffffffffffffffffffffff1673ffffffffffffffffffffffffffffffffffffffff1614156109a257600080fd5b816004600085815260200190815260200160002090805190602001906109c9929190610fac565b5081600090805190602001906109e0929190610fac565b50505050565b8060006001600083815260200190815260200160002060009054906101000a900473ffffffffffffffffffffffffffffffffffffffff1690503373ffffffffffffffffffffffffffffffffffffffff168173ffffffffffffffffffffffffffffffffffffffff1614610a5757600080fd5b82600073ffffffffffffffffffffffffffffffffffffffff166001600083815260200190815260200160002060009054906101000a900473ffffffffffffffffffffffffffffffffffffffff1673ffffffffffffffffffffffffffffffffffffffff161415610ac557600080fd5b60006001600086815260200190815260200160002060009054906101000a900473ffffffffffffffffffffffffffffffffffffffff1690508673ffffffffffffffffffffffffffffffffffffffff168173ffffffffffffffffffffffffffffffffffffffff1614610b3557600080fd5b600073ffffffffffffffffffffffffffffffffffffffff168673ffffffffffffffffffffffffffffffffffffffff161415610b6f57600080fd5b610b798686610dd5565b50505050505050565b6000600360008373ffffffffffffffffffffffffffffffffffffffff1673ffffffffffffffffffffffffffffffffffffffff168152602001908152602001600020549050919050565b600073ffffffffffffffffffffffffffffffffffffffff166001600083815260200190815260200160002060009054906101000a900473ffffffffffffffffffffffffffffffffffffffff1673ffffffffffffffffffffffffffffffffffffffff1614610c3757600080fd5b816001600083815260200190815260200160002060006101000a81548173ffffffffffffffffffffffffffffffffffffffff021916908373ffffffffffffffffffffffffffffffffffffffff1602179055506001600360008473ffffffffffffffffffffffffffffffffffffffff1673ffffffffffffffffffffffffffffffffffffffff1681526020019081526020016000205401600360008473ffffffffffffffffffffffffffffffffffffffff1673ffffffffffffffffffffffffffffffffffffffff168152602001908152602001600020819055505050565b600073ffffffffffffffffffffffffffffffffffffffff166002600083815260200190815260200160002060009054906101000a900473ffffffffffffffffffffffffffffffffffffffff1673ffffffffffffffffffffffffffffffffffffffff1614610d7f57600080fd5b816002600083815260200190815260200160002060006101000a81548173ffffffffffffffffffffffffffffffffffffffff021916908373ffffffffffffffffffffffffffffffffffffffff1602179055505050565b60006001600083815260200190815260200160002060009054906101000a900473ffffffffffffffffffffffffffffffffffffffff169050610e178183610e81565b610e218383610bcb565b818373ffffffffffffffffffffffffffffffffffffffff168273ffffffffffffffffffffffffffffffffffffffff167fddf252ad1be2c89b69c2b068fc378daa952ba7f163c4a11628f55a4df523b3ef60405160405180910390a4505050565b8173ffffffffffffffffffffffffffffffffffffffff166001600083815260200190815260200160002060009054906101000a900473ffffffffffffffffffffffffffffffffffffffff1673ffffffffffffffffffffffffffffffffffffffff1614610eec57600080fd5b6001600360008473ffffffffffffffffffffffffffffffffffffffff1673ffffffffffffffffffffffffffffffffffffffff1681526020019081526020016000205403600360008473ffffffffffffffffffffffffffffffffffffffff1673ffffffffffffffffffffffffffffffffffffffff168152602001908152602001600020819055506001600082815260200190815260200160002060006101000a81549073ffffffffffffffffffffffffffffffffffffffff02191690555050565b828054600181600116156101000203166002900490600052602060002090601f016020900481019282610fe25760008555611029565b82601f10610ffb57805160ff1916838001178555611029565b82800160010185558215611029579182015b8281111561102857825182559160200191906001019061100d565b5b509050611036919061103a565b5090565b5b8082111561105357600081600090555060010161103b565b509056fea2646970667358221220c14d3006a8268b64d70d815dd88c5ca51fe8988a3c4f6382240e3758e9e717f764736f6c63430007060033",
  "immutableReferences": {},
  "source": "// SPDX-License-Identifier: MIT\npragma solidity >=0.6.0 <0.8.0;\n\ncontract NFTLoan {\n    // Events\n    event Transfer(\n        address indexed _from,\n        address indexed _to,\n        uint256 indexed _tokenId\n    );\n\n    //\n    string internal nftName;\n    \n    //mapping(uint256 => string) internal nftNames;\n\n    // Attaches the NFT id to a particular address\n    mapping(uint256 => address) internal ownerId;\n    \n    // Attaches the Nonce id to the address\n    mapping(uint256 => address) internal ownerNonceId;\n\n    // Creates a counter for how many NFTokens an account has\n    //\n    // NOTE ----- Might not need this - We can create another NFT inside\n    // another mapping. This should happen on minting.\n    mapping(address => uint256) private ownerToNFTokenCount;\n\n    // Attaches the NFT id to a string for the name\n    //\n    // NOTE --- No need to attach it to a string ID\n    mapping(uint256 => string) public idToUri;\n\n    function _mint(address _to, uint256 _tokenId) internal virtual {\n        require(_to != address(0));\n        require(ownerId[_tokenId] == address(0));\n\n        _addNFToken(_to, _tokenId);\n        // Create a struct for 3 diff values: risk score, risk factor, interest\n        // use 4 uint64 \n        \n        // Changed address of event to this\n        emit Transfer(address(this), _to, _tokenId);\n    }\n    \n    // Created a separate mint function for the NFT that will hold the Nonce\n    // This NFT will have its own id, but as for right now both nfts will hold the same name\n    function _mintNonce(address _to, uint256 _nonceId) internal virtual {\n        require(_to != address(0));\n        require(ownerNonceId[_nonceId] == address(0));\n        \n        _addNFTNonce(_to, _nonceId);\n        \n        emit Transfer(address(this), _to, _nonceId);\n    }\n\n    function _addNFToken(address _to, uint256 _tokenId) internal virtual {\n        require(ownerId[_tokenId] == address(0));\n\n        // Next step would be encrypt the information\n        // Create a struct inside the mapping or a different mapping\n        // where we could store the data\n        ownerId[_tokenId] = _to;\n        ownerToNFTokenCount[_to] = ownerToNFTokenCount[_to] + 1;\n    }\n    \n    \n    //Does not add to the counter but attaches the owner address to \"_to\" so that ids cant be replicated\n    //Not sure how to implement the other regular functions with the nonceNFT (like _removeNFToken)\n    function _addNFTNonce(address _to, uint256 _nonceId) internal virtual {\n        require(ownerNonceId[_nonceId] == address(0));\n        ownerNonceId[_nonceId] = _to;\n    }\n\n    function _removeNFToken(address _from, uint256 _tokenId) internal virtual {\n        require(ownerId[_tokenId] == _from);\n        ownerToNFTokenCount[_from] = ownerToNFTokenCount[_from] - 1;\n        delete ownerId[_tokenId];\n    }\n\n    // Testing\n    function balanceOf(address _owner) external view returns (uint256) {\n        require(_owner != address(0));\n        return _getOwnerNFTCount(_owner);\n    }\n\n    function _getOwnerNFTCount(address _owner)\n        internal\n        view\n        virtual\n        returns (uint256)\n    {\n        return ownerToNFTokenCount[_owner];\n    }\n\n    // Testing\n    function ownerOf(uint256 _tokenId) external view returns (address _owner) {\n        _owner = ownerId[_tokenId];\n        require(_owner != address(0));\n    }\n\n    // Might have to get rid off -- We are accessing the NFT using just wallet address\n    function _setTokenUri(uint256 _tokenId, string memory _uri)\n        internal\n        validNFToken(_tokenId)\n    {\n        idToUri[_tokenId] = _uri;\n        nftName = _uri;\n    }\n\n    // Looks good -- Only needs to be accessed by the Oracle after validation goes through\n    modifier validNFToken(uint256 _tokenId) {\n        require(ownerId[_tokenId] != address(0));\n        _;\n    }\n\n    //testing\n    function name() external view returns (string memory _name) {\n        _name = nftName;\n    }\n\n    function _safeTransferFrom(\n        address _from,\n        address _to,\n        uint256 _tokenId\n    ) private canTransfer(_tokenId) validNFToken(_tokenId) {\n        address tokenOwner = ownerId[_tokenId];\n        require(tokenOwner == _from);\n        require(_to != address(0));\n\n        _transfer(_to, _tokenId);\n    }\n\n    modifier canTransfer(uint256 _tokenId) {\n        address tokenOwner = ownerId[_tokenId];\n        require(tokenOwner == msg.sender);\n        _;\n    }\n\n    function _transfer(address _to, uint256 _tokenId) internal {\n        address from = ownerId[_tokenId];\n        _removeNFToken(from, _tokenId);\n        _addNFToken(_to, _tokenId);\n\n        emit Transfer(from, _to, _tokenId);\n    }\n\n    // Mint is can be the entry point where we check if the Oracle\n    // gave this wallet a greenlight and is ready to create the NFT\n    // Implmented the nonce function in this so that everything can be called at once\n    function mintBorrower(\n        address _to,\n        uint256 _tokenId,\n        uint256 _nonceId,\n        string memory _uri\n    ) public {\n        nftName = _uri;\n        _mint(_to, _tokenId);\n        _mintNonce(_to, _nonceId);\n        _setTokenUri(_tokenId, _uri);\n    }\n    \n    function mintVoter(\n        address _to,\n        uint256 _tokenId,\n        string memory _uri\n    ) public {\n        _setTokenUri(_tokenId, _uri);\n        _mint(_to, _tokenId);\n        }\n\n    function safeTransferFrom(\n        address _from,\n        address _to,\n        uint256 _tokenId\n    ) external {\n        _safeTransferFrom(_from, _to, _tokenId);\n    }\n \n \n    // ------------------------ Future development ----------------------------\n    // Encrypted data\n    // Minting two NFTs -- Encrypted data and key do decrypt it\n    // If user defaults on loan - Both NFTs is automatically transfered to Oracle\n    //\n    // Thoughts\n    // Loans will have a signature generated on loan application - This signature could\n    // be used to link the NFT to the user - It could perhaps be generated on the NFT first\n    // and then given to treasure as the key to generate the loan with.\n    //\n    // Making a payment on loan will connect to the NFT and update the latest loan Status\n    // NFT will handle striking system, colleting strikes on missed payments.\n}\n",
  "sourcePath": "/Users/christianroque/Desktop/TungstenGroupProject/contracts/NFTLoan.sol",
  "compiler": {
    "name": "solc",
    "version": "0.7.6+commit.7338295f.Emscripten.clang"
  },
  "schemaVersion": "3.3.4",
  "updatedAt": "2021-05-21T18:40:02.311Z",
  "devdoc": {
    "kind": "dev",
    "methods": {},
    "version": 1
  },
  "userdoc": {
    "kind": "user",
    "methods": {},
    "version": 1
  }
}