{
  "contractName": "NFTLoan",
  "abi": [
    {
      "anonymous": false,
      "inputs": [
        {
          "indexed": true,
          "internalType": "address",
          "name": "_from",
          "type": "address"
        },
        {
          "indexed": true,
          "internalType": "address",
          "name": "_to",
          "type": "address"
        },
        {
          "indexed": true,
          "internalType": "uint256",
          "name": "_tokenId",
          "type": "uint256"
        }
      ],
      "name": "Transfer",
      "type": "event"
    },
    {
      "inputs": [
        {
          "internalType": "address",
          "name": "_owner",
          "type": "address"
        }
      ],
      "name": "balanceOf",
      "outputs": [
        {
          "internalType": "uint256",
          "name": "",
          "type": "uint256"
        }
      ],
      "stateMutability": "view",
      "type": "function"
    },
    {
      "inputs": [
        {
          "internalType": "uint256",
          "name": "_tokenId",
          "type": "uint256"
        }
      ],
      "name": "ownerOf",
      "outputs": [
        {
          "internalType": "address",
          "name": "_owner",
          "type": "address"
        }
      ],
      "stateMutability": "view",
      "type": "function"
    },
    {
      "inputs": [],
      "name": "name",
      "outputs": [
        {
          "internalType": "string",
          "name": "_name",
          "type": "string"
        }
      ],
      "stateMutability": "view",
      "type": "function"
    },
    {
      "inputs": [
        {
          "internalType": "address",
          "name": "_to",
          "type": "address"
        },
        {
          "internalType": "uint256",
          "name": "_tokenId",
          "type": "uint256"
        },
        {
          "internalType": "string",
          "name": "_uri",
          "type": "string"
        }
      ],
      "name": "mint",
      "outputs": [],
      "stateMutability": "nonpayable",
      "type": "function"
    },
    {
      "inputs": [
        {
          "internalType": "address",
          "name": "_from",
          "type": "address"
        },
        {
          "internalType": "address",
          "name": "_to",
          "type": "address"
        },
        {
          "internalType": "uint256",
          "name": "_tokenId",
          "type": "uint256"
        }
      ],
      "name": "safeTransferFrom",
      "outputs": [],
      "stateMutability": "nonpayable",
      "type": "function"
    }
  ],
  "bytecode": "0x608060405234801561001057600080fd5b50610c15806100206000396000f3fe608060405234801561001057600080fd5b50600436106100575760003560e01c806306fdde031461005c57806342842e0e146100df5780636352211e1461014d57806370a08231146101a5578063d3fc9864146101fd575b600080fd5b6100646102e2565b6040518080602001828103825283818151815260200191508051906020019080838360005b838110156100a4578082015181840152602081019050610089565b50505050905090810190601f1680156100d15780820380516001836020036101000a031916815260200191505b509250505060405180910390f35b61014b600480360360608110156100f557600080fd5b81019080803573ffffffffffffffffffffffffffffffffffffffff169060200190929190803573ffffffffffffffffffffffffffffffffffffffff16906020019092919080359060200190929190505050610384565b005b6101796004803603602081101561016357600080fd5b8101908080359060200190929190505050610394565b604051808273ffffffffffffffffffffffffffffffffffffffff16815260200191505060405180910390f35b6101e7600480360360208110156101bb57600080fd5b81019080803573ffffffffffffffffffffffffffffffffffffffff16906020019092919050505061040b565b6040518082815260200191505060405180910390f35b6102e06004803603606081101561021357600080fd5b81019080803573ffffffffffffffffffffffffffffffffffffffff169060200190929190803590602001909291908035906020019064010000000081111561025a57600080fd5b82018360208201111561026c57600080fd5b8035906020019184600183028401116401000000008311171561028e57600080fd5b91908080601f016020809104026020016040519081016040528093929190818152602001838380828437600081840152601f19601f820116905080830192505050505050509192919290505050610456565b005b606060008054600181600116156101000203166002900480601f01602080910402602001604051908101604052809291908181526020018280546001816001161561010002031660029004801561037a5780601f1061034f5761010080835404028352916020019161037a565b820191906000526020600020905b81548152906001019060200180831161035d57829003601f168201915b5050505050905090565b61038f83838361046f565b505050565b60006001600083815260200190815260200160002060009054906101000a900473ffffffffffffffffffffffffffffffffffffffff169050600073ffffffffffffffffffffffffffffffffffffffff168173ffffffffffffffffffffffffffffffffffffffff16141561040657600080fd5b919050565b60008073ffffffffffffffffffffffffffffffffffffffff168273ffffffffffffffffffffffffffffffffffffffff16141561044657600080fd5b61044f8261060b565b9050919050565b6104608383610654565b61046a8282610763565b505050565b8060006001600083815260200190815260200160002060009054906101000a900473ffffffffffffffffffffffffffffffffffffffff1690503373ffffffffffffffffffffffffffffffffffffffff168173ffffffffffffffffffffffffffffffffffffffff16146104e057600080fd5b82600073ffffffffffffffffffffffffffffffffffffffff166001600083815260200190815260200160002060009054906101000a900473ffffffffffffffffffffffffffffffffffffffff1673ffffffffffffffffffffffffffffffffffffffff16141561054e57600080fd5b60006001600086815260200190815260200160002060009054906101000a900473ffffffffffffffffffffffffffffffffffffffff1690508673ffffffffffffffffffffffffffffffffffffffff168173ffffffffffffffffffffffffffffffffffffffff16146105be57600080fd5b600073ffffffffffffffffffffffffffffffffffffffff168673ffffffffffffffffffffffffffffffffffffffff1614156105f857600080fd5b6106028686610815565b50505050505050565b6000600260008373ffffffffffffffffffffffffffffffffffffffff1673ffffffffffffffffffffffffffffffffffffffff168152602001908152602001600020549050919050565b600073ffffffffffffffffffffffffffffffffffffffff168273ffffffffffffffffffffffffffffffffffffffff16141561068e57600080fd5b600073ffffffffffffffffffffffffffffffffffffffff166001600083815260200190815260200160002060009054906101000a900473ffffffffffffffffffffffffffffffffffffffff1673ffffffffffffffffffffffffffffffffffffffff16146106fa57600080fd5b61070482826108c1565b808273ffffffffffffffffffffffffffffffffffffffff163073ffffffffffffffffffffffffffffffffffffffff167fddf252ad1be2c89b69c2b068fc378daa952ba7f163c4a11628f55a4df523b3ef60405160405180910390a45050565b81600073ffffffffffffffffffffffffffffffffffffffff166001600083815260200190815260200160002060009054906101000a900473ffffffffffffffffffffffffffffffffffffffff1673ffffffffffffffffffffffffffffffffffffffff1614156107d157600080fd5b816003600085815260200190815260200160002090805190602001906107f8929190610b34565b50816000908051906020019061080f929190610b34565b50505050565b60006001600083815260200190815260200160002060009054906101000a900473ffffffffffffffffffffffffffffffffffffffff1690506108578183610a09565b61086183836108c1565b818373ffffffffffffffffffffffffffffffffffffffff168273ffffffffffffffffffffffffffffffffffffffff167fddf252ad1be2c89b69c2b068fc378daa952ba7f163c4a11628f55a4df523b3ef60405160405180910390a4505050565b600073ffffffffffffffffffffffffffffffffffffffff166001600083815260200190815260200160002060009054906101000a900473ffffffffffffffffffffffffffffffffffffffff1673ffffffffffffffffffffffffffffffffffffffff161461092d57600080fd5b816001600083815260200190815260200160002060006101000a81548173ffffffffffffffffffffffffffffffffffffffff021916908373ffffffffffffffffffffffffffffffffffffffff1602179055506001600260008473ffffffffffffffffffffffffffffffffffffffff1673ffffffffffffffffffffffffffffffffffffffff1681526020019081526020016000205401600260008473ffffffffffffffffffffffffffffffffffffffff1673ffffffffffffffffffffffffffffffffffffffff168152602001908152602001600020819055505050565b8173ffffffffffffffffffffffffffffffffffffffff166001600083815260200190815260200160002060009054906101000a900473ffffffffffffffffffffffffffffffffffffffff1673ffffffffffffffffffffffffffffffffffffffff1614610a7457600080fd5b6001600260008473ffffffffffffffffffffffffffffffffffffffff1673ffffffffffffffffffffffffffffffffffffffff1681526020019081526020016000205403600260008473ffffffffffffffffffffffffffffffffffffffff1673ffffffffffffffffffffffffffffffffffffffff168152602001908152602001600020819055506001600082815260200190815260200160002060006101000a81549073ffffffffffffffffffffffffffffffffffffffff02191690555050565b828054600181600116156101000203166002900490600052602060002090601f016020900481019282610b6a5760008555610bb1565b82601f10610b8357805160ff1916838001178555610bb1565b82800160010185558215610bb1579182015b82811115610bb0578251825591602001919060010190610b95565b5b509050610bbe9190610bc2565b5090565b5b80821115610bdb576000816000905550600101610bc3565b509056fea2646970667358221220ec5bf35d09bdad249051b42ba39b132e5ad4d0f5ba0bd260cb054250e2797a9a64736f6c63430007060033",
  "immutableReferences": {},
  "source": "// SPDX-License-Identifier: MIT\npragma solidity >=0.6.0 <0.8.0;\n\ncontract NFTLoan {\n    // Events\n    event Transfer(\n        address indexed _from,\n        address indexed _to,\n        uint256 indexed _tokenId\n    );\n\n    //\n    string internal nftName;\n\n    // Attaches the NFT id to a particular address\n    mapping(uint256 => address) internal ownerId;\n\n    // Creates a counter for how many NFTokens an account has\n    //\n    // NOTE ----- Might not need this - We can create another NFT inside\n    // another mapping. This should happen on minting.\n    mapping(address => uint256) private ownerToNFTokenCount;\n\n    // Attaches the NFT id to a string for the name\n    //\n    // NOTE --- No need to attach it to a string ID\n    mapping(uint256 => string) internal idToUri;\n\n    function _mint(address _to, uint256 _tokenId) internal virtual {\n        require(_to != address(0));\n        require(ownerId[_tokenId] == address(0));\n\n        _addNFToken(_to, _tokenId);\n\n        // Changed address of event to this\n        emit Transfer(address(this), _to, _tokenId);\n    }\n\n    function _addNFToken(address _to, uint256 _tokenId) internal virtual {\n        require(ownerId[_tokenId] == address(0));\n\n        // Next step would be encrypt the information\n        // Create a struct inside the mapping or a different mapping\n        // where we could store the data\n        ownerId[_tokenId] = _to;\n        ownerToNFTokenCount[_to] = ownerToNFTokenCount[_to] + 1;\n    }\n\n    function _removeNFToken(address _from, uint256 _tokenId) internal virtual {\n        require(ownerId[_tokenId] == _from);\n        ownerToNFTokenCount[_from] = ownerToNFTokenCount[_from] - 1;\n        delete ownerId[_tokenId];\n    }\n\n    // Testing\n    function balanceOf(address _owner) external view returns (uint256) {\n        require(_owner != address(0));\n        return _getOwnerNFTCount(_owner);\n    }\n\n    function _getOwnerNFTCount(address _owner)\n        internal\n        view\n        virtual\n        returns (uint256)\n    {\n        return ownerToNFTokenCount[_owner];\n    }\n\n    // Testing\n    function ownerOf(uint256 _tokenId) external view returns (address _owner) {\n        _owner = ownerId[_tokenId];\n        require(_owner != address(0));\n    }\n\n    // Might have to get rid off -- We are accessing the NFT using just wallet address\n    function _setTokenUri(uint256 _tokenId, string memory _uri)\n        internal\n        validNFToken(_tokenId)\n    {\n        idToUri[_tokenId] = _uri;\n        nftName = _uri;\n    }\n\n    // Looks good -- Only needs to be accessed by the Oracle after validation goes through\n    modifier validNFToken(uint256 _tokenId) {\n        require(ownerId[_tokenId] != address(0));\n        _;\n    }\n\n    //testing\n    function name() external view returns (string memory _name) {\n        _name = nftName;\n    }\n\n    function _safeTransferFrom(\n        address _from,\n        address _to,\n        uint256 _tokenId\n    ) private canTransfer(_tokenId) validNFToken(_tokenId) {\n        address tokenOwner = ownerId[_tokenId];\n        require(tokenOwner == _from);\n        require(_to != address(0));\n\n        _transfer(_to, _tokenId);\n    }\n\n    modifier canTransfer(uint256 _tokenId) {\n        address tokenOwner = ownerId[_tokenId];\n        require(tokenOwner == msg.sender);\n        _;\n    }\n\n    function _transfer(address _to, uint256 _tokenId) internal {\n        address from = ownerId[_tokenId];\n        _removeNFToken(from, _tokenId);\n        _addNFToken(_to, _tokenId);\n\n        emit Transfer(from, _to, _tokenId);\n    }\n\n    // Mint is can be the entry point where we check if the Oracle\n    // gave this wallet a greenlight and is ready to create the NFT\n    function mint(\n        address _to,\n        uint256 _tokenId,\n        string memory _uri\n    ) public {\n        _mint(_to, _tokenId);\n        _setTokenUri(_tokenId, _uri);\n    }\n\n    function safeTransferFrom(\n        address _from,\n        address _to,\n        uint256 _tokenId\n    ) external {\n        _safeTransferFrom(_from, _to, _tokenId);\n    }\n\n    // ------------------------ Future development ----------------------------\n    // Encrypted data\n    // Minting two NFTs -- Encrypted data and key do decrypt it\n    // If user defaults on loan - Both NFTs is automatically transfered to Oracle\n    //\n    // Thoughts\n    // Loans will have a signature generated on loan application - This signature could\n    // be used to link the NFT to the user - It could perhaps be generated on the NFT first\n    // and then given to treasure as the key to generate the loan with.\n    //\n    // Making a payment on loan will connect to the NFT and update the latest loan Status\n    // NFT will handle striking system, colleting strikes on missed payments.\n}\n",
  "sourcePath": "/Users/christianroque/Desktop/TungstenGroupProject/contracts/NFTLoan.sol",
  "compiler": {
    "name": "solc",
    "version": "0.7.6+commit.7338295f.Emscripten.clang"
  },
  "schemaVersion": "3.3.4",
  "updatedAt": "2021-05-18T03:37:43.585Z",
  "devdoc": {
    "kind": "dev",
    "methods": {},
    "version": 1
  },
  "userdoc": {
    "kind": "user",
    "methods": {},
    "version": 1
  }
}