{
  "contractName": "NFTLoan",
  "abi": [
    {
      "inputs": [],
      "stateMutability": "nonpayable",
      "type": "constructor"
    },
    {
      "anonymous": false,
      "inputs": [
        {
          "indexed": true,
          "internalType": "address",
          "name": "_from",
          "type": "address"
        },
        {
          "indexed": true,
          "internalType": "address",
          "name": "_to",
          "type": "address"
        },
        {
          "indexed": true,
          "internalType": "uint256",
          "name": "_tokenId",
          "type": "uint256"
        }
      ],
      "name": "Transfer",
      "type": "event"
    },
    {
      "inputs": [
        {
          "internalType": "uint256",
          "name": "",
          "type": "uint256"
        }
      ],
      "name": "idToUri",
      "outputs": [
        {
          "internalType": "string",
          "name": "",
          "type": "string"
        }
      ],
      "stateMutability": "view",
      "type": "function"
    },
    {
      "inputs": [
        {
          "internalType": "address",
          "name": "_owner",
          "type": "address"
        }
      ],
      "name": "balanceOf",
      "outputs": [
        {
          "internalType": "uint256",
          "name": "",
          "type": "uint256"
        }
      ],
      "stateMutability": "view",
      "type": "function"
    },
    {
      "inputs": [
        {
          "internalType": "uint256",
          "name": "_tokenId",
          "type": "uint256"
        }
      ],
      "name": "ownerOf",
      "outputs": [
        {
          "internalType": "address",
          "name": "_owner",
          "type": "address"
        }
      ],
      "stateMutability": "view",
      "type": "function"
    },
    {
      "inputs": [],
      "name": "name",
      "outputs": [
        {
          "internalType": "string",
          "name": "_name",
          "type": "string"
        }
      ],
      "stateMutability": "view",
      "type": "function"
    },
    {
      "inputs": [
        {
          "internalType": "address",
          "name": "_to",
          "type": "address"
        },
        {
          "internalType": "uint256",
          "name": "_tokenId",
          "type": "uint256"
        },
        {
          "internalType": "uint64",
          "name": "_riskScore",
          "type": "uint64"
        },
        {
          "internalType": "uint64",
          "name": "_riskFactor",
          "type": "uint64"
        },
        {
          "internalType": "uint64",
          "name": "_interestRate",
          "type": "uint64"
        },
        {
          "internalType": "uint64",
          "name": "_userMaxTier",
          "type": "uint64"
        },
        {
          "internalType": "uint256",
          "name": "_flatfee",
          "type": "uint256"
        },
        {
          "internalType": "string",
          "name": "_uri",
          "type": "string"
        }
      ],
      "name": "mintBorrower",
      "outputs": [],
      "stateMutability": "nonpayable",
      "type": "function"
    },
    {
      "inputs": [
        {
          "internalType": "address",
          "name": "_from",
          "type": "address"
        }
      ],
      "name": "getUser",
      "outputs": [
        {
          "internalType": "uint256",
          "name": "",
          "type": "uint256"
        },
        {
          "internalType": "uint256",
          "name": "",
          "type": "uint256"
        },
        {
          "internalType": "uint256",
          "name": "",
          "type": "uint256"
        },
        {
          "internalType": "uint256",
          "name": "",
          "type": "uint256"
        },
        {
          "internalType": "uint256",
          "name": "",
          "type": "uint256"
        }
      ],
      "stateMutability": "view",
      "type": "function"
    },
    {
      "inputs": [
        {
          "internalType": "address",
          "name": "_newOracle",
          "type": "address"
        }
      ],
      "name": "setOracle",
      "outputs": [],
      "stateMutability": "nonpayable",
      "type": "function"
    },
    {
      "inputs": [
        {
          "internalType": "address",
          "name": "_newTreasury",
          "type": "address"
        }
      ],
      "name": "setTreasury",
      "outputs": [],
      "stateMutability": "nonpayable",
      "type": "function"
    }
  ],
  "bytecode": "0x60806040523480156200001157600080fd5b506040518060400160405280600481526020017f434e465400000000000000000000000000000000000000000000000000000000815250600090805190602001906200005f92919062000110565b50735b38da6a701c568545dcfcb03fcb875f56beddc4600560006101000a81548173ffffffffffffffffffffffffffffffffffffffff021916908373ffffffffffffffffffffffffffffffffffffffff160217905550735b38da6a701c568545dcfcb03fcb875f56beddc4600660006101000a81548173ffffffffffffffffffffffffffffffffffffffff021916908373ffffffffffffffffffffffffffffffffffffffff160217905550620001c6565b828054600181600116156101000203166002900490600052602060002090601f01602090048101928262000148576000855562000194565b82601f106200016357805160ff191683800117855562000194565b8280016001018555821562000194579182015b828111156200019357825182559160200191906001019062000176565b5b509050620001a39190620001a7565b5090565b5b80821115620001c2576000816000905550600101620001a8565b5090565b6110f580620001d66000396000f3fe608060405234801561001057600080fd5b50600436106100885760003560e01c80637adbf9731161005b5780637adbf97314610234578063e6fb9e9414610278578063eb9153611461031f578063f0f442601461045f57610088565b806306fdde031461008d5780636352211e146101105780636f77926b1461016857806370a08231146101dc575b600080fd5b6100956104a3565b6040518080602001828103825283818151815260200191508051906020019080838360005b838110156100d55780820151818401526020810190506100ba565b50505050905090810190601f1680156101025780820380516001836020036101000a031916815260200191505b509250505060405180910390f35b61013c6004803603602081101561012657600080fd5b8101908080359060200190929190505050610545565b604051808273ffffffffffffffffffffffffffffffffffffffff16815260200191505060405180910390f35b6101aa6004803603602081101561017e57600080fd5b81019080803573ffffffffffffffffffffffffffffffffffffffff1690602001909291905050506105bc565b604051808681526020018581526020018481526020018381526020018281526020019550505050505060405180910390f35b61021e600480360360208110156101f257600080fd5b81019080803573ffffffffffffffffffffffffffffffffffffffff16906020019092919050505061087d565b6040518082815260200191505060405180910390f35b6102766004803603602081101561024a57600080fd5b81019080803573ffffffffffffffffffffffffffffffffffffffff1690602001909291905050506108c8565b005b6102a46004803603602081101561028e57600080fd5b81019080803590602001909291905050506109be565b6040518080602001828103825283818151815260200191508051906020019080838360005b838110156102e45780820151818401526020810190506102c9565b50505050905090810190601f1680156103115780820380516001836020036101000a031916815260200191505b509250505060405180910390f35b61045d600480360361010081101561033657600080fd5b81019080803573ffffffffffffffffffffffffffffffffffffffff16906020019092919080359060200190929190803567ffffffffffffffff169060200190929190803567ffffffffffffffff169060200190929190803567ffffffffffffffff169060200190929190803567ffffffffffffffff16906020019092919080359060200190929190803590602001906401000000008111156103d757600080fd5b8201836020820111156103e957600080fd5b8035906020019184600183028401116401000000008311171561040b57600080fd5b91908080601f016020809104026020016040519081016040528093929190818152602001838380828437600081840152601f19601f820116905080830192505050505050509192919290505050610a6e565b005b6104a16004803603602081101561047557600080fd5b81019080803573ffffffffffffffffffffffffffffffffffffffff169060200190929190505050610be3565b005b606060008054600181600116156101000203166002900480601f01602080910402602001604051908101604052809291908181526020018280546001816001161561010002031660029004801561053b5780601f106105105761010080835404028352916020019161053b565b820191906000526020600020905b81548152906001019060200180831161051e57829003601f168201915b5050505050905090565b60006001600083815260200190815260200160002060009054906101000a900473ffffffffffffffffffffffffffffffffffffffff169050600073ffffffffffffffffffffffffffffffffffffffff168173ffffffffffffffffffffffffffffffffffffffff1614156105b757600080fd5b919050565b6000806000806000600560009054906101000a900473ffffffffffffffffffffffffffffffffffffffff1673ffffffffffffffffffffffffffffffffffffffff163373ffffffffffffffffffffffffffffffffffffffff16148061066d5750600660009054906101000a900473ffffffffffffffffffffffffffffffffffffffff1673ffffffffffffffffffffffffffffffffffffffff163373ffffffffffffffffffffffffffffffffffffffff16145b61067657600080fd5b600260008773ffffffffffffffffffffffffffffffffffffffff1673ffffffffffffffffffffffffffffffffffffffff16815260200190815260200160002060010160009054906101000a900467ffffffffffffffff16600260008873ffffffffffffffffffffffffffffffffffffffff1673ffffffffffffffffffffffffffffffffffffffff16815260200190815260200160002060010160009054906101000a900467ffffffffffffffff16600260008973ffffffffffffffffffffffffffffffffffffffff1673ffffffffffffffffffffffffffffffffffffffff16815260200190815260200160002060010160009054906101000a900467ffffffffffffffff16600260008a73ffffffffffffffffffffffffffffffffffffffff1673ffffffffffffffffffffffffffffffffffffffff16815260200190815260200160002060010160009054906101000a900467ffffffffffffffff16600260008b73ffffffffffffffffffffffffffffffffffffffff1673ffffffffffffffffffffffffffffffffffffffff16815260200190815260200160002060010160009054906101000a900467ffffffffffffffff168467ffffffffffffffff1694508367ffffffffffffffff1693508267ffffffffffffffff1692508167ffffffffffffffff1691508067ffffffffffffffff1690509450945094509450945091939590929450565b60008073ffffffffffffffffffffffffffffffffffffffff168273ffffffffffffffffffffffffffffffffffffffff1614156108b857600080fd5b6108c182610cd9565b9050919050565b600560009054906101000a900473ffffffffffffffffffffffffffffffffffffffff1673ffffffffffffffffffffffffffffffffffffffff163373ffffffffffffffffffffffffffffffffffffffff1614806109715750600660009054906101000a900473ffffffffffffffffffffffffffffffffffffffff1673ffffffffffffffffffffffffffffffffffffffff163373ffffffffffffffffffffffffffffffffffffffff16145b61097a57600080fd5b80600560006101000a81548173ffffffffffffffffffffffffffffffffffffffff021916908373ffffffffffffffffffffffffffffffffffffffff16021790555050565b60046020528060005260406000206000915090508054600181600116156101000203166002900480601f016020809104026020016040519081016040528092919081815260200182805460018160011615610100020316600290048015610a665780601f10610a3b57610100808354040283529160200191610a66565b820191906000526020600020905b815481529060010190602001808311610a4957829003601f168201915b505050505081565b610a788888610d22565b610a828782610e31565b6040518060a001604052808381526020018767ffffffffffffffff1681526020018667ffffffffffffffff1681526020018567ffffffffffffffff1681526020018467ffffffffffffffff16815250600260008a73ffffffffffffffffffffffffffffffffffffffff1673ffffffffffffffffffffffffffffffffffffffff1681526020019081526020016000206000820151816000015560208201518160010160006101000a81548167ffffffffffffffff021916908367ffffffffffffffff16021790555060408201518160010160086101000a81548167ffffffffffffffff021916908367ffffffffffffffff16021790555060608201518160010160106101000a81548167ffffffffffffffff021916908367ffffffffffffffff16021790555060808201518160010160186101000a81548167ffffffffffffffff021916908367ffffffffffffffff1602179055509050505050505050505050565b600560009054906101000a900473ffffffffffffffffffffffffffffffffffffffff1673ffffffffffffffffffffffffffffffffffffffff163373ffffffffffffffffffffffffffffffffffffffff161480610c8c5750600660009054906101000a900473ffffffffffffffffffffffffffffffffffffffff1673ffffffffffffffffffffffffffffffffffffffff163373ffffffffffffffffffffffffffffffffffffffff16145b610c9557600080fd5b80600660006101000a81548173ffffffffffffffffffffffffffffffffffffffff021916908373ffffffffffffffffffffffffffffffffffffffff16021790555050565b6000600360008373ffffffffffffffffffffffffffffffffffffffff1673ffffffffffffffffffffffffffffffffffffffff168152602001908152602001600020549050919050565b600073ffffffffffffffffffffffffffffffffffffffff168273ffffffffffffffffffffffffffffffffffffffff161415610d5c57600080fd5b600073ffffffffffffffffffffffffffffffffffffffff166001600083815260200190815260200160002060009054906101000a900473ffffffffffffffffffffffffffffffffffffffff1673ffffffffffffffffffffffffffffffffffffffff1614610dc857600080fd5b610dd28282610ecc565b808273ffffffffffffffffffffffffffffffffffffffff163073ffffffffffffffffffffffffffffffffffffffff167fddf252ad1be2c89b69c2b068fc378daa952ba7f163c4a11628f55a4df523b3ef60405160405180910390a45050565b81600073ffffffffffffffffffffffffffffffffffffffff166001600083815260200190815260200160002060009054906101000a900473ffffffffffffffffffffffffffffffffffffffff1673ffffffffffffffffffffffffffffffffffffffff161415610e9f57600080fd5b81600460008581526020019081526020016000209080519060200190610ec6929190611014565b50505050565b600073ffffffffffffffffffffffffffffffffffffffff166001600083815260200190815260200160002060009054906101000a900473ffffffffffffffffffffffffffffffffffffffff1673ffffffffffffffffffffffffffffffffffffffff1614610f3857600080fd5b816001600083815260200190815260200160002060006101000a81548173ffffffffffffffffffffffffffffffffffffffff021916908373ffffffffffffffffffffffffffffffffffffffff1602179055506001600360008473ffffffffffffffffffffffffffffffffffffffff1673ffffffffffffffffffffffffffffffffffffffff1681526020019081526020016000205401600360008473ffffffffffffffffffffffffffffffffffffffff1673ffffffffffffffffffffffffffffffffffffffff168152602001908152602001600020819055505050565b828054600181600116156101000203166002900490600052602060002090601f01602090048101928261104a5760008555611091565b82601f1061106357805160ff1916838001178555611091565b82800160010185558215611091579182015b82811115611090578251825591602001919060010190611075565b5b50905061109e91906110a2565b5090565b5b808211156110bb5760008160009055506001016110a3565b509056fea2646970667358221220911670afccaa6269ef455db67af36e6cadb9999858ffbdbf2b009525a2b7da5c64736f6c63430007060033",
  "immutableReferences": {},
  "source": "// SPDX-License-Identifier: MIT\npragma solidity >=0.6.0 <0.8.0;\nimport \"./interfaces/SafeMath.sol\";\n\ncontract NFTLoan {\n    string internal nftName;\n\n    mapping(uint256 => address) internal ownerId;\n\n    mapping(address => Data) private userData;\n\n    mapping(address => uint256) private ownerToNFTokenCount;\n\n    mapping(uint256 => string) public idToUri;\n\n    address Oracle;\n    address Treasury;\n\n    struct Data {\n        uint256 flatfee;\n        uint64 riskScore;\n        uint64 riskFactor;\n        uint64 interestRate;\n        uint64 userMaxTier;\n    }\n\n    modifier canTransfer(uint256 _tokenId) {\n        address tokenOwner = ownerId[_tokenId];\n        require(tokenOwner == msg.sender);\n        _;\n    }\n\n    modifier validNFToken(uint256 _tokenId) {\n        require(ownerId[_tokenId] != address(0));\n        _;\n    }\n\n    modifier validEntry() {\n        require(msg.sender == Oracle || msg.sender == Treasury);\n        _;\n    }\n\n    event Transfer(\n        address indexed _from,\n        address indexed _to,\n        uint256 indexed _tokenId\n    );\n\n    constructor() {\n        nftName = \"CNFT\";\n        Oracle = 0x5B38Da6a701c568545dCfcB03FcB875f56beddC4;\n        Treasury = 0x5B38Da6a701c568545dCfcB03FcB875f56beddC4;\n    }\n\n    function balanceOf(address _owner) external view returns (uint256) {\n        require(_owner != address(0));\n        return _getOwnerNFTCount(_owner);\n    }\n\n    function ownerOf(uint256 _tokenId) external view returns (address _owner) {\n        _owner = ownerId[_tokenId];\n        require(_owner != address(0));\n    }\n\n    function _safeTransferFrom(\n        address _from,\n        address _to,\n        uint256 _tokenId\n    ) private canTransfer(_tokenId) validNFToken(_tokenId) {\n        address tokenOwner = ownerId[_tokenId];\n        require(tokenOwner == _from);\n        require(_to != address(0));\n\n        _transfer(_to, _tokenId);\n    }\n\n    function _transfer(address _to, uint256 _tokenId) internal {\n        address from = ownerId[_tokenId];\n        _removeNFToken(from, _tokenId);\n        _addNFToken(_to, _tokenId);\n\n        emit Transfer(from, _to, _tokenId);\n    }\n\n    function name() external view returns (string memory _name) {\n        _name = nftName;\n    }\n\n    function _setTokenUri(uint256 _tokenId, string memory _uri)\n        internal\n        validNFToken(_tokenId)\n    {\n        idToUri[_tokenId] = _uri;\n    }\n\n    function _mint(address _to, uint256 _tokenId) internal {\n        require(_to != address(0));\n        require(ownerId[_tokenId] == address(0));\n\n        _addNFToken(_to, _tokenId);\n\n        emit Transfer(address(this), _to, _tokenId);\n    }\n\n    function mintBorrower(\n        // Only Oracle\n        address _to,\n        uint256 _tokenId,\n        uint64 _riskScore,\n        uint64 _riskFactor,\n        uint64 _interestRate,\n        uint64 _userMaxTier,\n        uint256 _flatfee,\n        string memory _uri\n    ) public {\n        _mint(_to, _tokenId);\n        _setTokenUri(_tokenId, _uri);\n        userData[_to] = Data(\n            _flatfee,\n            _riskScore,\n            _riskFactor,\n            _interestRate,\n            _userMaxTier\n        );\n    }\n\n    function _addNFToken(address _to, uint256 _tokenId) internal {\n        require(ownerId[_tokenId] == address(0));\n\n        ownerId[_tokenId] = _to;\n        ownerToNFTokenCount[_to] = ownerToNFTokenCount[_to] + 1;\n    }\n\n    function _removeNFToken(address _from, uint256 _tokenId) internal {\n        require(ownerId[_tokenId] == _from);\n        ownerToNFTokenCount[_from] = ownerToNFTokenCount[_from] - 1;\n        delete ownerId[_tokenId];\n    }\n\n    function _getOwnerNFTCount(address _owner) internal view returns (uint256) {\n        return ownerToNFTokenCount[_owner];\n    }\n\n    function getUser(address _from)\n        public\n        view\n        validEntry\n        returns (\n            uint256,\n            uint256,\n            uint256,\n            uint256,\n            uint256\n        )\n    {\n        return (\n            userData[_from].riskScore,\n            userData[_from].riskScore,\n            userData[_from].riskScore,\n            userData[_from].riskScore,\n            userData[_from].riskScore\n        );\n    }\n\n    function setOracle(address _newOracle) public validEntry {\n        Oracle = _newOracle;\n    }\n\n    function setTreasury(address _newTreasury) public validEntry {\n        Treasury = _newTreasury;\n    }\n}\n",
  "sourcePath": "/Users/christianroque/Desktop/TungstenGroupProject/contracts/NFTLoan.sol",
  "compiler": {
    "name": "solc",
    "version": "0.7.6+commit.7338295f.Emscripten.clang"
  },
  "schemaVersion": "3.3.4",
  "updatedAt": "2021-06-13T01:39:29.880Z",
  "networkType": "ethereum",
  "devdoc": {
    "kind": "dev",
    "methods": {},
    "version": 1
  },
  "userdoc": {
    "kind": "user",
    "methods": {},
    "version": 1
  }
}