{
  "contractName": "SmitCoin",
  "abi": [
    {
      "inputs": [],
      "stateMutability": "nonpayable",
      "type": "constructor"
    },
    {
      "anonymous": false,
      "inputs": [
        {
          "indexed": true,
          "internalType": "address",
          "name": "tokenOwner",
          "type": "address"
        },
        {
          "indexed": true,
          "internalType": "address",
          "name": "spender",
          "type": "address"
        },
        {
          "indexed": false,
          "internalType": "uint256",
          "name": "tokens",
          "type": "uint256"
        }
      ],
      "name": "Approval",
      "type": "event"
    },
    {
      "anonymous": false,
      "inputs": [
        {
          "indexed": false,
          "internalType": "address",
          "name": "borrower",
          "type": "address"
        },
        {
          "indexed": false,
          "internalType": "uint256",
          "name": "amount",
          "type": "uint256"
        },
        {
          "indexed": false,
          "internalType": "uint256",
          "name": "timestamp",
          "type": "uint256"
        }
      ],
      "name": "Borrowed",
      "type": "event"
    },
    {
      "anonymous": false,
      "inputs": [
        {
          "indexed": true,
          "internalType": "address",
          "name": "from",
          "type": "address"
        },
        {
          "indexed": true,
          "internalType": "address",
          "name": "to",
          "type": "address"
        },
        {
          "indexed": false,
          "internalType": "uint256",
          "name": "tokens",
          "type": "uint256"
        }
      ],
      "name": "Transfer",
      "type": "event"
    },
    {
      "inputs": [],
      "name": "_totalSupply",
      "outputs": [
        {
          "internalType": "uint256",
          "name": "",
          "type": "uint256"
        }
      ],
      "stateMutability": "view",
      "type": "function",
      "constant": true
    },
    {
      "inputs": [],
      "name": "decimals",
      "outputs": [
        {
          "internalType": "uint8",
          "name": "",
          "type": "uint8"
        }
      ],
      "stateMutability": "view",
      "type": "function",
      "constant": true
    },
    {
      "inputs": [],
      "name": "name",
      "outputs": [
        {
          "internalType": "string",
          "name": "",
          "type": "string"
        }
      ],
      "stateMutability": "view",
      "type": "function",
      "constant": true
    },
    {
      "inputs": [],
      "name": "symbol",
      "outputs": [
        {
          "internalType": "string",
          "name": "",
          "type": "string"
        }
      ],
      "stateMutability": "view",
      "type": "function",
      "constant": true
    },
    {
      "inputs": [],
      "name": "totalSupply",
      "outputs": [
        {
          "internalType": "uint256",
          "name": "",
          "type": "uint256"
        }
      ],
      "stateMutability": "view",
      "type": "function",
      "constant": true
    },
    {
      "inputs": [
        {
          "internalType": "address",
          "name": "tokenOwner",
          "type": "address"
        }
      ],
      "name": "balanceOf",
      "outputs": [
        {
          "internalType": "uint256",
          "name": "balance",
          "type": "uint256"
        }
      ],
      "stateMutability": "view",
      "type": "function",
      "constant": true
    },
    {
      "inputs": [
        {
          "internalType": "address",
          "name": "tokenOwner",
          "type": "address"
        },
        {
          "internalType": "address",
          "name": "spender",
          "type": "address"
        }
      ],
      "name": "allowance",
      "outputs": [
        {
          "internalType": "uint256",
          "name": "remaining",
          "type": "uint256"
        }
      ],
      "stateMutability": "view",
      "type": "function",
      "constant": true
    },
    {
      "inputs": [
        {
          "internalType": "address",
          "name": "spender",
          "type": "address"
        },
        {
          "internalType": "uint256",
          "name": "tokens",
          "type": "uint256"
        }
      ],
      "name": "approve",
      "outputs": [
        {
          "internalType": "bool",
          "name": "success",
          "type": "bool"
        }
      ],
      "stateMutability": "nonpayable",
      "type": "function"
    },
    {
      "inputs": [
        {
          "internalType": "address",
          "name": "_borrower",
          "type": "address"
        },
        {
          "internalType": "uint256",
          "name": "_amount",
          "type": "uint256"
        }
      ],
      "name": "borrow",
      "outputs": [],
      "stateMutability": "payable",
      "type": "function",
      "payable": true
    },
    {
      "inputs": [
        {
          "internalType": "address",
          "name": "_donator",
          "type": "address"
        },
        {
          "internalType": "uint256",
          "name": "_amount",
          "type": "uint256"
        }
      ],
      "name": "donate",
      "outputs": [],
      "stateMutability": "payable",
      "type": "function",
      "payable": true
    },
    {
      "inputs": [
        {
          "internalType": "address",
          "name": "to",
          "type": "address"
        },
        {
          "internalType": "uint256",
          "name": "tokens",
          "type": "uint256"
        }
      ],
      "name": "transfer",
      "outputs": [
        {
          "internalType": "bool",
          "name": "success",
          "type": "bool"
        }
      ],
      "stateMutability": "nonpayable",
      "type": "function"
    },
    {
      "inputs": [
        {
          "internalType": "address",
          "name": "from",
          "type": "address"
        },
        {
          "internalType": "address",
          "name": "to",
          "type": "address"
        },
        {
          "internalType": "uint256",
          "name": "tokens",
          "type": "uint256"
        }
      ],
      "name": "transferFrom",
      "outputs": [
        {
          "internalType": "bool",
          "name": "success",
          "type": "bool"
        }
      ],
      "stateMutability": "nonpayable",
      "type": "function"
    }
  ],
  "bytecode": "0x608060405234801561001057600080fd5b506040518060400160405280600881526020017f536d6974436f696e0000000000000000000000000000000000000000000000008152506000908051906020019061005c92919061018a565b506040518060400160405280600381526020017f534d430000000000000000000000000000000000000000000000000000000000815250600190805190602001906100a892919061018a565b506012600260006101000a81548160ff021916908360ff1602179055506a52b7d2dcc80cd2e4000000600381905550600354600460003373ffffffffffffffffffffffffffffffffffffffff1673ffffffffffffffffffffffffffffffffffffffff168152602001908152602001600020819055503373ffffffffffffffffffffffffffffffffffffffff16600073ffffffffffffffffffffffffffffffffffffffff167fddf252ad1be2c89b69c2b068fc378daa952ba7f163c4a11628f55a4df523b3ef6003546040518082815260200191505060405180910390a3610235565b828054600181600116156101000203166002900490600052602060002090601f0160209004810192826101c05760008555610207565b82601f106101d957805160ff1916838001178555610207565b82800160010185558215610207579182015b828111156102065782518255916020019190600101906101eb565b5b5090506102149190610218565b5090565b5b80821115610231576000816000905550600101610219565b5090565b610ee180620002456000396000f3fe6080604052600436106100a75760003560e01c80634b8a3529116100645780634b8a3529146102c257806370a082311461031057806395d89b4114610375578063a9059cbb14610405578063dd62ed3e14610476578063e69d849d146104fb576100a7565b806306fdde03146100ac578063095ea7b31461013c57806318160ddd146101ad57806323b872dd146101d8578063313ce567146102695780633eaaf86b14610297575b600080fd5b3480156100b857600080fd5b506100c1610549565b6040518080602001828103825283818151815260200191508051906020019080838360005b838110156101015780820151818401526020810190506100e6565b50505050905090810190601f16801561012e5780820380516001836020036101000a031916815260200191505b509250505060405180910390f35b34801561014857600080fd5b506101956004803603604081101561015f57600080fd5b81019080803573ffffffffffffffffffffffffffffffffffffffff169060200190929190803590602001909291905050506105e7565b60405180821515815260200191505060405180910390f35b3480156101b957600080fd5b506101c26106d9565b6040518082815260200191505060405180910390f35b3480156101e457600080fd5b50610251600480360360608110156101fb57600080fd5b81019080803573ffffffffffffffffffffffffffffffffffffffff169060200190929190803573ffffffffffffffffffffffffffffffffffffffff16906020019092919080359060200190929190505050610724565b60405180821515815260200191505060405180910390f35b34801561027557600080fd5b5061027e6109a0565b604051808260ff16815260200191505060405180910390f35b3480156102a357600080fd5b506102ac6109b3565b6040518082815260200191505060405180910390f35b61030e600480360360408110156102d857600080fd5b81019080803573ffffffffffffffffffffffffffffffffffffffff169060200190929190803590602001909291905050506109b9565b005b34801561031c57600080fd5b5061035f6004803603602081101561033357600080fd5b81019080803573ffffffffffffffffffffffffffffffffffffffff169060200190929190505050610afd565b6040518082815260200191505060405180910390f35b34801561038157600080fd5b5061038a610b46565b6040518080602001828103825283818151815260200191508051906020019080838360005b838110156103ca5780820151818401526020810190506103af565b50505050905090810190601f1680156103f75780820380516001836020036101000a031916815260200191505b509250505060405180910390f35b34801561041157600080fd5b5061045e6004803603604081101561042857600080fd5b81019080803573ffffffffffffffffffffffffffffffffffffffff16906020019092919080359060200190929190505050610be4565b60405180821515815260200191505060405180910390f35b34801561048257600080fd5b506104e56004803603604081101561049957600080fd5b81019080803573ffffffffffffffffffffffffffffffffffffffff169060200190929190803573ffffffffffffffffffffffffffffffffffffffff169060200190929190505050610d3b565b6040518082815260200191505060405180910390f35b6105476004803603604081101561051157600080fd5b81019080803573ffffffffffffffffffffffffffffffffffffffff16906020019092919080359060200190929190505050610dc2565b005b60008054600181600116156101000203166002900480601f0160208091040260200160405190810160405280929190818152602001828054600181600116156101000203166002900480156105df5780601f106105b4576101008083540402835291602001916105df565b820191906000526020600020905b8154815290600101906020018083116105c257829003601f168201915b505050505081565b600081600560003373ffffffffffffffffffffffffffffffffffffffff1673ffffffffffffffffffffffffffffffffffffffff16815260200190815260200160002060008573ffffffffffffffffffffffffffffffffffffffff1673ffffffffffffffffffffffffffffffffffffffff168152602001908152602001600020819055508273ffffffffffffffffffffffffffffffffffffffff163373ffffffffffffffffffffffffffffffffffffffff167f8c5be1e5ebec7d5bd14f71427d1e84f3dd0314c0f7b2291e5b200ac8c7c3b925846040518082815260200191505060405180910390a36001905092915050565b6000600460008073ffffffffffffffffffffffffffffffffffffffff1673ffffffffffffffffffffffffffffffffffffffff1681526020019081526020016000205460035403905090565b600081600460008673ffffffffffffffffffffffffffffffffffffffff1673ffffffffffffffffffffffffffffffffffffffff16815260200190815260200160002054101580156107f1575081600560008673ffffffffffffffffffffffffffffffffffffffff1673ffffffffffffffffffffffffffffffffffffffff16815260200190815260200160002060003373ffffffffffffffffffffffffffffffffffffffff1673ffffffffffffffffffffffffffffffffffffffff1681526020019081526020016000205410155b80156107fd5750600082115b156109945781600460008573ffffffffffffffffffffffffffffffffffffffff1673ffffffffffffffffffffffffffffffffffffffff1681526020019081526020016000206000828254019250508190555081600460008673ffffffffffffffffffffffffffffffffffffffff1673ffffffffffffffffffffffffffffffffffffffff1681526020019081526020016000206000828254039250508190555081600560008673ffffffffffffffffffffffffffffffffffffffff1673ffffffffffffffffffffffffffffffffffffffff16815260200190815260200160002060003373ffffffffffffffffffffffffffffffffffffffff1673ffffffffffffffffffffffffffffffffffffffff168152602001908152602001600020600082825403925050819055508273ffffffffffffffffffffffffffffffffffffffff168473ffffffffffffffffffffffffffffffffffffffff167fddf252ad1be2c89b69c2b068fc378daa952ba7f163c4a11628f55a4df523b3ef846040518082815260200191505060405180910390a360019050610999565b600090505b9392505050565b600260009054906101000a900460ff1681565b60035481565b620186a08111156109c957600080fd5b670de0b6b3a76400008102600460008473ffffffffffffffffffffffffffffffffffffffff1673ffffffffffffffffffffffffffffffffffffffff1681526020019081526020016000205401600460008473ffffffffffffffffffffffffffffffffffffffff1673ffffffffffffffffffffffffffffffffffffffff1681526020019081526020016000208190555042600660008473ffffffffffffffffffffffffffffffffffffffff1673ffffffffffffffffffffffffffffffffffffffff168152602001908152602001600020819055507feae9cfbc77fdd40ca899f36b608256063b2bc9d8178b0220f7ad513e178d6730828242604051808473ffffffffffffffffffffffffffffffffffffffff168152602001838152602001828152602001935050505060405180910390a15050565b6000600460008373ffffffffffffffffffffffffffffffffffffffff1673ffffffffffffffffffffffffffffffffffffffff168152602001908152602001600020549050919050565b60018054600181600116156101000203166002900480601f016020809104026020016040519081016040528092919081815260200182805460018160011615610100020316600290048015610bdc5780601f10610bb157610100808354040283529160200191610bdc565b820191906000526020600020905b815481529060010190602001808311610bbf57829003601f168201915b505050505081565b600081600460003373ffffffffffffffffffffffffffffffffffffffff1673ffffffffffffffffffffffffffffffffffffffff168152602001908152602001600020541015610c3257600080fd5b81600460003373ffffffffffffffffffffffffffffffffffffffff1673ffffffffffffffffffffffffffffffffffffffff1681526020019081526020016000206000828254039250508190555081600460008573ffffffffffffffffffffffffffffffffffffffff1673ffffffffffffffffffffffffffffffffffffffff168152602001908152602001600020600082825401925050819055508273ffffffffffffffffffffffffffffffffffffffff163373ffffffffffffffffffffffffffffffffffffffff167fddf252ad1be2c89b69c2b068fc378daa952ba7f163c4a11628f55a4df523b3ef846040518082815260200191505060405180910390a36001905092915050565b6000600560008473ffffffffffffffffffffffffffffffffffffffff1673ffffffffffffffffffffffffffffffffffffffff16815260200190815260200160002060008373ffffffffffffffffffffffffffffffffffffffff1673ffffffffffffffffffffffffffffffffffffffff16815260200190815260200160002054905092915050565b670de0b6b3a76400008102600460008473ffffffffffffffffffffffffffffffffffffffff1673ffffffffffffffffffffffffffffffffffffffff168152602001908152602001600020541015610e1857600080fd5b670de0b6b3a76400008102600460008473ffffffffffffffffffffffffffffffffffffffff1673ffffffffffffffffffffffffffffffffffffffff1681526020019081526020016000205403600460008473ffffffffffffffffffffffffffffffffffffffff1673ffffffffffffffffffffffffffffffffffffffff16815260200190815260200160002081905550505056fea264697066735822122074944241dcf31b9be356dad8d5c4f26fe2a079caed1e046e2760b7e8f325587064736f6c63430007060033",
  "immutableReferences": {},
  "source": "// SPDX-License-Identifier: MIT\r\npragma solidity >=0.6.0 <0.8.0;\r\nimport \"./interfaces/SafeMath.sol\";\r\n\r\n// ----------------------------------------------------------------------------\r\n// Safe Math Library\r\n// ----------------------------------------------------------------------------\r\n\r\ncontract SmitCoin {\r\n    string public name;\r\n    string public symbol;\r\n    uint8 public decimals; // 18 decimals is the strongly suggested default, avoid changing it\r\n\r\n    uint256 public _totalSupply;\r\n\r\n    mapping(address => uint256) balances; // user balance of tokens\r\n    mapping(address => mapping(address => uint256)) allowed; // allowed accounts for spend\r\n    mapping(address => uint256) timestamp; // timestamp of last borrowed time\r\n\r\n    // Events\r\n\r\n    event Transfer(address indexed from, address indexed to, uint256 tokens);\r\n    event Approval(\r\n        address indexed tokenOwner,\r\n        address indexed spender,\r\n        uint256 tokens\r\n    );\r\n    event Borrowed(address borrower, uint256 amount, uint256 timestamp);\r\n\r\n    /**\r\n     * Constrctor function\r\n     *\r\n     * Initializes contract with initial supply tokens to the creator of the contract\r\n     */\r\n    constructor() {\r\n        name = \"SmitCoin\";\r\n        symbol = \"SMC\";\r\n        decimals = 18;\r\n        _totalSupply = 100000000000000000000000000;\r\n\r\n        balances[msg.sender] = _totalSupply;\r\n        emit Transfer(address(0), msg.sender, _totalSupply);\r\n    }\r\n\r\n    function totalSupply() public view returns (uint256) {\r\n        return _totalSupply - balances[address(0)];\r\n    }\r\n\r\n    function balanceOf(address tokenOwner)\r\n        public\r\n        view\r\n        returns (uint256 balance)\r\n    {\r\n        return balances[tokenOwner];\r\n    }\r\n\r\n    function allowance(address tokenOwner, address spender)\r\n        public\r\n        view\r\n        returns (uint256 remaining)\r\n    {\r\n        return allowed[tokenOwner][spender];\r\n    }\r\n\r\n    function approve(address spender, uint256 tokens)\r\n        public\r\n        returns (bool success)\r\n    {\r\n        allowed[msg.sender][spender] = tokens;\r\n        emit Approval(msg.sender, spender, tokens);\r\n        return true;\r\n    }\r\n\r\n    function borrow(address _borrower, uint256 _amount) public payable {\r\n        require(_amount <= 100000);\r\n        balances[_borrower] =\r\n            balances[_borrower] +\r\n            (_amount * 1000000000000000000);\r\n        timestamp[_borrower] = block.timestamp;\r\n        emit Borrowed(_borrower, _amount, block.timestamp);\r\n    }\r\n\r\n    function donate(address _donator, uint256 _amount) public payable {\r\n        require(balances[_donator] >= _amount * 1000000000000000000);\r\n        balances[_donator] = balances[_donator] - _amount * 1000000000000000000;\r\n    }\r\n\r\n    function transfer(address to, uint256 tokens)\r\n        public\r\n        returns (bool success)\r\n    {\r\n        require(balances[msg.sender] >= tokens);\r\n\r\n        balances[msg.sender] -= tokens;\r\n        balances[to] += tokens;\r\n\r\n        emit Transfer(msg.sender, to, tokens);\r\n\r\n        return true;\r\n\r\n        //balances[msg.sender] = safeSub(balances[msg.sender], tokens);\r\n        //balances[to] = safeAdd(balances[to], tokens);\r\n        //emit Transfer(msg.sender, to, tokens);\r\n        //return true;\r\n    }\r\n\r\n    function transferFrom(\r\n        address from,\r\n        address to,\r\n        uint256 tokens\r\n    ) public returns (bool success) {\r\n        if (\r\n            balances[from] >= tokens &&\r\n            allowed[from][msg.sender] >= tokens &&\r\n            tokens > 0\r\n        ) {\r\n            balances[to] += tokens;\r\n            balances[from] -= tokens;\r\n            allowed[from][msg.sender] -= tokens;\r\n            emit Transfer(from, to, tokens);\r\n            return true;\r\n        } else {\r\n            return false;\r\n        }\r\n\r\n        /*balances[from] = safeSub(balances[from], tokens);\r\n        allowed[from][msg.sender] = safeSub(allowed[from][msg.sender], tokens);\r\n        balances[to] = safeAdd(balances[to], tokens);\r\n        emit Transfer(from, to, tokens);\r\n        return true;\r\n        */\r\n    }\r\n}\r\n",
  "sourcePath": "/Users/christianroque/Desktop/solidity-playground/contracts/SmitCoin.sol",
  "compiler": {
    "name": "solc",
    "version": "0.7.6+commit.7338295f.Emscripten.clang"
  },
  "schemaVersion": "3.3.4",
  "updatedAt": "2021-04-15T00:24:02.432Z",
  "networkType": "ethereum",
  "devdoc": {
    "kind": "dev",
    "methods": {},
    "version": 1
  },
  "userdoc": {
    "kind": "user",
    "methods": {
      "constructor": {
        "notice": "Constrctor function Initializes contract with initial supply tokens to the creator of the contract"
      }
    },
    "version": 1
  }
}