{
  "contractName": "Staking",
  "abi": [
    {
      "inputs": [],
      "stateMutability": "nonpayable",
      "type": "constructor"
    },
    {
      "inputs": [
        {
          "internalType": "uint256",
          "name": "_amount",
          "type": "uint256"
        },
        {
          "internalType": "uint256",
          "name": "_timeStakedTier",
          "type": "uint256"
        },
        {
          "internalType": "uint256",
          "name": "_amountStakedTier",
          "type": "uint256"
        }
      ],
      "name": "calculateReward",
      "outputs": [
        {
          "internalType": "uint256",
          "name": "",
          "type": "uint256"
        }
      ],
      "stateMutability": "nonpayable",
      "type": "function"
    },
    {
      "inputs": [
        {
          "internalType": "uint256",
          "name": "_timeStakedTier",
          "type": "uint256"
        }
      ],
      "name": "depositEth",
      "outputs": [],
      "stateMutability": "payable",
      "type": "function"
    },
    {
      "inputs": [
        {
          "internalType": "uint256",
          "name": "_amount",
          "type": "uint256"
        }
      ],
      "name": "withdrawEth",
      "outputs": [],
      "stateMutability": "nonpayable",
      "type": "function"
    },
    {
      "inputs": [],
      "name": "testUserData",
      "outputs": [
        {
          "internalType": "uint256",
          "name": "",
          "type": "uint256"
        },
        {
          "internalType": "uint256",
          "name": "",
          "type": "uint256"
        },
        {
          "internalType": "uint256",
          "name": "",
          "type": "uint256"
        },
        {
          "internalType": "uint256",
          "name": "",
          "type": "uint256"
        },
        {
          "internalType": "uint256",
          "name": "",
          "type": "uint256"
        }
      ],
      "stateMutability": "view",
      "type": "function"
    },
    {
      "inputs": [],
      "name": "calc",
      "outputs": [
        {
          "internalType": "uint256",
          "name": "",
          "type": "uint256"
        }
      ],
      "stateMutability": "payable",
      "type": "function"
    },
    {
      "inputs": [
        {
          "internalType": "uint256",
          "name": "_amount",
          "type": "uint256"
        }
      ],
      "name": "withdrawStaking",
      "outputs": [],
      "stateMutability": "payable",
      "type": "function"
    }
  ],
  "bytecode": "0x60806040526d314dc6448d9338c15b0a0000000060035534801561002257600080fd5b50600560016000600181526020019081526020016000206000600181526020019081526020016000208190555060066001600060018152602001908152602001600020600060028152602001908152602001600020819055506007600160006001815260200190815260200160002060006003815260200190815260200160002081905550600860016000600181526020019081526020016000206000600481526020019081526020016000208190555060096001600060018152602001908152602001600020600060058152602001908152602001600020819055506006600160006002815260200190815260200160002060006001815260200190815260200160002081905550600760016000600281526020019081526020016000206000600281526020019081526020016000208190555060086001600060028152602001908152602001600020600060038152602001908152602001600020819055506009600160006002815260200190815260200160002060006004815260200190815260200160002081905550600a600160006002815260200190815260200160002060006005815260200190815260200160002081905550600760016000600381526020019081526020016000206000600181526020019081526020016000208190555060086001600060038152602001908152602001600020600060028152602001908152602001600020819055506009600160006003815260200190815260200160002060006003815260200190815260200160002081905550600a600160006003815260200190815260200160002060006004815260200190815260200160002081905550600e6001600060038152602001908152602001600020600060058152602001908152602001600020819055506009600160006004815260200190815260200160002060006001815260200190815260200160002081905550600b600160006004815260200190815260200160002060006002815260200190815260200160002081905550600d600160006004815260200190815260200160002060006003815260200190815260200160002081905550600f6001600060048152602001908152602001600020600060048152602001908152602001600020819055506011600160006004815260200190815260200160002060006005815260200190815260200160002081905550600a600160006005815260200190815260200160002060006001815260200190815260200160002081905550600d600160006005815260200190815260200160002060006002815260200190815260200160002081905550601060016000600581526020019081526020016000206000600381526020019081526020016000208190555060136001600060058152602001908152602001600020600060048152602001908152602001600020819055506014600160006005815260200190815260200160002060006005815260200190815260200160002081905550610db58061047e6000396000f3fe6080604052600436106100555760003560e01c80630713cce11461005a5780630f4d14e9146100a15780632e0b78f6146100cf57806396f1b6be146100fd578063a8e62b971461011b578063c311d0491461017e575b600080fd5b34801561006657600080fd5b5061006f6101b9565b604051808681526020018581526020018481526020018381526020018281526020019550505050505060405180910390f35b6100cd600480360360208110156100b757600080fd5b8101908080359060200190929190505050610321565b005b6100fb600480360360208110156100e557600080fd5b8101908080359060200190929190505050610684565b005b610105610788565b6040518082815260200191505060405180910390f35b34801561012757600080fd5b506101686004803603606081101561013e57600080fd5b810190808035906020019092919080359060200190929190803590602001909291905050506107b0565b6040518082815260200191505060405180910390f35b34801561018a57600080fd5b506101b7600480360360208110156101a157600080fd5b81019080803590602001909291905050506107ff565b005b6000806000806000600260003373ffffffffffffffffffffffffffffffffffffffff1673ffffffffffffffffffffffffffffffffffffffff16815260200190815260200160002060020154600260003373ffffffffffffffffffffffffffffffffffffffff1673ffffffffffffffffffffffffffffffffffffffff16815260200190815260200160002060000154600260003373ffffffffffffffffffffffffffffffffffffffff1673ffffffffffffffffffffffffffffffffffffffff16815260200190815260200160002060030154600260003373ffffffffffffffffffffffffffffffffffffffff1673ffffffffffffffffffffffffffffffffffffffff16815260200190815260200160002060040154600260003373ffffffffffffffffffffffffffffffffffffffff1673ffffffffffffffffffffffffffffffffffffffff16815260200190815260200160002060050154945094509450945094509091929394565b600067058d15e176280000341161033b576001905061038c565b671bc16d674ec800003411610353576002905061038b565b674563918244f40000341161036b576003905061038a565b68015af1d78b58c4000034116103845760049050610389565b600590505b5b5b5b80600260003373ffffffffffffffffffffffffffffffffffffffff1673ffffffffffffffffffffffffffffffffffffffff16815260200190815260200160002060050181905550670214e8348c4f0000341015610434576040517f08c379a0000000000000000000000000000000000000000000000000000000008152600401808060200182810382526023815260200180610d5d6023913960400191505060405180910390fd5b60006104413484846107b0565b90506003548111156104bb576040517f08c379a000000000000000000000000000000000000000000000000000000000815260040180806020018281038252601e8152602001807f54726561737572792069732063757272656e746c79206465706c65746564000081525060200191505060405180910390fd5b6104c760035482610cc2565b600381905550610519600260003373ffffffffffffffffffffffffffffffffffffffff1673ffffffffffffffffffffffffffffffffffffffff1681526020019081526020016000206003015482610cd9565b600260003373ffffffffffffffffffffffffffffffffffffffff1673ffffffffffffffffffffffffffffffffffffffff1681526020019081526020016000206003018190555082600260003373ffffffffffffffffffffffffffffffffffffffff1673ffffffffffffffffffffffffffffffffffffffff168152602001908152602001600020600401819055506105f2600260003373ffffffffffffffffffffffffffffffffffffffff1673ffffffffffffffffffffffffffffffffffffffff1681526020019081526020016000206002015434610cd9565b600260003373ffffffffffffffffffffffffffffffffffffffff1673ffffffffffffffffffffffffffffffffffffffff1681526020019081526020016000206002018190555042600260003373ffffffffffffffffffffffffffffffffffffffff1673ffffffffffffffffffffffffffffffffffffffff16815260200190815260200160002060000181905550505050565b6032600260003373ffffffffffffffffffffffffffffffffffffffff1673ffffffffffffffffffffffffffffffffffffffff16815260200190815260200160002060010154101561073d576040517f08c379a000000000000000000000000000000000000000000000000000000000815260040180806020018281038252601f8152602001807f5265776172642077616c6c657420646f6573206e6f742068617665203530240081525060200191505060405180910390fd5b6000600260003373ffffffffffffffffffffffffffffffffffffffff1673ffffffffffffffffffffffffffffffffffffffff1681526020019081526020016000206003018190555050565b60006107ab670de0b6b3a76400006107a66377359400610b1b610cf5565b610d2c565b905090565b6000806501d1a94a200090506107f56107ef86600160008881526020019081526020016000206000878152602001908152602001600020546064610d45565b82610d2c565b9150509392505050565b600061085961085042600260003373ffffffffffffffffffffffffffffffffffffffff1673ffffffffffffffffffffffffffffffffffffffff16815260200190815260200160002060000154610cc2565b6228206f610d2c565b9050600080600260003373ffffffffffffffffffffffffffffffffffffffff1673ffffffffffffffffffffffffffffffffffffffff16815260200190815260200160002060020154905067058d15e17628000081116108bb576005915061090c565b671bc16d674ec8000081116108d3576004915061090b565b674563918244f4000081116108eb576003915061090a565b68015af1d78b58c4000081116109045760029150610909565b600191505b5b5b5b60006001600260003373ffffffffffffffffffffffffffffffffffffffff1673ffffffffffffffffffffffffffffffffffffffff1681526020019081526020016000206004015414156109625760019050610a65565b60028060003373ffffffffffffffffffffffffffffffffffffffff1673ffffffffffffffffffffffffffffffffffffffff1681526020019081526020016000206004015414156109b55760029050610a64565b6003600260003373ffffffffffffffffffffffffffffffffffffffff1673ffffffffffffffffffffffffffffffffffffffff168152602001908152602001600020600401541415610a095760039050610a63565b6004600260003373ffffffffffffffffffffffffffffffffffffffff1673ffffffffffffffffffffffffffffffffffffffff168152602001908152602001600020600401541415610a5d5760069050610a62565b600c90505b5b5b5b6000610af6600260003373ffffffffffffffffffffffffffffffffffffffff1673ffffffffffffffffffffffffffffffffffffffff16815260200190815260200160002060020154600260003373ffffffffffffffffffffffffffffffffffffffff1673ffffffffffffffffffffffffffffffffffffffff16815260200190815260200160002060040154866107b0565b90506000610b05828785610d45565b9050610b53600260003373ffffffffffffffffffffffffffffffffffffffff1673ffffffffffffffffffffffffffffffffffffffff1681526020019081526020016000206001015483610cd9565b600260003373ffffffffffffffffffffffffffffffffffffffff1673ffffffffffffffffffffffffffffffffffffffff16815260200190815260200160002060010181905550610be5600260003373ffffffffffffffffffffffffffffffffffffffff1673ffffffffffffffffffffffffffffffffffffffff1681526020019081526020016000206002015488610cc2565b600260003373ffffffffffffffffffffffffffffffffffffffff1673ffffffffffffffffffffffffffffffffffffffff1681526020019081526020016000206002018190555042600260003373ffffffffffffffffffffffffffffffffffffffff1673ffffffffffffffffffffffffffffffffffffffff168152602001908152602001600020600001819055503373ffffffffffffffffffffffffffffffffffffffff166108fc889081150290604051600060405180830381858888f19350505050158015610cb8573d6000803e3d6000fd5b5050505050505050565b600082821115610cce57fe5b818303905092915050565b600080828401905083811015610ceb57fe5b8091505092915050565b600080831415610d085760009050610d26565b6000828402905082848281610d1957fe5b0414610d2157fe5b809150505b92915050565b600080828481610d3857fe5b0490508091505092915050565b60008183850281610d5257fe5b049050939250505056fe4572726f722c206465706f736974206d757374206265203e3d20302e30313520455448a264697066735822122043694985b7cd16ed393c20456063b3b5390a23aa22e36eb79b652c402192f85764736f6c63430007060033",
  "immutableReferences": {},
  "source": "// SPDX-License-Identifier: GPL-3.0\n\npragma solidity >=0.7.0 <0.9.0;\n\nimport \"./interfaces/Ownable.sol\";\nimport \"./interfaces/IERC20.sol\";\nimport \"./interfaces/SafeMath.sol\";\nimport \"./interfaces/UniversalERC20.sol\";\n\ncontract Staking {\n    address oracleAddress;\n\n    constructor() {\n        stakingRewardRate[1][1] = 5;\n        stakingRewardRate[1][2] = 6;\n        stakingRewardRate[1][3] = 7;\n        stakingRewardRate[1][4] = 8;\n        stakingRewardRate[1][5] = 9;\n        //\n        stakingRewardRate[2][1] = 6;\n        stakingRewardRate[2][2] = 7;\n        stakingRewardRate[2][3] = 8;\n        stakingRewardRate[2][4] = 9;\n        stakingRewardRate[2][5] = 10;\n        //\n        stakingRewardRate[3][1] = 7;\n        stakingRewardRate[3][2] = 8;\n        stakingRewardRate[3][3] = 9;\n        stakingRewardRate[3][4] = 10;\n        stakingRewardRate[3][5] = 14;\n        //\n        stakingRewardRate[4][1] = 9;\n        stakingRewardRate[4][2] = 11;\n        stakingRewardRate[4][3] = 13;\n        stakingRewardRate[4][4] = 15;\n        stakingRewardRate[4][5] = 17;\n        //\n        stakingRewardRate[5][1] = 10;\n        stakingRewardRate[5][2] = 13;\n        stakingRewardRate[5][3] = 16;\n        stakingRewardRate[5][4] = 19;\n        stakingRewardRate[5][5] = 20;\n    }\n\n    mapping(uint256 => mapping(uint256 => uint256)) stakingRewardRate;\n\n    mapping(address => User) userBook;\n\n    uint256 CBLTReserve = 1000000000000000000000000000000000;\n\n    struct User {\n        uint256 depositTime;\n        uint256 rewardWallet;\n        uint256 ethBalance;\n        uint256 cbltReserved;\n        uint256 timeStakedTier;\n        uint256 ethStaked;\n    }\n\n    function calculateReward(\n        uint256 _amount,\n        uint256 _timeStakedTier,\n        uint256 _amountStakedTier\n    ) public returns (uint256) {\n        // Pull token price from oracle\n        // (bool result, bytes memory data) =\n        //     oracleAddress.call(\n        //         abi.encodeWithSignature(\n        //             \"getValue(address)\",\n        //             0x29a99c126596c0Dc96b02A88a9EAab44EcCf511e\n        //         )\n        //     );\n        // Decode bytes data\n        // uint256 tokenPrice = abi.decode(data, (uint256));\n\n        uint256 tokenPrice = 2000000000000;\n\n        return\n            SafeMath.div(\n                SafeMath.multiply(\n                    _amount,\n                    stakingRewardRate[_timeStakedTier][_amountStakedTier],\n                    100\n                ),\n                tokenPrice\n            );\n    }\n\n    function depositEth(uint256 _timeStakedTier) public payable {\n        // Check the amountStakedTier based on deposit\n        uint256 _amountStakedTier;\n\n        if (msg.value <= 4e17) {\n            _amountStakedTier = 1;\n        } else if (msg.value <= 2e18) {\n            _amountStakedTier = 2;\n        } else if (msg.value <= 5e18) {\n            _amountStakedTier = 3;\n        } else if (msg.value <= 25e18) {\n            _amountStakedTier = 4;\n        } else {\n            _amountStakedTier = 5;\n        }\n\n        userBook[msg.sender].ethStaked = _amountStakedTier;\n\n        // Minimum deposit of 0.015 ETH\n        require(msg.value >= 15e16, \"Error, deposit must be >= 0.015 ETH\");\n\n        // Checks the amount of CBLT tokens that need to be reserved\n        uint256 cbltReserved =\n            calculateReward(msg.value, _timeStakedTier, _amountStakedTier);\n\n        // Treasury must have that amount open\n        require(cbltReserved <= CBLTReserve, \"Treasury is currently depleted\");\n\n        // Substract CBLT tokens reserved for stake from treasury\n        CBLTReserve = SafeMath.sub(CBLTReserve, cbltReserved);\n\n        // Saves the amount of CBLT tokens reserved in user struct\n        userBook[msg.sender].cbltReserved = SafeMath.add(\n            userBook[msg.sender].cbltReserved,\n            cbltReserved\n        );\n\n        // Save information on the time tier\n        userBook[msg.sender].timeStakedTier = _timeStakedTier;\n\n        // Save new eth deposit in user account\n        userBook[msg.sender].ethBalance = SafeMath.add(\n            userBook[msg.sender].ethBalance,\n            msg.value\n        );\n\n        // Change the time of deposit\n        userBook[msg.sender].depositTime = block.timestamp;\n\n        // emit onReceived(msg.sender, msg.value);\n    }\n\n    function withdrawEth(uint256 _amount) public {\n        // Calulate how many months since first staked\n\n        uint256 monthsAfterDeposit =\n            SafeMath.div(\n                SafeMath.sub(block.timestamp, userBook[msg.sender].depositTime),\n                2629743\n            );\n        // Make sure user staked for at least 1 month\n        // require(monthsAfterDeposit >= 1, \"Wait 30 days to withdraw\");\n\n        uint256 _amountStakedTier;\n\n        uint256 userBalance = userBook[msg.sender].ethBalance;\n\n        if (userBalance <= 4e17) {\n            _amountStakedTier = 5;\n        } else if (userBalance <= 2e18) {\n            _amountStakedTier = 4;\n        } else if (userBalance <= 5e18) {\n            _amountStakedTier = 3;\n        } else if (userBalance <= 25e18) {\n            _amountStakedTier = 2;\n        } else {\n            _amountStakedTier = 1;\n        }\n\n        uint256 stakedPeriodMonths;\n\n        if (userBook[msg.sender].timeStakedTier == 1) {\n            stakedPeriodMonths = 1;\n        } else if (userBook[msg.sender].timeStakedTier == 2) {\n            stakedPeriodMonths = 2;\n        } else if (userBook[msg.sender].timeStakedTier == 3) {\n            stakedPeriodMonths = 3;\n        } else if (userBook[msg.sender].timeStakedTier == 4) {\n            stakedPeriodMonths = 6;\n        } else {\n            stakedPeriodMonths = 12;\n        }\n\n        // Recalculate total CBLT tokens based on current token value\n        uint256 stakingReward =\n            calculateReward(\n                userBook[msg.sender].ethBalance,\n                userBook[msg.sender].timeStakedTier,\n                _amountStakedTier\n            );\n        // Calculate staking reward based on months staked\n        uint256 monthBasedReward =\n            SafeMath.multiply(\n                stakingReward,\n                monthsAfterDeposit,\n                stakedPeriodMonths\n            );\n\n        // Save reward in wallet\n        userBook[msg.sender].rewardWallet = SafeMath.add(\n            userBook[msg.sender].rewardWallet,\n            stakingReward\n        );\n\n        // Substract eth from user account\n        userBook[msg.sender].ethBalance = SafeMath.sub(\n            userBook[msg.sender].ethBalance,\n            _amount\n        );\n        // Change the latest time of deposit\n        userBook[msg.sender].depositTime = block.timestamp;\n\n        payable(msg.sender).transfer(_amount);\n    }\n\n    function testUserData()\n        public\n        view\n        returns (\n            uint256,\n            uint256,\n            uint256,\n            uint256,\n            uint256\n        )\n    {\n        return (\n            userBook[msg.sender].ethBalance,\n            userBook[msg.sender].depositTime,\n            userBook[msg.sender].cbltReserved,\n            userBook[msg.sender].timeStakedTier,\n            userBook[msg.sender].ethStaked\n        );\n    }\n\n    function calc() public payable returns (uint256) {\n        return\n            SafeMath.div(1000000000000000000, SafeMath.mul(2000000000, 2843));\n    }\n\n    function withdrawStaking(uint256 _amount) public payable {\n        // Pull token price from oracle\n        // (bool result, bytes memory data) =\n        //     oracleAddress.call(\n        //         abi.encodeWithSignature(\n        //             \"getValue(address)\",\n        //             0x29a99c126596c0Dc96b02A88a9EAab44EcCf511e\n        //         )\n        //     );\n        // Decode bytes data\n\n        // uint256 tokenPrice = abi.decode(data, (uint256));\n\n        require(\n            userBook[msg.sender].rewardWallet >= 50,\n            \"Reward wallet does not have 50$\"\n        );\n\n        // cbltToken.universalTransferFrom(address(this), to, _amount);\n        userBook[msg.sender].cbltReserved = 0;\n    }\n}\n",
  "sourcePath": "/Users/christianroque/Desktop/TungstenGroupProject/contracts/Staking.sol",
  "compiler": {
    "name": "solc",
    "version": "0.7.6+commit.7338295f.Emscripten.clang"
  },
  "schemaVersion": "3.3.4",
  "updatedAt": "2021-05-09T21:43:05.111Z",
  "devdoc": {
    "kind": "dev",
    "methods": {},
    "version": 1
  },
  "userdoc": {
    "kind": "user",
    "methods": {},
    "version": 1
  }
}