{
  "contractName": "WoodToken",
  "abi": [
    {
      "inputs": [],
      "stateMutability": "nonpayable",
      "type": "constructor"
    },
    {
      "anonymous": false,
      "inputs": [
        {
          "indexed": false,
          "internalType": "address",
          "name": "borrower",
          "type": "address"
        },
        {
          "indexed": false,
          "internalType": "uint256",
          "name": "amount",
          "type": "uint256"
        },
        {
          "indexed": false,
          "internalType": "uint256",
          "name": "timestamp",
          "type": "uint256"
        }
      ],
      "name": "Borrowed",
      "type": "event"
    },
    {
      "inputs": [],
      "name": "_totalSupply",
      "outputs": [
        {
          "internalType": "uint256",
          "name": "",
          "type": "uint256"
        }
      ],
      "stateMutability": "view",
      "type": "function"
    },
    {
      "inputs": [],
      "name": "decimals",
      "outputs": [
        {
          "internalType": "uint8",
          "name": "",
          "type": "uint8"
        }
      ],
      "stateMutability": "view",
      "type": "function"
    },
    {
      "inputs": [],
      "name": "name",
      "outputs": [
        {
          "internalType": "string",
          "name": "",
          "type": "string"
        }
      ],
      "stateMutability": "view",
      "type": "function"
    },
    {
      "inputs": [],
      "name": "symbol",
      "outputs": [
        {
          "internalType": "string",
          "name": "",
          "type": "string"
        }
      ],
      "stateMutability": "view",
      "type": "function"
    },
    {
      "inputs": [],
      "name": "totalSupply",
      "outputs": [
        {
          "internalType": "uint256",
          "name": "",
          "type": "uint256"
        }
      ],
      "stateMutability": "view",
      "type": "function"
    },
    {
      "inputs": [
        {
          "internalType": "address",
          "name": "_borrower",
          "type": "address"
        },
        {
          "internalType": "uint256",
          "name": "_amount",
          "type": "uint256"
        }
      ],
      "name": "borrow",
      "outputs": [],
      "stateMutability": "payable",
      "type": "function"
    },
    {
      "inputs": [
        {
          "internalType": "address",
          "name": "_donator",
          "type": "address"
        },
        {
          "internalType": "uint256",
          "name": "_amount",
          "type": "uint256"
        }
      ],
      "name": "donate",
      "outputs": [],
      "stateMutability": "payable",
      "type": "function"
    },
    {
      "inputs": [
        {
          "internalType": "address",
          "name": "tokenOwner",
          "type": "address"
        }
      ],
      "name": "balanceOf",
      "outputs": [
        {
          "internalType": "uint256",
          "name": "balance",
          "type": "uint256"
        }
      ],
      "stateMutability": "view",
      "type": "function"
    },
    {
      "inputs": [
        {
          "internalType": "address",
          "name": "tokenOwner",
          "type": "address"
        },
        {
          "internalType": "address",
          "name": "spender",
          "type": "address"
        }
      ],
      "name": "allowance",
      "outputs": [
        {
          "internalType": "uint256",
          "name": "remaining",
          "type": "uint256"
        }
      ],
      "stateMutability": "view",
      "type": "function"
    },
    {
      "inputs": [
        {
          "internalType": "address",
          "name": "spender",
          "type": "address"
        },
        {
          "internalType": "uint256",
          "name": "tokens",
          "type": "uint256"
        }
      ],
      "name": "approve",
      "outputs": [
        {
          "internalType": "bool",
          "name": "success",
          "type": "bool"
        }
      ],
      "stateMutability": "nonpayable",
      "type": "function"
    }
  ],
  "bytecode": "0x608060405234801561001057600080fd5b50633b9aca006000819055506108b98061002b6000396000f3fe6080604052600436106100915760003560e01c80634b8a3529116100595780634b8a35291461021b57806370a082311461026957806395d89b41146102ce578063dd62ed3e1461035e578063e69d849d146103e357610091565b806306fdde0314610096578063095ea7b31461012657806318160ddd14610197578063313ce567146101c25780633eaaf86b146101f0575b600080fd5b3480156100a257600080fd5b506100ab610431565b6040518080602001828103825283818151815260200191508051906020019080838360005b838110156100eb5780820151818401526020810190506100d0565b50505050905090810190601f1680156101185780820380516001836020036101000a031916815260200191505b509250505060405180910390f35b34801561013257600080fd5b5061017f6004803603604081101561014957600080fd5b81019080803573ffffffffffffffffffffffffffffffffffffffff1690602001909291908035906020019092919050505061046a565b60405180821515815260200191505060405180910390f35b3480156101a357600080fd5b506101ac6104f7565b6040518082815260200191505060405180910390f35b3480156101ce57600080fd5b506101d7610542565b604051808260ff16815260200191505060405180910390f35b3480156101fc57600080fd5b50610205610547565b6040518082815260200191505060405180910390f35b6102676004803603604081101561023157600080fd5b81019080803573ffffffffffffffffffffffffffffffffffffffff1690602001909291908035906020019092919050505061054d565b005b34801561027557600080fd5b506102b86004803603602081101561028c57600080fd5b81019080803573ffffffffffffffffffffffffffffffffffffffff169060200190929190505050610691565b6040518082815260200191505060405180910390f35b3480156102da57600080fd5b506102e36106da565b6040518080602001828103825283818151815260200191508051906020019080838360005b83811015610323578082015181840152602081019050610308565b50505050905090810190601f1680156103505780820380516001836020036101000a031916815260200191505b509250505060405180910390f35b34801561036a57600080fd5b506103cd6004803603604081101561038157600080fd5b81019080803573ffffffffffffffffffffffffffffffffffffffff169060200190929190803573ffffffffffffffffffffffffffffffffffffffff169060200190929190505050610713565b6040518082815260200191505060405180910390f35b61042f600480360360408110156103f957600080fd5b81019080803573ffffffffffffffffffffffffffffffffffffffff1690602001909291908035906020019092919050505061079a565b005b6040518060400160405280600981526020017f576f6f64546f6b656e000000000000000000000000000000000000000000000081525081565b600081600260003373ffffffffffffffffffffffffffffffffffffffff1673ffffffffffffffffffffffffffffffffffffffff16815260200190815260200160002060008573ffffffffffffffffffffffffffffffffffffffff1673ffffffffffffffffffffffffffffffffffffffff168152602001908152602001600020819055506001905092915050565b6000600160008073ffffffffffffffffffffffffffffffffffffffff1673ffffffffffffffffffffffffffffffffffffffff1681526020019081526020016000205460005403905090565b601281565b60005481565b620186a081111561055d57600080fd5b670de0b6b3a76400008102600160008473ffffffffffffffffffffffffffffffffffffffff1673ffffffffffffffffffffffffffffffffffffffff1681526020019081526020016000205401600160008473ffffffffffffffffffffffffffffffffffffffff1673ffffffffffffffffffffffffffffffffffffffff1681526020019081526020016000208190555042600360008473ffffffffffffffffffffffffffffffffffffffff1673ffffffffffffffffffffffffffffffffffffffff168152602001908152602001600020819055507feae9cfbc77fdd40ca899f36b608256063b2bc9d8178b0220f7ad513e178d6730828242604051808473ffffffffffffffffffffffffffffffffffffffff168152602001838152602001828152602001935050505060405180910390a15050565b6000600160008373ffffffffffffffffffffffffffffffffffffffff1673ffffffffffffffffffffffffffffffffffffffff168152602001908152602001600020549050919050565b6040518060400160405280600381526020017f57724a000000000000000000000000000000000000000000000000000000000081525081565b6000600260008473ffffffffffffffffffffffffffffffffffffffff1673ffffffffffffffffffffffffffffffffffffffff16815260200190815260200160002060008373ffffffffffffffffffffffffffffffffffffffff1673ffffffffffffffffffffffffffffffffffffffff16815260200190815260200160002054905092915050565b670de0b6b3a76400008102600160008473ffffffffffffffffffffffffffffffffffffffff1673ffffffffffffffffffffffffffffffffffffffff1681526020019081526020016000205410156107f057600080fd5b670de0b6b3a76400008102600160008473ffffffffffffffffffffffffffffffffffffffff1673ffffffffffffffffffffffffffffffffffffffff1681526020019081526020016000205403600160008473ffffffffffffffffffffffffffffffffffffffff1673ffffffffffffffffffffffffffffffffffffffff16815260200190815260200160002081905550505056fea2646970667358221220138a70d5120a799f88851536268c41763b10f7357a3689e88263db83849f232e64736f6c63430007060033",
  "immutableReferences": {},
  "source": "// SPDX-License-Identifier: MIT\r\npragma solidity >=0.4.22 <0.9.0;\r\n\r\ncontract WoodToken {\r\n    string public constant name = \"WoodToken\";\r\n    string public constant symbol = \"WrJ\";\r\n    uint8 public constant decimals = 18;\r\n    uint256 public _totalSupply;\r\n\r\n    // saving user data on contract storage\r\n    mapping(address => uint256) balances;\r\n    mapping(address => mapping(address => uint256)) allowed;\r\n    mapping(address => uint256) timestamp; // timestamp of last borrowed time\r\n\r\n    // Events\r\n    event Borrowed(address borrower, uint256 amount, uint256 timestamp);\r\n\r\n    constructor() public {\r\n        _totalSupply = 1000000000;\r\n    }\r\n\r\n    // This function will return the total supply subtracting balances of an address\r\n    function totalSupply() public view returns (uint256) {\r\n        return _totalSupply - balances[address(0)];\r\n    }\r\n\r\n    function borrow(address _borrower, uint256 _amount) public payable {\r\n        require(_amount <= 100000);\r\n        balances[_borrower] =\r\n            balances[_borrower] +\r\n            (_amount * 1000000000000000000);\r\n        timestamp[_borrower] = block.timestamp;\r\n        emit Borrowed(_borrower, _amount, block.timestamp);\r\n    }\r\n\r\n    function donate(address _donator, uint256 _amount) public payable {\r\n        require(balances[_donator] >= _amount * 1000000000000000000);\r\n        balances[_donator] = balances[_donator] - _amount * 1000000000000000000;\r\n    }\r\n\r\n    //function will return the balance of the tokenOwner\r\n    function balanceOf(address tokenOwner)\r\n        public\r\n        view\r\n        returns (uint256 balance)\r\n    {\r\n        return balances[tokenOwner];\r\n    }\r\n\r\n    //Gives the allowance of what is allowed by the tokenOwner and Spender\r\n    function allowance(address tokenOwner, address spender)\r\n        public\r\n        view\r\n        returns (uint256 remaining)\r\n    {\r\n        return allowed[tokenOwner][spender];\r\n    }\r\n\r\n    // the function will tell us if the spender is authorize or approved to use the token\r\n    function approve(address spender, uint256 tokens)\r\n        public\r\n        returns (bool success)\r\n    {\r\n        allowed[msg.sender][spender] = tokens;\r\n        // emit Approval(msg.sender,spender,tokens);\r\n        return true;\r\n    }\r\n}\r\n",
  "sourcePath": "D:/TGProject/TungstenGroupProject/contracts/WoodToken.sol",
  "compiler": {
    "name": "solc",
    "version": "0.7.6+commit.7338295f.Emscripten.clang"
  },
  "schemaVersion": "3.3.4",
  "updatedAt": "2021-05-06T11:57:53.817Z",
  "devdoc": {
    "kind": "dev",
    "methods": {},
    "version": 1
  },
  "userdoc": {
    "kind": "user",
    "methods": {},
    "version": 1
  }
}